{
  "_format": "hh-sol-artifact-1",
  "contractName": "MintMapping",
  "sourceName": "contracts/MintMapping.sol",
  "abi": [
    {
      "inputs": [
        {
          "internalType": "string[]",
          "name": "_addressList",
          "type": "string[]"
        }
      ],
      "name": "addToList",
      "outputs": [],
      "stateMutability": "nonpayable",
      "type": "function"
    },
    {
      "inputs": [
        {
          "internalType": "string[]",
          "name": "_addressList",
          "type": "string[]"
        }
      ],
      "name": "removeBalances",
      "outputs": [],
      "stateMutability": "nonpayable",
      "type": "function"
    }
  ],
  "bytecode": "0x608060405234801561001057600080fd5b50610723806100206000396000f3fe608060405234801561001057600080fd5b50600436106100365760003560e01c80636645736e1461003b578063e5dbccd114610057575b600080fd5b61005560048036038101906100509190610501565b610073565b005b610071600480360381019061006c9190610501565b6100e2565b005b60005b6103e88110156100d0576000808383815181106100965761009561054a565b5b60200260200101516040516100ab91906105f3565b90815260200160405180910390208190555080806100c890610643565b915050610076565b50600160006100df9190610199565b50565b60005b60fa81101561019557600160008383815181106101055761010461054a565b5b602002602001015160405161011a91906105f3565b90815260200160405180910390208190555060018282815181106101415761014061054a565b5b60200260200101519080600181540180825580915050600190039060005260206000200160009091909190915090805190602001906101819291906101ba565b50808061018d90610643565b9150506100e5565b5050565b50805460008255906000526020600020908101906101b79190610240565b50565b8280546101c6906106bb565b90600052602060002090601f0160209004810192826101e8576000855561022f565b82601f1061020157805160ff191683800117855561022f565b8280016001018555821561022f579182015b8281111561022e578251825591602001919060010190610213565b5b50905061023c9190610264565b5090565b5b8082111561026057600081816102579190610281565b50600101610241565b5090565b5b8082111561027d576000816000905550600101610265565b5090565b50805461028d906106bb565b6000825580601f1061029f57506102be565b601f0160209004906000526020600020908101906102bd9190610264565b5b50565b6000604051905090565b600080fd5b600080fd5b600080fd5b6000601f19601f8301169050919050565b7f4e487b7100000000000000000000000000000000000000000000000000000000600052604160045260246000fd5b610323826102da565b810181811067ffffffffffffffff82111715610342576103416102eb565b5b80604052505050565b60006103556102c1565b9050610361828261031a565b919050565b600067ffffffffffffffff821115610381576103806102eb565b5b602082029050602081019050919050565b600080fd5b600080fd5b600067ffffffffffffffff8211156103b7576103b66102eb565b5b6103c0826102da565b9050602081019050919050565b82818337600083830152505050565b60006103ef6103ea8461039c565b61034b565b90508281526020810184848401111561040b5761040a610397565b5b6104168482856103cd565b509392505050565b600082601f830112610433576104326102d5565b5b81356104438482602086016103dc565b91505092915050565b600061045f61045a84610366565b61034b565b9050808382526020820190506020840283018581111561048257610481610392565b5b835b818110156104c957803567ffffffffffffffff8111156104a7576104a66102d5565b5b8086016104b4898261041e565b85526020850194505050602081019050610484565b5050509392505050565b600082601f8301126104e8576104e76102d5565b5b81356104f884826020860161044c565b91505092915050565b600060208284031215610517576105166102cb565b5b600082013567ffffffffffffffff811115610535576105346102d0565b5b610541848285016104d3565b91505092915050565b7f4e487b7100000000000000000000000000000000000000000000000000000000600052603260045260246000fd5b600081519050919050565b600081905092915050565b60005b838110156105ad578082015181840152602081019050610592565b838111156105bc576000848401525b50505050565b60006105cd82610579565b6105d78185610584565b93506105e781856020860161058f565b80840191505092915050565b60006105ff82846105c2565b915081905092915050565b7f4e487b7100000000000000000000000000000000000000000000000000000000600052601160045260246000fd5b6000819050919050565b600061064e82610639565b91507fffffffffffffffffffffffffffffffffffffffffffffffffffffffffffffffff8214156106815761068061060a565b5b600182019050919050565b7f4e487b7100000000000000000000000000000000000000000000000000000000600052602260045260246000fd5b600060028204905060018216806106d357607f821691505b602082108114156106e7576106e661068c565b5b5091905056fea2646970667358221220dbb854f18eea2932e856ab4c07d775b5f6647ea0d22e996fd620f2c4a5c7fc6a64736f6c63430008090033",
  "linkReferences": {},
  "deployedLinkReferences": {}
}