{
  "_format": "hh-sol-artifact-1",
  "contractName": "VIF",
  "sourceName": "contracts/VIF.sol",
  "abi": [
    {
      "anonymous": false,
      "inputs": [
        {
          "indexed": true,
          "internalType": "address",
          "name": "previousOwner",
          "type": "address"
        },
        {
          "indexed": true,
          "internalType": "address",
          "name": "newOwner",
          "type": "address"
        }
      ],
      "name": "OwnershipTransferred",
      "type": "event"
    },
    {
      "inputs": [
        {
          "internalType": "address",
          "name": "_address",
          "type": "address"
        }
      ],
      "name": "getVIF",
      "outputs": [
        {
          "internalType": "uint256",
          "name": "",
          "type": "uint256"
        }
      ],
      "stateMutability": "view",
      "type": "function"
    },
    {
      "inputs": [],
      "name": "getVIFLeft",
      "outputs": [
        {
          "internalType": "uint256",
          "name": "",
          "type": "uint256"
        }
      ],
      "stateMutability": "view",
      "type": "function"
    },
    {
      "inputs": [],
      "name": "owner",
      "outputs": [
        {
          "internalType": "address",
          "name": "",
          "type": "address"
        }
      ],
      "stateMutability": "view",
      "type": "function"
    },
    {
      "inputs": [],
      "name": "renounceOwnership",
      "outputs": [],
      "stateMutability": "nonpayable",
      "type": "function"
    },
    {
      "inputs": [
        {
          "internalType": "uint256",
          "name": "_VIFCount",
          "type": "uint256"
        }
      ],
      "name": "resetVIF",
      "outputs": [],
      "stateMutability": "nonpayable",
      "type": "function"
    },
    {
      "inputs": [
        {
          "internalType": "address[]",
          "name": "_vifs",
          "type": "address[]"
        }
      ],
      "name": "setVIF",
      "outputs": [],
      "stateMutability": "nonpayable",
      "type": "function"
    },
    {
      "inputs": [
        {
          "internalType": "address",
          "name": "newOwner",
          "type": "address"
        }
      ],
      "name": "transferOwnership",
      "outputs": [],
      "stateMutability": "nonpayable",
      "type": "function"
    }
  ],
  "bytecode": "0x60806040526101f460035534801561001657600080fd5b5061003361002861003860201b60201c565b61004060201b60201c565b610104565b600033905090565b60008060009054906101000a900473ffffffffffffffffffffffffffffffffffffffff169050816000806101000a81548173ffffffffffffffffffffffffffffffffffffffff021916908373ffffffffffffffffffffffffffffffffffffffff1602179055508173ffffffffffffffffffffffffffffffffffffffff168173ffffffffffffffffffffffffffffffffffffffff167f8be0079c531659141344cd1fd0a4f28419497f9722a3daafe3b4186f6b6457e060405160405180910390a35050565b610dfc806101136000396000f3fe608060405234801561001057600080fd5b506004361061007d5760003560e01c80638da5cb5b1161005b5780638da5cb5b146100d85780639171c3da146100f65780639b14960814610114578063f2fde38b146101305761007d565b80633bdb7c9e14610082578063715018a6146100b25780638686d795146100bc575b600080fd5b61009c6004803603810190610097919061098c565b61014c565b6040516100a99190610b21565b60405180910390f35b6100ba610211565b005b6100d660048036038101906100d191906109f6565b610299565b005b6100e06103fa565b6040516100ed9190610aa6565b60405180910390f35b6100fe610423565b60405161010b9190610b21565b60405180910390f35b61012e600480360381019061012991906109b5565b6104a9565b005b61014a6004803603810190610145919061098c565b6106ca565b005b60006101566107c2565b73ffffffffffffffffffffffffffffffffffffffff166101746103fa565b73ffffffffffffffffffffffffffffffffffffffff16146101ca576040517f08c379a00000000000000000000000000000000000000000000000000000000081526004016101c190610b01565b60405180910390fd5b600160008373ffffffffffffffffffffffffffffffffffffffff1673ffffffffffffffffffffffffffffffffffffffff168152602001908152602001600020549050919050565b6102196107c2565b73ffffffffffffffffffffffffffffffffffffffff166102376103fa565b73ffffffffffffffffffffffffffffffffffffffff161461028d576040517f08c379a000000000000000000000000000000000000000000000000000000000815260040161028490610b01565b60405180910390fd5b61029760006107ca565b565b6102a16107c2565b73ffffffffffffffffffffffffffffffffffffffff166102bf6103fa565b73ffffffffffffffffffffffffffffffffffffffff1614610315576040517f08c379a000000000000000000000000000000000000000000000000000000000815260040161030c90610b01565b60405180910390fd5b60005b6002805490508110156103e15760006001600060028481548110610365577f4e487b7100000000000000000000000000000000000000000000000000000000600052603260045260246000fd5b9060005260206000200160009054906101000a900473ffffffffffffffffffffffffffffffffffffffff1673ffffffffffffffffffffffffffffffffffffffff1673ffffffffffffffffffffffffffffffffffffffff1681526020019081526020016000208190555080806103d990610c3f565b915050610318565b50600260006103f0919061088e565b8060038190555050565b60008060009054906101000a900473ffffffffffffffffffffffffffffffffffffffff16905090565b600061042d6107c2565b73ffffffffffffffffffffffffffffffffffffffff1661044b6103fa565b73ffffffffffffffffffffffffffffffffffffffff16146104a1576040517f08c379a000000000000000000000000000000000000000000000000000000000815260040161049890610b01565b60405180910390fd5b600354905090565b6104b16107c2565b73ffffffffffffffffffffffffffffffffffffffff166104cf6103fa565b73ffffffffffffffffffffffffffffffffffffffff1614610525576040517f08c379a000000000000000000000000000000000000000000000000000000000815260040161051c90610b01565b60405180910390fd5b8051600354101561056b576040517f08c379a000000000000000000000000000000000000000000000000000000000815260040161056290610ae1565b60405180910390fd5b60005b81518110156106b15760018060008484815181106105b5577f4e487b7100000000000000000000000000000000000000000000000000000000600052603260045260246000fd5b602002602001015173ffffffffffffffffffffffffffffffffffffffff1673ffffffffffffffffffffffffffffffffffffffff168152602001908152602001600020819055506002828281518110610636577f4e487b7100000000000000000000000000000000000000000000000000000000600052603260045260246000fd5b60200260200101519080600181540180825580915050600190039060005260206000200160009091909190916101000a81548173ffffffffffffffffffffffffffffffffffffffff021916908373ffffffffffffffffffffffffffffffffffffffff16021790555080806106a990610c3f565b91505061056e565b5080516003546106c19190610b9e565b60038190555050565b6106d26107c2565b73ffffffffffffffffffffffffffffffffffffffff166106f06103fa565b73ffffffffffffffffffffffffffffffffffffffff1614610746576040517f08c379a000000000000000000000000000000000000000000000000000000000815260040161073d90610b01565b60405180910390fd5b600073ffffffffffffffffffffffffffffffffffffffff168173ffffffffffffffffffffffffffffffffffffffff1614156107b6576040517f08c379a00000000000000000000000000000000000000000000000000000000081526004016107ad90610ac1565b60405180910390fd5b6107bf816107ca565b50565b600033905090565b60008060009054906101000a900473ffffffffffffffffffffffffffffffffffffffff169050816000806101000a81548173ffffffffffffffffffffffffffffffffffffffff021916908373ffffffffffffffffffffffffffffffffffffffff1602179055508173ffffffffffffffffffffffffffffffffffffffff168173ffffffffffffffffffffffffffffffffffffffff167f8be0079c531659141344cd1fd0a4f28419497f9722a3daafe3b4186f6b6457e060405160405180910390a35050565b50805460008255906000526020600020908101906108ac91906108af565b50565b5b808211156108c85760008160009055506001016108b0565b5090565b60006108df6108da84610b61565b610b3c565b905080838252602082019050828560208602820111156108fe57600080fd5b60005b8581101561092e57816109148882610938565b845260208401935060208301925050600181019050610901565b5050509392505050565b60008135905061094781610d98565b92915050565b600082601f83011261095e57600080fd5b813561096e8482602086016108cc565b91505092915050565b60008135905061098681610daf565b92915050565b60006020828403121561099e57600080fd5b60006109ac84828501610938565b91505092915050565b6000602082840312156109c757600080fd5b600082013567ffffffffffffffff8111156109e157600080fd5b6109ed8482850161094d565b91505092915050565b600060208284031215610a0857600080fd5b6000610a1684828501610977565b91505092915050565b610a2881610bd2565b82525050565b6000610a3b602683610b8d565b9150610a4682610cf7565b604082019050919050565b6000610a5e601983610b8d565b9150610a6982610d46565b602082019050919050565b6000610a81602083610b8d565b9150610a8c82610d6f565b602082019050919050565b610aa081610c04565b82525050565b6000602082019050610abb6000830184610a1f565b92915050565b60006020820190508181036000830152610ada81610a2e565b9050919050565b60006020820190508181036000830152610afa81610a51565b9050919050565b60006020820190508181036000830152610b1a81610a74565b9050919050565b6000602082019050610b366000830184610a97565b92915050565b6000610b46610b57565b9050610b528282610c0e565b919050565b6000604051905090565b600067ffffffffffffffff821115610b7c57610b7b610cb7565b5b602082029050602081019050919050565b600082825260208201905092915050565b6000610ba982610c04565b9150610bb483610c04565b925082821015610bc757610bc6610c88565b5b828203905092915050565b6000610bdd82610be4565b9050919050565b600073ffffffffffffffffffffffffffffffffffffffff82169050919050565b6000819050919050565b610c1782610ce6565b810181811067ffffffffffffffff82111715610c3657610c35610cb7565b5b80604052505050565b6000610c4a82610c04565b91507fffffffffffffffffffffffffffffffffffffffffffffffffffffffffffffffff821415610c7d57610c7c610c88565b5b600182019050919050565b7f4e487b7100000000000000000000000000000000000000000000000000000000600052601160045260246000fd5b7f4e487b7100000000000000000000000000000000000000000000000000000000600052604160045260246000fd5b6000601f19601f8301169050919050565b7f4f776e61626c653a206e6577206f776e657220697320746865207a65726f206160008201527f6464726573730000000000000000000000000000000000000000000000000000602082015250565b7f4e6f7420456e6f756768205649462073706f7473206c65667400000000000000600082015250565b7f4f776e61626c653a2063616c6c6572206973206e6f7420746865206f776e6572600082015250565b610da181610bd2565b8114610dac57600080fd5b50565b610db881610c04565b8114610dc357600080fd5b5056fea2646970667358221220d0e79ae21367990f221708c94f7f73d15641b7a7d646e56148808a0386fcc3e364736f6c63430008040033",
  "linkReferences": {},
  "deployedLinkReferences": {}
}