{
  "_format": "hh-sol-artifact-1",
  "contractName": "CuteeFruitee",
  "sourceName": "contracts/CuteeFruitee.sol",
  "abi": [
    {
      "inputs": [
        {
          "internalType": "string",
          "name": "uri1",
          "type": "string"
        }
      ],
      "stateMutability": "nonpayable",
      "type": "constructor"
    },
    {
      "anonymous": false,
      "inputs": [
        {
          "indexed": true,
          "internalType": "address",
          "name": "account",
          "type": "address"
        },
        {
          "indexed": true,
          "internalType": "address",
          "name": "operator",
          "type": "address"
        },
        {
          "indexed": false,
          "internalType": "bool",
          "name": "approved",
          "type": "bool"
        }
      ],
      "name": "ApprovalForAll",
      "type": "event"
    },
    {
      "anonymous": false,
      "inputs": [
        {
          "indexed": false,
          "internalType": "address",
          "name": "_sender",
          "type": "address"
        },
        {
          "indexed": false,
          "internalType": "uint256",
          "name": "_supply",
          "type": "uint256"
        }
      ],
      "name": "IncreaseReceiptSupply",
      "type": "event"
    },
    {
      "anonymous": false,
      "inputs": [
        {
          "indexed": true,
          "internalType": "address",
          "name": "previousOwner",
          "type": "address"
        },
        {
          "indexed": true,
          "internalType": "address",
          "name": "newOwner",
          "type": "address"
        }
      ],
      "name": "OwnershipTransferred",
      "type": "event"
    },
    {
      "anonymous": false,
      "inputs": [
        {
          "indexed": true,
          "internalType": "address",
          "name": "operator",
          "type": "address"
        },
        {
          "indexed": true,
          "internalType": "address",
          "name": "from",
          "type": "address"
        },
        {
          "indexed": true,
          "internalType": "address",
          "name": "to",
          "type": "address"
        },
        {
          "indexed": false,
          "internalType": "uint256[]",
          "name": "ids",
          "type": "uint256[]"
        },
        {
          "indexed": false,
          "internalType": "uint256[]",
          "name": "values",
          "type": "uint256[]"
        }
      ],
      "name": "TransferBatch",
      "type": "event"
    },
    {
      "anonymous": false,
      "inputs": [
        {
          "indexed": true,
          "internalType": "address",
          "name": "operator",
          "type": "address"
        },
        {
          "indexed": true,
          "internalType": "address",
          "name": "from",
          "type": "address"
        },
        {
          "indexed": true,
          "internalType": "address",
          "name": "to",
          "type": "address"
        },
        {
          "indexed": false,
          "internalType": "uint256",
          "name": "id",
          "type": "uint256"
        },
        {
          "indexed": false,
          "internalType": "uint256",
          "name": "value",
          "type": "uint256"
        }
      ],
      "name": "TransferSingle",
      "type": "event"
    },
    {
      "anonymous": false,
      "inputs": [
        {
          "indexed": false,
          "internalType": "string",
          "name": "value",
          "type": "string"
        },
        {
          "indexed": true,
          "internalType": "uint256",
          "name": "id",
          "type": "uint256"
        }
      ],
      "name": "URI",
      "type": "event"
    },
    {
      "inputs": [
        {
          "internalType": "address",
          "name": "",
          "type": "address"
        }
      ],
      "name": "addressToMintPass",
      "outputs": [
        {
          "internalType": "uint256",
          "name": "",
          "type": "uint256"
        }
      ],
      "stateMutability": "view",
      "type": "function"
    },
    {
      "inputs": [
        {
          "internalType": "address",
          "name": "account",
          "type": "address"
        },
        {
          "internalType": "uint256",
          "name": "id",
          "type": "uint256"
        }
      ],
      "name": "balanceOf",
      "outputs": [
        {
          "internalType": "uint256",
          "name": "",
          "type": "uint256"
        }
      ],
      "stateMutability": "view",
      "type": "function"
    },
    {
      "inputs": [
        {
          "internalType": "address[]",
          "name": "accounts",
          "type": "address[]"
        },
        {
          "internalType": "uint256[]",
          "name": "ids",
          "type": "uint256[]"
        }
      ],
      "name": "balanceOfBatch",
      "outputs": [
        {
          "internalType": "uint256[]",
          "name": "",
          "type": "uint256[]"
        }
      ],
      "stateMutability": "view",
      "type": "function"
    },
    {
      "inputs": [],
      "name": "bundleTotalSupply",
      "outputs": [
        {
          "internalType": "uint256",
          "name": "",
          "type": "uint256"
        }
      ],
      "stateMutability": "view",
      "type": "function"
    },
    {
      "inputs": [
        {
          "internalType": "address",
          "name": "_recipient",
          "type": "address"
        }
      ],
      "name": "getMintPassCount",
      "outputs": [
        {
          "internalType": "uint256",
          "name": "",
          "type": "uint256"
        }
      ],
      "stateMutability": "view",
      "type": "function"
    },
    {
      "inputs": [],
      "name": "getPresaleMintCount",
      "outputs": [
        {
          "internalType": "uint256",
          "name": "",
          "type": "uint256"
        }
      ],
      "stateMutability": "view",
      "type": "function"
    },
    {
      "inputs": [],
      "name": "getPricePerBundle",
      "outputs": [
        {
          "internalType": "uint256",
          "name": "",
          "type": "uint256"
        }
      ],
      "stateMutability": "view",
      "type": "function"
    },
    {
      "inputs": [],
      "name": "getVifMintCount",
      "outputs": [
        {
          "internalType": "uint256",
          "name": "",
          "type": "uint256"
        }
      ],
      "stateMutability": "view",
      "type": "function"
    },
    {
      "inputs": [
        {
          "internalType": "address",
          "name": "account",
          "type": "address"
        },
        {
          "internalType": "address",
          "name": "operator",
          "type": "address"
        }
      ],
      "name": "isApprovedForAll",
      "outputs": [
        {
          "internalType": "bool",
          "name": "",
          "type": "bool"
        }
      ],
      "stateMutability": "view",
      "type": "function"
    },
    {
      "inputs": [
        {
          "internalType": "bytes32[]",
          "name": "_merkleProof",
          "type": "bytes32[]"
        },
        {
          "internalType": "uint256",
          "name": "_maxAmount",
          "type": "uint256"
        }
      ],
      "name": "mintBundle",
      "outputs": [],
      "stateMutability": "payable",
      "type": "function"
    },
    {
      "inputs": [
        {
          "internalType": "address[]",
          "name": "_giveaways",
          "type": "address[]"
        }
      ],
      "name": "mintPassGiveaway",
      "outputs": [],
      "stateMutability": "nonpayable",
      "type": "function"
    },
    {
      "inputs": [
        {
          "internalType": "uint256",
          "name": "",
          "type": "uint256"
        }
      ],
      "name": "mintersList",
      "outputs": [
        {
          "internalType": "address",
          "name": "",
          "type": "address"
        }
      ],
      "stateMutability": "view",
      "type": "function"
    },
    {
      "inputs": [],
      "name": "owner",
      "outputs": [
        {
          "internalType": "address",
          "name": "",
          "type": "address"
        }
      ],
      "stateMutability": "view",
      "type": "function"
    },
    {
      "inputs": [],
      "name": "presaleMintCount",
      "outputs": [
        {
          "internalType": "uint256",
          "name": "",
          "type": "uint256"
        }
      ],
      "stateMutability": "view",
      "type": "function"
    },
    {
      "inputs": [],
      "name": "receiptTotalSupply",
      "outputs": [
        {
          "internalType": "uint256",
          "name": "",
          "type": "uint256"
        }
      ],
      "stateMutability": "view",
      "type": "function"
    },
    {
      "inputs": [],
      "name": "renounceOwnership",
      "outputs": [],
      "stateMutability": "nonpayable",
      "type": "function"
    },
    {
      "inputs": [
        {
          "internalType": "address",
          "name": "from",
          "type": "address"
        },
        {
          "internalType": "address",
          "name": "to",
          "type": "address"
        },
        {
          "internalType": "uint256[]",
          "name": "ids",
          "type": "uint256[]"
        },
        {
          "internalType": "uint256[]",
          "name": "amounts",
          "type": "uint256[]"
        },
        {
          "internalType": "bytes",
          "name": "data",
          "type": "bytes"
        }
      ],
      "name": "safeBatchTransferFrom",
      "outputs": [],
      "stateMutability": "nonpayable",
      "type": "function"
    },
    {
      "inputs": [
        {
          "internalType": "address",
          "name": "from",
          "type": "address"
        },
        {
          "internalType": "address",
          "name": "to",
          "type": "address"
        },
        {
          "internalType": "uint256",
          "name": "id",
          "type": "uint256"
        },
        {
          "internalType": "uint256",
          "name": "amount",
          "type": "uint256"
        },
        {
          "internalType": "bytes",
          "name": "data",
          "type": "bytes"
        }
      ],
      "name": "safeTransferFrom",
      "outputs": [],
      "stateMutability": "nonpayable",
      "type": "function"
    },
    {
      "inputs": [
        {
          "internalType": "address",
          "name": "operator",
          "type": "address"
        },
        {
          "internalType": "bool",
          "name": "approved",
          "type": "bool"
        }
      ],
      "name": "setApprovalForAll",
      "outputs": [],
      "stateMutability": "nonpayable",
      "type": "function"
    },
    {
      "inputs": [],
      "name": "setFruitySale",
      "outputs": [],
      "stateMutability": "nonpayable",
      "type": "function"
    },
    {
      "inputs": [
        {
          "internalType": "bytes32",
          "name": "_merkleRoot",
          "type": "bytes32"
        }
      ],
      "name": "setMerkleRoot",
      "outputs": [],
      "stateMutability": "nonpayable",
      "type": "function"
    },
    {
      "inputs": [
        {
          "internalType": "uint256",
          "name": "_gwei",
          "type": "uint256"
        }
      ],
      "name": "setPricePerBundle",
      "outputs": [],
      "stateMutability": "nonpayable",
      "type": "function"
    },
    {
      "inputs": [],
      "name": "setPublicSale",
      "outputs": [],
      "stateMutability": "nonpayable",
      "type": "function"
    },
    {
      "inputs": [
        {
          "internalType": "uint256",
          "name": "_vifMintAmount",
          "type": "uint256"
        },
        {
          "internalType": "uint256",
          "name": "_presaleMintAmount",
          "type": "uint256"
        }
      ],
      "name": "setSeason",
      "outputs": [],
      "stateMutability": "nonpayable",
      "type": "function"
    },
    {
      "inputs": [],
      "name": "setVifSale",
      "outputs": [],
      "stateMutability": "nonpayable",
      "type": "function"
    },
    {
      "inputs": [
        {
          "internalType": "bytes4",
          "name": "interfaceId",
          "type": "bytes4"
        }
      ],
      "name": "supportsInterface",
      "outputs": [
        {
          "internalType": "bool",
          "name": "",
          "type": "bool"
        }
      ],
      "stateMutability": "view",
      "type": "function"
    },
    {
      "inputs": [
        {
          "internalType": "address",
          "name": "newOwner",
          "type": "address"
        }
      ],
      "name": "transferOwnership",
      "outputs": [],
      "stateMutability": "nonpayable",
      "type": "function"
    },
    {
      "inputs": [
        {
          "internalType": "uint256",
          "name": "_tokenId",
          "type": "uint256"
        }
      ],
      "name": "uri",
      "outputs": [
        {
          "internalType": "string",
          "name": "",
          "type": "string"
        }
      ],
      "stateMutability": "view",
      "type": "function"
    },
    {
      "inputs": [],
      "name": "useMintPass",
      "outputs": [],
      "stateMutability": "nonpayable",
      "type": "function"
    },
    {
      "inputs": [],
      "name": "vifMintCount",
      "outputs": [
        {
          "internalType": "uint256",
          "name": "",
          "type": "uint256"
        }
      ],
      "stateMutability": "view",
      "type": "function"
    },
    {
      "inputs": [],
      "name": "withdrawBalance",
      "outputs": [],
      "stateMutability": "nonpayable",
      "type": "function"
    }
  ],
  "bytecode": "0x60806040526001600455620186a160055567016345785d8a00006008556000600a60006101000a81548160ff0219169083151502179055506000600a60016101000a81548160ff0219169083151502179055506000600a60026101000a81548160ff0219169083151502179055503480156200007a57600080fd5b5060405162005b3b38038062005b3b8339818101604052810190620000a091906200043a565b620000c0620000b46200010360201b60201c565b6200010b60201b60201c565b6001600381905550620000d981620001d160201b60201c565b6064600d81905550610159600c81905550610bb86007819055506103e860068190555050620004ef565b600033905090565b6000600260009054906101000a900473ffffffffffffffffffffffffffffffffffffffff16905081600260006101000a81548173ffffffffffffffffffffffffffffffffffffffff021916908373ffffffffffffffffffffffffffffffffffffffff1602179055508173ffffffffffffffffffffffffffffffffffffffff168173ffffffffffffffffffffffffffffffffffffffff167f8be0079c531659141344cd1fd0a4f28419497f9722a3daafe3b4186f6b6457e060405160405180910390a35050565b80600b9080519060200190620001e9929190620001ed565b5050565b828054620001fb90620004ba565b90600052602060002090601f0160209004810192826200021f57600085556200026b565b82601f106200023a57805160ff19168380011785556200026b565b828001600101855582156200026b579182015b828111156200026a5782518255916020019190600101906200024d565b5b5090506200027a91906200027e565b5090565b5b80821115620002995760008160009055506001016200027f565b5090565b6000604051905090565b600080fd5b600080fd5b600080fd5b600080fd5b6000601f19601f8301169050919050565b7f4e487b7100000000000000000000000000000000000000000000000000000000600052604160045260246000fd5b6200030682620002bb565b810181811067ffffffffffffffff82111715620003285762000327620002cc565b5b80604052505050565b60006200033d6200029d565b90506200034b8282620002fb565b919050565b600067ffffffffffffffff8211156200036e576200036d620002cc565b5b6200037982620002bb565b9050602081019050919050565b60005b83811015620003a657808201518184015260208101905062000389565b83811115620003b6576000848401525b50505050565b6000620003d3620003cd8462000350565b62000331565b905082815260208101848484011115620003f257620003f1620002b6565b5b620003ff84828562000386565b509392505050565b600082601f8301126200041f576200041e620002b1565b5b815162000431848260208601620003bc565b91505092915050565b600060208284031215620004535762000452620002a7565b5b600082015167ffffffffffffffff811115620004745762000473620002ac565b5b620004828482850162000407565b91505092915050565b7f4e487b7100000000000000000000000000000000000000000000000000000000600052602260045260246000fd5b60006002820490506001821680620004d357607f821691505b602082108103620004e957620004e86200048b565b5b50919050565b61563c80620004ff6000396000f3fe6080604052600436106101d75760003560e01c8063650f9e9b11610102578063b7d1919c11610095578063e985e9c511610064578063e985e9c51461065f578063f242432a1461069c578063f2fde38b146106c5578063fc9d7e0d146106ee576101d7565b8063b7d1919c146105b5578063ba4f2b2f146105e0578063bd3352d41461060b578063c7d77ee514610622576101d7565b80637cb64759116100d15780637cb647591461050d5780638623511b146105365780638da5cb5b14610561578063a22cb4651461058c576101d7565b8063650f9e9b146104635780636ef101821461048e578063715018a6146104cb5780637b1b1bb0146104e2576101d7565b806334c30bf51161017a5780635141742c116101495780635141742c146103cd57806356f8f78c1461040a578063584bc284146104215780635fd8c7101461044c576101d7565b806334c30bf5146103155780633efc52001461033e5780634825b65e146103675780634e1273f414610390576101d7565b80630e89341c116101b65780630e89341c146102815780630e942da8146102be578063114e691d146102d55780632eb2c2d6146102ec576101d7565b8062fdd58e146101dc57806301ffc9a7146102195780630cf92e0414610256575b600080fd5b3480156101e857600080fd5b5061020360048036038101906101fe919061327c565b61070a565b60405161021091906132cb565b60405180910390f35b34801561022557600080fd5b50610240600480360381019061023b919061333e565b6107d2565b60405161024d9190613386565b60405180910390f35b34801561026257600080fd5b5061026b6108b4565b60405161027891906132cb565b60405180910390f35b34801561028d57600080fd5b506102a860048036038101906102a391906133a1565b6108ba565b6040516102b59190613467565b60405180910390f35b3480156102ca57600080fd5b506102d3610966565b005b3480156102e157600080fd5b506102ea610a0e565b005b3480156102f857600080fd5b50610313600480360381019061030e9190613686565b610b42565b005b34801561032157600080fd5b5061033c600480360381019061033791906137b0565b610be3565b005b34801561034a57600080fd5b50610365600480360381019061036091906133a1565b610d01565b005b34801561037357600080fd5b5061038e600480360381019061038991906137fd565b610d87565b005b34801561039c57600080fd5b506103b760048036038101906103b29190613900565b610e77565b6040516103c49190613a36565b60405180910390f35b3480156103d957600080fd5b506103f460048036038101906103ef9190613a58565b610f90565b60405161040191906132cb565b60405180910390f35b34801561041657600080fd5b5061041f610fa8565b005b34801561042d57600080fd5b50610436611050565b60405161044391906132cb565b60405180910390f35b34801561045857600080fd5b5061046161105a565b005b34801561046f57600080fd5b50610478611162565b60405161048591906132cb565b60405180910390f35b34801561049a57600080fd5b506104b560048036038101906104b09190613a58565b61116c565b6040516104c291906132cb565b60405180910390f35b3480156104d757600080fd5b506104e06111b5565b005b3480156104ee57600080fd5b506104f761123d565b60405161050491906132cb565b60405180910390f35b34801561051957600080fd5b50610534600480360381019061052f9190613abb565b611247565b005b34801561054257600080fd5b5061054b6112cd565b60405161055891906132cb565b60405180910390f35b34801561056d57600080fd5b506105766112d7565b6040516105839190613af7565b60405180910390f35b34801561059857600080fd5b506105b360048036038101906105ae9190613b3e565b611301565b005b3480156105c157600080fd5b506105ca611317565b6040516105d791906132cb565b60405180910390f35b3480156105ec57600080fd5b506105f561131d565b60405161060291906132cb565b60405180910390f35b34801561061757600080fd5b50610620611327565b005b34801561062e57600080fd5b50610649600480360381019061064491906133a1565b6113cf565b6040516106569190613af7565b60405180910390f35b34801561066b57600080fd5b5061068660048036038101906106819190613b7e565b61140e565b6040516106939190613386565b60405180910390f35b3480156106a857600080fd5b506106c360048036038101906106be9190613bbe565b6114a2565b005b3480156106d157600080fd5b506106ec60048036038101906106e79190613a58565b611543565b005b61070860048036038101906107039190613d18565b61163a565b005b60008073ffffffffffffffffffffffffffffffffffffffff168373ffffffffffffffffffffffffffffffffffffffff160361077a576040517f08c379a000000000000000000000000000000000000000000000000000000000815260040161077190613de6565b60405180910390fd5b60008083815260200190815260200160002060008473ffffffffffffffffffffffffffffffffffffffff1673ffffffffffffffffffffffffffffffffffffffff16815260200190815260200160002054905092915050565b60007fd9b67a26000000000000000000000000000000000000000000000000000000007bffffffffffffffffffffffffffffffffffffffffffffffffffffffff1916827bffffffffffffffffffffffffffffffffffffffffffffffffffffffff1916148061089d57507f0e89341c000000000000000000000000000000000000000000000000000000007bffffffffffffffffffffffffffffffffffffffffffffffffffffffff1916827bffffffffffffffffffffffffffffffffffffffffffffffffffffffff1916145b806108ad57506108ac82611dd1565b5b9050919050565b600d5481565b6060620186a08211156108f957600b6108d283611e3b565b6040516020016108e3929190613fce565b6040516020818303038152906040529050610961565b6000820361093357600b61090c83611e3b565b60405160200161091d929190614054565b6040516020818303038152906040529050610961565b600b61093e83611e3b565b60405160200161094f9291906140da565b60405160208183030381529060405290505b919050565b61096e611f9b565b73ffffffffffffffffffffffffffffffffffffffff1661098c6112d7565b73ffffffffffffffffffffffffffffffffffffffff16146109e2576040517f08c379a00000000000000000000000000000000000000000000000000000000081526004016109d990614160565b60405180910390fd5b600a60009054906101000a900460ff1615600a60006101000a81548160ff021916908315150217905550565b600060065411610a53576040517f08c379a0000000000000000000000000000000000000000000000000000000008152600401610a4a906141cc565b60405180910390fd5b6000610a5d611f9b565b90506000601060008373ffffffffffffffffffffffffffffffffffffffff1673ffffffffffffffffffffffffffffffffffffffff1681526020019081526020016000205411610ae1576040517f08c379a0000000000000000000000000000000000000000000000000000000008152600401610ad890614238565b60405180910390fd5b601060008273ffffffffffffffffffffffffffffffffffffffff1673ffffffffffffffffffffffffffffffffffffffff1681526020019081526020016000206000815480929190610b3190614287565b9190505550610b3f81611fa3565b50565b610b4a611f9b565b73ffffffffffffffffffffffffffffffffffffffff168573ffffffffffffffffffffffffffffffffffffffff161480610b905750610b8f85610b8a611f9b565b61140e565b5b610bcf576040517f08c379a0000000000000000000000000000000000000000000000000000000008152600401610bc690614322565b60405180910390fd5b610bdc858585858561226a565b5050505050565b610beb611f9b565b73ffffffffffffffffffffffffffffffffffffffff16610c096112d7565b73ffffffffffffffffffffffffffffffffffffffff1614610c5f576040517f08c379a0000000000000000000000000000000000000000000000000000000008152600401610c5690614160565b60405180910390fd5b60005b82829050811015610cfc5760106000848484818110610c8457610c83614342565b5b9050602002016020810190610c999190613a58565b73ffffffffffffffffffffffffffffffffffffffff1673ffffffffffffffffffffffffffffffffffffffff1681526020019081526020016000206000815480929190610ce490614371565b91905055508080610cf490614371565b915050610c62565b505050565b610d09611f9b565b73ffffffffffffffffffffffffffffffffffffffff16610d276112d7565b73ffffffffffffffffffffffffffffffffffffffff1614610d7d576040517f08c379a0000000000000000000000000000000000000000000000000000000008152600401610d7490614160565b60405180910390fd5b8060088190555050565b610d8f611f9b565b73ffffffffffffffffffffffffffffffffffffffff16610dad6112d7565b73ffffffffffffffffffffffffffffffffffffffff1614610e03576040517f08c379a0000000000000000000000000000000000000000000000000000000008152600401610dfa90614160565b60405180910390fd5b6103e8600681905550610bb8600754610e1c91906143b9565b60078190555081600d8190555080600c81905550610e3861256f565b7fe3d47dee33b959cc59941f840525125123544e1f194b235f340f0c6147697ac333610bb8604051610e6b929190614454565b60405180910390a15050565b60608151835114610ebd576040517f08c379a0000000000000000000000000000000000000000000000000000000008152600401610eb4906144ef565b60405180910390fd5b6000835167ffffffffffffffff811115610eda57610ed961348e565b5b604051908082528060200260200182016040528015610f085781602001602082028036833780820191505090505b50905060005b8451811015610f8557610f55858281518110610f2d57610f2c614342565b5b6020026020010151858381518110610f4857610f47614342565b5b602002602001015161070a565b828281518110610f6857610f67614342565b5b60200260200101818152505080610f7e90614371565b9050610f0e565b508091505092915050565b60106020528060005260406000206000915090505481565b610fb0611f9b565b73ffffffffffffffffffffffffffffffffffffffff16610fce6112d7565b73ffffffffffffffffffffffffffffffffffffffff1614611024576040517f08c379a000000000000000000000000000000000000000000000000000000000815260040161101b90614160565b60405180910390fd5b600a60029054906101000a900460ff1615600a60026101000a81548160ff021916908315150217905550565b6000600c54905090565b611062611f9b565b73ffffffffffffffffffffffffffffffffffffffff166110806112d7565b73ffffffffffffffffffffffffffffffffffffffff16146110d6576040517f08c379a00000000000000000000000000000000000000000000000000000000081526004016110cd90614160565b60405180910390fd5b60004711611119576040517f08c379a00000000000000000000000000000000000000000000000000000000081526004016111109061455b565b60405180910390fd5b3373ffffffffffffffffffffffffffffffffffffffff166108fc479081150290604051600060405180830381858888f1935050505015801561115f573d6000803e3d6000fd5b50565b6000600754905090565b6000601060008373ffffffffffffffffffffffffffffffffffffffff1673ffffffffffffffffffffffffffffffffffffffff168152602001908152602001600020549050919050565b6111bd611f9b565b73ffffffffffffffffffffffffffffffffffffffff166111db6112d7565b73ffffffffffffffffffffffffffffffffffffffff1614611231576040517f08c379a000000000000000000000000000000000000000000000000000000000815260040161122890614160565b60405180910390fd5b61123b6000612626565b565b6000600854905090565b61124f611f9b565b73ffffffffffffffffffffffffffffffffffffffff1661126d6112d7565b73ffffffffffffffffffffffffffffffffffffffff16146112c3576040517f08c379a00000000000000000000000000000000000000000000000000000000081526004016112ba90614160565b60405180910390fd5b8060098190555050565b6000600654905090565b6000600260009054906101000a900473ffffffffffffffffffffffffffffffffffffffff16905090565b61131361130c611f9b565b83836126ec565b5050565b600c5481565b6000600d54905090565b61132f611f9b565b73ffffffffffffffffffffffffffffffffffffffff1661134d6112d7565b73ffffffffffffffffffffffffffffffffffffffff16146113a3576040517f08c379a000000000000000000000000000000000000000000000000000000000815260040161139a90614160565b60405180910390fd5b600a60019054906101000a900460ff1615600a60016101000a81548160ff021916908315150217905550565b600e81815481106113df57600080fd5b906000526020600020016000915054906101000a900473ffffffffffffffffffffffffffffffffffffffff1681565b6000600160008473ffffffffffffffffffffffffffffffffffffffff1673ffffffffffffffffffffffffffffffffffffffff16815260200190815260200160002060008373ffffffffffffffffffffffffffffffffffffffff1673ffffffffffffffffffffffffffffffffffffffff16815260200190815260200160002060009054906101000a900460ff16905092915050565b6114aa611f9b565b73ffffffffffffffffffffffffffffffffffffffff168573ffffffffffffffffffffffffffffffffffffffff1614806114f057506114ef856114ea611f9b565b61140e565b5b61152f576040517f08c379a0000000000000000000000000000000000000000000000000000000008152600401611526906145ed565b60405180910390fd5b61153c8585858585612858565b5050505050565b61154b611f9b565b73ffffffffffffffffffffffffffffffffffffffff166115696112d7565b73ffffffffffffffffffffffffffffffffffffffff16146115bf576040517f08c379a00000000000000000000000000000000000000000000000000000000081526004016115b690614160565b60405180910390fd5b600073ffffffffffffffffffffffffffffffffffffffff168173ffffffffffffffffffffffffffffffffffffffff160361162e576040517f08c379a00000000000000000000000000000000000000000000000000000000081526004016116259061467f565b60405180910390fd5b61163781612626565b50565b8181600a60009054906101000a900460ff16806116635750600a60019054906101000a900460ff165b8061167a5750600a60029054906101000a900460ff165b6116b9576040517f08c379a00000000000000000000000000000000000000000000000000000000081526004016116b0906146eb565b60405180910390fd5b60006116c3611f9b565b9050600a60009054906101000a900460ff1615611811576116e583601e612abb565b156117ce576000600d541161172f576040517f08c379a000000000000000000000000000000000000000000000000000000000815260040161172690614757565b60405180910390fd5b6001600f60008373ffffffffffffffffffffffffffffffffffffffff1673ffffffffffffffffffffffffffffffffffffffff16815260200190815260200160002054106117b1576040517f08c379a00000000000000000000000000000000000000000000000000000000081526004016117a890614835565b60405180910390fd5b600d60008154809291906117c490614287565b9190505550611810565b600061180f576040517f08c379a0000000000000000000000000000000000000000000000000000000008152600401611806906148a1565b60405180910390fd5b5b5b600a60019054906101000a900460ff16156119f0576118308383612abb565b156119ad576000600c541161187a576040517f08c379a00000000000000000000000000000000000000000000000000000000081526004016118719061490d565b60405180910390fd5b601e8203611905576002600f60008373ffffffffffffffffffffffffffffffffffffffff1673ffffffffffffffffffffffffffffffffffffffff1681526020019081526020016000205410611904576040517f08c379a00000000000000000000000000000000000000000000000000000000081526004016118fb906149eb565b60405180910390fd5b5b60148203611990576001600f60008373ffffffffffffffffffffffffffffffffffffffff1673ffffffffffffffffffffffffffffffffffffffff168152602001908152602001600020541061198f576040517f08c379a000000000000000000000000000000000000000000000000000000000815260040161198690614aa3565b60405180910390fd5b5b600c60008154809291906119a390614287565b91905055506119ef565b60006119ee576040517f08c379a00000000000000000000000000000000000000000000000000000000081526004016119e590614b35565b60405180910390fd5b5b5b600a60029054906101000a900460ff1615611bce57601e82148015611a1b5750611a1a8383612abb565b5b15611aa7576003600f60008373ffffffffffffffffffffffffffffffffffffffff1673ffffffffffffffffffffffffffffffffffffffff1681526020019081526020016000205410611aa2576040517f08c379a0000000000000000000000000000000000000000000000000000000008152600401611a9990614bc7565b60405180910390fd5b611bcd565b601482148015611abd5750611abc8383612abb565b5b15611b49576002600f60008373ffffffffffffffffffffffffffffffffffffffff1673ffffffffffffffffffffffffffffffffffffffff1681526020019081526020016000205410611b44576040517f08c379a0000000000000000000000000000000000000000000000000000000008152600401611b3b90614c7f565b60405180910390fd5b611bcc565b6001600f60008373ffffffffffffffffffffffffffffffffffffffff1673ffffffffffffffffffffffffffffffffffffffff1681526020019081526020016000205410611bcb576040517f08c379a0000000000000000000000000000000000000000000000000000000008152600401611bc290614d11565b60405180910390fd5b5b5b5b600260035403611c13576040517f08c379a0000000000000000000000000000000000000000000000000000000008152600401611c0a90614d7d565b60405180910390fd5b600260038190555067016345785d8a0000341015611c66576040517f08c379a0000000000000000000000000000000000000000000000000000000008152600401611c5d90614e0f565b60405180910390fd5b600060065411611cab576040517f08c379a0000000000000000000000000000000000000000000000000000000008152600401611ca290614e7b565b60405180910390fd5b6000611cb5611f9b565b9050611cc081611fa3565b6001600f60008373ffffffffffffffffffffffffffffffffffffffff1673ffffffffffffffffffffffffffffffffffffffff168152602001908152602001600020541015611d6c57600e819080600181540180825580915050600190039060005260206000200160009091909190916101000a81548173ffffffffffffffffffffffffffffffffffffffff021916908373ffffffffffffffffffffffffffffffffffffffff1602179055505b600f60008273ffffffffffffffffffffffffffffffffffffffff1673ffffffffffffffffffffffffffffffffffffffff1681526020019081526020016000206000815480929190611dbc90614371565b91905055505060016003819055505050505050565b60007f01ffc9a7000000000000000000000000000000000000000000000000000000007bffffffffffffffffffffffffffffffffffffffffffffffffffffffff1916827bffffffffffffffffffffffffffffffffffffffffffffffffffffffff1916149050919050565b606060008203611e82576040518060400160405280600181526020017f30000000000000000000000000000000000000000000000000000000000000008152509050611f96565b600082905060005b60008214611eb4578080611e9d90614371565b915050600a82611ead9190614eca565b9150611e8a565b60008167ffffffffffffffff811115611ed057611ecf61348e565b5b6040519080825280601f01601f191660200182016040528015611f025781602001600182028036833780820191505090505b5090505b60008514611f8f57600182611f1b9190614efb565b9150600a85611f2a9190614f2f565b6030611f3691906143b9565b60f81b818381518110611f4c57611f4b614342565b5b60200101907effffffffffffffffffffffffffffffffffffffffffffffffffffffffffffff1916908160001a905350600a85611f889190614eca565b9450611f06565b8093505050505b919050565b600033905090565b6000600667ffffffffffffffff811115611fc057611fbf61348e565b5b604051908082528060200260200182016040528015611fee5781602001602082028036833780820191505090505b5090506000600667ffffffffffffffff81111561200e5761200d61348e565b5b60405190808252806020026020018201604052801561203c5781602001602082028036833780820191505090505b50905060018260008151811061205557612054614342565b5b60200260200101818152505060018260018151811061207757612076614342565b5b60200260200101818152505060018260028151811061209957612098614342565b5b6020026020010181815250506001826003815181106120bb576120ba614342565b5b6020026020010181815250506001826004815181106120dd576120dc614342565b5b6020026020010181815250506003826005815181106120ff576120fe614342565b5b6020026020010181815250506004548160008151811061212257612121614342565b5b6020026020010181815250506004600081548092919061214190614371565b91905055506004548160018151811061215d5761215c614342565b5b6020026020010181815250506004600081548092919061217c90614371565b91905055506004548160028151811061219857612197614342565b5b602002602001018181525050600460008154809291906121b790614371565b9190505550600454816003815181106121d3576121d2614342565b5b602002602001018181525050600460008154809291906121f290614371565b91905055506005548160048151811061220e5761220d614342565b5b6020026020010181815250506005600081548092919061222d90614371565b919050555061224d83828460405180602001604052806000815250612b14565b6006600081548092919061226090614287565b9190505550505050565b81518351146122ae576040517f08c379a00000000000000000000000000000000000000000000000000000000081526004016122a590614fd2565b60405180910390fd5b600073ffffffffffffffffffffffffffffffffffffffff168473ffffffffffffffffffffffffffffffffffffffff160361231d576040517f08c379a000000000000000000000000000000000000000000000000000000000815260040161231490615064565b60405180910390fd5b6000612327611f9b565b905060005b84518110156124da57600085828151811061234a57612349614342565b5b60200260200101519050600085838151811061236957612368614342565b5b60200260200101519050600080600084815260200190815260200160002060008b73ffffffffffffffffffffffffffffffffffffffff1673ffffffffffffffffffffffffffffffffffffffff1681526020019081526020016000205490508181101561240a576040517f08c379a0000000000000000000000000000000000000000000000000000000008152600401612401906150f6565b60405180910390fd5b81810360008085815260200190815260200160002060008c73ffffffffffffffffffffffffffffffffffffffff1673ffffffffffffffffffffffffffffffffffffffff168152602001908152602001600020819055508160008085815260200190815260200160002060008b73ffffffffffffffffffffffffffffffffffffffff1673ffffffffffffffffffffffffffffffffffffffff16815260200190815260200160002060008282546124bf91906143b9565b92505081905550505050806124d390614371565b905061232c565b508473ffffffffffffffffffffffffffffffffffffffff168673ffffffffffffffffffffffffffffffffffffffff168273ffffffffffffffffffffffffffffffffffffffff167f4a39dc06d4c0dbc64b70af90fd698a233a518aa5d07e595d983b8c0526c8f7fb8787604051612551929190615116565b60405180910390a4612567818787878787612d22565b505050505050565b60005b600e80549050811015612615576000600f6000600e848154811061259957612598614342565b5b9060005260206000200160009054906101000a900473ffffffffffffffffffffffffffffffffffffffff1673ffffffffffffffffffffffffffffffffffffffff1673ffffffffffffffffffffffffffffffffffffffff16815260200190815260200160002081905550808061260d90614371565b915050612572565b50600e60006126249190613196565b565b6000600260009054906101000a900473ffffffffffffffffffffffffffffffffffffffff16905081600260006101000a81548173ffffffffffffffffffffffffffffffffffffffff021916908373ffffffffffffffffffffffffffffffffffffffff1602179055508173ffffffffffffffffffffffffffffffffffffffff168173ffffffffffffffffffffffffffffffffffffffff167f8be0079c531659141344cd1fd0a4f28419497f9722a3daafe3b4186f6b6457e060405160405180910390a35050565b8173ffffffffffffffffffffffffffffffffffffffff168373ffffffffffffffffffffffffffffffffffffffff160361275a576040517f08c379a0000000000000000000000000000000000000000000000000000000008152600401612751906151bf565b60405180910390fd5b80600160008573ffffffffffffffffffffffffffffffffffffffff1673ffffffffffffffffffffffffffffffffffffffff16815260200190815260200160002060008473ffffffffffffffffffffffffffffffffffffffff1673ffffffffffffffffffffffffffffffffffffffff16815260200190815260200160002060006101000a81548160ff0219169083151502179055508173ffffffffffffffffffffffffffffffffffffffff168373ffffffffffffffffffffffffffffffffffffffff167f17307eab39ab6107e8899845ad3d59bd9653f200f220920489ca2b5937696c318360405161284b9190613386565b60405180910390a3505050565b600073ffffffffffffffffffffffffffffffffffffffff168473ffffffffffffffffffffffffffffffffffffffff16036128c7576040517f08c379a00000000000000000000000000000000000000000000000000000000081526004016128be90615064565b60405180910390fd5b60006128d1611f9b565b9050600080600086815260200190815260200160002060008873ffffffffffffffffffffffffffffffffffffffff1673ffffffffffffffffffffffffffffffffffffffff1681526020019081526020016000205490508381101561296a576040517f08c379a0000000000000000000000000000000000000000000000000000000008152600401612961906150f6565b60405180910390fd5b83810360008087815260200190815260200160002060008973ffffffffffffffffffffffffffffffffffffffff1673ffffffffffffffffffffffffffffffffffffffff168152602001908152602001600020819055508360008087815260200190815260200160002060008873ffffffffffffffffffffffffffffffffffffffff1673ffffffffffffffffffffffffffffffffffffffff1681526020019081526020016000206000828254612a1f91906143b9565b925050819055508573ffffffffffffffffffffffffffffffffffffffff168773ffffffffffffffffffffffffffffffffffffffff168373ffffffffffffffffffffffffffffffffffffffff167fc3d58168c5ae7397731d063d5bbf3d657854427343f4c083240f7aacaa2d0f628888604051612a9c9291906151df565b60405180910390a4612ab2828888888888612ef9565b50505050505050565b600080612ac6611f9b565b9050600081612ad485611e3b565b604051602001612ae5929190615208565b604051602081830303815290604052805190602001209050612b0a85600954836130d0565b9250505092915050565b600073ffffffffffffffffffffffffffffffffffffffff168473ffffffffffffffffffffffffffffffffffffffff1603612b83576040517f08c379a0000000000000000000000000000000000000000000000000000000008152600401612b7a906152aa565b60405180910390fd5b8151835114612bc7576040517f08c379a0000000000000000000000000000000000000000000000000000000008152600401612bbe90614fd2565b60405180910390fd5b6000612bd1611f9b565b905060005b8451811015612c8c57838181518110612bf257612bf1614342565b5b6020026020010151600080878481518110612c1057612c0f614342565b5b6020026020010151815260200190815260200160002060008873ffffffffffffffffffffffffffffffffffffffff1673ffffffffffffffffffffffffffffffffffffffff1681526020019081526020016000206000828254612c7291906143b9565b925050819055508080612c8490614371565b915050612bd6565b508473ffffffffffffffffffffffffffffffffffffffff16600073ffffffffffffffffffffffffffffffffffffffff168273ffffffffffffffffffffffffffffffffffffffff167f4a39dc06d4c0dbc64b70af90fd698a233a518aa5d07e595d983b8c0526c8f7fb8787604051612d04929190615116565b60405180910390a4612d1b81600087878787612d22565b5050505050565b612d418473ffffffffffffffffffffffffffffffffffffffff166130e7565b15612ef1578373ffffffffffffffffffffffffffffffffffffffff1663bc197c8187878686866040518663ffffffff1660e01b8152600401612d8795949392919061531f565b6020604051808303816000875af1925050508015612dc357506040513d601f19601f82011682018060405250810190612dc0919061539c565b60015b612e6857612dcf6153d6565b806308c379a003612e2b5750612de36153f8565b80612dee5750612e2d565b806040517f08c379a0000000000000000000000000000000000000000000000000000000008152600401612e229190613467565b60405180910390fd5b505b6040517f08c379a0000000000000000000000000000000000000000000000000000000008152600401612e5f906154fa565b60405180910390fd5b63bc197c8160e01b7bffffffffffffffffffffffffffffffffffffffffffffffffffffffff1916817bffffffffffffffffffffffffffffffffffffffffffffffffffffffff191614612eef576040517f08c379a0000000000000000000000000000000000000000000000000000000008152600401612ee69061558c565b60405180910390fd5b505b505050505050565b612f188473ffffffffffffffffffffffffffffffffffffffff166130e7565b156130c8578373ffffffffffffffffffffffffffffffffffffffff1663f23a6e6187878686866040518663ffffffff1660e01b8152600401612f5e9594939291906155ac565b6020604051808303816000875af1925050508015612f9a57506040513d601f19601f82011682018060405250810190612f97919061539c565b60015b61303f57612fa66153d6565b806308c379a0036130025750612fba6153f8565b80612fc55750613004565b806040517f08c379a0000000000000000000000000000000000000000000000000000000008152600401612ff99190613467565b60405180910390fd5b505b6040517f08c379a0000000000000000000000000000000000000000000000000000000008152600401613036906154fa565b60405180910390fd5b63f23a6e6160e01b7bffffffffffffffffffffffffffffffffffffffffffffffffffffffff1916817bffffffffffffffffffffffffffffffffffffffffffffffffffffffff1916146130c6576040517f08c379a00000000000000000000000000000000000000000000000000000000081526004016130bd9061558c565b60405180910390fd5b505b505050505050565b6000826130dd858461310a565b1490509392505050565b6000808273ffffffffffffffffffffffffffffffffffffffff163b119050919050565b60008082905060005b845181101561317457600085828151811061313157613130614342565b5b602002602001015190508083116131535761314c838261317f565b9250613160565b61315d818461317f565b92505b50808061316c90614371565b915050613113565b508091505092915050565b600082600052816020526040600020905092915050565b50805460008255906000526020600020908101906131b491906131b7565b50565b5b808211156131d05760008160009055506001016131b8565b5090565b6000604051905090565b600080fd5b600080fd5b600073ffffffffffffffffffffffffffffffffffffffff82169050919050565b6000613213826131e8565b9050919050565b61322381613208565b811461322e57600080fd5b50565b6000813590506132408161321a565b92915050565b6000819050919050565b61325981613246565b811461326457600080fd5b50565b60008135905061327681613250565b92915050565b60008060408385031215613293576132926131de565b5b60006132a185828601613231565b92505060206132b285828601613267565b9150509250929050565b6132c581613246565b82525050565b60006020820190506132e060008301846132bc565b92915050565b60007fffffffff0000000000000000000000000000000000000000000000000000000082169050919050565b61331b816132e6565b811461332657600080fd5b50565b60008135905061333881613312565b92915050565b600060208284031215613354576133536131de565b5b600061336284828501613329565b91505092915050565b60008115159050919050565b6133808161336b565b82525050565b600060208201905061339b6000830184613377565b92915050565b6000602082840312156133b7576133b66131de565b5b60006133c584828501613267565b91505092915050565b600081519050919050565b600082825260208201905092915050565b60005b838110156134085780820151818401526020810190506133ed565b83811115613417576000848401525b50505050565b6000601f19601f8301169050919050565b6000613439826133ce565b61344381856133d9565b93506134538185602086016133ea565b61345c8161341d565b840191505092915050565b60006020820190508181036000830152613481818461342e565b905092915050565b600080fd5b7f4e487b7100000000000000000000000000000000000000000000000000000000600052604160045260246000fd5b6134c68261341d565b810181811067ffffffffffffffff821117156134e5576134e461348e565b5b80604052505050565b60006134f86131d4565b905061350482826134bd565b919050565b600067ffffffffffffffff8211156135245761352361348e565b5b602082029050602081019050919050565b600080fd5b600061354d61354884613509565b6134ee565b905080838252602082019050602084028301858111156135705761356f613535565b5b835b8181101561359957806135858882613267565b845260208401935050602081019050613572565b5050509392505050565b600082601f8301126135b8576135b7613489565b5b81356135c884826020860161353a565b91505092915050565b600080fd5b600067ffffffffffffffff8211156135f1576135f061348e565b5b6135fa8261341d565b9050602081019050919050565b82818337600083830152505050565b6000613629613624846135d6565b6134ee565b905082815260208101848484011115613645576136446135d1565b5b613650848285613607565b509392505050565b600082601f83011261366d5761366c613489565b5b813561367d848260208601613616565b91505092915050565b600080600080600060a086880312156136a2576136a16131de565b5b60006136b088828901613231565b95505060206136c188828901613231565b945050604086013567ffffffffffffffff8111156136e2576136e16131e3565b5b6136ee888289016135a3565b935050606086013567ffffffffffffffff81111561370f5761370e6131e3565b5b61371b888289016135a3565b925050608086013567ffffffffffffffff81111561373c5761373b6131e3565b5b61374888828901613658565b9150509295509295909350565b600080fd5b60008083601f8401126137705761376f613489565b5b8235905067ffffffffffffffff81111561378d5761378c613755565b5b6020830191508360208202830111156137a9576137a8613535565b5b9250929050565b600080602083850312156137c7576137c66131de565b5b600083013567ffffffffffffffff8111156137e5576137e46131e3565b5b6137f18582860161375a565b92509250509250929050565b60008060408385031215613814576138136131de565b5b600061382285828601613267565b925050602061383385828601613267565b9150509250929050565b600067ffffffffffffffff8211156138585761385761348e565b5b602082029050602081019050919050565b600061387c6138778461383d565b6134ee565b9050808382526020820190506020840283018581111561389f5761389e613535565b5b835b818110156138c857806138b48882613231565b8452602084019350506020810190506138a1565b5050509392505050565b600082601f8301126138e7576138e6613489565b5b81356138f7848260208601613869565b91505092915050565b60008060408385031215613917576139166131de565b5b600083013567ffffffffffffffff811115613935576139346131e3565b5b613941858286016138d2565b925050602083013567ffffffffffffffff811115613962576139616131e3565b5b61396e858286016135a3565b9150509250929050565b600081519050919050565b600082825260208201905092915050565b6000819050602082019050919050565b6139ad81613246565b82525050565b60006139bf83836139a4565b60208301905092915050565b6000602082019050919050565b60006139e382613978565b6139ed8185613983565b93506139f883613994565b8060005b83811015613a29578151613a1088826139b3565b9750613a1b836139cb565b9250506001810190506139fc565b5085935050505092915050565b60006020820190508181036000830152613a5081846139d8565b905092915050565b600060208284031215613a6e57613a6d6131de565b5b6000613a7c84828501613231565b91505092915050565b6000819050919050565b613a9881613a85565b8114613aa357600080fd5b50565b600081359050613ab581613a8f565b92915050565b600060208284031215613ad157613ad06131de565b5b6000613adf84828501613aa6565b91505092915050565b613af181613208565b82525050565b6000602082019050613b0c6000830184613ae8565b92915050565b613b1b8161336b565b8114613b2657600080fd5b50565b600081359050613b3881613b12565b92915050565b60008060408385031215613b5557613b546131de565b5b6000613b6385828601613231565b9250506020613b7485828601613b29565b9150509250929050565b60008060408385031215613b9557613b946131de565b5b6000613ba385828601613231565b9250506020613bb485828601613231565b9150509250929050565b600080600080600060a08688031215613bda57613bd96131de565b5b6000613be888828901613231565b9550506020613bf988828901613231565b9450506040613c0a88828901613267565b9350506060613c1b88828901613267565b925050608086013567ffffffffffffffff811115613c3c57613c3b6131e3565b5b613c4888828901613658565b9150509295509295909350565b600067ffffffffffffffff821115613c7057613c6f61348e565b5b602082029050602081019050919050565b6000613c94613c8f84613c55565b6134ee565b90508083825260208201905060208402830185811115613cb757613cb6613535565b5b835b81811015613ce05780613ccc8882613aa6565b845260208401935050602081019050613cb9565b5050509392505050565b600082601f830112613cff57613cfe613489565b5b8135613d0f848260208601613c81565b91505092915050565b60008060408385031215613d2f57613d2e6131de565b5b600083013567ffffffffffffffff811115613d4d57613d4c6131e3565b5b613d5985828601613cea565b9250506020613d6a85828601613267565b9150509250929050565b7f455243313135353a2062616c616e636520717565727920666f7220746865207a60008201527f65726f2061646472657373000000000000000000000000000000000000000000602082015250565b6000613dd0602b836133d9565b9150613ddb82613d74565b604082019050919050565b60006020820190508181036000830152613dff81613dc3565b9050919050565b7f4e487b7100000000000000000000000000000000000000000000000000000000600052602260045260246000fd5b60006002820490506001821680613e4d57607f821691505b602082108103613e6057613e5f613e06565b5b50919050565b600081905092915050565b60008190508160005260206000209050919050565b60008154613e9381613e35565b613e9d8186613e66565b94506001821660008114613eb85760018114613ec957613efc565b60ff19831686528186019350613efc565b613ed285613e71565b60005b83811015613ef457815481890152600182019150602081019050613ed5565b838801955050505b50505092915050565b7f2f34696e31732f00000000000000000000000000000000000000000000000000600082015250565b6000613f3b600783613e66565b9150613f4682613f05565b600782019050919050565b6000613f5c826133ce565b613f668185613e66565b9350613f768185602086016133ea565b80840191505092915050565b7f2e6a736f6e000000000000000000000000000000000000000000000000000000600082015250565b6000613fb8600583613e66565b9150613fc382613f82565b600582019050919050565b6000613fda8285613e86565b9150613fe582613f2e565b9150613ff18284613f51565b9150613ffc82613fab565b91508190509392505050565b7f2f72656365697074732f00000000000000000000000000000000000000000000600082015250565b600061403e600a83613e66565b915061404982614008565b600a82019050919050565b60006140608285613e86565b915061406b82614031565b91506140778284613f51565b915061408282613fab565b91508190509392505050565b7f2f6672756974732f000000000000000000000000000000000000000000000000600082015250565b60006140c4600883613e66565b91506140cf8261408e565b600882019050919050565b60006140e68285613e86565b91506140f1826140b7565b91506140fd8284613f51565b915061410882613fab565b91508190509392505050565b7f4f776e61626c653a2063616c6c6572206973206e6f7420746865206f776e6572600082015250565b600061414a6020836133d9565b915061415582614114565b602082019050919050565b600060208201905081810360008301526141798161413d565b9050919050565b7f416c6c2062756e646c65732068617665206265656e206d696e7465642e000000600082015250565b60006141b6601d836133d9565b91506141c182614180565b602082019050919050565b600060208201905081810360008301526141e5816141a9565b9050919050565b7f596f7520646f206e6f74206861766520612066726565206d696e742e00000000600082015250565b6000614222601c836133d9565b915061422d826141ec565b602082019050919050565b6000602082019050818103600083015261425181614215565b9050919050565b7f4e487b7100000000000000000000000000000000000000000000000000000000600052601160045260246000fd5b600061429282613246565b9150600082036142a5576142a4614258565b5b600182039050919050565b7f455243313135353a207472616e736665722063616c6c6572206973206e6f742060008201527f6f776e6572206e6f7220617070726f7665640000000000000000000000000000602082015250565b600061430c6032836133d9565b9150614317826142b0565b604082019050919050565b6000602082019050818103600083015261433b816142ff565b9050919050565b7f4e487b7100000000000000000000000000000000000000000000000000000000600052603260045260246000fd5b600061437c82613246565b91507fffffffffffffffffffffffffffffffffffffffffffffffffffffffffffffffff82036143ae576143ad614258565b5b600182019050919050565b60006143c482613246565b91506143cf83613246565b9250827fffffffffffffffffffffffffffffffffffffffffffffffffffffffffffffffff0382111561440457614403614258565b5b828201905092915050565b6000819050919050565b6000819050919050565b600061443e6144396144348461440f565b614419565b613246565b9050919050565b61444e81614423565b82525050565b60006040820190506144696000830185613ae8565b6144766020830184614445565b9392505050565b7f455243313135353a206163636f756e747320616e6420696473206c656e67746860008201527f206d69736d617463680000000000000000000000000000000000000000000000602082015250565b60006144d96029836133d9565b91506144e48261447d565b604082019050919050565b60006020820190508181036000830152614508816144cc565b9050919050565b7f4e6f20657468657220696e20636f6e7472616374000000000000000000000000600082015250565b60006145456014836133d9565b91506145508261450f565b602082019050919050565b6000602082019050818103600083015261457481614538565b9050919050565b7f455243313135353a2063616c6c6572206973206e6f74206f776e6572206e6f7260008201527f20617070726f7665640000000000000000000000000000000000000000000000602082015250565b60006145d76029836133d9565b91506145e28261457b565b604082019050919050565b60006020820190508181036000830152614606816145ca565b9050919050565b7f4f776e61626c653a206e6577206f776e657220697320746865207a65726f206160008201527f6464726573730000000000000000000000000000000000000000000000000000602082015250565b60006146696026836133d9565b91506146748261460d565b604082019050919050565b600060208201905081810360008301526146988161465c565b9050919050565b7f53616c65732068617665206e6f742073746172746564207965742e0000000000600082015250565b60006146d5601b836133d9565b91506146e08261469f565b602082019050919050565b60006020820190508181036000830152614704816146c8565b9050919050565b7f4f7574206f6620564946204d696e747300000000000000000000000000000000600082015250565b60006147416010836133d9565b915061474c8261470b565b602082019050919050565b6000602082019050818103600083015261477081614734565b9050919050565b7f596f75206861766520626f7567687420746865206d617820616d6f756e74206f60008201527f66206672756974206261736b65747320666f7220746865205649462073616c6560208201527f2e205761697420756e74696c204672756974792073616c6520746f207075726360408201527f68617365206d6f72652e00000000000000000000000000000000000000000000606082015250565b600061481f606a836133d9565b915061482a82614777565b608082019050919050565b6000602082019050818103600083015261484e81614812565b9050919050565b7f596f7520617265206e6f74206120564946206d656d6265722e00000000000000600082015250565b600061488b6019836133d9565b915061489682614855565b602082019050919050565b600060208201905081810360008301526148ba8161487e565b9050919050565b7f50726573616c65204d696e742048617320436f6e636c75646564000000000000600082015250565b60006148f7601a836133d9565b9150614902826148c1565b602082019050919050565b60006020820190508181036000830152614926816148ea565b9050919050565b7f596f75206861766520626f7567687420746865206d617820616d6f756e74206f60008201527f66206672756974206261736b657473206173206120564946206d656d6265722e60208201527f205761697420756e74696c207075626c69632073616c6520746f20707572636860408201527f617365206d6f72652e0000000000000000000000000000000000000000000000606082015250565b60006149d56069836133d9565b91506149e08261492d565b608082019050919050565b60006020820190508181036000830152614a04816149c8565b9050919050565b7f596f75206861766520626f7567687420746865206d617820616d6f756e74206f60008201527f66206672756974206261736b657473206173206120467275697479204d656d6260208201527f65722e205761697420756e74696c207075626c69632073616c652e0000000000604082015250565b6000614a8d605b836133d9565b9150614a9882614a0b565b606082019050919050565b60006020820190508181036000830152614abc81614a80565b9050919050565b7f596f7520617265206e6f7420612050726573616c65206f7220564946206d656d60008201527f6265722e205761697420756e74696c207075626c69632073616c652e00000000602082015250565b6000614b1f603c836133d9565b9150614b2a82614ac3565b604082019050919050565b60006020820190508181036000830152614b4e81614b12565b9050919050565b7f596f75206861766520626f7567687420746865206d617820616d6f756e74206f60008201527f66206672756974206261736b657473206173206120564946206d656d6265722e602082015250565b6000614bb16040836133d9565b9150614bbc82614b55565b604082019050919050565b60006020820190508181036000830152614be081614ba4565b9050919050565b7f596f75206861766520626f7567687420746865206d617820616d6f756e74206f60008201527f66206672756974206261736b657473206173206120467275697479204d656d6260208201527f65722e0000000000000000000000000000000000000000000000000000000000604082015250565b6000614c696043836133d9565b9150614c7482614be7565b606082019050919050565b60006020820190508181036000830152614c9881614c5c565b9050919050565b7f4f6e6c7920616c6c6f776564206f6e65207075726368617365206f662061206660008201527f727569746261736b657420647572696e67207075626c69632073616c652e0000602082015250565b6000614cfb603e836133d9565b9150614d0682614c9f565b604082019050919050565b60006020820190508181036000830152614d2a81614cee565b9050919050565b7f5265656e7472616e637947756172643a207265656e7472616e742063616c6c00600082015250565b6000614d67601f836133d9565b9150614d7282614d31565b602082019050919050565b60006020820190508181036000830152614d9681614d5a565b9050919050565b7f4e6f7420656e6f756768206574686572207761732073656e7420746f2070757260008201527f636861736520796f7572206672756974206261736b65742e0000000000000000602082015250565b6000614df96038836133d9565b9150614e0482614d9d565b604082019050919050565b60006020820190508181036000830152614e2881614dec565b9050919050565b7f416c6c2042756e646c65732068617665206265656e206d696e7465642e000000600082015250565b6000614e65601d836133d9565b9150614e7082614e2f565b602082019050919050565b60006020820190508181036000830152614e9481614e58565b9050919050565b7f4e487b7100000000000000000000000000000000000000000000000000000000600052601260045260246000fd5b6000614ed582613246565b9150614ee083613246565b925082614ef057614eef614e9b565b5b828204905092915050565b6000614f0682613246565b9150614f1183613246565b925082821015614f2457614f23614258565b5b828203905092915050565b6000614f3a82613246565b9150614f4583613246565b925082614f5557614f54614e9b565b5b828206905092915050565b7f455243313135353a2069647320616e6420616d6f756e7473206c656e6774682060008201527f6d69736d61746368000000000000000000000000000000000000000000000000602082015250565b6000614fbc6028836133d9565b9150614fc782614f60565b604082019050919050565b60006020820190508181036000830152614feb81614faf565b9050919050565b7f455243313135353a207472616e7366657220746f20746865207a65726f20616460008201527f6472657373000000000000000000000000000000000000000000000000000000602082015250565b600061504e6025836133d9565b915061505982614ff2565b604082019050919050565b6000602082019050818103600083015261507d81615041565b9050919050565b7f455243313135353a20696e73756666696369656e742062616c616e636520666f60008201527f72207472616e7366657200000000000000000000000000000000000000000000602082015250565b60006150e0602a836133d9565b91506150eb82615084565b604082019050919050565b6000602082019050818103600083015261510f816150d3565b9050919050565b6000604082019050818103600083015261513081856139d8565b9050818103602083015261514481846139d8565b90509392505050565b7f455243313135353a2073657474696e6720617070726f76616c2073746174757360008201527f20666f722073656c660000000000000000000000000000000000000000000000602082015250565b60006151a96029836133d9565b91506151b48261514d565b604082019050919050565b600060208201905081810360008301526151d88161519c565b9050919050565b60006040820190506151f460008301856132bc565b61520160208301846132bc565b9392505050565b600060408201905061521d6000830185613ae8565b818103602083015261522f818461342e565b90509392505050565b7f455243313135353a206d696e7420746f20746865207a65726f2061646472657360008201527f7300000000000000000000000000000000000000000000000000000000000000602082015250565b60006152946021836133d9565b915061529f82615238565b604082019050919050565b600060208201905081810360008301526152c381615287565b9050919050565b600081519050919050565b600082825260208201905092915050565b60006152f1826152ca565b6152fb81856152d5565b935061530b8185602086016133ea565b6153148161341d565b840191505092915050565b600060a0820190506153346000830188613ae8565b6153416020830187613ae8565b818103604083015261535381866139d8565b9050818103606083015261536781856139d8565b9050818103608083015261537b81846152e6565b90509695505050505050565b60008151905061539681613312565b92915050565b6000602082840312156153b2576153b16131de565b5b60006153c084828501615387565b91505092915050565b60008160e01c9050919050565b600060033d11156153f55760046000803e6153f26000516153c9565b90505b90565b600060443d106154855761540a6131d4565b60043d036004823e80513d602482011167ffffffffffffffff82111715615432575050615485565b808201805167ffffffffffffffff8111156154505750505050615485565b80602083010160043d03850181111561546d575050505050615485565b61547c826020018501866134bd565b82955050505050505b90565b7f455243313135353a207472616e7366657220746f206e6f6e204552433131353560008201527f526563656976657220696d706c656d656e746572000000000000000000000000602082015250565b60006154e46034836133d9565b91506154ef82615488565b604082019050919050565b60006020820190508181036000830152615513816154d7565b9050919050565b7f455243313135353a204552433131353552656365697665722072656a6563746560008201527f6420746f6b656e73000000000000000000000000000000000000000000000000602082015250565b60006155766028836133d9565b91506155818261551a565b604082019050919050565b600060208201905081810360008301526155a581615569565b9050919050565b600060a0820190506155c16000830188613ae8565b6155ce6020830187613ae8565b6155db60408301866132bc565b6155e860608301856132bc565b81810360808301526155fa81846152e6565b9050969550505050505056fea264697066735822122004b2f7ae618e7b4d51c49d26297b441ea7bc34e07c96ffc805ba2c1e08b6e63064736f6c634300080d0033",
  "linkReferences": {},
  "deployedLinkReferences": {}
}