{
  "_format": "hh-sol-artifact-1",
  "contractName": "CuteeFruitee",
  "sourceName": "contracts/CuteeFruitee.sol",
  "abi": [
    {
      "inputs": [
        {
          "internalType": "string",
          "name": "uri1",
          "type": "string"
        }
      ],
      "stateMutability": "nonpayable",
      "type": "constructor"
    },
    {
      "anonymous": false,
      "inputs": [
        {
          "indexed": true,
          "internalType": "address",
          "name": "account",
          "type": "address"
        },
        {
          "indexed": true,
          "internalType": "address",
          "name": "operator",
          "type": "address"
        },
        {
          "indexed": false,
          "internalType": "bool",
          "name": "approved",
          "type": "bool"
        }
      ],
      "name": "ApprovalForAll",
      "type": "event"
    },
    {
      "anonymous": false,
      "inputs": [
        {
          "indexed": false,
          "internalType": "address",
          "name": "_sender",
          "type": "address"
        },
        {
          "indexed": false,
          "internalType": "uint256",
          "name": "_supply",
          "type": "uint256"
        }
      ],
      "name": "IncreaseReceiptSupply",
      "type": "event"
    },
    {
      "anonymous": false,
      "inputs": [
        {
          "indexed": true,
          "internalType": "address",
          "name": "previousOwner",
          "type": "address"
        },
        {
          "indexed": true,
          "internalType": "address",
          "name": "newOwner",
          "type": "address"
        }
      ],
      "name": "OwnershipTransferred",
      "type": "event"
    },
    {
      "anonymous": false,
      "inputs": [
        {
          "indexed": true,
          "internalType": "address",
          "name": "operator",
          "type": "address"
        },
        {
          "indexed": true,
          "internalType": "address",
          "name": "from",
          "type": "address"
        },
        {
          "indexed": true,
          "internalType": "address",
          "name": "to",
          "type": "address"
        },
        {
          "indexed": false,
          "internalType": "uint256[]",
          "name": "ids",
          "type": "uint256[]"
        },
        {
          "indexed": false,
          "internalType": "uint256[]",
          "name": "values",
          "type": "uint256[]"
        }
      ],
      "name": "TransferBatch",
      "type": "event"
    },
    {
      "anonymous": false,
      "inputs": [
        {
          "indexed": true,
          "internalType": "address",
          "name": "operator",
          "type": "address"
        },
        {
          "indexed": true,
          "internalType": "address",
          "name": "from",
          "type": "address"
        },
        {
          "indexed": true,
          "internalType": "address",
          "name": "to",
          "type": "address"
        },
        {
          "indexed": false,
          "internalType": "uint256",
          "name": "id",
          "type": "uint256"
        },
        {
          "indexed": false,
          "internalType": "uint256",
          "name": "value",
          "type": "uint256"
        }
      ],
      "name": "TransferSingle",
      "type": "event"
    },
    {
      "anonymous": false,
      "inputs": [
        {
          "indexed": false,
          "internalType": "string",
          "name": "value",
          "type": "string"
        },
        {
          "indexed": true,
          "internalType": "uint256",
          "name": "id",
          "type": "uint256"
        }
      ],
      "name": "URI",
      "type": "event"
    },
    {
      "inputs": [
        {
          "internalType": "address",
          "name": "",
          "type": "address"
        }
      ],
      "name": "addressToMintPass",
      "outputs": [
        {
          "internalType": "uint256",
          "name": "",
          "type": "uint256"
        }
      ],
      "stateMutability": "view",
      "type": "function"
    },
    {
      "inputs": [
        {
          "internalType": "address",
          "name": "account",
          "type": "address"
        },
        {
          "internalType": "uint256",
          "name": "id",
          "type": "uint256"
        }
      ],
      "name": "balanceOf",
      "outputs": [
        {
          "internalType": "uint256",
          "name": "",
          "type": "uint256"
        }
      ],
      "stateMutability": "view",
      "type": "function"
    },
    {
      "inputs": [
        {
          "internalType": "address[]",
          "name": "accounts",
          "type": "address[]"
        },
        {
          "internalType": "uint256[]",
          "name": "ids",
          "type": "uint256[]"
        }
      ],
      "name": "balanceOfBatch",
      "outputs": [
        {
          "internalType": "uint256[]",
          "name": "",
          "type": "uint256[]"
        }
      ],
      "stateMutability": "view",
      "type": "function"
    },
    {
      "inputs": [],
      "name": "bundleTotalSupply",
      "outputs": [
        {
          "internalType": "uint256",
          "name": "",
          "type": "uint256"
        }
      ],
      "stateMutability": "view",
      "type": "function"
    },
    {
      "inputs": [
        {
          "internalType": "uint256",
          "name": "_fruitTokenId",
          "type": "uint256"
        },
        {
          "internalType": "uint256",
          "name": "_fourInOneTokenId",
          "type": "uint256"
        },
        {
          "internalType": "uint256",
          "name": "_quadrant",
          "type": "uint256"
        }
      ],
      "name": "cuteeExchange",
      "outputs": [],
      "stateMutability": "nonpayable",
      "type": "function"
    },
    {
      "inputs": [
        {
          "internalType": "address",
          "name": "_recipient",
          "type": "address"
        }
      ],
      "name": "getMintPassCount",
      "outputs": [
        {
          "internalType": "uint256",
          "name": "",
          "type": "uint256"
        }
      ],
      "stateMutability": "view",
      "type": "function"
    },
    {
      "inputs": [],
      "name": "getPresaleMintCount",
      "outputs": [
        {
          "internalType": "uint256",
          "name": "",
          "type": "uint256"
        }
      ],
      "stateMutability": "view",
      "type": "function"
    },
    {
      "inputs": [],
      "name": "getPricePerBundle",
      "outputs": [
        {
          "internalType": "uint256",
          "name": "",
          "type": "uint256"
        }
      ],
      "stateMutability": "view",
      "type": "function"
    },
    {
      "inputs": [],
      "name": "getVifMintCount",
      "outputs": [
        {
          "internalType": "uint256",
          "name": "",
          "type": "uint256"
        }
      ],
      "stateMutability": "view",
      "type": "function"
    },
    {
      "inputs": [
        {
          "internalType": "address",
          "name": "account",
          "type": "address"
        },
        {
          "internalType": "address",
          "name": "operator",
          "type": "address"
        }
      ],
      "name": "isApprovedForAll",
      "outputs": [
        {
          "internalType": "bool",
          "name": "",
          "type": "bool"
        }
      ],
      "stateMutability": "view",
      "type": "function"
    },
    {
      "inputs": [
        {
          "internalType": "bytes32[]",
          "name": "_merkleProof",
          "type": "bytes32[]"
        },
        {
          "internalType": "uint256",
          "name": "_maxAmount",
          "type": "uint256"
        }
      ],
      "name": "mintBundle",
      "outputs": [],
      "stateMutability": "payable",
      "type": "function"
    },
    {
      "inputs": [
        {
          "internalType": "address[]",
          "name": "_giveaways",
          "type": "address[]"
        }
      ],
      "name": "mintPassGiveaway",
      "outputs": [],
      "stateMutability": "nonpayable",
      "type": "function"
    },
    {
      "inputs": [
        {
          "internalType": "uint256",
          "name": "",
          "type": "uint256"
        }
      ],
      "name": "mintersList",
      "outputs": [
        {
          "internalType": "address",
          "name": "",
          "type": "address"
        }
      ],
      "stateMutability": "view",
      "type": "function"
    },
    {
      "inputs": [],
      "name": "owner",
      "outputs": [
        {
          "internalType": "address",
          "name": "",
          "type": "address"
        }
      ],
      "stateMutability": "view",
      "type": "function"
    },
    {
      "inputs": [],
      "name": "presaleMintCount",
      "outputs": [
        {
          "internalType": "uint256",
          "name": "",
          "type": "uint256"
        }
      ],
      "stateMutability": "view",
      "type": "function"
    },
    {
      "inputs": [],
      "name": "receiptTotalSupply",
      "outputs": [
        {
          "internalType": "uint256",
          "name": "",
          "type": "uint256"
        }
      ],
      "stateMutability": "view",
      "type": "function"
    },
    {
      "inputs": [],
      "name": "renounceOwnership",
      "outputs": [],
      "stateMutability": "nonpayable",
      "type": "function"
    },
    {
      "inputs": [
        {
          "internalType": "address",
          "name": "from",
          "type": "address"
        },
        {
          "internalType": "address",
          "name": "to",
          "type": "address"
        },
        {
          "internalType": "uint256[]",
          "name": "ids",
          "type": "uint256[]"
        },
        {
          "internalType": "uint256[]",
          "name": "amounts",
          "type": "uint256[]"
        },
        {
          "internalType": "bytes",
          "name": "data",
          "type": "bytes"
        }
      ],
      "name": "safeBatchTransferFrom",
      "outputs": [],
      "stateMutability": "nonpayable",
      "type": "function"
    },
    {
      "inputs": [
        {
          "internalType": "address",
          "name": "from",
          "type": "address"
        },
        {
          "internalType": "address",
          "name": "to",
          "type": "address"
        },
        {
          "internalType": "uint256",
          "name": "id",
          "type": "uint256"
        },
        {
          "internalType": "uint256",
          "name": "amount",
          "type": "uint256"
        },
        {
          "internalType": "bytes",
          "name": "data",
          "type": "bytes"
        }
      ],
      "name": "safeTransferFrom",
      "outputs": [],
      "stateMutability": "nonpayable",
      "type": "function"
    },
    {
      "inputs": [
        {
          "internalType": "address",
          "name": "operator",
          "type": "address"
        },
        {
          "internalType": "bool",
          "name": "approved",
          "type": "bool"
        }
      ],
      "name": "setApprovalForAll",
      "outputs": [],
      "stateMutability": "nonpayable",
      "type": "function"
    },
    {
      "inputs": [],
      "name": "setFruitySale",
      "outputs": [],
      "stateMutability": "nonpayable",
      "type": "function"
    },
    {
      "inputs": [
        {
          "internalType": "bytes32",
          "name": "_merkleRoot",
          "type": "bytes32"
        }
      ],
      "name": "setMerkleRoot",
      "outputs": [],
      "stateMutability": "nonpayable",
      "type": "function"
    },
    {
      "inputs": [
        {
          "internalType": "uint256",
          "name": "_gwei",
          "type": "uint256"
        }
      ],
      "name": "setPricePerBundle",
      "outputs": [],
      "stateMutability": "nonpayable",
      "type": "function"
    },
    {
      "inputs": [],
      "name": "setPublicSale",
      "outputs": [],
      "stateMutability": "nonpayable",
      "type": "function"
    },
    {
      "inputs": [
        {
          "internalType": "uint256",
          "name": "_vifMintAmount",
          "type": "uint256"
        },
        {
          "internalType": "uint256",
          "name": "_presaleMintAmount",
          "type": "uint256"
        }
      ],
      "name": "setSeason",
      "outputs": [],
      "stateMutability": "nonpayable",
      "type": "function"
    },
    {
      "inputs": [],
      "name": "setVifSale",
      "outputs": [],
      "stateMutability": "nonpayable",
      "type": "function"
    },
    {
      "inputs": [
        {
          "internalType": "bytes4",
          "name": "interfaceId",
          "type": "bytes4"
        }
      ],
      "name": "supportsInterface",
      "outputs": [
        {
          "internalType": "bool",
          "name": "",
          "type": "bool"
        }
      ],
      "stateMutability": "view",
      "type": "function"
    },
    {
      "inputs": [
        {
          "internalType": "address",
          "name": "newOwner",
          "type": "address"
        }
      ],
      "name": "transferOwnership",
      "outputs": [],
      "stateMutability": "nonpayable",
      "type": "function"
    },
    {
      "inputs": [
        {
          "internalType": "uint256",
          "name": "_tokenId",
          "type": "uint256"
        }
      ],
      "name": "uri",
      "outputs": [
        {
          "internalType": "string",
          "name": "",
          "type": "string"
        }
      ],
      "stateMutability": "view",
      "type": "function"
    },
    {
      "inputs": [],
      "name": "useMintPass",
      "outputs": [],
      "stateMutability": "nonpayable",
      "type": "function"
    },
    {
      "inputs": [],
      "name": "vifMintCount",
      "outputs": [
        {
          "internalType": "uint256",
          "name": "",
          "type": "uint256"
        }
      ],
      "stateMutability": "view",
      "type": "function"
    },
    {
      "inputs": [],
      "name": "withdrawBalance",
      "outputs": [],
      "stateMutability": "nonpayable",
      "type": "function"
    }
  ],
  "bytecode": "0x60806040526001600455620186a160055567016345785d8a00006008556000600a60006101000a81548160ff0219169083151502179055506000600a60016101000a81548160ff0219169083151502179055506000600a60026101000a81548160ff0219169083151502179055503480156200007a57600080fd5b5060405162006146380380620061468339818101604052810190620000a091906200043a565b620000c0620000b46200010360201b60201c565b6200010b60201b60201c565b6001600381905550620000d981620001d160201b60201c565b6064600d81905550610159600c81905550610bb86007819055506103e860068190555050620004f0565b600033905090565b6000600260009054906101000a900473ffffffffffffffffffffffffffffffffffffffff16905081600260006101000a81548173ffffffffffffffffffffffffffffffffffffffff021916908373ffffffffffffffffffffffffffffffffffffffff1602179055508173ffffffffffffffffffffffffffffffffffffffff168173ffffffffffffffffffffffffffffffffffffffff167f8be0079c531659141344cd1fd0a4f28419497f9722a3daafe3b4186f6b6457e060405160405180910390a35050565b80600b9080519060200190620001e9929190620001ed565b5050565b828054620001fb90620004ba565b90600052602060002090601f0160209004810192826200021f57600085556200026b565b82601f106200023a57805160ff19168380011785556200026b565b828001600101855582156200026b579182015b828111156200026a5782518255916020019190600101906200024d565b5b5090506200027a91906200027e565b5090565b5b80821115620002995760008160009055506001016200027f565b5090565b6000604051905090565b600080fd5b600080fd5b600080fd5b600080fd5b6000601f19601f8301169050919050565b7f4e487b7100000000000000000000000000000000000000000000000000000000600052604160045260246000fd5b6200030682620002bb565b810181811067ffffffffffffffff82111715620003285762000327620002cc565b5b80604052505050565b60006200033d6200029d565b90506200034b8282620002fb565b919050565b600067ffffffffffffffff8211156200036e576200036d620002cc565b5b6200037982620002bb565b9050602081019050919050565b60005b83811015620003a657808201518184015260208101905062000389565b83811115620003b6576000848401525b50505050565b6000620003d3620003cd8462000350565b62000331565b905082815260208101848484011115620003f257620003f1620002b6565b5b620003ff84828562000386565b509392505050565b600082601f8301126200041f576200041e620002b1565b5b815162000431848260208601620003bc565b91505092915050565b600060208284031215620004535762000452620002a7565b5b600082015167ffffffffffffffff811115620004745762000473620002ac565b5b620004828482850162000407565b91505092915050565b7f4e487b7100000000000000000000000000000000000000000000000000000000600052602260045260246000fd5b60006002820490506001821680620004d357607f821691505b60208210811415620004ea57620004e96200048b565b5b50919050565b615c4680620005006000396000f3fe6080604052600436106101e25760003560e01c80636ef1018211610102578063b7d1919c11610095578063e985e9c511610064578063e985e9c514610693578063f242432a146106d0578063f2fde38b146106f9578063fc9d7e0d14610722576101e2565b8063b7d1919c146105e9578063ba4f2b2f14610614578063bd3352d41461063f578063c7d77ee514610656576101e2565b80638110b32f116100d15780638110b32f146105415780638623511b1461056a5780638da5cb5b14610595578063a22cb465146105c0576101e2565b80636ef1018214610499578063715018a6146104d65780637b1b1bb0146104ed5780637cb6475914610518576101e2565b80633efc52001161017a57806356f8f78c1161014957806356f8f78c14610415578063584bc2841461042c5780635fd8c71014610457578063650f9e9b1461046e576101e2565b80633efc5200146103495780634825b65e146103725780634e1273f41461039b5780635141742c146103d8576101e2565b80630e942da8116101b65780630e942da8146102c9578063114e691d146102e05780632eb2c2d6146102f757806334c30bf514610320576101e2565b8062fdd58e146101e757806301ffc9a7146102245780630cf92e04146102615780630e89341c1461028c575b600080fd5b3480156101f357600080fd5b5061020e6004803603810190610209919061369a565b61073e565b60405161021b91906136e9565b60405180910390f35b34801561023057600080fd5b5061024b6004803603810190610246919061375c565b610807565b60405161025891906137a4565b60405180910390f35b34801561026d57600080fd5b506102766108e9565b60405161028391906136e9565b60405180910390f35b34801561029857600080fd5b506102b360048036038101906102ae91906137bf565b6108ef565b6040516102c09190613885565b60405180910390f35b3480156102d557600080fd5b506102de61099c565b005b3480156102ec57600080fd5b506102f5610a44565b005b34801561030357600080fd5b5061031e60048036038101906103199190613aa4565b610b78565b005b34801561032c57600080fd5b5061034760048036038101906103429190613bce565b610c19565b005b34801561035557600080fd5b50610370600480360381019061036b91906137bf565b610d37565b005b34801561037e57600080fd5b5061039960048036038101906103949190613c1b565b610dbd565b005b3480156103a757600080fd5b506103c260048036038101906103bd9190613d1e565b610ead565b6040516103cf9190613e54565b60405180910390f35b3480156103e457600080fd5b506103ff60048036038101906103fa9190613e76565b610fc6565b60405161040c91906136e9565b60405180910390f35b34801561042157600080fd5b5061042a610fde565b005b34801561043857600080fd5b50610441611086565b60405161044e91906136e9565b60405180910390f35b34801561046357600080fd5b5061046c611090565b005b34801561047a57600080fd5b50610483611198565b60405161049091906136e9565b60405180910390f35b3480156104a557600080fd5b506104c060048036038101906104bb9190613e76565b6111a2565b6040516104cd91906136e9565b60405180910390f35b3480156104e257600080fd5b506104eb6111eb565b005b3480156104f957600080fd5b50610502611273565b60405161050f91906136e9565b60405180910390f35b34801561052457600080fd5b5061053f600480360381019061053a9190613ed9565b61127d565b005b34801561054d57600080fd5b5061056860048036038101906105639190613f06565b611303565b005b34801561057657600080fd5b5061057f6116c2565b60405161058c91906136e9565b60405180910390f35b3480156105a157600080fd5b506105aa6116cc565b6040516105b79190613f68565b60405180910390f35b3480156105cc57600080fd5b506105e760048036038101906105e29190613faf565b6116f6565b005b3480156105f557600080fd5b506105fe61170c565b60405161060b91906136e9565b60405180910390f35b34801561062057600080fd5b50610629611712565b60405161063691906136e9565b60405180910390f35b34801561064b57600080fd5b5061065461171c565b005b34801561066257600080fd5b5061067d600480360381019061067891906137bf565b6117c4565b60405161068a9190613f68565b60405180910390f35b34801561069f57600080fd5b506106ba60048036038101906106b59190613fef565b611803565b6040516106c791906137a4565b60405180910390f35b3480156106dc57600080fd5b506106f760048036038101906106f2919061402f565b611897565b005b34801561070557600080fd5b50610720600480360381019061071b9190613e76565b611938565b005b61073c60048036038101906107379190614189565b611a30565b005b60008073ffffffffffffffffffffffffffffffffffffffff168373ffffffffffffffffffffffffffffffffffffffff1614156107af576040517f08c379a00000000000000000000000000000000000000000000000000000000081526004016107a690614257565b60405180910390fd5b60008083815260200190815260200160002060008473ffffffffffffffffffffffffffffffffffffffff1673ffffffffffffffffffffffffffffffffffffffff16815260200190815260200160002054905092915050565b60007fd9b67a26000000000000000000000000000000000000000000000000000000007bffffffffffffffffffffffffffffffffffffffffffffffffffffffff1916827bffffffffffffffffffffffffffffffffffffffffffffffffffffffff191614806108d257507f0e89341c000000000000000000000000000000000000000000000000000000007bffffffffffffffffffffffffffffffffffffffffffffffffffffffff1916827bffffffffffffffffffffffffffffffffffffffffffffffffffffffff1916145b806108e257506108e1826121ca565b5b9050919050565b600d5481565b6060620186a082111561092e57600b61090783612234565b604051602001610918929190614440565b6040516020818303038152906040529050610997565b600082141561096957600b61094283612234565b6040516020016109539291906144c6565b6040516020818303038152906040529050610997565b600b61097483612234565b60405160200161098592919061454c565b60405160208183030381529060405290505b919050565b6109a4612395565b73ffffffffffffffffffffffffffffffffffffffff166109c26116cc565b73ffffffffffffffffffffffffffffffffffffffff1614610a18576040517f08c379a0000000000000000000000000000000000000000000000000000000008152600401610a0f906145d2565b60405180910390fd5b600a60009054906101000a900460ff1615600a60006101000a81548160ff021916908315150217905550565b600060065411610a89576040517f08c379a0000000000000000000000000000000000000000000000000000000008152600401610a809061463e565b60405180910390fd5b6000610a93612395565b90506000601060008373ffffffffffffffffffffffffffffffffffffffff1673ffffffffffffffffffffffffffffffffffffffff1681526020019081526020016000205411610b17576040517f08c379a0000000000000000000000000000000000000000000000000000000008152600401610b0e906146aa565b60405180910390fd5b601060008273ffffffffffffffffffffffffffffffffffffffff1673ffffffffffffffffffffffffffffffffffffffff1681526020019081526020016000206000815480929190610b67906146f9565b9190505550610b758161239d565b50565b610b80612395565b73ffffffffffffffffffffffffffffffffffffffff168573ffffffffffffffffffffffffffffffffffffffff161480610bc65750610bc585610bc0612395565b611803565b5b610c05576040517f08c379a0000000000000000000000000000000000000000000000000000000008152600401610bfc90614795565b60405180910390fd5b610c128585858585612664565b5050505050565b610c21612395565b73ffffffffffffffffffffffffffffffffffffffff16610c3f6116cc565b73ffffffffffffffffffffffffffffffffffffffff1614610c95576040517f08c379a0000000000000000000000000000000000000000000000000000000008152600401610c8c906145d2565b60405180910390fd5b60005b82829050811015610d325760106000848484818110610cba57610cb96147b5565b5b9050602002016020810190610ccf9190613e76565b73ffffffffffffffffffffffffffffffffffffffff1673ffffffffffffffffffffffffffffffffffffffff1681526020019081526020016000206000815480929190610d1a906147e4565b91905055508080610d2a906147e4565b915050610c98565b505050565b610d3f612395565b73ffffffffffffffffffffffffffffffffffffffff16610d5d6116cc565b73ffffffffffffffffffffffffffffffffffffffff1614610db3576040517f08c379a0000000000000000000000000000000000000000000000000000000008152600401610daa906145d2565b60405180910390fd5b8060088190555050565b610dc5612395565b73ffffffffffffffffffffffffffffffffffffffff16610de36116cc565b73ffffffffffffffffffffffffffffffffffffffff1614610e39576040517f08c379a0000000000000000000000000000000000000000000000000000000008152600401610e30906145d2565b60405180910390fd5b6103e8600681905550610bb8600754610e52919061482d565b60078190555081600d8190555080600c81905550610e6e61296a565b7fe3d47dee33b959cc59941f840525125123544e1f194b235f340f0c6147697ac333610bb8604051610ea19291906148c8565b60405180910390a15050565b60608151835114610ef3576040517f08c379a0000000000000000000000000000000000000000000000000000000008152600401610eea90614963565b60405180910390fd5b6000835167ffffffffffffffff811115610f1057610f0f6138ac565b5b604051908082528060200260200182016040528015610f3e5781602001602082028036833780820191505090505b50905060005b8451811015610fbb57610f8b858281518110610f6357610f626147b5565b5b6020026020010151858381518110610f7e57610f7d6147b5565b5b602002602001015161073e565b828281518110610f9e57610f9d6147b5565b5b60200260200101818152505080610fb4906147e4565b9050610f44565b508091505092915050565b60106020528060005260406000206000915090505481565b610fe6612395565b73ffffffffffffffffffffffffffffffffffffffff166110046116cc565b73ffffffffffffffffffffffffffffffffffffffff161461105a576040517f08c379a0000000000000000000000000000000000000000000000000000000008152600401611051906145d2565b60405180910390fd5b600a60029054906101000a900460ff1615600a60026101000a81548160ff021916908315150217905550565b6000600c54905090565b611098612395565b73ffffffffffffffffffffffffffffffffffffffff166110b66116cc565b73ffffffffffffffffffffffffffffffffffffffff161461110c576040517f08c379a0000000000000000000000000000000000000000000000000000000008152600401611103906145d2565b60405180910390fd5b6000471161114f576040517f08c379a0000000000000000000000000000000000000000000000000000000008152600401611146906149cf565b60405180910390fd5b3373ffffffffffffffffffffffffffffffffffffffff166108fc479081150290604051600060405180830381858888f19350505050158015611195573d6000803e3d6000fd5b50565b6000600754905090565b6000601060008373ffffffffffffffffffffffffffffffffffffffff1673ffffffffffffffffffffffffffffffffffffffff168152602001908152602001600020549050919050565b6111f3612395565b73ffffffffffffffffffffffffffffffffffffffff166112116116cc565b73ffffffffffffffffffffffffffffffffffffffff1614611267576040517f08c379a000000000000000000000000000000000000000000000000000000000815260040161125e906145d2565b60405180910390fd5b6112716000612a21565b565b6000600854905090565b611285612395565b73ffffffffffffffffffffffffffffffffffffffff166112a36116cc565b73ffffffffffffffffffffffffffffffffffffffff16146112f9576040517f08c379a00000000000000000000000000000000000000000000000000000000081526004016112f0906145d2565b60405180910390fd5b8060098190555050565b60026003541415611349576040517f08c379a000000000000000000000000000000000000000000000000000000000815260040161134090614a3b565b60405180910390fd5b60026003819055506000600367ffffffffffffffff81111561136e5761136d6138ac565b5b60405190808252806020026020018201604052801561139c5781602001602082028036833780820191505090505b5090506000600367ffffffffffffffff8111156113bc576113bb6138ac565b5b6040519080825280602002602001820160405280156113ea5781602001602082028036833780820191505090505b5090506000600367ffffffffffffffff81111561140a576114096138ac565b5b6040519080825280602002602001820160405280156114385781602001602082028036833780820191505090505b50905033836000815181106114505761144f6147b5565b5b602002602001019073ffffffffffffffffffffffffffffffffffffffff16908173ffffffffffffffffffffffffffffffffffffffff1681525050338360018151811061149f5761149e6147b5565b5b602002602001019073ffffffffffffffffffffffffffffffffffffffff16908173ffffffffffffffffffffffffffffffffffffffff168152505033836002815181106114ee576114ed6147b5565b5b602002602001019073ffffffffffffffffffffffffffffffffffffffff16908173ffffffffffffffffffffffffffffffffffffffff1681525050858260008151811061153d5761153c6147b5565b5b602002602001018181525050848260018151811061155e5761155d6147b5565b5b6020026020010181815250506000826002815181106115805761157f6147b5565b5b6020026020010181815250506115968383610ead565b90506000816000815181106115ae576115ad6147b5565b5b6020026020010151116115f6576040517f08c379a00000000000000000000000000000000000000000000000000000000081526004016115ed90614aa7565b60405180910390fd5b60008160018151811061160c5761160b6147b5565b5b602002602001015111611654576040517f08c379a000000000000000000000000000000000000000000000000000000000815260040161164b90614b39565b60405180910390fd5b60008160028151811061166a576116696147b5565b5b6020026020010151116116b2576040517f08c379a00000000000000000000000000000000000000000000000000000000081526004016116a990614bcb565b60405180910390fd5b5050506001600381905550505050565b6000600654905090565b6000600260009054906101000a900473ffffffffffffffffffffffffffffffffffffffff16905090565b611708611701612395565b8383612ae7565b5050565b600c5481565b6000600d54905090565b611724612395565b73ffffffffffffffffffffffffffffffffffffffff166117426116cc565b73ffffffffffffffffffffffffffffffffffffffff1614611798576040517f08c379a000000000000000000000000000000000000000000000000000000000815260040161178f906145d2565b60405180910390fd5b600a60019054906101000a900460ff1615600a60016101000a81548160ff021916908315150217905550565b600e81815481106117d457600080fd5b906000526020600020016000915054906101000a900473ffffffffffffffffffffffffffffffffffffffff1681565b6000600160008473ffffffffffffffffffffffffffffffffffffffff1673ffffffffffffffffffffffffffffffffffffffff16815260200190815260200160002060008373ffffffffffffffffffffffffffffffffffffffff1673ffffffffffffffffffffffffffffffffffffffff16815260200190815260200160002060009054906101000a900460ff16905092915050565b61189f612395565b73ffffffffffffffffffffffffffffffffffffffff168573ffffffffffffffffffffffffffffffffffffffff1614806118e557506118e4856118df612395565b611803565b5b611924576040517f08c379a000000000000000000000000000000000000000000000000000000000815260040161191b90614c5d565b60405180910390fd5b6119318585858585612c54565b5050505050565b611940612395565b73ffffffffffffffffffffffffffffffffffffffff1661195e6116cc565b73ffffffffffffffffffffffffffffffffffffffff16146119b4576040517f08c379a00000000000000000000000000000000000000000000000000000000081526004016119ab906145d2565b60405180910390fd5b600073ffffffffffffffffffffffffffffffffffffffff168173ffffffffffffffffffffffffffffffffffffffff161415611a24576040517f08c379a0000000000000000000000000000000000000000000000000000000008152600401611a1b90614cef565b60405180910390fd5b611a2d81612a21565b50565b8181600a60009054906101000a900460ff1680611a595750600a60019054906101000a900460ff165b80611a705750600a60029054906101000a900460ff165b611aaf576040517f08c379a0000000000000000000000000000000000000000000000000000000008152600401611aa690614d5b565b60405180910390fd5b6000611ab9612395565b9050600a60009054906101000a900460ff1615611c07576000600d5411611b15576040517f08c379a0000000000000000000000000000000000000000000000000000000008152600401611b0c90614dc7565b60405180910390fd5b611b2083601e612eb8565b15611bc4576001600f60008373ffffffffffffffffffffffffffffffffffffffff1673ffffffffffffffffffffffffffffffffffffffff1681526020019081526020016000205410611ba7576040517f08c379a0000000000000000000000000000000000000000000000000000000008152600401611b9e90614ea5565b60405180910390fd5b600d6000815480929190611bba906146f9565b9190505550611c06565b6000611c05576040517f08c379a0000000000000000000000000000000000000000000000000000000008152600401611bfc90614f11565b60405180910390fd5b5b5b600a60019054906101000a900460ff1615611de8576000600c5411611c61576040517f08c379a0000000000000000000000000000000000000000000000000000000008152600401611c5890614f7d565b60405180910390fd5b611c6b8383612eb8565b15611da557601e821415611cfc576002600f60008373ffffffffffffffffffffffffffffffffffffffff1673ffffffffffffffffffffffffffffffffffffffff1681526020019081526020016000205410611cfb576040517f08c379a0000000000000000000000000000000000000000000000000000000008152600401611cf29061505b565b60405180910390fd5b5b6014821415611d88576001600f60008373ffffffffffffffffffffffffffffffffffffffff1673ffffffffffffffffffffffffffffffffffffffff1681526020019081526020016000205410611d87576040517f08c379a0000000000000000000000000000000000000000000000000000000008152600401611d7e90615113565b60405180910390fd5b5b600c6000815480929190611d9b906146f9565b9190505550611de7565b6000611de6576040517f08c379a0000000000000000000000000000000000000000000000000000000008152600401611ddd906151a5565b60405180910390fd5b5b5b600a60029054906101000a900460ff1615611fc657601e82148015611e135750611e128383612eb8565b5b15611e9f576003600f60008373ffffffffffffffffffffffffffffffffffffffff1673ffffffffffffffffffffffffffffffffffffffff1681526020019081526020016000205410611e9a576040517f08c379a0000000000000000000000000000000000000000000000000000000008152600401611e9190615237565b60405180910390fd5b611fc5565b601482148015611eb55750611eb48383612eb8565b5b15611f41576002600f60008373ffffffffffffffffffffffffffffffffffffffff1673ffffffffffffffffffffffffffffffffffffffff1681526020019081526020016000205410611f3c576040517f08c379a0000000000000000000000000000000000000000000000000000000008152600401611f33906152ef565b60405180910390fd5b611fc4565b6001600f60008373ffffffffffffffffffffffffffffffffffffffff1673ffffffffffffffffffffffffffffffffffffffff1681526020019081526020016000205410611fc3576040517f08c379a0000000000000000000000000000000000000000000000000000000008152600401611fba90615381565b60405180910390fd5b5b5b5b6002600354141561200c576040517f08c379a000000000000000000000000000000000000000000000000000000000815260040161200390614a3b565b60405180910390fd5b600260038190555067016345785d8a000034101561205f576040517f08c379a000000000000000000000000000000000000000000000000000000000815260040161205690615413565b60405180910390fd5b6000600654116120a4576040517f08c379a000000000000000000000000000000000000000000000000000000000815260040161209b9061547f565b60405180910390fd5b60006120ae612395565b90506120b98161239d565b6001600f60008373ffffffffffffffffffffffffffffffffffffffff1673ffffffffffffffffffffffffffffffffffffffff16815260200190815260200160002054101561216557600e819080600181540180825580915050600190039060005260206000200160009091909190916101000a81548173ffffffffffffffffffffffffffffffffffffffff021916908373ffffffffffffffffffffffffffffffffffffffff1602179055505b600f60008273ffffffffffffffffffffffffffffffffffffffff1673ffffffffffffffffffffffffffffffffffffffff16815260200190815260200160002060008154809291906121b5906147e4565b91905055505060016003819055505050505050565b60007f01ffc9a7000000000000000000000000000000000000000000000000000000007bffffffffffffffffffffffffffffffffffffffffffffffffffffffff1916827bffffffffffffffffffffffffffffffffffffffffffffffffffffffff1916149050919050565b6060600082141561227c576040518060400160405280600181526020017f30000000000000000000000000000000000000000000000000000000000000008152509050612390565b600082905060005b600082146122ae578080612297906147e4565b915050600a826122a791906154ce565b9150612284565b60008167ffffffffffffffff8111156122ca576122c96138ac565b5b6040519080825280601f01601f1916602001820160405280156122fc5781602001600182028036833780820191505090505b5090505b600085146123895760018261231591906154ff565b9150600a856123249190615533565b6030612330919061482d565b60f81b818381518110612346576123456147b5565b5b60200101907effffffffffffffffffffffffffffffffffffffffffffffffffffffffffffff1916908160001a905350600a8561238291906154ce565b9450612300565b8093505050505b919050565b600033905090565b6000600667ffffffffffffffff8111156123ba576123b96138ac565b5b6040519080825280602002602001820160405280156123e85781602001602082028036833780820191505090505b5090506000600667ffffffffffffffff811115612408576124076138ac565b5b6040519080825280602002602001820160405280156124365781602001602082028036833780820191505090505b50905060018260008151811061244f5761244e6147b5565b5b602002602001018181525050600182600181518110612471576124706147b5565b5b602002602001018181525050600182600281518110612493576124926147b5565b5b6020026020010181815250506001826003815181106124b5576124b46147b5565b5b6020026020010181815250506001826004815181106124d7576124d66147b5565b5b6020026020010181815250506003826005815181106124f9576124f86147b5565b5b6020026020010181815250506004548160008151811061251c5761251b6147b5565b5b6020026020010181815250506004600081548092919061253b906147e4565b919050555060045481600181518110612557576125566147b5565b5b60200260200101818152505060046000815480929190612576906147e4565b919050555060045481600281518110612592576125916147b5565b5b602002602001018181525050600460008154809291906125b1906147e4565b9190505550600454816003815181106125cd576125cc6147b5565b5b602002602001018181525050600460008154809291906125ec906147e4565b919050555060055481600481518110612608576126076147b5565b5b60200260200101818152505060056000815480929190612627906147e4565b919050555061264783828460405180602001604052806000815250612f11565b6006600081548092919061265a906146f9565b9190505550505050565b81518351146126a8576040517f08c379a000000000000000000000000000000000000000000000000000000000815260040161269f906155d6565b60405180910390fd5b600073ffffffffffffffffffffffffffffffffffffffff168473ffffffffffffffffffffffffffffffffffffffff161415612718576040517f08c379a000000000000000000000000000000000000000000000000000000000815260040161270f90615668565b60405180910390fd5b6000612722612395565b905060005b84518110156128d5576000858281518110612745576127446147b5565b5b602002602001015190506000858381518110612764576127636147b5565b5b60200260200101519050600080600084815260200190815260200160002060008b73ffffffffffffffffffffffffffffffffffffffff1673ffffffffffffffffffffffffffffffffffffffff16815260200190815260200160002054905081811015612805576040517f08c379a00000000000000000000000000000000000000000000000000000000081526004016127fc906156fa565b60405180910390fd5b81810360008085815260200190815260200160002060008c73ffffffffffffffffffffffffffffffffffffffff1673ffffffffffffffffffffffffffffffffffffffff168152602001908152602001600020819055508160008085815260200190815260200160002060008b73ffffffffffffffffffffffffffffffffffffffff1673ffffffffffffffffffffffffffffffffffffffff16815260200190815260200160002060008282546128ba919061482d565b92505081905550505050806128ce906147e4565b9050612727565b508473ffffffffffffffffffffffffffffffffffffffff168673ffffffffffffffffffffffffffffffffffffffff168273ffffffffffffffffffffffffffffffffffffffff167f4a39dc06d4c0dbc64b70af90fd698a233a518aa5d07e595d983b8c0526c8f7fb878760405161294c92919061571a565b60405180910390a4612962818787878787613120565b505050505050565b60005b600e80549050811015612a10576000600f6000600e8481548110612994576129936147b5565b5b9060005260206000200160009054906101000a900473ffffffffffffffffffffffffffffffffffffffff1673ffffffffffffffffffffffffffffffffffffffff1673ffffffffffffffffffffffffffffffffffffffff168152602001908152602001600020819055508080612a08906147e4565b91505061296d565b50600e6000612a1f91906135b4565b565b6000600260009054906101000a900473ffffffffffffffffffffffffffffffffffffffff16905081600260006101000a81548173ffffffffffffffffffffffffffffffffffffffff021916908373ffffffffffffffffffffffffffffffffffffffff1602179055508173ffffffffffffffffffffffffffffffffffffffff168173ffffffffffffffffffffffffffffffffffffffff167f8be0079c531659141344cd1fd0a4f28419497f9722a3daafe3b4186f6b6457e060405160405180910390a35050565b8173ffffffffffffffffffffffffffffffffffffffff168373ffffffffffffffffffffffffffffffffffffffff161415612b56576040517f08c379a0000000000000000000000000000000000000000000000000000000008152600401612b4d906157c3565b60405180910390fd5b80600160008573ffffffffffffffffffffffffffffffffffffffff1673ffffffffffffffffffffffffffffffffffffffff16815260200190815260200160002060008473ffffffffffffffffffffffffffffffffffffffff1673ffffffffffffffffffffffffffffffffffffffff16815260200190815260200160002060006101000a81548160ff0219169083151502179055508173ffffffffffffffffffffffffffffffffffffffff168373ffffffffffffffffffffffffffffffffffffffff167f17307eab39ab6107e8899845ad3d59bd9653f200f220920489ca2b5937696c3183604051612c4791906137a4565b60405180910390a3505050565b600073ffffffffffffffffffffffffffffffffffffffff168473ffffffffffffffffffffffffffffffffffffffff161415612cc4576040517f08c379a0000000000000000000000000000000000000000000000000000000008152600401612cbb90615668565b60405180910390fd5b6000612cce612395565b9050600080600086815260200190815260200160002060008873ffffffffffffffffffffffffffffffffffffffff1673ffffffffffffffffffffffffffffffffffffffff16815260200190815260200160002054905083811015612d67576040517f08c379a0000000000000000000000000000000000000000000000000000000008152600401612d5e906156fa565b60405180910390fd5b83810360008087815260200190815260200160002060008973ffffffffffffffffffffffffffffffffffffffff1673ffffffffffffffffffffffffffffffffffffffff168152602001908152602001600020819055508360008087815260200190815260200160002060008873ffffffffffffffffffffffffffffffffffffffff1673ffffffffffffffffffffffffffffffffffffffff1681526020019081526020016000206000828254612e1c919061482d565b925050819055508573ffffffffffffffffffffffffffffffffffffffff168773ffffffffffffffffffffffffffffffffffffffff168373ffffffffffffffffffffffffffffffffffffffff167fc3d58168c5ae7397731d063d5bbf3d657854427343f4c083240f7aacaa2d0f628888604051612e999291906157e3565b60405180910390a4612eaf828888888888613307565b50505050505050565b600080612ec3612395565b9050600081612ed185612234565b604051602001612ee292919061580c565b604051602081830303815290604052805190602001209050612f0785600954836134ee565b9250505092915050565b600073ffffffffffffffffffffffffffffffffffffffff168473ffffffffffffffffffffffffffffffffffffffff161415612f81576040517f08c379a0000000000000000000000000000000000000000000000000000000008152600401612f78906158ae565b60405180910390fd5b8151835114612fc5576040517f08c379a0000000000000000000000000000000000000000000000000000000008152600401612fbc906155d6565b60405180910390fd5b6000612fcf612395565b905060005b845181101561308a57838181518110612ff057612fef6147b5565b5b602002602001015160008087848151811061300e5761300d6147b5565b5b6020026020010151815260200190815260200160002060008873ffffffffffffffffffffffffffffffffffffffff1673ffffffffffffffffffffffffffffffffffffffff1681526020019081526020016000206000828254613070919061482d565b925050819055508080613082906147e4565b915050612fd4565b508473ffffffffffffffffffffffffffffffffffffffff16600073ffffffffffffffffffffffffffffffffffffffff168273ffffffffffffffffffffffffffffffffffffffff167f4a39dc06d4c0dbc64b70af90fd698a233a518aa5d07e595d983b8c0526c8f7fb878760405161310292919061571a565b60405180910390a461311981600087878787613120565b5050505050565b61313f8473ffffffffffffffffffffffffffffffffffffffff16613505565b156132ff578373ffffffffffffffffffffffffffffffffffffffff1663bc197c8187878686866040518663ffffffff1660e01b8152600401613185959493929190615923565b602060405180830381600087803b15801561319f57600080fd5b505af19250505080156131d057506040513d601f19601f820116820180604052508101906131cd91906159a0565b60015b613276576131dc6159da565b806308c379a0141561323957506131f16159fc565b806131fc575061323b565b806040517f08c379a00000000000000000000000000000000000000000000000000000000081526004016132309190613885565b60405180910390fd5b505b6040517f08c379a000000000000000000000000000000000000000000000000000000000815260040161326d90615b04565b60405180910390fd5b63bc197c8160e01b7bffffffffffffffffffffffffffffffffffffffffffffffffffffffff1916817bffffffffffffffffffffffffffffffffffffffffffffffffffffffff1916146132fd576040517f08c379a00000000000000000000000000000000000000000000000000000000081526004016132f490615b96565b60405180910390fd5b505b505050505050565b6133268473ffffffffffffffffffffffffffffffffffffffff16613505565b156134e6578373ffffffffffffffffffffffffffffffffffffffff1663f23a6e6187878686866040518663ffffffff1660e01b815260040161336c959493929190615bb6565b602060405180830381600087803b15801561338657600080fd5b505af19250505080156133b757506040513d601f19601f820116820180604052508101906133b491906159a0565b60015b61345d576133c36159da565b806308c379a0141561342057506133d86159fc565b806133e35750613422565b806040517f08c379a00000000000000000000000000000000000000000000000000000000081526004016134179190613885565b60405180910390fd5b505b6040517f08c379a000000000000000000000000000000000000000000000000000000000815260040161345490615b04565b60405180910390fd5b63f23a6e6160e01b7bffffffffffffffffffffffffffffffffffffffffffffffffffffffff1916817bffffffffffffffffffffffffffffffffffffffffffffffffffffffff1916146134e4576040517f08c379a00000000000000000000000000000000000000000000000000000000081526004016134db90615b96565b60405180910390fd5b505b505050505050565b6000826134fb8584613528565b1490509392505050565b6000808273ffffffffffffffffffffffffffffffffffffffff163b119050919050565b60008082905060005b845181101561359257600085828151811061354f5761354e6147b5565b5b602002602001015190508083116135715761356a838261359d565b925061357e565b61357b818461359d565b92505b50808061358a906147e4565b915050613531565b508091505092915050565b600082600052816020526040600020905092915050565b50805460008255906000526020600020908101906135d291906135d5565b50565b5b808211156135ee5760008160009055506001016135d6565b5090565b6000604051905090565b600080fd5b600080fd5b600073ffffffffffffffffffffffffffffffffffffffff82169050919050565b600061363182613606565b9050919050565b61364181613626565b811461364c57600080fd5b50565b60008135905061365e81613638565b92915050565b6000819050919050565b61367781613664565b811461368257600080fd5b50565b6000813590506136948161366e565b92915050565b600080604083850312156136b1576136b06135fc565b5b60006136bf8582860161364f565b92505060206136d085828601613685565b9150509250929050565b6136e381613664565b82525050565b60006020820190506136fe60008301846136da565b92915050565b60007fffffffff0000000000000000000000000000000000000000000000000000000082169050919050565b61373981613704565b811461374457600080fd5b50565b60008135905061375681613730565b92915050565b600060208284031215613772576137716135fc565b5b600061378084828501613747565b91505092915050565b60008115159050919050565b61379e81613789565b82525050565b60006020820190506137b96000830184613795565b92915050565b6000602082840312156137d5576137d46135fc565b5b60006137e384828501613685565b91505092915050565b600081519050919050565b600082825260208201905092915050565b60005b8381101561382657808201518184015260208101905061380b565b83811115613835576000848401525b50505050565b6000601f19601f8301169050919050565b6000613857826137ec565b61386181856137f7565b9350613871818560208601613808565b61387a8161383b565b840191505092915050565b6000602082019050818103600083015261389f818461384c565b905092915050565b600080fd5b7f4e487b7100000000000000000000000000000000000000000000000000000000600052604160045260246000fd5b6138e48261383b565b810181811067ffffffffffffffff82111715613903576139026138ac565b5b80604052505050565b60006139166135f2565b905061392282826138db565b919050565b600067ffffffffffffffff821115613942576139416138ac565b5b602082029050602081019050919050565b600080fd5b600061396b61396684613927565b61390c565b9050808382526020820190506020840283018581111561398e5761398d613953565b5b835b818110156139b757806139a38882613685565b845260208401935050602081019050613990565b5050509392505050565b600082601f8301126139d6576139d56138a7565b5b81356139e6848260208601613958565b91505092915050565b600080fd5b600067ffffffffffffffff821115613a0f57613a0e6138ac565b5b613a188261383b565b9050602081019050919050565b82818337600083830152505050565b6000613a47613a42846139f4565b61390c565b905082815260208101848484011115613a6357613a626139ef565b5b613a6e848285613a25565b509392505050565b600082601f830112613a8b57613a8a6138a7565b5b8135613a9b848260208601613a34565b91505092915050565b600080600080600060a08688031215613ac057613abf6135fc565b5b6000613ace8882890161364f565b9550506020613adf8882890161364f565b945050604086013567ffffffffffffffff811115613b0057613aff613601565b5b613b0c888289016139c1565b935050606086013567ffffffffffffffff811115613b2d57613b2c613601565b5b613b39888289016139c1565b925050608086013567ffffffffffffffff811115613b5a57613b59613601565b5b613b6688828901613a76565b9150509295509295909350565b600080fd5b60008083601f840112613b8e57613b8d6138a7565b5b8235905067ffffffffffffffff811115613bab57613baa613b73565b5b602083019150836020820283011115613bc757613bc6613953565b5b9250929050565b60008060208385031215613be557613be46135fc565b5b600083013567ffffffffffffffff811115613c0357613c02613601565b5b613c0f85828601613b78565b92509250509250929050565b60008060408385031215613c3257613c316135fc565b5b6000613c4085828601613685565b9250506020613c5185828601613685565b9150509250929050565b600067ffffffffffffffff821115613c7657613c756138ac565b5b602082029050602081019050919050565b6000613c9a613c9584613c5b565b61390c565b90508083825260208201905060208402830185811115613cbd57613cbc613953565b5b835b81811015613ce65780613cd2888261364f565b845260208401935050602081019050613cbf565b5050509392505050565b600082601f830112613d0557613d046138a7565b5b8135613d15848260208601613c87565b91505092915050565b60008060408385031215613d3557613d346135fc565b5b600083013567ffffffffffffffff811115613d5357613d52613601565b5b613d5f85828601613cf0565b925050602083013567ffffffffffffffff811115613d8057613d7f613601565b5b613d8c858286016139c1565b9150509250929050565b600081519050919050565b600082825260208201905092915050565b6000819050602082019050919050565b613dcb81613664565b82525050565b6000613ddd8383613dc2565b60208301905092915050565b6000602082019050919050565b6000613e0182613d96565b613e0b8185613da1565b9350613e1683613db2565b8060005b83811015613e47578151613e2e8882613dd1565b9750613e3983613de9565b925050600181019050613e1a565b5085935050505092915050565b60006020820190508181036000830152613e6e8184613df6565b905092915050565b600060208284031215613e8c57613e8b6135fc565b5b6000613e9a8482850161364f565b91505092915050565b6000819050919050565b613eb681613ea3565b8114613ec157600080fd5b50565b600081359050613ed381613ead565b92915050565b600060208284031215613eef57613eee6135fc565b5b6000613efd84828501613ec4565b91505092915050565b600080600060608486031215613f1f57613f1e6135fc565b5b6000613f2d86828701613685565b9350506020613f3e86828701613685565b9250506040613f4f86828701613685565b9150509250925092565b613f6281613626565b82525050565b6000602082019050613f7d6000830184613f59565b92915050565b613f8c81613789565b8114613f9757600080fd5b50565b600081359050613fa981613f83565b92915050565b60008060408385031215613fc657613fc56135fc565b5b6000613fd48582860161364f565b9250506020613fe585828601613f9a565b9150509250929050565b60008060408385031215614006576140056135fc565b5b60006140148582860161364f565b92505060206140258582860161364f565b9150509250929050565b600080600080600060a0868803121561404b5761404a6135fc565b5b60006140598882890161364f565b955050602061406a8882890161364f565b945050604061407b88828901613685565b935050606061408c88828901613685565b925050608086013567ffffffffffffffff8111156140ad576140ac613601565b5b6140b988828901613a76565b9150509295509295909350565b600067ffffffffffffffff8211156140e1576140e06138ac565b5b602082029050602081019050919050565b6000614105614100846140c6565b61390c565b9050808382526020820190506020840283018581111561412857614127613953565b5b835b81811015614151578061413d8882613ec4565b84526020840193505060208101905061412a565b5050509392505050565b600082601f8301126141705761416f6138a7565b5b81356141808482602086016140f2565b91505092915050565b600080604083850312156141a05761419f6135fc565b5b600083013567ffffffffffffffff8111156141be576141bd613601565b5b6141ca8582860161415b565b92505060206141db85828601613685565b9150509250929050565b7f455243313135353a2062616c616e636520717565727920666f7220746865207a60008201527f65726f2061646472657373000000000000000000000000000000000000000000602082015250565b6000614241602b836137f7565b915061424c826141e5565b604082019050919050565b6000602082019050818103600083015261427081614234565b9050919050565b7f4e487b7100000000000000000000000000000000000000000000000000000000600052602260045260246000fd5b600060028204905060018216806142be57607f821691505b602082108114156142d2576142d1614277565b5b50919050565b600081905092915050565b60008190508160005260206000209050919050565b60008154614305816142a6565b61430f81866142d8565b9450600182166000811461432a576001811461433b5761436e565b60ff1983168652818601935061436e565b614344856142e3565b60005b8381101561436657815481890152600182019150602081019050614347565b838801955050505b50505092915050565b7f2f34696e31732f00000000000000000000000000000000000000000000000000600082015250565b60006143ad6007836142d8565b91506143b882614377565b600782019050919050565b60006143ce826137ec565b6143d881856142d8565b93506143e8818560208601613808565b80840191505092915050565b7f2e6a736f6e000000000000000000000000000000000000000000000000000000600082015250565b600061442a6005836142d8565b9150614435826143f4565b600582019050919050565b600061444c82856142f8565b9150614457826143a0565b915061446382846143c3565b915061446e8261441d565b91508190509392505050565b7f2f72656365697074732f00000000000000000000000000000000000000000000600082015250565b60006144b0600a836142d8565b91506144bb8261447a565b600a82019050919050565b60006144d282856142f8565b91506144dd826144a3565b91506144e982846143c3565b91506144f48261441d565b91508190509392505050565b7f2f6672756974732f000000000000000000000000000000000000000000000000600082015250565b60006145366008836142d8565b915061454182614500565b600882019050919050565b600061455882856142f8565b915061456382614529565b915061456f82846143c3565b915061457a8261441d565b91508190509392505050565b7f4f776e61626c653a2063616c6c6572206973206e6f7420746865206f776e6572600082015250565b60006145bc6020836137f7565b91506145c782614586565b602082019050919050565b600060208201905081810360008301526145eb816145af565b9050919050565b7f416c6c2062756e646c65732068617665206265656e206d696e7465642e000000600082015250565b6000614628601d836137f7565b9150614633826145f2565b602082019050919050565b600060208201905081810360008301526146578161461b565b9050919050565b7f596f7520646f206e6f74206861766520612066726565206d696e742e00000000600082015250565b6000614694601c836137f7565b915061469f8261465e565b602082019050919050565b600060208201905081810360008301526146c381614687565b9050919050565b7f4e487b7100000000000000000000000000000000000000000000000000000000600052601160045260246000fd5b600061470482613664565b91506000821415614718576147176146ca565b5b600182039050919050565b7f455243313135353a207472616e736665722063616c6c6572206973206e6f742060008201527f6f776e6572206e6f7220617070726f7665640000000000000000000000000000602082015250565b600061477f6032836137f7565b915061478a82614723565b604082019050919050565b600060208201905081810360008301526147ae81614772565b9050919050565b7f4e487b7100000000000000000000000000000000000000000000000000000000600052603260045260246000fd5b60006147ef82613664565b91507fffffffffffffffffffffffffffffffffffffffffffffffffffffffffffffffff821415614822576148216146ca565b5b600182019050919050565b600061483882613664565b915061484383613664565b9250827fffffffffffffffffffffffffffffffffffffffffffffffffffffffffffffffff03821115614878576148776146ca565b5b828201905092915050565b6000819050919050565b6000819050919050565b60006148b26148ad6148a884614883565b61488d565b613664565b9050919050565b6148c281614897565b82525050565b60006040820190506148dd6000830185613f59565b6148ea60208301846148b9565b9392505050565b7f455243313135353a206163636f756e747320616e6420696473206c656e67746860008201527f206d69736d617463680000000000000000000000000000000000000000000000602082015250565b600061494d6029836137f7565b9150614958826148f1565b604082019050919050565b6000602082019050818103600083015261497c81614940565b9050919050565b7f4e6f20657468657220696e20636f6e7472616374000000000000000000000000600082015250565b60006149b96014836137f7565b91506149c482614983565b602082019050919050565b600060208201905081810360008301526149e8816149ac565b9050919050565b7f5265656e7472616e637947756172643a207265656e7472616e742063616c6c00600082015250565b6000614a25601f836137f7565b9150614a30826149ef565b602082019050919050565b60006020820190508181036000830152614a5481614a18565b9050919050565b7f596f7520646f206e6f74206f776e20746865206672756974746f6b656e000000600082015250565b6000614a91601d836137f7565b9150614a9c82614a5b565b602082019050919050565b60006020820190508181036000830152614ac081614a84565b9050919050565b7f596f7520646f206e6f74206f776e2074686520666f7572496e4f6e65546f6b6560008201527f6e00000000000000000000000000000000000000000000000000000000000000602082015250565b6000614b236021836137f7565b9150614b2e82614ac7565b604082019050919050565b60006020820190508181036000830152614b5281614b16565b9050919050565b7f596f7520646f206e6f74206f776e2061207265636569707420666f722065786360008201527f68616e6765000000000000000000000000000000000000000000000000000000602082015250565b6000614bb56025836137f7565b9150614bc082614b59565b604082019050919050565b60006020820190508181036000830152614be481614ba8565b9050919050565b7f455243313135353a2063616c6c6572206973206e6f74206f776e6572206e6f7260008201527f20617070726f7665640000000000000000000000000000000000000000000000602082015250565b6000614c476029836137f7565b9150614c5282614beb565b604082019050919050565b60006020820190508181036000830152614c7681614c3a565b9050919050565b7f4f776e61626c653a206e6577206f776e657220697320746865207a65726f206160008201527f6464726573730000000000000000000000000000000000000000000000000000602082015250565b6000614cd96026836137f7565b9150614ce482614c7d565b604082019050919050565b60006020820190508181036000830152614d0881614ccc565b9050919050565b7f53616c65732068617665206e6f742073746172746564207965742e0000000000600082015250565b6000614d45601b836137f7565b9150614d5082614d0f565b602082019050919050565b60006020820190508181036000830152614d7481614d38565b9050919050565b7f4f7574206f6620564946204d696e747300000000000000000000000000000000600082015250565b6000614db16010836137f7565b9150614dbc82614d7b565b602082019050919050565b60006020820190508181036000830152614de081614da4565b9050919050565b7f596f75206861766520626f7567687420746865206d617820616d6f756e74206f60008201527f66206672756974206261736b65747320666f7220746865205649462073616c6560208201527f2e205761697420756e74696c204672756974792073616c6520746f207075726360408201527f68617365206d6f72652e00000000000000000000000000000000000000000000606082015250565b6000614e8f606a836137f7565b9150614e9a82614de7565b608082019050919050565b60006020820190508181036000830152614ebe81614e82565b9050919050565b7f596f7520617265206e6f74206120564946206d656d6265722e00000000000000600082015250565b6000614efb6019836137f7565b9150614f0682614ec5565b602082019050919050565b60006020820190508181036000830152614f2a81614eee565b9050919050565b7f50726573616c65204d696e742048617320436f6e636c75646564000000000000600082015250565b6000614f67601a836137f7565b9150614f7282614f31565b602082019050919050565b60006020820190508181036000830152614f9681614f5a565b9050919050565b7f596f75206861766520626f7567687420746865206d617820616d6f756e74206f60008201527f66206672756974206261736b657473206173206120564946206d656d6265722e60208201527f205761697420756e74696c207075626c69632073616c6520746f20707572636860408201527f617365206d6f72652e0000000000000000000000000000000000000000000000606082015250565b60006150456069836137f7565b915061505082614f9d565b608082019050919050565b6000602082019050818103600083015261507481615038565b9050919050565b7f596f75206861766520626f7567687420746865206d617820616d6f756e74206f60008201527f66206672756974206261736b657473206173206120467275697479204d656d6260208201527f65722e205761697420756e74696c207075626c69632073616c652e0000000000604082015250565b60006150fd605b836137f7565b91506151088261507b565b606082019050919050565b6000602082019050818103600083015261512c816150f0565b9050919050565b7f596f7520617265206e6f7420612050726573616c65206f7220564946206d656d60008201527f6265722e205761697420756e74696c207075626c69632073616c652e00000000602082015250565b600061518f603c836137f7565b915061519a82615133565b604082019050919050565b600060208201905081810360008301526151be81615182565b9050919050565b7f596f75206861766520626f7567687420746865206d617820616d6f756e74206f60008201527f66206672756974206261736b657473206173206120564946206d656d6265722e602082015250565b60006152216040836137f7565b915061522c826151c5565b604082019050919050565b6000602082019050818103600083015261525081615214565b9050919050565b7f596f75206861766520626f7567687420746865206d617820616d6f756e74206f60008201527f66206672756974206261736b657473206173206120467275697479204d656d6260208201527f65722e0000000000000000000000000000000000000000000000000000000000604082015250565b60006152d96043836137f7565b91506152e482615257565b606082019050919050565b60006020820190508181036000830152615308816152cc565b9050919050565b7f4f6e6c7920616c6c6f776564206f6e65207075726368617365206f662061206660008201527f727569746261736b657420647572696e67207075626c69632073616c652e0000602082015250565b600061536b603e836137f7565b91506153768261530f565b604082019050919050565b6000602082019050818103600083015261539a8161535e565b9050919050565b7f4e6f7420656e6f756768206574686572207761732073656e7420746f2070757260008201527f636861736520796f7572206672756974206261736b65742e0000000000000000602082015250565b60006153fd6038836137f7565b9150615408826153a1565b604082019050919050565b6000602082019050818103600083015261542c816153f0565b9050919050565b7f416c6c2042756e646c65732068617665206265656e206d696e7465642e000000600082015250565b6000615469601d836137f7565b915061547482615433565b602082019050919050565b600060208201905081810360008301526154988161545c565b9050919050565b7f4e487b7100000000000000000000000000000000000000000000000000000000600052601260045260246000fd5b60006154d982613664565b91506154e483613664565b9250826154f4576154f361549f565b5b828204905092915050565b600061550a82613664565b915061551583613664565b925082821015615528576155276146ca565b5b828203905092915050565b600061553e82613664565b915061554983613664565b9250826155595761555861549f565b5b828206905092915050565b7f455243313135353a2069647320616e6420616d6f756e7473206c656e6774682060008201527f6d69736d61746368000000000000000000000000000000000000000000000000602082015250565b60006155c06028836137f7565b91506155cb82615564565b604082019050919050565b600060208201905081810360008301526155ef816155b3565b9050919050565b7f455243313135353a207472616e7366657220746f20746865207a65726f20616460008201527f6472657373000000000000000000000000000000000000000000000000000000602082015250565b60006156526025836137f7565b915061565d826155f6565b604082019050919050565b6000602082019050818103600083015261568181615645565b9050919050565b7f455243313135353a20696e73756666696369656e742062616c616e636520666f60008201527f72207472616e7366657200000000000000000000000000000000000000000000602082015250565b60006156e4602a836137f7565b91506156ef82615688565b604082019050919050565b60006020820190508181036000830152615713816156d7565b9050919050565b600060408201905081810360008301526157348185613df6565b905081810360208301526157488184613df6565b90509392505050565b7f455243313135353a2073657474696e6720617070726f76616c2073746174757360008201527f20666f722073656c660000000000000000000000000000000000000000000000602082015250565b60006157ad6029836137f7565b91506157b882615751565b604082019050919050565b600060208201905081810360008301526157dc816157a0565b9050919050565b60006040820190506157f860008301856136da565b61580560208301846136da565b9392505050565b60006040820190506158216000830185613f59565b8181036020830152615833818461384c565b90509392505050565b7f455243313135353a206d696e7420746f20746865207a65726f2061646472657360008201527f7300000000000000000000000000000000000000000000000000000000000000602082015250565b60006158986021836137f7565b91506158a38261583c565b604082019050919050565b600060208201905081810360008301526158c78161588b565b9050919050565b600081519050919050565b600082825260208201905092915050565b60006158f5826158ce565b6158ff81856158d9565b935061590f818560208601613808565b6159188161383b565b840191505092915050565b600060a0820190506159386000830188613f59565b6159456020830187613f59565b81810360408301526159578186613df6565b9050818103606083015261596b8185613df6565b9050818103608083015261597f81846158ea565b90509695505050505050565b60008151905061599a81613730565b92915050565b6000602082840312156159b6576159b56135fc565b5b60006159c48482850161598b565b91505092915050565b60008160e01c9050919050565b600060033d11156159f95760046000803e6159f66000516159cd565b90505b90565b600060443d1015615a0c57615a8f565b615a146135f2565b60043d036004823e80513d602482011167ffffffffffffffff82111715615a3c575050615a8f565b808201805167ffffffffffffffff811115615a5a5750505050615a8f565b80602083010160043d038501811115615a77575050505050615a8f565b615a86826020018501866138db565b82955050505050505b90565b7f455243313135353a207472616e7366657220746f206e6f6e204552433131353560008201527f526563656976657220696d706c656d656e746572000000000000000000000000602082015250565b6000615aee6034836137f7565b9150615af982615a92565b604082019050919050565b60006020820190508181036000830152615b1d81615ae1565b9050919050565b7f455243313135353a204552433131353552656365697665722072656a6563746560008201527f6420746f6b656e73000000000000000000000000000000000000000000000000602082015250565b6000615b806028836137f7565b9150615b8b82615b24565b604082019050919050565b60006020820190508181036000830152615baf81615b73565b9050919050565b600060a082019050615bcb6000830188613f59565b615bd86020830187613f59565b615be560408301866136da565b615bf260608301856136da565b8181036080830152615c0481846158ea565b9050969550505050505056fea2646970667358221220aca2e64ed183a1b7d9680e443b9e83d3589a42b3c76ff2a46a9fc453fde9322e64736f6c63430008090033",
  "linkReferences": {},
  "deployedLinkReferences": {}
}