{
  "_format": "hh-sol-artifact-1",
  "contractName": "DemoDapp",
  "sourceName": "contracts/DemoDapp.sol",
  "abi": [
    {
      "inputs": [
        {
          "internalType": "string",
          "name": "uri",
          "type": "string"
        }
      ],
      "stateMutability": "nonpayable",
      "type": "constructor"
    },
    {
      "anonymous": false,
      "inputs": [
        {
          "indexed": true,
          "internalType": "address",
          "name": "account",
          "type": "address"
        },
        {
          "indexed": true,
          "internalType": "address",
          "name": "operator",
          "type": "address"
        },
        {
          "indexed": false,
          "internalType": "bool",
          "name": "approved",
          "type": "bool"
        }
      ],
      "name": "ApprovalForAll",
      "type": "event"
    },
    {
      "anonymous": false,
      "inputs": [
        {
          "indexed": false,
          "internalType": "address",
          "name": "_sender",
          "type": "address"
        },
        {
          "indexed": false,
          "internalType": "uint256",
          "name": "_supply",
          "type": "uint256"
        }
      ],
      "name": "IncreaseReceiptSupply",
      "type": "event"
    },
    {
      "anonymous": false,
      "inputs": [
        {
          "indexed": true,
          "internalType": "address",
          "name": "previousOwner",
          "type": "address"
        },
        {
          "indexed": true,
          "internalType": "address",
          "name": "newOwner",
          "type": "address"
        }
      ],
      "name": "OwnershipTransferred",
      "type": "event"
    },
    {
      "anonymous": false,
      "inputs": [
        {
          "indexed": true,
          "internalType": "address",
          "name": "operator",
          "type": "address"
        },
        {
          "indexed": true,
          "internalType": "address",
          "name": "from",
          "type": "address"
        },
        {
          "indexed": true,
          "internalType": "address",
          "name": "to",
          "type": "address"
        },
        {
          "indexed": false,
          "internalType": "uint256[]",
          "name": "ids",
          "type": "uint256[]"
        },
        {
          "indexed": false,
          "internalType": "uint256[]",
          "name": "values",
          "type": "uint256[]"
        }
      ],
      "name": "TransferBatch",
      "type": "event"
    },
    {
      "anonymous": false,
      "inputs": [
        {
          "indexed": true,
          "internalType": "address",
          "name": "operator",
          "type": "address"
        },
        {
          "indexed": true,
          "internalType": "address",
          "name": "from",
          "type": "address"
        },
        {
          "indexed": true,
          "internalType": "address",
          "name": "to",
          "type": "address"
        },
        {
          "indexed": false,
          "internalType": "uint256",
          "name": "id",
          "type": "uint256"
        },
        {
          "indexed": false,
          "internalType": "uint256",
          "name": "value",
          "type": "uint256"
        }
      ],
      "name": "TransferSingle",
      "type": "event"
    },
    {
      "anonymous": false,
      "inputs": [
        {
          "indexed": false,
          "internalType": "string",
          "name": "value",
          "type": "string"
        },
        {
          "indexed": true,
          "internalType": "uint256",
          "name": "id",
          "type": "uint256"
        }
      ],
      "name": "URI",
      "type": "event"
    },
    {
      "inputs": [
        {
          "internalType": "address",
          "name": "account",
          "type": "address"
        },
        {
          "internalType": "uint256",
          "name": "id",
          "type": "uint256"
        }
      ],
      "name": "balanceOf",
      "outputs": [
        {
          "internalType": "uint256",
          "name": "",
          "type": "uint256"
        }
      ],
      "stateMutability": "view",
      "type": "function"
    },
    {
      "inputs": [
        {
          "internalType": "address[]",
          "name": "accounts",
          "type": "address[]"
        },
        {
          "internalType": "uint256[]",
          "name": "ids",
          "type": "uint256[]"
        }
      ],
      "name": "balanceOfBatch",
      "outputs": [
        {
          "internalType": "uint256[]",
          "name": "",
          "type": "uint256[]"
        }
      ],
      "stateMutability": "view",
      "type": "function"
    },
    {
      "inputs": [
        {
          "internalType": "uint256",
          "name": "_fruitTokenId",
          "type": "uint256"
        },
        {
          "internalType": "uint256",
          "name": "_fourInOneTokenId",
          "type": "uint256"
        },
        {
          "internalType": "uint256",
          "name": "_quadrant",
          "type": "uint256"
        }
      ],
      "name": "cuteeExchange",
      "outputs": [],
      "stateMutability": "nonpayable",
      "type": "function"
    },
    {
      "inputs": [],
      "name": "getBalanceOfContract",
      "outputs": [
        {
          "internalType": "uint256",
          "name": "",
          "type": "uint256"
        }
      ],
      "stateMutability": "view",
      "type": "function"
    },
    {
      "inputs": [],
      "name": "getBatchSupply",
      "outputs": [
        {
          "internalType": "uint256",
          "name": "",
          "type": "uint256"
        }
      ],
      "stateMutability": "view",
      "type": "function"
    },
    {
      "inputs": [],
      "name": "getBundleBalance",
      "outputs": [
        {
          "internalType": "uint256",
          "name": "",
          "type": "uint256"
        }
      ],
      "stateMutability": "view",
      "type": "function"
    },
    {
      "inputs": [],
      "name": "getReceiptSupply",
      "outputs": [
        {
          "internalType": "uint256",
          "name": "",
          "type": "uint256"
        }
      ],
      "stateMutability": "view",
      "type": "function"
    },
    {
      "inputs": [
        {
          "internalType": "address[]",
          "name": "_to",
          "type": "address[]"
        }
      ],
      "name": "giveawayMintBatch",
      "outputs": [],
      "stateMutability": "nonpayable",
      "type": "function"
    },
    {
      "inputs": [
        {
          "internalType": "uint256",
          "name": "_supply",
          "type": "uint256"
        }
      ],
      "name": "increaseReceiptSupply",
      "outputs": [],
      "stateMutability": "nonpayable",
      "type": "function"
    },
    {
      "inputs": [
        {
          "internalType": "address",
          "name": "account",
          "type": "address"
        },
        {
          "internalType": "address",
          "name": "operator",
          "type": "address"
        }
      ],
      "name": "isApprovedForAll",
      "outputs": [
        {
          "internalType": "bool",
          "name": "",
          "type": "bool"
        }
      ],
      "stateMutability": "view",
      "type": "function"
    },
    {
      "inputs": [],
      "name": "mintBundle",
      "outputs": [],
      "stateMutability": "payable",
      "type": "function"
    },
    {
      "inputs": [],
      "name": "owner",
      "outputs": [
        {
          "internalType": "address",
          "name": "",
          "type": "address"
        }
      ],
      "stateMutability": "view",
      "type": "function"
    },
    {
      "inputs": [],
      "name": "renounceOwnership",
      "outputs": [],
      "stateMutability": "nonpayable",
      "type": "function"
    },
    {
      "inputs": [
        {
          "internalType": "address",
          "name": "from",
          "type": "address"
        },
        {
          "internalType": "address",
          "name": "to",
          "type": "address"
        },
        {
          "internalType": "uint256[]",
          "name": "ids",
          "type": "uint256[]"
        },
        {
          "internalType": "uint256[]",
          "name": "amounts",
          "type": "uint256[]"
        },
        {
          "internalType": "bytes",
          "name": "data",
          "type": "bytes"
        }
      ],
      "name": "safeBatchTransferFrom",
      "outputs": [],
      "stateMutability": "nonpayable",
      "type": "function"
    },
    {
      "inputs": [
        {
          "internalType": "address",
          "name": "from",
          "type": "address"
        },
        {
          "internalType": "address",
          "name": "to",
          "type": "address"
        },
        {
          "internalType": "uint256",
          "name": "id",
          "type": "uint256"
        },
        {
          "internalType": "uint256",
          "name": "amount",
          "type": "uint256"
        },
        {
          "internalType": "bytes",
          "name": "data",
          "type": "bytes"
        }
      ],
      "name": "safeTransferFrom",
      "outputs": [],
      "stateMutability": "nonpayable",
      "type": "function"
    },
    {
      "inputs": [
        {
          "internalType": "address",
          "name": "operator",
          "type": "address"
        },
        {
          "internalType": "bool",
          "name": "approved",
          "type": "bool"
        }
      ],
      "name": "setApprovalForAll",
      "outputs": [],
      "stateMutability": "nonpayable",
      "type": "function"
    },
    {
      "inputs": [
        {
          "internalType": "bytes4",
          "name": "interfaceId",
          "type": "bytes4"
        }
      ],
      "name": "supportsInterface",
      "outputs": [
        {
          "internalType": "bool",
          "name": "",
          "type": "bool"
        }
      ],
      "stateMutability": "view",
      "type": "function"
    },
    {
      "inputs": [
        {
          "internalType": "address",
          "name": "newOwner",
          "type": "address"
        }
      ],
      "name": "transferOwnership",
      "outputs": [],
      "stateMutability": "nonpayable",
      "type": "function"
    },
    {
      "inputs": [
        {
          "internalType": "uint256",
          "name": "",
          "type": "uint256"
        }
      ],
      "name": "uri",
      "outputs": [
        {
          "internalType": "string",
          "name": "",
          "type": "string"
        }
      ],
      "stateMutability": "view",
      "type": "function"
    },
    {
      "inputs": [],
      "name": "withdrawBalance",
      "outputs": [],
      "stateMutability": "nonpayable",
      "type": "function"
    }
  ],
  "bytecode": "0x6080604052610bb86004556001600555620186a160065560fa6007556007546103e86200002d91906200034d565b6008553480156200003d57600080fd5b50604051620050a0380380620050a08339818101604052810190620000639190620002a9565b8062000075816200009d60201b60201c565b50620000966200008a620000b960201b60201c565b620000c160201b60201c565b50620004d2565b8060029080519060200190620000b592919062000187565b5050565b600033905090565b6000600360009054906101000a900473ffffffffffffffffffffffffffffffffffffffff16905081600360006101000a81548173ffffffffffffffffffffffffffffffffffffffff021916908373ffffffffffffffffffffffffffffffffffffffff1602179055508173ffffffffffffffffffffffffffffffffffffffff168173ffffffffffffffffffffffffffffffffffffffff167f8be0079c531659141344cd1fd0a4f28419497f9722a3daafe3b4186f6b6457e060405160405180910390a35050565b8280546200019590620003c8565b90600052602060002090601f016020900481019282620001b9576000855562000205565b82601f10620001d457805160ff191683800117855562000205565b8280016001018555821562000205579182015b8281111562000204578251825591602001919060010190620001e7565b5b50905062000214919062000218565b5090565b5b808211156200023357600081600090555060010162000219565b5090565b60006200024e620002488462000317565b620002ee565b9050828152602081018484840111156200026757600080fd5b6200027484828562000392565b509392505050565b600082601f8301126200028e57600080fd5b8151620002a084826020860162000237565b91505092915050565b600060208284031215620002bc57600080fd5b600082015167ffffffffffffffff811115620002d757600080fd5b620002e5848285016200027c565b91505092915050565b6000620002fa6200030d565b9050620003088282620003fe565b919050565b6000604051905090565b600067ffffffffffffffff82111562000335576200033462000492565b5b6200034082620004c1565b9050602081019050919050565b60006200035a8262000388565b9150620003678362000388565b9250828210156200037d576200037c62000434565b5b828203905092915050565b6000819050919050565b60005b83811015620003b257808201518184015260208101905062000395565b83811115620003c2576000848401525b50505050565b60006002820490506001821680620003e157607f821691505b60208210811415620003f857620003f762000463565b5b50919050565b6200040982620004c1565b810181811067ffffffffffffffff821117156200042b576200042a62000492565b5b80604052505050565b7f4e487b7100000000000000000000000000000000000000000000000000000000600052601160045260246000fd5b7f4e487b7100000000000000000000000000000000000000000000000000000000600052602260045260246000fd5b7f4e487b7100000000000000000000000000000000000000000000000000000000600052604160045260246000fd5b6000601f19601f8301169050919050565b614bbe80620004e26000396000f3fe60806040526004361061011e5760003560e01c80638110b32f116100a0578063b08504e911610064578063b08504e91461039f578063cec2e733146103ca578063e985e9c5146103f3578063f242432a14610430578063f2fde38b146104595761011e565b80638110b32f146102ce57806383fc3067146102f75780638da5cb5b14610320578063918c732a1461034b578063a22cb465146103765761011e565b8063410404b7116100e7578063410404b71461022e5780634e1273f4146102385780635f4c5b25146102755780635fd8c710146102a0578063715018a6146102b75761011e565b8062fdd58e1461012357806301ffc9a7146101605780630e89341c1461019d57806322968885146101da5780632eb2c2d614610205575b600080fd5b34801561012f57600080fd5b5061014a6004803603810190610145919061360b565b610482565b6040516101579190614044565b60405180910390f35b34801561016c57600080fd5b50610187600480360381019061018291906136f8565b61054b565b6040516101949190613d47565b60405180910390f35b3480156101a957600080fd5b506101c460048036038101906101bf919061374a565b61062d565b6040516101d19190613d62565b60405180910390f35b3480156101e657600080fd5b506101ef6106c1565b6040516101fc9190614044565b60405180910390f35b34801561021157600080fd5b5061022c60048036038101906102279190613481565b610745565b005b6102366107e6565b005b34801561024457600080fd5b5061025f600480360381019061025a919061368c565b610ecc565b60405161026c9190613cee565b60405180910390f35b34801561028157600080fd5b5061028a61107d565b6040516102979190614044565b60405180910390f35b3480156102ac57600080fd5b506102b5611103565b005b3480156102c357600080fd5b506102cc61120b565b005b3480156102da57600080fd5b506102f560048036038101906102f09190613773565b611293565b005b34801561030357600080fd5b5061031e6004803603810190610319919061374a565b6117c4565b005b34801561032c57600080fd5b50610335611890565b6040516103429190613be8565b60405180910390f35b34801561035757600080fd5b506103606118ba565b60405161036d9190614044565b60405180910390f35b34801561038257600080fd5b5061039d600480360381019061039891906135cf565b611940565b005b3480156103ab57600080fd5b506103b4611956565b6040516103c19190614044565b60405180910390f35b3480156103d657600080fd5b506103f160048036038101906103ec9190613647565b61199d565b005b3480156103ff57600080fd5b5061041a60048036038101906104159190613445565b611ff8565b6040516104279190613d47565b60405180910390f35b34801561043c57600080fd5b5061045760048036038101906104529190613540565b61208c565b005b34801561046557600080fd5b50610480600480360381019061047b919061341c565b61212d565b005b60008073ffffffffffffffffffffffffffffffffffffffff168373ffffffffffffffffffffffffffffffffffffffff1614156104f3576040517f08c379a00000000000000000000000000000000000000000000000000000000081526004016104ea90613dc4565b60405180910390fd5b60008083815260200190815260200160002060008473ffffffffffffffffffffffffffffffffffffffff1673ffffffffffffffffffffffffffffffffffffffff16815260200190815260200160002054905092915050565b60007fd9b67a26000000000000000000000000000000000000000000000000000000007bffffffffffffffffffffffffffffffffffffffffffffffffffffffff1916827bffffffffffffffffffffffffffffffffffffffffffffffffffffffff1916148061061657507f0e89341c000000000000000000000000000000000000000000000000000000007bffffffffffffffffffffffffffffffffffffffffffffffffffffffff1916827bffffffffffffffffffffffffffffffffffffffffffffffffffffffff1916145b80610626575061062582612225565b5b9050919050565b60606002805461063c90614311565b80601f016020809104026020016040519081016040528092919081815260200182805461066890614311565b80156106b55780601f1061068a576101008083540402835291602001916106b5565b820191906000526020600020905b81548152906001019060200180831161069857829003601f168201915b50505050509050919050565b60006106cb61228f565b73ffffffffffffffffffffffffffffffffffffffff166106e9611890565b73ffffffffffffffffffffffffffffffffffffffff161461073f576040517f08c379a000000000000000000000000000000000000000000000000000000000815260040161073690613f24565b60405180910390fd5b47905090565b61074d61228f565b73ffffffffffffffffffffffffffffffffffffffff168573ffffffffffffffffffffffffffffffffffffffff16148061079357506107928561078d61228f565b611ff8565b5b6107d2576040517f08c379a00000000000000000000000000000000000000000000000000000000081526004016107c990613ea4565b60405180910390fd5b6107df8585858585612297565b5050505050565b67011c37937e080000341015610831576040517f08c379a000000000000000000000000000000000000000000000000000000000815260040161082890613e64565b60405180910390fd5b6000600960003373ffffffffffffffffffffffffffffffffffffffff1673ffffffffffffffffffffffffffffffffffffffff16815260200190815260200160002054146108b3576040517f08c379a00000000000000000000000000000000000000000000000000000000081526004016108aa90613fa4565b60405180910390fd5b6000600854116108f8576040517f08c379a00000000000000000000000000000000000000000000000000000000081526004016108ef90613f44565b60405180910390fd5b3273ffffffffffffffffffffffffffffffffffffffff163373ffffffffffffffffffffffffffffffffffffffff1614610966576040517f08c379a000000000000000000000000000000000000000000000000000000000815260040161095d90613e44565b60405180910390fd5b6000600667ffffffffffffffff8111156109a9577f4e487b7100000000000000000000000000000000000000000000000000000000600052604160045260246000fd5b6040519080825280602002602001820160405280156109d75781602001602082028036833780820191505090505b509050600181600081518110610a16577f4e487b7100000000000000000000000000000000000000000000000000000000600052603260045260246000fd5b602002602001018181525050600181600181518110610a5e577f4e487b7100000000000000000000000000000000000000000000000000000000600052603260045260246000fd5b602002602001018181525050600181600281518110610aa6577f4e487b7100000000000000000000000000000000000000000000000000000000600052603260045260246000fd5b602002602001018181525050600181600381518110610aee577f4e487b7100000000000000000000000000000000000000000000000000000000600052603260045260246000fd5b602002602001018181525050600181600481518110610b36577f4e487b7100000000000000000000000000000000000000000000000000000000600052603260045260246000fd5b602002602001018181525050600381600581518110610b7e577f4e487b7100000000000000000000000000000000000000000000000000000000600052603260045260246000fd5b6020026020010181815250506000600667ffffffffffffffff811115610bcd577f4e487b7100000000000000000000000000000000000000000000000000000000600052604160045260246000fd5b604051908082528060200260200182016040528015610bfb5781602001602082028036833780820191505090505b50905060055481600081518110610c3b577f4e487b7100000000000000000000000000000000000000000000000000000000600052603260045260246000fd5b60200260200101818152505060056000815480929190610c5a90614374565b919050555060055481600181518110610c9c577f4e487b7100000000000000000000000000000000000000000000000000000000600052603260045260246000fd5b60200260200101818152505060056000815480929190610cbb90614374565b919050555060055481600281518110610cfd577f4e487b7100000000000000000000000000000000000000000000000000000000600052603260045260246000fd5b60200260200101818152505060056000815480929190610d1c90614374565b919050555060055481600381518110610d5e577f4e487b7100000000000000000000000000000000000000000000000000000000600052603260045260246000fd5b60200260200101818152505060056000815480929190610d7d90614374565b919050555060065481600481518110610dbf577f4e487b7100000000000000000000000000000000000000000000000000000000600052603260045260246000fd5b60200260200101818152505060066000815480929190610dde90614374565b9190505550600081600581518110610e1f577f4e487b7100000000000000000000000000000000000000000000000000000000600052603260045260246000fd5b602002602001018181525050600960003373ffffffffffffffffffffffffffffffffffffffff1673ffffffffffffffffffffffffffffffffffffffff1681526020019081526020016000206000815480929190610e7b90614374565b9190505550610e9b338284604051806020016040528060008152506125f7565b6003600454610eaa91906141fd565b60048190555060086000815480929190610ec3906142e7565b91905055505050565b60608151835114610f12576040517f08c379a0000000000000000000000000000000000000000000000000000000008152600401610f0990613fc4565b60405180910390fd5b6000835167ffffffffffffffff811115610f55577f4e487b7100000000000000000000000000000000000000000000000000000000600052604160045260246000fd5b604051908082528060200260200182016040528015610f835781602001602082028036833780820191505090505b50905060005b84518110156110725761101c858281518110610fce577f4e487b7100000000000000000000000000000000000000000000000000000000600052603260045260246000fd5b602002602001015185838151811061100f577f4e487b7100000000000000000000000000000000000000000000000000000000600052603260045260246000fd5b6020026020010151610482565b828281518110611055577f4e487b7100000000000000000000000000000000000000000000000000000000600052603260045260246000fd5b6020026020010181815250508061106b90614374565b9050610f89565b508091505092915050565b600061108761228f565b73ffffffffffffffffffffffffffffffffffffffff166110a5611890565b73ffffffffffffffffffffffffffffffffffffffff16146110fb576040517f08c379a00000000000000000000000000000000000000000000000000000000081526004016110f290613f24565b60405180910390fd5b600454905090565b61110b61228f565b73ffffffffffffffffffffffffffffffffffffffff16611129611890565b73ffffffffffffffffffffffffffffffffffffffff161461117f576040517f08c379a000000000000000000000000000000000000000000000000000000000815260040161117690613f24565b60405180910390fd5b600047116111c2576040517f08c379a00000000000000000000000000000000000000000000000000000000081526004016111b990613f64565b60405180910390fd5b3373ffffffffffffffffffffffffffffffffffffffff166108fc479081150290604051600060405180830381858888f19350505050158015611208573d6000803e3d6000fd5b50565b61121361228f565b73ffffffffffffffffffffffffffffffffffffffff16611231611890565b73ffffffffffffffffffffffffffffffffffffffff1614611287576040517f08c379a000000000000000000000000000000000000000000000000000000000815260040161127e90613f24565b60405180910390fd5b6112916000612861565b565b6000600367ffffffffffffffff8111156112d6577f4e487b7100000000000000000000000000000000000000000000000000000000600052604160045260246000fd5b6040519080825280602002602001820160405280156113045781602001602082028036833780820191505090505b5090506000600367ffffffffffffffff81111561134a577f4e487b7100000000000000000000000000000000000000000000000000000000600052604160045260246000fd5b6040519080825280602002602001820160405280156113785781602001602082028036833780820191505090505b5090506000600367ffffffffffffffff8111156113be577f4e487b7100000000000000000000000000000000000000000000000000000000600052604160045260246000fd5b6040519080825280602002602001820160405280156113ec5781602001602082028036833780820191505090505b509050338360008151811061142a577f4e487b7100000000000000000000000000000000000000000000000000000000600052603260045260246000fd5b602002602001019073ffffffffffffffffffffffffffffffffffffffff16908173ffffffffffffffffffffffffffffffffffffffff1681525050338360018151811061149f577f4e487b7100000000000000000000000000000000000000000000000000000000600052603260045260246000fd5b602002602001019073ffffffffffffffffffffffffffffffffffffffff16908173ffffffffffffffffffffffffffffffffffffffff16815250503383600281518110611514577f4e487b7100000000000000000000000000000000000000000000000000000000600052603260045260246000fd5b602002602001019073ffffffffffffffffffffffffffffffffffffffff16908173ffffffffffffffffffffffffffffffffffffffff16815250508582600081518110611589577f4e487b7100000000000000000000000000000000000000000000000000000000600052603260045260246000fd5b60200260200101818152505084826001815181106115d0577f4e487b7100000000000000000000000000000000000000000000000000000000600052603260045260246000fd5b602002602001018181525050600082600281518110611618577f4e487b7100000000000000000000000000000000000000000000000000000000600052603260045260246000fd5b60200260200101818152505061162e8383610ecc565b905060008160008151811061166c577f4e487b7100000000000000000000000000000000000000000000000000000000600052603260045260246000fd5b6020026020010151116116b4576040517f08c379a00000000000000000000000000000000000000000000000000000000081526004016116ab90613ee4565b60405180910390fd5b6000816001815181106116f0577f4e487b7100000000000000000000000000000000000000000000000000000000600052603260045260246000fd5b602002602001015111611738576040517f08c379a000000000000000000000000000000000000000000000000000000000815260040161172f90613ec4565b60405180910390fd5b600081600281518110611774577f4e487b7100000000000000000000000000000000000000000000000000000000600052603260045260246000fd5b6020026020010151116117bc576040517f08c379a00000000000000000000000000000000000000000000000000000000081526004016117b390614024565b60405180910390fd5b505050505050565b6117cc61228f565b73ffffffffffffffffffffffffffffffffffffffff166117ea611890565b73ffffffffffffffffffffffffffffffffffffffff1614611840576040517f08c379a000000000000000000000000000000000000000000000000000000000815260040161183790613f24565b60405180910390fd5b8060045461184e91906141a7565b6004819055507fe3d47dee33b959cc59941f840525125123544e1f194b235f340f0c6147697ac33382604051611885929190613cc5565b60405180910390a150565b6000600360009054906101000a900473ffffffffffffffffffffffffffffffffffffffff16905090565b60006118c461228f565b73ffffffffffffffffffffffffffffffffffffffff166118e2611890565b73ffffffffffffffffffffffffffffffffffffffff1614611938576040517f08c379a000000000000000000000000000000000000000000000000000000000815260040161192f90613f24565b60405180910390fd5b600854905090565b61195261194b61228f565b8383612927565b5050565b6000600960003373ffffffffffffffffffffffffffffffffffffffff1673ffffffffffffffffffffffffffffffffffffffff16815260200190815260200160002054905090565b6119a561228f565b73ffffffffffffffffffffffffffffffffffffffff166119c3611890565b73ffffffffffffffffffffffffffffffffffffffff1614611a19576040517f08c379a0000000000000000000000000000000000000000000000000000000008152600401611a1090613f24565b60405180910390fd5b600060075411611a5e576040517f08c379a0000000000000000000000000000000000000000000000000000000008152600401611a5590613e24565b60405180910390fd5b6000600667ffffffffffffffff811115611aa1577f4e487b7100000000000000000000000000000000000000000000000000000000600052604160045260246000fd5b604051908082528060200260200182016040528015611acf5781602001602082028036833780820191505090505b509050600181600081518110611b0e577f4e487b7100000000000000000000000000000000000000000000000000000000600052603260045260246000fd5b602002602001018181525050600181600181518110611b56577f4e487b7100000000000000000000000000000000000000000000000000000000600052603260045260246000fd5b602002602001018181525050600181600281518110611b9e577f4e487b7100000000000000000000000000000000000000000000000000000000600052603260045260246000fd5b602002602001018181525050600181600381518110611be6577f4e487b7100000000000000000000000000000000000000000000000000000000600052603260045260246000fd5b602002602001018181525050600181600481518110611c2e577f4e487b7100000000000000000000000000000000000000000000000000000000600052603260045260246000fd5b602002602001018181525050600381600581518110611c76577f4e487b7100000000000000000000000000000000000000000000000000000000600052603260045260246000fd5b6020026020010181815250506000600667ffffffffffffffff811115611cc5577f4e487b7100000000000000000000000000000000000000000000000000000000600052604160045260246000fd5b604051908082528060200260200182016040528015611cf35781602001602082028036833780820191505090505b50905060005b84849050811015611ff15760055482600081518110611d41577f4e487b7100000000000000000000000000000000000000000000000000000000600052603260045260246000fd5b60200260200101818152505060056000815480929190611d6090614374565b919050555060055482600181518110611da2577f4e487b7100000000000000000000000000000000000000000000000000000000600052603260045260246000fd5b60200260200101818152505060056000815480929190611dc190614374565b919050555060055482600281518110611e03577f4e487b7100000000000000000000000000000000000000000000000000000000600052603260045260246000fd5b60200260200101818152505060056000815480929190611e2290614374565b919050555060055482600381518110611e64577f4e487b7100000000000000000000000000000000000000000000000000000000600052603260045260246000fd5b60200260200101818152505060056000815480929190611e8390614374565b919050555060065482600481518110611ec5577f4e487b7100000000000000000000000000000000000000000000000000000000600052603260045260246000fd5b60200260200101818152505060066000815480929190611ee490614374565b9190505550600082600581518110611f25577f4e487b7100000000000000000000000000000000000000000000000000000000600052603260045260246000fd5b602002602001018181525050611f99858583818110611f6d577f4e487b7100000000000000000000000000000000000000000000000000000000600052603260045260246000fd5b9050602002016020810190611f82919061341c565b8385604051806020016040528060008152506125f7565b6003600454611fa891906141fd565b60048190555060076000815480929190611fc1906142e7565b919050555060086000815480929190611fd9906142e7565b91905055508080611fe990614374565b915050611cf9565b5050505050565b6000600160008473ffffffffffffffffffffffffffffffffffffffff1673ffffffffffffffffffffffffffffffffffffffff16815260200190815260200160002060008373ffffffffffffffffffffffffffffffffffffffff1673ffffffffffffffffffffffffffffffffffffffff16815260200190815260200160002060009054906101000a900460ff16905092915050565b61209461228f565b73ffffffffffffffffffffffffffffffffffffffff168573ffffffffffffffffffffffffffffffffffffffff1614806120da57506120d9856120d461228f565b611ff8565b5b612119576040517f08c379a000000000000000000000000000000000000000000000000000000000815260040161211090613e04565b60405180910390fd5b6121268585858585612a94565b5050505050565b61213561228f565b73ffffffffffffffffffffffffffffffffffffffff16612153611890565b73ffffffffffffffffffffffffffffffffffffffff16146121a9576040517f08c379a00000000000000000000000000000000000000000000000000000000081526004016121a090613f24565b60405180910390fd5b600073ffffffffffffffffffffffffffffffffffffffff168173ffffffffffffffffffffffffffffffffffffffff161415612219576040517f08c379a000000000000000000000000000000000000000000000000000000000815260040161221090613de4565b60405180910390fd5b61222281612861565b50565b60007f01ffc9a7000000000000000000000000000000000000000000000000000000007bffffffffffffffffffffffffffffffffffffffffffffffffffffffff1916827bffffffffffffffffffffffffffffffffffffffffffffffffffffffff1916149050919050565b600033905090565b81518351146122db576040517f08c379a00000000000000000000000000000000000000000000000000000000081526004016122d290613fe4565b60405180910390fd5b600073ffffffffffffffffffffffffffffffffffffffff168473ffffffffffffffffffffffffffffffffffffffff16141561234b576040517f08c379a000000000000000000000000000000000000000000000000000000000815260040161234290613e84565b60405180910390fd5b600061235561228f565b9050612365818787878787612d16565b60005b84518110156125625760008582815181106123ac577f4e487b7100000000000000000000000000000000000000000000000000000000600052603260045260246000fd5b6020026020010151905060008583815181106123f1577f4e487b7100000000000000000000000000000000000000000000000000000000600052603260045260246000fd5b60200260200101519050600080600084815260200190815260200160002060008b73ffffffffffffffffffffffffffffffffffffffff1673ffffffffffffffffffffffffffffffffffffffff16815260200190815260200160002054905081811015612492576040517f08c379a000000000000000000000000000000000000000000000000000000000815260040161248990613f04565b60405180910390fd5b81810360008085815260200190815260200160002060008c73ffffffffffffffffffffffffffffffffffffffff1673ffffffffffffffffffffffffffffffffffffffff168152602001908152602001600020819055508160008085815260200190815260200160002060008b73ffffffffffffffffffffffffffffffffffffffff1673ffffffffffffffffffffffffffffffffffffffff168152602001908152602001600020600082825461254791906141a7565b925050819055505050508061255b90614374565b9050612368565b508473ffffffffffffffffffffffffffffffffffffffff168673ffffffffffffffffffffffffffffffffffffffff168273ffffffffffffffffffffffffffffffffffffffff167f4a39dc06d4c0dbc64b70af90fd698a233a518aa5d07e595d983b8c0526c8f7fb87876040516125d9929190613d10565b60405180910390a46125ef818787878787612d1e565b505050505050565b600073ffffffffffffffffffffffffffffffffffffffff168473ffffffffffffffffffffffffffffffffffffffff161415612667576040517f08c379a000000000000000000000000000000000000000000000000000000000815260040161265e90614004565b60405180910390fd5b81518351146126ab576040517f08c379a00000000000000000000000000000000000000000000000000000000081526004016126a290613fe4565b60405180910390fd5b60006126b561228f565b90506126c681600087878787612d16565b60005b84518110156127cb5783818151811061270b577f4e487b7100000000000000000000000000000000000000000000000000000000600052603260045260246000fd5b602002602001015160008087848151811061274f577f4e487b7100000000000000000000000000000000000000000000000000000000600052603260045260246000fd5b6020026020010151815260200190815260200160002060008873ffffffffffffffffffffffffffffffffffffffff1673ffffffffffffffffffffffffffffffffffffffff16815260200190815260200160002060008282546127b191906141a7565b9250508190555080806127c390614374565b9150506126c9565b508473ffffffffffffffffffffffffffffffffffffffff16600073ffffffffffffffffffffffffffffffffffffffff168273ffffffffffffffffffffffffffffffffffffffff167f4a39dc06d4c0dbc64b70af90fd698a233a518aa5d07e595d983b8c0526c8f7fb8787604051612843929190613d10565b60405180910390a461285a81600087878787612d1e565b5050505050565b6000600360009054906101000a900473ffffffffffffffffffffffffffffffffffffffff16905081600360006101000a81548173ffffffffffffffffffffffffffffffffffffffff021916908373ffffffffffffffffffffffffffffffffffffffff1602179055508173ffffffffffffffffffffffffffffffffffffffff168173ffffffffffffffffffffffffffffffffffffffff167f8be0079c531659141344cd1fd0a4f28419497f9722a3daafe3b4186f6b6457e060405160405180910390a35050565b8173ffffffffffffffffffffffffffffffffffffffff168373ffffffffffffffffffffffffffffffffffffffff161415612996576040517f08c379a000000000000000000000000000000000000000000000000000000000815260040161298d90613f84565b60405180910390fd5b80600160008573ffffffffffffffffffffffffffffffffffffffff1673ffffffffffffffffffffffffffffffffffffffff16815260200190815260200160002060008473ffffffffffffffffffffffffffffffffffffffff1673ffffffffffffffffffffffffffffffffffffffff16815260200190815260200160002060006101000a81548160ff0219169083151502179055508173ffffffffffffffffffffffffffffffffffffffff168373ffffffffffffffffffffffffffffffffffffffff167f17307eab39ab6107e8899845ad3d59bd9653f200f220920489ca2b5937696c3183604051612a879190613d47565b60405180910390a3505050565b600073ffffffffffffffffffffffffffffffffffffffff168473ffffffffffffffffffffffffffffffffffffffff161415612b04576040517f08c379a0000000000000000000000000000000000000000000000000000000008152600401612afb90613e84565b60405180910390fd5b6000612b0e61228f565b9050612b2e818787612b1f88612f05565b612b2888612f05565b87612d16565b600080600086815260200190815260200160002060008873ffffffffffffffffffffffffffffffffffffffff1673ffffffffffffffffffffffffffffffffffffffff16815260200190815260200160002054905083811015612bc5576040517f08c379a0000000000000000000000000000000000000000000000000000000008152600401612bbc90613f04565b60405180910390fd5b83810360008087815260200190815260200160002060008973ffffffffffffffffffffffffffffffffffffffff1673ffffffffffffffffffffffffffffffffffffffff168152602001908152602001600020819055508360008087815260200190815260200160002060008873ffffffffffffffffffffffffffffffffffffffff1673ffffffffffffffffffffffffffffffffffffffff1681526020019081526020016000206000828254612c7a91906141a7565b925050819055508573ffffffffffffffffffffffffffffffffffffffff168773ffffffffffffffffffffffffffffffffffffffff168373ffffffffffffffffffffffffffffffffffffffff167fc3d58168c5ae7397731d063d5bbf3d657854427343f4c083240f7aacaa2d0f628888604051612cf792919061405f565b60405180910390a4612d0d828888888888612fcb565b50505050505050565b505050505050565b612d3d8473ffffffffffffffffffffffffffffffffffffffff166131b2565b15612efd578373ffffffffffffffffffffffffffffffffffffffff1663bc197c8187878686866040518663ffffffff1660e01b8152600401612d83959493929190613c03565b602060405180830381600087803b158015612d9d57600080fd5b505af1925050508015612dce57506040513d601f19601f82011682018060405250810190612dcb9190613721565b60015b612e7457612dda61444a565b806308c379a01415612e375750612def614a96565b80612dfa5750612e39565b806040517f08c379a0000000000000000000000000000000000000000000000000000000008152600401612e2e9190613d62565b60405180910390fd5b505b6040517f08c379a0000000000000000000000000000000000000000000000000000000008152600401612e6b90613d84565b60405180910390fd5b63bc197c8160e01b7bffffffffffffffffffffffffffffffffffffffffffffffffffffffff1916817bffffffffffffffffffffffffffffffffffffffffffffffffffffffff191614612efb576040517f08c379a0000000000000000000000000000000000000000000000000000000008152600401612ef290613da4565b60405180910390fd5b505b505050505050565b60606000600167ffffffffffffffff811115612f4a577f4e487b7100000000000000000000000000000000000000000000000000000000600052604160045260246000fd5b604051908082528060200260200182016040528015612f785781602001602082028036833780820191505090505b5090508281600081518110612fb6577f4e487b7100000000000000000000000000000000000000000000000000000000600052603260045260246000fd5b60200260200101818152505080915050919050565b612fea8473ffffffffffffffffffffffffffffffffffffffff166131b2565b156131aa578373ffffffffffffffffffffffffffffffffffffffff1663f23a6e6187878686866040518663ffffffff1660e01b8152600401613030959493929190613c6b565b602060405180830381600087803b15801561304a57600080fd5b505af192505050801561307b57506040513d601f19601f820116820180604052508101906130789190613721565b60015b6131215761308761444a565b806308c379a014156130e4575061309c614a96565b806130a757506130e6565b806040517f08c379a00000000000000000000000000000000000000000000000000000000081526004016130db9190613d62565b60405180910390fd5b505b6040517f08c379a000000000000000000000000000000000000000000000000000000000815260040161311890613d84565b60405180910390fd5b63f23a6e6160e01b7bffffffffffffffffffffffffffffffffffffffffffffffffffffffff1916817bffffffffffffffffffffffffffffffffffffffffffffffffffffffff1916146131a8576040517f08c379a000000000000000000000000000000000000000000000000000000000815260040161319f90613da4565b60405180910390fd5b505b505050505050565b6000808273ffffffffffffffffffffffffffffffffffffffff163b119050919050565b60006131e86131e3846140ad565b614088565b9050808382526020820190508285602086028201111561320757600080fd5b60005b85811015613237578161321d88826132eb565b84526020840193506020830192505060018101905061320a565b5050509392505050565b600061325461324f846140d9565b614088565b9050808382526020820190508285602086028201111561327357600080fd5b60005b858110156132a357816132898882613407565b845260208401935060208301925050600181019050613276565b5050509392505050565b60006132c06132bb84614105565b614088565b9050828152602081018484840111156132d857600080fd5b6132e38482856142a5565b509392505050565b6000813590506132fa81614b2c565b92915050565b60008083601f84011261331257600080fd5b8235905067ffffffffffffffff81111561332b57600080fd5b60208301915083602082028301111561334357600080fd5b9250929050565b600082601f83011261335b57600080fd5b813561336b8482602086016131d5565b91505092915050565b600082601f83011261338557600080fd5b8135613395848260208601613241565b91505092915050565b6000813590506133ad81614b43565b92915050565b6000813590506133c281614b5a565b92915050565b6000815190506133d781614b5a565b92915050565b600082601f8301126133ee57600080fd5b81356133fe8482602086016132ad565b91505092915050565b60008135905061341681614b71565b92915050565b60006020828403121561342e57600080fd5b600061343c848285016132eb565b91505092915050565b6000806040838503121561345857600080fd5b6000613466858286016132eb565b9250506020613477858286016132eb565b9150509250929050565b600080600080600060a0868803121561349957600080fd5b60006134a7888289016132eb565b95505060206134b8888289016132eb565b945050604086013567ffffffffffffffff8111156134d557600080fd5b6134e188828901613374565b935050606086013567ffffffffffffffff8111156134fe57600080fd5b61350a88828901613374565b925050608086013567ffffffffffffffff81111561352757600080fd5b613533888289016133dd565b9150509295509295909350565b600080600080600060a0868803121561355857600080fd5b6000613566888289016132eb565b9550506020613577888289016132eb565b945050604061358888828901613407565b935050606061359988828901613407565b925050608086013567ffffffffffffffff8111156135b657600080fd5b6135c2888289016133dd565b9150509295509295909350565b600080604083850312156135e257600080fd5b60006135f0858286016132eb565b92505060206136018582860161339e565b9150509250929050565b6000806040838503121561361e57600080fd5b600061362c858286016132eb565b925050602061363d85828601613407565b9150509250929050565b6000806020838503121561365a57600080fd5b600083013567ffffffffffffffff81111561367457600080fd5b61368085828601613300565b92509250509250929050565b6000806040838503121561369f57600080fd5b600083013567ffffffffffffffff8111156136b957600080fd5b6136c58582860161334a565b925050602083013567ffffffffffffffff8111156136e257600080fd5b6136ee85828601613374565b9150509250929050565b60006020828403121561370a57600080fd5b6000613718848285016133b3565b91505092915050565b60006020828403121561373357600080fd5b6000613741848285016133c8565b91505092915050565b60006020828403121561375c57600080fd5b600061376a84828501613407565b91505092915050565b60008060006060848603121561378857600080fd5b600061379686828701613407565b93505060206137a786828701613407565b92505060406137b886828701613407565b9150509250925092565b60006137ce8383613bca565b60208301905092915050565b6137e381614231565b82525050565b60006137f482614146565b6137fe8185614174565b935061380983614136565b8060005b8381101561383a57815161382188826137c2565b975061382c83614167565b92505060018101905061380d565b5085935050505092915050565b61385081614243565b82525050565b600061386182614151565b61386b8185614185565b935061387b8185602086016142b4565b6138848161446c565b840191505092915050565b600061389a8261415c565b6138a48185614196565b93506138b48185602086016142b4565b6138bd8161446c565b840191505092915050565b60006138d5603483614196565b91506138e08261448a565b604082019050919050565b60006138f8602883614196565b9150613903826144d9565b604082019050919050565b600061391b602b83614196565b915061392682614528565b604082019050919050565b600061393e602683614196565b915061394982614577565b604082019050919050565b6000613961602983614196565b915061396c826145c6565b604082019050919050565b6000613984601183614196565b915061398f82614615565b602082019050919050565b60006139a7602583614196565b91506139b28261463e565b604082019050919050565b60006139ca602883614196565b91506139d58261468d565b604082019050919050565b60006139ed602583614196565b91506139f8826146dc565b604082019050919050565b6000613a10603283614196565b9150613a1b8261472b565b604082019050919050565b6000613a33602183614196565b9150613a3e8261477a565b604082019050919050565b6000613a56601d83614196565b9150613a61826147c9565b602082019050919050565b6000613a79602a83614196565b9150613a84826147f2565b604082019050919050565b6000613a9c602083614196565b9150613aa782614841565b602082019050919050565b6000613abf601c83614196565b9150613aca8261486a565b602082019050919050565b6000613ae2601483614196565b9150613aed82614893565b602082019050919050565b6000613b05602983614196565b9150613b10826148bc565b604082019050919050565b6000613b28603383614196565b9150613b338261490b565b604082019050919050565b6000613b4b602983614196565b9150613b568261495a565b604082019050919050565b6000613b6e602883614196565b9150613b79826149a9565b604082019050919050565b6000613b91602183614196565b9150613b9c826149f8565b604082019050919050565b6000613bb4602583614196565b9150613bbf82614a47565b604082019050919050565b613bd38161429b565b82525050565b613be28161429b565b82525050565b6000602082019050613bfd60008301846137da565b92915050565b600060a082019050613c1860008301886137da565b613c2560208301876137da565b8181036040830152613c3781866137e9565b90508181036060830152613c4b81856137e9565b90508181036080830152613c5f8184613856565b90509695505050505050565b600060a082019050613c8060008301886137da565b613c8d60208301876137da565b613c9a6040830186613bd9565b613ca76060830185613bd9565b8181036080830152613cb98184613856565b90509695505050505050565b6000604082019050613cda60008301856137da565b613ce76020830184613bd9565b9392505050565b60006020820190508181036000830152613d0881846137e9565b905092915050565b60006040820190508181036000830152613d2a81856137e9565b90508181036020830152613d3e81846137e9565b90509392505050565b6000602082019050613d5c6000830184613847565b92915050565b60006020820190508181036000830152613d7c818461388f565b905092915050565b60006020820190508181036000830152613d9d816138c8565b9050919050565b60006020820190508181036000830152613dbd816138eb565b9050919050565b60006020820190508181036000830152613ddd8161390e565b9050919050565b60006020820190508181036000830152613dfd81613931565b9050919050565b60006020820190508181036000830152613e1d81613954565b9050919050565b60006020820190508181036000830152613e3d81613977565b9050919050565b60006020820190508181036000830152613e5d8161399a565b9050919050565b60006020820190508181036000830152613e7d816139bd565b9050919050565b60006020820190508181036000830152613e9d816139e0565b9050919050565b60006020820190508181036000830152613ebd81613a03565b9050919050565b60006020820190508181036000830152613edd81613a26565b9050919050565b60006020820190508181036000830152613efd81613a49565b9050919050565b60006020820190508181036000830152613f1d81613a6c565b9050919050565b60006020820190508181036000830152613f3d81613a8f565b9050919050565b60006020820190508181036000830152613f5d81613ab2565b9050919050565b60006020820190508181036000830152613f7d81613ad5565b9050919050565b60006020820190508181036000830152613f9d81613af8565b9050919050565b60006020820190508181036000830152613fbd81613b1b565b9050919050565b60006020820190508181036000830152613fdd81613b3e565b9050919050565b60006020820190508181036000830152613ffd81613b61565b9050919050565b6000602082019050818103600083015261401d81613b84565b9050919050565b6000602082019050818103600083015261403d81613ba7565b9050919050565b60006020820190506140596000830184613bd9565b92915050565b60006040820190506140746000830185613bd9565b6140816020830184613bd9565b9392505050565b60006140926140a3565b905061409e8282614343565b919050565b6000604051905090565b600067ffffffffffffffff8211156140c8576140c761441b565b5b602082029050602081019050919050565b600067ffffffffffffffff8211156140f4576140f361441b565b5b602082029050602081019050919050565b600067ffffffffffffffff8211156141205761411f61441b565b5b6141298261446c565b9050602081019050919050565b6000819050602082019050919050565b600081519050919050565b600081519050919050565b600081519050919050565b6000602082019050919050565b600082825260208201905092915050565b600082825260208201905092915050565b600082825260208201905092915050565b60006141b28261429b565b91506141bd8361429b565b9250827fffffffffffffffffffffffffffffffffffffffffffffffffffffffffffffffff038211156141f2576141f16143bd565b5b828201905092915050565b60006142088261429b565b91506142138361429b565b925082821015614226576142256143bd565b5b828203905092915050565b600061423c8261427b565b9050919050565b60008115159050919050565b60007fffffffff0000000000000000000000000000000000000000000000000000000082169050919050565b600073ffffffffffffffffffffffffffffffffffffffff82169050919050565b6000819050919050565b82818337600083830152505050565b60005b838110156142d25780820151818401526020810190506142b7565b838111156142e1576000848401525b50505050565b60006142f28261429b565b91506000821415614306576143056143bd565b5b600182039050919050565b6000600282049050600182168061432957607f821691505b6020821081141561433d5761433c6143ec565b5b50919050565b61434c8261446c565b810181811067ffffffffffffffff8211171561436b5761436a61441b565b5b80604052505050565b600061437f8261429b565b91507fffffffffffffffffffffffffffffffffffffffffffffffffffffffffffffffff8214156143b2576143b16143bd565b5b600182019050919050565b7f4e487b7100000000000000000000000000000000000000000000000000000000600052601160045260246000fd5b7f4e487b7100000000000000000000000000000000000000000000000000000000600052602260045260246000fd5b7f4e487b7100000000000000000000000000000000000000000000000000000000600052604160045260246000fd5b600060033d11156144695760046000803e61446660005161447d565b90505b90565b6000601f19601f8301169050919050565b60008160e01c9050919050565b7f455243313135353a207472616e7366657220746f206e6f6e204552433131353560008201527f526563656976657220696d706c656d656e746572000000000000000000000000602082015250565b7f455243313135353a204552433131353552656365697665722072656a6563746560008201527f6420746f6b656e73000000000000000000000000000000000000000000000000602082015250565b7f455243313135353a2062616c616e636520717565727920666f7220746865207a60008201527f65726f2061646472657373000000000000000000000000000000000000000000602082015250565b7f4f776e61626c653a206e6577206f776e657220697320746865207a65726f206160008201527f6464726573730000000000000000000000000000000000000000000000000000602082015250565b7f455243313135353a2063616c6c6572206973206e6f74206f776e6572206e6f7260008201527f20617070726f7665640000000000000000000000000000000000000000000000602082015250565b7f4f7574206f66204769766561776179732e000000000000000000000000000000600082015250565b7f436f6e74726163742063616c6c732063616e6e6f74206d696e74206f7572207360008201527f7570706c79000000000000000000000000000000000000000000000000000000602082015250565b7f4e6f7420656e6f75676820657468657220696e206163636f756e7420746f207460008201527f72616e736163742e000000000000000000000000000000000000000000000000602082015250565b7f455243313135353a207472616e7366657220746f20746865207a65726f20616460008201527f6472657373000000000000000000000000000000000000000000000000000000602082015250565b7f455243313135353a207472616e736665722063616c6c6572206973206e6f742060008201527f6f776e6572206e6f7220617070726f7665640000000000000000000000000000602082015250565b7f596f7520646f206e6f74206f776e2074686520666f7572496e4f6e65546f6b6560008201527f6e00000000000000000000000000000000000000000000000000000000000000602082015250565b7f596f7520646f206e6f74206f776e20746865206672756974746f6b656e000000600082015250565b7f455243313135353a20696e73756666696369656e742062616c616e636520666f60008201527f72207472616e7366657200000000000000000000000000000000000000000000602082015250565b7f4f776e61626c653a2063616c6c6572206973206e6f7420746865206f776e6572600082015250565b7f416c6c20426174636865732068617665206265656e206d696e74656400000000600082015250565b7f4e6f20657468657220696e20636f6e7472616374000000000000000000000000600082015250565b7f455243313135353a2073657474696e6720617070726f76616c2073746174757360008201527f20666f722073656c660000000000000000000000000000000000000000000000602082015250565b7f43616e6e6f74207075726368617365206d6f7265207468616e206f6e6520626160008201527f746368206d696e74207065722077616c6c657400000000000000000000000000602082015250565b7f455243313135353a206163636f756e747320616e6420696473206c656e67746860008201527f206d69736d617463680000000000000000000000000000000000000000000000602082015250565b7f455243313135353a2069647320616e6420616d6f756e7473206c656e6774682060008201527f6d69736d61746368000000000000000000000000000000000000000000000000602082015250565b7f455243313135353a206d696e7420746f20746865207a65726f2061646472657360008201527f7300000000000000000000000000000000000000000000000000000000000000602082015250565b7f596f7520646f206e6f74206f776e2061207265636569707420666f722065786360008201527f68616e6765000000000000000000000000000000000000000000000000000000602082015250565b600060443d1015614aa657614b29565b614aae6140a3565b60043d036004823e80513d602482011167ffffffffffffffff82111715614ad6575050614b29565b808201805167ffffffffffffffff811115614af45750505050614b29565b80602083010160043d038501811115614b11575050505050614b29565b614b2082602001850186614343565b82955050505050505b90565b614b3581614231565b8114614b4057600080fd5b50565b614b4c81614243565b8114614b5757600080fd5b50565b614b638161424f565b8114614b6e57600080fd5b50565b614b7a8161429b565b8114614b8557600080fd5b5056fea264697066735822122096f39fd2c10db88eec2ca8805fe8d5177d255a389e6dfa99aa19086d4852a8bf64736f6c63430008040033",
  "linkReferences": {},
  "deployedLinkReferences": {}
}