{
  "_format": "hh-sol-artifact-1",
  "contractName": "DemoDapp",
  "sourceName": "contracts/DemoDapp.sol",
  "abi": [
    {
      "inputs": [
        {
          "internalType": "string",
          "name": "uri",
          "type": "string"
        }
      ],
      "stateMutability": "nonpayable",
      "type": "constructor"
    },
    {
      "anonymous": false,
      "inputs": [
        {
          "indexed": true,
          "internalType": "address",
          "name": "account",
          "type": "address"
        },
        {
          "indexed": true,
          "internalType": "address",
          "name": "operator",
          "type": "address"
        },
        {
          "indexed": false,
          "internalType": "bool",
          "name": "approved",
          "type": "bool"
        }
      ],
      "name": "ApprovalForAll",
      "type": "event"
    },
    {
      "anonymous": false,
      "inputs": [
        {
          "indexed": false,
          "internalType": "address",
          "name": "_sender",
          "type": "address"
        },
        {
          "indexed": false,
          "internalType": "uint256",
          "name": "_supply",
          "type": "uint256"
        }
      ],
      "name": "IncreaseReceiptSupply",
      "type": "event"
    },
    {
      "anonymous": false,
      "inputs": [
        {
          "indexed": true,
          "internalType": "address",
          "name": "previousOwner",
          "type": "address"
        },
        {
          "indexed": true,
          "internalType": "address",
          "name": "newOwner",
          "type": "address"
        }
      ],
      "name": "OwnershipTransferred",
      "type": "event"
    },
    {
      "anonymous": false,
      "inputs": [
        {
          "indexed": true,
          "internalType": "address",
          "name": "operator",
          "type": "address"
        },
        {
          "indexed": true,
          "internalType": "address",
          "name": "from",
          "type": "address"
        },
        {
          "indexed": true,
          "internalType": "address",
          "name": "to",
          "type": "address"
        },
        {
          "indexed": false,
          "internalType": "uint256[]",
          "name": "ids",
          "type": "uint256[]"
        },
        {
          "indexed": false,
          "internalType": "uint256[]",
          "name": "values",
          "type": "uint256[]"
        }
      ],
      "name": "TransferBatch",
      "type": "event"
    },
    {
      "anonymous": false,
      "inputs": [
        {
          "indexed": true,
          "internalType": "address",
          "name": "operator",
          "type": "address"
        },
        {
          "indexed": true,
          "internalType": "address",
          "name": "from",
          "type": "address"
        },
        {
          "indexed": true,
          "internalType": "address",
          "name": "to",
          "type": "address"
        },
        {
          "indexed": false,
          "internalType": "uint256",
          "name": "id",
          "type": "uint256"
        },
        {
          "indexed": false,
          "internalType": "uint256",
          "name": "value",
          "type": "uint256"
        }
      ],
      "name": "TransferSingle",
      "type": "event"
    },
    {
      "anonymous": false,
      "inputs": [
        {
          "indexed": false,
          "internalType": "string",
          "name": "value",
          "type": "string"
        },
        {
          "indexed": true,
          "internalType": "uint256",
          "name": "id",
          "type": "uint256"
        }
      ],
      "name": "URI",
      "type": "event"
    },
    {
      "inputs": [
        {
          "internalType": "address",
          "name": "account",
          "type": "address"
        },
        {
          "internalType": "uint256",
          "name": "id",
          "type": "uint256"
        }
      ],
      "name": "balanceOf",
      "outputs": [
        {
          "internalType": "uint256",
          "name": "",
          "type": "uint256"
        }
      ],
      "stateMutability": "view",
      "type": "function"
    },
    {
      "inputs": [
        {
          "internalType": "address[]",
          "name": "accounts",
          "type": "address[]"
        },
        {
          "internalType": "uint256[]",
          "name": "ids",
          "type": "uint256[]"
        }
      ],
      "name": "balanceOfBatch",
      "outputs": [
        {
          "internalType": "uint256[]",
          "name": "",
          "type": "uint256[]"
        }
      ],
      "stateMutability": "view",
      "type": "function"
    },
    {
      "inputs": [],
      "name": "getBalanceOfContract",
      "outputs": [
        {
          "internalType": "uint256",
          "name": "",
          "type": "uint256"
        }
      ],
      "stateMutability": "view",
      "type": "function"
    },
    {
      "inputs": [],
      "name": "getBatchSupply",
      "outputs": [
        {
          "internalType": "uint256",
          "name": "",
          "type": "uint256"
        }
      ],
      "stateMutability": "view",
      "type": "function"
    },
    {
      "inputs": [],
      "name": "getBundleBalance",
      "outputs": [
        {
          "internalType": "uint256",
          "name": "",
          "type": "uint256"
        }
      ],
      "stateMutability": "view",
      "type": "function"
    },
    {
      "inputs": [],
      "name": "getReceiptSupply",
      "outputs": [
        {
          "internalType": "uint256",
          "name": "",
          "type": "uint256"
        }
      ],
      "stateMutability": "view",
      "type": "function"
    },
    {
      "inputs": [
        {
          "internalType": "address",
          "name": "_to",
          "type": "address"
        }
      ],
      "name": "giveawayMintBatch",
      "outputs": [],
      "stateMutability": "nonpayable",
      "type": "function"
    },
    {
      "inputs": [
        {
          "internalType": "uint256",
          "name": "_supply",
          "type": "uint256"
        }
      ],
      "name": "increaseReceiptSupply",
      "outputs": [],
      "stateMutability": "nonpayable",
      "type": "function"
    },
    {
      "inputs": [
        {
          "internalType": "address",
          "name": "account",
          "type": "address"
        },
        {
          "internalType": "address",
          "name": "operator",
          "type": "address"
        }
      ],
      "name": "isApprovedForAll",
      "outputs": [
        {
          "internalType": "bool",
          "name": "",
          "type": "bool"
        }
      ],
      "stateMutability": "view",
      "type": "function"
    },
    {
      "inputs": [],
      "name": "mintBundle",
      "outputs": [],
      "stateMutability": "payable",
      "type": "function"
    },
    {
      "inputs": [],
      "name": "owner",
      "outputs": [
        {
          "internalType": "address",
          "name": "",
          "type": "address"
        }
      ],
      "stateMutability": "view",
      "type": "function"
    },
    {
      "inputs": [],
      "name": "renounceOwnership",
      "outputs": [],
      "stateMutability": "nonpayable",
      "type": "function"
    },
    {
      "inputs": [
        {
          "internalType": "address",
          "name": "from",
          "type": "address"
        },
        {
          "internalType": "address",
          "name": "to",
          "type": "address"
        },
        {
          "internalType": "uint256[]",
          "name": "ids",
          "type": "uint256[]"
        },
        {
          "internalType": "uint256[]",
          "name": "amounts",
          "type": "uint256[]"
        },
        {
          "internalType": "bytes",
          "name": "data",
          "type": "bytes"
        }
      ],
      "name": "safeBatchTransferFrom",
      "outputs": [],
      "stateMutability": "nonpayable",
      "type": "function"
    },
    {
      "inputs": [
        {
          "internalType": "address",
          "name": "from",
          "type": "address"
        },
        {
          "internalType": "address",
          "name": "to",
          "type": "address"
        },
        {
          "internalType": "uint256",
          "name": "id",
          "type": "uint256"
        },
        {
          "internalType": "uint256",
          "name": "amount",
          "type": "uint256"
        },
        {
          "internalType": "bytes",
          "name": "data",
          "type": "bytes"
        }
      ],
      "name": "safeTransferFrom",
      "outputs": [],
      "stateMutability": "nonpayable",
      "type": "function"
    },
    {
      "inputs": [
        {
          "internalType": "address",
          "name": "operator",
          "type": "address"
        },
        {
          "internalType": "bool",
          "name": "approved",
          "type": "bool"
        }
      ],
      "name": "setApprovalForAll",
      "outputs": [],
      "stateMutability": "nonpayable",
      "type": "function"
    },
    {
      "inputs": [
        {
          "internalType": "bytes4",
          "name": "interfaceId",
          "type": "bytes4"
        }
      ],
      "name": "supportsInterface",
      "outputs": [
        {
          "internalType": "bool",
          "name": "",
          "type": "bool"
        }
      ],
      "stateMutability": "view",
      "type": "function"
    },
    {
      "inputs": [
        {
          "internalType": "address",
          "name": "newOwner",
          "type": "address"
        }
      ],
      "name": "transferOwnership",
      "outputs": [],
      "stateMutability": "nonpayable",
      "type": "function"
    },
    {
      "inputs": [
        {
          "internalType": "uint256",
          "name": "",
          "type": "uint256"
        }
      ],
      "name": "uri",
      "outputs": [
        {
          "internalType": "string",
          "name": "",
          "type": "string"
        }
      ],
      "stateMutability": "view",
      "type": "function"
    },
    {
      "inputs": [],
      "name": "withdrawBalance",
      "outputs": [],
      "stateMutability": "nonpayable",
      "type": "function"
    }
  ],
  "bytecode": "0x6080604052610bb86004556001600555620186a160065560fa6007556007546103e86200002d919062000454565b6008556040518060c00160405280600160ff168152602001600160ff168152602001600160ff168152602001600160ff168152602001600160ff168152602001600360ff1681525060099060066200008792919062000237565b506040518060c00160405280600060ff168152602001600060ff168152602001600060ff168152602001600060ff168152602001600060ff168152602001600060ff16815250600a906006620000df92919062000237565b50348015620000ed57600080fd5b506040516200457c3803806200457c8339818101604052810190620001139190620003b0565b8062000125816200014d60201b60201c565b50620001466200013a6200016960201b60201c565b6200017160201b60201c565b50620005d9565b8060029080519060200190620001659291906200028e565b5050565b600033905090565b6000600360009054906101000a900473ffffffffffffffffffffffffffffffffffffffff16905081600360006101000a81548173ffffffffffffffffffffffffffffffffffffffff021916908373ffffffffffffffffffffffffffffffffffffffff1602179055508173ffffffffffffffffffffffffffffffffffffffff168173ffffffffffffffffffffffffffffffffffffffff167f8be0079c531659141344cd1fd0a4f28419497f9722a3daafe3b4186f6b6457e060405160405180910390a35050565b8280548282559060005260206000209081019282156200027b579160200282015b828111156200027a578251829060ff1690559160200191906001019062000258565b5b5090506200028a91906200031f565b5090565b8280546200029c90620004cf565b90600052602060002090601f016020900481019282620002c057600085556200030c565b82601f10620002db57805160ff19168380011785556200030c565b828001600101855582156200030c579182015b828111156200030b578251825591602001919060010190620002ee565b5b5090506200031b91906200031f565b5090565b5b808211156200033a57600081600090555060010162000320565b5090565b6000620003556200034f846200041e565b620003f5565b9050828152602081018484840111156200036e57600080fd5b6200037b84828562000499565b509392505050565b600082601f8301126200039557600080fd5b8151620003a78482602086016200033e565b91505092915050565b600060208284031215620003c357600080fd5b600082015167ffffffffffffffff811115620003de57600080fd5b620003ec8482850162000383565b91505092915050565b60006200040162000414565b90506200040f828262000505565b919050565b6000604051905090565b600067ffffffffffffffff8211156200043c576200043b62000599565b5b6200044782620005c8565b9050602081019050919050565b600062000461826200048f565b91506200046e836200048f565b9250828210156200048457620004836200053b565b5b828203905092915050565b6000819050919050565b60005b83811015620004b95780820151818401526020810190506200049c565b83811115620004c9576000848401525b50505050565b60006002820490506001821680620004e857607f821691505b60208210811415620004ff57620004fe6200056a565b5b50919050565b6200051082620005c8565b810181811067ffffffffffffffff8211171562000532576200053162000599565b5b80604052505050565b7f4e487b7100000000000000000000000000000000000000000000000000000000600052601160045260246000fd5b7f4e487b7100000000000000000000000000000000000000000000000000000000600052602260045260246000fd5b7f4e487b7100000000000000000000000000000000000000000000000000000000600052604160045260246000fd5b6000601f19601f8301169050919050565b613f9380620005e96000396000f3fe6080604052600436106101135760003560e01c80635fd8c710116100a0578063a22cb46511610064578063a22cb4651461036b578063b08504e914610394578063e985e9c5146103bf578063f242432a146103fc578063f2fde38b1461042557610113565b80635fd8c710146102be578063715018a6146102d557806383fc3067146102ec5780638da5cb5b14610315578063918c732a1461034057610113565b806322968885116100e757806322968885146101f85780632eb2c2d614610223578063410404b71461024c5780634e1273f4146102565780635f4c5b251461029357610113565b8062fdd58e1461011857806301ffc9a7146101555780630e89341c14610192578063170503a5146101cf575b600080fd5b34801561012457600080fd5b5061013f600480360381019061013a9190612c04565b61044e565b60405161014c91906134e0565b60405180910390f35b34801561016157600080fd5b5061017c60048036038101906101779190612cac565b610517565b6040516101899190613243565b60405180910390f35b34801561019e57600080fd5b506101b960048036038101906101b49190612cfe565b6105f9565b6040516101c6919061325e565b60405180910390f35b3480156101db57600080fd5b506101f660048036038101906101f19190612a15565b61068d565b005b34801561020457600080fd5b5061020d610a84565b60405161021a91906134e0565b60405180910390f35b34801561022f57600080fd5b5061024a60048036038101906102459190612a7a565b610b08565b005b610254610ba9565b005b34801561026257600080fd5b5061027d60048036038101906102789190612c40565b61109b565b60405161028a91906131ea565b60405180910390f35b34801561029f57600080fd5b506102a861124c565b6040516102b591906134e0565b60405180910390f35b3480156102ca57600080fd5b506102d36112d2565b005b3480156102e157600080fd5b506102ea6113da565b005b3480156102f857600080fd5b50610313600480360381019061030e9190612cfe565b611462565b005b34801561032157600080fd5b5061032a61152e565b60405161033791906130e4565b60405180910390f35b34801561034c57600080fd5b50610355611558565b60405161036291906134e0565b60405180910390f35b34801561037757600080fd5b50610392600480360381019061038d9190612bc8565b6115de565b005b3480156103a057600080fd5b506103a96115f4565b6040516103b691906134e0565b60405180910390f35b3480156103cb57600080fd5b506103e660048036038101906103e19190612a3e565b61163b565b6040516103f39190613243565b60405180910390f35b34801561040857600080fd5b50610423600480360381019061041e9190612b39565b6116cf565b005b34801561043157600080fd5b5061044c60048036038101906104479190612a15565b611770565b005b60008073ffffffffffffffffffffffffffffffffffffffff168373ffffffffffffffffffffffffffffffffffffffff1614156104bf576040517f08c379a00000000000000000000000000000000000000000000000000000000081526004016104b6906132c0565b60405180910390fd5b60008083815260200190815260200160002060008473ffffffffffffffffffffffffffffffffffffffff1673ffffffffffffffffffffffffffffffffffffffff16815260200190815260200160002054905092915050565b60007fd9b67a26000000000000000000000000000000000000000000000000000000007bffffffffffffffffffffffffffffffffffffffffffffffffffffffff1916827bffffffffffffffffffffffffffffffffffffffffffffffffffffffff191614806105e257507f0e89341c000000000000000000000000000000000000000000000000000000007bffffffffffffffffffffffffffffffffffffffffffffffffffffffff1916827bffffffffffffffffffffffffffffffffffffffffffffffffffffffff1916145b806105f257506105f182611868565b5b9050919050565b606060028054610608906137ad565b80601f0160208091040260200160405190810160405280929190818152602001828054610634906137ad565b80156106815780601f1061065657610100808354040283529160200191610681565b820191906000526020600020905b81548152906001019060200180831161066457829003601f168201915b50505050509050919050565b6106956118d2565b73ffffffffffffffffffffffffffffffffffffffff166106b361152e565b73ffffffffffffffffffffffffffffffffffffffff1614610709576040517f08c379a0000000000000000000000000000000000000000000000000000000008152600401610700906133e0565b60405180910390fd5b60006007541161074e576040517f08c379a000000000000000000000000000000000000000000000000000000000815260040161074590613320565b60405180910390fd5b6000600a80548060200260200160405190810160405280929190818152602001828054801561079c57602002820191906000526020600020905b815481526020019060010190808311610788575b50505050509050600554816000815181106107e0577f4e487b7100000000000000000000000000000000000000000000000000000000600052603260045260246000fd5b602002602001018181525050600560008154809291906107ff90613810565b919050555060055481600181518110610841577f4e487b7100000000000000000000000000000000000000000000000000000000600052603260045260246000fd5b6020026020010181815250506005600081548092919061086090613810565b9190505550600554816002815181106108a2577f4e487b7100000000000000000000000000000000000000000000000000000000600052603260045260246000fd5b602002602001018181525050600560008154809291906108c190613810565b919050555060055481600381518110610903577f4e487b7100000000000000000000000000000000000000000000000000000000600052603260045260246000fd5b6020026020010181815250506005600081548092919061092290613810565b919050555060065481600481518110610964577f4e487b7100000000000000000000000000000000000000000000000000000000600052603260045260246000fd5b6020026020010181815250506006600081548092919061098390613810565b91905055506000816005815181106109c4577f4e487b7100000000000000000000000000000000000000000000000000000000600052603260045260246000fd5b602002602001018181525050610a3b82826009805480602002602001604051908101604052809291908181526020018280548015610a2157602002820191906000526020600020905b815481526020019060010190808311610a0d575b5050505050604051806020016040528060008152506118da565b6003600454610a4a9190613699565b60048190555060076000815480929190610a6390613783565b919050555060086000815480929190610a7b90613783565b91905055505050565b6000610a8e6118d2565b73ffffffffffffffffffffffffffffffffffffffff16610aac61152e565b73ffffffffffffffffffffffffffffffffffffffff1614610b02576040517f08c379a0000000000000000000000000000000000000000000000000000000008152600401610af9906133e0565b60405180910390fd5b47905090565b610b106118d2565b73ffffffffffffffffffffffffffffffffffffffff168573ffffffffffffffffffffffffffffffffffffffff161480610b565750610b5585610b506118d2565b61163b565b5b610b95576040517f08c379a0000000000000000000000000000000000000000000000000000000008152600401610b8c906133a0565b60405180910390fd5b610ba28585858585611b44565b5050505050565b67011c37937e080000341015610bf4576040517f08c379a0000000000000000000000000000000000000000000000000000000008152600401610beb90613360565b60405180910390fd5b6000600b60003373ffffffffffffffffffffffffffffffffffffffff1673ffffffffffffffffffffffffffffffffffffffff1681526020019081526020016000205414610c76576040517f08c379a0000000000000000000000000000000000000000000000000000000008152600401610c6d90613460565b60405180910390fd5b600060085411610cbb576040517f08c379a0000000000000000000000000000000000000000000000000000000008152600401610cb290613400565b60405180910390fd5b3273ffffffffffffffffffffffffffffffffffffffff163373ffffffffffffffffffffffffffffffffffffffff1614610d29576040517f08c379a0000000000000000000000000000000000000000000000000000000008152600401610d2090613340565b60405180910390fd5b6000600a805480602002602001604051908101604052809291908181526020018280548015610d7757602002820191906000526020600020905b815481526020019060010190808311610d63575b5050505050905060055481600081518110610dbb577f4e487b7100000000000000000000000000000000000000000000000000000000600052603260045260246000fd5b60200260200101818152505060056000815480929190610dda90613810565b919050555060055481600181518110610e1c577f4e487b7100000000000000000000000000000000000000000000000000000000600052603260045260246000fd5b60200260200101818152505060056000815480929190610e3b90613810565b919050555060055481600281518110610e7d577f4e487b7100000000000000000000000000000000000000000000000000000000600052603260045260246000fd5b60200260200101818152505060056000815480929190610e9c90613810565b919050555060055481600381518110610ede577f4e487b7100000000000000000000000000000000000000000000000000000000600052603260045260246000fd5b60200260200101818152505060056000815480929190610efd90613810565b919050555060065481600481518110610f3f577f4e487b7100000000000000000000000000000000000000000000000000000000600052603260045260246000fd5b60200260200101818152505060066000815480929190610f5e90613810565b9190505550600081600581518110610f9f577f4e487b7100000000000000000000000000000000000000000000000000000000600052603260045260246000fd5b602002602001018181525050600b60003373ffffffffffffffffffffffffffffffffffffffff1673ffffffffffffffffffffffffffffffffffffffff1681526020019081526020016000206000815480929190610ffb90613810565b919050555061106b3382600980548060200260200160405190810160405280929190818152602001828054801561105157602002820191906000526020600020905b81548152602001906001019080831161103d575b5050505050604051806020016040528060008152506118da565b600360045461107a9190613699565b6004819055506008600081548092919061109390613783565b919050555050565b606081518351146110e1576040517f08c379a00000000000000000000000000000000000000000000000000000000081526004016110d890613480565b60405180910390fd5b6000835167ffffffffffffffff811115611124577f4e487b7100000000000000000000000000000000000000000000000000000000600052604160045260246000fd5b6040519080825280602002602001820160405280156111525781602001602082028036833780820191505090505b50905060005b8451811015611241576111eb85828151811061119d577f4e487b7100000000000000000000000000000000000000000000000000000000600052603260045260246000fd5b60200260200101518583815181106111de577f4e487b7100000000000000000000000000000000000000000000000000000000600052603260045260246000fd5b602002602001015161044e565b828281518110611224577f4e487b7100000000000000000000000000000000000000000000000000000000600052603260045260246000fd5b6020026020010181815250508061123a90613810565b9050611158565b508091505092915050565b60006112566118d2565b73ffffffffffffffffffffffffffffffffffffffff1661127461152e565b73ffffffffffffffffffffffffffffffffffffffff16146112ca576040517f08c379a00000000000000000000000000000000000000000000000000000000081526004016112c1906133e0565b60405180910390fd5b600454905090565b6112da6118d2565b73ffffffffffffffffffffffffffffffffffffffff166112f861152e565b73ffffffffffffffffffffffffffffffffffffffff161461134e576040517f08c379a0000000000000000000000000000000000000000000000000000000008152600401611345906133e0565b60405180910390fd5b60004711611391576040517f08c379a000000000000000000000000000000000000000000000000000000000815260040161138890613420565b60405180910390fd5b3373ffffffffffffffffffffffffffffffffffffffff166108fc479081150290604051600060405180830381858888f193505050501580156113d7573d6000803e3d6000fd5b50565b6113e26118d2565b73ffffffffffffffffffffffffffffffffffffffff1661140061152e565b73ffffffffffffffffffffffffffffffffffffffff1614611456576040517f08c379a000000000000000000000000000000000000000000000000000000000815260040161144d906133e0565b60405180910390fd5b6114606000611ea4565b565b61146a6118d2565b73ffffffffffffffffffffffffffffffffffffffff1661148861152e565b73ffffffffffffffffffffffffffffffffffffffff16146114de576040517f08c379a00000000000000000000000000000000000000000000000000000000081526004016114d5906133e0565b60405180910390fd5b806004546114ec9190613643565b6004819055507fe3d47dee33b959cc59941f840525125123544e1f194b235f340f0c6147697ac333826040516115239291906131c1565b60405180910390a150565b6000600360009054906101000a900473ffffffffffffffffffffffffffffffffffffffff16905090565b60006115626118d2565b73ffffffffffffffffffffffffffffffffffffffff1661158061152e565b73ffffffffffffffffffffffffffffffffffffffff16146115d6576040517f08c379a00000000000000000000000000000000000000000000000000000000081526004016115cd906133e0565b60405180910390fd5b600854905090565b6115f06115e96118d2565b8383611f6a565b5050565b6000600b60003373ffffffffffffffffffffffffffffffffffffffff1673ffffffffffffffffffffffffffffffffffffffff16815260200190815260200160002054905090565b6000600160008473ffffffffffffffffffffffffffffffffffffffff1673ffffffffffffffffffffffffffffffffffffffff16815260200190815260200160002060008373ffffffffffffffffffffffffffffffffffffffff1673ffffffffffffffffffffffffffffffffffffffff16815260200190815260200160002060009054906101000a900460ff16905092915050565b6116d76118d2565b73ffffffffffffffffffffffffffffffffffffffff168573ffffffffffffffffffffffffffffffffffffffff16148061171d575061171c856117176118d2565b61163b565b5b61175c576040517f08c379a000000000000000000000000000000000000000000000000000000000815260040161175390613300565b60405180910390fd5b61176985858585856120d7565b5050505050565b6117786118d2565b73ffffffffffffffffffffffffffffffffffffffff1661179661152e565b73ffffffffffffffffffffffffffffffffffffffff16146117ec576040517f08c379a00000000000000000000000000000000000000000000000000000000081526004016117e3906133e0565b60405180910390fd5b600073ffffffffffffffffffffffffffffffffffffffff168173ffffffffffffffffffffffffffffffffffffffff16141561185c576040517f08c379a0000000000000000000000000000000000000000000000000000000008152600401611853906132e0565b60405180910390fd5b61186581611ea4565b50565b60007f01ffc9a7000000000000000000000000000000000000000000000000000000007bffffffffffffffffffffffffffffffffffffffffffffffffffffffff1916827bffffffffffffffffffffffffffffffffffffffffffffffffffffffff1916149050919050565b600033905090565b600073ffffffffffffffffffffffffffffffffffffffff168473ffffffffffffffffffffffffffffffffffffffff16141561194a576040517f08c379a0000000000000000000000000000000000000000000000000000000008152600401611941906134c0565b60405180910390fd5b815183511461198e576040517f08c379a0000000000000000000000000000000000000000000000000000000008152600401611985906134a0565b60405180910390fd5b60006119986118d2565b90506119a981600087878787612359565b60005b8451811015611aae578381815181106119ee577f4e487b7100000000000000000000000000000000000000000000000000000000600052603260045260246000fd5b6020026020010151600080878481518110611a32577f4e487b7100000000000000000000000000000000000000000000000000000000600052603260045260246000fd5b6020026020010151815260200190815260200160002060008873ffffffffffffffffffffffffffffffffffffffff1673ffffffffffffffffffffffffffffffffffffffff1681526020019081526020016000206000828254611a949190613643565b925050819055508080611aa690613810565b9150506119ac565b508473ffffffffffffffffffffffffffffffffffffffff16600073ffffffffffffffffffffffffffffffffffffffff168273ffffffffffffffffffffffffffffffffffffffff167f4a39dc06d4c0dbc64b70af90fd698a233a518aa5d07e595d983b8c0526c8f7fb8787604051611b2692919061320c565b60405180910390a4611b3d81600087878787612361565b5050505050565b8151835114611b88576040517f08c379a0000000000000000000000000000000000000000000000000000000008152600401611b7f906134a0565b60405180910390fd5b600073ffffffffffffffffffffffffffffffffffffffff168473ffffffffffffffffffffffffffffffffffffffff161415611bf8576040517f08c379a0000000000000000000000000000000000000000000000000000000008152600401611bef90613380565b60405180910390fd5b6000611c026118d2565b9050611c12818787878787612359565b60005b8451811015611e0f576000858281518110611c59577f4e487b7100000000000000000000000000000000000000000000000000000000600052603260045260246000fd5b602002602001015190506000858381518110611c9e577f4e487b7100000000000000000000000000000000000000000000000000000000600052603260045260246000fd5b60200260200101519050600080600084815260200190815260200160002060008b73ffffffffffffffffffffffffffffffffffffffff1673ffffffffffffffffffffffffffffffffffffffff16815260200190815260200160002054905081811015611d3f576040517f08c379a0000000000000000000000000000000000000000000000000000000008152600401611d36906133c0565b60405180910390fd5b81810360008085815260200190815260200160002060008c73ffffffffffffffffffffffffffffffffffffffff1673ffffffffffffffffffffffffffffffffffffffff168152602001908152602001600020819055508160008085815260200190815260200160002060008b73ffffffffffffffffffffffffffffffffffffffff1673ffffffffffffffffffffffffffffffffffffffff1681526020019081526020016000206000828254611df49190613643565b9250508190555050505080611e0890613810565b9050611c15565b508473ffffffffffffffffffffffffffffffffffffffff168673ffffffffffffffffffffffffffffffffffffffff168273ffffffffffffffffffffffffffffffffffffffff167f4a39dc06d4c0dbc64b70af90fd698a233a518aa5d07e595d983b8c0526c8f7fb8787604051611e8692919061320c565b60405180910390a4611e9c818787878787612361565b505050505050565b6000600360009054906101000a900473ffffffffffffffffffffffffffffffffffffffff16905081600360006101000a81548173ffffffffffffffffffffffffffffffffffffffff021916908373ffffffffffffffffffffffffffffffffffffffff1602179055508173ffffffffffffffffffffffffffffffffffffffff168173ffffffffffffffffffffffffffffffffffffffff167f8be0079c531659141344cd1fd0a4f28419497f9722a3daafe3b4186f6b6457e060405160405180910390a35050565b8173ffffffffffffffffffffffffffffffffffffffff168373ffffffffffffffffffffffffffffffffffffffff161415611fd9576040517f08c379a0000000000000000000000000000000000000000000000000000000008152600401611fd090613440565b60405180910390fd5b80600160008573ffffffffffffffffffffffffffffffffffffffff1673ffffffffffffffffffffffffffffffffffffffff16815260200190815260200160002060008473ffffffffffffffffffffffffffffffffffffffff1673ffffffffffffffffffffffffffffffffffffffff16815260200190815260200160002060006101000a81548160ff0219169083151502179055508173ffffffffffffffffffffffffffffffffffffffff168373ffffffffffffffffffffffffffffffffffffffff167f17307eab39ab6107e8899845ad3d59bd9653f200f220920489ca2b5937696c31836040516120ca9190613243565b60405180910390a3505050565b600073ffffffffffffffffffffffffffffffffffffffff168473ffffffffffffffffffffffffffffffffffffffff161415612147576040517f08c379a000000000000000000000000000000000000000000000000000000000815260040161213e90613380565b60405180910390fd5b60006121516118d2565b905061217181878761216288612548565b61216b88612548565b87612359565b600080600086815260200190815260200160002060008873ffffffffffffffffffffffffffffffffffffffff1673ffffffffffffffffffffffffffffffffffffffff16815260200190815260200160002054905083811015612208576040517f08c379a00000000000000000000000000000000000000000000000000000000081526004016121ff906133c0565b60405180910390fd5b83810360008087815260200190815260200160002060008973ffffffffffffffffffffffffffffffffffffffff1673ffffffffffffffffffffffffffffffffffffffff168152602001908152602001600020819055508360008087815260200190815260200160002060008873ffffffffffffffffffffffffffffffffffffffff1673ffffffffffffffffffffffffffffffffffffffff16815260200190815260200160002060008282546122bd9190613643565b925050819055508573ffffffffffffffffffffffffffffffffffffffff168773ffffffffffffffffffffffffffffffffffffffff168373ffffffffffffffffffffffffffffffffffffffff167fc3d58168c5ae7397731d063d5bbf3d657854427343f4c083240f7aacaa2d0f62888860405161233a9291906134fb565b60405180910390a461235082888888888861260e565b50505050505050565b505050505050565b6123808473ffffffffffffffffffffffffffffffffffffffff166127f5565b15612540578373ffffffffffffffffffffffffffffffffffffffff1663bc197c8187878686866040518663ffffffff1660e01b81526004016123c69594939291906130ff565b602060405180830381600087803b1580156123e057600080fd5b505af192505050801561241157506040513d601f19601f8201168201806040525081019061240e9190612cd5565b60015b6124b75761241d6138e6565b806308c379a0141561247a5750612432613e6b565b8061243d575061247c565b806040517f08c379a0000000000000000000000000000000000000000000000000000000008152600401612471919061325e565b60405180910390fd5b505b6040517f08c379a00000000000000000000000000000000000000000000000000000000081526004016124ae90613280565b60405180910390fd5b63bc197c8160e01b7bffffffffffffffffffffffffffffffffffffffffffffffffffffffff1916817bffffffffffffffffffffffffffffffffffffffffffffffffffffffff19161461253e576040517f08c379a0000000000000000000000000000000000000000000000000000000008152600401612535906132a0565b60405180910390fd5b505b505050505050565b60606000600167ffffffffffffffff81111561258d577f4e487b7100000000000000000000000000000000000000000000000000000000600052604160045260246000fd5b6040519080825280602002602001820160405280156125bb5781602001602082028036833780820191505090505b50905082816000815181106125f9577f4e487b7100000000000000000000000000000000000000000000000000000000600052603260045260246000fd5b60200260200101818152505080915050919050565b61262d8473ffffffffffffffffffffffffffffffffffffffff166127f5565b156127ed578373ffffffffffffffffffffffffffffffffffffffff1663f23a6e6187878686866040518663ffffffff1660e01b8152600401612673959493929190613167565b602060405180830381600087803b15801561268d57600080fd5b505af19250505080156126be57506040513d601f19601f820116820180604052508101906126bb9190612cd5565b60015b612764576126ca6138e6565b806308c379a0141561272757506126df613e6b565b806126ea5750612729565b806040517f08c379a000000000000000000000000000000000000000000000000000000000815260040161271e919061325e565b60405180910390fd5b505b6040517f08c379a000000000000000000000000000000000000000000000000000000000815260040161275b90613280565b60405180910390fd5b63f23a6e6160e01b7bffffffffffffffffffffffffffffffffffffffffffffffffffffffff1916817bffffffffffffffffffffffffffffffffffffffffffffffffffffffff1916146127eb576040517f08c379a00000000000000000000000000000000000000000000000000000000081526004016127e2906132a0565b60405180910390fd5b505b505050505050565b6000808273ffffffffffffffffffffffffffffffffffffffff163b119050919050565b600061282b61282684613549565b613524565b9050808382526020820190508285602086028201111561284a57600080fd5b60005b8581101561287a5781612860888261292e565b84526020840193506020830192505060018101905061284d565b5050509392505050565b600061289761289284613575565b613524565b905080838252602082019050828560208602820111156128b657600080fd5b60005b858110156128e657816128cc8882612a00565b8452602084019350602083019250506001810190506128b9565b5050509392505050565b60006129036128fe846135a1565b613524565b90508281526020810184848401111561291b57600080fd5b612926848285613741565b509392505050565b60008135905061293d81613f01565b92915050565b600082601f83011261295457600080fd5b8135612964848260208601612818565b91505092915050565b600082601f83011261297e57600080fd5b813561298e848260208601612884565b91505092915050565b6000813590506129a681613f18565b92915050565b6000813590506129bb81613f2f565b92915050565b6000815190506129d081613f2f565b92915050565b600082601f8301126129e757600080fd5b81356129f78482602086016128f0565b91505092915050565b600081359050612a0f81613f46565b92915050565b600060208284031215612a2757600080fd5b6000612a358482850161292e565b91505092915050565b60008060408385031215612a5157600080fd5b6000612a5f8582860161292e565b9250506020612a708582860161292e565b9150509250929050565b600080600080600060a08688031215612a9257600080fd5b6000612aa08882890161292e565b9550506020612ab18882890161292e565b945050604086013567ffffffffffffffff811115612ace57600080fd5b612ada8882890161296d565b935050606086013567ffffffffffffffff811115612af757600080fd5b612b038882890161296d565b925050608086013567ffffffffffffffff811115612b2057600080fd5b612b2c888289016129d6565b9150509295509295909350565b600080600080600060a08688031215612b5157600080fd5b6000612b5f8882890161292e565b9550506020612b708882890161292e565b9450506040612b8188828901612a00565b9350506060612b9288828901612a00565b925050608086013567ffffffffffffffff811115612baf57600080fd5b612bbb888289016129d6565b9150509295509295909350565b60008060408385031215612bdb57600080fd5b6000612be98582860161292e565b9250506020612bfa85828601612997565b9150509250929050565b60008060408385031215612c1757600080fd5b6000612c258582860161292e565b9250506020612c3685828601612a00565b9150509250929050565b60008060408385031215612c5357600080fd5b600083013567ffffffffffffffff811115612c6d57600080fd5b612c7985828601612943565b925050602083013567ffffffffffffffff811115612c9657600080fd5b612ca28582860161296d565b9150509250929050565b600060208284031215612cbe57600080fd5b6000612ccc848285016129ac565b91505092915050565b600060208284031215612ce757600080fd5b6000612cf5848285016129c1565b91505092915050565b600060208284031215612d1057600080fd5b6000612d1e84828501612a00565b91505092915050565b6000612d3383836130c6565b60208301905092915050565b612d48816136cd565b82525050565b6000612d59826135e2565b612d638185613610565b9350612d6e836135d2565b8060005b83811015612d9f578151612d868882612d27565b9750612d9183613603565b925050600181019050612d72565b5085935050505092915050565b612db5816136df565b82525050565b6000612dc6826135ed565b612dd08185613621565b9350612de0818560208601613750565b612de981613908565b840191505092915050565b6000612dff826135f8565b612e098185613632565b9350612e19818560208601613750565b612e2281613908565b840191505092915050565b6000612e3a603483613632565b9150612e4582613926565b604082019050919050565b6000612e5d602883613632565b9150612e6882613975565b604082019050919050565b6000612e80602b83613632565b9150612e8b826139c4565b604082019050919050565b6000612ea3602683613632565b9150612eae82613a13565b604082019050919050565b6000612ec6602983613632565b9150612ed182613a62565b604082019050919050565b6000612ee9601183613632565b9150612ef482613ab1565b602082019050919050565b6000612f0c602583613632565b9150612f1782613ada565b604082019050919050565b6000612f2f602883613632565b9150612f3a82613b29565b604082019050919050565b6000612f52602583613632565b9150612f5d82613b78565b604082019050919050565b6000612f75603283613632565b9150612f8082613bc7565b604082019050919050565b6000612f98602a83613632565b9150612fa382613c16565b604082019050919050565b6000612fbb602083613632565b9150612fc682613c65565b602082019050919050565b6000612fde601c83613632565b9150612fe982613c8e565b602082019050919050565b6000613001601483613632565b915061300c82613cb7565b602082019050919050565b6000613024602983613632565b915061302f82613ce0565b604082019050919050565b6000613047603383613632565b915061305282613d2f565b604082019050919050565b600061306a602983613632565b915061307582613d7e565b604082019050919050565b600061308d602883613632565b915061309882613dcd565b604082019050919050565b60006130b0602183613632565b91506130bb82613e1c565b604082019050919050565b6130cf81613737565b82525050565b6130de81613737565b82525050565b60006020820190506130f96000830184612d3f565b92915050565b600060a0820190506131146000830188612d3f565b6131216020830187612d3f565b81810360408301526131338186612d4e565b905081810360608301526131478185612d4e565b9050818103608083015261315b8184612dbb565b90509695505050505050565b600060a08201905061317c6000830188612d3f565b6131896020830187612d3f565b61319660408301866130d5565b6131a360608301856130d5565b81810360808301526131b58184612dbb565b90509695505050505050565b60006040820190506131d66000830185612d3f565b6131e360208301846130d5565b9392505050565b600060208201905081810360008301526132048184612d4e565b905092915050565b600060408201905081810360008301526132268185612d4e565b9050818103602083015261323a8184612d4e565b90509392505050565b60006020820190506132586000830184612dac565b92915050565b600060208201905081810360008301526132788184612df4565b905092915050565b6000602082019050818103600083015261329981612e2d565b9050919050565b600060208201905081810360008301526132b981612e50565b9050919050565b600060208201905081810360008301526132d981612e73565b9050919050565b600060208201905081810360008301526132f981612e96565b9050919050565b6000602082019050818103600083015261331981612eb9565b9050919050565b6000602082019050818103600083015261333981612edc565b9050919050565b6000602082019050818103600083015261335981612eff565b9050919050565b6000602082019050818103600083015261337981612f22565b9050919050565b6000602082019050818103600083015261339981612f45565b9050919050565b600060208201905081810360008301526133b981612f68565b9050919050565b600060208201905081810360008301526133d981612f8b565b9050919050565b600060208201905081810360008301526133f981612fae565b9050919050565b6000602082019050818103600083015261341981612fd1565b9050919050565b6000602082019050818103600083015261343981612ff4565b9050919050565b6000602082019050818103600083015261345981613017565b9050919050565b600060208201905081810360008301526134798161303a565b9050919050565b600060208201905081810360008301526134998161305d565b9050919050565b600060208201905081810360008301526134b981613080565b9050919050565b600060208201905081810360008301526134d9816130a3565b9050919050565b60006020820190506134f560008301846130d5565b92915050565b600060408201905061351060008301856130d5565b61351d60208301846130d5565b9392505050565b600061352e61353f565b905061353a82826137df565b919050565b6000604051905090565b600067ffffffffffffffff821115613564576135636138b7565b5b602082029050602081019050919050565b600067ffffffffffffffff8211156135905761358f6138b7565b5b602082029050602081019050919050565b600067ffffffffffffffff8211156135bc576135bb6138b7565b5b6135c582613908565b9050602081019050919050565b6000819050602082019050919050565b600081519050919050565b600081519050919050565b600081519050919050565b6000602082019050919050565b600082825260208201905092915050565b600082825260208201905092915050565b600082825260208201905092915050565b600061364e82613737565b915061365983613737565b9250827fffffffffffffffffffffffffffffffffffffffffffffffffffffffffffffffff0382111561368e5761368d613859565b5b828201905092915050565b60006136a482613737565b91506136af83613737565b9250828210156136c2576136c1613859565b5b828203905092915050565b60006136d882613717565b9050919050565b60008115159050919050565b60007fffffffff0000000000000000000000000000000000000000000000000000000082169050919050565b600073ffffffffffffffffffffffffffffffffffffffff82169050919050565b6000819050919050565b82818337600083830152505050565b60005b8381101561376e578082015181840152602081019050613753565b8381111561377d576000848401525b50505050565b600061378e82613737565b915060008214156137a2576137a1613859565b5b600182039050919050565b600060028204905060018216806137c557607f821691505b602082108114156137d9576137d8613888565b5b50919050565b6137e882613908565b810181811067ffffffffffffffff82111715613807576138066138b7565b5b80604052505050565b600061381b82613737565b91507fffffffffffffffffffffffffffffffffffffffffffffffffffffffffffffffff82141561384e5761384d613859565b5b600182019050919050565b7f4e487b7100000000000000000000000000000000000000000000000000000000600052601160045260246000fd5b7f4e487b7100000000000000000000000000000000000000000000000000000000600052602260045260246000fd5b7f4e487b7100000000000000000000000000000000000000000000000000000000600052604160045260246000fd5b600060033d11156139055760046000803e613902600051613919565b90505b90565b6000601f19601f8301169050919050565b60008160e01c9050919050565b7f455243313135353a207472616e7366657220746f206e6f6e204552433131353560008201527f526563656976657220696d706c656d656e746572000000000000000000000000602082015250565b7f455243313135353a204552433131353552656365697665722072656a6563746560008201527f6420746f6b656e73000000000000000000000000000000000000000000000000602082015250565b7f455243313135353a2062616c616e636520717565727920666f7220746865207a60008201527f65726f2061646472657373000000000000000000000000000000000000000000602082015250565b7f4f776e61626c653a206e6577206f776e657220697320746865207a65726f206160008201527f6464726573730000000000000000000000000000000000000000000000000000602082015250565b7f455243313135353a2063616c6c6572206973206e6f74206f776e6572206e6f7260008201527f20617070726f7665640000000000000000000000000000000000000000000000602082015250565b7f4f7574206f66204769766561776179732e000000000000000000000000000000600082015250565b7f436f6e74726163742063616c6c732063616e6e6f74206d696e74206f7572207360008201527f7570706c79000000000000000000000000000000000000000000000000000000602082015250565b7f4e6f7420656e6f75676820657468657220696e206163636f756e7420746f207460008201527f72616e736163742e000000000000000000000000000000000000000000000000602082015250565b7f455243313135353a207472616e7366657220746f20746865207a65726f20616460008201527f6472657373000000000000000000000000000000000000000000000000000000602082015250565b7f455243313135353a207472616e736665722063616c6c6572206973206e6f742060008201527f6f776e6572206e6f7220617070726f7665640000000000000000000000000000602082015250565b7f455243313135353a20696e73756666696369656e742062616c616e636520666f60008201527f72207472616e7366657200000000000000000000000000000000000000000000602082015250565b7f4f776e61626c653a2063616c6c6572206973206e6f7420746865206f776e6572600082015250565b7f416c6c20426174636865732068617665206265656e206d696e74656400000000600082015250565b7f4e6f20657468657220696e20636f6e7472616374000000000000000000000000600082015250565b7f455243313135353a2073657474696e6720617070726f76616c2073746174757360008201527f20666f722073656c660000000000000000000000000000000000000000000000602082015250565b7f43616e6e6f74207075726368617365206d6f7265207468616e206f6e6520626160008201527f746368206d696e74207065722077616c6c657400000000000000000000000000602082015250565b7f455243313135353a206163636f756e747320616e6420696473206c656e67746860008201527f206d69736d617463680000000000000000000000000000000000000000000000602082015250565b7f455243313135353a2069647320616e6420616d6f756e7473206c656e6774682060008201527f6d69736d61746368000000000000000000000000000000000000000000000000602082015250565b7f455243313135353a206d696e7420746f20746865207a65726f2061646472657360008201527f7300000000000000000000000000000000000000000000000000000000000000602082015250565b600060443d1015613e7b57613efe565b613e8361353f565b60043d036004823e80513d602482011167ffffffffffffffff82111715613eab575050613efe565b808201805167ffffffffffffffff811115613ec95750505050613efe565b80602083010160043d038501811115613ee6575050505050613efe565b613ef5826020018501866137df565b82955050505050505b90565b613f0a816136cd565b8114613f1557600080fd5b50565b613f21816136df565b8114613f2c57600080fd5b50565b613f38816136eb565b8114613f4357600080fd5b50565b613f4f81613737565b8114613f5a57600080fd5b5056fea2646970667358221220dd64423e64477cb7ca325c94bf8db9b628465444585d65a9b55ddb095a7e96ac64736f6c63430008040033",
  "linkReferences": {},
  "deployedLinkReferences": {}
}