{
  "_format": "hh-sol-artifact-1",
  "contractName": "DemoDapp",
  "sourceName": "contracts/DemoDapp.sol",
  "abi": [
    {
      "inputs": [
        {
          "internalType": "string",
          "name": "uri",
          "type": "string"
        }
      ],
      "stateMutability": "nonpayable",
      "type": "constructor"
    },
    {
      "anonymous": false,
      "inputs": [
        {
          "indexed": true,
          "internalType": "address",
          "name": "account",
          "type": "address"
        },
        {
          "indexed": true,
          "internalType": "address",
          "name": "operator",
          "type": "address"
        },
        {
          "indexed": false,
          "internalType": "bool",
          "name": "approved",
          "type": "bool"
        }
      ],
      "name": "ApprovalForAll",
      "type": "event"
    },
    {
      "anonymous": false,
      "inputs": [
        {
          "indexed": false,
          "internalType": "address",
          "name": "_sender",
          "type": "address"
        },
        {
          "indexed": false,
          "internalType": "uint256",
          "name": "_supply",
          "type": "uint256"
        }
      ],
      "name": "IncreaseReceiptSupply",
      "type": "event"
    },
    {
      "anonymous": false,
      "inputs": [
        {
          "indexed": true,
          "internalType": "address",
          "name": "previousOwner",
          "type": "address"
        },
        {
          "indexed": true,
          "internalType": "address",
          "name": "newOwner",
          "type": "address"
        }
      ],
      "name": "OwnershipTransferred",
      "type": "event"
    },
    {
      "anonymous": false,
      "inputs": [
        {
          "indexed": true,
          "internalType": "address",
          "name": "operator",
          "type": "address"
        },
        {
          "indexed": true,
          "internalType": "address",
          "name": "from",
          "type": "address"
        },
        {
          "indexed": true,
          "internalType": "address",
          "name": "to",
          "type": "address"
        },
        {
          "indexed": false,
          "internalType": "uint256[]",
          "name": "ids",
          "type": "uint256[]"
        },
        {
          "indexed": false,
          "internalType": "uint256[]",
          "name": "values",
          "type": "uint256[]"
        }
      ],
      "name": "TransferBatch",
      "type": "event"
    },
    {
      "anonymous": false,
      "inputs": [
        {
          "indexed": true,
          "internalType": "address",
          "name": "operator",
          "type": "address"
        },
        {
          "indexed": true,
          "internalType": "address",
          "name": "from",
          "type": "address"
        },
        {
          "indexed": true,
          "internalType": "address",
          "name": "to",
          "type": "address"
        },
        {
          "indexed": false,
          "internalType": "uint256",
          "name": "id",
          "type": "uint256"
        },
        {
          "indexed": false,
          "internalType": "uint256",
          "name": "value",
          "type": "uint256"
        }
      ],
      "name": "TransferSingle",
      "type": "event"
    },
    {
      "anonymous": false,
      "inputs": [
        {
          "indexed": false,
          "internalType": "string",
          "name": "value",
          "type": "string"
        },
        {
          "indexed": true,
          "internalType": "uint256",
          "name": "id",
          "type": "uint256"
        }
      ],
      "name": "URI",
      "type": "event"
    },
    {
      "inputs": [],
      "name": "activatePreSale",
      "outputs": [],
      "stateMutability": "nonpayable",
      "type": "function"
    },
    {
      "inputs": [],
      "name": "activateSale",
      "outputs": [],
      "stateMutability": "nonpayable",
      "type": "function"
    },
    {
      "inputs": [
        {
          "internalType": "address",
          "name": "account",
          "type": "address"
        },
        {
          "internalType": "uint256",
          "name": "id",
          "type": "uint256"
        }
      ],
      "name": "balanceOf",
      "outputs": [
        {
          "internalType": "uint256",
          "name": "",
          "type": "uint256"
        }
      ],
      "stateMutability": "view",
      "type": "function"
    },
    {
      "inputs": [
        {
          "internalType": "address[]",
          "name": "accounts",
          "type": "address[]"
        },
        {
          "internalType": "uint256[]",
          "name": "ids",
          "type": "uint256[]"
        }
      ],
      "name": "balanceOfBatch",
      "outputs": [
        {
          "internalType": "uint256[]",
          "name": "",
          "type": "uint256[]"
        }
      ],
      "stateMutability": "view",
      "type": "function"
    },
    {
      "inputs": [
        {
          "internalType": "uint256",
          "name": "_fruitTokenId",
          "type": "uint256"
        },
        {
          "internalType": "uint256",
          "name": "_fourInOneTokenId",
          "type": "uint256"
        },
        {
          "internalType": "uint256",
          "name": "_quadrant",
          "type": "uint256"
        }
      ],
      "name": "cuteeExchange",
      "outputs": [],
      "stateMutability": "nonpayable",
      "type": "function"
    },
    {
      "inputs": [],
      "name": "getBalance",
      "outputs": [
        {
          "internalType": "uint256",
          "name": "",
          "type": "uint256"
        }
      ],
      "stateMutability": "view",
      "type": "function"
    },
    {
      "inputs": [],
      "name": "getBundleBalance",
      "outputs": [
        {
          "internalType": "uint256",
          "name": "",
          "type": "uint256"
        }
      ],
      "stateMutability": "view",
      "type": "function"
    },
    {
      "inputs": [],
      "name": "getBundleSupply",
      "outputs": [
        {
          "internalType": "uint256",
          "name": "",
          "type": "uint256"
        }
      ],
      "stateMutability": "view",
      "type": "function"
    },
    {
      "inputs": [],
      "name": "getReceiptSupply",
      "outputs": [
        {
          "internalType": "uint256",
          "name": "",
          "type": "uint256"
        }
      ],
      "stateMutability": "view",
      "type": "function"
    },
    {
      "inputs": [
        {
          "internalType": "address",
          "name": "_address",
          "type": "address"
        }
      ],
      "name": "getVIF",
      "outputs": [
        {
          "internalType": "uint256",
          "name": "",
          "type": "uint256"
        }
      ],
      "stateMutability": "view",
      "type": "function"
    },
    {
      "inputs": [],
      "name": "getVIFLeft",
      "outputs": [
        {
          "internalType": "uint256",
          "name": "",
          "type": "uint256"
        }
      ],
      "stateMutability": "view",
      "type": "function"
    },
    {
      "inputs": [
        {
          "internalType": "address[]",
          "name": "_to",
          "type": "address[]"
        }
      ],
      "name": "giveawayMintBatch",
      "outputs": [],
      "stateMutability": "nonpayable",
      "type": "function"
    },
    {
      "inputs": [
        {
          "internalType": "uint256",
          "name": "_supply",
          "type": "uint256"
        }
      ],
      "name": "increaseReceiptSupply",
      "outputs": [],
      "stateMutability": "nonpayable",
      "type": "function"
    },
    {
      "inputs": [
        {
          "internalType": "address",
          "name": "account",
          "type": "address"
        },
        {
          "internalType": "address",
          "name": "operator",
          "type": "address"
        }
      ],
      "name": "isApprovedForAll",
      "outputs": [
        {
          "internalType": "bool",
          "name": "",
          "type": "bool"
        }
      ],
      "stateMutability": "view",
      "type": "function"
    },
    {
      "inputs": [],
      "name": "mintBundle",
      "outputs": [],
      "stateMutability": "payable",
      "type": "function"
    },
    {
      "inputs": [],
      "name": "owner",
      "outputs": [
        {
          "internalType": "address",
          "name": "",
          "type": "address"
        }
      ],
      "stateMutability": "view",
      "type": "function"
    },
    {
      "inputs": [],
      "name": "renounceOwnership",
      "outputs": [],
      "stateMutability": "nonpayable",
      "type": "function"
    },
    {
      "inputs": [
        {
          "internalType": "uint256",
          "name": "_VIFCount",
          "type": "uint256"
        }
      ],
      "name": "resetVIF",
      "outputs": [],
      "stateMutability": "nonpayable",
      "type": "function"
    },
    {
      "inputs": [
        {
          "internalType": "address",
          "name": "from",
          "type": "address"
        },
        {
          "internalType": "address",
          "name": "to",
          "type": "address"
        },
        {
          "internalType": "uint256[]",
          "name": "ids",
          "type": "uint256[]"
        },
        {
          "internalType": "uint256[]",
          "name": "amounts",
          "type": "uint256[]"
        },
        {
          "internalType": "bytes",
          "name": "data",
          "type": "bytes"
        }
      ],
      "name": "safeBatchTransferFrom",
      "outputs": [],
      "stateMutability": "nonpayable",
      "type": "function"
    },
    {
      "inputs": [
        {
          "internalType": "address",
          "name": "from",
          "type": "address"
        },
        {
          "internalType": "address",
          "name": "to",
          "type": "address"
        },
        {
          "internalType": "uint256",
          "name": "id",
          "type": "uint256"
        },
        {
          "internalType": "uint256",
          "name": "amount",
          "type": "uint256"
        },
        {
          "internalType": "bytes",
          "name": "data",
          "type": "bytes"
        }
      ],
      "name": "safeTransferFrom",
      "outputs": [],
      "stateMutability": "nonpayable",
      "type": "function"
    },
    {
      "inputs": [
        {
          "internalType": "address",
          "name": "operator",
          "type": "address"
        },
        {
          "internalType": "bool",
          "name": "approved",
          "type": "bool"
        }
      ],
      "name": "setApprovalForAll",
      "outputs": [],
      "stateMutability": "nonpayable",
      "type": "function"
    },
    {
      "inputs": [
        {
          "internalType": "uint256",
          "name": "_gwei",
          "type": "uint256"
        }
      ],
      "name": "setPricePerBundle",
      "outputs": [],
      "stateMutability": "nonpayable",
      "type": "function"
    },
    {
      "inputs": [
        {
          "internalType": "uint256",
          "name": "_saleStart",
          "type": "uint256"
        }
      ],
      "name": "setSaleStartTime",
      "outputs": [],
      "stateMutability": "nonpayable",
      "type": "function"
    },
    {
      "inputs": [
        {
          "internalType": "address[]",
          "name": "_vifs",
          "type": "address[]"
        }
      ],
      "name": "setVIF",
      "outputs": [],
      "stateMutability": "nonpayable",
      "type": "function"
    },
    {
      "inputs": [
        {
          "internalType": "bytes4",
          "name": "interfaceId",
          "type": "bytes4"
        }
      ],
      "name": "supportsInterface",
      "outputs": [
        {
          "internalType": "bool",
          "name": "",
          "type": "bool"
        }
      ],
      "stateMutability": "view",
      "type": "function"
    },
    {
      "inputs": [
        {
          "internalType": "address",
          "name": "newOwner",
          "type": "address"
        }
      ],
      "name": "transferOwnership",
      "outputs": [],
      "stateMutability": "nonpayable",
      "type": "function"
    },
    {
      "inputs": [
        {
          "internalType": "uint256",
          "name": "",
          "type": "uint256"
        }
      ],
      "name": "uri",
      "outputs": [
        {
          "internalType": "string",
          "name": "",
          "type": "string"
        }
      ],
      "stateMutability": "view",
      "type": "function"
    },
    {
      "inputs": [],
      "name": "withdrawBalance",
      "outputs": [],
      "stateMutability": "nonpayable",
      "type": "function"
    }
  ],
  "bytecode": "0x60806040526101f4600655610bb86007556001600855620186a160095560fa600a556102ee600b556000600e60006101000a81548160ff0219169083151502179055506000600e60016101000a81548160ff02191690831515021790555067016345785d8a00006010553480156200007657600080fd5b5060405162005b2638038062005b2683398181016040528101906200009c9190620002e2565b80620000ae81620000d660201b60201c565b50620000cf620000c3620000f260201b60201c565b620000fa60201b60201c565b5062000497565b8060029080519060200190620000ee929190620001c0565b5050565b600033905090565b6000600360009054906101000a900473ffffffffffffffffffffffffffffffffffffffff16905081600360006101000a81548173ffffffffffffffffffffffffffffffffffffffff021916908373ffffffffffffffffffffffffffffffffffffffff1602179055508173ffffffffffffffffffffffffffffffffffffffff168173ffffffffffffffffffffffffffffffffffffffff167f8be0079c531659141344cd1fd0a4f28419497f9722a3daafe3b4186f6b6457e060405160405180910390a35050565b828054620001ce90620003bc565b90600052602060002090601f016020900481019282620001f257600085556200023e565b82601f106200020d57805160ff19168380011785556200023e565b828001600101855582156200023e579182015b828111156200023d57825182559160200191906001019062000220565b5b5090506200024d919062000251565b5090565b5b808211156200026c57600081600090555060010162000252565b5090565b600062000287620002818462000350565b62000327565b905082815260208101848484011115620002a057600080fd5b620002ad84828562000386565b509392505050565b600082601f830112620002c757600080fd5b8151620002d984826020860162000270565b91505092915050565b600060208284031215620002f557600080fd5b600082015167ffffffffffffffff8111156200031057600080fd5b6200031e84828501620002b5565b91505092915050565b60006200033362000346565b9050620003418282620003f2565b919050565b6000604051905090565b600067ffffffffffffffff8211156200036e576200036d62000457565b5b620003798262000486565b9050602081019050919050565b60005b83811015620003a657808201518184015260208101905062000389565b83811115620003b6576000848401525b50505050565b60006002820490506001821680620003d557607f821691505b60208210811415620003ec57620003eb62000428565b5b50919050565b620003fd8262000486565b810181811067ffffffffffffffff821117156200041f576200041e62000457565b5b80604052505050565b7f4e487b7100000000000000000000000000000000000000000000000000000000600052602260045260246000fd5b7f4e487b7100000000000000000000000000000000000000000000000000000000600052604160045260246000fd5b6000601f19601f8301169050919050565b61567f80620004a76000396000f3fe6080604052600436106101b65760003560e01c806376937cef116100ec578063a22cb4651161008a578063cec2e73311610064578063cec2e7331461059c578063e985e9c5146105c5578063f242432a14610602578063f2fde38b1461062b576101b6565b8063a22cb46514610531578063b08504e91461055a578063c721f08d14610585576101b6565b80638686d795116100c65780638686d795146104895780638da5cb5b146104b25780639171c3da146104dd5780639b14960814610508576101b6565b806376937cef1461040c5780638110b32f1461043757806383fc306714610460576101b6565b80633efc520011610159578063525f8a5c11610133578063525f8a5c1461038a5780635f4c5b25146103b35780635fd8c710146103de578063715018a6146103f5576101b6565b80633efc52001461031a578063410404b7146103435780634e1273f41461034d576101b6565b806312065fe01161019557806312065fe0146102725780631307bb001461029d5780632eb2c2d6146102b45780633bdb7c9e146102dd576101b6565b8062fdd58e146101bb57806301ffc9a7146101f85780630e89341c14610235575b600080fd5b3480156101c757600080fd5b506101e260048036038101906101dd9190613f21565b610654565b6040516101ef9190614a64565b60405180910390f35b34801561020457600080fd5b5061021f600480360381019061021a919061404f565b61071d565b60405161022c9190614707565b60405180910390f35b34801561024157600080fd5b5061025c600480360381019061025791906140a1565b6107ff565b6040516102699190614722565b60405180910390f35b34801561027e57600080fd5b50610287610893565b6040516102949190614a64565b60405180910390f35b3480156102a957600080fd5b506102b2610917565b005b3480156102c057600080fd5b506102db60048036038101906102d69190613d97565b6109bf565b005b3480156102e957600080fd5b5061030460048036038101906102ff9190613d32565b610a60565b6040516103119190614a64565b60405180910390f35b34801561032657600080fd5b50610341600480360381019061033c91906140a1565b610b25565b005b61034b610bab565b005b34801561035957600080fd5b50610374600480360381019061036f9190613fe3565b61137d565b60405161038191906146ae565b60405180910390f35b34801561039657600080fd5b506103b160048036038101906103ac91906140a1565b61152e565b005b3480156103bf57600080fd5b506103c86115b4565b6040516103d59190614a64565b60405180910390f35b3480156103ea57600080fd5b506103f36115be565b005b34801561040157600080fd5b5061040a6116c6565b005b34801561041857600080fd5b5061042161174e565b60405161042e9190614a64565b60405180910390f35b34801561044357600080fd5b5061045e600480360381019061045991906140ca565b611758565b005b34801561046c57600080fd5b50610487600480360381019061048291906140a1565b611c89565b005b34801561049557600080fd5b506104b060048036038101906104ab91906140a1565b611d55565b005b3480156104be57600080fd5b506104c7611eb6565b6040516104d491906145a8565b60405180910390f35b3480156104e957600080fd5b506104f2611ee0565b6040516104ff9190614a64565b60405180910390f35b34801561051457600080fd5b5061052f600480360381019061052a9190613fa2565b611f66565b005b34801561053d57600080fd5b5061055860048036038101906105539190613ee5565b612188565b005b34801561056657600080fd5b5061056f61219e565b60405161057c9190614a64565b60405180910390f35b34801561059157600080fd5b5061059a6121e5565b005b3480156105a857600080fd5b506105c360048036038101906105be9190613f5d565b61228d565b005b3480156105d157600080fd5b506105ec60048036038101906105e79190613d5b565b6128d0565b6040516105f99190614707565b60405180910390f35b34801561060e57600080fd5b5061062960048036038101906106249190613e56565b612964565b005b34801561063757600080fd5b50610652600480360381019061064d9190613d32565b612a05565b005b60008073ffffffffffffffffffffffffffffffffffffffff168373ffffffffffffffffffffffffffffffffffffffff1614156106c5576040517f08c379a00000000000000000000000000000000000000000000000000000000081526004016106bc90614784565b60405180910390fd5b60008083815260200190815260200160002060008473ffffffffffffffffffffffffffffffffffffffff1673ffffffffffffffffffffffffffffffffffffffff16815260200190815260200160002054905092915050565b60007fd9b67a26000000000000000000000000000000000000000000000000000000007bffffffffffffffffffffffffffffffffffffffffffffffffffffffff1916827bffffffffffffffffffffffffffffffffffffffffffffffffffffffff191614806107e857507f0e89341c000000000000000000000000000000000000000000000000000000007bffffffffffffffffffffffffffffffffffffffffffffffffffffffff1916827bffffffffffffffffffffffffffffffffffffffffffffffffffffffff1916145b806107f857506107f782612afd565b5b9050919050565b60606002805461080e90614d31565b80601f016020809104026020016040519081016040528092919081815260200182805461083a90614d31565b80156108875780601f1061085c57610100808354040283529160200191610887565b820191906000526020600020905b81548152906001019060200180831161086a57829003601f168201915b50505050509050919050565b600061089d612b67565b73ffffffffffffffffffffffffffffffffffffffff166108bb611eb6565b73ffffffffffffffffffffffffffffffffffffffff1614610911576040517f08c379a000000000000000000000000000000000000000000000000000000000815260040161090890614904565b60405180910390fd5b47905090565b61091f612b67565b73ffffffffffffffffffffffffffffffffffffffff1661093d611eb6565b73ffffffffffffffffffffffffffffffffffffffff1614610993576040517f08c379a000000000000000000000000000000000000000000000000000000000815260040161098a90614904565b60405180910390fd5b600e60019054906101000a900460ff1615600e60016101000a81548160ff021916908315150217905550565b6109c7612b67565b73ffffffffffffffffffffffffffffffffffffffff168573ffffffffffffffffffffffffffffffffffffffff161480610a0d5750610a0c85610a07612b67565b6128d0565b5b610a4c576040517f08c379a0000000000000000000000000000000000000000000000000000000008152600401610a4390614864565b60405180910390fd5b610a598585858585612b6f565b5050505050565b6000610a6a612b67565b73ffffffffffffffffffffffffffffffffffffffff16610a88611eb6565b73ffffffffffffffffffffffffffffffffffffffff1614610ade576040517f08c379a0000000000000000000000000000000000000000000000000000000008152600401610ad590614904565b60405180910390fd5b600460008373ffffffffffffffffffffffffffffffffffffffff1673ffffffffffffffffffffffffffffffffffffffff168152602001908152602001600020549050919050565b610b2d612b67565b73ffffffffffffffffffffffffffffffffffffffff16610b4b611eb6565b73ffffffffffffffffffffffffffffffffffffffff1614610ba1576040517f08c379a0000000000000000000000000000000000000000000000000000000008152600401610b9890614904565b60405180910390fd5b8060108190555050565b600e60019054906101000a900460ff1615610c47576000600460003373ffffffffffffffffffffffffffffffffffffffff1673ffffffffffffffffffffffffffffffffffffffff1681526020019081526020016000205411610c42576040517f08c379a0000000000000000000000000000000000000000000000000000000008152600401610c3990614a44565b60405180910390fd5b610c97565b600e60009054906101000a900460ff16610c96576040517f08c379a0000000000000000000000000000000000000000000000000000000008152600401610c8d90614884565b60405180910390fd5b5b67016345785d8a0000341015610ce2576040517f08c379a0000000000000000000000000000000000000000000000000000000008152600401610cd990614a24565b60405180910390fd5b6000600c60003373ffffffffffffffffffffffffffffffffffffffff1673ffffffffffffffffffffffffffffffffffffffff1681526020019081526020016000205414610d64576040517f08c379a0000000000000000000000000000000000000000000000000000000008152600401610d5b90614984565b60405180910390fd5b6000600b5411610da9576040517f08c379a0000000000000000000000000000000000000000000000000000000008152600401610da090614924565b60405180910390fd5b3273ffffffffffffffffffffffffffffffffffffffff163373ffffffffffffffffffffffffffffffffffffffff1614610e17576040517f08c379a0000000000000000000000000000000000000000000000000000000008152600401610e0e90614824565b60405180910390fd5b6000600667ffffffffffffffff811115610e5a577f4e487b7100000000000000000000000000000000000000000000000000000000600052604160045260246000fd5b604051908082528060200260200182016040528015610e885781602001602082028036833780820191505090505b5090506000600667ffffffffffffffff811115610ece577f4e487b7100000000000000000000000000000000000000000000000000000000600052604160045260246000fd5b604051908082528060200260200182016040528015610efc5781602001602082028036833780820191505090505b509050600182600081518110610f3b577f4e487b7100000000000000000000000000000000000000000000000000000000600052603260045260246000fd5b602002602001018181525050600182600181518110610f83577f4e487b7100000000000000000000000000000000000000000000000000000000600052603260045260246000fd5b602002602001018181525050600182600281518110610fcb577f4e487b7100000000000000000000000000000000000000000000000000000000600052603260045260246000fd5b602002602001018181525050600182600381518110611013577f4e487b7100000000000000000000000000000000000000000000000000000000600052603260045260246000fd5b60200260200101818152505060018260048151811061105b577f4e487b7100000000000000000000000000000000000000000000000000000000600052603260045260246000fd5b6020026020010181815250506003826005815181106110a3577f4e487b7100000000000000000000000000000000000000000000000000000000600052603260045260246000fd5b602002602001018181525050600854816000815181106110ec577f4e487b7100000000000000000000000000000000000000000000000000000000600052603260045260246000fd5b6020026020010181815250506008600081548092919061110b90614d94565b91905055506008548160018151811061114d577f4e487b7100000000000000000000000000000000000000000000000000000000600052603260045260246000fd5b6020026020010181815250506008600081548092919061116c90614d94565b9190505550600854816002815181106111ae577f4e487b7100000000000000000000000000000000000000000000000000000000600052603260045260246000fd5b602002602001018181525050600860008154809291906111cd90614d94565b91905055506008548160038151811061120f577f4e487b7100000000000000000000000000000000000000000000000000000000600052603260045260246000fd5b6020026020010181815250506008600081548092919061122e90614d94565b919050555060095481600481518110611270577f4e487b7100000000000000000000000000000000000000000000000000000000600052603260045260246000fd5b6020026020010181815250506009600081548092919061128f90614d94565b91905055506000816005815181106112d0577f4e487b7100000000000000000000000000000000000000000000000000000000600052603260045260246000fd5b602002602001018181525050600c60003373ffffffffffffffffffffffffffffffffffffffff1673ffffffffffffffffffffffffffffffffffffffff168152602001908152602001600020600081548092919061132c90614d94565b919050555061134c33828460405180602001604052806000815250612ecf565b600360075461135b9190614c1d565b600781905550600b600081548092919061137490614d07565b91905055505050565b606081518351146113c3576040517f08c379a00000000000000000000000000000000000000000000000000000000081526004016113ba906149a4565b60405180910390fd5b6000835167ffffffffffffffff811115611406577f4e487b7100000000000000000000000000000000000000000000000000000000600052604160045260246000fd5b6040519080825280602002602001820160405280156114345781602001602082028036833780820191505090505b50905060005b8451811015611523576114cd85828151811061147f577f4e487b7100000000000000000000000000000000000000000000000000000000600052603260045260246000fd5b60200260200101518583815181106114c0577f4e487b7100000000000000000000000000000000000000000000000000000000600052603260045260246000fd5b6020026020010151610654565b828281518110611506577f4e487b7100000000000000000000000000000000000000000000000000000000600052603260045260246000fd5b6020026020010181815250508061151c90614d94565b905061143a565b508091505092915050565b611536612b67565b73ffffffffffffffffffffffffffffffffffffffff16611554611eb6565b73ffffffffffffffffffffffffffffffffffffffff16146115aa576040517f08c379a00000000000000000000000000000000000000000000000000000000081526004016115a190614904565b60405180910390fd5b80600f8190555050565b6000600754905090565b6115c6612b67565b73ffffffffffffffffffffffffffffffffffffffff166115e4611eb6565b73ffffffffffffffffffffffffffffffffffffffff161461163a576040517f08c379a000000000000000000000000000000000000000000000000000000000815260040161163190614904565b60405180910390fd5b6000471161167d576040517f08c379a000000000000000000000000000000000000000000000000000000000815260040161167490614944565b60405180910390fd5b3373ffffffffffffffffffffffffffffffffffffffff166108fc479081150290604051600060405180830381858888f193505050501580156116c3573d6000803e3d6000fd5b50565b6116ce612b67565b73ffffffffffffffffffffffffffffffffffffffff166116ec611eb6565b73ffffffffffffffffffffffffffffffffffffffff1614611742576040517f08c379a000000000000000000000000000000000000000000000000000000000815260040161173990614904565b60405180910390fd5b61174c6000613139565b565b6000600b54905090565b6000600367ffffffffffffffff81111561179b577f4e487b7100000000000000000000000000000000000000000000000000000000600052604160045260246000fd5b6040519080825280602002602001820160405280156117c95781602001602082028036833780820191505090505b5090506000600367ffffffffffffffff81111561180f577f4e487b7100000000000000000000000000000000000000000000000000000000600052604160045260246000fd5b60405190808252806020026020018201604052801561183d5781602001602082028036833780820191505090505b5090506000600367ffffffffffffffff811115611883577f4e487b7100000000000000000000000000000000000000000000000000000000600052604160045260246000fd5b6040519080825280602002602001820160405280156118b15781602001602082028036833780820191505090505b50905033836000815181106118ef577f4e487b7100000000000000000000000000000000000000000000000000000000600052603260045260246000fd5b602002602001019073ffffffffffffffffffffffffffffffffffffffff16908173ffffffffffffffffffffffffffffffffffffffff16815250503383600181518110611964577f4e487b7100000000000000000000000000000000000000000000000000000000600052603260045260246000fd5b602002602001019073ffffffffffffffffffffffffffffffffffffffff16908173ffffffffffffffffffffffffffffffffffffffff168152505033836002815181106119d9577f4e487b7100000000000000000000000000000000000000000000000000000000600052603260045260246000fd5b602002602001019073ffffffffffffffffffffffffffffffffffffffff16908173ffffffffffffffffffffffffffffffffffffffff16815250508582600081518110611a4e577f4e487b7100000000000000000000000000000000000000000000000000000000600052603260045260246000fd5b6020026020010181815250508482600181518110611a95577f4e487b7100000000000000000000000000000000000000000000000000000000600052603260045260246000fd5b602002602001018181525050600082600281518110611add577f4e487b7100000000000000000000000000000000000000000000000000000000600052603260045260246000fd5b602002602001018181525050611af3838361137d565b9050600081600081518110611b31577f4e487b7100000000000000000000000000000000000000000000000000000000600052603260045260246000fd5b602002602001015111611b79576040517f08c379a0000000000000000000000000000000000000000000000000000000008152600401611b70906148c4565b60405180910390fd5b600081600181518110611bb5577f4e487b7100000000000000000000000000000000000000000000000000000000600052603260045260246000fd5b602002602001015111611bfd576040517f08c379a0000000000000000000000000000000000000000000000000000000008152600401611bf4906148a4565b60405180910390fd5b600081600281518110611c39577f4e487b7100000000000000000000000000000000000000000000000000000000600052603260045260246000fd5b602002602001015111611c81576040517f08c379a0000000000000000000000000000000000000000000000000000000008152600401611c7890614a04565b60405180910390fd5b505050505050565b611c91612b67565b73ffffffffffffffffffffffffffffffffffffffff16611caf611eb6565b73ffffffffffffffffffffffffffffffffffffffff1614611d05576040517f08c379a0000000000000000000000000000000000000000000000000000000008152600401611cfc90614904565b60405180910390fd5b80600754611d139190614bc7565b6007819055507fe3d47dee33b959cc59941f840525125123544e1f194b235f340f0c6147697ac33382604051611d4a929190614685565b60405180910390a150565b611d5d612b67565b73ffffffffffffffffffffffffffffffffffffffff16611d7b611eb6565b73ffffffffffffffffffffffffffffffffffffffff1614611dd1576040517f08c379a0000000000000000000000000000000000000000000000000000000008152600401611dc890614904565b60405180910390fd5b60005b600580549050811015611e9d5760006004600060058481548110611e21577f4e487b7100000000000000000000000000000000000000000000000000000000600052603260045260246000fd5b9060005260206000200160009054906101000a900473ffffffffffffffffffffffffffffffffffffffff1673ffffffffffffffffffffffffffffffffffffffff1673ffffffffffffffffffffffffffffffffffffffff168152602001908152602001600020819055508080611e9590614d94565b915050611dd4565b5060056000611eac9190613aad565b8060068190555050565b6000600360009054906101000a900473ffffffffffffffffffffffffffffffffffffffff16905090565b6000611eea612b67565b73ffffffffffffffffffffffffffffffffffffffff16611f08611eb6565b73ffffffffffffffffffffffffffffffffffffffff1614611f5e576040517f08c379a0000000000000000000000000000000000000000000000000000000008152600401611f5590614904565b60405180910390fd5b600654905090565b611f6e612b67565b73ffffffffffffffffffffffffffffffffffffffff16611f8c611eb6565b73ffffffffffffffffffffffffffffffffffffffff1614611fe2576040517f08c379a0000000000000000000000000000000000000000000000000000000008152600401611fd990614904565b60405180910390fd5b80516006541015612028576040517f08c379a000000000000000000000000000000000000000000000000000000000815260040161201f906147c4565b60405180910390fd5b60005b815181101561216f57600160046000848481518110612073577f4e487b7100000000000000000000000000000000000000000000000000000000600052603260045260246000fd5b602002602001015173ffffffffffffffffffffffffffffffffffffffff1673ffffffffffffffffffffffffffffffffffffffff1681526020019081526020016000208190555060058282815181106120f4577f4e487b7100000000000000000000000000000000000000000000000000000000600052603260045260246000fd5b60200260200101519080600181540180825580915050600190039060005260206000200160009091909190916101000a81548173ffffffffffffffffffffffffffffffffffffffff021916908373ffffffffffffffffffffffffffffffffffffffff160217905550808061216790614d94565b91505061202b565b50805160065461217f9190614c1d565b60068190555050565b61219a612193612b67565b83836131ff565b5050565b6000600c60003373ffffffffffffffffffffffffffffffffffffffff1673ffffffffffffffffffffffffffffffffffffffff16815260200190815260200160002054905090565b6121ed612b67565b73ffffffffffffffffffffffffffffffffffffffff1661220b611eb6565b73ffffffffffffffffffffffffffffffffffffffff1614612261576040517f08c379a000000000000000000000000000000000000000000000000000000000815260040161225890614904565b60405180910390fd5b600e60009054906101000a900460ff1615600e60006101000a81548160ff021916908315150217905550565b612295612b67565b73ffffffffffffffffffffffffffffffffffffffff166122b3611eb6565b73ffffffffffffffffffffffffffffffffffffffff1614612309576040517f08c379a000000000000000000000000000000000000000000000000000000000815260040161230090614904565b60405180910390fd5b6000600a541161234e576040517f08c379a000000000000000000000000000000000000000000000000000000000815260040161234590614804565b60405180910390fd5b6000600667ffffffffffffffff811115612391577f4e487b7100000000000000000000000000000000000000000000000000000000600052604160045260246000fd5b6040519080825280602002602001820160405280156123bf5781602001602082028036833780820191505090505b5090506001816000815181106123fe577f4e487b7100000000000000000000000000000000000000000000000000000000600052603260045260246000fd5b602002602001018181525050600181600181518110612446577f4e487b7100000000000000000000000000000000000000000000000000000000600052603260045260246000fd5b60200260200101818152505060018160028151811061248e577f4e487b7100000000000000000000000000000000000000000000000000000000600052603260045260246000fd5b6020026020010181815250506001816003815181106124d6577f4e487b7100000000000000000000000000000000000000000000000000000000600052603260045260246000fd5b60200260200101818152505060018160048151811061251e577f4e487b7100000000000000000000000000000000000000000000000000000000600052603260045260246000fd5b602002602001018181525050600381600581518110612566577f4e487b7100000000000000000000000000000000000000000000000000000000600052603260045260246000fd5b6020026020010181815250506000600667ffffffffffffffff8111156125b5577f4e487b7100000000000000000000000000000000000000000000000000000000600052604160045260246000fd5b6040519080825280602002602001820160405280156125e35781602001602082028036833780820191505090505b50905060005b848490508110156128c95760085482600081518110612631577f4e487b7100000000000000000000000000000000000000000000000000000000600052603260045260246000fd5b6020026020010181815250506008600081548092919061265090614d94565b919050555060085482600181518110612692577f4e487b7100000000000000000000000000000000000000000000000000000000600052603260045260246000fd5b602002602001018181525050600860008154809291906126b190614d94565b9190505550600854826002815181106126f3577f4e487b7100000000000000000000000000000000000000000000000000000000600052603260045260246000fd5b6020026020010181815250506008600081548092919061271290614d94565b919050555060085482600381518110612754577f4e487b7100000000000000000000000000000000000000000000000000000000600052603260045260246000fd5b6020026020010181815250506008600081548092919061277390614d94565b9190505550600954826004815181106127b5577f4e487b7100000000000000000000000000000000000000000000000000000000600052603260045260246000fd5b602002602001018181525050600960008154809291906127d490614d94565b9190505550600082600581518110612815577f4e487b7100000000000000000000000000000000000000000000000000000000600052603260045260246000fd5b60200260200101818152505061288985858381811061285d577f4e487b7100000000000000000000000000000000000000000000000000000000600052603260045260246000fd5b90506020020160208101906128729190613d32565b838560405180602001604052806000815250612ecf565b60036007546128989190614c1d565b600781905550600a60008154809291906128b190614d07565b919050555080806128c190614d94565b9150506125e9565b5050505050565b6000600160008473ffffffffffffffffffffffffffffffffffffffff1673ffffffffffffffffffffffffffffffffffffffff16815260200190815260200160002060008373ffffffffffffffffffffffffffffffffffffffff1673ffffffffffffffffffffffffffffffffffffffff16815260200190815260200160002060009054906101000a900460ff16905092915050565b61296c612b67565b73ffffffffffffffffffffffffffffffffffffffff168573ffffffffffffffffffffffffffffffffffffffff1614806129b257506129b1856129ac612b67565b6128d0565b5b6129f1576040517f08c379a00000000000000000000000000000000000000000000000000000000081526004016129e8906147e4565b60405180910390fd5b6129fe858585858561336c565b5050505050565b612a0d612b67565b73ffffffffffffffffffffffffffffffffffffffff16612a2b611eb6565b73ffffffffffffffffffffffffffffffffffffffff1614612a81576040517f08c379a0000000000000000000000000000000000000000000000000000000008152600401612a7890614904565b60405180910390fd5b600073ffffffffffffffffffffffffffffffffffffffff168173ffffffffffffffffffffffffffffffffffffffff161415612af1576040517f08c379a0000000000000000000000000000000000000000000000000000000008152600401612ae8906147a4565b60405180910390fd5b612afa81613139565b50565b60007f01ffc9a7000000000000000000000000000000000000000000000000000000007bffffffffffffffffffffffffffffffffffffffffffffffffffffffff1916827bffffffffffffffffffffffffffffffffffffffffffffffffffffffff1916149050919050565b600033905090565b8151835114612bb3576040517f08c379a0000000000000000000000000000000000000000000000000000000008152600401612baa906149c4565b60405180910390fd5b600073ffffffffffffffffffffffffffffffffffffffff168473ffffffffffffffffffffffffffffffffffffffff161415612c23576040517f08c379a0000000000000000000000000000000000000000000000000000000008152600401612c1a90614844565b60405180910390fd5b6000612c2d612b67565b9050612c3d8187878787876135ee565b60005b8451811015612e3a576000858281518110612c84577f4e487b7100000000000000000000000000000000000000000000000000000000600052603260045260246000fd5b602002602001015190506000858381518110612cc9577f4e487b7100000000000000000000000000000000000000000000000000000000600052603260045260246000fd5b60200260200101519050600080600084815260200190815260200160002060008b73ffffffffffffffffffffffffffffffffffffffff1673ffffffffffffffffffffffffffffffffffffffff16815260200190815260200160002054905081811015612d6a576040517f08c379a0000000000000000000000000000000000000000000000000000000008152600401612d61906148e4565b60405180910390fd5b81810360008085815260200190815260200160002060008c73ffffffffffffffffffffffffffffffffffffffff1673ffffffffffffffffffffffffffffffffffffffff168152602001908152602001600020819055508160008085815260200190815260200160002060008b73ffffffffffffffffffffffffffffffffffffffff1673ffffffffffffffffffffffffffffffffffffffff1681526020019081526020016000206000828254612e1f9190614bc7565b9250508190555050505080612e3390614d94565b9050612c40565b508473ffffffffffffffffffffffffffffffffffffffff168673ffffffffffffffffffffffffffffffffffffffff168273ffffffffffffffffffffffffffffffffffffffff167f4a39dc06d4c0dbc64b70af90fd698a233a518aa5d07e595d983b8c0526c8f7fb8787604051612eb19291906146d0565b60405180910390a4612ec78187878787876135f6565b505050505050565b600073ffffffffffffffffffffffffffffffffffffffff168473ffffffffffffffffffffffffffffffffffffffff161415612f3f576040517f08c379a0000000000000000000000000000000000000000000000000000000008152600401612f36906149e4565b60405180910390fd5b8151835114612f83576040517f08c379a0000000000000000000000000000000000000000000000000000000008152600401612f7a906149c4565b60405180910390fd5b6000612f8d612b67565b9050612f9e816000878787876135ee565b60005b84518110156130a357838181518110612fe3577f4e487b7100000000000000000000000000000000000000000000000000000000600052603260045260246000fd5b6020026020010151600080878481518110613027577f4e487b7100000000000000000000000000000000000000000000000000000000600052603260045260246000fd5b6020026020010151815260200190815260200160002060008873ffffffffffffffffffffffffffffffffffffffff1673ffffffffffffffffffffffffffffffffffffffff16815260200190815260200160002060008282546130899190614bc7565b92505081905550808061309b90614d94565b915050612fa1565b508473ffffffffffffffffffffffffffffffffffffffff16600073ffffffffffffffffffffffffffffffffffffffff168273ffffffffffffffffffffffffffffffffffffffff167f4a39dc06d4c0dbc64b70af90fd698a233a518aa5d07e595d983b8c0526c8f7fb878760405161311b9291906146d0565b60405180910390a4613132816000878787876135f6565b5050505050565b6000600360009054906101000a900473ffffffffffffffffffffffffffffffffffffffff16905081600360006101000a81548173ffffffffffffffffffffffffffffffffffffffff021916908373ffffffffffffffffffffffffffffffffffffffff1602179055508173ffffffffffffffffffffffffffffffffffffffff168173ffffffffffffffffffffffffffffffffffffffff167f8be0079c531659141344cd1fd0a4f28419497f9722a3daafe3b4186f6b6457e060405160405180910390a35050565b8173ffffffffffffffffffffffffffffffffffffffff168373ffffffffffffffffffffffffffffffffffffffff16141561326e576040517f08c379a000000000000000000000000000000000000000000000000000000000815260040161326590614964565b60405180910390fd5b80600160008573ffffffffffffffffffffffffffffffffffffffff1673ffffffffffffffffffffffffffffffffffffffff16815260200190815260200160002060008473ffffffffffffffffffffffffffffffffffffffff1673ffffffffffffffffffffffffffffffffffffffff16815260200190815260200160002060006101000a81548160ff0219169083151502179055508173ffffffffffffffffffffffffffffffffffffffff168373ffffffffffffffffffffffffffffffffffffffff167f17307eab39ab6107e8899845ad3d59bd9653f200f220920489ca2b5937696c318360405161335f9190614707565b60405180910390a3505050565b600073ffffffffffffffffffffffffffffffffffffffff168473ffffffffffffffffffffffffffffffffffffffff1614156133dc576040517f08c379a00000000000000000000000000000000000000000000000000000000081526004016133d390614844565b60405180910390fd5b60006133e6612b67565b90506134068187876133f7886137dd565b613400886137dd565b876135ee565b600080600086815260200190815260200160002060008873ffffffffffffffffffffffffffffffffffffffff1673ffffffffffffffffffffffffffffffffffffffff1681526020019081526020016000205490508381101561349d576040517f08c379a0000000000000000000000000000000000000000000000000000000008152600401613494906148e4565b60405180910390fd5b83810360008087815260200190815260200160002060008973ffffffffffffffffffffffffffffffffffffffff1673ffffffffffffffffffffffffffffffffffffffff168152602001908152602001600020819055508360008087815260200190815260200160002060008873ffffffffffffffffffffffffffffffffffffffff1673ffffffffffffffffffffffffffffffffffffffff16815260200190815260200160002060008282546135529190614bc7565b925050819055508573ffffffffffffffffffffffffffffffffffffffff168773ffffffffffffffffffffffffffffffffffffffff168373ffffffffffffffffffffffffffffffffffffffff167fc3d58168c5ae7397731d063d5bbf3d657854427343f4c083240f7aacaa2d0f6288886040516135cf929190614a7f565b60405180910390a46135e58288888888886138a3565b50505050505050565b505050505050565b6136158473ffffffffffffffffffffffffffffffffffffffff16613a8a565b156137d5578373ffffffffffffffffffffffffffffffffffffffff1663bc197c8187878686866040518663ffffffff1660e01b815260040161365b9594939291906145c3565b602060405180830381600087803b15801561367557600080fd5b505af19250505080156136a657506040513d601f19601f820116820180604052508101906136a39190614078565b60015b61374c576136b2614e6a565b806308c379a0141561370f57506136c7615557565b806136d25750613711565b806040517f08c379a00000000000000000000000000000000000000000000000000000000081526004016137069190614722565b60405180910390fd5b505b6040517f08c379a000000000000000000000000000000000000000000000000000000000815260040161374390614744565b60405180910390fd5b63bc197c8160e01b7bffffffffffffffffffffffffffffffffffffffffffffffffffffffff1916817bffffffffffffffffffffffffffffffffffffffffffffffffffffffff1916146137d3576040517f08c379a00000000000000000000000000000000000000000000000000000000081526004016137ca90614764565b60405180910390fd5b505b505050505050565b60606000600167ffffffffffffffff811115613822577f4e487b7100000000000000000000000000000000000000000000000000000000600052604160045260246000fd5b6040519080825280602002602001820160405280156138505781602001602082028036833780820191505090505b509050828160008151811061388e577f4e487b7100000000000000000000000000000000000000000000000000000000600052603260045260246000fd5b60200260200101818152505080915050919050565b6138c28473ffffffffffffffffffffffffffffffffffffffff16613a8a565b15613a82578373ffffffffffffffffffffffffffffffffffffffff1663f23a6e6187878686866040518663ffffffff1660e01b815260040161390895949392919061462b565b602060405180830381600087803b15801561392257600080fd5b505af192505050801561395357506040513d601f19601f820116820180604052508101906139509190614078565b60015b6139f95761395f614e6a565b806308c379a014156139bc5750613974615557565b8061397f57506139be565b806040517f08c379a00000000000000000000000000000000000000000000000000000000081526004016139b39190614722565b60405180910390fd5b505b6040517f08c379a00000000000000000000000000000000000000000000000000000000081526004016139f090614744565b60405180910390fd5b63f23a6e6160e01b7bffffffffffffffffffffffffffffffffffffffffffffffffffffffff1916817bffffffffffffffffffffffffffffffffffffffffffffffffffffffff191614613a80576040517f08c379a0000000000000000000000000000000000000000000000000000000008152600401613a7790614764565b60405180910390fd5b505b505050505050565b6000808273ffffffffffffffffffffffffffffffffffffffff163b119050919050565b5080546000825590600052602060002090810190613acb9190613ace565b50565b5b80821115613ae7576000816000905550600101613acf565b5090565b6000613afe613af984614acd565b614aa8565b90508083825260208201905082856020860282011115613b1d57600080fd5b60005b85811015613b4d5781613b338882613c01565b845260208401935060208301925050600181019050613b20565b5050509392505050565b6000613b6a613b6584614af9565b614aa8565b90508083825260208201905082856020860282011115613b8957600080fd5b60005b85811015613bb95781613b9f8882613d1d565b845260208401935060208301925050600181019050613b8c565b5050509392505050565b6000613bd6613bd184614b25565b614aa8565b905082815260208101848484011115613bee57600080fd5b613bf9848285614cc5565b509392505050565b600081359050613c10816155ed565b92915050565b60008083601f840112613c2857600080fd5b8235905067ffffffffffffffff811115613c4157600080fd5b602083019150836020820283011115613c5957600080fd5b9250929050565b600082601f830112613c7157600080fd5b8135613c81848260208601613aeb565b91505092915050565b600082601f830112613c9b57600080fd5b8135613cab848260208601613b57565b91505092915050565b600081359050613cc381615604565b92915050565b600081359050613cd88161561b565b92915050565b600081519050613ced8161561b565b92915050565b600082601f830112613d0457600080fd5b8135613d14848260208601613bc3565b91505092915050565b600081359050613d2c81615632565b92915050565b600060208284031215613d4457600080fd5b6000613d5284828501613c01565b91505092915050565b60008060408385031215613d6e57600080fd5b6000613d7c85828601613c01565b9250506020613d8d85828601613c01565b9150509250929050565b600080600080600060a08688031215613daf57600080fd5b6000613dbd88828901613c01565b9550506020613dce88828901613c01565b945050604086013567ffffffffffffffff811115613deb57600080fd5b613df788828901613c8a565b935050606086013567ffffffffffffffff811115613e1457600080fd5b613e2088828901613c8a565b925050608086013567ffffffffffffffff811115613e3d57600080fd5b613e4988828901613cf3565b9150509295509295909350565b600080600080600060a08688031215613e6e57600080fd5b6000613e7c88828901613c01565b9550506020613e8d88828901613c01565b9450506040613e9e88828901613d1d565b9350506060613eaf88828901613d1d565b925050608086013567ffffffffffffffff811115613ecc57600080fd5b613ed888828901613cf3565b9150509295509295909350565b60008060408385031215613ef857600080fd5b6000613f0685828601613c01565b9250506020613f1785828601613cb4565b9150509250929050565b60008060408385031215613f3457600080fd5b6000613f4285828601613c01565b9250506020613f5385828601613d1d565b9150509250929050565b60008060208385031215613f7057600080fd5b600083013567ffffffffffffffff811115613f8a57600080fd5b613f9685828601613c16565b92509250509250929050565b600060208284031215613fb457600080fd5b600082013567ffffffffffffffff811115613fce57600080fd5b613fda84828501613c60565b91505092915050565b60008060408385031215613ff657600080fd5b600083013567ffffffffffffffff81111561401057600080fd5b61401c85828601613c60565b925050602083013567ffffffffffffffff81111561403957600080fd5b61404585828601613c8a565b9150509250929050565b60006020828403121561406157600080fd5b600061406f84828501613cc9565b91505092915050565b60006020828403121561408a57600080fd5b600061409884828501613cde565b91505092915050565b6000602082840312156140b357600080fd5b60006140c184828501613d1d565b91505092915050565b6000806000606084860312156140df57600080fd5b60006140ed86828701613d1d565b93505060206140fe86828701613d1d565b925050604061410f86828701613d1d565b9150509250925092565b6000614125838361458a565b60208301905092915050565b61413a81614c51565b82525050565b600061414b82614b66565b6141558185614b94565b935061416083614b56565b8060005b838110156141915781516141788882614119565b975061418383614b87565b925050600181019050614164565b5085935050505092915050565b6141a781614c63565b82525050565b60006141b882614b71565b6141c28185614ba5565b93506141d2818560208601614cd4565b6141db81614e8c565b840191505092915050565b60006141f182614b7c565b6141fb8185614bb6565b935061420b818560208601614cd4565b61421481614e8c565b840191505092915050565b600061422c603483614bb6565b915061423782614eaa565b604082019050919050565b600061424f602883614bb6565b915061425a82614ef9565b604082019050919050565b6000614272602b83614bb6565b915061427d82614f48565b604082019050919050565b6000614295602683614bb6565b91506142a082614f97565b604082019050919050565b60006142b8601983614bb6565b91506142c382614fe6565b602082019050919050565b60006142db602983614bb6565b91506142e68261500f565b604082019050919050565b60006142fe601183614bb6565b91506143098261505e565b602082019050919050565b6000614321602583614bb6565b915061432c82615087565b604082019050919050565b6000614344602583614bb6565b915061434f826150d6565b604082019050919050565b6000614367603283614bb6565b915061437282615125565b604082019050919050565b600061438a601983614bb6565b915061439582615174565b602082019050919050565b60006143ad602183614bb6565b91506143b88261519d565b604082019050919050565b60006143d0601d83614bb6565b91506143db826151ec565b602082019050919050565b60006143f3602a83614bb6565b91506143fe82615215565b604082019050919050565b6000614416602083614bb6565b915061442182615264565b602082019050919050565b6000614439601c83614bb6565b91506144448261528d565b602082019050919050565b600061445c601483614bb6565b9150614467826152b6565b602082019050919050565b600061447f602983614bb6565b915061448a826152df565b604082019050919050565b60006144a2603383614bb6565b91506144ad8261532e565b604082019050919050565b60006144c5602983614bb6565b91506144d08261537d565b604082019050919050565b60006144e8602883614bb6565b91506144f3826153cc565b604082019050919050565b600061450b602183614bb6565b91506145168261541b565b604082019050919050565b600061452e602583614bb6565b91506145398261546a565b604082019050919050565b6000614551602883614bb6565b915061455c826154b9565b604082019050919050565b6000614574602a83614bb6565b915061457f82615508565b604082019050919050565b61459381614cbb565b82525050565b6145a281614cbb565b82525050565b60006020820190506145bd6000830184614131565b92915050565b600060a0820190506145d86000830188614131565b6145e56020830187614131565b81810360408301526145f78186614140565b9050818103606083015261460b8185614140565b9050818103608083015261461f81846141ad565b90509695505050505050565b600060a0820190506146406000830188614131565b61464d6020830187614131565b61465a6040830186614599565b6146676060830185614599565b818103608083015261467981846141ad565b90509695505050505050565b600060408201905061469a6000830185614131565b6146a76020830184614599565b9392505050565b600060208201905081810360008301526146c88184614140565b905092915050565b600060408201905081810360008301526146ea8185614140565b905081810360208301526146fe8184614140565b90509392505050565b600060208201905061471c600083018461419e565b92915050565b6000602082019050818103600083015261473c81846141e6565b905092915050565b6000602082019050818103600083015261475d8161421f565b9050919050565b6000602082019050818103600083015261477d81614242565b9050919050565b6000602082019050818103600083015261479d81614265565b9050919050565b600060208201905081810360008301526147bd81614288565b9050919050565b600060208201905081810360008301526147dd816142ab565b9050919050565b600060208201905081810360008301526147fd816142ce565b9050919050565b6000602082019050818103600083015261481d816142f1565b9050919050565b6000602082019050818103600083015261483d81614314565b9050919050565b6000602082019050818103600083015261485d81614337565b9050919050565b6000602082019050818103600083015261487d8161435a565b9050919050565b6000602082019050818103600083015261489d8161437d565b9050919050565b600060208201905081810360008301526148bd816143a0565b9050919050565b600060208201905081810360008301526148dd816143c3565b9050919050565b600060208201905081810360008301526148fd816143e6565b9050919050565b6000602082019050818103600083015261491d81614409565b9050919050565b6000602082019050818103600083015261493d8161442c565b9050919050565b6000602082019050818103600083015261495d8161444f565b9050919050565b6000602082019050818103600083015261497d81614472565b9050919050565b6000602082019050818103600083015261499d81614495565b9050919050565b600060208201905081810360008301526149bd816144b8565b9050919050565b600060208201905081810360008301526149dd816144db565b9050919050565b600060208201905081810360008301526149fd816144fe565b9050919050565b60006020820190508181036000830152614a1d81614521565b9050919050565b60006020820190508181036000830152614a3d81614544565b9050919050565b60006020820190508181036000830152614a5d81614567565b9050919050565b6000602082019050614a796000830184614599565b92915050565b6000604082019050614a946000830185614599565b614aa16020830184614599565b9392505050565b6000614ab2614ac3565b9050614abe8282614d63565b919050565b6000604051905090565b600067ffffffffffffffff821115614ae857614ae7614e3b565b5b602082029050602081019050919050565b600067ffffffffffffffff821115614b1457614b13614e3b565b5b602082029050602081019050919050565b600067ffffffffffffffff821115614b4057614b3f614e3b565b5b614b4982614e8c565b9050602081019050919050565b6000819050602082019050919050565b600081519050919050565b600081519050919050565b600081519050919050565b6000602082019050919050565b600082825260208201905092915050565b600082825260208201905092915050565b600082825260208201905092915050565b6000614bd282614cbb565b9150614bdd83614cbb565b9250827fffffffffffffffffffffffffffffffffffffffffffffffffffffffffffffffff03821115614c1257614c11614ddd565b5b828201905092915050565b6000614c2882614cbb565b9150614c3383614cbb565b925082821015614c4657614c45614ddd565b5b828203905092915050565b6000614c5c82614c9b565b9050919050565b60008115159050919050565b60007fffffffff0000000000000000000000000000000000000000000000000000000082169050919050565b600073ffffffffffffffffffffffffffffffffffffffff82169050919050565b6000819050919050565b82818337600083830152505050565b60005b83811015614cf2578082015181840152602081019050614cd7565b83811115614d01576000848401525b50505050565b6000614d1282614cbb565b91506000821415614d2657614d25614ddd565b5b600182039050919050565b60006002820490506001821680614d4957607f821691505b60208210811415614d5d57614d5c614e0c565b5b50919050565b614d6c82614e8c565b810181811067ffffffffffffffff82111715614d8b57614d8a614e3b565b5b80604052505050565b6000614d9f82614cbb565b91507fffffffffffffffffffffffffffffffffffffffffffffffffffffffffffffffff821415614dd257614dd1614ddd565b5b600182019050919050565b7f4e487b7100000000000000000000000000000000000000000000000000000000600052601160045260246000fd5b7f4e487b7100000000000000000000000000000000000000000000000000000000600052602260045260246000fd5b7f4e487b7100000000000000000000000000000000000000000000000000000000600052604160045260246000fd5b600060033d1115614e895760046000803e614e86600051614e9d565b90505b90565b6000601f19601f8301169050919050565b60008160e01c9050919050565b7f455243313135353a207472616e7366657220746f206e6f6e204552433131353560008201527f526563656976657220696d706c656d656e746572000000000000000000000000602082015250565b7f455243313135353a204552433131353552656365697665722072656a6563746560008201527f6420746f6b656e73000000000000000000000000000000000000000000000000602082015250565b7f455243313135353a2062616c616e636520717565727920666f7220746865207a60008201527f65726f2061646472657373000000000000000000000000000000000000000000602082015250565b7f4f776e61626c653a206e6577206f776e657220697320746865207a65726f206160008201527f6464726573730000000000000000000000000000000000000000000000000000602082015250565b7f4e6f7420456e6f756768205649462073706f7473206c65667400000000000000600082015250565b7f455243313135353a2063616c6c6572206973206e6f74206f776e6572206e6f7260008201527f20617070726f7665640000000000000000000000000000000000000000000000602082015250565b7f4f7574206f66204769766561776179732e000000000000000000000000000000600082015250565b7f436f6e74726163742063616c6c732063616e6e6f74206d696e74206f7572207360008201527f7570706c79000000000000000000000000000000000000000000000000000000602082015250565b7f455243313135353a207472616e7366657220746f20746865207a65726f20616460008201527f6472657373000000000000000000000000000000000000000000000000000000602082015250565b7f455243313135353a207472616e736665722063616c6c6572206973206e6f742060008201527f6f776e6572206e6f7220617070726f7665640000000000000000000000000000602082015250565b7f5075626c69632073616c65206973206e6f742061637469766500000000000000600082015250565b7f596f7520646f206e6f74206f776e2074686520666f7572496e4f6e65546f6b6560008201527f6e00000000000000000000000000000000000000000000000000000000000000602082015250565b7f596f7520646f206e6f74206f776e20746865206672756974746f6b656e000000600082015250565b7f455243313135353a20696e73756666696369656e742062616c616e636520666f60008201527f72207472616e7366657200000000000000000000000000000000000000000000602082015250565b7f4f776e61626c653a2063616c6c6572206973206e6f7420746865206f776e6572600082015250565b7f416c6c20426174636865732068617665206265656e206d696e74656400000000600082015250565b7f4e6f20657468657220696e20636f6e7472616374000000000000000000000000600082015250565b7f455243313135353a2073657474696e6720617070726f76616c2073746174757360008201527f20666f722073656c660000000000000000000000000000000000000000000000602082015250565b7f43616e6e6f74207075726368617365206d6f7265207468616e206f6e6520626160008201527f746368206d696e74207065722077616c6c657400000000000000000000000000602082015250565b7f455243313135353a206163636f756e747320616e6420696473206c656e67746860008201527f206d69736d617463680000000000000000000000000000000000000000000000602082015250565b7f455243313135353a2069647320616e6420616d6f756e7473206c656e6774682060008201527f6d69736d61746368000000000000000000000000000000000000000000000000602082015250565b7f455243313135353a206d696e7420746f20746865207a65726f2061646472657360008201527f7300000000000000000000000000000000000000000000000000000000000000602082015250565b7f596f7520646f206e6f74206f776e2061207265636569707420666f722065786360008201527f68616e6765000000000000000000000000000000000000000000000000000000602082015250565b7f4e6f7420656e6f756768206574686572207761732073656e7420746f2074726160008201527f6e73616374696f6e000000000000000000000000000000000000000000000000602082015250565b7f50726573616c65206973206163746976652062757420796f752772652061726560008201527f206e6f7420612056494600000000000000000000000000000000000000000000602082015250565b600060443d1015615567576155ea565b61556f614ac3565b60043d036004823e80513d602482011167ffffffffffffffff821117156155975750506155ea565b808201805167ffffffffffffffff8111156155b557505050506155ea565b80602083010160043d0385018111156155d25750505050506155ea565b6155e182602001850186614d63565b82955050505050505b90565b6155f681614c51565b811461560157600080fd5b50565b61560d81614c63565b811461561857600080fd5b50565b61562481614c6f565b811461562f57600080fd5b50565b61563b81614cbb565b811461564657600080fd5b5056fea264697066735822122069a388cabc5900c9e34fedc4ab6e29b6fd2dc1965599b1315db4ffb7b7f6388a64736f6c63430008040033",
  "linkReferences": {},
  "deployedLinkReferences": {}
}