{
  "_format": "hh-sol-artifact-1",
  "contractName": "DemoDapp",
  "sourceName": "contracts/DemoDapp.sol",
  "abi": [
    {
      "inputs": [
        {
          "internalType": "string",
          "name": "uri",
          "type": "string"
        }
      ],
      "stateMutability": "nonpayable",
      "type": "constructor"
    },
    {
      "anonymous": false,
      "inputs": [
        {
          "indexed": true,
          "internalType": "address",
          "name": "account",
          "type": "address"
        },
        {
          "indexed": true,
          "internalType": "address",
          "name": "operator",
          "type": "address"
        },
        {
          "indexed": false,
          "internalType": "bool",
          "name": "approved",
          "type": "bool"
        }
      ],
      "name": "ApprovalForAll",
      "type": "event"
    },
    {
      "anonymous": false,
      "inputs": [
        {
          "indexed": false,
          "internalType": "address",
          "name": "_sender",
          "type": "address"
        },
        {
          "indexed": false,
          "internalType": "uint256",
          "name": "_supply",
          "type": "uint256"
        }
      ],
      "name": "IncreaseReceiptSupply",
      "type": "event"
    },
    {
      "anonymous": false,
      "inputs": [
        {
          "indexed": true,
          "internalType": "address",
          "name": "previousOwner",
          "type": "address"
        },
        {
          "indexed": true,
          "internalType": "address",
          "name": "newOwner",
          "type": "address"
        }
      ],
      "name": "OwnershipTransferred",
      "type": "event"
    },
    {
      "anonymous": false,
      "inputs": [
        {
          "indexed": false,
          "internalType": "uint256",
          "name": "_presaleStartTime",
          "type": "uint256"
        },
        {
          "indexed": false,
          "internalType": "uint256",
          "name": "_saleStartTime",
          "type": "uint256"
        }
      ],
      "name": "SaleHasBeenSet",
      "type": "event"
    },
    {
      "anonymous": false,
      "inputs": [
        {
          "indexed": true,
          "internalType": "address",
          "name": "operator",
          "type": "address"
        },
        {
          "indexed": true,
          "internalType": "address",
          "name": "from",
          "type": "address"
        },
        {
          "indexed": true,
          "internalType": "address",
          "name": "to",
          "type": "address"
        },
        {
          "indexed": false,
          "internalType": "uint256[]",
          "name": "ids",
          "type": "uint256[]"
        },
        {
          "indexed": false,
          "internalType": "uint256[]",
          "name": "values",
          "type": "uint256[]"
        }
      ],
      "name": "TransferBatch",
      "type": "event"
    },
    {
      "anonymous": false,
      "inputs": [
        {
          "indexed": true,
          "internalType": "address",
          "name": "operator",
          "type": "address"
        },
        {
          "indexed": true,
          "internalType": "address",
          "name": "from",
          "type": "address"
        },
        {
          "indexed": true,
          "internalType": "address",
          "name": "to",
          "type": "address"
        },
        {
          "indexed": false,
          "internalType": "uint256",
          "name": "id",
          "type": "uint256"
        },
        {
          "indexed": false,
          "internalType": "uint256",
          "name": "value",
          "type": "uint256"
        }
      ],
      "name": "TransferSingle",
      "type": "event"
    },
    {
      "anonymous": false,
      "inputs": [
        {
          "indexed": false,
          "internalType": "string",
          "name": "value",
          "type": "string"
        },
        {
          "indexed": true,
          "internalType": "uint256",
          "name": "id",
          "type": "uint256"
        }
      ],
      "name": "URI",
      "type": "event"
    },
    {
      "inputs": [
        {
          "internalType": "address",
          "name": "account",
          "type": "address"
        },
        {
          "internalType": "uint256",
          "name": "id",
          "type": "uint256"
        }
      ],
      "name": "balanceOf",
      "outputs": [
        {
          "internalType": "uint256",
          "name": "",
          "type": "uint256"
        }
      ],
      "stateMutability": "view",
      "type": "function"
    },
    {
      "inputs": [
        {
          "internalType": "address[]",
          "name": "accounts",
          "type": "address[]"
        },
        {
          "internalType": "uint256[]",
          "name": "ids",
          "type": "uint256[]"
        }
      ],
      "name": "balanceOfBatch",
      "outputs": [
        {
          "internalType": "uint256[]",
          "name": "",
          "type": "uint256[]"
        }
      ],
      "stateMutability": "view",
      "type": "function"
    },
    {
      "inputs": [
        {
          "internalType": "uint256",
          "name": "_fruitTokenId",
          "type": "uint256"
        },
        {
          "internalType": "uint256",
          "name": "_fourInOneTokenId",
          "type": "uint256"
        },
        {
          "internalType": "uint256",
          "name": "_quadrant",
          "type": "uint256"
        }
      ],
      "name": "cuteeExchange",
      "outputs": [],
      "stateMutability": "nonpayable",
      "type": "function"
    },
    {
      "inputs": [],
      "name": "getBalance",
      "outputs": [
        {
          "internalType": "uint256",
          "name": "",
          "type": "uint256"
        }
      ],
      "stateMutability": "view",
      "type": "function"
    },
    {
      "inputs": [],
      "name": "getBundleBalance",
      "outputs": [
        {
          "internalType": "uint256",
          "name": "",
          "type": "uint256"
        }
      ],
      "stateMutability": "view",
      "type": "function"
    },
    {
      "inputs": [],
      "name": "getBundleSupply",
      "outputs": [
        {
          "internalType": "uint256",
          "name": "",
          "type": "uint256"
        }
      ],
      "stateMutability": "view",
      "type": "function"
    },
    {
      "inputs": [],
      "name": "getReceiptSupply",
      "outputs": [
        {
          "internalType": "uint256",
          "name": "",
          "type": "uint256"
        }
      ],
      "stateMutability": "view",
      "type": "function"
    },
    {
      "inputs": [
        {
          "internalType": "address",
          "name": "_address",
          "type": "address"
        }
      ],
      "name": "getVIF",
      "outputs": [
        {
          "internalType": "uint256",
          "name": "",
          "type": "uint256"
        }
      ],
      "stateMutability": "view",
      "type": "function"
    },
    {
      "inputs": [],
      "name": "getVIFLeft",
      "outputs": [
        {
          "internalType": "uint256",
          "name": "",
          "type": "uint256"
        }
      ],
      "stateMutability": "view",
      "type": "function"
    },
    {
      "inputs": [
        {
          "internalType": "address[]",
          "name": "_to",
          "type": "address[]"
        }
      ],
      "name": "giveawayMintBatch",
      "outputs": [],
      "stateMutability": "nonpayable",
      "type": "function"
    },
    {
      "inputs": [
        {
          "internalType": "uint256",
          "name": "_supply",
          "type": "uint256"
        }
      ],
      "name": "increaseReceiptSupply",
      "outputs": [],
      "stateMutability": "nonpayable",
      "type": "function"
    },
    {
      "inputs": [
        {
          "internalType": "address",
          "name": "account",
          "type": "address"
        },
        {
          "internalType": "address",
          "name": "operator",
          "type": "address"
        }
      ],
      "name": "isApprovedForAll",
      "outputs": [
        {
          "internalType": "bool",
          "name": "",
          "type": "bool"
        }
      ],
      "stateMutability": "view",
      "type": "function"
    },
    {
      "inputs": [],
      "name": "mintBundle",
      "outputs": [],
      "stateMutability": "payable",
      "type": "function"
    },
    {
      "inputs": [],
      "name": "owner",
      "outputs": [
        {
          "internalType": "address",
          "name": "",
          "type": "address"
        }
      ],
      "stateMutability": "view",
      "type": "function"
    },
    {
      "inputs": [],
      "name": "renounceOwnership",
      "outputs": [],
      "stateMutability": "nonpayable",
      "type": "function"
    },
    {
      "inputs": [
        {
          "internalType": "uint256",
          "name": "_VIFCount",
          "type": "uint256"
        }
      ],
      "name": "resetVIF",
      "outputs": [],
      "stateMutability": "nonpayable",
      "type": "function"
    },
    {
      "inputs": [
        {
          "internalType": "address",
          "name": "from",
          "type": "address"
        },
        {
          "internalType": "address",
          "name": "to",
          "type": "address"
        },
        {
          "internalType": "uint256[]",
          "name": "ids",
          "type": "uint256[]"
        },
        {
          "internalType": "uint256[]",
          "name": "amounts",
          "type": "uint256[]"
        },
        {
          "internalType": "bytes",
          "name": "data",
          "type": "bytes"
        }
      ],
      "name": "safeBatchTransferFrom",
      "outputs": [],
      "stateMutability": "nonpayable",
      "type": "function"
    },
    {
      "inputs": [
        {
          "internalType": "address",
          "name": "from",
          "type": "address"
        },
        {
          "internalType": "address",
          "name": "to",
          "type": "address"
        },
        {
          "internalType": "uint256",
          "name": "id",
          "type": "uint256"
        },
        {
          "internalType": "uint256",
          "name": "amount",
          "type": "uint256"
        },
        {
          "internalType": "bytes",
          "name": "data",
          "type": "bytes"
        }
      ],
      "name": "safeTransferFrom",
      "outputs": [],
      "stateMutability": "nonpayable",
      "type": "function"
    },
    {
      "inputs": [
        {
          "internalType": "address",
          "name": "operator",
          "type": "address"
        },
        {
          "internalType": "bool",
          "name": "approved",
          "type": "bool"
        }
      ],
      "name": "setApprovalForAll",
      "outputs": [],
      "stateMutability": "nonpayable",
      "type": "function"
    },
    {
      "inputs": [
        {
          "internalType": "uint256",
          "name": "_presaleStartTime",
          "type": "uint256"
        },
        {
          "internalType": "uint256",
          "name": "_timeBetweenSales",
          "type": "uint256"
        }
      ],
      "name": "setPresaleStartTime",
      "outputs": [],
      "stateMutability": "nonpayable",
      "type": "function"
    },
    {
      "inputs": [
        {
          "internalType": "uint256",
          "name": "_gwei",
          "type": "uint256"
        }
      ],
      "name": "setPricePerBundle",
      "outputs": [],
      "stateMutability": "nonpayable",
      "type": "function"
    },
    {
      "inputs": [
        {
          "internalType": "address[]",
          "name": "_vifs",
          "type": "address[]"
        }
      ],
      "name": "setVIF",
      "outputs": [],
      "stateMutability": "nonpayable",
      "type": "function"
    },
    {
      "inputs": [
        {
          "internalType": "bytes4",
          "name": "interfaceId",
          "type": "bytes4"
        }
      ],
      "name": "supportsInterface",
      "outputs": [
        {
          "internalType": "bool",
          "name": "",
          "type": "bool"
        }
      ],
      "stateMutability": "view",
      "type": "function"
    },
    {
      "inputs": [
        {
          "internalType": "address",
          "name": "newOwner",
          "type": "address"
        }
      ],
      "name": "transferOwnership",
      "outputs": [],
      "stateMutability": "nonpayable",
      "type": "function"
    },
    {
      "inputs": [
        {
          "internalType": "uint256",
          "name": "_tokenId",
          "type": "uint256"
        }
      ],
      "name": "uri",
      "outputs": [
        {
          "internalType": "string",
          "name": "",
          "type": "string"
        }
      ],
      "stateMutability": "view",
      "type": "function"
    },
    {
      "inputs": [],
      "name": "withdrawBalance",
      "outputs": [],
      "stateMutability": "nonpayable",
      "type": "function"
    }
  ],
  "bytecode": "0x6080604052610bb86005556001600655620186a1600755607b60085561036d6009556000600d60006101000a81548160ff0219169083151502179055506000600d60016101000a81548160ff02191690831515021790555067016345785d8a00006010556101f46013553480156200007657600080fd5b5060405162005d1938038062005d1983398181016040528101906200009c9190620002ea565b80620000ae81620000de60201b60201c565b50620000cf620000c3620000fa60201b60201c565b6200010260201b60201c565b6001600481905550506200049f565b8060029080519060200190620000f6929190620001c8565b5050565b600033905090565b6000600360009054906101000a900473ffffffffffffffffffffffffffffffffffffffff16905081600360006101000a81548173ffffffffffffffffffffffffffffffffffffffff021916908373ffffffffffffffffffffffffffffffffffffffff1602179055508173ffffffffffffffffffffffffffffffffffffffff168173ffffffffffffffffffffffffffffffffffffffff167f8be0079c531659141344cd1fd0a4f28419497f9722a3daafe3b4186f6b6457e060405160405180910390a35050565b828054620001d690620003c4565b90600052602060002090601f016020900481019282620001fa576000855562000246565b82601f106200021557805160ff191683800117855562000246565b8280016001018555821562000246579182015b828111156200024557825182559160200191906001019062000228565b5b50905062000255919062000259565b5090565b5b80821115620002745760008160009055506001016200025a565b5090565b60006200028f620002898462000358565b6200032f565b905082815260208101848484011115620002a857600080fd5b620002b58482856200038e565b509392505050565b600082601f830112620002cf57600080fd5b8151620002e184826020860162000278565b91505092915050565b600060208284031215620002fd57600080fd5b600082015167ffffffffffffffff8111156200031857600080fd5b6200032684828501620002bd565b91505092915050565b60006200033b6200034e565b9050620003498282620003fa565b919050565b6000604051905090565b600067ffffffffffffffff8211156200037657620003756200045f565b5b62000381826200048e565b9050602081019050919050565b60005b83811015620003ae57808201518184015260208101905062000391565b83811115620003be576000848401525b50505050565b60006002820490506001821680620003dd57607f821691505b60208210811415620003f457620003f362000430565b5b50919050565b62000405826200048e565b810181811067ffffffffffffffff821117156200042757620004266200045f565b5b80604052505050565b7f4e487b7100000000000000000000000000000000000000000000000000000000600052602260045260246000fd5b7f4e487b7100000000000000000000000000000000000000000000000000000000600052604160045260246000fd5b6000601f19601f8301169050919050565b61586a80620004af6000396000f3fe6080604052600436106101805760003560e01c806376937cef116100d15780639b1496081161008a578063cec2e73311610064578063cec2e73314610538578063e985e9c514610561578063f242432a1461059e578063f2fde38b146105c757610180565b80639b149608146104bb578063a22cb465146104e4578063b08504e91461050d57610180565b806376937cef146103bf5780638110b32f146103ea57806383fc3067146104135780638686d7951461043c5780638da5cb5b146104655780639171c3da1461049057610180565b80633bdb7c9e1161013e5780634e1273f4116101185780634e1273f4146103295780635f4c5b25146103665780635fd8c71014610391578063715018a6146103a857610180565b80633bdb7c9e146102b95780633efc5200146102f6578063410404b71461031f57610180565b8062fdd58e1461018557806301ffc9a7146101c25780630948b38a146101ff5780630e89341c1461022857806312065fe0146102655780632eb2c2d614610290575b600080fd5b34801561019157600080fd5b506101ac60048036038101906101a79190613f3a565b6105f0565b6040516101b99190614ba6565b60405180910390f35b3480156101ce57600080fd5b506101e960048036038101906101e49190614068565b6106b9565b6040516101f691906147ff565b60405180910390f35b34801561020b57600080fd5b50610226600480360381019061022191906140e3565b61079b565b005b34801561023457600080fd5b5061024f600480360381019061024a91906140ba565b610871565b60405161025c919061481a565b60405180910390f35b34801561027157600080fd5b5061027a6108a5565b6040516102879190614ba6565b60405180910390f35b34801561029c57600080fd5b506102b760048036038101906102b29190613db0565b610929565b005b3480156102c557600080fd5b506102e060048036038101906102db9190613d4b565b6109ca565b6040516102ed9190614ba6565b60405180910390f35b34801561030257600080fd5b5061031d600480360381019061031891906140ba565b610a8f565b005b610327610b15565b005b34801561033557600080fd5b50610350600480360381019061034b9190613ffc565b6112c1565b60405161035d91906147a6565b60405180910390f35b34801561037257600080fd5b5061037b611472565b6040516103889190614ba6565b60405180910390f35b34801561039d57600080fd5b506103a661147c565b005b3480156103b457600080fd5b506103bd611584565b005b3480156103cb57600080fd5b506103d461160c565b6040516103e19190614ba6565b60405180910390f35b3480156103f657600080fd5b50610411600480360381019061040c919061411f565b611616565b005b34801561041f57600080fd5b5061043a600480360381019061043591906140ba565b611b9d565b005b34801561044857600080fd5b50610463600480360381019061045e91906140ba565b611c69565b005b34801561047157600080fd5b5061047a611dca565b60405161048791906146a0565b60405180910390f35b34801561049c57600080fd5b506104a5611df4565b6040516104b29190614ba6565b60405180910390f35b3480156104c757600080fd5b506104e260048036038101906104dd9190613fbb565b611e7a565b005b3480156104f057600080fd5b5061050b60048036038101906105069190613efe565b61209c565b005b34801561051957600080fd5b506105226120b2565b60405161052f9190614ba6565b60405180910390f35b34801561054457600080fd5b5061055f600480360381019061055a9190613f76565b6120f9565b005b34801561056d57600080fd5b5061058860048036038101906105839190613d74565b61273c565b60405161059591906147ff565b60405180910390f35b3480156105aa57600080fd5b506105c560048036038101906105c09190613e6f565b6127d0565b005b3480156105d357600080fd5b506105ee60048036038101906105e99190613d4b565b612871565b005b60008073ffffffffffffffffffffffffffffffffffffffff168373ffffffffffffffffffffffffffffffffffffffff161415610661576040517f08c379a0000000000000000000000000000000000000000000000000000000008152600401610658906148e6565b60405180910390fd5b60008083815260200190815260200160002060008473ffffffffffffffffffffffffffffffffffffffff1673ffffffffffffffffffffffffffffffffffffffff16815260200190815260200160002054905092915050565b60007fd9b67a26000000000000000000000000000000000000000000000000000000007bffffffffffffffffffffffffffffffffffffffffffffffffffffffff1916827bffffffffffffffffffffffffffffffffffffffffffffffffffffffff1916148061078457507f0e89341c000000000000000000000000000000000000000000000000000000007bffffffffffffffffffffffffffffffffffffffffffffffffffffffff1916827bffffffffffffffffffffffffffffffffffffffffffffffffffffffff1916145b80610794575061079382612969565b5b9050919050565b6107a36129d3565b73ffffffffffffffffffffffffffffffffffffffff166107c1611dca565b73ffffffffffffffffffffffffffffffffffffffff1614610817576040517f08c379a000000000000000000000000000000000000000000000000000000000815260040161080e90614a26565b60405180910390fd5b81600e81905550808261082a9190614d1e565b600f819055507f88c7c5a177be8b426acec3417df4c4882059c60453b8e02e6c8d16998919e73e600e54600f54604051610865929190614bc1565b60405180910390a15050565b6060600c61087e836129db565b60405160200161088f92919061483c565b6040516020818303038152906040529050919050565b60006108af6129d3565b73ffffffffffffffffffffffffffffffffffffffff166108cd611dca565b73ffffffffffffffffffffffffffffffffffffffff1614610923576040517f08c379a000000000000000000000000000000000000000000000000000000000815260040161091a90614a26565b60405180910390fd5b47905090565b6109316129d3565b73ffffffffffffffffffffffffffffffffffffffff168573ffffffffffffffffffffffffffffffffffffffff1614806109775750610976856109716129d3565b61273c565b5b6109b6576040517f08c379a00000000000000000000000000000000000000000000000000000000081526004016109ad906149a6565b60405180910390fd5b6109c38585858585612b88565b5050505050565b60006109d46129d3565b73ffffffffffffffffffffffffffffffffffffffff166109f2611dca565b73ffffffffffffffffffffffffffffffffffffffff1614610a48576040517f08c379a0000000000000000000000000000000000000000000000000000000008152600401610a3f90614a26565b60405180910390fd5b601160008373ffffffffffffffffffffffffffffffffffffffff1673ffffffffffffffffffffffffffffffffffffffff168152602001908152602001600020549050919050565b610a976129d3565b73ffffffffffffffffffffffffffffffffffffffff16610ab5611dca565b73ffffffffffffffffffffffffffffffffffffffff1614610b0b576040517f08c379a0000000000000000000000000000000000000000000000000000000008152600401610b0290614a26565b60405180910390fd5b8060108190555050565b600e544211610b59576040517f08c379a0000000000000000000000000000000000000000000000000000000008152600401610b50906148c6565b60405180910390fd5b600e5442118015610b6b5750600f5442105b15610bf3576000601160003373ffffffffffffffffffffffffffffffffffffffff1673ffffffffffffffffffffffffffffffffffffffff1681526020019081526020016000205411610bf2576040517f08c379a0000000000000000000000000000000000000000000000000000000008152600401610be990614a46565b60405180910390fd5b5b60026004541415610c39576040517f08c379a0000000000000000000000000000000000000000000000000000000008152600401610c3090614b46565b60405180910390fd5b600260048190555067016345785d8a0000341015610c8c576040517f08c379a0000000000000000000000000000000000000000000000000000000008152600401610c8390614b86565b60405180910390fd5b6000600a60003373ffffffffffffffffffffffffffffffffffffffff1673ffffffffffffffffffffffffffffffffffffffff1681526020019081526020016000205414610d0e576040517f08c379a0000000000000000000000000000000000000000000000000000000008152600401610d0590614ac6565b60405180910390fd5b600060095411610d53576040517f08c379a0000000000000000000000000000000000000000000000000000000008152600401610d4a90614a66565b60405180910390fd5b6000600667ffffffffffffffff811115610d96577f4e487b7100000000000000000000000000000000000000000000000000000000600052604160045260246000fd5b604051908082528060200260200182016040528015610dc45781602001602082028036833780820191505090505b5090506000600667ffffffffffffffff811115610e0a577f4e487b7100000000000000000000000000000000000000000000000000000000600052604160045260246000fd5b604051908082528060200260200182016040528015610e385781602001602082028036833780820191505090505b509050600182600081518110610e77577f4e487b7100000000000000000000000000000000000000000000000000000000600052603260045260246000fd5b602002602001018181525050600182600181518110610ebf577f4e487b7100000000000000000000000000000000000000000000000000000000600052603260045260246000fd5b602002602001018181525050600182600281518110610f07577f4e487b7100000000000000000000000000000000000000000000000000000000600052603260045260246000fd5b602002602001018181525050600182600381518110610f4f577f4e487b7100000000000000000000000000000000000000000000000000000000600052603260045260246000fd5b602002602001018181525050600182600481518110610f97577f4e487b7100000000000000000000000000000000000000000000000000000000600052603260045260246000fd5b602002602001018181525050600382600581518110610fdf577f4e487b7100000000000000000000000000000000000000000000000000000000600052603260045260246000fd5b60200260200101818152505060065481600081518110611028577f4e487b7100000000000000000000000000000000000000000000000000000000600052603260045260246000fd5b6020026020010181815250506006600081548092919061104790614f1c565b919050555060065481600181518110611089577f4e487b7100000000000000000000000000000000000000000000000000000000600052603260045260246000fd5b602002602001018181525050600660008154809291906110a890614f1c565b9190505550600654816002815181106110ea577f4e487b7100000000000000000000000000000000000000000000000000000000600052603260045260246000fd5b6020026020010181815250506006600081548092919061110990614f1c565b91905055506006548160038151811061114b577f4e487b7100000000000000000000000000000000000000000000000000000000600052603260045260246000fd5b6020026020010181815250506006600081548092919061116a90614f1c565b9190505550600754816004815181106111ac577f4e487b7100000000000000000000000000000000000000000000000000000000600052603260045260246000fd5b602002602001018181525050600760008154809291906111cb90614f1c565b919050555060008160058151811061120c577f4e487b7100000000000000000000000000000000000000000000000000000000600052603260045260246000fd5b602002602001018181525050600a60003373ffffffffffffffffffffffffffffffffffffffff1673ffffffffffffffffffffffffffffffffffffffff168152602001908152602001600020600081548092919061126890614f1c565b919050555061128833828460405180602001604052806000815250612ee8565b60036005546112979190614da5565b600581905550600960008154809291906112b090614e8f565b919050555050506001600481905550565b60608151835114611307576040517f08c379a00000000000000000000000000000000000000000000000000000000081526004016112fe90614ae6565b60405180910390fd5b6000835167ffffffffffffffff81111561134a577f4e487b7100000000000000000000000000000000000000000000000000000000600052604160045260246000fd5b6040519080825280602002602001820160405280156113785781602001602082028036833780820191505090505b50905060005b8451811015611467576114118582815181106113c3577f4e487b7100000000000000000000000000000000000000000000000000000000600052603260045260246000fd5b6020026020010151858381518110611404577f4e487b7100000000000000000000000000000000000000000000000000000000600052603260045260246000fd5b60200260200101516105f0565b82828151811061144a577f4e487b7100000000000000000000000000000000000000000000000000000000600052603260045260246000fd5b6020026020010181815250508061146090614f1c565b905061137e565b508091505092915050565b6000600554905090565b6114846129d3565b73ffffffffffffffffffffffffffffffffffffffff166114a2611dca565b73ffffffffffffffffffffffffffffffffffffffff16146114f8576040517f08c379a00000000000000000000000000000000000000000000000000000000081526004016114ef90614a26565b60405180910390fd5b6000471161153b576040517f08c379a000000000000000000000000000000000000000000000000000000000815260040161153290614a86565b60405180910390fd5b3373ffffffffffffffffffffffffffffffffffffffff166108fc479081150290604051600060405180830381858888f19350505050158015611581573d6000803e3d6000fd5b50565b61158c6129d3565b73ffffffffffffffffffffffffffffffffffffffff166115aa611dca565b73ffffffffffffffffffffffffffffffffffffffff1614611600576040517f08c379a00000000000000000000000000000000000000000000000000000000081526004016115f790614a26565b60405180910390fd5b61160a6000613152565b565b6000600954905090565b6002600454141561165c576040517f08c379a000000000000000000000000000000000000000000000000000000000815260040161165390614b46565b60405180910390fd5b60026004819055506000600367ffffffffffffffff8111156116a7577f4e487b7100000000000000000000000000000000000000000000000000000000600052604160045260246000fd5b6040519080825280602002602001820160405280156116d55781602001602082028036833780820191505090505b5090506000600367ffffffffffffffff81111561171b577f4e487b7100000000000000000000000000000000000000000000000000000000600052604160045260246000fd5b6040519080825280602002602001820160405280156117495781602001602082028036833780820191505090505b5090506000600367ffffffffffffffff81111561178f577f4e487b7100000000000000000000000000000000000000000000000000000000600052604160045260246000fd5b6040519080825280602002602001820160405280156117bd5781602001602082028036833780820191505090505b50905033836000815181106117fb577f4e487b7100000000000000000000000000000000000000000000000000000000600052603260045260246000fd5b602002602001019073ffffffffffffffffffffffffffffffffffffffff16908173ffffffffffffffffffffffffffffffffffffffff16815250503383600181518110611870577f4e487b7100000000000000000000000000000000000000000000000000000000600052603260045260246000fd5b602002602001019073ffffffffffffffffffffffffffffffffffffffff16908173ffffffffffffffffffffffffffffffffffffffff168152505033836002815181106118e5577f4e487b7100000000000000000000000000000000000000000000000000000000600052603260045260246000fd5b602002602001019073ffffffffffffffffffffffffffffffffffffffff16908173ffffffffffffffffffffffffffffffffffffffff1681525050858260008151811061195a577f4e487b7100000000000000000000000000000000000000000000000000000000600052603260045260246000fd5b60200260200101818152505084826001815181106119a1577f4e487b7100000000000000000000000000000000000000000000000000000000600052603260045260246000fd5b6020026020010181815250506000826002815181106119e9577f4e487b7100000000000000000000000000000000000000000000000000000000600052603260045260246000fd5b6020026020010181815250506119ff83836112c1565b9050600081600081518110611a3d577f4e487b7100000000000000000000000000000000000000000000000000000000600052603260045260246000fd5b602002602001015111611a85576040517f08c379a0000000000000000000000000000000000000000000000000000000008152600401611a7c906149e6565b60405180910390fd5b600081600181518110611ac1577f4e487b7100000000000000000000000000000000000000000000000000000000600052603260045260246000fd5b602002602001015111611b09576040517f08c379a0000000000000000000000000000000000000000000000000000000008152600401611b00906149c6565b60405180910390fd5b600081600281518110611b45577f4e487b7100000000000000000000000000000000000000000000000000000000600052603260045260246000fd5b602002602001015111611b8d576040517f08c379a0000000000000000000000000000000000000000000000000000000008152600401611b8490614b66565b60405180910390fd5b5050506001600481905550505050565b611ba56129d3565b73ffffffffffffffffffffffffffffffffffffffff16611bc3611dca565b73ffffffffffffffffffffffffffffffffffffffff1614611c19576040517f08c379a0000000000000000000000000000000000000000000000000000000008152600401611c1090614a26565b60405180910390fd5b80600554611c279190614d1e565b6005819055507fe3d47dee33b959cc59941f840525125123544e1f194b235f340f0c6147697ac33382604051611c5e92919061477d565b60405180910390a150565b611c716129d3565b73ffffffffffffffffffffffffffffffffffffffff16611c8f611dca565b73ffffffffffffffffffffffffffffffffffffffff1614611ce5576040517f08c379a0000000000000000000000000000000000000000000000000000000008152600401611cdc90614a26565b60405180910390fd5b60005b601280549050811015611db15760006011600060128481548110611d35577f4e487b7100000000000000000000000000000000000000000000000000000000600052603260045260246000fd5b9060005260206000200160009054906101000a900473ffffffffffffffffffffffffffffffffffffffff1673ffffffffffffffffffffffffffffffffffffffff1673ffffffffffffffffffffffffffffffffffffffff168152602001908152602001600020819055508080611da990614f1c565b915050611ce8565b5060126000611dc09190613ac6565b8060138190555050565b6000600360009054906101000a900473ffffffffffffffffffffffffffffffffffffffff16905090565b6000611dfe6129d3565b73ffffffffffffffffffffffffffffffffffffffff16611e1c611dca565b73ffffffffffffffffffffffffffffffffffffffff1614611e72576040517f08c379a0000000000000000000000000000000000000000000000000000000008152600401611e6990614a26565b60405180910390fd5b601354905090565b611e826129d3565b73ffffffffffffffffffffffffffffffffffffffff16611ea0611dca565b73ffffffffffffffffffffffffffffffffffffffff1614611ef6576040517f08c379a0000000000000000000000000000000000000000000000000000000008152600401611eed90614a26565b60405180910390fd5b80516013541015611f3c576040517f08c379a0000000000000000000000000000000000000000000000000000000008152600401611f3390614926565b60405180910390fd5b60005b815181101561208357600160116000848481518110611f87577f4e487b7100000000000000000000000000000000000000000000000000000000600052603260045260246000fd5b602002602001015173ffffffffffffffffffffffffffffffffffffffff1673ffffffffffffffffffffffffffffffffffffffff168152602001908152602001600020819055506012828281518110612008577f4e487b7100000000000000000000000000000000000000000000000000000000600052603260045260246000fd5b60200260200101519080600181540180825580915050600190039060005260206000200160009091909190916101000a81548173ffffffffffffffffffffffffffffffffffffffff021916908373ffffffffffffffffffffffffffffffffffffffff160217905550808061207b90614f1c565b915050611f3f565b5080516013546120939190614da5565b60138190555050565b6120ae6120a76129d3565b8383613218565b5050565b6000600a60003373ffffffffffffffffffffffffffffffffffffffff1673ffffffffffffffffffffffffffffffffffffffff16815260200190815260200160002054905090565b6121016129d3565b73ffffffffffffffffffffffffffffffffffffffff1661211f611dca565b73ffffffffffffffffffffffffffffffffffffffff1614612175576040517f08c379a000000000000000000000000000000000000000000000000000000000815260040161216c90614a26565b60405180910390fd5b6000600854116121ba576040517f08c379a00000000000000000000000000000000000000000000000000000000081526004016121b190614966565b60405180910390fd5b6000600667ffffffffffffffff8111156121fd577f4e487b7100000000000000000000000000000000000000000000000000000000600052604160045260246000fd5b60405190808252806020026020018201604052801561222b5781602001602082028036833780820191505090505b50905060018160008151811061226a577f4e487b7100000000000000000000000000000000000000000000000000000000600052603260045260246000fd5b6020026020010181815250506001816001815181106122b2577f4e487b7100000000000000000000000000000000000000000000000000000000600052603260045260246000fd5b6020026020010181815250506001816002815181106122fa577f4e487b7100000000000000000000000000000000000000000000000000000000600052603260045260246000fd5b602002602001018181525050600181600381518110612342577f4e487b7100000000000000000000000000000000000000000000000000000000600052603260045260246000fd5b60200260200101818152505060018160048151811061238a577f4e487b7100000000000000000000000000000000000000000000000000000000600052603260045260246000fd5b6020026020010181815250506003816005815181106123d2577f4e487b7100000000000000000000000000000000000000000000000000000000600052603260045260246000fd5b6020026020010181815250506000600667ffffffffffffffff811115612421577f4e487b7100000000000000000000000000000000000000000000000000000000600052604160045260246000fd5b60405190808252806020026020018201604052801561244f5781602001602082028036833780820191505090505b50905060005b84849050811015612735576006548260008151811061249d577f4e487b7100000000000000000000000000000000000000000000000000000000600052603260045260246000fd5b602002602001018181525050600660008154809291906124bc90614f1c565b9190505550600654826001815181106124fe577f4e487b7100000000000000000000000000000000000000000000000000000000600052603260045260246000fd5b6020026020010181815250506006600081548092919061251d90614f1c565b91905055506006548260028151811061255f577f4e487b7100000000000000000000000000000000000000000000000000000000600052603260045260246000fd5b6020026020010181815250506006600081548092919061257e90614f1c565b9190505550600654826003815181106125c0577f4e487b7100000000000000000000000000000000000000000000000000000000600052603260045260246000fd5b602002602001018181525050600660008154809291906125df90614f1c565b919050555060075482600481518110612621577f4e487b7100000000000000000000000000000000000000000000000000000000600052603260045260246000fd5b6020026020010181815250506007600081548092919061264090614f1c565b9190505550600082600581518110612681577f4e487b7100000000000000000000000000000000000000000000000000000000600052603260045260246000fd5b6020026020010181815250506126f58585838181106126c9577f4e487b7100000000000000000000000000000000000000000000000000000000600052603260045260246000fd5b90506020020160208101906126de9190613d4b565b838560405180602001604052806000815250612ee8565b60036005546127049190614da5565b6005819055506008600081548092919061271d90614e8f565b9190505550808061272d90614f1c565b915050612455565b5050505050565b6000600160008473ffffffffffffffffffffffffffffffffffffffff1673ffffffffffffffffffffffffffffffffffffffff16815260200190815260200160002060008373ffffffffffffffffffffffffffffffffffffffff1673ffffffffffffffffffffffffffffffffffffffff16815260200190815260200160002060009054906101000a900460ff16905092915050565b6127d86129d3565b73ffffffffffffffffffffffffffffffffffffffff168573ffffffffffffffffffffffffffffffffffffffff16148061281e575061281d856128186129d3565b61273c565b5b61285d576040517f08c379a000000000000000000000000000000000000000000000000000000000815260040161285490614946565b60405180910390fd5b61286a8585858585613385565b5050505050565b6128796129d3565b73ffffffffffffffffffffffffffffffffffffffff16612897611dca565b73ffffffffffffffffffffffffffffffffffffffff16146128ed576040517f08c379a00000000000000000000000000000000000000000000000000000000081526004016128e490614a26565b60405180910390fd5b600073ffffffffffffffffffffffffffffffffffffffff168173ffffffffffffffffffffffffffffffffffffffff16141561295d576040517f08c379a000000000000000000000000000000000000000000000000000000000815260040161295490614906565b60405180910390fd5b61296681613152565b50565b60007f01ffc9a7000000000000000000000000000000000000000000000000000000007bffffffffffffffffffffffffffffffffffffffffffffffffffffffff1916827bffffffffffffffffffffffffffffffffffffffffffffffffffffffff1916149050919050565b600033905090565b60606000821415612a23576040518060400160405280600181526020017f30000000000000000000000000000000000000000000000000000000000000008152509050612b83565b600082905060005b60008214612a55578080612a3e90614f1c565b915050600a82612a4e9190614d74565b9150612a2b565b60008167ffffffffffffffff811115612a97577f4e487b7100000000000000000000000000000000000000000000000000000000600052604160045260246000fd5b6040519080825280601f01601f191660200182016040528015612ac95781602001600182028036833780820191505090505b5090505b60008514612b7c57600182612ae29190614da5565b9150600a85612af19190614f65565b6030612afd9190614d1e565b60f81b818381518110612b39577f4e487b7100000000000000000000000000000000000000000000000000000000600052603260045260246000fd5b60200101907effffffffffffffffffffffffffffffffffffffffffffffffffffffffffffff1916908160001a905350600a85612b759190614d74565b9450612acd565b8093505050505b919050565b8151835114612bcc576040517f08c379a0000000000000000000000000000000000000000000000000000000008152600401612bc390614b06565b60405180910390fd5b600073ffffffffffffffffffffffffffffffffffffffff168473ffffffffffffffffffffffffffffffffffffffff161415612c3c576040517f08c379a0000000000000000000000000000000000000000000000000000000008152600401612c3390614986565b60405180910390fd5b6000612c466129d3565b9050612c56818787878787613607565b60005b8451811015612e53576000858281518110612c9d577f4e487b7100000000000000000000000000000000000000000000000000000000600052603260045260246000fd5b602002602001015190506000858381518110612ce2577f4e487b7100000000000000000000000000000000000000000000000000000000600052603260045260246000fd5b60200260200101519050600080600084815260200190815260200160002060008b73ffffffffffffffffffffffffffffffffffffffff1673ffffffffffffffffffffffffffffffffffffffff16815260200190815260200160002054905081811015612d83576040517f08c379a0000000000000000000000000000000000000000000000000000000008152600401612d7a90614a06565b60405180910390fd5b81810360008085815260200190815260200160002060008c73ffffffffffffffffffffffffffffffffffffffff1673ffffffffffffffffffffffffffffffffffffffff168152602001908152602001600020819055508160008085815260200190815260200160002060008b73ffffffffffffffffffffffffffffffffffffffff1673ffffffffffffffffffffffffffffffffffffffff1681526020019081526020016000206000828254612e389190614d1e565b9250508190555050505080612e4c90614f1c565b9050612c59565b508473ffffffffffffffffffffffffffffffffffffffff168673ffffffffffffffffffffffffffffffffffffffff168273ffffffffffffffffffffffffffffffffffffffff167f4a39dc06d4c0dbc64b70af90fd698a233a518aa5d07e595d983b8c0526c8f7fb8787604051612eca9291906147c8565b60405180910390a4612ee081878787878761360f565b505050505050565b600073ffffffffffffffffffffffffffffffffffffffff168473ffffffffffffffffffffffffffffffffffffffff161415612f58576040517f08c379a0000000000000000000000000000000000000000000000000000000008152600401612f4f90614b26565b60405180910390fd5b8151835114612f9c576040517f08c379a0000000000000000000000000000000000000000000000000000000008152600401612f9390614b06565b60405180910390fd5b6000612fa66129d3565b9050612fb781600087878787613607565b60005b84518110156130bc57838181518110612ffc577f4e487b7100000000000000000000000000000000000000000000000000000000600052603260045260246000fd5b6020026020010151600080878481518110613040577f4e487b7100000000000000000000000000000000000000000000000000000000600052603260045260246000fd5b6020026020010151815260200190815260200160002060008873ffffffffffffffffffffffffffffffffffffffff1673ffffffffffffffffffffffffffffffffffffffff16815260200190815260200160002060008282546130a29190614d1e565b9250508190555080806130b490614f1c565b915050612fba565b508473ffffffffffffffffffffffffffffffffffffffff16600073ffffffffffffffffffffffffffffffffffffffff168273ffffffffffffffffffffffffffffffffffffffff167f4a39dc06d4c0dbc64b70af90fd698a233a518aa5d07e595d983b8c0526c8f7fb87876040516131349291906147c8565b60405180910390a461314b8160008787878761360f565b5050505050565b6000600360009054906101000a900473ffffffffffffffffffffffffffffffffffffffff16905081600360006101000a81548173ffffffffffffffffffffffffffffffffffffffff021916908373ffffffffffffffffffffffffffffffffffffffff1602179055508173ffffffffffffffffffffffffffffffffffffffff168173ffffffffffffffffffffffffffffffffffffffff167f8be0079c531659141344cd1fd0a4f28419497f9722a3daafe3b4186f6b6457e060405160405180910390a35050565b8173ffffffffffffffffffffffffffffffffffffffff168373ffffffffffffffffffffffffffffffffffffffff161415613287576040517f08c379a000000000000000000000000000000000000000000000000000000000815260040161327e90614aa6565b60405180910390fd5b80600160008573ffffffffffffffffffffffffffffffffffffffff1673ffffffffffffffffffffffffffffffffffffffff16815260200190815260200160002060008473ffffffffffffffffffffffffffffffffffffffff1673ffffffffffffffffffffffffffffffffffffffff16815260200190815260200160002060006101000a81548160ff0219169083151502179055508173ffffffffffffffffffffffffffffffffffffffff168373ffffffffffffffffffffffffffffffffffffffff167f17307eab39ab6107e8899845ad3d59bd9653f200f220920489ca2b5937696c318360405161337891906147ff565b60405180910390a3505050565b600073ffffffffffffffffffffffffffffffffffffffff168473ffffffffffffffffffffffffffffffffffffffff1614156133f5576040517f08c379a00000000000000000000000000000000000000000000000000000000081526004016133ec90614986565b60405180910390fd5b60006133ff6129d3565b905061341f818787613410886137f6565b613419886137f6565b87613607565b600080600086815260200190815260200160002060008873ffffffffffffffffffffffffffffffffffffffff1673ffffffffffffffffffffffffffffffffffffffff168152602001908152602001600020549050838110156134b6576040517f08c379a00000000000000000000000000000000000000000000000000000000081526004016134ad90614a06565b60405180910390fd5b83810360008087815260200190815260200160002060008973ffffffffffffffffffffffffffffffffffffffff1673ffffffffffffffffffffffffffffffffffffffff168152602001908152602001600020819055508360008087815260200190815260200160002060008873ffffffffffffffffffffffffffffffffffffffff1673ffffffffffffffffffffffffffffffffffffffff168152602001908152602001600020600082825461356b9190614d1e565b925050819055508573ffffffffffffffffffffffffffffffffffffffff168773ffffffffffffffffffffffffffffffffffffffff168373ffffffffffffffffffffffffffffffffffffffff167fc3d58168c5ae7397731d063d5bbf3d657854427343f4c083240f7aacaa2d0f6288886040516135e8929190614bc1565b60405180910390a46135fe8288888888886138bc565b50505050505050565b505050505050565b61362e8473ffffffffffffffffffffffffffffffffffffffff16613aa3565b156137ee578373ffffffffffffffffffffffffffffffffffffffff1663bc197c8187878686866040518663ffffffff1660e01b81526004016136749594939291906146bb565b602060405180830381600087803b15801561368e57600080fd5b505af19250505080156136bf57506040513d601f19601f820116820180604052508101906136bc9190614091565b60015b613765576136cb615052565b806308c379a0141561372857506136e0615742565b806136eb575061372a565b806040517f08c379a000000000000000000000000000000000000000000000000000000000815260040161371f919061481a565b60405180910390fd5b505b6040517f08c379a000000000000000000000000000000000000000000000000000000000815260040161375c90614886565b60405180910390fd5b63bc197c8160e01b7bffffffffffffffffffffffffffffffffffffffffffffffffffffffff1916817bffffffffffffffffffffffffffffffffffffffffffffffffffffffff1916146137ec576040517f08c379a00000000000000000000000000000000000000000000000000000000081526004016137e3906148a6565b60405180910390fd5b505b505050505050565b60606000600167ffffffffffffffff81111561383b577f4e487b7100000000000000000000000000000000000000000000000000000000600052604160045260246000fd5b6040519080825280602002602001820160405280156138695781602001602082028036833780820191505090505b50905082816000815181106138a7577f4e487b7100000000000000000000000000000000000000000000000000000000600052603260045260246000fd5b60200260200101818152505080915050919050565b6138db8473ffffffffffffffffffffffffffffffffffffffff16613aa3565b15613a9b578373ffffffffffffffffffffffffffffffffffffffff1663f23a6e6187878686866040518663ffffffff1660e01b8152600401613921959493929190614723565b602060405180830381600087803b15801561393b57600080fd5b505af192505050801561396c57506040513d601f19601f820116820180604052508101906139699190614091565b60015b613a1257613978615052565b806308c379a014156139d5575061398d615742565b8061399857506139d7565b806040517f08c379a00000000000000000000000000000000000000000000000000000000081526004016139cc919061481a565b60405180910390fd5b505b6040517f08c379a0000000000000000000000000000000000000000000000000000000008152600401613a0990614886565b60405180910390fd5b63f23a6e6160e01b7bffffffffffffffffffffffffffffffffffffffffffffffffffffffff1916817bffffffffffffffffffffffffffffffffffffffffffffffffffffffff191614613a99576040517f08c379a0000000000000000000000000000000000000000000000000000000008152600401613a90906148a6565b60405180910390fd5b505b505050505050565b6000808273ffffffffffffffffffffffffffffffffffffffff163b119050919050565b5080546000825590600052602060002090810190613ae49190613ae7565b50565b5b80821115613b00576000816000905550600101613ae8565b5090565b6000613b17613b1284614c0f565b614bea565b90508083825260208201905082856020860282011115613b3657600080fd5b60005b85811015613b665781613b4c8882613c1a565b845260208401935060208301925050600181019050613b39565b5050509392505050565b6000613b83613b7e84614c3b565b614bea565b90508083825260208201905082856020860282011115613ba257600080fd5b60005b85811015613bd25781613bb88882613d36565b845260208401935060208301925050600181019050613ba5565b5050509392505050565b6000613bef613bea84614c67565b614bea565b905082815260208101848484011115613c0757600080fd5b613c12848285614e4d565b509392505050565b600081359050613c29816157d8565b92915050565b60008083601f840112613c4157600080fd5b8235905067ffffffffffffffff811115613c5a57600080fd5b602083019150836020820283011115613c7257600080fd5b9250929050565b600082601f830112613c8a57600080fd5b8135613c9a848260208601613b04565b91505092915050565b600082601f830112613cb457600080fd5b8135613cc4848260208601613b70565b91505092915050565b600081359050613cdc816157ef565b92915050565b600081359050613cf181615806565b92915050565b600081519050613d0681615806565b92915050565b600082601f830112613d1d57600080fd5b8135613d2d848260208601613bdc565b91505092915050565b600081359050613d458161581d565b92915050565b600060208284031215613d5d57600080fd5b6000613d6b84828501613c1a565b91505092915050565b60008060408385031215613d8757600080fd5b6000613d9585828601613c1a565b9250506020613da685828601613c1a565b9150509250929050565b600080600080600060a08688031215613dc857600080fd5b6000613dd688828901613c1a565b9550506020613de788828901613c1a565b945050604086013567ffffffffffffffff811115613e0457600080fd5b613e1088828901613ca3565b935050606086013567ffffffffffffffff811115613e2d57600080fd5b613e3988828901613ca3565b925050608086013567ffffffffffffffff811115613e5657600080fd5b613e6288828901613d0c565b9150509295509295909350565b600080600080600060a08688031215613e8757600080fd5b6000613e9588828901613c1a565b9550506020613ea688828901613c1a565b9450506040613eb788828901613d36565b9350506060613ec888828901613d36565b925050608086013567ffffffffffffffff811115613ee557600080fd5b613ef188828901613d0c565b9150509295509295909350565b60008060408385031215613f1157600080fd5b6000613f1f85828601613c1a565b9250506020613f3085828601613ccd565b9150509250929050565b60008060408385031215613f4d57600080fd5b6000613f5b85828601613c1a565b9250506020613f6c85828601613d36565b9150509250929050565b60008060208385031215613f8957600080fd5b600083013567ffffffffffffffff811115613fa357600080fd5b613faf85828601613c2f565b92509250509250929050565b600060208284031215613fcd57600080fd5b600082013567ffffffffffffffff811115613fe757600080fd5b613ff384828501613c79565b91505092915050565b6000806040838503121561400f57600080fd5b600083013567ffffffffffffffff81111561402957600080fd5b61403585828601613c79565b925050602083013567ffffffffffffffff81111561405257600080fd5b61405e85828601613ca3565b9150509250929050565b60006020828403121561407a57600080fd5b600061408884828501613ce2565b91505092915050565b6000602082840312156140a357600080fd5b60006140b184828501613cf7565b91505092915050565b6000602082840312156140cc57600080fd5b60006140da84828501613d36565b91505092915050565b600080604083850312156140f657600080fd5b600061410485828601613d36565b925050602061411585828601613d36565b9150509250929050565b60008060006060848603121561413457600080fd5b600061414286828701613d36565b935050602061415386828701613d36565b925050604061416486828701613d36565b9150509250925092565b600061417a8383614682565b60208301905092915050565b61418f81614dd9565b82525050565b60006141a082614cbd565b6141aa8185614ceb565b93506141b583614c98565b8060005b838110156141e65781516141cd888261416e565b97506141d883614cde565b9250506001810190506141b9565b5085935050505092915050565b6141fc81614deb565b82525050565b600061420d82614cc8565b6142178185614cfc565b9350614227818560208601614e5c565b61423081615074565b840191505092915050565b600061424682614cd3565b6142508185614d0d565b9350614260818560208601614e5c565b61426981615074565b840191505092915050565b6000815461428181614eb9565b61428b8186614d0d565b945060018216600081146142a657600181146142b8576142eb565b60ff19831686526020860193506142eb565b6142c185614ca8565b60005b838110156142e3578154818901526001820191506020810190506142c4565b808801955050505b50505092915050565b6000614301603483614d0d565b915061430c82615092565b604082019050919050565b6000614324602883614d0d565b915061432f826150e1565b604082019050919050565b6000614347601783614d0d565b915061435282615130565b602082019050919050565b600061436a602b83614d0d565b915061437582615159565b604082019050919050565b600061438d602683614d0d565b9150614398826151a8565b604082019050919050565b60006143b0601983614d0d565b91506143bb826151f7565b602082019050919050565b60006143d3602983614d0d565b91506143de82615220565b604082019050919050565b60006143f6601183614d0d565b91506144018261526f565b602082019050919050565b6000614419602583614d0d565b915061442482615298565b604082019050919050565b600061443c603283614d0d565b9150614447826152e7565b604082019050919050565b600061445f602183614d0d565b915061446a82615336565b604082019050919050565b6000614482601d83614d0d565b915061448d82615385565b602082019050919050565b60006144a5602a83614d0d565b91506144b0826153ae565b604082019050919050565b60006144c8600583614d0d565b91506144d3826153fd565b602082019050919050565b60006144eb602083614d0d565b91506144f682615426565b602082019050919050565b600061450e604083614d0d565b91506145198261544f565b604082019050919050565b6000614531601c83614d0d565b915061453c8261549e565b602082019050919050565b6000614554601483614d0d565b915061455f826154c7565b602082019050919050565b6000614577602983614d0d565b9150614582826154f0565b604082019050919050565b600061459a603383614d0d565b91506145a58261553f565b604082019050919050565b60006145bd602983614d0d565b91506145c88261558e565b604082019050919050565b60006145e0602883614d0d565b91506145eb826155dd565b604082019050919050565b6000614603602183614d0d565b915061460e8261562c565b604082019050919050565b6000614626601f83614d0d565b91506146318261567b565b602082019050919050565b6000614649602583614d0d565b9150614654826156a4565b604082019050919050565b600061466c602883614d0d565b9150614677826156f3565b604082019050919050565b61468b81614e43565b82525050565b61469a81614e43565b82525050565b60006020820190506146b56000830184614186565b92915050565b600060a0820190506146d06000830188614186565b6146dd6020830187614186565b81810360408301526146ef8186614195565b905081810360608301526147038185614195565b905081810360808301526147178184614202565b90509695505050505050565b600060a0820190506147386000830188614186565b6147456020830187614186565b6147526040830186614691565b61475f6060830185614691565b81810360808301526147718184614202565b90509695505050505050565b60006040820190506147926000830185614186565b61479f6020830184614691565b9392505050565b600060208201905081810360008301526147c08184614195565b905092915050565b600060408201905081810360008301526147e28185614195565b905081810360208301526147f68184614195565b90509392505050565b600060208201905061481460008301846141f3565b92915050565b60006020820190508181036000830152614834818461423b565b905092915050565b600060608201905081810360008301526148568185614274565b9050818103602083015261486a818461423b565b9050818103604083015261487d816144bb565b90509392505050565b6000602082019050818103600083015261489f816142f4565b9050919050565b600060208201905081810360008301526148bf81614317565b9050919050565b600060208201905081810360008301526148df8161433a565b9050919050565b600060208201905081810360008301526148ff8161435d565b9050919050565b6000602082019050818103600083015261491f81614380565b9050919050565b6000602082019050818103600083015261493f816143a3565b9050919050565b6000602082019050818103600083015261495f816143c6565b9050919050565b6000602082019050818103600083015261497f816143e9565b9050919050565b6000602082019050818103600083015261499f8161440c565b9050919050565b600060208201905081810360008301526149bf8161442f565b9050919050565b600060208201905081810360008301526149df81614452565b9050919050565b600060208201905081810360008301526149ff81614475565b9050919050565b60006020820190508181036000830152614a1f81614498565b9050919050565b60006020820190508181036000830152614a3f816144de565b9050919050565b60006020820190508181036000830152614a5f81614501565b9050919050565b60006020820190508181036000830152614a7f81614524565b9050919050565b60006020820190508181036000830152614a9f81614547565b9050919050565b60006020820190508181036000830152614abf8161456a565b9050919050565b60006020820190508181036000830152614adf8161458d565b9050919050565b60006020820190508181036000830152614aff816145b0565b9050919050565b60006020820190508181036000830152614b1f816145d3565b9050919050565b60006020820190508181036000830152614b3f816145f6565b9050919050565b60006020820190508181036000830152614b5f81614619565b9050919050565b60006020820190508181036000830152614b7f8161463c565b9050919050565b60006020820190508181036000830152614b9f8161465f565b9050919050565b6000602082019050614bbb6000830184614691565b92915050565b6000604082019050614bd66000830185614691565b614be36020830184614691565b9392505050565b6000614bf4614c05565b9050614c008282614eeb565b919050565b6000604051905090565b600067ffffffffffffffff821115614c2a57614c29615023565b5b602082029050602081019050919050565b600067ffffffffffffffff821115614c5657614c55615023565b5b602082029050602081019050919050565b600067ffffffffffffffff821115614c8257614c81615023565b5b614c8b82615074565b9050602081019050919050565b6000819050602082019050919050565b60008190508160005260206000209050919050565b600081519050919050565b600081519050919050565b600081519050919050565b6000602082019050919050565b600082825260208201905092915050565b600082825260208201905092915050565b600082825260208201905092915050565b6000614d2982614e43565b9150614d3483614e43565b9250827fffffffffffffffffffffffffffffffffffffffffffffffffffffffffffffffff03821115614d6957614d68614f96565b5b828201905092915050565b6000614d7f82614e43565b9150614d8a83614e43565b925082614d9a57614d99614fc5565b5b828204905092915050565b6000614db082614e43565b9150614dbb83614e43565b925082821015614dce57614dcd614f96565b5b828203905092915050565b6000614de482614e23565b9050919050565b60008115159050919050565b60007fffffffff0000000000000000000000000000000000000000000000000000000082169050919050565b600073ffffffffffffffffffffffffffffffffffffffff82169050919050565b6000819050919050565b82818337600083830152505050565b60005b83811015614e7a578082015181840152602081019050614e5f565b83811115614e89576000848401525b50505050565b6000614e9a82614e43565b91506000821415614eae57614ead614f96565b5b600182039050919050565b60006002820490506001821680614ed157607f821691505b60208210811415614ee557614ee4614ff4565b5b50919050565b614ef482615074565b810181811067ffffffffffffffff82111715614f1357614f12615023565b5b80604052505050565b6000614f2782614e43565b91507fffffffffffffffffffffffffffffffffffffffffffffffffffffffffffffffff821415614f5a57614f59614f96565b5b600182019050919050565b6000614f7082614e43565b9150614f7b83614e43565b925082614f8b57614f8a614fc5565b5b828206905092915050565b7f4e487b7100000000000000000000000000000000000000000000000000000000600052601160045260246000fd5b7f4e487b7100000000000000000000000000000000000000000000000000000000600052601260045260246000fd5b7f4e487b7100000000000000000000000000000000000000000000000000000000600052602260045260246000fd5b7f4e487b7100000000000000000000000000000000000000000000000000000000600052604160045260246000fd5b600060033d11156150715760046000803e61506e600051615085565b90505b90565b6000601f19601f8301169050919050565b60008160e01c9050919050565b7f455243313135353a207472616e7366657220746f206e6f6e204552433131353560008201527f526563656976657220696d706c656d656e746572000000000000000000000000602082015250565b7f455243313135353a204552433131353552656365697665722072656a6563746560008201527f6420746f6b656e73000000000000000000000000000000000000000000000000602082015250565b7f50726573616c6520686173206e6f742073746172746564000000000000000000600082015250565b7f455243313135353a2062616c616e636520717565727920666f7220746865207a60008201527f65726f2061646472657373000000000000000000000000000000000000000000602082015250565b7f4f776e61626c653a206e6577206f776e657220697320746865207a65726f206160008201527f6464726573730000000000000000000000000000000000000000000000000000602082015250565b7f4e6f7420456e6f756768205649462073706f7473206c65667400000000000000600082015250565b7f455243313135353a2063616c6c6572206973206e6f74206f776e6572206e6f7260008201527f20617070726f7665640000000000000000000000000000000000000000000000602082015250565b7f4f7574206f66204769766561776179732e000000000000000000000000000000600082015250565b7f455243313135353a207472616e7366657220746f20746865207a65726f20616460008201527f6472657373000000000000000000000000000000000000000000000000000000602082015250565b7f455243313135353a207472616e736665722063616c6c6572206973206e6f742060008201527f6f776e6572206e6f7220617070726f7665640000000000000000000000000000602082015250565b7f596f7520646f206e6f74206f776e2074686520666f7572496e4f6e65546f6b6560008201527f6e00000000000000000000000000000000000000000000000000000000000000602082015250565b7f596f7520646f206e6f74206f776e20746865206672756974746f6b656e000000600082015250565b7f455243313135353a20696e73756666696369656e742062616c616e636520666f60008201527f72207472616e7366657200000000000000000000000000000000000000000000602082015250565b7f2e6a736f6e000000000000000000000000000000000000000000000000000000600082015250565b7f4f776e61626c653a2063616c6c6572206973206e6f7420746865206f776e6572600082015250565b7f50726573616c65206973206163746976652062757420796f752772652061726560008201527f206e6f742061205649462c207761697420666f72207075626c69632073616c65602082015250565b7f416c6c20426174636865732068617665206265656e206d696e74656400000000600082015250565b7f4e6f20657468657220696e20636f6e7472616374000000000000000000000000600082015250565b7f455243313135353a2073657474696e6720617070726f76616c2073746174757360008201527f20666f722073656c660000000000000000000000000000000000000000000000602082015250565b7f43616e6e6f74207075726368617365206d6f7265207468616e206f6e6520626160008201527f746368206d696e74207065722077616c6c657400000000000000000000000000602082015250565b7f455243313135353a206163636f756e747320616e6420696473206c656e67746860008201527f206d69736d617463680000000000000000000000000000000000000000000000602082015250565b7f455243313135353a2069647320616e6420616d6f756e7473206c656e6774682060008201527f6d69736d61746368000000000000000000000000000000000000000000000000602082015250565b7f455243313135353a206d696e7420746f20746865207a65726f2061646472657360008201527f7300000000000000000000000000000000000000000000000000000000000000602082015250565b7f5265656e7472616e637947756172643a207265656e7472616e742063616c6c00600082015250565b7f596f7520646f206e6f74206f776e2061207265636569707420666f722065786360008201527f68616e6765000000000000000000000000000000000000000000000000000000602082015250565b7f4e6f7420656e6f756768206574686572207761732073656e7420746f2074726160008201527f6e73616374696f6e000000000000000000000000000000000000000000000000602082015250565b600060443d1015615752576157d5565b61575a614c05565b60043d036004823e80513d602482011167ffffffffffffffff821117156157825750506157d5565b808201805167ffffffffffffffff8111156157a057505050506157d5565b80602083010160043d0385018111156157bd5750505050506157d5565b6157cc82602001850186614eeb565b82955050505050505b90565b6157e181614dd9565b81146157ec57600080fd5b50565b6157f881614deb565b811461580357600080fd5b50565b61580f81614df7565b811461581a57600080fd5b50565b61582681614e43565b811461583157600080fd5b5056fea264697066735822122022882e427ad5cf607d429c432956d8dae5c681aa28c23a57c3c6c1aa9cff88f364736f6c63430008040033",
  "linkReferences": {},
  "deployedLinkReferences": {}
}