{
  "_format": "hh-sol-artifact-1",
  "contractName": "DemoDapp",
  "sourceName": "contracts/DemoDapp.sol",
  "abi": [
    {
      "inputs": [
        {
          "internalType": "string",
          "name": "uri",
          "type": "string"
        }
      ],
      "stateMutability": "nonpayable",
      "type": "constructor"
    },
    {
      "anonymous": false,
      "inputs": [
        {
          "indexed": true,
          "internalType": "address",
          "name": "account",
          "type": "address"
        },
        {
          "indexed": true,
          "internalType": "address",
          "name": "operator",
          "type": "address"
        },
        {
          "indexed": false,
          "internalType": "bool",
          "name": "approved",
          "type": "bool"
        }
      ],
      "name": "ApprovalForAll",
      "type": "event"
    },
    {
      "anonymous": false,
      "inputs": [
        {
          "indexed": false,
          "internalType": "address",
          "name": "_sender",
          "type": "address"
        },
        {
          "indexed": false,
          "internalType": "uint256",
          "name": "_supply",
          "type": "uint256"
        }
      ],
      "name": "IncreaseReceiptSupply",
      "type": "event"
    },
    {
      "anonymous": false,
      "inputs": [
        {
          "indexed": true,
          "internalType": "address",
          "name": "previousOwner",
          "type": "address"
        },
        {
          "indexed": true,
          "internalType": "address",
          "name": "newOwner",
          "type": "address"
        }
      ],
      "name": "OwnershipTransferred",
      "type": "event"
    },
    {
      "anonymous": false,
      "inputs": [
        {
          "indexed": true,
          "internalType": "address",
          "name": "operator",
          "type": "address"
        },
        {
          "indexed": true,
          "internalType": "address",
          "name": "from",
          "type": "address"
        },
        {
          "indexed": true,
          "internalType": "address",
          "name": "to",
          "type": "address"
        },
        {
          "indexed": false,
          "internalType": "uint256[]",
          "name": "ids",
          "type": "uint256[]"
        },
        {
          "indexed": false,
          "internalType": "uint256[]",
          "name": "values",
          "type": "uint256[]"
        }
      ],
      "name": "TransferBatch",
      "type": "event"
    },
    {
      "anonymous": false,
      "inputs": [
        {
          "indexed": true,
          "internalType": "address",
          "name": "operator",
          "type": "address"
        },
        {
          "indexed": true,
          "internalType": "address",
          "name": "from",
          "type": "address"
        },
        {
          "indexed": true,
          "internalType": "address",
          "name": "to",
          "type": "address"
        },
        {
          "indexed": false,
          "internalType": "uint256",
          "name": "id",
          "type": "uint256"
        },
        {
          "indexed": false,
          "internalType": "uint256",
          "name": "value",
          "type": "uint256"
        }
      ],
      "name": "TransferSingle",
      "type": "event"
    },
    {
      "anonymous": false,
      "inputs": [
        {
          "indexed": false,
          "internalType": "string",
          "name": "value",
          "type": "string"
        },
        {
          "indexed": true,
          "internalType": "uint256",
          "name": "id",
          "type": "uint256"
        }
      ],
      "name": "URI",
      "type": "event"
    },
    {
      "inputs": [],
      "name": "activatePreSale",
      "outputs": [],
      "stateMutability": "nonpayable",
      "type": "function"
    },
    {
      "inputs": [],
      "name": "activateSale",
      "outputs": [],
      "stateMutability": "nonpayable",
      "type": "function"
    },
    {
      "inputs": [
        {
          "internalType": "address",
          "name": "account",
          "type": "address"
        },
        {
          "internalType": "uint256",
          "name": "id",
          "type": "uint256"
        }
      ],
      "name": "balanceOf",
      "outputs": [
        {
          "internalType": "uint256",
          "name": "",
          "type": "uint256"
        }
      ],
      "stateMutability": "view",
      "type": "function"
    },
    {
      "inputs": [
        {
          "internalType": "address[]",
          "name": "accounts",
          "type": "address[]"
        },
        {
          "internalType": "uint256[]",
          "name": "ids",
          "type": "uint256[]"
        }
      ],
      "name": "balanceOfBatch",
      "outputs": [
        {
          "internalType": "uint256[]",
          "name": "",
          "type": "uint256[]"
        }
      ],
      "stateMutability": "view",
      "type": "function"
    },
    {
      "inputs": [
        {
          "internalType": "uint256",
          "name": "_fruitTokenId",
          "type": "uint256"
        },
        {
          "internalType": "uint256",
          "name": "_fourInOneTokenId",
          "type": "uint256"
        },
        {
          "internalType": "uint256",
          "name": "_quadrant",
          "type": "uint256"
        }
      ],
      "name": "cuteeExchange",
      "outputs": [],
      "stateMutability": "nonpayable",
      "type": "function"
    },
    {
      "inputs": [],
      "name": "getBalance",
      "outputs": [
        {
          "internalType": "uint256",
          "name": "",
          "type": "uint256"
        }
      ],
      "stateMutability": "view",
      "type": "function"
    },
    {
      "inputs": [],
      "name": "getBundleBalance",
      "outputs": [
        {
          "internalType": "uint256",
          "name": "",
          "type": "uint256"
        }
      ],
      "stateMutability": "view",
      "type": "function"
    },
    {
      "inputs": [],
      "name": "getBundleSupply",
      "outputs": [
        {
          "internalType": "uint256",
          "name": "",
          "type": "uint256"
        }
      ],
      "stateMutability": "view",
      "type": "function"
    },
    {
      "inputs": [],
      "name": "getReceiptSupply",
      "outputs": [
        {
          "internalType": "uint256",
          "name": "",
          "type": "uint256"
        }
      ],
      "stateMutability": "view",
      "type": "function"
    },
    {
      "inputs": [
        {
          "internalType": "address",
          "name": "_address",
          "type": "address"
        }
      ],
      "name": "getVIF",
      "outputs": [
        {
          "internalType": "uint256",
          "name": "",
          "type": "uint256"
        }
      ],
      "stateMutability": "view",
      "type": "function"
    },
    {
      "inputs": [],
      "name": "getVIFLeft",
      "outputs": [
        {
          "internalType": "uint256",
          "name": "",
          "type": "uint256"
        }
      ],
      "stateMutability": "view",
      "type": "function"
    },
    {
      "inputs": [
        {
          "internalType": "address[]",
          "name": "_to",
          "type": "address[]"
        }
      ],
      "name": "giveawayMintBatch",
      "outputs": [],
      "stateMutability": "nonpayable",
      "type": "function"
    },
    {
      "inputs": [
        {
          "internalType": "uint256",
          "name": "_supply",
          "type": "uint256"
        }
      ],
      "name": "increaseReceiptSupply",
      "outputs": [],
      "stateMutability": "nonpayable",
      "type": "function"
    },
    {
      "inputs": [
        {
          "internalType": "address",
          "name": "account",
          "type": "address"
        },
        {
          "internalType": "address",
          "name": "operator",
          "type": "address"
        }
      ],
      "name": "isApprovedForAll",
      "outputs": [
        {
          "internalType": "bool",
          "name": "",
          "type": "bool"
        }
      ],
      "stateMutability": "view",
      "type": "function"
    },
    {
      "inputs": [],
      "name": "mintBundle",
      "outputs": [],
      "stateMutability": "payable",
      "type": "function"
    },
    {
      "inputs": [],
      "name": "owner",
      "outputs": [
        {
          "internalType": "address",
          "name": "",
          "type": "address"
        }
      ],
      "stateMutability": "view",
      "type": "function"
    },
    {
      "inputs": [],
      "name": "renounceOwnership",
      "outputs": [],
      "stateMutability": "nonpayable",
      "type": "function"
    },
    {
      "inputs": [
        {
          "internalType": "uint256",
          "name": "_VIFCount",
          "type": "uint256"
        }
      ],
      "name": "resetVIF",
      "outputs": [],
      "stateMutability": "nonpayable",
      "type": "function"
    },
    {
      "inputs": [
        {
          "internalType": "address",
          "name": "from",
          "type": "address"
        },
        {
          "internalType": "address",
          "name": "to",
          "type": "address"
        },
        {
          "internalType": "uint256[]",
          "name": "ids",
          "type": "uint256[]"
        },
        {
          "internalType": "uint256[]",
          "name": "amounts",
          "type": "uint256[]"
        },
        {
          "internalType": "bytes",
          "name": "data",
          "type": "bytes"
        }
      ],
      "name": "safeBatchTransferFrom",
      "outputs": [],
      "stateMutability": "nonpayable",
      "type": "function"
    },
    {
      "inputs": [
        {
          "internalType": "address",
          "name": "from",
          "type": "address"
        },
        {
          "internalType": "address",
          "name": "to",
          "type": "address"
        },
        {
          "internalType": "uint256",
          "name": "id",
          "type": "uint256"
        },
        {
          "internalType": "uint256",
          "name": "amount",
          "type": "uint256"
        },
        {
          "internalType": "bytes",
          "name": "data",
          "type": "bytes"
        }
      ],
      "name": "safeTransferFrom",
      "outputs": [],
      "stateMutability": "nonpayable",
      "type": "function"
    },
    {
      "inputs": [
        {
          "internalType": "address",
          "name": "operator",
          "type": "address"
        },
        {
          "internalType": "bool",
          "name": "approved",
          "type": "bool"
        }
      ],
      "name": "setApprovalForAll",
      "outputs": [],
      "stateMutability": "nonpayable",
      "type": "function"
    },
    {
      "inputs": [
        {
          "internalType": "uint256",
          "name": "_gwei",
          "type": "uint256"
        }
      ],
      "name": "setPricePerBundle",
      "outputs": [],
      "stateMutability": "nonpayable",
      "type": "function"
    },
    {
      "inputs": [
        {
          "internalType": "uint256",
          "name": "_saleStart",
          "type": "uint256"
        }
      ],
      "name": "setSaleStartTime",
      "outputs": [],
      "stateMutability": "nonpayable",
      "type": "function"
    },
    {
      "inputs": [
        {
          "internalType": "address[]",
          "name": "_vifs",
          "type": "address[]"
        }
      ],
      "name": "setVIF",
      "outputs": [],
      "stateMutability": "nonpayable",
      "type": "function"
    },
    {
      "inputs": [
        {
          "internalType": "bytes4",
          "name": "interfaceId",
          "type": "bytes4"
        }
      ],
      "name": "supportsInterface",
      "outputs": [
        {
          "internalType": "bool",
          "name": "",
          "type": "bool"
        }
      ],
      "stateMutability": "view",
      "type": "function"
    },
    {
      "inputs": [
        {
          "internalType": "address",
          "name": "newOwner",
          "type": "address"
        }
      ],
      "name": "transferOwnership",
      "outputs": [],
      "stateMutability": "nonpayable",
      "type": "function"
    },
    {
      "inputs": [
        {
          "internalType": "uint256",
          "name": "",
          "type": "uint256"
        }
      ],
      "name": "uri",
      "outputs": [
        {
          "internalType": "string",
          "name": "",
          "type": "string"
        }
      ],
      "stateMutability": "view",
      "type": "function"
    },
    {
      "inputs": [],
      "name": "withdrawBalance",
      "outputs": [],
      "stateMutability": "nonpayable",
      "type": "function"
    }
  ],
  "bytecode": "0x60806040526101f4600655610bb86007556001600855620186a160095560fa600a556102ee600b556000600e556000600f5567016345785d8a00006011553480156200004a57600080fd5b5060405162005ad438038062005ad48339818101604052810190620000709190620002b6565b806200008281620000aa60201b60201c565b50620000a362000097620000c660201b60201c565b620000ce60201b60201c565b506200046b565b8060029080519060200190620000c292919062000194565b5050565b600033905090565b6000600360009054906101000a900473ffffffffffffffffffffffffffffffffffffffff16905081600360006101000a81548173ffffffffffffffffffffffffffffffffffffffff021916908373ffffffffffffffffffffffffffffffffffffffff1602179055508173ffffffffffffffffffffffffffffffffffffffff168173ffffffffffffffffffffffffffffffffffffffff167f8be0079c531659141344cd1fd0a4f28419497f9722a3daafe3b4186f6b6457e060405160405180910390a35050565b828054620001a29062000390565b90600052602060002090601f016020900481019282620001c6576000855562000212565b82601f10620001e157805160ff191683800117855562000212565b8280016001018555821562000212579182015b8281111562000211578251825591602001919060010190620001f4565b5b50905062000221919062000225565b5090565b5b808211156200024057600081600090555060010162000226565b5090565b60006200025b620002558462000324565b620002fb565b9050828152602081018484840111156200027457600080fd5b620002818482856200035a565b509392505050565b600082601f8301126200029b57600080fd5b8151620002ad84826020860162000244565b91505092915050565b600060208284031215620002c957600080fd5b600082015167ffffffffffffffff811115620002e457600080fd5b620002f28482850162000289565b91505092915050565b6000620003076200031a565b9050620003158282620003c6565b919050565b6000604051905090565b600067ffffffffffffffff8211156200034257620003416200042b565b5b6200034d826200045a565b9050602081019050919050565b60005b838110156200037a5780820151818401526020810190506200035d565b838111156200038a576000848401525b50505050565b60006002820490506001821680620003a957607f821691505b60208210811415620003c057620003bf620003fc565b5b50919050565b620003d1826200045a565b810181811067ffffffffffffffff82111715620003f357620003f26200042b565b5b80604052505050565b7f4e487b7100000000000000000000000000000000000000000000000000000000600052602260045260246000fd5b7f4e487b7100000000000000000000000000000000000000000000000000000000600052604160045260246000fd5b6000601f19601f8301169050919050565b615659806200047b6000396000f3fe6080604052600436106101b65760003560e01c806376937cef116100ec578063a22cb4651161008a578063cec2e73311610064578063cec2e7331461059c578063e985e9c5146105c5578063f242432a14610602578063f2fde38b1461062b576101b6565b8063a22cb46514610531578063b08504e91461055a578063c721f08d14610585576101b6565b80638686d795116100c65780638686d795146104895780638da5cb5b146104b25780639171c3da146104dd5780639b14960814610508576101b6565b806376937cef1461040c5780638110b32f1461043757806383fc306714610460576101b6565b80633efc520011610159578063525f8a5c11610133578063525f8a5c1461038a5780635f4c5b25146103b35780635fd8c710146103de578063715018a6146103f5576101b6565b80633efc52001461031a578063410404b7146103435780634e1273f41461034d576101b6565b806312065fe01161019557806312065fe0146102725780631307bb001461029d5780632eb2c2d6146102b45780633bdb7c9e146102dd576101b6565b8062fdd58e146101bb57806301ffc9a7146101f85780630e89341c14610235575b600080fd5b3480156101c757600080fd5b506101e260048036038101906101dd9190613efb565b610654565b6040516101ef9190614a3e565b60405180910390f35b34801561020457600080fd5b5061021f600480360381019061021a9190614029565b61071d565b60405161022c91906146e1565b60405180910390f35b34801561024157600080fd5b5061025c6004803603810190610257919061407b565b6107ff565b60405161026991906146fc565b60405180910390f35b34801561027e57600080fd5b50610287610893565b6040516102949190614a3e565b60405180910390f35b3480156102a957600080fd5b506102b2610917565b005b3480156102c057600080fd5b506102db60048036038101906102d69190613d71565b6109b6565b005b3480156102e957600080fd5b5061030460048036038101906102ff9190613d0c565b610a57565b6040516103119190614a3e565b60405180910390f35b34801561032657600080fd5b50610341600480360381019061033c919061407b565b610b1c565b005b61034b610ba2565b005b34801561035957600080fd5b50610374600480360381019061036f9190613fbd565b611360565b6040516103819190614688565b60405180910390f35b34801561039657600080fd5b506103b160048036038101906103ac919061407b565b611511565b005b3480156103bf57600080fd5b506103c8611597565b6040516103d59190614a3e565b60405180910390f35b3480156103ea57600080fd5b506103f36115a1565b005b34801561040157600080fd5b5061040a6116a9565b005b34801561041857600080fd5b50610421611731565b60405161042e9190614a3e565b60405180910390f35b34801561044357600080fd5b5061045e600480360381019061045991906140a4565b61173b565b005b34801561046c57600080fd5b506104876004803603810190610482919061407b565b611c6c565b005b34801561049557600080fd5b506104b060048036038101906104ab919061407b565b611d38565b005b3480156104be57600080fd5b506104c7611e99565b6040516104d49190614582565b60405180910390f35b3480156104e957600080fd5b506104f2611ec3565b6040516104ff9190614a3e565b60405180910390f35b34801561051457600080fd5b5061052f600480360381019061052a9190613f7c565b611f49565b005b34801561053d57600080fd5b5061055860048036038101906105539190613ebf565b61216b565b005b34801561056657600080fd5b5061056f612181565b60405161057c9190614a3e565b60405180910390f35b34801561059157600080fd5b5061059a6121c8565b005b3480156105a857600080fd5b506105c360048036038101906105be9190613f37565b612267565b005b3480156105d157600080fd5b506105ec60048036038101906105e79190613d35565b6128aa565b6040516105f991906146e1565b60405180910390f35b34801561060e57600080fd5b5061062960048036038101906106249190613e30565b61293e565b005b34801561063757600080fd5b50610652600480360381019061064d9190613d0c565b6129df565b005b60008073ffffffffffffffffffffffffffffffffffffffff168373ffffffffffffffffffffffffffffffffffffffff1614156106c5576040517f08c379a00000000000000000000000000000000000000000000000000000000081526004016106bc9061475e565b60405180910390fd5b60008083815260200190815260200160002060008473ffffffffffffffffffffffffffffffffffffffff1673ffffffffffffffffffffffffffffffffffffffff16815260200190815260200160002054905092915050565b60007fd9b67a26000000000000000000000000000000000000000000000000000000007bffffffffffffffffffffffffffffffffffffffffffffffffffffffff1916827bffffffffffffffffffffffffffffffffffffffffffffffffffffffff191614806107e857507f0e89341c000000000000000000000000000000000000000000000000000000007bffffffffffffffffffffffffffffffffffffffffffffffffffffffff1916827bffffffffffffffffffffffffffffffffffffffffffffffffffffffff1916145b806107f857506107f782612ad7565b5b9050919050565b60606002805461080e90614d0b565b80601f016020809104026020016040519081016040528092919081815260200182805461083a90614d0b565b80156108875780601f1061085c57610100808354040283529160200191610887565b820191906000526020600020905b81548152906001019060200180831161086a57829003601f168201915b50505050509050919050565b600061089d612b41565b73ffffffffffffffffffffffffffffffffffffffff166108bb611e99565b73ffffffffffffffffffffffffffffffffffffffff1614610911576040517f08c379a0000000000000000000000000000000000000000000000000000000008152600401610908906148de565b60405180910390fd5b47905090565b61091f612b41565b73ffffffffffffffffffffffffffffffffffffffff1661093d611e99565b73ffffffffffffffffffffffffffffffffffffffff1614610993576040517f08c379a000000000000000000000000000000000000000000000000000000000815260040161098a906148de565b60405180910390fd5b6000600e5414156109ab576001600f819055506109b4565b6000600f819055505b565b6109be612b41565b73ffffffffffffffffffffffffffffffffffffffff168573ffffffffffffffffffffffffffffffffffffffff161480610a045750610a03856109fe612b41565b6128aa565b5b610a43576040517f08c379a0000000000000000000000000000000000000000000000000000000008152600401610a3a9061483e565b60405180910390fd5b610a508585858585612b49565b5050505050565b6000610a61612b41565b73ffffffffffffffffffffffffffffffffffffffff16610a7f611e99565b73ffffffffffffffffffffffffffffffffffffffff1614610ad5576040517f08c379a0000000000000000000000000000000000000000000000000000000008152600401610acc906148de565b60405180910390fd5b600460008373ffffffffffffffffffffffffffffffffffffffff1673ffffffffffffffffffffffffffffffffffffffff168152602001908152602001600020549050919050565b610b24612b41565b73ffffffffffffffffffffffffffffffffffffffff16610b42611e99565b73ffffffffffffffffffffffffffffffffffffffff1614610b98576040517f08c379a0000000000000000000000000000000000000000000000000000000008152600401610b8f906148de565b60405180910390fd5b8060118190555050565b6001600f541415610c34576000600460003373ffffffffffffffffffffffffffffffffffffffff1673ffffffffffffffffffffffffffffffffffffffff1681526020019081526020016000205411610c2f576040517f08c379a0000000000000000000000000000000000000000000000000000000008152600401610c2690614a1e565b60405180910390fd5b610c7a565b6001600e5414610c79576040517f08c379a0000000000000000000000000000000000000000000000000000000008152600401610c709061485e565b60405180910390fd5b5b67016345785d8a0000341015610cc5576040517f08c379a0000000000000000000000000000000000000000000000000000000008152600401610cbc906149fe565b60405180910390fd5b6000600c60003373ffffffffffffffffffffffffffffffffffffffff1673ffffffffffffffffffffffffffffffffffffffff1681526020019081526020016000205414610d47576040517f08c379a0000000000000000000000000000000000000000000000000000000008152600401610d3e9061495e565b60405180910390fd5b6000600b5411610d8c576040517f08c379a0000000000000000000000000000000000000000000000000000000008152600401610d83906148fe565b60405180910390fd5b3273ffffffffffffffffffffffffffffffffffffffff163373ffffffffffffffffffffffffffffffffffffffff1614610dfa576040517f08c379a0000000000000000000000000000000000000000000000000000000008152600401610df1906147fe565b60405180910390fd5b6000600667ffffffffffffffff811115610e3d577f4e487b7100000000000000000000000000000000000000000000000000000000600052604160045260246000fd5b604051908082528060200260200182016040528015610e6b5781602001602082028036833780820191505090505b5090506000600667ffffffffffffffff811115610eb1577f4e487b7100000000000000000000000000000000000000000000000000000000600052604160045260246000fd5b604051908082528060200260200182016040528015610edf5781602001602082028036833780820191505090505b509050600182600081518110610f1e577f4e487b7100000000000000000000000000000000000000000000000000000000600052603260045260246000fd5b602002602001018181525050600182600181518110610f66577f4e487b7100000000000000000000000000000000000000000000000000000000600052603260045260246000fd5b602002602001018181525050600182600281518110610fae577f4e487b7100000000000000000000000000000000000000000000000000000000600052603260045260246000fd5b602002602001018181525050600182600381518110610ff6577f4e487b7100000000000000000000000000000000000000000000000000000000600052603260045260246000fd5b60200260200101818152505060018260048151811061103e577f4e487b7100000000000000000000000000000000000000000000000000000000600052603260045260246000fd5b602002602001018181525050600382600581518110611086577f4e487b7100000000000000000000000000000000000000000000000000000000600052603260045260246000fd5b602002602001018181525050600854816000815181106110cf577f4e487b7100000000000000000000000000000000000000000000000000000000600052603260045260246000fd5b602002602001018181525050600860008154809291906110ee90614d6e565b919050555060085481600181518110611130577f4e487b7100000000000000000000000000000000000000000000000000000000600052603260045260246000fd5b6020026020010181815250506008600081548092919061114f90614d6e565b919050555060085481600281518110611191577f4e487b7100000000000000000000000000000000000000000000000000000000600052603260045260246000fd5b602002602001018181525050600860008154809291906111b090614d6e565b9190505550600854816003815181106111f2577f4e487b7100000000000000000000000000000000000000000000000000000000600052603260045260246000fd5b6020026020010181815250506008600081548092919061121190614d6e565b919050555060095481600481518110611253577f4e487b7100000000000000000000000000000000000000000000000000000000600052603260045260246000fd5b6020026020010181815250506009600081548092919061127290614d6e565b91905055506000816005815181106112b3577f4e487b7100000000000000000000000000000000000000000000000000000000600052603260045260246000fd5b602002602001018181525050600c60003373ffffffffffffffffffffffffffffffffffffffff1673ffffffffffffffffffffffffffffffffffffffff168152602001908152602001600020600081548092919061130f90614d6e565b919050555061132f33828460405180602001604052806000815250612ea9565b600360075461133e9190614bf7565b600781905550600b600081548092919061135790614ce1565b91905055505050565b606081518351146113a6576040517f08c379a000000000000000000000000000000000000000000000000000000000815260040161139d9061497e565b60405180910390fd5b6000835167ffffffffffffffff8111156113e9577f4e487b7100000000000000000000000000000000000000000000000000000000600052604160045260246000fd5b6040519080825280602002602001820160405280156114175781602001602082028036833780820191505090505b50905060005b8451811015611506576114b0858281518110611462577f4e487b7100000000000000000000000000000000000000000000000000000000600052603260045260246000fd5b60200260200101518583815181106114a3577f4e487b7100000000000000000000000000000000000000000000000000000000600052603260045260246000fd5b6020026020010151610654565b8282815181106114e9577f4e487b7100000000000000000000000000000000000000000000000000000000600052603260045260246000fd5b602002602001018181525050806114ff90614d6e565b905061141d565b508091505092915050565b611519612b41565b73ffffffffffffffffffffffffffffffffffffffff16611537611e99565b73ffffffffffffffffffffffffffffffffffffffff161461158d576040517f08c379a0000000000000000000000000000000000000000000000000000000008152600401611584906148de565b60405180910390fd5b8060108190555050565b6000600754905090565b6115a9612b41565b73ffffffffffffffffffffffffffffffffffffffff166115c7611e99565b73ffffffffffffffffffffffffffffffffffffffff161461161d576040517f08c379a0000000000000000000000000000000000000000000000000000000008152600401611614906148de565b60405180910390fd5b60004711611660576040517f08c379a00000000000000000000000000000000000000000000000000000000081526004016116579061491e565b60405180910390fd5b3373ffffffffffffffffffffffffffffffffffffffff166108fc479081150290604051600060405180830381858888f193505050501580156116a6573d6000803e3d6000fd5b50565b6116b1612b41565b73ffffffffffffffffffffffffffffffffffffffff166116cf611e99565b73ffffffffffffffffffffffffffffffffffffffff1614611725576040517f08c379a000000000000000000000000000000000000000000000000000000000815260040161171c906148de565b60405180910390fd5b61172f6000613113565b565b6000600b54905090565b6000600367ffffffffffffffff81111561177e577f4e487b7100000000000000000000000000000000000000000000000000000000600052604160045260246000fd5b6040519080825280602002602001820160405280156117ac5781602001602082028036833780820191505090505b5090506000600367ffffffffffffffff8111156117f2577f4e487b7100000000000000000000000000000000000000000000000000000000600052604160045260246000fd5b6040519080825280602002602001820160405280156118205781602001602082028036833780820191505090505b5090506000600367ffffffffffffffff811115611866577f4e487b7100000000000000000000000000000000000000000000000000000000600052604160045260246000fd5b6040519080825280602002602001820160405280156118945781602001602082028036833780820191505090505b50905033836000815181106118d2577f4e487b7100000000000000000000000000000000000000000000000000000000600052603260045260246000fd5b602002602001019073ffffffffffffffffffffffffffffffffffffffff16908173ffffffffffffffffffffffffffffffffffffffff16815250503383600181518110611947577f4e487b7100000000000000000000000000000000000000000000000000000000600052603260045260246000fd5b602002602001019073ffffffffffffffffffffffffffffffffffffffff16908173ffffffffffffffffffffffffffffffffffffffff168152505033836002815181106119bc577f4e487b7100000000000000000000000000000000000000000000000000000000600052603260045260246000fd5b602002602001019073ffffffffffffffffffffffffffffffffffffffff16908173ffffffffffffffffffffffffffffffffffffffff16815250508582600081518110611a31577f4e487b7100000000000000000000000000000000000000000000000000000000600052603260045260246000fd5b6020026020010181815250508482600181518110611a78577f4e487b7100000000000000000000000000000000000000000000000000000000600052603260045260246000fd5b602002602001018181525050600082600281518110611ac0577f4e487b7100000000000000000000000000000000000000000000000000000000600052603260045260246000fd5b602002602001018181525050611ad68383611360565b9050600081600081518110611b14577f4e487b7100000000000000000000000000000000000000000000000000000000600052603260045260246000fd5b602002602001015111611b5c576040517f08c379a0000000000000000000000000000000000000000000000000000000008152600401611b539061489e565b60405180910390fd5b600081600181518110611b98577f4e487b7100000000000000000000000000000000000000000000000000000000600052603260045260246000fd5b602002602001015111611be0576040517f08c379a0000000000000000000000000000000000000000000000000000000008152600401611bd79061487e565b60405180910390fd5b600081600281518110611c1c577f4e487b7100000000000000000000000000000000000000000000000000000000600052603260045260246000fd5b602002602001015111611c64576040517f08c379a0000000000000000000000000000000000000000000000000000000008152600401611c5b906149de565b60405180910390fd5b505050505050565b611c74612b41565b73ffffffffffffffffffffffffffffffffffffffff16611c92611e99565b73ffffffffffffffffffffffffffffffffffffffff1614611ce8576040517f08c379a0000000000000000000000000000000000000000000000000000000008152600401611cdf906148de565b60405180910390fd5b80600754611cf69190614ba1565b6007819055507fe3d47dee33b959cc59941f840525125123544e1f194b235f340f0c6147697ac33382604051611d2d92919061465f565b60405180910390a150565b611d40612b41565b73ffffffffffffffffffffffffffffffffffffffff16611d5e611e99565b73ffffffffffffffffffffffffffffffffffffffff1614611db4576040517f08c379a0000000000000000000000000000000000000000000000000000000008152600401611dab906148de565b60405180910390fd5b60005b600580549050811015611e805760006004600060058481548110611e04577f4e487b7100000000000000000000000000000000000000000000000000000000600052603260045260246000fd5b9060005260206000200160009054906101000a900473ffffffffffffffffffffffffffffffffffffffff1673ffffffffffffffffffffffffffffffffffffffff1673ffffffffffffffffffffffffffffffffffffffff168152602001908152602001600020819055508080611e7890614d6e565b915050611db7565b5060056000611e8f9190613a87565b8060068190555050565b6000600360009054906101000a900473ffffffffffffffffffffffffffffffffffffffff16905090565b6000611ecd612b41565b73ffffffffffffffffffffffffffffffffffffffff16611eeb611e99565b73ffffffffffffffffffffffffffffffffffffffff1614611f41576040517f08c379a0000000000000000000000000000000000000000000000000000000008152600401611f38906148de565b60405180910390fd5b600654905090565b611f51612b41565b73ffffffffffffffffffffffffffffffffffffffff16611f6f611e99565b73ffffffffffffffffffffffffffffffffffffffff1614611fc5576040517f08c379a0000000000000000000000000000000000000000000000000000000008152600401611fbc906148de565b60405180910390fd5b8051600654101561200b576040517f08c379a00000000000000000000000000000000000000000000000000000000081526004016120029061479e565b60405180910390fd5b60005b815181101561215257600160046000848481518110612056577f4e487b7100000000000000000000000000000000000000000000000000000000600052603260045260246000fd5b602002602001015173ffffffffffffffffffffffffffffffffffffffff1673ffffffffffffffffffffffffffffffffffffffff1681526020019081526020016000208190555060058282815181106120d7577f4e487b7100000000000000000000000000000000000000000000000000000000600052603260045260246000fd5b60200260200101519080600181540180825580915050600190039060005260206000200160009091909190916101000a81548173ffffffffffffffffffffffffffffffffffffffff021916908373ffffffffffffffffffffffffffffffffffffffff160217905550808061214a90614d6e565b91505061200e565b5080516006546121629190614bf7565b60068190555050565b61217d612176612b41565b83836131d9565b5050565b6000600c60003373ffffffffffffffffffffffffffffffffffffffff1673ffffffffffffffffffffffffffffffffffffffff16815260200190815260200160002054905090565b6121d0612b41565b73ffffffffffffffffffffffffffffffffffffffff166121ee611e99565b73ffffffffffffffffffffffffffffffffffffffff1614612244576040517f08c379a000000000000000000000000000000000000000000000000000000000815260040161223b906148de565b60405180910390fd5b6000600e54141561225c576001600e81905550612265565b6000600e819055505b565b61226f612b41565b73ffffffffffffffffffffffffffffffffffffffff1661228d611e99565b73ffffffffffffffffffffffffffffffffffffffff16146122e3576040517f08c379a00000000000000000000000000000000000000000000000000000000081526004016122da906148de565b60405180910390fd5b6000600a5411612328576040517f08c379a000000000000000000000000000000000000000000000000000000000815260040161231f906147de565b60405180910390fd5b6000600667ffffffffffffffff81111561236b577f4e487b7100000000000000000000000000000000000000000000000000000000600052604160045260246000fd5b6040519080825280602002602001820160405280156123995781602001602082028036833780820191505090505b5090506001816000815181106123d8577f4e487b7100000000000000000000000000000000000000000000000000000000600052603260045260246000fd5b602002602001018181525050600181600181518110612420577f4e487b7100000000000000000000000000000000000000000000000000000000600052603260045260246000fd5b602002602001018181525050600181600281518110612468577f4e487b7100000000000000000000000000000000000000000000000000000000600052603260045260246000fd5b6020026020010181815250506001816003815181106124b0577f4e487b7100000000000000000000000000000000000000000000000000000000600052603260045260246000fd5b6020026020010181815250506001816004815181106124f8577f4e487b7100000000000000000000000000000000000000000000000000000000600052603260045260246000fd5b602002602001018181525050600381600581518110612540577f4e487b7100000000000000000000000000000000000000000000000000000000600052603260045260246000fd5b6020026020010181815250506000600667ffffffffffffffff81111561258f577f4e487b7100000000000000000000000000000000000000000000000000000000600052604160045260246000fd5b6040519080825280602002602001820160405280156125bd5781602001602082028036833780820191505090505b50905060005b848490508110156128a3576008548260008151811061260b577f4e487b7100000000000000000000000000000000000000000000000000000000600052603260045260246000fd5b6020026020010181815250506008600081548092919061262a90614d6e565b91905055506008548260018151811061266c577f4e487b7100000000000000000000000000000000000000000000000000000000600052603260045260246000fd5b6020026020010181815250506008600081548092919061268b90614d6e565b9190505550600854826002815181106126cd577f4e487b7100000000000000000000000000000000000000000000000000000000600052603260045260246000fd5b602002602001018181525050600860008154809291906126ec90614d6e565b91905055506008548260038151811061272e577f4e487b7100000000000000000000000000000000000000000000000000000000600052603260045260246000fd5b6020026020010181815250506008600081548092919061274d90614d6e565b91905055506009548260048151811061278f577f4e487b7100000000000000000000000000000000000000000000000000000000600052603260045260246000fd5b602002602001018181525050600960008154809291906127ae90614d6e565b91905055506000826005815181106127ef577f4e487b7100000000000000000000000000000000000000000000000000000000600052603260045260246000fd5b602002602001018181525050612863858583818110612837577f4e487b7100000000000000000000000000000000000000000000000000000000600052603260045260246000fd5b905060200201602081019061284c9190613d0c565b838560405180602001604052806000815250612ea9565b60036007546128729190614bf7565b600781905550600a600081548092919061288b90614ce1565b9190505550808061289b90614d6e565b9150506125c3565b5050505050565b6000600160008473ffffffffffffffffffffffffffffffffffffffff1673ffffffffffffffffffffffffffffffffffffffff16815260200190815260200160002060008373ffffffffffffffffffffffffffffffffffffffff1673ffffffffffffffffffffffffffffffffffffffff16815260200190815260200160002060009054906101000a900460ff16905092915050565b612946612b41565b73ffffffffffffffffffffffffffffffffffffffff168573ffffffffffffffffffffffffffffffffffffffff16148061298c575061298b85612986612b41565b6128aa565b5b6129cb576040517f08c379a00000000000000000000000000000000000000000000000000000000081526004016129c2906147be565b60405180910390fd5b6129d88585858585613346565b5050505050565b6129e7612b41565b73ffffffffffffffffffffffffffffffffffffffff16612a05611e99565b73ffffffffffffffffffffffffffffffffffffffff1614612a5b576040517f08c379a0000000000000000000000000000000000000000000000000000000008152600401612a52906148de565b60405180910390fd5b600073ffffffffffffffffffffffffffffffffffffffff168173ffffffffffffffffffffffffffffffffffffffff161415612acb576040517f08c379a0000000000000000000000000000000000000000000000000000000008152600401612ac29061477e565b60405180910390fd5b612ad481613113565b50565b60007f01ffc9a7000000000000000000000000000000000000000000000000000000007bffffffffffffffffffffffffffffffffffffffffffffffffffffffff1916827bffffffffffffffffffffffffffffffffffffffffffffffffffffffff1916149050919050565b600033905090565b8151835114612b8d576040517f08c379a0000000000000000000000000000000000000000000000000000000008152600401612b849061499e565b60405180910390fd5b600073ffffffffffffffffffffffffffffffffffffffff168473ffffffffffffffffffffffffffffffffffffffff161415612bfd576040517f08c379a0000000000000000000000000000000000000000000000000000000008152600401612bf49061481e565b60405180910390fd5b6000612c07612b41565b9050612c178187878787876135c8565b60005b8451811015612e14576000858281518110612c5e577f4e487b7100000000000000000000000000000000000000000000000000000000600052603260045260246000fd5b602002602001015190506000858381518110612ca3577f4e487b7100000000000000000000000000000000000000000000000000000000600052603260045260246000fd5b60200260200101519050600080600084815260200190815260200160002060008b73ffffffffffffffffffffffffffffffffffffffff1673ffffffffffffffffffffffffffffffffffffffff16815260200190815260200160002054905081811015612d44576040517f08c379a0000000000000000000000000000000000000000000000000000000008152600401612d3b906148be565b60405180910390fd5b81810360008085815260200190815260200160002060008c73ffffffffffffffffffffffffffffffffffffffff1673ffffffffffffffffffffffffffffffffffffffff168152602001908152602001600020819055508160008085815260200190815260200160002060008b73ffffffffffffffffffffffffffffffffffffffff1673ffffffffffffffffffffffffffffffffffffffff1681526020019081526020016000206000828254612df99190614ba1565b9250508190555050505080612e0d90614d6e565b9050612c1a565b508473ffffffffffffffffffffffffffffffffffffffff168673ffffffffffffffffffffffffffffffffffffffff168273ffffffffffffffffffffffffffffffffffffffff167f4a39dc06d4c0dbc64b70af90fd698a233a518aa5d07e595d983b8c0526c8f7fb8787604051612e8b9291906146aa565b60405180910390a4612ea18187878787876135d0565b505050505050565b600073ffffffffffffffffffffffffffffffffffffffff168473ffffffffffffffffffffffffffffffffffffffff161415612f19576040517f08c379a0000000000000000000000000000000000000000000000000000000008152600401612f10906149be565b60405180910390fd5b8151835114612f5d576040517f08c379a0000000000000000000000000000000000000000000000000000000008152600401612f549061499e565b60405180910390fd5b6000612f67612b41565b9050612f78816000878787876135c8565b60005b845181101561307d57838181518110612fbd577f4e487b7100000000000000000000000000000000000000000000000000000000600052603260045260246000fd5b6020026020010151600080878481518110613001577f4e487b7100000000000000000000000000000000000000000000000000000000600052603260045260246000fd5b6020026020010151815260200190815260200160002060008873ffffffffffffffffffffffffffffffffffffffff1673ffffffffffffffffffffffffffffffffffffffff16815260200190815260200160002060008282546130639190614ba1565b92505081905550808061307590614d6e565b915050612f7b565b508473ffffffffffffffffffffffffffffffffffffffff16600073ffffffffffffffffffffffffffffffffffffffff168273ffffffffffffffffffffffffffffffffffffffff167f4a39dc06d4c0dbc64b70af90fd698a233a518aa5d07e595d983b8c0526c8f7fb87876040516130f59291906146aa565b60405180910390a461310c816000878787876135d0565b5050505050565b6000600360009054906101000a900473ffffffffffffffffffffffffffffffffffffffff16905081600360006101000a81548173ffffffffffffffffffffffffffffffffffffffff021916908373ffffffffffffffffffffffffffffffffffffffff1602179055508173ffffffffffffffffffffffffffffffffffffffff168173ffffffffffffffffffffffffffffffffffffffff167f8be0079c531659141344cd1fd0a4f28419497f9722a3daafe3b4186f6b6457e060405160405180910390a35050565b8173ffffffffffffffffffffffffffffffffffffffff168373ffffffffffffffffffffffffffffffffffffffff161415613248576040517f08c379a000000000000000000000000000000000000000000000000000000000815260040161323f9061493e565b60405180910390fd5b80600160008573ffffffffffffffffffffffffffffffffffffffff1673ffffffffffffffffffffffffffffffffffffffff16815260200190815260200160002060008473ffffffffffffffffffffffffffffffffffffffff1673ffffffffffffffffffffffffffffffffffffffff16815260200190815260200160002060006101000a81548160ff0219169083151502179055508173ffffffffffffffffffffffffffffffffffffffff168373ffffffffffffffffffffffffffffffffffffffff167f17307eab39ab6107e8899845ad3d59bd9653f200f220920489ca2b5937696c318360405161333991906146e1565b60405180910390a3505050565b600073ffffffffffffffffffffffffffffffffffffffff168473ffffffffffffffffffffffffffffffffffffffff1614156133b6576040517f08c379a00000000000000000000000000000000000000000000000000000000081526004016133ad9061481e565b60405180910390fd5b60006133c0612b41565b90506133e08187876133d1886137b7565b6133da886137b7565b876135c8565b600080600086815260200190815260200160002060008873ffffffffffffffffffffffffffffffffffffffff1673ffffffffffffffffffffffffffffffffffffffff16815260200190815260200160002054905083811015613477576040517f08c379a000000000000000000000000000000000000000000000000000000000815260040161346e906148be565b60405180910390fd5b83810360008087815260200190815260200160002060008973ffffffffffffffffffffffffffffffffffffffff1673ffffffffffffffffffffffffffffffffffffffff168152602001908152602001600020819055508360008087815260200190815260200160002060008873ffffffffffffffffffffffffffffffffffffffff1673ffffffffffffffffffffffffffffffffffffffff168152602001908152602001600020600082825461352c9190614ba1565b925050819055508573ffffffffffffffffffffffffffffffffffffffff168773ffffffffffffffffffffffffffffffffffffffff168373ffffffffffffffffffffffffffffffffffffffff167fc3d58168c5ae7397731d063d5bbf3d657854427343f4c083240f7aacaa2d0f6288886040516135a9929190614a59565b60405180910390a46135bf82888888888861387d565b50505050505050565b505050505050565b6135ef8473ffffffffffffffffffffffffffffffffffffffff16613a64565b156137af578373ffffffffffffffffffffffffffffffffffffffff1663bc197c8187878686866040518663ffffffff1660e01b815260040161363595949392919061459d565b602060405180830381600087803b15801561364f57600080fd5b505af192505050801561368057506040513d601f19601f8201168201806040525081019061367d9190614052565b60015b6137265761368c614e44565b806308c379a014156136e957506136a1615531565b806136ac57506136eb565b806040517f08c379a00000000000000000000000000000000000000000000000000000000081526004016136e091906146fc565b60405180910390fd5b505b6040517f08c379a000000000000000000000000000000000000000000000000000000000815260040161371d9061471e565b60405180910390fd5b63bc197c8160e01b7bffffffffffffffffffffffffffffffffffffffffffffffffffffffff1916817bffffffffffffffffffffffffffffffffffffffffffffffffffffffff1916146137ad576040517f08c379a00000000000000000000000000000000000000000000000000000000081526004016137a49061473e565b60405180910390fd5b505b505050505050565b60606000600167ffffffffffffffff8111156137fc577f4e487b7100000000000000000000000000000000000000000000000000000000600052604160045260246000fd5b60405190808252806020026020018201604052801561382a5781602001602082028036833780820191505090505b5090508281600081518110613868577f4e487b7100000000000000000000000000000000000000000000000000000000600052603260045260246000fd5b60200260200101818152505080915050919050565b61389c8473ffffffffffffffffffffffffffffffffffffffff16613a64565b15613a5c578373ffffffffffffffffffffffffffffffffffffffff1663f23a6e6187878686866040518663ffffffff1660e01b81526004016138e2959493929190614605565b602060405180830381600087803b1580156138fc57600080fd5b505af192505050801561392d57506040513d601f19601f8201168201806040525081019061392a9190614052565b60015b6139d357613939614e44565b806308c379a01415613996575061394e615531565b806139595750613998565b806040517f08c379a000000000000000000000000000000000000000000000000000000000815260040161398d91906146fc565b60405180910390fd5b505b6040517f08c379a00000000000000000000000000000000000000000000000000000000081526004016139ca9061471e565b60405180910390fd5b63f23a6e6160e01b7bffffffffffffffffffffffffffffffffffffffffffffffffffffffff1916817bffffffffffffffffffffffffffffffffffffffffffffffffffffffff191614613a5a576040517f08c379a0000000000000000000000000000000000000000000000000000000008152600401613a519061473e565b60405180910390fd5b505b505050505050565b6000808273ffffffffffffffffffffffffffffffffffffffff163b119050919050565b5080546000825590600052602060002090810190613aa59190613aa8565b50565b5b80821115613ac1576000816000905550600101613aa9565b5090565b6000613ad8613ad384614aa7565b614a82565b90508083825260208201905082856020860282011115613af757600080fd5b60005b85811015613b275781613b0d8882613bdb565b845260208401935060208301925050600181019050613afa565b5050509392505050565b6000613b44613b3f84614ad3565b614a82565b90508083825260208201905082856020860282011115613b6357600080fd5b60005b85811015613b935781613b798882613cf7565b845260208401935060208301925050600181019050613b66565b5050509392505050565b6000613bb0613bab84614aff565b614a82565b905082815260208101848484011115613bc857600080fd5b613bd3848285614c9f565b509392505050565b600081359050613bea816155c7565b92915050565b60008083601f840112613c0257600080fd5b8235905067ffffffffffffffff811115613c1b57600080fd5b602083019150836020820283011115613c3357600080fd5b9250929050565b600082601f830112613c4b57600080fd5b8135613c5b848260208601613ac5565b91505092915050565b600082601f830112613c7557600080fd5b8135613c85848260208601613b31565b91505092915050565b600081359050613c9d816155de565b92915050565b600081359050613cb2816155f5565b92915050565b600081519050613cc7816155f5565b92915050565b600082601f830112613cde57600080fd5b8135613cee848260208601613b9d565b91505092915050565b600081359050613d068161560c565b92915050565b600060208284031215613d1e57600080fd5b6000613d2c84828501613bdb565b91505092915050565b60008060408385031215613d4857600080fd5b6000613d5685828601613bdb565b9250506020613d6785828601613bdb565b9150509250929050565b600080600080600060a08688031215613d8957600080fd5b6000613d9788828901613bdb565b9550506020613da888828901613bdb565b945050604086013567ffffffffffffffff811115613dc557600080fd5b613dd188828901613c64565b935050606086013567ffffffffffffffff811115613dee57600080fd5b613dfa88828901613c64565b925050608086013567ffffffffffffffff811115613e1757600080fd5b613e2388828901613ccd565b9150509295509295909350565b600080600080600060a08688031215613e4857600080fd5b6000613e5688828901613bdb565b9550506020613e6788828901613bdb565b9450506040613e7888828901613cf7565b9350506060613e8988828901613cf7565b925050608086013567ffffffffffffffff811115613ea657600080fd5b613eb288828901613ccd565b9150509295509295909350565b60008060408385031215613ed257600080fd5b6000613ee085828601613bdb565b9250506020613ef185828601613c8e565b9150509250929050565b60008060408385031215613f0e57600080fd5b6000613f1c85828601613bdb565b9250506020613f2d85828601613cf7565b9150509250929050565b60008060208385031215613f4a57600080fd5b600083013567ffffffffffffffff811115613f6457600080fd5b613f7085828601613bf0565b92509250509250929050565b600060208284031215613f8e57600080fd5b600082013567ffffffffffffffff811115613fa857600080fd5b613fb484828501613c3a565b91505092915050565b60008060408385031215613fd057600080fd5b600083013567ffffffffffffffff811115613fea57600080fd5b613ff685828601613c3a565b925050602083013567ffffffffffffffff81111561401357600080fd5b61401f85828601613c64565b9150509250929050565b60006020828403121561403b57600080fd5b600061404984828501613ca3565b91505092915050565b60006020828403121561406457600080fd5b600061407284828501613cb8565b91505092915050565b60006020828403121561408d57600080fd5b600061409b84828501613cf7565b91505092915050565b6000806000606084860312156140b957600080fd5b60006140c786828701613cf7565b93505060206140d886828701613cf7565b92505060406140e986828701613cf7565b9150509250925092565b60006140ff8383614564565b60208301905092915050565b61411481614c2b565b82525050565b600061412582614b40565b61412f8185614b6e565b935061413a83614b30565b8060005b8381101561416b57815161415288826140f3565b975061415d83614b61565b92505060018101905061413e565b5085935050505092915050565b61418181614c3d565b82525050565b600061419282614b4b565b61419c8185614b7f565b93506141ac818560208601614cae565b6141b581614e66565b840191505092915050565b60006141cb82614b56565b6141d58185614b90565b93506141e5818560208601614cae565b6141ee81614e66565b840191505092915050565b6000614206603483614b90565b915061421182614e84565b604082019050919050565b6000614229602883614b90565b915061423482614ed3565b604082019050919050565b600061424c602b83614b90565b915061425782614f22565b604082019050919050565b600061426f602683614b90565b915061427a82614f71565b604082019050919050565b6000614292601983614b90565b915061429d82614fc0565b602082019050919050565b60006142b5602983614b90565b91506142c082614fe9565b604082019050919050565b60006142d8601183614b90565b91506142e382615038565b602082019050919050565b60006142fb602583614b90565b915061430682615061565b604082019050919050565b600061431e602583614b90565b9150614329826150b0565b604082019050919050565b6000614341603283614b90565b915061434c826150ff565b604082019050919050565b6000614364601983614b90565b915061436f8261514e565b602082019050919050565b6000614387602183614b90565b915061439282615177565b604082019050919050565b60006143aa601d83614b90565b91506143b5826151c6565b602082019050919050565b60006143cd602a83614b90565b91506143d8826151ef565b604082019050919050565b60006143f0602083614b90565b91506143fb8261523e565b602082019050919050565b6000614413601c83614b90565b915061441e82615267565b602082019050919050565b6000614436601483614b90565b915061444182615290565b602082019050919050565b6000614459602983614b90565b9150614464826152b9565b604082019050919050565b600061447c603383614b90565b915061448782615308565b604082019050919050565b600061449f602983614b90565b91506144aa82615357565b604082019050919050565b60006144c2602883614b90565b91506144cd826153a6565b604082019050919050565b60006144e5602183614b90565b91506144f0826153f5565b604082019050919050565b6000614508602583614b90565b915061451382615444565b604082019050919050565b600061452b602883614b90565b915061453682615493565b604082019050919050565b600061454e602a83614b90565b9150614559826154e2565b604082019050919050565b61456d81614c95565b82525050565b61457c81614c95565b82525050565b6000602082019050614597600083018461410b565b92915050565b600060a0820190506145b2600083018861410b565b6145bf602083018761410b565b81810360408301526145d1818661411a565b905081810360608301526145e5818561411a565b905081810360808301526145f98184614187565b90509695505050505050565b600060a08201905061461a600083018861410b565b614627602083018761410b565b6146346040830186614573565b6146416060830185614573565b81810360808301526146538184614187565b90509695505050505050565b6000604082019050614674600083018561410b565b6146816020830184614573565b9392505050565b600060208201905081810360008301526146a2818461411a565b905092915050565b600060408201905081810360008301526146c4818561411a565b905081810360208301526146d8818461411a565b90509392505050565b60006020820190506146f66000830184614178565b92915050565b6000602082019050818103600083015261471681846141c0565b905092915050565b60006020820190508181036000830152614737816141f9565b9050919050565b600060208201905081810360008301526147578161421c565b9050919050565b600060208201905081810360008301526147778161423f565b9050919050565b6000602082019050818103600083015261479781614262565b9050919050565b600060208201905081810360008301526147b781614285565b9050919050565b600060208201905081810360008301526147d7816142a8565b9050919050565b600060208201905081810360008301526147f7816142cb565b9050919050565b60006020820190508181036000830152614817816142ee565b9050919050565b6000602082019050818103600083015261483781614311565b9050919050565b6000602082019050818103600083015261485781614334565b9050919050565b6000602082019050818103600083015261487781614357565b9050919050565b600060208201905081810360008301526148978161437a565b9050919050565b600060208201905081810360008301526148b78161439d565b9050919050565b600060208201905081810360008301526148d7816143c0565b9050919050565b600060208201905081810360008301526148f7816143e3565b9050919050565b6000602082019050818103600083015261491781614406565b9050919050565b6000602082019050818103600083015261493781614429565b9050919050565b600060208201905081810360008301526149578161444c565b9050919050565b600060208201905081810360008301526149778161446f565b9050919050565b6000602082019050818103600083015261499781614492565b9050919050565b600060208201905081810360008301526149b7816144b5565b9050919050565b600060208201905081810360008301526149d7816144d8565b9050919050565b600060208201905081810360008301526149f7816144fb565b9050919050565b60006020820190508181036000830152614a178161451e565b9050919050565b60006020820190508181036000830152614a3781614541565b9050919050565b6000602082019050614a536000830184614573565b92915050565b6000604082019050614a6e6000830185614573565b614a7b6020830184614573565b9392505050565b6000614a8c614a9d565b9050614a988282614d3d565b919050565b6000604051905090565b600067ffffffffffffffff821115614ac257614ac1614e15565b5b602082029050602081019050919050565b600067ffffffffffffffff821115614aee57614aed614e15565b5b602082029050602081019050919050565b600067ffffffffffffffff821115614b1a57614b19614e15565b5b614b2382614e66565b9050602081019050919050565b6000819050602082019050919050565b600081519050919050565b600081519050919050565b600081519050919050565b6000602082019050919050565b600082825260208201905092915050565b600082825260208201905092915050565b600082825260208201905092915050565b6000614bac82614c95565b9150614bb783614c95565b9250827fffffffffffffffffffffffffffffffffffffffffffffffffffffffffffffffff03821115614bec57614beb614db7565b5b828201905092915050565b6000614c0282614c95565b9150614c0d83614c95565b925082821015614c2057614c1f614db7565b5b828203905092915050565b6000614c3682614c75565b9050919050565b60008115159050919050565b60007fffffffff0000000000000000000000000000000000000000000000000000000082169050919050565b600073ffffffffffffffffffffffffffffffffffffffff82169050919050565b6000819050919050565b82818337600083830152505050565b60005b83811015614ccc578082015181840152602081019050614cb1565b83811115614cdb576000848401525b50505050565b6000614cec82614c95565b91506000821415614d0057614cff614db7565b5b600182039050919050565b60006002820490506001821680614d2357607f821691505b60208210811415614d3757614d36614de6565b5b50919050565b614d4682614e66565b810181811067ffffffffffffffff82111715614d6557614d64614e15565b5b80604052505050565b6000614d7982614c95565b91507fffffffffffffffffffffffffffffffffffffffffffffffffffffffffffffffff821415614dac57614dab614db7565b5b600182019050919050565b7f4e487b7100000000000000000000000000000000000000000000000000000000600052601160045260246000fd5b7f4e487b7100000000000000000000000000000000000000000000000000000000600052602260045260246000fd5b7f4e487b7100000000000000000000000000000000000000000000000000000000600052604160045260246000fd5b600060033d1115614e635760046000803e614e60600051614e77565b90505b90565b6000601f19601f8301169050919050565b60008160e01c9050919050565b7f455243313135353a207472616e7366657220746f206e6f6e204552433131353560008201527f526563656976657220696d706c656d656e746572000000000000000000000000602082015250565b7f455243313135353a204552433131353552656365697665722072656a6563746560008201527f6420746f6b656e73000000000000000000000000000000000000000000000000602082015250565b7f455243313135353a2062616c616e636520717565727920666f7220746865207a60008201527f65726f2061646472657373000000000000000000000000000000000000000000602082015250565b7f4f776e61626c653a206e6577206f776e657220697320746865207a65726f206160008201527f6464726573730000000000000000000000000000000000000000000000000000602082015250565b7f4e6f7420456e6f756768205649462073706f7473206c65667400000000000000600082015250565b7f455243313135353a2063616c6c6572206973206e6f74206f776e6572206e6f7260008201527f20617070726f7665640000000000000000000000000000000000000000000000602082015250565b7f4f7574206f66204769766561776179732e000000000000000000000000000000600082015250565b7f436f6e74726163742063616c6c732063616e6e6f74206d696e74206f7572207360008201527f7570706c79000000000000000000000000000000000000000000000000000000602082015250565b7f455243313135353a207472616e7366657220746f20746865207a65726f20616460008201527f6472657373000000000000000000000000000000000000000000000000000000602082015250565b7f455243313135353a207472616e736665722063616c6c6572206973206e6f742060008201527f6f776e6572206e6f7220617070726f7665640000000000000000000000000000602082015250565b7f5075626c69632073616c65206973206e6f742061637469766500000000000000600082015250565b7f596f7520646f206e6f74206f776e2074686520666f7572496e4f6e65546f6b6560008201527f6e00000000000000000000000000000000000000000000000000000000000000602082015250565b7f596f7520646f206e6f74206f776e20746865206672756974746f6b656e000000600082015250565b7f455243313135353a20696e73756666696369656e742062616c616e636520666f60008201527f72207472616e7366657200000000000000000000000000000000000000000000602082015250565b7f4f776e61626c653a2063616c6c6572206973206e6f7420746865206f776e6572600082015250565b7f416c6c20426174636865732068617665206265656e206d696e74656400000000600082015250565b7f4e6f20657468657220696e20636f6e7472616374000000000000000000000000600082015250565b7f455243313135353a2073657474696e6720617070726f76616c2073746174757360008201527f20666f722073656c660000000000000000000000000000000000000000000000602082015250565b7f43616e6e6f74207075726368617365206d6f7265207468616e206f6e6520626160008201527f746368206d696e74207065722077616c6c657400000000000000000000000000602082015250565b7f455243313135353a206163636f756e747320616e6420696473206c656e67746860008201527f206d69736d617463680000000000000000000000000000000000000000000000602082015250565b7f455243313135353a2069647320616e6420616d6f756e7473206c656e6774682060008201527f6d69736d61746368000000000000000000000000000000000000000000000000602082015250565b7f455243313135353a206d696e7420746f20746865207a65726f2061646472657360008201527f7300000000000000000000000000000000000000000000000000000000000000602082015250565b7f596f7520646f206e6f74206f776e2061207265636569707420666f722065786360008201527f68616e6765000000000000000000000000000000000000000000000000000000602082015250565b7f4e6f7420656e6f756768206574686572207761732073656e7420746f2074726160008201527f6e73616374696f6e000000000000000000000000000000000000000000000000602082015250565b7f50726573616c65206973206163746976652062757420796f752772652061726560008201527f206e6f7420612056494600000000000000000000000000000000000000000000602082015250565b600060443d1015615541576155c4565b615549614a9d565b60043d036004823e80513d602482011167ffffffffffffffff821117156155715750506155c4565b808201805167ffffffffffffffff81111561558f57505050506155c4565b80602083010160043d0385018111156155ac5750505050506155c4565b6155bb82602001850186614d3d565b82955050505050505b90565b6155d081614c2b565b81146155db57600080fd5b50565b6155e781614c3d565b81146155f257600080fd5b50565b6155fe81614c49565b811461560957600080fd5b50565b61561581614c95565b811461562057600080fd5b5056fea2646970667358221220d17e06fee64f3c6373293116c293b5340cf9c56378248357827b3518700c0bbd64736f6c63430008040033",
  "linkReferences": {},
  "deployedLinkReferences": {}
}