{
  "_format": "hh-sol-artifact-1",
  "contractName": "DemoDapp",
  "sourceName": "contracts/DemoDapp.sol",
  "abi": [
    {
      "inputs": [
        {
          "internalType": "string",
          "name": "uri",
          "type": "string"
        }
      ],
      "stateMutability": "nonpayable",
      "type": "constructor"
    },
    {
      "anonymous": false,
      "inputs": [
        {
          "indexed": true,
          "internalType": "address",
          "name": "account",
          "type": "address"
        },
        {
          "indexed": true,
          "internalType": "address",
          "name": "operator",
          "type": "address"
        },
        {
          "indexed": false,
          "internalType": "bool",
          "name": "approved",
          "type": "bool"
        }
      ],
      "name": "ApprovalForAll",
      "type": "event"
    },
    {
      "anonymous": false,
      "inputs": [
        {
          "indexed": false,
          "internalType": "address",
          "name": "_sender",
          "type": "address"
        },
        {
          "indexed": false,
          "internalType": "uint256",
          "name": "_supply",
          "type": "uint256"
        }
      ],
      "name": "IncreaseReceiptSupply",
      "type": "event"
    },
    {
      "anonymous": false,
      "inputs": [
        {
          "indexed": true,
          "internalType": "address",
          "name": "previousOwner",
          "type": "address"
        },
        {
          "indexed": true,
          "internalType": "address",
          "name": "newOwner",
          "type": "address"
        }
      ],
      "name": "OwnershipTransferred",
      "type": "event"
    },
    {
      "anonymous": false,
      "inputs": [
        {
          "indexed": false,
          "internalType": "uint256",
          "name": "_presaleStartTime",
          "type": "uint256"
        },
        {
          "indexed": false,
          "internalType": "uint256",
          "name": "_saleStartTime",
          "type": "uint256"
        }
      ],
      "name": "SaleHasBeenSet",
      "type": "event"
    },
    {
      "anonymous": false,
      "inputs": [
        {
          "indexed": true,
          "internalType": "address",
          "name": "operator",
          "type": "address"
        },
        {
          "indexed": true,
          "internalType": "address",
          "name": "from",
          "type": "address"
        },
        {
          "indexed": true,
          "internalType": "address",
          "name": "to",
          "type": "address"
        },
        {
          "indexed": false,
          "internalType": "uint256[]",
          "name": "ids",
          "type": "uint256[]"
        },
        {
          "indexed": false,
          "internalType": "uint256[]",
          "name": "values",
          "type": "uint256[]"
        }
      ],
      "name": "TransferBatch",
      "type": "event"
    },
    {
      "anonymous": false,
      "inputs": [
        {
          "indexed": true,
          "internalType": "address",
          "name": "operator",
          "type": "address"
        },
        {
          "indexed": true,
          "internalType": "address",
          "name": "from",
          "type": "address"
        },
        {
          "indexed": true,
          "internalType": "address",
          "name": "to",
          "type": "address"
        },
        {
          "indexed": false,
          "internalType": "uint256",
          "name": "id",
          "type": "uint256"
        },
        {
          "indexed": false,
          "internalType": "uint256",
          "name": "value",
          "type": "uint256"
        }
      ],
      "name": "TransferSingle",
      "type": "event"
    },
    {
      "anonymous": false,
      "inputs": [
        {
          "indexed": false,
          "internalType": "string",
          "name": "value",
          "type": "string"
        },
        {
          "indexed": true,
          "internalType": "uint256",
          "name": "id",
          "type": "uint256"
        }
      ],
      "name": "URI",
      "type": "event"
    },
    {
      "inputs": [
        {
          "internalType": "address",
          "name": "account",
          "type": "address"
        },
        {
          "internalType": "uint256",
          "name": "id",
          "type": "uint256"
        }
      ],
      "name": "balanceOf",
      "outputs": [
        {
          "internalType": "uint256",
          "name": "",
          "type": "uint256"
        }
      ],
      "stateMutability": "view",
      "type": "function"
    },
    {
      "inputs": [
        {
          "internalType": "address[]",
          "name": "accounts",
          "type": "address[]"
        },
        {
          "internalType": "uint256[]",
          "name": "ids",
          "type": "uint256[]"
        }
      ],
      "name": "balanceOfBatch",
      "outputs": [
        {
          "internalType": "uint256[]",
          "name": "",
          "type": "uint256[]"
        }
      ],
      "stateMutability": "view",
      "type": "function"
    },
    {
      "inputs": [
        {
          "internalType": "uint256",
          "name": "_fruitTokenId",
          "type": "uint256"
        },
        {
          "internalType": "uint256",
          "name": "_fourInOneTokenId",
          "type": "uint256"
        },
        {
          "internalType": "uint256",
          "name": "_quadrant",
          "type": "uint256"
        }
      ],
      "name": "cuteeExchange",
      "outputs": [],
      "stateMutability": "nonpayable",
      "type": "function"
    },
    {
      "inputs": [],
      "name": "getBalance",
      "outputs": [
        {
          "internalType": "uint256",
          "name": "",
          "type": "uint256"
        }
      ],
      "stateMutability": "view",
      "type": "function"
    },
    {
      "inputs": [],
      "name": "getBundleBalance",
      "outputs": [
        {
          "internalType": "uint256",
          "name": "",
          "type": "uint256"
        }
      ],
      "stateMutability": "view",
      "type": "function"
    },
    {
      "inputs": [],
      "name": "getBundleSupply",
      "outputs": [
        {
          "internalType": "uint256",
          "name": "",
          "type": "uint256"
        }
      ],
      "stateMutability": "view",
      "type": "function"
    },
    {
      "inputs": [],
      "name": "getReceiptSupply",
      "outputs": [
        {
          "internalType": "uint256",
          "name": "",
          "type": "uint256"
        }
      ],
      "stateMutability": "view",
      "type": "function"
    },
    {
      "inputs": [
        {
          "internalType": "address",
          "name": "_address",
          "type": "address"
        }
      ],
      "name": "getVIF",
      "outputs": [
        {
          "internalType": "uint256",
          "name": "",
          "type": "uint256"
        }
      ],
      "stateMutability": "view",
      "type": "function"
    },
    {
      "inputs": [],
      "name": "getVIFLeft",
      "outputs": [
        {
          "internalType": "uint256",
          "name": "",
          "type": "uint256"
        }
      ],
      "stateMutability": "view",
      "type": "function"
    },
    {
      "inputs": [
        {
          "internalType": "address[]",
          "name": "_to",
          "type": "address[]"
        }
      ],
      "name": "giveawayMintBatch",
      "outputs": [],
      "stateMutability": "nonpayable",
      "type": "function"
    },
    {
      "inputs": [
        {
          "internalType": "uint256",
          "name": "_supply",
          "type": "uint256"
        }
      ],
      "name": "increaseReceiptSupply",
      "outputs": [],
      "stateMutability": "nonpayable",
      "type": "function"
    },
    {
      "inputs": [
        {
          "internalType": "address",
          "name": "account",
          "type": "address"
        },
        {
          "internalType": "address",
          "name": "operator",
          "type": "address"
        }
      ],
      "name": "isApprovedForAll",
      "outputs": [
        {
          "internalType": "bool",
          "name": "",
          "type": "bool"
        }
      ],
      "stateMutability": "view",
      "type": "function"
    },
    {
      "inputs": [],
      "name": "mintBundle",
      "outputs": [],
      "stateMutability": "payable",
      "type": "function"
    },
    {
      "inputs": [],
      "name": "owner",
      "outputs": [
        {
          "internalType": "address",
          "name": "",
          "type": "address"
        }
      ],
      "stateMutability": "view",
      "type": "function"
    },
    {
      "inputs": [],
      "name": "renounceOwnership",
      "outputs": [],
      "stateMutability": "nonpayable",
      "type": "function"
    },
    {
      "inputs": [
        {
          "internalType": "uint256",
          "name": "_VIFCount",
          "type": "uint256"
        }
      ],
      "name": "resetVIF",
      "outputs": [],
      "stateMutability": "nonpayable",
      "type": "function"
    },
    {
      "inputs": [
        {
          "internalType": "address",
          "name": "from",
          "type": "address"
        },
        {
          "internalType": "address",
          "name": "to",
          "type": "address"
        },
        {
          "internalType": "uint256[]",
          "name": "ids",
          "type": "uint256[]"
        },
        {
          "internalType": "uint256[]",
          "name": "amounts",
          "type": "uint256[]"
        },
        {
          "internalType": "bytes",
          "name": "data",
          "type": "bytes"
        }
      ],
      "name": "safeBatchTransferFrom",
      "outputs": [],
      "stateMutability": "nonpayable",
      "type": "function"
    },
    {
      "inputs": [
        {
          "internalType": "address",
          "name": "from",
          "type": "address"
        },
        {
          "internalType": "address",
          "name": "to",
          "type": "address"
        },
        {
          "internalType": "uint256",
          "name": "id",
          "type": "uint256"
        },
        {
          "internalType": "uint256",
          "name": "amount",
          "type": "uint256"
        },
        {
          "internalType": "bytes",
          "name": "data",
          "type": "bytes"
        }
      ],
      "name": "safeTransferFrom",
      "outputs": [],
      "stateMutability": "nonpayable",
      "type": "function"
    },
    {
      "inputs": [
        {
          "internalType": "address",
          "name": "operator",
          "type": "address"
        },
        {
          "internalType": "bool",
          "name": "approved",
          "type": "bool"
        }
      ],
      "name": "setApprovalForAll",
      "outputs": [],
      "stateMutability": "nonpayable",
      "type": "function"
    },
    {
      "inputs": [
        {
          "internalType": "uint256",
          "name": "_presaleStartTime",
          "type": "uint256"
        },
        {
          "internalType": "uint256",
          "name": "_timeBetweenSales",
          "type": "uint256"
        }
      ],
      "name": "setPresaleStartTime",
      "outputs": [],
      "stateMutability": "nonpayable",
      "type": "function"
    },
    {
      "inputs": [
        {
          "internalType": "uint256",
          "name": "_gwei",
          "type": "uint256"
        }
      ],
      "name": "setPricePerBundle",
      "outputs": [],
      "stateMutability": "nonpayable",
      "type": "function"
    },
    {
      "inputs": [
        {
          "internalType": "address[]",
          "name": "_vifs",
          "type": "address[]"
        }
      ],
      "name": "setVIF",
      "outputs": [],
      "stateMutability": "nonpayable",
      "type": "function"
    },
    {
      "inputs": [
        {
          "internalType": "bytes4",
          "name": "interfaceId",
          "type": "bytes4"
        }
      ],
      "name": "supportsInterface",
      "outputs": [
        {
          "internalType": "bool",
          "name": "",
          "type": "bool"
        }
      ],
      "stateMutability": "view",
      "type": "function"
    },
    {
      "inputs": [
        {
          "internalType": "address",
          "name": "newOwner",
          "type": "address"
        }
      ],
      "name": "transferOwnership",
      "outputs": [],
      "stateMutability": "nonpayable",
      "type": "function"
    },
    {
      "inputs": [
        {
          "internalType": "uint256",
          "name": "_tokenId",
          "type": "uint256"
        }
      ],
      "name": "uri",
      "outputs": [
        {
          "internalType": "string",
          "name": "",
          "type": "string"
        }
      ],
      "stateMutability": "view",
      "type": "function"
    },
    {
      "inputs": [],
      "name": "withdrawBalance",
      "outputs": [],
      "stateMutability": "nonpayable",
      "type": "function"
    }
  ],
  "bytecode": "0x6080604052610bb86005556001600655620186a1600755607b60085561036d6009556000600d60006101000a81548160ff0219169083151502179055506000600d60016101000a81548160ff02191690831515021790555067016345785d8a00006010556101f46013553480156200007657600080fd5b506040516200557d3803806200557d83398181016040528101906200009c919062000415565b80620000ae81620000de60201b60201c565b50620000cf620000c3620000fa60201b60201c565b6200010260201b60201c565b600160048190555050620004ca565b8060029080519060200190620000f6929190620001c8565b5050565b600033905090565b6000600360009054906101000a900473ffffffffffffffffffffffffffffffffffffffff16905081600360006101000a81548173ffffffffffffffffffffffffffffffffffffffff021916908373ffffffffffffffffffffffffffffffffffffffff1602179055508173ffffffffffffffffffffffffffffffffffffffff168173ffffffffffffffffffffffffffffffffffffffff167f8be0079c531659141344cd1fd0a4f28419497f9722a3daafe3b4186f6b6457e060405160405180910390a35050565b828054620001d69062000495565b90600052602060002090601f016020900481019282620001fa576000855562000246565b82601f106200021557805160ff191683800117855562000246565b8280016001018555821562000246579182015b828111156200024557825182559160200191906001019062000228565b5b50905062000255919062000259565b5090565b5b80821115620002745760008160009055506001016200025a565b5090565b6000604051905090565b600080fd5b600080fd5b600080fd5b600080fd5b6000601f19601f8301169050919050565b7f4e487b7100000000000000000000000000000000000000000000000000000000600052604160045260246000fd5b620002e18262000296565b810181811067ffffffffffffffff82111715620003035762000302620002a7565b5b80604052505050565b60006200031862000278565b9050620003268282620002d6565b919050565b600067ffffffffffffffff821115620003495762000348620002a7565b5b620003548262000296565b9050602081019050919050565b60005b838110156200038157808201518184015260208101905062000364565b8381111562000391576000848401525b50505050565b6000620003ae620003a8846200032b565b6200030c565b905082815260208101848484011115620003cd57620003cc62000291565b5b620003da84828562000361565b509392505050565b600082601f830112620003fa57620003f96200028c565b5b81516200040c84826020860162000397565b91505092915050565b6000602082840312156200042e576200042d62000282565b5b600082015167ffffffffffffffff8111156200044f576200044e62000287565b5b6200045d84828501620003e2565b91505092915050565b7f4e487b7100000000000000000000000000000000000000000000000000000000600052602260045260246000fd5b60006002820490506001821680620004ae57607f821691505b602082108103620004c457620004c362000466565b5b50919050565b6150a380620004da6000396000f3fe6080604052600436106101805760003560e01c806376937cef116100d15780639b1496081161008a578063cec2e73311610064578063cec2e73314610538578063e985e9c514610561578063f242432a1461059e578063f2fde38b146105c757610180565b80639b149608146104bb578063a22cb465146104e4578063b08504e91461050d57610180565b806376937cef146103bf5780638110b32f146103ea57806383fc3067146104135780638686d7951461043c5780638da5cb5b146104655780639171c3da1461049057610180565b80633bdb7c9e1161013e5780634e1273f4116101185780634e1273f4146103295780635f4c5b25146103665780635fd8c71014610391578063715018a6146103a857610180565b80633bdb7c9e146102b95780633efc5200146102f6578063410404b71461031f57610180565b8062fdd58e1461018557806301ffc9a7146101c25780630948b38a146101ff5780630e89341c1461022857806312065fe0146102655780632eb2c2d614610290575b600080fd5b34801561019157600080fd5b506101ac60048036038101906101a79190613333565b6105f0565b6040516101b99190613382565b60405180910390f35b3480156101ce57600080fd5b506101e960048036038101906101e491906133f5565b6106b8565b6040516101f6919061343d565b60405180910390f35b34801561020b57600080fd5b5061022660048036038101906102219190613458565b61079a565b005b34801561023457600080fd5b5061024f600480360381019061024a9190613498565b610870565b60405161025c919061355e565b60405180910390f35b34801561027157600080fd5b5061027a6108a4565b6040516102879190613382565b60405180910390f35b34801561029c57600080fd5b506102b760048036038101906102b2919061377d565b610928565b005b3480156102c557600080fd5b506102e060048036038101906102db919061384c565b6109c9565b6040516102ed9190613382565b60405180910390f35b34801561030257600080fd5b5061031d60048036038101906103189190613498565b610a8e565b005b610327610b14565b005b34801561033557600080fd5b50610350600480360381019061034b919061393c565b6110ab565b60405161035d9190613a72565b60405180910390f35b34801561037257600080fd5b5061037b6111c4565b6040516103889190613382565b60405180910390f35b34801561039d57600080fd5b506103a66111ce565b005b3480156103b457600080fd5b506103bd6112d6565b005b3480156103cb57600080fd5b506103d461135e565b6040516103e19190613382565b60405180910390f35b3480156103f657600080fd5b50610411600480360381019061040c9190613a94565b611368565b005b34801561041f57600080fd5b5061043a60048036038101906104359190613498565b611726565b005b34801561044857600080fd5b50610463600480360381019061045e9190613498565b6117f2565b005b34801561047157600080fd5b5061047a61192d565b6040516104879190613af6565b60405180910390f35b34801561049c57600080fd5b506104a5611957565b6040516104b29190613382565b60405180910390f35b3480156104c757600080fd5b506104e260048036038101906104dd9190613b11565b6119dd565b005b3480156104f057600080fd5b5061050b60048036038101906105069190613b86565b611bb3565b005b34801561051957600080fd5b50610522611bc9565b60405161052f9190613382565b60405180910390f35b34801561054457600080fd5b5061055f600480360381019061055a9190613c21565b611c10565b005b34801561056d57600080fd5b5061058860048036038101906105839190613c6e565b612019565b604051610595919061343d565b60405180910390f35b3480156105aa57600080fd5b506105c560048036038101906105c09190613cae565b6120ad565b005b3480156105d357600080fd5b506105ee60048036038101906105e9919061384c565b61214e565b005b60008073ffffffffffffffffffffffffffffffffffffffff168373ffffffffffffffffffffffffffffffffffffffff1603610660576040517f08c379a000000000000000000000000000000000000000000000000000000000815260040161065790613db7565b60405180910390fd5b60008083815260200190815260200160002060008473ffffffffffffffffffffffffffffffffffffffff1673ffffffffffffffffffffffffffffffffffffffff16815260200190815260200160002054905092915050565b60007fd9b67a26000000000000000000000000000000000000000000000000000000007bffffffffffffffffffffffffffffffffffffffffffffffffffffffff1916827bffffffffffffffffffffffffffffffffffffffffffffffffffffffff1916148061078357507f0e89341c000000000000000000000000000000000000000000000000000000007bffffffffffffffffffffffffffffffffffffffffffffffffffffffff1916827bffffffffffffffffffffffffffffffffffffffffffffffffffffffff1916145b80610793575061079282612245565b5b9050919050565b6107a26122af565b73ffffffffffffffffffffffffffffffffffffffff166107c061192d565b73ffffffffffffffffffffffffffffffffffffffff1614610816576040517f08c379a000000000000000000000000000000000000000000000000000000000815260040161080d90613e23565b60405180910390fd5b81600e8190555080826108299190613e72565b600f819055507f88c7c5a177be8b426acec3417df4c4882059c60453b8e02e6c8d16998919e73e600e54600f54604051610864929190613ec8565b60405180910390a15050565b6060600c61087d836122b7565b60405160200161088e929190614032565b6040516020818303038152906040529050919050565b60006108ae6122af565b73ffffffffffffffffffffffffffffffffffffffff166108cc61192d565b73ffffffffffffffffffffffffffffffffffffffff1614610922576040517f08c379a000000000000000000000000000000000000000000000000000000000815260040161091990613e23565b60405180910390fd5b47905090565b6109306122af565b73ffffffffffffffffffffffffffffffffffffffff168573ffffffffffffffffffffffffffffffffffffffff1614806109765750610975856109706122af565b612019565b5b6109b5576040517f08c379a00000000000000000000000000000000000000000000000000000000081526004016109ac906140ee565b60405180910390fd5b6109c28585858585612417565b5050505050565b60006109d36122af565b73ffffffffffffffffffffffffffffffffffffffff166109f161192d565b73ffffffffffffffffffffffffffffffffffffffff1614610a47576040517f08c379a0000000000000000000000000000000000000000000000000000000008152600401610a3e90613e23565b60405180910390fd5b601160008373ffffffffffffffffffffffffffffffffffffffff1673ffffffffffffffffffffffffffffffffffffffff168152602001908152602001600020549050919050565b610a966122af565b73ffffffffffffffffffffffffffffffffffffffff16610ab461192d565b73ffffffffffffffffffffffffffffffffffffffff1614610b0a576040517f08c379a0000000000000000000000000000000000000000000000000000000008152600401610b0190613e23565b60405180910390fd5b8060108190555050565b600e544211610b58576040517f08c379a0000000000000000000000000000000000000000000000000000000008152600401610b4f9061415a565b60405180910390fd5b600e5442118015610b6a5750600f5442105b15610bf2576000601160003373ffffffffffffffffffffffffffffffffffffffff1673ffffffffffffffffffffffffffffffffffffffff1681526020019081526020016000205411610bf1576040517f08c379a0000000000000000000000000000000000000000000000000000000008152600401610be8906141ec565b60405180910390fd5b5b600260045403610c37576040517f08c379a0000000000000000000000000000000000000000000000000000000008152600401610c2e90614258565b60405180910390fd5b600260048190555067016345785d8a0000341015610c8a576040517f08c379a0000000000000000000000000000000000000000000000000000000008152600401610c81906142ea565b60405180910390fd5b6000600a60003373ffffffffffffffffffffffffffffffffffffffff1673ffffffffffffffffffffffffffffffffffffffff1681526020019081526020016000205414610d0c576040517f08c379a0000000000000000000000000000000000000000000000000000000008152600401610d039061437c565b60405180910390fd5b600060095411610d51576040517f08c379a0000000000000000000000000000000000000000000000000000000008152600401610d48906143e8565b60405180910390fd5b6000600667ffffffffffffffff811115610d6e57610d6d613585565b5b604051908082528060200260200182016040528015610d9c5781602001602082028036833780820191505090505b5090506000600667ffffffffffffffff811115610dbc57610dbb613585565b5b604051908082528060200260200182016040528015610dea5781602001602082028036833780820191505090505b509050600182600081518110610e0357610e02614408565b5b602002602001018181525050600182600181518110610e2557610e24614408565b5b602002602001018181525050600182600281518110610e4757610e46614408565b5b602002602001018181525050600182600381518110610e6957610e68614408565b5b602002602001018181525050600182600481518110610e8b57610e8a614408565b5b602002602001018181525050600382600581518110610ead57610eac614408565b5b60200260200101818152505060065481600081518110610ed057610ecf614408565b5b60200260200101818152505060066000815480929190610eef90614437565b919050555060065481600181518110610f0b57610f0a614408565b5b60200260200101818152505060066000815480929190610f2a90614437565b919050555060065481600281518110610f4657610f45614408565b5b60200260200101818152505060066000815480929190610f6590614437565b919050555060065481600381518110610f8157610f80614408565b5b60200260200101818152505060066000815480929190610fa090614437565b919050555060075481600481518110610fbc57610fbb614408565b5b60200260200101818152505060076000815480929190610fdb90614437565b9190505550600081600581518110610ff657610ff5614408565b5b602002602001018181525050600a60003373ffffffffffffffffffffffffffffffffffffffff1673ffffffffffffffffffffffffffffffffffffffff168152602001908152602001600020600081548092919061105290614437565b91905055506110723382846040518060200160405280600081525061272a565b6003600554611081919061447f565b6005819055506009600081548092919061109a906144b3565b919050555050506001600481905550565b606081518351146110f1576040517f08c379a00000000000000000000000000000000000000000000000000000000081526004016110e89061454e565b60405180910390fd5b6000835167ffffffffffffffff81111561110e5761110d613585565b5b60405190808252806020026020018201604052801561113c5781602001602082028036833780820191505090505b50905060005b84518110156111b95761118985828151811061116157611160614408565b5b602002602001015185838151811061117c5761117b614408565b5b60200260200101516105f0565b82828151811061119c5761119b614408565b5b602002602001018181525050806111b290614437565b9050611142565b508091505092915050565b6000600554905090565b6111d66122af565b73ffffffffffffffffffffffffffffffffffffffff166111f461192d565b73ffffffffffffffffffffffffffffffffffffffff161461124a576040517f08c379a000000000000000000000000000000000000000000000000000000000815260040161124190613e23565b60405180910390fd5b6000471161128d576040517f08c379a0000000000000000000000000000000000000000000000000000000008152600401611284906145ba565b60405180910390fd5b3373ffffffffffffffffffffffffffffffffffffffff166108fc479081150290604051600060405180830381858888f193505050501580156112d3573d6000803e3d6000fd5b50565b6112de6122af565b73ffffffffffffffffffffffffffffffffffffffff166112fc61192d565b73ffffffffffffffffffffffffffffffffffffffff1614611352576040517f08c379a000000000000000000000000000000000000000000000000000000000815260040161134990613e23565b60405180910390fd5b61135c6000612947565b565b6000600954905090565b6002600454036113ad576040517f08c379a00000000000000000000000000000000000000000000000000000000081526004016113a490614258565b60405180910390fd5b60026004819055506000600367ffffffffffffffff8111156113d2576113d1613585565b5b6040519080825280602002602001820160405280156114005781602001602082028036833780820191505090505b5090506000600367ffffffffffffffff8111156114205761141f613585565b5b60405190808252806020026020018201604052801561144e5781602001602082028036833780820191505090505b5090506000600367ffffffffffffffff81111561146e5761146d613585565b5b60405190808252806020026020018201604052801561149c5781602001602082028036833780820191505090505b50905033836000815181106114b4576114b3614408565b5b602002602001019073ffffffffffffffffffffffffffffffffffffffff16908173ffffffffffffffffffffffffffffffffffffffff1681525050338360018151811061150357611502614408565b5b602002602001019073ffffffffffffffffffffffffffffffffffffffff16908173ffffffffffffffffffffffffffffffffffffffff1681525050338360028151811061155257611551614408565b5b602002602001019073ffffffffffffffffffffffffffffffffffffffff16908173ffffffffffffffffffffffffffffffffffffffff168152505085826000815181106115a1576115a0614408565b5b60200260200101818152505084826001815181106115c2576115c1614408565b5b6020026020010181815250506000826002815181106115e4576115e3614408565b5b6020026020010181815250506115fa83836110ab565b905060008160008151811061161257611611614408565b5b60200260200101511161165a576040517f08c379a000000000000000000000000000000000000000000000000000000000815260040161165190614626565b60405180910390fd5b6000816001815181106116705761166f614408565b5b6020026020010151116116b8576040517f08c379a00000000000000000000000000000000000000000000000000000000081526004016116af906146b8565b60405180910390fd5b6000816002815181106116ce576116cd614408565b5b602002602001015111611716576040517f08c379a000000000000000000000000000000000000000000000000000000000815260040161170d9061474a565b60405180910390fd5b5050506001600481905550505050565b61172e6122af565b73ffffffffffffffffffffffffffffffffffffffff1661174c61192d565b73ffffffffffffffffffffffffffffffffffffffff16146117a2576040517f08c379a000000000000000000000000000000000000000000000000000000000815260040161179990613e23565b60405180910390fd5b806005546117b09190613e72565b6005819055507fe3d47dee33b959cc59941f840525125123544e1f194b235f340f0c6147697ac333826040516117e792919061476a565b60405180910390a150565b6117fa6122af565b73ffffffffffffffffffffffffffffffffffffffff1661181861192d565b73ffffffffffffffffffffffffffffffffffffffff161461186e576040517f08c379a000000000000000000000000000000000000000000000000000000000815260040161186590613e23565b60405180910390fd5b60005b601280549050811015611914576000601160006012848154811061189857611897614408565b5b9060005260206000200160009054906101000a900473ffffffffffffffffffffffffffffffffffffffff1673ffffffffffffffffffffffffffffffffffffffff1673ffffffffffffffffffffffffffffffffffffffff16815260200190815260200160002081905550808061190c90614437565b915050611871565b5060126000611923919061324d565b8060138190555050565b6000600360009054906101000a900473ffffffffffffffffffffffffffffffffffffffff16905090565b60006119616122af565b73ffffffffffffffffffffffffffffffffffffffff1661197f61192d565b73ffffffffffffffffffffffffffffffffffffffff16146119d5576040517f08c379a00000000000000000000000000000000000000000000000000000000081526004016119cc90613e23565b60405180910390fd5b601354905090565b6119e56122af565b73ffffffffffffffffffffffffffffffffffffffff16611a0361192d565b73ffffffffffffffffffffffffffffffffffffffff1614611a59576040517f08c379a0000000000000000000000000000000000000000000000000000000008152600401611a5090613e23565b60405180910390fd5b80516013541015611a9f576040517f08c379a0000000000000000000000000000000000000000000000000000000008152600401611a96906147df565b60405180910390fd5b60005b8151811015611b9a57600160116000848481518110611ac457611ac3614408565b5b602002602001015173ffffffffffffffffffffffffffffffffffffffff1673ffffffffffffffffffffffffffffffffffffffff168152602001908152602001600020819055506012828281518110611b1f57611b1e614408565b5b60200260200101519080600181540180825580915050600190039060005260206000200160009091909190916101000a81548173ffffffffffffffffffffffffffffffffffffffff021916908373ffffffffffffffffffffffffffffffffffffffff1602179055508080611b9290614437565b915050611aa2565b508051601354611baa919061447f565b60138190555050565b611bc5611bbe6122af565b8383612a0d565b5050565b6000600a60003373ffffffffffffffffffffffffffffffffffffffff1673ffffffffffffffffffffffffffffffffffffffff16815260200190815260200160002054905090565b611c186122af565b73ffffffffffffffffffffffffffffffffffffffff16611c3661192d565b73ffffffffffffffffffffffffffffffffffffffff1614611c8c576040517f08c379a0000000000000000000000000000000000000000000000000000000008152600401611c8390613e23565b60405180910390fd5b600060085411611cd1576040517f08c379a0000000000000000000000000000000000000000000000000000000008152600401611cc89061484b565b60405180910390fd5b6000600667ffffffffffffffff811115611cee57611ced613585565b5b604051908082528060200260200182016040528015611d1c5781602001602082028036833780820191505090505b509050600181600081518110611d3557611d34614408565b5b602002602001018181525050600181600181518110611d5757611d56614408565b5b602002602001018181525050600181600281518110611d7957611d78614408565b5b602002602001018181525050600181600381518110611d9b57611d9a614408565b5b602002602001018181525050600181600481518110611dbd57611dbc614408565b5b602002602001018181525050600381600581518110611ddf57611dde614408565b5b6020026020010181815250506000600667ffffffffffffffff811115611e0857611e07613585565b5b604051908082528060200260200182016040528015611e365781602001602082028036833780820191505090505b50905060005b848490508110156120125760065482600081518110611e5e57611e5d614408565b5b60200260200101818152505060066000815480929190611e7d90614437565b919050555060065482600181518110611e9957611e98614408565b5b60200260200101818152505060066000815480929190611eb890614437565b919050555060065482600281518110611ed457611ed3614408565b5b60200260200101818152505060066000815480929190611ef390614437565b919050555060065482600381518110611f0f57611f0e614408565b5b60200260200101818152505060066000815480929190611f2e90614437565b919050555060075482600481518110611f4a57611f49614408565b5b60200260200101818152505060076000815480929190611f6990614437565b9190505550600082600581518110611f8457611f83614408565b5b602002602001018181525050611fd2858583818110611fa657611fa5614408565b5b9050602002016020810190611fbb919061384c565b83856040518060200160405280600081525061272a565b6003600554611fe1919061447f565b60058190555060086000815480929190611ffa906144b3565b9190505550808061200a90614437565b915050611e3c565b5050505050565b6000600160008473ffffffffffffffffffffffffffffffffffffffff1673ffffffffffffffffffffffffffffffffffffffff16815260200190815260200160002060008373ffffffffffffffffffffffffffffffffffffffff1673ffffffffffffffffffffffffffffffffffffffff16815260200190815260200160002060009054906101000a900460ff16905092915050565b6120b56122af565b73ffffffffffffffffffffffffffffffffffffffff168573ffffffffffffffffffffffffffffffffffffffff1614806120fb57506120fa856120f56122af565b612019565b5b61213a576040517f08c379a0000000000000000000000000000000000000000000000000000000008152600401612131906148dd565b60405180910390fd5b6121478585858585612b79565b5050505050565b6121566122af565b73ffffffffffffffffffffffffffffffffffffffff1661217461192d565b73ffffffffffffffffffffffffffffffffffffffff16146121ca576040517f08c379a00000000000000000000000000000000000000000000000000000000081526004016121c190613e23565b60405180910390fd5b600073ffffffffffffffffffffffffffffffffffffffff168173ffffffffffffffffffffffffffffffffffffffff1603612239576040517f08c379a00000000000000000000000000000000000000000000000000000000081526004016122309061496f565b60405180910390fd5b61224281612947565b50565b60007f01ffc9a7000000000000000000000000000000000000000000000000000000007bffffffffffffffffffffffffffffffffffffffffffffffffffffffff1916827bffffffffffffffffffffffffffffffffffffffffffffffffffffffff1916149050919050565b600033905090565b6060600082036122fe576040518060400160405280600181526020017f30000000000000000000000000000000000000000000000000000000000000008152509050612412565b600082905060005b6000821461233057808061231990614437565b915050600a8261232991906149be565b9150612306565b60008167ffffffffffffffff81111561234c5761234b613585565b5b6040519080825280601f01601f19166020018201604052801561237e5781602001600182028036833780820191505090505b5090505b6000851461240b57600182612397919061447f565b9150600a856123a691906149ef565b60306123b29190613e72565b60f81b8183815181106123c8576123c7614408565b5b60200101907effffffffffffffffffffffffffffffffffffffffffffffffffffffffffffff1916908160001a905350600a8561240491906149be565b9450612382565b8093505050505b919050565b815183511461245b576040517f08c379a000000000000000000000000000000000000000000000000000000000815260040161245290614a92565b60405180910390fd5b600073ffffffffffffffffffffffffffffffffffffffff168473ffffffffffffffffffffffffffffffffffffffff16036124ca576040517f08c379a00000000000000000000000000000000000000000000000000000000081526004016124c190614b24565b60405180910390fd5b60006124d46122af565b90506124e4818787878787612dfa565b60005b845181101561269557600085828151811061250557612504614408565b5b60200260200101519050600085838151811061252457612523614408565b5b60200260200101519050600080600084815260200190815260200160002060008b73ffffffffffffffffffffffffffffffffffffffff1673ffffffffffffffffffffffffffffffffffffffff168152602001908152602001600020549050818110156125c5576040517f08c379a00000000000000000000000000000000000000000000000000000000081526004016125bc90614bb6565b60405180910390fd5b81810360008085815260200190815260200160002060008c73ffffffffffffffffffffffffffffffffffffffff1673ffffffffffffffffffffffffffffffffffffffff168152602001908152602001600020819055508160008085815260200190815260200160002060008b73ffffffffffffffffffffffffffffffffffffffff1673ffffffffffffffffffffffffffffffffffffffff168152602001908152602001600020600082825461267a9190613e72565b925050819055505050508061268e90614437565b90506124e7565b508473ffffffffffffffffffffffffffffffffffffffff168673ffffffffffffffffffffffffffffffffffffffff168273ffffffffffffffffffffffffffffffffffffffff167f4a39dc06d4c0dbc64b70af90fd698a233a518aa5d07e595d983b8c0526c8f7fb878760405161270c929190614bd6565b60405180910390a4612722818787878787612e02565b505050505050565b600073ffffffffffffffffffffffffffffffffffffffff168473ffffffffffffffffffffffffffffffffffffffff1603612799576040517f08c379a000000000000000000000000000000000000000000000000000000000815260040161279090614c7f565b60405180910390fd5b81518351146127dd576040517f08c379a00000000000000000000000000000000000000000000000000000000081526004016127d490614a92565b60405180910390fd5b60006127e76122af565b90506127f881600087878787612dfa565b60005b84518110156128b15783818151811061281757612816614408565b5b602002602001015160008087848151811061283557612834614408565b5b6020026020010151815260200190815260200160002060008873ffffffffffffffffffffffffffffffffffffffff1673ffffffffffffffffffffffffffffffffffffffff16815260200190815260200160002060008282546128979190613e72565b9250508190555080806128a990614437565b9150506127fb565b508473ffffffffffffffffffffffffffffffffffffffff16600073ffffffffffffffffffffffffffffffffffffffff168273ffffffffffffffffffffffffffffffffffffffff167f4a39dc06d4c0dbc64b70af90fd698a233a518aa5d07e595d983b8c0526c8f7fb8787604051612929929190614bd6565b60405180910390a461294081600087878787612e02565b5050505050565b6000600360009054906101000a900473ffffffffffffffffffffffffffffffffffffffff16905081600360006101000a81548173ffffffffffffffffffffffffffffffffffffffff021916908373ffffffffffffffffffffffffffffffffffffffff1602179055508173ffffffffffffffffffffffffffffffffffffffff168173ffffffffffffffffffffffffffffffffffffffff167f8be0079c531659141344cd1fd0a4f28419497f9722a3daafe3b4186f6b6457e060405160405180910390a35050565b8173ffffffffffffffffffffffffffffffffffffffff168373ffffffffffffffffffffffffffffffffffffffff1603612a7b576040517f08c379a0000000000000000000000000000000000000000000000000000000008152600401612a7290614d11565b60405180910390fd5b80600160008573ffffffffffffffffffffffffffffffffffffffff1673ffffffffffffffffffffffffffffffffffffffff16815260200190815260200160002060008473ffffffffffffffffffffffffffffffffffffffff1673ffffffffffffffffffffffffffffffffffffffff16815260200190815260200160002060006101000a81548160ff0219169083151502179055508173ffffffffffffffffffffffffffffffffffffffff168373ffffffffffffffffffffffffffffffffffffffff167f17307eab39ab6107e8899845ad3d59bd9653f200f220920489ca2b5937696c3183604051612b6c919061343d565b60405180910390a3505050565b600073ffffffffffffffffffffffffffffffffffffffff168473ffffffffffffffffffffffffffffffffffffffff1603612be8576040517f08c379a0000000000000000000000000000000000000000000000000000000008152600401612bdf90614b24565b60405180910390fd5b6000612bf26122af565b9050612c12818787612c0388612fd9565b612c0c88612fd9565b87612dfa565b600080600086815260200190815260200160002060008873ffffffffffffffffffffffffffffffffffffffff1673ffffffffffffffffffffffffffffffffffffffff16815260200190815260200160002054905083811015612ca9576040517f08c379a0000000000000000000000000000000000000000000000000000000008152600401612ca090614bb6565b60405180910390fd5b83810360008087815260200190815260200160002060008973ffffffffffffffffffffffffffffffffffffffff1673ffffffffffffffffffffffffffffffffffffffff168152602001908152602001600020819055508360008087815260200190815260200160002060008873ffffffffffffffffffffffffffffffffffffffff1673ffffffffffffffffffffffffffffffffffffffff1681526020019081526020016000206000828254612d5e9190613e72565b925050819055508573ffffffffffffffffffffffffffffffffffffffff168773ffffffffffffffffffffffffffffffffffffffff168373ffffffffffffffffffffffffffffffffffffffff167fc3d58168c5ae7397731d063d5bbf3d657854427343f4c083240f7aacaa2d0f628888604051612ddb929190613ec8565b60405180910390a4612df1828888888888613053565b50505050505050565b505050505050565b612e218473ffffffffffffffffffffffffffffffffffffffff1661322a565b15612fd1578373ffffffffffffffffffffffffffffffffffffffff1663bc197c8187878686866040518663ffffffff1660e01b8152600401612e67959493929190614d86565b6020604051808303816000875af1925050508015612ea357506040513d601f19601f82011682018060405250810190612ea09190614e03565b60015b612f4857612eaf614e3d565b806308c379a003612f0b5750612ec3614e5f565b80612ece5750612f0d565b806040517f08c379a0000000000000000000000000000000000000000000000000000000008152600401612f02919061355e565b60405180910390fd5b505b6040517f08c379a0000000000000000000000000000000000000000000000000000000008152600401612f3f90614f61565b60405180910390fd5b63bc197c8160e01b7bffffffffffffffffffffffffffffffffffffffffffffffffffffffff1916817bffffffffffffffffffffffffffffffffffffffffffffffffffffffff191614612fcf576040517f08c379a0000000000000000000000000000000000000000000000000000000008152600401612fc690614ff3565b60405180910390fd5b505b505050505050565b60606000600167ffffffffffffffff811115612ff857612ff7613585565b5b6040519080825280602002602001820160405280156130265781602001602082028036833780820191505090505b509050828160008151811061303e5761303d614408565b5b60200260200101818152505080915050919050565b6130728473ffffffffffffffffffffffffffffffffffffffff1661322a565b15613222578373ffffffffffffffffffffffffffffffffffffffff1663f23a6e6187878686866040518663ffffffff1660e01b81526004016130b8959493929190615013565b6020604051808303816000875af19250505080156130f457506040513d601f19601f820116820180604052508101906130f19190614e03565b60015b61319957613100614e3d565b806308c379a00361315c5750613114614e5f565b8061311f575061315e565b806040517f08c379a0000000000000000000000000000000000000000000000000000000008152600401613153919061355e565b60405180910390fd5b505b6040517f08c379a000000000000000000000000000000000000000000000000000000000815260040161319090614f61565b60405180910390fd5b63f23a6e6160e01b7bffffffffffffffffffffffffffffffffffffffffffffffffffffffff1916817bffffffffffffffffffffffffffffffffffffffffffffffffffffffff191614613220576040517f08c379a000000000000000000000000000000000000000000000000000000000815260040161321790614ff3565b60405180910390fd5b505b505050505050565b6000808273ffffffffffffffffffffffffffffffffffffffff163b119050919050565b508054600082559060005260206000209081019061326b919061326e565b50565b5b8082111561328757600081600090555060010161326f565b5090565b6000604051905090565b600080fd5b600080fd5b600073ffffffffffffffffffffffffffffffffffffffff82169050919050565b60006132ca8261329f565b9050919050565b6132da816132bf565b81146132e557600080fd5b50565b6000813590506132f7816132d1565b92915050565b6000819050919050565b613310816132fd565b811461331b57600080fd5b50565b60008135905061332d81613307565b92915050565b6000806040838503121561334a57613349613295565b5b6000613358858286016132e8565b92505060206133698582860161331e565b9150509250929050565b61337c816132fd565b82525050565b60006020820190506133976000830184613373565b92915050565b60007fffffffff0000000000000000000000000000000000000000000000000000000082169050919050565b6133d28161339d565b81146133dd57600080fd5b50565b6000813590506133ef816133c9565b92915050565b60006020828403121561340b5761340a613295565b5b6000613419848285016133e0565b91505092915050565b60008115159050919050565b61343781613422565b82525050565b6000602082019050613452600083018461342e565b92915050565b6000806040838503121561346f5761346e613295565b5b600061347d8582860161331e565b925050602061348e8582860161331e565b9150509250929050565b6000602082840312156134ae576134ad613295565b5b60006134bc8482850161331e565b91505092915050565b600081519050919050565b600082825260208201905092915050565b60005b838110156134ff5780820151818401526020810190506134e4565b8381111561350e576000848401525b50505050565b6000601f19601f8301169050919050565b6000613530826134c5565b61353a81856134d0565b935061354a8185602086016134e1565b61355381613514565b840191505092915050565b600060208201905081810360008301526135788184613525565b905092915050565b600080fd5b7f4e487b7100000000000000000000000000000000000000000000000000000000600052604160045260246000fd5b6135bd82613514565b810181811067ffffffffffffffff821117156135dc576135db613585565b5b80604052505050565b60006135ef61328b565b90506135fb82826135b4565b919050565b600067ffffffffffffffff82111561361b5761361a613585565b5b602082029050602081019050919050565b600080fd5b600061364461363f84613600565b6135e5565b905080838252602082019050602084028301858111156136675761366661362c565b5b835b81811015613690578061367c888261331e565b845260208401935050602081019050613669565b5050509392505050565b600082601f8301126136af576136ae613580565b5b81356136bf848260208601613631565b91505092915050565b600080fd5b600067ffffffffffffffff8211156136e8576136e7613585565b5b6136f182613514565b9050602081019050919050565b82818337600083830152505050565b600061372061371b846136cd565b6135e5565b90508281526020810184848401111561373c5761373b6136c8565b5b6137478482856136fe565b509392505050565b600082601f83011261376457613763613580565b5b813561377484826020860161370d565b91505092915050565b600080600080600060a0868803121561379957613798613295565b5b60006137a7888289016132e8565b95505060206137b8888289016132e8565b945050604086013567ffffffffffffffff8111156137d9576137d861329a565b5b6137e58882890161369a565b935050606086013567ffffffffffffffff8111156138065761380561329a565b5b6138128882890161369a565b925050608086013567ffffffffffffffff8111156138335761383261329a565b5b61383f8882890161374f565b9150509295509295909350565b60006020828403121561386257613861613295565b5b6000613870848285016132e8565b91505092915050565b600067ffffffffffffffff82111561389457613893613585565b5b602082029050602081019050919050565b60006138b86138b384613879565b6135e5565b905080838252602082019050602084028301858111156138db576138da61362c565b5b835b8181101561390457806138f088826132e8565b8452602084019350506020810190506138dd565b5050509392505050565b600082601f83011261392357613922613580565b5b81356139338482602086016138a5565b91505092915050565b6000806040838503121561395357613952613295565b5b600083013567ffffffffffffffff8111156139715761397061329a565b5b61397d8582860161390e565b925050602083013567ffffffffffffffff81111561399e5761399d61329a565b5b6139aa8582860161369a565b9150509250929050565b600081519050919050565b600082825260208201905092915050565b6000819050602082019050919050565b6139e9816132fd565b82525050565b60006139fb83836139e0565b60208301905092915050565b6000602082019050919050565b6000613a1f826139b4565b613a2981856139bf565b9350613a34836139d0565b8060005b83811015613a65578151613a4c88826139ef565b9750613a5783613a07565b925050600181019050613a38565b5085935050505092915050565b60006020820190508181036000830152613a8c8184613a14565b905092915050565b600080600060608486031215613aad57613aac613295565b5b6000613abb8682870161331e565b9350506020613acc8682870161331e565b9250506040613add8682870161331e565b9150509250925092565b613af0816132bf565b82525050565b6000602082019050613b0b6000830184613ae7565b92915050565b600060208284031215613b2757613b26613295565b5b600082013567ffffffffffffffff811115613b4557613b4461329a565b5b613b518482850161390e565b91505092915050565b613b6381613422565b8114613b6e57600080fd5b50565b600081359050613b8081613b5a565b92915050565b60008060408385031215613b9d57613b9c613295565b5b6000613bab858286016132e8565b9250506020613bbc85828601613b71565b9150509250929050565b600080fd5b60008083601f840112613be157613be0613580565b5b8235905067ffffffffffffffff811115613bfe57613bfd613bc6565b5b602083019150836020820283011115613c1a57613c1961362c565b5b9250929050565b60008060208385031215613c3857613c37613295565b5b600083013567ffffffffffffffff811115613c5657613c5561329a565b5b613c6285828601613bcb565b92509250509250929050565b60008060408385031215613c8557613c84613295565b5b6000613c93858286016132e8565b9250506020613ca4858286016132e8565b9150509250929050565b600080600080600060a08688031215613cca57613cc9613295565b5b6000613cd8888289016132e8565b9550506020613ce9888289016132e8565b9450506040613cfa8882890161331e565b9350506060613d0b8882890161331e565b925050608086013567ffffffffffffffff811115613d2c57613d2b61329a565b5b613d388882890161374f565b9150509295509295909350565b7f455243313135353a2062616c616e636520717565727920666f7220746865207a60008201527f65726f2061646472657373000000000000000000000000000000000000000000602082015250565b6000613da1602b836134d0565b9150613dac82613d45565b604082019050919050565b60006020820190508181036000830152613dd081613d94565b9050919050565b7f4f776e61626c653a2063616c6c6572206973206e6f7420746865206f776e6572600082015250565b6000613e0d6020836134d0565b9150613e1882613dd7565b602082019050919050565b60006020820190508181036000830152613e3c81613e00565b9050919050565b7f4e487b7100000000000000000000000000000000000000000000000000000000600052601160045260246000fd5b6000613e7d826132fd565b9150613e88836132fd565b9250827fffffffffffffffffffffffffffffffffffffffffffffffffffffffffffffffff03821115613ebd57613ebc613e43565b5b828201905092915050565b6000604082019050613edd6000830185613373565b613eea6020830184613373565b9392505050565b7f4e487b7100000000000000000000000000000000000000000000000000000000600052602260045260246000fd5b60006002820490506001821680613f3857607f821691505b602082108103613f4b57613f4a613ef1565b5b50919050565b60008190508160005260206000209050919050565b60008154613f7381613f20565b613f7d81866134d0565b94506001821660008114613f985760018114613faa57613fdd565b60ff1983168652602086019350613fdd565b613fb385613f51565b60005b83811015613fd557815481890152600182019150602081019050613fb6565b808801955050505b50505092915050565b7f2e6a736f6e000000000000000000000000000000000000000000000000000000600082015250565b600061401c6005836134d0565b915061402782613fe6565b602082019050919050565b6000606082019050818103600083015261404c8185613f66565b905081810360208301526140608184613525565b905081810360408301526140738161400f565b90509392505050565b7f455243313135353a207472616e736665722063616c6c6572206973206e6f742060008201527f6f776e6572206e6f7220617070726f7665640000000000000000000000000000602082015250565b60006140d86032836134d0565b91506140e38261407c565b604082019050919050565b60006020820190508181036000830152614107816140cb565b9050919050565b7f50726573616c6520686173206e6f742073746172746564000000000000000000600082015250565b60006141446017836134d0565b915061414f8261410e565b602082019050919050565b6000602082019050818103600083015261417381614137565b9050919050565b7f50726573616c65206973206163746976652062757420796f752772652061726560008201527f206e6f742061205649462c207761697420666f72207075626c69632073616c65602082015250565b60006141d66040836134d0565b91506141e18261417a565b604082019050919050565b60006020820190508181036000830152614205816141c9565b9050919050565b7f5265656e7472616e637947756172643a207265656e7472616e742063616c6c00600082015250565b6000614242601f836134d0565b915061424d8261420c565b602082019050919050565b6000602082019050818103600083015261427181614235565b9050919050565b7f4e6f7420656e6f756768206574686572207761732073656e7420746f2074726160008201527f6e73616374696f6e000000000000000000000000000000000000000000000000602082015250565b60006142d46028836134d0565b91506142df82614278565b604082019050919050565b60006020820190508181036000830152614303816142c7565b9050919050565b7f43616e6e6f74207075726368617365206d6f7265207468616e206f6e6520626160008201527f746368206d696e74207065722077616c6c657400000000000000000000000000602082015250565b60006143666033836134d0565b91506143718261430a565b604082019050919050565b6000602082019050818103600083015261439581614359565b9050919050565b7f416c6c20426174636865732068617665206265656e206d696e74656400000000600082015250565b60006143d2601c836134d0565b91506143dd8261439c565b602082019050919050565b60006020820190508181036000830152614401816143c5565b9050919050565b7f4e487b7100000000000000000000000000000000000000000000000000000000600052603260045260246000fd5b6000614442826132fd565b91507fffffffffffffffffffffffffffffffffffffffffffffffffffffffffffffffff820361447457614473613e43565b5b600182019050919050565b600061448a826132fd565b9150614495836132fd565b9250828210156144a8576144a7613e43565b5b828203905092915050565b60006144be826132fd565b9150600082036144d1576144d0613e43565b5b600182039050919050565b7f455243313135353a206163636f756e747320616e6420696473206c656e67746860008201527f206d69736d617463680000000000000000000000000000000000000000000000602082015250565b60006145386029836134d0565b9150614543826144dc565b604082019050919050565b600060208201905081810360008301526145678161452b565b9050919050565b7f4e6f20657468657220696e20636f6e7472616374000000000000000000000000600082015250565b60006145a46014836134d0565b91506145af8261456e565b602082019050919050565b600060208201905081810360008301526145d381614597565b9050919050565b7f596f7520646f206e6f74206f776e20746865206672756974746f6b656e000000600082015250565b6000614610601d836134d0565b915061461b826145da565b602082019050919050565b6000602082019050818103600083015261463f81614603565b9050919050565b7f596f7520646f206e6f74206f776e2074686520666f7572496e4f6e65546f6b6560008201527f6e00000000000000000000000000000000000000000000000000000000000000602082015250565b60006146a26021836134d0565b91506146ad82614646565b604082019050919050565b600060208201905081810360008301526146d181614695565b9050919050565b7f596f7520646f206e6f74206f776e2061207265636569707420666f722065786360008201527f68616e6765000000000000000000000000000000000000000000000000000000602082015250565b60006147346025836134d0565b915061473f826146d8565b604082019050919050565b6000602082019050818103600083015261476381614727565b9050919050565b600060408201905061477f6000830185613ae7565b61478c6020830184613373565b9392505050565b7f4e6f7420456e6f756768205649462073706f7473206c65667400000000000000600082015250565b60006147c96019836134d0565b91506147d482614793565b602082019050919050565b600060208201905081810360008301526147f8816147bc565b9050919050565b7f4f7574206f66204769766561776179732e000000000000000000000000000000600082015250565b60006148356011836134d0565b9150614840826147ff565b602082019050919050565b6000602082019050818103600083015261486481614828565b9050919050565b7f455243313135353a2063616c6c6572206973206e6f74206f776e6572206e6f7260008201527f20617070726f7665640000000000000000000000000000000000000000000000602082015250565b60006148c76029836134d0565b91506148d28261486b565b604082019050919050565b600060208201905081810360008301526148f6816148ba565b9050919050565b7f4f776e61626c653a206e6577206f776e657220697320746865207a65726f206160008201527f6464726573730000000000000000000000000000000000000000000000000000602082015250565b60006149596026836134d0565b9150614964826148fd565b604082019050919050565b600060208201905081810360008301526149888161494c565b9050919050565b7f4e487b7100000000000000000000000000000000000000000000000000000000600052601260045260246000fd5b60006149c9826132fd565b91506149d4836132fd565b9250826149e4576149e361498f565b5b828204905092915050565b60006149fa826132fd565b9150614a05836132fd565b925082614a1557614a1461498f565b5b828206905092915050565b7f455243313135353a2069647320616e6420616d6f756e7473206c656e6774682060008201527f6d69736d61746368000000000000000000000000000000000000000000000000602082015250565b6000614a7c6028836134d0565b9150614a8782614a20565b604082019050919050565b60006020820190508181036000830152614aab81614a6f565b9050919050565b7f455243313135353a207472616e7366657220746f20746865207a65726f20616460008201527f6472657373000000000000000000000000000000000000000000000000000000602082015250565b6000614b0e6025836134d0565b9150614b1982614ab2565b604082019050919050565b60006020820190508181036000830152614b3d81614b01565b9050919050565b7f455243313135353a20696e73756666696369656e742062616c616e636520666f60008201527f72207472616e7366657200000000000000000000000000000000000000000000602082015250565b6000614ba0602a836134d0565b9150614bab82614b44565b604082019050919050565b60006020820190508181036000830152614bcf81614b93565b9050919050565b60006040820190508181036000830152614bf08185613a14565b90508181036020830152614c048184613a14565b90509392505050565b7f455243313135353a206d696e7420746f20746865207a65726f2061646472657360008201527f7300000000000000000000000000000000000000000000000000000000000000602082015250565b6000614c696021836134d0565b9150614c7482614c0d565b604082019050919050565b60006020820190508181036000830152614c9881614c5c565b9050919050565b7f455243313135353a2073657474696e6720617070726f76616c2073746174757360008201527f20666f722073656c660000000000000000000000000000000000000000000000602082015250565b6000614cfb6029836134d0565b9150614d0682614c9f565b604082019050919050565b60006020820190508181036000830152614d2a81614cee565b9050919050565b600081519050919050565b600082825260208201905092915050565b6000614d5882614d31565b614d628185614d3c565b9350614d728185602086016134e1565b614d7b81613514565b840191505092915050565b600060a082019050614d9b6000830188613ae7565b614da86020830187613ae7565b8181036040830152614dba8186613a14565b90508181036060830152614dce8185613a14565b90508181036080830152614de28184614d4d565b90509695505050505050565b600081519050614dfd816133c9565b92915050565b600060208284031215614e1957614e18613295565b5b6000614e2784828501614dee565b91505092915050565b60008160e01c9050919050565b600060033d1115614e5c5760046000803e614e59600051614e30565b90505b90565b600060443d10614eec57614e7161328b565b60043d036004823e80513d602482011167ffffffffffffffff82111715614e99575050614eec565b808201805167ffffffffffffffff811115614eb75750505050614eec565b80602083010160043d038501811115614ed4575050505050614eec565b614ee3826020018501866135b4565b82955050505050505b90565b7f455243313135353a207472616e7366657220746f206e6f6e204552433131353560008201527f526563656976657220696d706c656d656e746572000000000000000000000000602082015250565b6000614f4b6034836134d0565b9150614f5682614eef565b604082019050919050565b60006020820190508181036000830152614f7a81614f3e565b9050919050565b7f455243313135353a204552433131353552656365697665722072656a6563746560008201527f6420746f6b656e73000000000000000000000000000000000000000000000000602082015250565b6000614fdd6028836134d0565b9150614fe882614f81565b604082019050919050565b6000602082019050818103600083015261500c81614fd0565b9050919050565b600060a0820190506150286000830188613ae7565b6150356020830187613ae7565b6150426040830186613373565b61504f6060830185613373565b81810360808301526150618184614d4d565b9050969550505050505056fea2646970667358221220098719e97877f2e47c0e49ca5af8c7ac1ffdba07660d1a107b049a7340a62eab64736f6c634300080d0033",
  "linkReferences": {},
  "deployedLinkReferences": {}
}