{
  "_format": "hh-sol-artifact-1",
  "contractName": "DemoDapp",
  "sourceName": "contracts/DemoDapp.sol",
  "abi": [
    {
      "inputs": [
        {
          "internalType": "string",
          "name": "uri",
          "type": "string"
        }
      ],
      "stateMutability": "nonpayable",
      "type": "constructor"
    },
    {
      "anonymous": false,
      "inputs": [
        {
          "indexed": true,
          "internalType": "address",
          "name": "account",
          "type": "address"
        },
        {
          "indexed": true,
          "internalType": "address",
          "name": "operator",
          "type": "address"
        },
        {
          "indexed": false,
          "internalType": "bool",
          "name": "approved",
          "type": "bool"
        }
      ],
      "name": "ApprovalForAll",
      "type": "event"
    },
    {
      "anonymous": false,
      "inputs": [
        {
          "indexed": false,
          "internalType": "address",
          "name": "_sender",
          "type": "address"
        },
        {
          "indexed": false,
          "internalType": "uint256",
          "name": "_supply",
          "type": "uint256"
        }
      ],
      "name": "IncreaseReceiptSupply",
      "type": "event"
    },
    {
      "anonymous": false,
      "inputs": [
        {
          "indexed": true,
          "internalType": "address",
          "name": "previousOwner",
          "type": "address"
        },
        {
          "indexed": true,
          "internalType": "address",
          "name": "newOwner",
          "type": "address"
        }
      ],
      "name": "OwnershipTransferred",
      "type": "event"
    },
    {
      "anonymous": false,
      "inputs": [
        {
          "indexed": true,
          "internalType": "address",
          "name": "operator",
          "type": "address"
        },
        {
          "indexed": true,
          "internalType": "address",
          "name": "from",
          "type": "address"
        },
        {
          "indexed": true,
          "internalType": "address",
          "name": "to",
          "type": "address"
        },
        {
          "indexed": false,
          "internalType": "uint256[]",
          "name": "ids",
          "type": "uint256[]"
        },
        {
          "indexed": false,
          "internalType": "uint256[]",
          "name": "values",
          "type": "uint256[]"
        }
      ],
      "name": "TransferBatch",
      "type": "event"
    },
    {
      "anonymous": false,
      "inputs": [
        {
          "indexed": true,
          "internalType": "address",
          "name": "operator",
          "type": "address"
        },
        {
          "indexed": true,
          "internalType": "address",
          "name": "from",
          "type": "address"
        },
        {
          "indexed": true,
          "internalType": "address",
          "name": "to",
          "type": "address"
        },
        {
          "indexed": false,
          "internalType": "uint256",
          "name": "id",
          "type": "uint256"
        },
        {
          "indexed": false,
          "internalType": "uint256",
          "name": "value",
          "type": "uint256"
        }
      ],
      "name": "TransferSingle",
      "type": "event"
    },
    {
      "anonymous": false,
      "inputs": [
        {
          "indexed": false,
          "internalType": "string",
          "name": "value",
          "type": "string"
        },
        {
          "indexed": true,
          "internalType": "uint256",
          "name": "id",
          "type": "uint256"
        }
      ],
      "name": "URI",
      "type": "event"
    },
    {
      "inputs": [
        {
          "internalType": "address",
          "name": "account",
          "type": "address"
        },
        {
          "internalType": "uint256",
          "name": "id",
          "type": "uint256"
        }
      ],
      "name": "balanceOf",
      "outputs": [
        {
          "internalType": "uint256",
          "name": "",
          "type": "uint256"
        }
      ],
      "stateMutability": "view",
      "type": "function"
    },
    {
      "inputs": [
        {
          "internalType": "address[]",
          "name": "accounts",
          "type": "address[]"
        },
        {
          "internalType": "uint256[]",
          "name": "ids",
          "type": "uint256[]"
        }
      ],
      "name": "balanceOfBatch",
      "outputs": [
        {
          "internalType": "uint256[]",
          "name": "",
          "type": "uint256[]"
        }
      ],
      "stateMutability": "view",
      "type": "function"
    },
    {
      "inputs": [],
      "name": "getBalanceOfContract",
      "outputs": [
        {
          "internalType": "uint256",
          "name": "",
          "type": "uint256"
        }
      ],
      "stateMutability": "view",
      "type": "function"
    },
    {
      "inputs": [],
      "name": "getBatchSupply",
      "outputs": [
        {
          "internalType": "uint256",
          "name": "",
          "type": "uint256"
        }
      ],
      "stateMutability": "view",
      "type": "function"
    },
    {
      "inputs": [],
      "name": "getBundleBalance",
      "outputs": [
        {
          "internalType": "uint256",
          "name": "",
          "type": "uint256"
        }
      ],
      "stateMutability": "view",
      "type": "function"
    },
    {
      "inputs": [],
      "name": "getReceiptSupply",
      "outputs": [
        {
          "internalType": "uint256",
          "name": "",
          "type": "uint256"
        }
      ],
      "stateMutability": "view",
      "type": "function"
    },
    {
      "inputs": [
        {
          "internalType": "uint256",
          "name": "_tokenId",
          "type": "uint256"
        }
      ],
      "name": "getUri",
      "outputs": [
        {
          "internalType": "string",
          "name": "",
          "type": "string"
        }
      ],
      "stateMutability": "view",
      "type": "function"
    },
    {
      "inputs": [
        {
          "internalType": "uint256",
          "name": "_supply",
          "type": "uint256"
        }
      ],
      "name": "increaseReceiptSupply",
      "outputs": [],
      "stateMutability": "nonpayable",
      "type": "function"
    },
    {
      "inputs": [
        {
          "internalType": "address",
          "name": "account",
          "type": "address"
        },
        {
          "internalType": "address",
          "name": "operator",
          "type": "address"
        }
      ],
      "name": "isApprovedForAll",
      "outputs": [
        {
          "internalType": "bool",
          "name": "",
          "type": "bool"
        }
      ],
      "stateMutability": "view",
      "type": "function"
    },
    {
      "inputs": [],
      "name": "mintBundle",
      "outputs": [],
      "stateMutability": "payable",
      "type": "function"
    },
    {
      "inputs": [],
      "name": "owner",
      "outputs": [
        {
          "internalType": "address",
          "name": "",
          "type": "address"
        }
      ],
      "stateMutability": "view",
      "type": "function"
    },
    {
      "inputs": [],
      "name": "renounceOwnership",
      "outputs": [],
      "stateMutability": "nonpayable",
      "type": "function"
    },
    {
      "inputs": [
        {
          "internalType": "address",
          "name": "from",
          "type": "address"
        },
        {
          "internalType": "address",
          "name": "to",
          "type": "address"
        },
        {
          "internalType": "uint256[]",
          "name": "ids",
          "type": "uint256[]"
        },
        {
          "internalType": "uint256[]",
          "name": "amounts",
          "type": "uint256[]"
        },
        {
          "internalType": "bytes",
          "name": "data",
          "type": "bytes"
        }
      ],
      "name": "safeBatchTransferFrom",
      "outputs": [],
      "stateMutability": "nonpayable",
      "type": "function"
    },
    {
      "inputs": [
        {
          "internalType": "address",
          "name": "from",
          "type": "address"
        },
        {
          "internalType": "address",
          "name": "to",
          "type": "address"
        },
        {
          "internalType": "uint256",
          "name": "id",
          "type": "uint256"
        },
        {
          "internalType": "uint256",
          "name": "amount",
          "type": "uint256"
        },
        {
          "internalType": "bytes",
          "name": "data",
          "type": "bytes"
        }
      ],
      "name": "safeTransferFrom",
      "outputs": [],
      "stateMutability": "nonpayable",
      "type": "function"
    },
    {
      "inputs": [
        {
          "internalType": "address",
          "name": "operator",
          "type": "address"
        },
        {
          "internalType": "bool",
          "name": "approved",
          "type": "bool"
        }
      ],
      "name": "setApprovalForAll",
      "outputs": [],
      "stateMutability": "nonpayable",
      "type": "function"
    },
    {
      "inputs": [
        {
          "internalType": "bytes4",
          "name": "interfaceId",
          "type": "bytes4"
        }
      ],
      "name": "supportsInterface",
      "outputs": [
        {
          "internalType": "bool",
          "name": "",
          "type": "bool"
        }
      ],
      "stateMutability": "view",
      "type": "function"
    },
    {
      "inputs": [
        {
          "internalType": "address",
          "name": "newOwner",
          "type": "address"
        }
      ],
      "name": "transferOwnership",
      "outputs": [],
      "stateMutability": "nonpayable",
      "type": "function"
    },
    {
      "inputs": [
        {
          "internalType": "uint256",
          "name": "",
          "type": "uint256"
        }
      ],
      "name": "uri",
      "outputs": [
        {
          "internalType": "string",
          "name": "",
          "type": "string"
        }
      ],
      "stateMutability": "view",
      "type": "function"
    },
    {
      "inputs": [
        {
          "internalType": "address payable",
          "name": "_to",
          "type": "address"
        }
      ],
      "name": "withdrawBalance",
      "outputs": [],
      "stateMutability": "nonpayable",
      "type": "function"
    }
  ],
  "bytecode": "0x6080604052610bb86004556001600555620186a06006556103e860075560fa6008556040518060c00160405280600160ff168152602001600160ff168152602001600160ff168152602001600160ff168152602001600160ff168152602001600360ff16815250600990600662000078929190620004b6565b506040518060c00160405280600060ff168152602001600060ff168152602001600060ff168152602001600060ff168152602001600060ff168152602001600060ff16815250600a906006620000d0929190620004b6565b50348015620000de57600080fd5b50604051620048903803806200489083398181016040528101906200010491906200062f565b8062000116816200016960201b60201c565b50620001376200012b6200018560201b60201c565b6200018d60201b60201c565b80600b90805190602001906200014f9291906200050d565b506200016260006200025360201b60201c565b5062000bd5565b8060029080519060200190620001819291906200050d565b5050565b600033905090565b6000600360009054906101000a900473ffffffffffffffffffffffffffffffffffffffff16905081600360006101000a81548173ffffffffffffffffffffffffffffffffffffffff021916908373ffffffffffffffffffffffffffffffffffffffff1602179055508173ffffffffffffffffffffffffffffffffffffffff168173ffffffffffffffffffffffffffffffffffffffff167f8be0079c531659141344cd1fd0a4f28419497f9722a3daafe3b4186f6b6457e060405160405180910390a35050565b600b6200026b82620002f460201b620013d91760201c565b6040516020016200027e929190620007e9565b604051602081830303815290604052600c60008381526020019081526020016000209080519060200190620002b59291906200050d565b50807f6bb7ff708619ba0610cba295a58592e0451dee2622938c8755667688daf3529b600b604051620002e991906200081e565b60405180910390a250565b606060008214156200033e576040518060400160405280600181526020017f30000000000000000000000000000000000000000000000000000000000000008152509050620004b1565b600082905060005b60008214620003765780806200035c9062000a59565b915050600a826200036e91906200093a565b915062000346565b60008167ffffffffffffffff811115620003b9577f4e487b7100000000000000000000000000000000000000000000000000000000600052604160045260246000fd5b6040519080825280601f01601f191660200182016040528015620003ec5781602001600182028036833780820191505090505b5090505b60008514620004aa5760018262000408919062000972565b9150600a8562000419919062000aa7565b6030620004279190620008dd565b60f81b81838151811062000464577f4e487b7100000000000000000000000000000000000000000000000000000000600052603260045260246000fd5b60200101907effffffffffffffffffffffffffffffffffffffffffffffffffffffffffffff1916908160001a905350600a85620004a291906200093a565b9450620003f0565b8093505050505b919050565b828054828255906000526020600020908101928215620004fa579160200282015b82811115620004f9578251829060ff16905591602001919060010190620004d7565b5b5090506200050991906200059e565b5090565b8280546200051b90620009ed565b90600052602060002090601f0160209004810192826200053f57600085556200058b565b82601f106200055a57805160ff19168380011785556200058b565b828001600101855582156200058b579182015b828111156200058a5782518255916020019190600101906200056d565b5b5090506200059a91906200059e565b5090565b5b80821115620005b95760008160009055506001016200059f565b5090565b6000620005d4620005ce846200086b565b62000842565b905082815260208101848484011115620005ed57600080fd5b620005fa848285620009b7565b509392505050565b600082601f8301126200061457600080fd5b815162000626848260208601620005bd565b91505092915050565b6000602082840312156200064257600080fd5b600082015167ffffffffffffffff8111156200065d57600080fd5b6200066b8482850162000602565b91505092915050565b60006200068182620008b6565b6200068d8185620008d2565b93506200069f818560208601620009b7565b80840191505092915050565b60008154620006ba81620009ed565b620006c68186620008c1565b94506001821660008114620006e45760018114620006f7576200072e565b60ff19831686526020860193506200072e565b6200070285620008a1565b60005b83811015620007265781548189015260018201915060208101905062000705565b808801955050505b50505092915050565b600081546200074681620009ed565b620007528186620008d2565b945060018216600081146200077057600181146200078257620007b9565b60ff19831686528186019350620007b9565b6200078d85620008a1565b60005b83811015620007b15781548189015260018201915060208101905062000790565b838801955050505b50505092915050565b6000620007d1600583620008d2565b9150620007de8262000bac565b600582019050919050565b6000620007f7828562000737565b915062000805828462000674565b91506200081282620007c2565b91508190509392505050565b600060208201905081810360008301526200083a8184620006ab565b905092915050565b60006200084e62000861565b90506200085c828262000a23565b919050565b6000604051905090565b600067ffffffffffffffff82111562000889576200088862000b6c565b5b620008948262000b9b565b9050602081019050919050565b60008190508160005260206000209050919050565b600081519050919050565b600082825260208201905092915050565b600081905092915050565b6000620008ea82620009ad565b9150620008f783620009ad565b9250827fffffffffffffffffffffffffffffffffffffffffffffffffffffffffffffffff038211156200092f576200092e62000adf565b5b828201905092915050565b60006200094782620009ad565b91506200095483620009ad565b92508262000967576200096662000b0e565b5b828204905092915050565b60006200097f82620009ad565b91506200098c83620009ad565b925082821015620009a257620009a162000adf565b5b828203905092915050565b6000819050919050565b60005b83811015620009d7578082015181840152602081019050620009ba565b83811115620009e7576000848401525b50505050565b6000600282049050600182168062000a0657607f821691505b6020821081141562000a1d5762000a1c62000b3d565b5b50919050565b62000a2e8262000b9b565b810181811067ffffffffffffffff8211171562000a505762000a4f62000b6c565b5b80604052505050565b600062000a6682620009ad565b91507fffffffffffffffffffffffffffffffffffffffffffffffffffffffffffffffff82141562000a9c5762000a9b62000adf565b5b600182019050919050565b600062000ab482620009ad565b915062000ac183620009ad565b92508262000ad45762000ad362000b0e565b5b828206905092915050565b7f4e487b7100000000000000000000000000000000000000000000000000000000600052601160045260246000fd5b7f4e487b7100000000000000000000000000000000000000000000000000000000600052601260045260246000fd5b7f4e487b7100000000000000000000000000000000000000000000000000000000600052602260045260246000fd5b7f4e487b7100000000000000000000000000000000000000000000000000000000600052604160045260246000fd5b6000601f19601f8301169050919050565b7f2e6a736f6e000000000000000000000000000000000000000000000000000000600082015250565b613cab8062000be56000396000f3fe6080604052600436106101135760003560e01c8063756af45f116100a0578063b08504e911610064578063b08504e91461037d578063da0544aa146103a8578063e985e9c5146103e5578063f242432a14610422578063f2fde38b1461044b57610113565b8063756af45f146102ac57806383fc3067146102d55780638da5cb5b146102fe578063918c732a14610329578063a22cb4651461035457610113565b80632eb2c2d6116100e75780632eb2c2d6146101fa578063410404b7146102235780634e1273f41461022d5780635f4c5b251461026a578063715018a61461029557610113565b8062fdd58e1461011857806301ffc9a7146101555780630e89341c1461019257806322968885146101cf575b600080fd5b34801561012457600080fd5b5061013f600480360381019061013a9190612960565b610474565b60405161014c91906131b6565b60405180910390f35b34801561016157600080fd5b5061017c60048036038101906101779190612a08565b61053d565b6040516101899190612f59565b60405180910390f35b34801561019e57600080fd5b506101b960048036038101906101b49190612a5a565b61061f565b6040516101c69190612f74565b60405180910390f35b3480156101db57600080fd5b506101e46106b3565b6040516101f191906131b6565b60405180910390f35b34801561020657600080fd5b50610221600480360381019061021c91906127d6565b610737565b005b61022b6107d8565b005b34801561023957600080fd5b50610254600480360381019061024f919061299c565b610ca1565b6040516102619190612f00565b60405180910390f35b34801561027657600080fd5b5061027f610e52565b60405161028c91906131b6565b60405180910390f35b3480156102a157600080fd5b506102aa610e5c565b005b3480156102b857600080fd5b506102d360048036038101906102ce9190612771565b610ee4565b005b3480156102e157600080fd5b506102fc60048036038101906102f79190612a5a565b610faa565b005b34801561030a57600080fd5b50610313611076565b6040516103209190612dfa565b60405180910390f35b34801561033557600080fd5b5061033e6110a0565b60405161034b91906131b6565b60405180910390f35b34801561036057600080fd5b5061037b60048036038101906103769190612924565b6110aa565b005b34801561038957600080fd5b506103926110c0565b60405161039f91906131b6565b60405180910390f35b3480156103b457600080fd5b506103cf60048036038101906103ca9190612a5a565b611107565b6040516103dc9190612f74565b60405180910390f35b3480156103f157600080fd5b5061040c6004803603810190610407919061279a565b6111ac565b6040516104199190612f59565b60405180910390f35b34801561042e57600080fd5b5061044960048036038101906104449190612895565b611240565b005b34801561045757600080fd5b50610472600480360381019061046d9190612748565b6112e1565b005b60008073ffffffffffffffffffffffffffffffffffffffff168373ffffffffffffffffffffffffffffffffffffffff1614156104e5576040517f08c379a00000000000000000000000000000000000000000000000000000000081526004016104dc90612fd6565b60405180910390fd5b60008083815260200190815260200160002060008473ffffffffffffffffffffffffffffffffffffffff1673ffffffffffffffffffffffffffffffffffffffff16815260200190815260200160002054905092915050565b60007fd9b67a26000000000000000000000000000000000000000000000000000000007bffffffffffffffffffffffffffffffffffffffffffffffffffffffff1916827bffffffffffffffffffffffffffffffffffffffffffffffffffffffff1916148061060857507f0e89341c000000000000000000000000000000000000000000000000000000007bffffffffffffffffffffffffffffffffffffffffffffffffffffffff1916827bffffffffffffffffffffffffffffffffffffffffffffffffffffffff1916145b80610618575061061782611586565b5b9050919050565b60606002805461062e906134c6565b80601f016020809104026020016040519081016040528092919081815260200182805461065a906134c6565b80156106a75780601f1061067c576101008083540402835291602001916106a7565b820191906000526020600020905b81548152906001019060200180831161068a57829003601f168201915b50505050509050919050565b60006106bd6115f0565b73ffffffffffffffffffffffffffffffffffffffff166106db611076565b73ffffffffffffffffffffffffffffffffffffffff1614610731576040517f08c379a0000000000000000000000000000000000000000000000000000000008152600401610728906130d6565b60405180910390fd5b47905090565b61073f6115f0565b73ffffffffffffffffffffffffffffffffffffffff168573ffffffffffffffffffffffffffffffffffffffff16148061078557506107848561077f6115f0565b6111ac565b5b6107c4576040517f08c379a00000000000000000000000000000000000000000000000000000000081526004016107bb90613096565b60405180910390fd5b6107d185858585856115f8565b5050505050565b66b1a2bc2ec50000341015610822576040517f08c379a000000000000000000000000000000000000000000000000000000000815260040161081990613056565b60405180910390fd5b6000600d60003373ffffffffffffffffffffffffffffffffffffffff1673ffffffffffffffffffffffffffffffffffffffff16815260200190815260200160002054146108a4576040517f08c379a000000000000000000000000000000000000000000000000000000000815260040161089b90613136565b60405180910390fd5b6000600754116108e9576040517f08c379a00000000000000000000000000000000000000000000000000000000081526004016108e0906130f6565b60405180910390fd5b610fa16005541061092f576040517f08c379a000000000000000000000000000000000000000000000000000000000815260040161092690613016565b60405180910390fd5b6000600a80548060200260200160405190810160405280929190818152602001828054801561097d57602002820191906000526020600020905b815481526020019060010190808311610969575b50505050509050600554816000815181106109c1577f4e487b7100000000000000000000000000000000000000000000000000000000600052603260045260246000fd5b602002602001018181525050600560008154809291906109e090613529565b919050555060055481600181518110610a22577f4e487b7100000000000000000000000000000000000000000000000000000000600052603260045260246000fd5b60200260200101818152505060056000815480929190610a4190613529565b919050555060055481600281518110610a83577f4e487b7100000000000000000000000000000000000000000000000000000000600052603260045260246000fd5b60200260200101818152505060056000815480929190610aa290613529565b919050555060055481600381518110610ae4577f4e487b7100000000000000000000000000000000000000000000000000000000600052603260045260246000fd5b60200260200101818152505060056000815480929190610b0390613529565b919050555060065481600481518110610b45577f4e487b7100000000000000000000000000000000000000000000000000000000600052603260045260246000fd5b60200260200101818152505060066000815480929190610b6490613529565b9190505550600081600581518110610ba5577f4e487b7100000000000000000000000000000000000000000000000000000000600052603260045260246000fd5b60200260200101818152505060076000815480929190610bc49061349c565b9190505550600d60003373ffffffffffffffffffffffffffffffffffffffff1673ffffffffffffffffffffffffffffffffffffffff1681526020019081526020016000206000815480929190610c1990613529565b91905055506003600454610c2d91906133a0565b600481905550610c9e33826009805480602002602001604051908101604052809291908181526020018280548015610c8457602002820191906000526020600020905b815481526020019060010190808311610c70575b505050505060405180602001604052806000815250611958565b50565b60608151835114610ce7576040517f08c379a0000000000000000000000000000000000000000000000000000000008152600401610cde90613156565b60405180910390fd5b6000835167ffffffffffffffff811115610d2a577f4e487b7100000000000000000000000000000000000000000000000000000000600052604160045260246000fd5b604051908082528060200260200182016040528015610d585781602001602082028036833780820191505090505b50905060005b8451811015610e4757610df1858281518110610da3577f4e487b7100000000000000000000000000000000000000000000000000000000600052603260045260246000fd5b6020026020010151858381518110610de4577f4e487b7100000000000000000000000000000000000000000000000000000000600052603260045260246000fd5b6020026020010151610474565b828281518110610e2a577f4e487b7100000000000000000000000000000000000000000000000000000000600052603260045260246000fd5b60200260200101818152505080610e4090613529565b9050610d5e565b508091505092915050565b6000600454905090565b610e646115f0565b73ffffffffffffffffffffffffffffffffffffffff16610e82611076565b73ffffffffffffffffffffffffffffffffffffffff1614610ed8576040517f08c379a0000000000000000000000000000000000000000000000000000000008152600401610ecf906130d6565b60405180910390fd5b610ee26000611bc2565b565b610eec6115f0565b73ffffffffffffffffffffffffffffffffffffffff16610f0a611076565b73ffffffffffffffffffffffffffffffffffffffff1614610f60576040517f08c379a0000000000000000000000000000000000000000000000000000000008152600401610f57906130d6565b60405180910390fd5b8073ffffffffffffffffffffffffffffffffffffffff166108fc479081150290604051600060405180830381858888f19350505050158015610fa6573d6000803e3d6000fd5b5050565b610fb26115f0565b73ffffffffffffffffffffffffffffffffffffffff16610fd0611076565b73ffffffffffffffffffffffffffffffffffffffff1614611026576040517f08c379a000000000000000000000000000000000000000000000000000000000815260040161101d906130d6565b60405180910390fd5b806004546110349190613319565b6004819055507fe3d47dee33b959cc59941f840525125123544e1f194b235f340f0c6147697ac3338260405161106b929190612ed7565b60405180910390a150565b6000600360009054906101000a900473ffffffffffffffffffffffffffffffffffffffff16905090565b6000600754905090565b6110bc6110b56115f0565b8383611c88565b5050565b6000600d60003373ffffffffffffffffffffffffffffffffffffffff1673ffffffffffffffffffffffffffffffffffffffff16815260200190815260200160002054905090565b6060600c60008381526020019081526020016000208054611127906134c6565b80601f0160208091040260200160405190810160405280929190818152602001828054611153906134c6565b80156111a05780601f10611175576101008083540402835291602001916111a0565b820191906000526020600020905b81548152906001019060200180831161118357829003601f168201915b50505050509050919050565b6000600160008473ffffffffffffffffffffffffffffffffffffffff1673ffffffffffffffffffffffffffffffffffffffff16815260200190815260200160002060008373ffffffffffffffffffffffffffffffffffffffff1673ffffffffffffffffffffffffffffffffffffffff16815260200190815260200160002060009054906101000a900460ff16905092915050565b6112486115f0565b73ffffffffffffffffffffffffffffffffffffffff168573ffffffffffffffffffffffffffffffffffffffff16148061128e575061128d856112886115f0565b6111ac565b5b6112cd576040517f08c379a00000000000000000000000000000000000000000000000000000000081526004016112c490613036565b60405180910390fd5b6112da8585858585611df5565b5050505050565b6112e96115f0565b73ffffffffffffffffffffffffffffffffffffffff16611307611076565b73ffffffffffffffffffffffffffffffffffffffff161461135d576040517f08c379a0000000000000000000000000000000000000000000000000000000008152600401611354906130d6565b60405180910390fd5b600073ffffffffffffffffffffffffffffffffffffffff168173ffffffffffffffffffffffffffffffffffffffff1614156113cd576040517f08c379a00000000000000000000000000000000000000000000000000000000081526004016113c490612ff6565b60405180910390fd5b6113d681611bc2565b50565b60606000821415611421576040518060400160405280600181526020017f30000000000000000000000000000000000000000000000000000000000000008152509050611581565b600082905060005b6000821461145357808061143c90613529565b915050600a8261144c919061336f565b9150611429565b60008167ffffffffffffffff811115611495577f4e487b7100000000000000000000000000000000000000000000000000000000600052604160045260246000fd5b6040519080825280601f01601f1916602001820160405280156114c75781602001600182028036833780820191505090505b5090505b6000851461157a576001826114e091906133a0565b9150600a856114ef9190613572565b60306114fb9190613319565b60f81b818381518110611537577f4e487b7100000000000000000000000000000000000000000000000000000000600052603260045260246000fd5b60200101907effffffffffffffffffffffffffffffffffffffffffffffffffffffffffffff1916908160001a905350600a85611573919061336f565b94506114cb565b8093505050505b919050565b60007f01ffc9a7000000000000000000000000000000000000000000000000000000007bffffffffffffffffffffffffffffffffffffffffffffffffffffffff1916827bffffffffffffffffffffffffffffffffffffffffffffffffffffffff1916149050919050565b600033905090565b815183511461163c576040517f08c379a000000000000000000000000000000000000000000000000000000000815260040161163390613176565b60405180910390fd5b600073ffffffffffffffffffffffffffffffffffffffff168473ffffffffffffffffffffffffffffffffffffffff1614156116ac576040517f08c379a00000000000000000000000000000000000000000000000000000000081526004016116a390613076565b60405180910390fd5b60006116b66115f0565b90506116c6818787878787612077565b60005b84518110156118c357600085828151811061170d577f4e487b7100000000000000000000000000000000000000000000000000000000600052603260045260246000fd5b602002602001015190506000858381518110611752577f4e487b7100000000000000000000000000000000000000000000000000000000600052603260045260246000fd5b60200260200101519050600080600084815260200190815260200160002060008b73ffffffffffffffffffffffffffffffffffffffff1673ffffffffffffffffffffffffffffffffffffffff168152602001908152602001600020549050818110156117f3576040517f08c379a00000000000000000000000000000000000000000000000000000000081526004016117ea906130b6565b60405180910390fd5b81810360008085815260200190815260200160002060008c73ffffffffffffffffffffffffffffffffffffffff1673ffffffffffffffffffffffffffffffffffffffff168152602001908152602001600020819055508160008085815260200190815260200160002060008b73ffffffffffffffffffffffffffffffffffffffff1673ffffffffffffffffffffffffffffffffffffffff16815260200190815260200160002060008282546118a89190613319565b92505081905550505050806118bc90613529565b90506116c9565b508473ffffffffffffffffffffffffffffffffffffffff168673ffffffffffffffffffffffffffffffffffffffff168273ffffffffffffffffffffffffffffffffffffffff167f4a39dc06d4c0dbc64b70af90fd698a233a518aa5d07e595d983b8c0526c8f7fb878760405161193a929190612f22565b60405180910390a461195081878787878761207f565b505050505050565b600073ffffffffffffffffffffffffffffffffffffffff168473ffffffffffffffffffffffffffffffffffffffff1614156119c8576040517f08c379a00000000000000000000000000000000000000000000000000000000081526004016119bf90613196565b60405180910390fd5b8151835114611a0c576040517f08c379a0000000000000000000000000000000000000000000000000000000008152600401611a0390613176565b60405180910390fd5b6000611a166115f0565b9050611a2781600087878787612077565b60005b8451811015611b2c57838181518110611a6c577f4e487b7100000000000000000000000000000000000000000000000000000000600052603260045260246000fd5b6020026020010151600080878481518110611ab0577f4e487b7100000000000000000000000000000000000000000000000000000000600052603260045260246000fd5b6020026020010151815260200190815260200160002060008873ffffffffffffffffffffffffffffffffffffffff1673ffffffffffffffffffffffffffffffffffffffff1681526020019081526020016000206000828254611b129190613319565b925050819055508080611b2490613529565b915050611a2a565b508473ffffffffffffffffffffffffffffffffffffffff16600073ffffffffffffffffffffffffffffffffffffffff168273ffffffffffffffffffffffffffffffffffffffff167f4a39dc06d4c0dbc64b70af90fd698a233a518aa5d07e595d983b8c0526c8f7fb8787604051611ba4929190612f22565b60405180910390a4611bbb8160008787878761207f565b5050505050565b6000600360009054906101000a900473ffffffffffffffffffffffffffffffffffffffff16905081600360006101000a81548173ffffffffffffffffffffffffffffffffffffffff021916908373ffffffffffffffffffffffffffffffffffffffff1602179055508173ffffffffffffffffffffffffffffffffffffffff168173ffffffffffffffffffffffffffffffffffffffff167f8be0079c531659141344cd1fd0a4f28419497f9722a3daafe3b4186f6b6457e060405160405180910390a35050565b8173ffffffffffffffffffffffffffffffffffffffff168373ffffffffffffffffffffffffffffffffffffffff161415611cf7576040517f08c379a0000000000000000000000000000000000000000000000000000000008152600401611cee90613116565b60405180910390fd5b80600160008573ffffffffffffffffffffffffffffffffffffffff1673ffffffffffffffffffffffffffffffffffffffff16815260200190815260200160002060008473ffffffffffffffffffffffffffffffffffffffff1673ffffffffffffffffffffffffffffffffffffffff16815260200190815260200160002060006101000a81548160ff0219169083151502179055508173ffffffffffffffffffffffffffffffffffffffff168373ffffffffffffffffffffffffffffffffffffffff167f17307eab39ab6107e8899845ad3d59bd9653f200f220920489ca2b5937696c3183604051611de89190612f59565b60405180910390a3505050565b600073ffffffffffffffffffffffffffffffffffffffff168473ffffffffffffffffffffffffffffffffffffffff161415611e65576040517f08c379a0000000000000000000000000000000000000000000000000000000008152600401611e5c90613076565b60405180910390fd5b6000611e6f6115f0565b9050611e8f818787611e8088612266565b611e8988612266565b87612077565b600080600086815260200190815260200160002060008873ffffffffffffffffffffffffffffffffffffffff1673ffffffffffffffffffffffffffffffffffffffff16815260200190815260200160002054905083811015611f26576040517f08c379a0000000000000000000000000000000000000000000000000000000008152600401611f1d906130b6565b60405180910390fd5b83810360008087815260200190815260200160002060008973ffffffffffffffffffffffffffffffffffffffff1673ffffffffffffffffffffffffffffffffffffffff168152602001908152602001600020819055508360008087815260200190815260200160002060008873ffffffffffffffffffffffffffffffffffffffff1673ffffffffffffffffffffffffffffffffffffffff1681526020019081526020016000206000828254611fdb9190613319565b925050819055508573ffffffffffffffffffffffffffffffffffffffff168773ffffffffffffffffffffffffffffffffffffffff168373ffffffffffffffffffffffffffffffffffffffff167fc3d58168c5ae7397731d063d5bbf3d657854427343f4c083240f7aacaa2d0f6288886040516120589291906131d1565b60405180910390a461206e82888888888861232c565b50505050505050565b505050505050565b61209e8473ffffffffffffffffffffffffffffffffffffffff16612513565b1561225e578373ffffffffffffffffffffffffffffffffffffffff1663bc197c8187878686866040518663ffffffff1660e01b81526004016120e4959493929190612e15565b602060405180830381600087803b1580156120fe57600080fd5b505af192505050801561212f57506040513d601f19601f8201168201806040525081019061212c9190612a31565b60015b6121d55761213b61365f565b806308c379a014156121985750612150613b6c565b8061215b575061219a565b806040517f08c379a000000000000000000000000000000000000000000000000000000000815260040161218f9190612f74565b60405180910390fd5b505b6040517f08c379a00000000000000000000000000000000000000000000000000000000081526004016121cc90612f96565b60405180910390fd5b63bc197c8160e01b7bffffffffffffffffffffffffffffffffffffffffffffffffffffffff1916817bffffffffffffffffffffffffffffffffffffffffffffffffffffffff19161461225c576040517f08c379a000000000000000000000000000000000000000000000000000000000815260040161225390612fb6565b60405180910390fd5b505b505050505050565b60606000600167ffffffffffffffff8111156122ab577f4e487b7100000000000000000000000000000000000000000000000000000000600052604160045260246000fd5b6040519080825280602002602001820160405280156122d95781602001602082028036833780820191505090505b5090508281600081518110612317577f4e487b7100000000000000000000000000000000000000000000000000000000600052603260045260246000fd5b60200260200101818152505080915050919050565b61234b8473ffffffffffffffffffffffffffffffffffffffff16612513565b1561250b578373ffffffffffffffffffffffffffffffffffffffff1663f23a6e6187878686866040518663ffffffff1660e01b8152600401612391959493929190612e7d565b602060405180830381600087803b1580156123ab57600080fd5b505af19250505080156123dc57506040513d601f19601f820116820180604052508101906123d99190612a31565b60015b612482576123e861365f565b806308c379a0141561244557506123fd613b6c565b806124085750612447565b806040517f08c379a000000000000000000000000000000000000000000000000000000000815260040161243c9190612f74565b60405180910390fd5b505b6040517f08c379a000000000000000000000000000000000000000000000000000000000815260040161247990612f96565b60405180910390fd5b63f23a6e6160e01b7bffffffffffffffffffffffffffffffffffffffffffffffffffffffff1916817bffffffffffffffffffffffffffffffffffffffffffffffffffffffff191614612509576040517f08c379a000000000000000000000000000000000000000000000000000000000815260040161250090612fb6565b60405180910390fd5b505b505050505050565b6000808273ffffffffffffffffffffffffffffffffffffffff163b119050919050565b60006125496125448461321f565b6131fa565b9050808382526020820190508285602086028201111561256857600080fd5b60005b85811015612598578161257e888261264c565b84526020840193506020830192505060018101905061256b565b5050509392505050565b60006125b56125b08461324b565b6131fa565b905080838252602082019050828560208602820111156125d457600080fd5b60005b8581101561260457816125ea8882612733565b8452602084019350602083019250506001810190506125d7565b5050509392505050565b600061262161261c84613277565b6131fa565b90508281526020810184848401111561263957600080fd5b61264484828561345a565b509392505050565b60008135905061265b81613c02565b92915050565b60008135905061267081613c19565b92915050565b600082601f83011261268757600080fd5b8135612697848260208601612536565b91505092915050565b600082601f8301126126b157600080fd5b81356126c18482602086016125a2565b91505092915050565b6000813590506126d981613c30565b92915050565b6000813590506126ee81613c47565b92915050565b60008151905061270381613c47565b92915050565b600082601f83011261271a57600080fd5b813561272a84826020860161260e565b91505092915050565b60008135905061274281613c5e565b92915050565b60006020828403121561275a57600080fd5b60006127688482850161264c565b91505092915050565b60006020828403121561278357600080fd5b600061279184828501612661565b91505092915050565b600080604083850312156127ad57600080fd5b60006127bb8582860161264c565b92505060206127cc8582860161264c565b9150509250929050565b600080600080600060a086880312156127ee57600080fd5b60006127fc8882890161264c565b955050602061280d8882890161264c565b945050604086013567ffffffffffffffff81111561282a57600080fd5b612836888289016126a0565b935050606086013567ffffffffffffffff81111561285357600080fd5b61285f888289016126a0565b925050608086013567ffffffffffffffff81111561287c57600080fd5b61288888828901612709565b9150509295509295909350565b600080600080600060a086880312156128ad57600080fd5b60006128bb8882890161264c565b95505060206128cc8882890161264c565b94505060406128dd88828901612733565b93505060606128ee88828901612733565b925050608086013567ffffffffffffffff81111561290b57600080fd5b61291788828901612709565b9150509295509295909350565b6000806040838503121561293757600080fd5b60006129458582860161264c565b9250506020612956858286016126ca565b9150509250929050565b6000806040838503121561297357600080fd5b60006129818582860161264c565b925050602061299285828601612733565b9150509250929050565b600080604083850312156129af57600080fd5b600083013567ffffffffffffffff8111156129c957600080fd5b6129d585828601612676565b925050602083013567ffffffffffffffff8111156129f257600080fd5b6129fe858286016126a0565b9150509250929050565b600060208284031215612a1a57600080fd5b6000612a28848285016126df565b91505092915050565b600060208284031215612a4357600080fd5b6000612a51848285016126f4565b91505092915050565b600060208284031215612a6c57600080fd5b6000612a7a84828501612733565b91505092915050565b6000612a8f8383612ddc565b60208301905092915050565b612aa4816133d4565b82525050565b6000612ab5826132b8565b612abf81856132e6565b9350612aca836132a8565b8060005b83811015612afb578151612ae28882612a83565b9750612aed836132d9565b925050600181019050612ace565b5085935050505092915050565b612b11816133f8565b82525050565b6000612b22826132c3565b612b2c81856132f7565b9350612b3c818560208601613469565b612b4581613681565b840191505092915050565b6000612b5b826132ce565b612b658185613308565b9350612b75818560208601613469565b612b7e81613681565b840191505092915050565b6000612b96603483613308565b9150612ba18261369f565b604082019050919050565b6000612bb9602883613308565b9150612bc4826136ee565b604082019050919050565b6000612bdc602b83613308565b9150612be78261373d565b604082019050919050565b6000612bff602683613308565b9150612c0a8261378c565b604082019050919050565b6000612c22601f83613308565b9150612c2d826137db565b602082019050919050565b6000612c45602983613308565b9150612c5082613804565b604082019050919050565b6000612c68602883613308565b9150612c7382613853565b604082019050919050565b6000612c8b602583613308565b9150612c96826138a2565b604082019050919050565b6000612cae603283613308565b9150612cb9826138f1565b604082019050919050565b6000612cd1602a83613308565b9150612cdc82613940565b604082019050919050565b6000612cf4602083613308565b9150612cff8261398f565b602082019050919050565b6000612d17601c83613308565b9150612d22826139b8565b602082019050919050565b6000612d3a602983613308565b9150612d45826139e1565b604082019050919050565b6000612d5d603383613308565b9150612d6882613a30565b604082019050919050565b6000612d80602983613308565b9150612d8b82613a7f565b604082019050919050565b6000612da3602883613308565b9150612dae82613ace565b604082019050919050565b6000612dc6602183613308565b9150612dd182613b1d565b604082019050919050565b612de581613450565b82525050565b612df481613450565b82525050565b6000602082019050612e0f6000830184612a9b565b92915050565b600060a082019050612e2a6000830188612a9b565b612e376020830187612a9b565b8181036040830152612e498186612aaa565b90508181036060830152612e5d8185612aaa565b90508181036080830152612e718184612b17565b90509695505050505050565b600060a082019050612e926000830188612a9b565b612e9f6020830187612a9b565b612eac6040830186612deb565b612eb96060830185612deb565b8181036080830152612ecb8184612b17565b90509695505050505050565b6000604082019050612eec6000830185612a9b565b612ef96020830184612deb565b9392505050565b60006020820190508181036000830152612f1a8184612aaa565b905092915050565b60006040820190508181036000830152612f3c8185612aaa565b90508181036020830152612f508184612aaa565b90509392505050565b6000602082019050612f6e6000830184612b08565b92915050565b60006020820190508181036000830152612f8e8184612b50565b905092915050565b60006020820190508181036000830152612faf81612b89565b9050919050565b60006020820190508181036000830152612fcf81612bac565b9050919050565b60006020820190508181036000830152612fef81612bcf565b9050919050565b6000602082019050818103600083015261300f81612bf2565b9050919050565b6000602082019050818103600083015261302f81612c15565b9050919050565b6000602082019050818103600083015261304f81612c38565b9050919050565b6000602082019050818103600083015261306f81612c5b565b9050919050565b6000602082019050818103600083015261308f81612c7e565b9050919050565b600060208201905081810360008301526130af81612ca1565b9050919050565b600060208201905081810360008301526130cf81612cc4565b9050919050565b600060208201905081810360008301526130ef81612ce7565b9050919050565b6000602082019050818103600083015261310f81612d0a565b9050919050565b6000602082019050818103600083015261312f81612d2d565b9050919050565b6000602082019050818103600083015261314f81612d50565b9050919050565b6000602082019050818103600083015261316f81612d73565b9050919050565b6000602082019050818103600083015261318f81612d96565b9050919050565b600060208201905081810360008301526131af81612db9565b9050919050565b60006020820190506131cb6000830184612deb565b92915050565b60006040820190506131e66000830185612deb565b6131f36020830184612deb565b9392505050565b6000613204613215565b905061321082826134f8565b919050565b6000604051905090565b600067ffffffffffffffff82111561323a57613239613630565b5b602082029050602081019050919050565b600067ffffffffffffffff82111561326657613265613630565b5b602082029050602081019050919050565b600067ffffffffffffffff82111561329257613291613630565b5b61329b82613681565b9050602081019050919050565b6000819050602082019050919050565b600081519050919050565b600081519050919050565b600081519050919050565b6000602082019050919050565b600082825260208201905092915050565b600082825260208201905092915050565b600082825260208201905092915050565b600061332482613450565b915061332f83613450565b9250827fffffffffffffffffffffffffffffffffffffffffffffffffffffffffffffffff03821115613364576133636135a3565b5b828201905092915050565b600061337a82613450565b915061338583613450565b925082613395576133946135d2565b5b828204905092915050565b60006133ab82613450565b91506133b683613450565b9250828210156133c9576133c86135a3565b5b828203905092915050565b60006133df82613430565b9050919050565b60006133f182613430565b9050919050565b60008115159050919050565b60007fffffffff0000000000000000000000000000000000000000000000000000000082169050919050565b600073ffffffffffffffffffffffffffffffffffffffff82169050919050565b6000819050919050565b82818337600083830152505050565b60005b8381101561348757808201518184015260208101905061346c565b83811115613496576000848401525b50505050565b60006134a782613450565b915060008214156134bb576134ba6135a3565b5b600182039050919050565b600060028204905060018216806134de57607f821691505b602082108114156134f2576134f1613601565b5b50919050565b61350182613681565b810181811067ffffffffffffffff821117156135205761351f613630565b5b80604052505050565b600061353482613450565b91507fffffffffffffffffffffffffffffffffffffffffffffffffffffffffffffffff821415613567576135666135a3565b5b600182019050919050565b600061357d82613450565b915061358883613450565b925082613598576135976135d2565b5b828206905092915050565b7f4e487b7100000000000000000000000000000000000000000000000000000000600052601160045260246000fd5b7f4e487b7100000000000000000000000000000000000000000000000000000000600052601260045260246000fd5b7f4e487b7100000000000000000000000000000000000000000000000000000000600052602260045260246000fd5b7f4e487b7100000000000000000000000000000000000000000000000000000000600052604160045260246000fd5b600060033d111561367e5760046000803e61367b600051613692565b90505b90565b6000601f19601f8301169050919050565b60008160e01c9050919050565b7f455243313135353a207472616e7366657220746f206e6f6e204552433131353560008201527f526563656976657220696d706c656d656e746572000000000000000000000000602082015250565b7f455243313135353a204552433131353552656365697665722072656a6563746560008201527f6420746f6b656e73000000000000000000000000000000000000000000000000602082015250565b7f455243313135353a2062616c616e636520717565727920666f7220746865207a60008201527f65726f2061646472657373000000000000000000000000000000000000000000602082015250565b7f4f776e61626c653a206e6577206f776e657220697320746865207a65726f206160008201527f6464726573730000000000000000000000000000000000000000000000000000602082015250565b7f416c6c20746f6b656e732068617665206265656e20676976656e206177617900600082015250565b7f455243313135353a2063616c6c6572206973206e6f74206f776e6572206e6f7260008201527f20617070726f7665640000000000000000000000000000000000000000000000602082015250565b7f4e6f7420656e6f75676820657468657220696e206163636f756e7420746f207460008201527f72616e736163742e000000000000000000000000000000000000000000000000602082015250565b7f455243313135353a207472616e7366657220746f20746865207a65726f20616460008201527f6472657373000000000000000000000000000000000000000000000000000000602082015250565b7f455243313135353a207472616e736665722063616c6c6572206973206e6f742060008201527f6f776e6572206e6f7220617070726f7665640000000000000000000000000000602082015250565b7f455243313135353a20696e73756666696369656e742062616c616e636520666f60008201527f72207472616e7366657200000000000000000000000000000000000000000000602082015250565b7f4f776e61626c653a2063616c6c6572206973206e6f7420746865206f776e6572600082015250565b7f416c6c20426174636865732068617665206265656e206d696e74656400000000600082015250565b7f455243313135353a2073657474696e6720617070726f76616c2073746174757360008201527f20666f722073656c660000000000000000000000000000000000000000000000602082015250565b7f43616e6e6f74207075726368617365206d6f7265207468616e206f6e6520626160008201527f746368206d696e74207065722077616c6c657400000000000000000000000000602082015250565b7f455243313135353a206163636f756e747320616e6420696473206c656e67746860008201527f206d69736d617463680000000000000000000000000000000000000000000000602082015250565b7f455243313135353a2069647320616e6420616d6f756e7473206c656e6774682060008201527f6d69736d61746368000000000000000000000000000000000000000000000000602082015250565b7f455243313135353a206d696e7420746f20746865207a65726f2061646472657360008201527f7300000000000000000000000000000000000000000000000000000000000000602082015250565b600060443d1015613b7c57613bff565b613b84613215565b60043d036004823e80513d602482011167ffffffffffffffff82111715613bac575050613bff565b808201805167ffffffffffffffff811115613bca5750505050613bff565b80602083010160043d038501811115613be7575050505050613bff565b613bf6826020018501866134f8565b82955050505050505b90565b613c0b816133d4565b8114613c1657600080fd5b50565b613c22816133e6565b8114613c2d57600080fd5b50565b613c39816133f8565b8114613c4457600080fd5b50565b613c5081613404565b8114613c5b57600080fd5b50565b613c6781613450565b8114613c7257600080fd5b5056fea2646970667358221220781cad2dfd780fd2ce2f1084bad2f32bb29513ca2abd6e17ce25639a215082ed64736f6c63430008040033",
  "linkReferences": {},
  "deployedLinkReferences": {}
}