{
  "_format": "hh-sol-artifact-1",
  "contractName": "DemoDapp",
  "sourceName": "contracts/DemoDapp.sol",
  "abi": [
    {
      "inputs": [
        {
          "internalType": "string",
          "name": "uri",
          "type": "string"
        }
      ],
      "stateMutability": "nonpayable",
      "type": "constructor"
    },
    {
      "anonymous": false,
      "inputs": [
        {
          "indexed": true,
          "internalType": "address",
          "name": "account",
          "type": "address"
        },
        {
          "indexed": true,
          "internalType": "address",
          "name": "operator",
          "type": "address"
        },
        {
          "indexed": false,
          "internalType": "bool",
          "name": "approved",
          "type": "bool"
        }
      ],
      "name": "ApprovalForAll",
      "type": "event"
    },
    {
      "anonymous": false,
      "inputs": [
        {
          "indexed": false,
          "internalType": "address",
          "name": "_sender",
          "type": "address"
        },
        {
          "indexed": false,
          "internalType": "uint256",
          "name": "_supply",
          "type": "uint256"
        }
      ],
      "name": "IncreaseReceiptSupply",
      "type": "event"
    },
    {
      "anonymous": false,
      "inputs": [
        {
          "indexed": true,
          "internalType": "address",
          "name": "previousOwner",
          "type": "address"
        },
        {
          "indexed": true,
          "internalType": "address",
          "name": "newOwner",
          "type": "address"
        }
      ],
      "name": "OwnershipTransferred",
      "type": "event"
    },
    {
      "anonymous": false,
      "inputs": [
        {
          "indexed": false,
          "internalType": "uint256",
          "name": "_presaleStartTime",
          "type": "uint256"
        },
        {
          "indexed": false,
          "internalType": "uint256",
          "name": "_saleStartTime",
          "type": "uint256"
        }
      ],
      "name": "SaleHasBeenSet",
      "type": "event"
    },
    {
      "anonymous": false,
      "inputs": [
        {
          "indexed": true,
          "internalType": "address",
          "name": "operator",
          "type": "address"
        },
        {
          "indexed": true,
          "internalType": "address",
          "name": "from",
          "type": "address"
        },
        {
          "indexed": true,
          "internalType": "address",
          "name": "to",
          "type": "address"
        },
        {
          "indexed": false,
          "internalType": "uint256[]",
          "name": "ids",
          "type": "uint256[]"
        },
        {
          "indexed": false,
          "internalType": "uint256[]",
          "name": "values",
          "type": "uint256[]"
        }
      ],
      "name": "TransferBatch",
      "type": "event"
    },
    {
      "anonymous": false,
      "inputs": [
        {
          "indexed": true,
          "internalType": "address",
          "name": "operator",
          "type": "address"
        },
        {
          "indexed": true,
          "internalType": "address",
          "name": "from",
          "type": "address"
        },
        {
          "indexed": true,
          "internalType": "address",
          "name": "to",
          "type": "address"
        },
        {
          "indexed": false,
          "internalType": "uint256",
          "name": "id",
          "type": "uint256"
        },
        {
          "indexed": false,
          "internalType": "uint256",
          "name": "value",
          "type": "uint256"
        }
      ],
      "name": "TransferSingle",
      "type": "event"
    },
    {
      "anonymous": false,
      "inputs": [
        {
          "indexed": false,
          "internalType": "string",
          "name": "value",
          "type": "string"
        },
        {
          "indexed": true,
          "internalType": "uint256",
          "name": "id",
          "type": "uint256"
        }
      ],
      "name": "URI",
      "type": "event"
    },
    {
      "inputs": [],
      "name": "activatePreSale",
      "outputs": [],
      "stateMutability": "nonpayable",
      "type": "function"
    },
    {
      "inputs": [],
      "name": "activateSale",
      "outputs": [],
      "stateMutability": "nonpayable",
      "type": "function"
    },
    {
      "inputs": [
        {
          "internalType": "address",
          "name": "account",
          "type": "address"
        },
        {
          "internalType": "uint256",
          "name": "id",
          "type": "uint256"
        }
      ],
      "name": "balanceOf",
      "outputs": [
        {
          "internalType": "uint256",
          "name": "",
          "type": "uint256"
        }
      ],
      "stateMutability": "view",
      "type": "function"
    },
    {
      "inputs": [
        {
          "internalType": "address[]",
          "name": "accounts",
          "type": "address[]"
        },
        {
          "internalType": "uint256[]",
          "name": "ids",
          "type": "uint256[]"
        }
      ],
      "name": "balanceOfBatch",
      "outputs": [
        {
          "internalType": "uint256[]",
          "name": "",
          "type": "uint256[]"
        }
      ],
      "stateMutability": "view",
      "type": "function"
    },
    {
      "inputs": [
        {
          "internalType": "uint256",
          "name": "_fruitTokenId",
          "type": "uint256"
        },
        {
          "internalType": "uint256",
          "name": "_fourInOneTokenId",
          "type": "uint256"
        },
        {
          "internalType": "uint256",
          "name": "_quadrant",
          "type": "uint256"
        }
      ],
      "name": "cuteeExchange",
      "outputs": [],
      "stateMutability": "nonpayable",
      "type": "function"
    },
    {
      "inputs": [],
      "name": "getBalance",
      "outputs": [
        {
          "internalType": "uint256",
          "name": "",
          "type": "uint256"
        }
      ],
      "stateMutability": "view",
      "type": "function"
    },
    {
      "inputs": [],
      "name": "getBlockTime",
      "outputs": [
        {
          "internalType": "string",
          "name": "",
          "type": "string"
        }
      ],
      "stateMutability": "view",
      "type": "function"
    },
    {
      "inputs": [],
      "name": "getBundleBalance",
      "outputs": [
        {
          "internalType": "uint256",
          "name": "",
          "type": "uint256"
        }
      ],
      "stateMutability": "view",
      "type": "function"
    },
    {
      "inputs": [],
      "name": "getBundleSupply",
      "outputs": [
        {
          "internalType": "uint256",
          "name": "",
          "type": "uint256"
        }
      ],
      "stateMutability": "view",
      "type": "function"
    },
    {
      "inputs": [],
      "name": "getReceiptSupply",
      "outputs": [
        {
          "internalType": "uint256",
          "name": "",
          "type": "uint256"
        }
      ],
      "stateMutability": "view",
      "type": "function"
    },
    {
      "inputs": [
        {
          "internalType": "address",
          "name": "_address",
          "type": "address"
        }
      ],
      "name": "getVIF",
      "outputs": [
        {
          "internalType": "uint256",
          "name": "",
          "type": "uint256"
        }
      ],
      "stateMutability": "view",
      "type": "function"
    },
    {
      "inputs": [],
      "name": "getVIFLeft",
      "outputs": [
        {
          "internalType": "uint256",
          "name": "",
          "type": "uint256"
        }
      ],
      "stateMutability": "view",
      "type": "function"
    },
    {
      "inputs": [
        {
          "internalType": "address[]",
          "name": "_to",
          "type": "address[]"
        }
      ],
      "name": "giveawayMintBatch",
      "outputs": [],
      "stateMutability": "nonpayable",
      "type": "function"
    },
    {
      "inputs": [
        {
          "internalType": "uint256",
          "name": "_supply",
          "type": "uint256"
        }
      ],
      "name": "increaseReceiptSupply",
      "outputs": [],
      "stateMutability": "nonpayable",
      "type": "function"
    },
    {
      "inputs": [
        {
          "internalType": "address",
          "name": "account",
          "type": "address"
        },
        {
          "internalType": "address",
          "name": "operator",
          "type": "address"
        }
      ],
      "name": "isApprovedForAll",
      "outputs": [
        {
          "internalType": "bool",
          "name": "",
          "type": "bool"
        }
      ],
      "stateMutability": "view",
      "type": "function"
    },
    {
      "inputs": [],
      "name": "mintBundle",
      "outputs": [],
      "stateMutability": "payable",
      "type": "function"
    },
    {
      "inputs": [],
      "name": "owner",
      "outputs": [
        {
          "internalType": "address",
          "name": "",
          "type": "address"
        }
      ],
      "stateMutability": "view",
      "type": "function"
    },
    {
      "inputs": [],
      "name": "renounceOwnership",
      "outputs": [],
      "stateMutability": "nonpayable",
      "type": "function"
    },
    {
      "inputs": [
        {
          "internalType": "uint256",
          "name": "_VIFCount",
          "type": "uint256"
        }
      ],
      "name": "resetVIF",
      "outputs": [],
      "stateMutability": "nonpayable",
      "type": "function"
    },
    {
      "inputs": [
        {
          "internalType": "address",
          "name": "from",
          "type": "address"
        },
        {
          "internalType": "address",
          "name": "to",
          "type": "address"
        },
        {
          "internalType": "uint256[]",
          "name": "ids",
          "type": "uint256[]"
        },
        {
          "internalType": "uint256[]",
          "name": "amounts",
          "type": "uint256[]"
        },
        {
          "internalType": "bytes",
          "name": "data",
          "type": "bytes"
        }
      ],
      "name": "safeBatchTransferFrom",
      "outputs": [],
      "stateMutability": "nonpayable",
      "type": "function"
    },
    {
      "inputs": [
        {
          "internalType": "address",
          "name": "from",
          "type": "address"
        },
        {
          "internalType": "address",
          "name": "to",
          "type": "address"
        },
        {
          "internalType": "uint256",
          "name": "id",
          "type": "uint256"
        },
        {
          "internalType": "uint256",
          "name": "amount",
          "type": "uint256"
        },
        {
          "internalType": "bytes",
          "name": "data",
          "type": "bytes"
        }
      ],
      "name": "safeTransferFrom",
      "outputs": [],
      "stateMutability": "nonpayable",
      "type": "function"
    },
    {
      "inputs": [
        {
          "internalType": "address",
          "name": "operator",
          "type": "address"
        },
        {
          "internalType": "bool",
          "name": "approved",
          "type": "bool"
        }
      ],
      "name": "setApprovalForAll",
      "outputs": [],
      "stateMutability": "nonpayable",
      "type": "function"
    },
    {
      "inputs": [
        {
          "internalType": "uint256",
          "name": "_presaleStartTime",
          "type": "uint256"
        },
        {
          "internalType": "uint256",
          "name": "_timeBetweenSales",
          "type": "uint256"
        }
      ],
      "name": "setPresaleStartTime",
      "outputs": [],
      "stateMutability": "nonpayable",
      "type": "function"
    },
    {
      "inputs": [
        {
          "internalType": "uint256",
          "name": "_gwei",
          "type": "uint256"
        }
      ],
      "name": "setPricePerBundle",
      "outputs": [],
      "stateMutability": "nonpayable",
      "type": "function"
    },
    {
      "inputs": [
        {
          "internalType": "address[]",
          "name": "_vifs",
          "type": "address[]"
        }
      ],
      "name": "setVIF",
      "outputs": [],
      "stateMutability": "nonpayable",
      "type": "function"
    },
    {
      "inputs": [
        {
          "internalType": "bytes4",
          "name": "interfaceId",
          "type": "bytes4"
        }
      ],
      "name": "supportsInterface",
      "outputs": [
        {
          "internalType": "bool",
          "name": "",
          "type": "bool"
        }
      ],
      "stateMutability": "view",
      "type": "function"
    },
    {
      "inputs": [
        {
          "internalType": "address",
          "name": "newOwner",
          "type": "address"
        }
      ],
      "name": "transferOwnership",
      "outputs": [],
      "stateMutability": "nonpayable",
      "type": "function"
    },
    {
      "inputs": [
        {
          "internalType": "uint256",
          "name": "",
          "type": "uint256"
        }
      ],
      "name": "uri",
      "outputs": [
        {
          "internalType": "string",
          "name": "",
          "type": "string"
        }
      ],
      "stateMutability": "view",
      "type": "function"
    },
    {
      "inputs": [],
      "name": "withdrawBalance",
      "outputs": [],
      "stateMutability": "nonpayable",
      "type": "function"
    }
  ],
  "bytecode": "0x60806040526101f4600655610bb86007556001600855620186a160095560fa600a556102ee600b556000600e60006101000a81548160ff0219169083151502179055506000600e60016101000a81548160ff02191690831515021790555067016345785d8a00006011553480156200007657600080fd5b50604051620060643803806200606483398181016040528101906200009c9190620002e2565b80620000ae81620000d660201b60201c565b50620000cf620000c3620000f260201b60201c565b620000fa60201b60201c565b5062000497565b8060029080519060200190620000ee929190620001c0565b5050565b600033905090565b6000600360009054906101000a900473ffffffffffffffffffffffffffffffffffffffff16905081600360006101000a81548173ffffffffffffffffffffffffffffffffffffffff021916908373ffffffffffffffffffffffffffffffffffffffff1602179055508173ffffffffffffffffffffffffffffffffffffffff168173ffffffffffffffffffffffffffffffffffffffff167f8be0079c531659141344cd1fd0a4f28419497f9722a3daafe3b4186f6b6457e060405160405180910390a35050565b828054620001ce90620003bc565b90600052602060002090601f016020900481019282620001f257600085556200023e565b82601f106200020d57805160ff19168380011785556200023e565b828001600101855582156200023e579182015b828111156200023d57825182559160200191906001019062000220565b5b5090506200024d919062000251565b5090565b5b808211156200026c57600081600090555060010162000252565b5090565b600062000287620002818462000350565b62000327565b905082815260208101848484011115620002a057600080fd5b620002ad84828562000386565b509392505050565b600082601f830112620002c757600080fd5b8151620002d984826020860162000270565b91505092915050565b600060208284031215620002f557600080fd5b600082015167ffffffffffffffff8111156200031057600080fd5b6200031e84828501620002b5565b91505092915050565b60006200033362000346565b9050620003418282620003f2565b919050565b6000604051905090565b600067ffffffffffffffff8211156200036e576200036d62000457565b5b620003798262000486565b9050602081019050919050565b60005b83811015620003a657808201518184015260208101905062000389565b83811115620003b6576000848401525b50505050565b60006002820490506001821680620003d557607f821691505b60208210811415620003ec57620003eb62000428565b5b50919050565b620003fd8262000486565b810181811067ffffffffffffffff821117156200041f576200041e62000457565b5b80604052505050565b7f4e487b7100000000000000000000000000000000000000000000000000000000600052602260045260246000fd5b7f4e487b7100000000000000000000000000000000000000000000000000000000600052604160045260246000fd5b6000601f19601f8301169050919050565b615bbd80620004a76000396000f3fe6080604052600436106101c15760003560e01c806376937cef116100f75780639b14960811610095578063cec2e73311610064578063cec2e733146105d2578063e985e9c5146105fb578063f242432a14610638578063f2fde38b14610661576101c1565b80639b1496081461053e578063a22cb46514610567578063b08504e914610590578063c721f08d146105bb576101c1565b80638686d795116100d15780638686d7951461049457806387ceff09146104bd5780638da5cb5b146104e85780639171c3da14610513576101c1565b806376937cef146104175780638110b32f1461044257806383fc30671461046b576101c1565b80633bdb7c9e116101645780634e1273f41161013e5780634e1273f4146103815780635f4c5b25146103be5780635fd8c710146103e9578063715018a614610400576101c1565b80633bdb7c9e146103115780633efc52001461034e578063410404b714610377576101c1565b80630e89341c116101a05780630e89341c1461026957806312065fe0146102a65780631307bb00146102d15780632eb2c2d6146102e8576101c1565b8062fdd58e146101c657806301ffc9a7146102035780630948b38a14610240575b600080fd5b3480156101d257600080fd5b506101ed60048036038101906101e89190614362565b61068a565b6040516101fa9190614f11565b60405180910390f35b34801561020f57600080fd5b5061022a60048036038101906102259190614490565b610753565b6040516102379190614b84565b60405180910390f35b34801561024c57600080fd5b506102676004803603810190610262919061450b565b610835565b005b34801561027557600080fd5b50610290600480360381019061028b91906144e2565b6109cc565b60405161029d9190614b9f565b60405180910390f35b3480156102b257600080fd5b506102bb610a60565b6040516102c89190614f11565b60405180910390f35b3480156102dd57600080fd5b506102e6610ae4565b005b3480156102f457600080fd5b5061030f600480360381019061030a91906141d8565b610b8c565b005b34801561031d57600080fd5b5061033860048036038101906103339190614173565b610c2d565b6040516103459190614f11565b60405180910390f35b34801561035a57600080fd5b50610375600480360381019061037091906144e2565b610cf2565b005b61037f610d78565b005b34801561038d57600080fd5b506103a860048036038101906103a39190614424565b6115bc565b6040516103b59190614b2b565b60405180910390f35b3480156103ca57600080fd5b506103d361176d565b6040516103e09190614f11565b60405180910390f35b3480156103f557600080fd5b506103fe611777565b005b34801561040c57600080fd5b5061041561187f565b005b34801561042357600080fd5b5061042c611907565b6040516104399190614f11565b60405180910390f35b34801561044e57600080fd5b5061046960048036038101906104649190614547565b611911565b005b34801561047757600080fd5b50610492600480360381019061048d91906144e2565b611e42565b005b3480156104a057600080fd5b506104bb60048036038101906104b691906144e2565b611f0e565b005b3480156104c957600080fd5b506104d261206f565b6040516104df9190614b9f565b60405180910390f35b3480156104f457600080fd5b506104fd612085565b60405161050a9190614a25565b60405180910390f35b34801561051f57600080fd5b506105286120af565b6040516105359190614f11565b60405180910390f35b34801561054a57600080fd5b50610565600480360381019061056091906143e3565b612135565b005b34801561057357600080fd5b5061058e60048036038101906105899190614326565b612357565b005b34801561059c57600080fd5b506105a561236d565b6040516105b29190614f11565b60405180910390f35b3480156105c757600080fd5b506105d06123b4565b005b3480156105de57600080fd5b506105f960048036038101906105f4919061439e565b61245c565b005b34801561060757600080fd5b50610622600480360381019061061d919061419c565b612a9f565b60405161062f9190614b84565b60405180910390f35b34801561064457600080fd5b5061065f600480360381019061065a9190614297565b612b33565b005b34801561066d57600080fd5b5061068860048036038101906106839190614173565b612bd4565b005b60008073ffffffffffffffffffffffffffffffffffffffff168373ffffffffffffffffffffffffffffffffffffffff1614156106fb576040517f08c379a00000000000000000000000000000000000000000000000000000000081526004016106f290614c51565b60405180910390fd5b60008083815260200190815260200160002060008473ffffffffffffffffffffffffffffffffffffffff1673ffffffffffffffffffffffffffffffffffffffff16815260200190815260200160002054905092915050565b60007fd9b67a26000000000000000000000000000000000000000000000000000000007bffffffffffffffffffffffffffffffffffffffffffffffffffffffff1916827bffffffffffffffffffffffffffffffffffffffffffffffffffffffff1916148061081e57507f0e89341c000000000000000000000000000000000000000000000000000000007bffffffffffffffffffffffffffffffffffffffffffffffffffffffff1916827bffffffffffffffffffffffffffffffffffffffffffffffffffffffff1916145b8061082e575061082d82612ccc565b5b9050919050565b61083d612d36565b73ffffffffffffffffffffffffffffffffffffffff1661085b612085565b73ffffffffffffffffffffffffffffffffffffffff16146108b1576040517f08c379a00000000000000000000000000000000000000000000000000000000081526004016108a890614db1565b60405180910390fd5b81600f8190555080826108c49190615074565b6010819055506109096040518060400160405280601381526020017f54696d65206265747765656e2073616c6573200000000000000000000000000081525082612d3e565b61094a6040518060400160405280601d81526020017f536f6c69646974792050726573616c652053746172742054696d653a20000000815250600f54612d3e565b61098b6040518060400160405280601a81526020017f536f6c69646974792053616c652053746172742054696d653a20000000000000815250601054612d3e565b7f88c7c5a177be8b426acec3417df4c4882059c60453b8e02e6c8d16998919e73e600f546010546040516109c0929190614f2c565b60405180910390a15050565b6060600280546109db9061520f565b80601f0160208091040260200160405190810160405280929190818152602001828054610a079061520f565b8015610a545780601f10610a2957610100808354040283529160200191610a54565b820191906000526020600020905b815481529060010190602001808311610a3757829003601f168201915b50505050509050919050565b6000610a6a612d36565b73ffffffffffffffffffffffffffffffffffffffff16610a88612085565b73ffffffffffffffffffffffffffffffffffffffff1614610ade576040517f08c379a0000000000000000000000000000000000000000000000000000000008152600401610ad590614db1565b60405180910390fd5b47905090565b610aec612d36565b73ffffffffffffffffffffffffffffffffffffffff16610b0a612085565b73ffffffffffffffffffffffffffffffffffffffff1614610b60576040517f08c379a0000000000000000000000000000000000000000000000000000000008152600401610b5790614db1565b60405180910390fd5b600e60019054906101000a900460ff1615600e60016101000a81548160ff021916908315150217905550565b610b94612d36565b73ffffffffffffffffffffffffffffffffffffffff168573ffffffffffffffffffffffffffffffffffffffff161480610bda5750610bd985610bd4612d36565b612a9f565b5b610c19576040517f08c379a0000000000000000000000000000000000000000000000000000000008152600401610c1090614d31565b60405180910390fd5b610c268585858585612dda565b5050505050565b6000610c37612d36565b73ffffffffffffffffffffffffffffffffffffffff16610c55612085565b73ffffffffffffffffffffffffffffffffffffffff1614610cab576040517f08c379a0000000000000000000000000000000000000000000000000000000008152600401610ca290614db1565b60405180910390fd5b600460008373ffffffffffffffffffffffffffffffffffffffff1673ffffffffffffffffffffffffffffffffffffffff168152602001908152602001600020549050919050565b610cfa612d36565b73ffffffffffffffffffffffffffffffffffffffff16610d18612085565b73ffffffffffffffffffffffffffffffffffffffff1614610d6e576040517f08c379a0000000000000000000000000000000000000000000000000000000008152600401610d6590614db1565b60405180910390fd5b8060118190555050565b610db76040518060400160405280601481526020017f496e7369646520697353616c654163746976652000000000000000000000000081525042612d3e565b610df86040518060400160405280601281526020017f70726573616c652053746172742054696d650000000000000000000000000000815250600f54612d3e565b600f544211610e3c576040517f08c379a0000000000000000000000000000000000000000000000000000000008152600401610e3390614c31565b60405180910390fd5b600f5442118015610e4e575060105442105b15610ed6576000600460003373ffffffffffffffffffffffffffffffffffffffff1673ffffffffffffffffffffffffffffffffffffffff1681526020019081526020016000205411610ed5576040517f08c379a0000000000000000000000000000000000000000000000000000000008152600401610ecc90614dd1565b60405180910390fd5b5b67016345785d8a0000341015610f21576040517f08c379a0000000000000000000000000000000000000000000000000000000008152600401610f1890614ef1565b60405180910390fd5b6000600c60003373ffffffffffffffffffffffffffffffffffffffff1673ffffffffffffffffffffffffffffffffffffffff1681526020019081526020016000205414610fa3576040517f08c379a0000000000000000000000000000000000000000000000000000000008152600401610f9a90614e51565b60405180910390fd5b6000600b5411610fe8576040517f08c379a0000000000000000000000000000000000000000000000000000000008152600401610fdf90614df1565b60405180910390fd5b3273ffffffffffffffffffffffffffffffffffffffff163373ffffffffffffffffffffffffffffffffffffffff1614611056576040517f08c379a000000000000000000000000000000000000000000000000000000000815260040161104d90614cf1565b60405180910390fd5b6000600667ffffffffffffffff811115611099577f4e487b7100000000000000000000000000000000000000000000000000000000600052604160045260246000fd5b6040519080825280602002602001820160405280156110c75781602001602082028036833780820191505090505b5090506000600667ffffffffffffffff81111561110d577f4e487b7100000000000000000000000000000000000000000000000000000000600052604160045260246000fd5b60405190808252806020026020018201604052801561113b5781602001602082028036833780820191505090505b50905060018260008151811061117a577f4e487b7100000000000000000000000000000000000000000000000000000000600052603260045260246000fd5b6020026020010181815250506001826001815181106111c2577f4e487b7100000000000000000000000000000000000000000000000000000000600052603260045260246000fd5b60200260200101818152505060018260028151811061120a577f4e487b7100000000000000000000000000000000000000000000000000000000600052603260045260246000fd5b602002602001018181525050600182600381518110611252577f4e487b7100000000000000000000000000000000000000000000000000000000600052603260045260246000fd5b60200260200101818152505060018260048151811061129a577f4e487b7100000000000000000000000000000000000000000000000000000000600052603260045260246000fd5b6020026020010181815250506003826005815181106112e2577f4e487b7100000000000000000000000000000000000000000000000000000000600052603260045260246000fd5b6020026020010181815250506008548160008151811061132b577f4e487b7100000000000000000000000000000000000000000000000000000000600052603260045260246000fd5b6020026020010181815250506008600081548092919061134a90615272565b91905055506008548160018151811061138c577f4e487b7100000000000000000000000000000000000000000000000000000000600052603260045260246000fd5b602002602001018181525050600860008154809291906113ab90615272565b9190505550600854816002815181106113ed577f4e487b7100000000000000000000000000000000000000000000000000000000600052603260045260246000fd5b6020026020010181815250506008600081548092919061140c90615272565b91905055506008548160038151811061144e577f4e487b7100000000000000000000000000000000000000000000000000000000600052603260045260246000fd5b6020026020010181815250506008600081548092919061146d90615272565b9190505550600954816004815181106114af577f4e487b7100000000000000000000000000000000000000000000000000000000600052603260045260246000fd5b602002602001018181525050600960008154809291906114ce90615272565b919050555060008160058151811061150f577f4e487b7100000000000000000000000000000000000000000000000000000000600052603260045260246000fd5b602002602001018181525050600c60003373ffffffffffffffffffffffffffffffffffffffff1673ffffffffffffffffffffffffffffffffffffffff168152602001908152602001600020600081548092919061156b90615272565b919050555061158b3382846040518060200160405280600081525061313a565b600360075461159a91906150fb565b600781905550600b60008154809291906115b3906151e5565b91905055505050565b60608151835114611602576040517f08c379a00000000000000000000000000000000000000000000000000000000081526004016115f990614e71565b60405180910390fd5b6000835167ffffffffffffffff811115611645577f4e487b7100000000000000000000000000000000000000000000000000000000600052604160045260246000fd5b6040519080825280602002602001820160405280156116735781602001602082028036833780820191505090505b50905060005b84518110156117625761170c8582815181106116be577f4e487b7100000000000000000000000000000000000000000000000000000000600052603260045260246000fd5b60200260200101518583815181106116ff577f4e487b7100000000000000000000000000000000000000000000000000000000600052603260045260246000fd5b602002602001015161068a565b828281518110611745577f4e487b7100000000000000000000000000000000000000000000000000000000600052603260045260246000fd5b6020026020010181815250508061175b90615272565b9050611679565b508091505092915050565b6000600754905090565b61177f612d36565b73ffffffffffffffffffffffffffffffffffffffff1661179d612085565b73ffffffffffffffffffffffffffffffffffffffff16146117f3576040517f08c379a00000000000000000000000000000000000000000000000000000000081526004016117ea90614db1565b60405180910390fd5b60004711611836576040517f08c379a000000000000000000000000000000000000000000000000000000000815260040161182d90614e11565b60405180910390fd5b3373ffffffffffffffffffffffffffffffffffffffff166108fc479081150290604051600060405180830381858888f1935050505015801561187c573d6000803e3d6000fd5b50565b611887612d36565b73ffffffffffffffffffffffffffffffffffffffff166118a5612085565b73ffffffffffffffffffffffffffffffffffffffff16146118fb576040517f08c379a00000000000000000000000000000000000000000000000000000000081526004016118f290614db1565b60405180910390fd5b61190560006133a4565b565b6000600b54905090565b6000600367ffffffffffffffff811115611954577f4e487b7100000000000000000000000000000000000000000000000000000000600052604160045260246000fd5b6040519080825280602002602001820160405280156119825781602001602082028036833780820191505090505b5090506000600367ffffffffffffffff8111156119c8577f4e487b7100000000000000000000000000000000000000000000000000000000600052604160045260246000fd5b6040519080825280602002602001820160405280156119f65781602001602082028036833780820191505090505b5090506000600367ffffffffffffffff811115611a3c577f4e487b7100000000000000000000000000000000000000000000000000000000600052604160045260246000fd5b604051908082528060200260200182016040528015611a6a5781602001602082028036833780820191505090505b5090503383600081518110611aa8577f4e487b7100000000000000000000000000000000000000000000000000000000600052603260045260246000fd5b602002602001019073ffffffffffffffffffffffffffffffffffffffff16908173ffffffffffffffffffffffffffffffffffffffff16815250503383600181518110611b1d577f4e487b7100000000000000000000000000000000000000000000000000000000600052603260045260246000fd5b602002602001019073ffffffffffffffffffffffffffffffffffffffff16908173ffffffffffffffffffffffffffffffffffffffff16815250503383600281518110611b92577f4e487b7100000000000000000000000000000000000000000000000000000000600052603260045260246000fd5b602002602001019073ffffffffffffffffffffffffffffffffffffffff16908173ffffffffffffffffffffffffffffffffffffffff16815250508582600081518110611c07577f4e487b7100000000000000000000000000000000000000000000000000000000600052603260045260246000fd5b6020026020010181815250508482600181518110611c4e577f4e487b7100000000000000000000000000000000000000000000000000000000600052603260045260246000fd5b602002602001018181525050600082600281518110611c96577f4e487b7100000000000000000000000000000000000000000000000000000000600052603260045260246000fd5b602002602001018181525050611cac83836115bc565b9050600081600081518110611cea577f4e487b7100000000000000000000000000000000000000000000000000000000600052603260045260246000fd5b602002602001015111611d32576040517f08c379a0000000000000000000000000000000000000000000000000000000008152600401611d2990614d71565b60405180910390fd5b600081600181518110611d6e577f4e487b7100000000000000000000000000000000000000000000000000000000600052603260045260246000fd5b602002602001015111611db6576040517f08c379a0000000000000000000000000000000000000000000000000000000008152600401611dad90614d51565b60405180910390fd5b600081600281518110611df2577f4e487b7100000000000000000000000000000000000000000000000000000000600052603260045260246000fd5b602002602001015111611e3a576040517f08c379a0000000000000000000000000000000000000000000000000000000008152600401611e3190614ed1565b60405180910390fd5b505050505050565b611e4a612d36565b73ffffffffffffffffffffffffffffffffffffffff16611e68612085565b73ffffffffffffffffffffffffffffffffffffffff1614611ebe576040517f08c379a0000000000000000000000000000000000000000000000000000000008152600401611eb590614db1565b60405180910390fd5b80600754611ecc9190615074565b6007819055507fe3d47dee33b959cc59941f840525125123544e1f194b235f340f0c6147697ac33382604051611f03929190614b02565b60405180910390a150565b611f16612d36565b73ffffffffffffffffffffffffffffffffffffffff16611f34612085565b73ffffffffffffffffffffffffffffffffffffffff1614611f8a576040517f08c379a0000000000000000000000000000000000000000000000000000000008152600401611f8190614db1565b60405180910390fd5b60005b6005805490508110156120565760006004600060058481548110611fda577f4e487b7100000000000000000000000000000000000000000000000000000000600052603260045260246000fd5b9060005260206000200160009054906101000a900473ffffffffffffffffffffffffffffffffffffffff1673ffffffffffffffffffffffffffffffffffffffff1673ffffffffffffffffffffffffffffffffffffffff16815260200190815260200160002081905550808061204e90615272565b915050611f8d565b50600560006120659190613eee565b8060068190555050565b6060600061207c4261346a565b90508091505090565b6000600360009054906101000a900473ffffffffffffffffffffffffffffffffffffffff16905090565b60006120b9612d36565b73ffffffffffffffffffffffffffffffffffffffff166120d7612085565b73ffffffffffffffffffffffffffffffffffffffff161461212d576040517f08c379a000000000000000000000000000000000000000000000000000000000815260040161212490614db1565b60405180910390fd5b600654905090565b61213d612d36565b73ffffffffffffffffffffffffffffffffffffffff1661215b612085565b73ffffffffffffffffffffffffffffffffffffffff16146121b1576040517f08c379a00000000000000000000000000000000000000000000000000000000081526004016121a890614db1565b60405180910390fd5b805160065410156121f7576040517f08c379a00000000000000000000000000000000000000000000000000000000081526004016121ee90614c91565b60405180910390fd5b60005b815181101561233e57600160046000848481518110612242577f4e487b7100000000000000000000000000000000000000000000000000000000600052603260045260246000fd5b602002602001015173ffffffffffffffffffffffffffffffffffffffff1673ffffffffffffffffffffffffffffffffffffffff1681526020019081526020016000208190555060058282815181106122c3577f4e487b7100000000000000000000000000000000000000000000000000000000600052603260045260246000fd5b60200260200101519080600181540180825580915050600190039060005260206000200160009091909190916101000a81548173ffffffffffffffffffffffffffffffffffffffff021916908373ffffffffffffffffffffffffffffffffffffffff160217905550808061233690615272565b9150506121fa565b50805160065461234e91906150fb565b60068190555050565b612369612362612d36565b8383613617565b5050565b6000600c60003373ffffffffffffffffffffffffffffffffffffffff1673ffffffffffffffffffffffffffffffffffffffff16815260200190815260200160002054905090565b6123bc612d36565b73ffffffffffffffffffffffffffffffffffffffff166123da612085565b73ffffffffffffffffffffffffffffffffffffffff1614612430576040517f08c379a000000000000000000000000000000000000000000000000000000000815260040161242790614db1565b60405180910390fd5b600e60009054906101000a900460ff1615600e60006101000a81548160ff021916908315150217905550565b612464612d36565b73ffffffffffffffffffffffffffffffffffffffff16612482612085565b73ffffffffffffffffffffffffffffffffffffffff16146124d8576040517f08c379a00000000000000000000000000000000000000000000000000000000081526004016124cf90614db1565b60405180910390fd5b6000600a541161251d576040517f08c379a000000000000000000000000000000000000000000000000000000000815260040161251490614cd1565b60405180910390fd5b6000600667ffffffffffffffff811115612560577f4e487b7100000000000000000000000000000000000000000000000000000000600052604160045260246000fd5b60405190808252806020026020018201604052801561258e5781602001602082028036833780820191505090505b5090506001816000815181106125cd577f4e487b7100000000000000000000000000000000000000000000000000000000600052603260045260246000fd5b602002602001018181525050600181600181518110612615577f4e487b7100000000000000000000000000000000000000000000000000000000600052603260045260246000fd5b60200260200101818152505060018160028151811061265d577f4e487b7100000000000000000000000000000000000000000000000000000000600052603260045260246000fd5b6020026020010181815250506001816003815181106126a5577f4e487b7100000000000000000000000000000000000000000000000000000000600052603260045260246000fd5b6020026020010181815250506001816004815181106126ed577f4e487b7100000000000000000000000000000000000000000000000000000000600052603260045260246000fd5b602002602001018181525050600381600581518110612735577f4e487b7100000000000000000000000000000000000000000000000000000000600052603260045260246000fd5b6020026020010181815250506000600667ffffffffffffffff811115612784577f4e487b7100000000000000000000000000000000000000000000000000000000600052604160045260246000fd5b6040519080825280602002602001820160405280156127b25781602001602082028036833780820191505090505b50905060005b84849050811015612a985760085482600081518110612800577f4e487b7100000000000000000000000000000000000000000000000000000000600052603260045260246000fd5b6020026020010181815250506008600081548092919061281f90615272565b919050555060085482600181518110612861577f4e487b7100000000000000000000000000000000000000000000000000000000600052603260045260246000fd5b6020026020010181815250506008600081548092919061288090615272565b9190505550600854826002815181106128c2577f4e487b7100000000000000000000000000000000000000000000000000000000600052603260045260246000fd5b602002602001018181525050600860008154809291906128e190615272565b919050555060085482600381518110612923577f4e487b7100000000000000000000000000000000000000000000000000000000600052603260045260246000fd5b6020026020010181815250506008600081548092919061294290615272565b919050555060095482600481518110612984577f4e487b7100000000000000000000000000000000000000000000000000000000600052603260045260246000fd5b602002602001018181525050600960008154809291906129a390615272565b91905055506000826005815181106129e4577f4e487b7100000000000000000000000000000000000000000000000000000000600052603260045260246000fd5b602002602001018181525050612a58858583818110612a2c577f4e487b7100000000000000000000000000000000000000000000000000000000600052603260045260246000fd5b9050602002016020810190612a419190614173565b83856040518060200160405280600081525061313a565b6003600754612a6791906150fb565b600781905550600a6000815480929190612a80906151e5565b91905055508080612a9090615272565b9150506127b8565b5050505050565b6000600160008473ffffffffffffffffffffffffffffffffffffffff1673ffffffffffffffffffffffffffffffffffffffff16815260200190815260200160002060008373ffffffffffffffffffffffffffffffffffffffff1673ffffffffffffffffffffffffffffffffffffffff16815260200190815260200160002060009054906101000a900460ff16905092915050565b612b3b612d36565b73ffffffffffffffffffffffffffffffffffffffff168573ffffffffffffffffffffffffffffffffffffffff161480612b815750612b8085612b7b612d36565b612a9f565b5b612bc0576040517f08c379a0000000000000000000000000000000000000000000000000000000008152600401612bb790614cb1565b60405180910390fd5b612bcd8585858585613784565b5050505050565b612bdc612d36565b73ffffffffffffffffffffffffffffffffffffffff16612bfa612085565b73ffffffffffffffffffffffffffffffffffffffff1614612c50576040517f08c379a0000000000000000000000000000000000000000000000000000000008152600401612c4790614db1565b60405180910390fd5b600073ffffffffffffffffffffffffffffffffffffffff168173ffffffffffffffffffffffffffffffffffffffff161415612cc0576040517f08c379a0000000000000000000000000000000000000000000000000000000008152600401612cb790614c71565b60405180910390fd5b612cc9816133a4565b50565b60007f01ffc9a7000000000000000000000000000000000000000000000000000000007bffffffffffffffffffffffffffffffffffffffffffffffffffffffff1916827bffffffffffffffffffffffffffffffffffffffffffffffffffffffff1916149050919050565b600033905090565b612dd68282604051602401612d54929190614bc1565b6040516020818303038152906040527f9710a9d0000000000000000000000000000000000000000000000000000000007bffffffffffffffffffffffffffffffffffffffffffffffffffffffff19166020820180517bffffffffffffffffffffffffffffffffffffffffffffffffffffffff8381831617835250505050613a06565b5050565b8151835114612e1e576040517f08c379a0000000000000000000000000000000000000000000000000000000008152600401612e1590614e91565b60405180910390fd5b600073ffffffffffffffffffffffffffffffffffffffff168473ffffffffffffffffffffffffffffffffffffffff161415612e8e576040517f08c379a0000000000000000000000000000000000000000000000000000000008152600401612e8590614d11565b60405180910390fd5b6000612e98612d36565b9050612ea8818787878787613a2f565b60005b84518110156130a5576000858281518110612eef577f4e487b7100000000000000000000000000000000000000000000000000000000600052603260045260246000fd5b602002602001015190506000858381518110612f34577f4e487b7100000000000000000000000000000000000000000000000000000000600052603260045260246000fd5b60200260200101519050600080600084815260200190815260200160002060008b73ffffffffffffffffffffffffffffffffffffffff1673ffffffffffffffffffffffffffffffffffffffff16815260200190815260200160002054905081811015612fd5576040517f08c379a0000000000000000000000000000000000000000000000000000000008152600401612fcc90614d91565b60405180910390fd5b81810360008085815260200190815260200160002060008c73ffffffffffffffffffffffffffffffffffffffff1673ffffffffffffffffffffffffffffffffffffffff168152602001908152602001600020819055508160008085815260200190815260200160002060008b73ffffffffffffffffffffffffffffffffffffffff1673ffffffffffffffffffffffffffffffffffffffff168152602001908152602001600020600082825461308a9190615074565b925050819055505050508061309e90615272565b9050612eab565b508473ffffffffffffffffffffffffffffffffffffffff168673ffffffffffffffffffffffffffffffffffffffff168273ffffffffffffffffffffffffffffffffffffffff167f4a39dc06d4c0dbc64b70af90fd698a233a518aa5d07e595d983b8c0526c8f7fb878760405161311c929190614b4d565b60405180910390a4613132818787878787613a37565b505050505050565b600073ffffffffffffffffffffffffffffffffffffffff168473ffffffffffffffffffffffffffffffffffffffff1614156131aa576040517f08c379a00000000000000000000000000000000000000000000000000000000081526004016131a190614eb1565b60405180910390fd5b81518351146131ee576040517f08c379a00000000000000000000000000000000000000000000000000000000081526004016131e590614e91565b60405180910390fd5b60006131f8612d36565b905061320981600087878787613a2f565b60005b845181101561330e5783818151811061324e577f4e487b7100000000000000000000000000000000000000000000000000000000600052603260045260246000fd5b6020026020010151600080878481518110613292577f4e487b7100000000000000000000000000000000000000000000000000000000600052603260045260246000fd5b6020026020010151815260200190815260200160002060008873ffffffffffffffffffffffffffffffffffffffff1673ffffffffffffffffffffffffffffffffffffffff16815260200190815260200160002060008282546132f49190615074565b92505081905550808061330690615272565b91505061320c565b508473ffffffffffffffffffffffffffffffffffffffff16600073ffffffffffffffffffffffffffffffffffffffff168273ffffffffffffffffffffffffffffffffffffffff167f4a39dc06d4c0dbc64b70af90fd698a233a518aa5d07e595d983b8c0526c8f7fb8787604051613386929190614b4d565b60405180910390a461339d81600087878787613a37565b5050505050565b6000600360009054906101000a900473ffffffffffffffffffffffffffffffffffffffff16905081600360006101000a81548173ffffffffffffffffffffffffffffffffffffffff021916908373ffffffffffffffffffffffffffffffffffffffff1602179055508173ffffffffffffffffffffffffffffffffffffffff168173ffffffffffffffffffffffffffffffffffffffff167f8be0079c531659141344cd1fd0a4f28419497f9722a3daafe3b4186f6b6457e060405160405180910390a35050565b606060008214156134b2576040518060400160405280600181526020017f30000000000000000000000000000000000000000000000000000000000000008152509050613612565b600082905060005b600082146134e45780806134cd90615272565b915050600a826134dd91906150ca565b91506134ba565b60008167ffffffffffffffff811115613526577f4e487b7100000000000000000000000000000000000000000000000000000000600052604160045260246000fd5b6040519080825280601f01601f1916602001820160405280156135585781602001600182028036833780820191505090505b5090505b6000851461360b5760018261357191906150fb565b9150600a8561358091906152bb565b603061358c9190615074565b60f81b8183815181106135c8577f4e487b7100000000000000000000000000000000000000000000000000000000600052603260045260246000fd5b60200101907effffffffffffffffffffffffffffffffffffffffffffffffffffffffffffff1916908160001a905350600a8561360491906150ca565b945061355c565b8093505050505b919050565b8173ffffffffffffffffffffffffffffffffffffffff168373ffffffffffffffffffffffffffffffffffffffff161415613686576040517f08c379a000000000000000000000000000000000000000000000000000000000815260040161367d90614e31565b60405180910390fd5b80600160008573ffffffffffffffffffffffffffffffffffffffff1673ffffffffffffffffffffffffffffffffffffffff16815260200190815260200160002060008473ffffffffffffffffffffffffffffffffffffffff1673ffffffffffffffffffffffffffffffffffffffff16815260200190815260200160002060006101000a81548160ff0219169083151502179055508173ffffffffffffffffffffffffffffffffffffffff168373ffffffffffffffffffffffffffffffffffffffff167f17307eab39ab6107e8899845ad3d59bd9653f200f220920489ca2b5937696c31836040516137779190614b84565b60405180910390a3505050565b600073ffffffffffffffffffffffffffffffffffffffff168473ffffffffffffffffffffffffffffffffffffffff1614156137f4576040517f08c379a00000000000000000000000000000000000000000000000000000000081526004016137eb90614d11565b60405180910390fd5b60006137fe612d36565b905061381e81878761380f88613c1e565b61381888613c1e565b87613a2f565b600080600086815260200190815260200160002060008873ffffffffffffffffffffffffffffffffffffffff1673ffffffffffffffffffffffffffffffffffffffff168152602001908152602001600020549050838110156138b5576040517f08c379a00000000000000000000000000000000000000000000000000000000081526004016138ac90614d91565b60405180910390fd5b83810360008087815260200190815260200160002060008973ffffffffffffffffffffffffffffffffffffffff1673ffffffffffffffffffffffffffffffffffffffff168152602001908152602001600020819055508360008087815260200190815260200160002060008873ffffffffffffffffffffffffffffffffffffffff1673ffffffffffffffffffffffffffffffffffffffff168152602001908152602001600020600082825461396a9190615074565b925050819055508573ffffffffffffffffffffffffffffffffffffffff168773ffffffffffffffffffffffffffffffffffffffff168373ffffffffffffffffffffffffffffffffffffffff167fc3d58168c5ae7397731d063d5bbf3d657854427343f4c083240f7aacaa2d0f6288886040516139e7929190614f2c565b60405180910390a46139fd828888888888613ce4565b50505050505050565b60008151905060006a636f6e736f6c652e6c6f679050602083016000808483855afa5050505050565b505050505050565b613a568473ffffffffffffffffffffffffffffffffffffffff16613ecb565b15613c16578373ffffffffffffffffffffffffffffffffffffffff1663bc197c8187878686866040518663ffffffff1660e01b8152600401613a9c959493929190614a40565b602060405180830381600087803b158015613ab657600080fd5b505af1925050508015613ae757506040513d601f19601f82011682018060405250810190613ae491906144b9565b60015b613b8d57613af36153a8565b806308c379a01415613b505750613b08615a95565b80613b135750613b52565b806040517f08c379a0000000000000000000000000000000000000000000000000000000008152600401613b479190614b9f565b60405180910390fd5b505b6040517f08c379a0000000000000000000000000000000000000000000000000000000008152600401613b8490614bf1565b60405180910390fd5b63bc197c8160e01b7bffffffffffffffffffffffffffffffffffffffffffffffffffffffff1916817bffffffffffffffffffffffffffffffffffffffffffffffffffffffff191614613c14576040517f08c379a0000000000000000000000000000000000000000000000000000000008152600401613c0b90614c11565b60405180910390fd5b505b505050505050565b60606000600167ffffffffffffffff811115613c63577f4e487b7100000000000000000000000000000000000000000000000000000000600052604160045260246000fd5b604051908082528060200260200182016040528015613c915781602001602082028036833780820191505090505b5090508281600081518110613ccf577f4e487b7100000000000000000000000000000000000000000000000000000000600052603260045260246000fd5b60200260200101818152505080915050919050565b613d038473ffffffffffffffffffffffffffffffffffffffff16613ecb565b15613ec3578373ffffffffffffffffffffffffffffffffffffffff1663f23a6e6187878686866040518663ffffffff1660e01b8152600401613d49959493929190614aa8565b602060405180830381600087803b158015613d6357600080fd5b505af1925050508015613d9457506040513d601f19601f82011682018060405250810190613d9191906144b9565b60015b613e3a57613da06153a8565b806308c379a01415613dfd5750613db5615a95565b80613dc05750613dff565b806040517f08c379a0000000000000000000000000000000000000000000000000000000008152600401613df49190614b9f565b60405180910390fd5b505b6040517f08c379a0000000000000000000000000000000000000000000000000000000008152600401613e3190614bf1565b60405180910390fd5b63f23a6e6160e01b7bffffffffffffffffffffffffffffffffffffffffffffffffffffffff1916817bffffffffffffffffffffffffffffffffffffffffffffffffffffffff191614613ec1576040517f08c379a0000000000000000000000000000000000000000000000000000000008152600401613eb890614c11565b60405180910390fd5b505b505050505050565b6000808273ffffffffffffffffffffffffffffffffffffffff163b119050919050565b5080546000825590600052602060002090810190613f0c9190613f0f565b50565b5b80821115613f28576000816000905550600101613f10565b5090565b6000613f3f613f3a84614f7a565b614f55565b90508083825260208201905082856020860282011115613f5e57600080fd5b60005b85811015613f8e5781613f748882614042565b845260208401935060208301925050600181019050613f61565b5050509392505050565b6000613fab613fa684614fa6565b614f55565b90508083825260208201905082856020860282011115613fca57600080fd5b60005b85811015613ffa5781613fe0888261415e565b845260208401935060208301925050600181019050613fcd565b5050509392505050565b600061401761401284614fd2565b614f55565b90508281526020810184848401111561402f57600080fd5b61403a8482856151a3565b509392505050565b60008135905061405181615b2b565b92915050565b60008083601f84011261406957600080fd5b8235905067ffffffffffffffff81111561408257600080fd5b60208301915083602082028301111561409a57600080fd5b9250929050565b600082601f8301126140b257600080fd5b81356140c2848260208601613f2c565b91505092915050565b600082601f8301126140dc57600080fd5b81356140ec848260208601613f98565b91505092915050565b60008135905061410481615b42565b92915050565b60008135905061411981615b59565b92915050565b60008151905061412e81615b59565b92915050565b600082601f83011261414557600080fd5b8135614155848260208601614004565b91505092915050565b60008135905061416d81615b70565b92915050565b60006020828403121561418557600080fd5b600061419384828501614042565b91505092915050565b600080604083850312156141af57600080fd5b60006141bd85828601614042565b92505060206141ce85828601614042565b9150509250929050565b600080600080600060a086880312156141f057600080fd5b60006141fe88828901614042565b955050602061420f88828901614042565b945050604086013567ffffffffffffffff81111561422c57600080fd5b614238888289016140cb565b935050606086013567ffffffffffffffff81111561425557600080fd5b614261888289016140cb565b925050608086013567ffffffffffffffff81111561427e57600080fd5b61428a88828901614134565b9150509295509295909350565b600080600080600060a086880312156142af57600080fd5b60006142bd88828901614042565b95505060206142ce88828901614042565b94505060406142df8882890161415e565b93505060606142f08882890161415e565b925050608086013567ffffffffffffffff81111561430d57600080fd5b61431988828901614134565b9150509295509295909350565b6000806040838503121561433957600080fd5b600061434785828601614042565b9250506020614358858286016140f5565b9150509250929050565b6000806040838503121561437557600080fd5b600061438385828601614042565b92505060206143948582860161415e565b9150509250929050565b600080602083850312156143b157600080fd5b600083013567ffffffffffffffff8111156143cb57600080fd5b6143d785828601614057565b92509250509250929050565b6000602082840312156143f557600080fd5b600082013567ffffffffffffffff81111561440f57600080fd5b61441b848285016140a1565b91505092915050565b6000806040838503121561443757600080fd5b600083013567ffffffffffffffff81111561445157600080fd5b61445d858286016140a1565b925050602083013567ffffffffffffffff81111561447a57600080fd5b614486858286016140cb565b9150509250929050565b6000602082840312156144a257600080fd5b60006144b08482850161410a565b91505092915050565b6000602082840312156144cb57600080fd5b60006144d98482850161411f565b91505092915050565b6000602082840312156144f457600080fd5b60006145028482850161415e565b91505092915050565b6000806040838503121561451e57600080fd5b600061452c8582860161415e565b925050602061453d8582860161415e565b9150509250929050565b60008060006060848603121561455c57600080fd5b600061456a8682870161415e565b935050602061457b8682870161415e565b925050604061458c8682870161415e565b9150509250925092565b60006145a28383614a07565b60208301905092915050565b6145b78161512f565b82525050565b60006145c882615013565b6145d28185615041565b93506145dd83615003565b8060005b8381101561460e5781516145f58882614596565b975061460083615034565b9250506001810190506145e1565b5085935050505092915050565b61462481615141565b82525050565b60006146358261501e565b61463f8185615052565b935061464f8185602086016151b2565b614658816153ca565b840191505092915050565b600061466e82615029565b6146788185615063565b93506146888185602086016151b2565b614691816153ca565b840191505092915050565b60006146a9603483615063565b91506146b4826153e8565b604082019050919050565b60006146cc602883615063565b91506146d782615437565b604082019050919050565b60006146ef601783615063565b91506146fa82615486565b602082019050919050565b6000614712602b83615063565b915061471d826154af565b604082019050919050565b6000614735602683615063565b9150614740826154fe565b604082019050919050565b6000614758601983615063565b91506147638261554d565b602082019050919050565b600061477b602983615063565b915061478682615576565b604082019050919050565b600061479e601183615063565b91506147a9826155c5565b602082019050919050565b60006147c1602583615063565b91506147cc826155ee565b604082019050919050565b60006147e4602583615063565b91506147ef8261563d565b604082019050919050565b6000614807603283615063565b91506148128261568c565b604082019050919050565b600061482a602183615063565b9150614835826156db565b604082019050919050565b600061484d601d83615063565b91506148588261572a565b602082019050919050565b6000614870602a83615063565b915061487b82615753565b604082019050919050565b6000614893602083615063565b915061489e826157a2565b602082019050919050565b60006148b6604083615063565b91506148c1826157cb565b604082019050919050565b60006148d9601c83615063565b91506148e48261581a565b602082019050919050565b60006148fc601483615063565b915061490782615843565b602082019050919050565b600061491f602983615063565b915061492a8261586c565b604082019050919050565b6000614942603383615063565b915061494d826158bb565b604082019050919050565b6000614965602983615063565b91506149708261590a565b604082019050919050565b6000614988602883615063565b915061499382615959565b604082019050919050565b60006149ab602183615063565b91506149b6826159a8565b604082019050919050565b60006149ce602583615063565b91506149d9826159f7565b604082019050919050565b60006149f1602883615063565b91506149fc82615a46565b604082019050919050565b614a1081615199565b82525050565b614a1f81615199565b82525050565b6000602082019050614a3a60008301846145ae565b92915050565b600060a082019050614a5560008301886145ae565b614a6260208301876145ae565b8181036040830152614a7481866145bd565b90508181036060830152614a8881856145bd565b90508181036080830152614a9c818461462a565b90509695505050505050565b600060a082019050614abd60008301886145ae565b614aca60208301876145ae565b614ad76040830186614a16565b614ae46060830185614a16565b8181036080830152614af6818461462a565b90509695505050505050565b6000604082019050614b1760008301856145ae565b614b246020830184614a16565b9392505050565b60006020820190508181036000830152614b4581846145bd565b905092915050565b60006040820190508181036000830152614b6781856145bd565b90508181036020830152614b7b81846145bd565b90509392505050565b6000602082019050614b99600083018461461b565b92915050565b60006020820190508181036000830152614bb98184614663565b905092915050565b60006040820190508181036000830152614bdb8185614663565b9050614bea6020830184614a16565b9392505050565b60006020820190508181036000830152614c0a8161469c565b9050919050565b60006020820190508181036000830152614c2a816146bf565b9050919050565b60006020820190508181036000830152614c4a816146e2565b9050919050565b60006020820190508181036000830152614c6a81614705565b9050919050565b60006020820190508181036000830152614c8a81614728565b9050919050565b60006020820190508181036000830152614caa8161474b565b9050919050565b60006020820190508181036000830152614cca8161476e565b9050919050565b60006020820190508181036000830152614cea81614791565b9050919050565b60006020820190508181036000830152614d0a816147b4565b9050919050565b60006020820190508181036000830152614d2a816147d7565b9050919050565b60006020820190508181036000830152614d4a816147fa565b9050919050565b60006020820190508181036000830152614d6a8161481d565b9050919050565b60006020820190508181036000830152614d8a81614840565b9050919050565b60006020820190508181036000830152614daa81614863565b9050919050565b60006020820190508181036000830152614dca81614886565b9050919050565b60006020820190508181036000830152614dea816148a9565b9050919050565b60006020820190508181036000830152614e0a816148cc565b9050919050565b60006020820190508181036000830152614e2a816148ef565b9050919050565b60006020820190508181036000830152614e4a81614912565b9050919050565b60006020820190508181036000830152614e6a81614935565b9050919050565b60006020820190508181036000830152614e8a81614958565b9050919050565b60006020820190508181036000830152614eaa8161497b565b9050919050565b60006020820190508181036000830152614eca8161499e565b9050919050565b60006020820190508181036000830152614eea816149c1565b9050919050565b60006020820190508181036000830152614f0a816149e4565b9050919050565b6000602082019050614f266000830184614a16565b92915050565b6000604082019050614f416000830185614a16565b614f4e6020830184614a16565b9392505050565b6000614f5f614f70565b9050614f6b8282615241565b919050565b6000604051905090565b600067ffffffffffffffff821115614f9557614f94615379565b5b602082029050602081019050919050565b600067ffffffffffffffff821115614fc157614fc0615379565b5b602082029050602081019050919050565b600067ffffffffffffffff821115614fed57614fec615379565b5b614ff6826153ca565b9050602081019050919050565b6000819050602082019050919050565b600081519050919050565b600081519050919050565b600081519050919050565b6000602082019050919050565b600082825260208201905092915050565b600082825260208201905092915050565b600082825260208201905092915050565b600061507f82615199565b915061508a83615199565b9250827fffffffffffffffffffffffffffffffffffffffffffffffffffffffffffffffff038211156150bf576150be6152ec565b5b828201905092915050565b60006150d582615199565b91506150e083615199565b9250826150f0576150ef61531b565b5b828204905092915050565b600061510682615199565b915061511183615199565b925082821015615124576151236152ec565b5b828203905092915050565b600061513a82615179565b9050919050565b60008115159050919050565b60007fffffffff0000000000000000000000000000000000000000000000000000000082169050919050565b600073ffffffffffffffffffffffffffffffffffffffff82169050919050565b6000819050919050565b82818337600083830152505050565b60005b838110156151d05780820151818401526020810190506151b5565b838111156151df576000848401525b50505050565b60006151f082615199565b91506000821415615204576152036152ec565b5b600182039050919050565b6000600282049050600182168061522757607f821691505b6020821081141561523b5761523a61534a565b5b50919050565b61524a826153ca565b810181811067ffffffffffffffff8211171561526957615268615379565b5b80604052505050565b600061527d82615199565b91507fffffffffffffffffffffffffffffffffffffffffffffffffffffffffffffffff8214156152b0576152af6152ec565b5b600182019050919050565b60006152c682615199565b91506152d183615199565b9250826152e1576152e061531b565b5b828206905092915050565b7f4e487b7100000000000000000000000000000000000000000000000000000000600052601160045260246000fd5b7f4e487b7100000000000000000000000000000000000000000000000000000000600052601260045260246000fd5b7f4e487b7100000000000000000000000000000000000000000000000000000000600052602260045260246000fd5b7f4e487b7100000000000000000000000000000000000000000000000000000000600052604160045260246000fd5b600060033d11156153c75760046000803e6153c46000516153db565b90505b90565b6000601f19601f8301169050919050565b60008160e01c9050919050565b7f455243313135353a207472616e7366657220746f206e6f6e204552433131353560008201527f526563656976657220696d706c656d656e746572000000000000000000000000602082015250565b7f455243313135353a204552433131353552656365697665722072656a6563746560008201527f6420746f6b656e73000000000000000000000000000000000000000000000000602082015250565b7f50726573616c6520686173206e6f742073746172746564000000000000000000600082015250565b7f455243313135353a2062616c616e636520717565727920666f7220746865207a60008201527f65726f2061646472657373000000000000000000000000000000000000000000602082015250565b7f4f776e61626c653a206e6577206f776e657220697320746865207a65726f206160008201527f6464726573730000000000000000000000000000000000000000000000000000602082015250565b7f4e6f7420456e6f756768205649462073706f7473206c65667400000000000000600082015250565b7f455243313135353a2063616c6c6572206973206e6f74206f776e6572206e6f7260008201527f20617070726f7665640000000000000000000000000000000000000000000000602082015250565b7f4f7574206f66204769766561776179732e000000000000000000000000000000600082015250565b7f436f6e74726163742063616c6c732063616e6e6f74206d696e74206f7572207360008201527f7570706c79000000000000000000000000000000000000000000000000000000602082015250565b7f455243313135353a207472616e7366657220746f20746865207a65726f20616460008201527f6472657373000000000000000000000000000000000000000000000000000000602082015250565b7f455243313135353a207472616e736665722063616c6c6572206973206e6f742060008201527f6f776e6572206e6f7220617070726f7665640000000000000000000000000000602082015250565b7f596f7520646f206e6f74206f776e2074686520666f7572496e4f6e65546f6b6560008201527f6e00000000000000000000000000000000000000000000000000000000000000602082015250565b7f596f7520646f206e6f74206f776e20746865206672756974746f6b656e000000600082015250565b7f455243313135353a20696e73756666696369656e742062616c616e636520666f60008201527f72207472616e7366657200000000000000000000000000000000000000000000602082015250565b7f4f776e61626c653a2063616c6c6572206973206e6f7420746865206f776e6572600082015250565b7f50726573616c65206973206163746976652062757420796f752772652061726560008201527f206e6f742061205649462c207761697420666f72207075626c69632073616c65602082015250565b7f416c6c20426174636865732068617665206265656e206d696e74656400000000600082015250565b7f4e6f20657468657220696e20636f6e7472616374000000000000000000000000600082015250565b7f455243313135353a2073657474696e6720617070726f76616c2073746174757360008201527f20666f722073656c660000000000000000000000000000000000000000000000602082015250565b7f43616e6e6f74207075726368617365206d6f7265207468616e206f6e6520626160008201527f746368206d696e74207065722077616c6c657400000000000000000000000000602082015250565b7f455243313135353a206163636f756e747320616e6420696473206c656e67746860008201527f206d69736d617463680000000000000000000000000000000000000000000000602082015250565b7f455243313135353a2069647320616e6420616d6f756e7473206c656e6774682060008201527f6d69736d61746368000000000000000000000000000000000000000000000000602082015250565b7f455243313135353a206d696e7420746f20746865207a65726f2061646472657360008201527f7300000000000000000000000000000000000000000000000000000000000000602082015250565b7f596f7520646f206e6f74206f776e2061207265636569707420666f722065786360008201527f68616e6765000000000000000000000000000000000000000000000000000000602082015250565b7f4e6f7420656e6f756768206574686572207761732073656e7420746f2074726160008201527f6e73616374696f6e000000000000000000000000000000000000000000000000602082015250565b600060443d1015615aa557615b28565b615aad614f70565b60043d036004823e80513d602482011167ffffffffffffffff82111715615ad5575050615b28565b808201805167ffffffffffffffff811115615af35750505050615b28565b80602083010160043d038501811115615b10575050505050615b28565b615b1f82602001850186615241565b82955050505050505b90565b615b348161512f565b8114615b3f57600080fd5b50565b615b4b81615141565b8114615b5657600080fd5b50565b615b628161514d565b8114615b6d57600080fd5b50565b615b7981615199565b8114615b8457600080fd5b5056fea264697066735822122020200a91e26322b841d39bd9687215a37fddd6f91c50fdd783214f8b458bcc1064736f6c63430008040033",
  "linkReferences": {},
  "deployedLinkReferences": {}
}