{
  "_format": "hh-sol-artifact-1",
  "contractName": "DemoOptimized",
  "sourceName": "contracts/DemoOptimized.sol",
  "abi": [
    {
      "inputs": [
        {
          "internalType": "string",
          "name": "uri1",
          "type": "string"
        },
        {
          "internalType": "string",
          "name": "uriPreview1",
          "type": "string"
        }
      ],
      "stateMutability": "nonpayable",
      "type": "constructor"
    },
    {
      "anonymous": false,
      "inputs": [
        {
          "indexed": true,
          "internalType": "address",
          "name": "account",
          "type": "address"
        },
        {
          "indexed": true,
          "internalType": "address",
          "name": "operator",
          "type": "address"
        },
        {
          "indexed": false,
          "internalType": "bool",
          "name": "approved",
          "type": "bool"
        }
      ],
      "name": "ApprovalForAll",
      "type": "event"
    },
    {
      "anonymous": false,
      "inputs": [
        {
          "indexed": false,
          "internalType": "address",
          "name": "_sender",
          "type": "address"
        },
        {
          "indexed": false,
          "internalType": "uint256",
          "name": "_supply",
          "type": "uint256"
        }
      ],
      "name": "IncreaseReceiptSupply",
      "type": "event"
    },
    {
      "anonymous": false,
      "inputs": [
        {
          "indexed": true,
          "internalType": "address",
          "name": "previousOwner",
          "type": "address"
        },
        {
          "indexed": true,
          "internalType": "address",
          "name": "newOwner",
          "type": "address"
        }
      ],
      "name": "OwnershipTransferred",
      "type": "event"
    },
    {
      "anonymous": false,
      "inputs": [
        {
          "indexed": true,
          "internalType": "address",
          "name": "operator",
          "type": "address"
        },
        {
          "indexed": true,
          "internalType": "address",
          "name": "from",
          "type": "address"
        },
        {
          "indexed": true,
          "internalType": "address",
          "name": "to",
          "type": "address"
        },
        {
          "indexed": false,
          "internalType": "uint256[]",
          "name": "ids",
          "type": "uint256[]"
        },
        {
          "indexed": false,
          "internalType": "uint256[]",
          "name": "values",
          "type": "uint256[]"
        }
      ],
      "name": "TransferBatch",
      "type": "event"
    },
    {
      "anonymous": false,
      "inputs": [
        {
          "indexed": true,
          "internalType": "address",
          "name": "operator",
          "type": "address"
        },
        {
          "indexed": true,
          "internalType": "address",
          "name": "from",
          "type": "address"
        },
        {
          "indexed": true,
          "internalType": "address",
          "name": "to",
          "type": "address"
        },
        {
          "indexed": false,
          "internalType": "uint256",
          "name": "id",
          "type": "uint256"
        },
        {
          "indexed": false,
          "internalType": "uint256",
          "name": "value",
          "type": "uint256"
        }
      ],
      "name": "TransferSingle",
      "type": "event"
    },
    {
      "anonymous": false,
      "inputs": [
        {
          "indexed": false,
          "internalType": "string",
          "name": "value",
          "type": "string"
        },
        {
          "indexed": true,
          "internalType": "uint256",
          "name": "id",
          "type": "uint256"
        }
      ],
      "name": "URI",
      "type": "event"
    },
    {
      "inputs": [
        {
          "internalType": "address",
          "name": "account",
          "type": "address"
        },
        {
          "internalType": "uint256",
          "name": "id",
          "type": "uint256"
        }
      ],
      "name": "balanceOf",
      "outputs": [
        {
          "internalType": "uint256",
          "name": "",
          "type": "uint256"
        }
      ],
      "stateMutability": "view",
      "type": "function"
    },
    {
      "inputs": [
        {
          "internalType": "address[]",
          "name": "accounts",
          "type": "address[]"
        },
        {
          "internalType": "uint256[]",
          "name": "ids",
          "type": "uint256[]"
        }
      ],
      "name": "balanceOfBatch",
      "outputs": [
        {
          "internalType": "uint256[]",
          "name": "",
          "type": "uint256[]"
        }
      ],
      "stateMutability": "view",
      "type": "function"
    },
    {
      "inputs": [],
      "name": "bundleTotalSupply",
      "outputs": [
        {
          "internalType": "uint256",
          "name": "",
          "type": "uint256"
        }
      ],
      "stateMutability": "view",
      "type": "function"
    },
    {
      "inputs": [],
      "name": "getBalance",
      "outputs": [
        {
          "internalType": "uint256",
          "name": "",
          "type": "uint256"
        }
      ],
      "stateMutability": "view",
      "type": "function"
    },
    {
      "inputs": [],
      "name": "getMemberCount",
      "outputs": [
        {
          "internalType": "string",
          "name": "",
          "type": "string"
        }
      ],
      "stateMutability": "view",
      "type": "function"
    },
    {
      "inputs": [],
      "name": "getPricePerBundle",
      "outputs": [
        {
          "internalType": "uint256",
          "name": "",
          "type": "uint256"
        }
      ],
      "stateMutability": "view",
      "type": "function"
    },
    {
      "inputs": [
        {
          "internalType": "address",
          "name": "account",
          "type": "address"
        },
        {
          "internalType": "address",
          "name": "operator",
          "type": "address"
        }
      ],
      "name": "isApprovedForAll",
      "outputs": [
        {
          "internalType": "bool",
          "name": "",
          "type": "bool"
        }
      ],
      "stateMutability": "view",
      "type": "function"
    },
    {
      "inputs": [],
      "name": "mintBundle",
      "outputs": [],
      "stateMutability": "payable",
      "type": "function"
    },
    {
      "inputs": [
        {
          "internalType": "address[]",
          "name": "_giveaways",
          "type": "address[]"
        }
      ],
      "name": "mintPass",
      "outputs": [],
      "stateMutability": "nonpayable",
      "type": "function"
    },
    {
      "inputs": [],
      "name": "mintPassGiveaway",
      "outputs": [],
      "stateMutability": "nonpayable",
      "type": "function"
    },
    {
      "inputs": [],
      "name": "owner",
      "outputs": [
        {
          "internalType": "address",
          "name": "",
          "type": "address"
        }
      ],
      "stateMutability": "view",
      "type": "function"
    },
    {
      "inputs": [],
      "name": "receiptTotalSupply",
      "outputs": [
        {
          "internalType": "uint256",
          "name": "",
          "type": "uint256"
        }
      ],
      "stateMutability": "view",
      "type": "function"
    },
    {
      "inputs": [
        {
          "internalType": "address[]",
          "name": "_vifs",
          "type": "address[]"
        }
      ],
      "name": "removeVIFMembers",
      "outputs": [],
      "stateMutability": "nonpayable",
      "type": "function"
    },
    {
      "inputs": [],
      "name": "renounceOwnership",
      "outputs": [],
      "stateMutability": "nonpayable",
      "type": "function"
    },
    {
      "inputs": [],
      "name": "resetPresaleMembers",
      "outputs": [],
      "stateMutability": "nonpayable",
      "type": "function"
    },
    {
      "inputs": [
        {
          "internalType": "address",
          "name": "from",
          "type": "address"
        },
        {
          "internalType": "address",
          "name": "to",
          "type": "address"
        },
        {
          "internalType": "uint256[]",
          "name": "ids",
          "type": "uint256[]"
        },
        {
          "internalType": "uint256[]",
          "name": "amounts",
          "type": "uint256[]"
        },
        {
          "internalType": "bytes",
          "name": "data",
          "type": "bytes"
        }
      ],
      "name": "safeBatchTransferFrom",
      "outputs": [],
      "stateMutability": "nonpayable",
      "type": "function"
    },
    {
      "inputs": [
        {
          "internalType": "address",
          "name": "from",
          "type": "address"
        },
        {
          "internalType": "address",
          "name": "to",
          "type": "address"
        },
        {
          "internalType": "uint256",
          "name": "id",
          "type": "uint256"
        },
        {
          "internalType": "uint256",
          "name": "amount",
          "type": "uint256"
        },
        {
          "internalType": "bytes",
          "name": "data",
          "type": "bytes"
        }
      ],
      "name": "safeTransferFrom",
      "outputs": [],
      "stateMutability": "nonpayable",
      "type": "function"
    },
    {
      "inputs": [
        {
          "internalType": "address",
          "name": "operator",
          "type": "address"
        },
        {
          "internalType": "bool",
          "name": "approved",
          "type": "bool"
        }
      ],
      "name": "setApprovalForAll",
      "outputs": [],
      "stateMutability": "nonpayable",
      "type": "function"
    },
    {
      "inputs": [
        {
          "internalType": "address[]",
          "name": "_fruities",
          "type": "address[]"
        }
      ],
      "name": "setFruityMember",
      "outputs": [],
      "stateMutability": "nonpayable",
      "type": "function"
    },
    {
      "inputs": [
        {
          "internalType": "uint256",
          "name": "_gwei",
          "type": "uint256"
        }
      ],
      "name": "setPricePerBundle",
      "outputs": [],
      "stateMutability": "nonpayable",
      "type": "function"
    },
    {
      "inputs": [
        {
          "internalType": "uint256",
          "name": "_vifSaleStartTime",
          "type": "uint256"
        },
        {
          "internalType": "uint256",
          "name": "_presaleStartTime",
          "type": "uint256"
        },
        {
          "internalType": "uint256",
          "name": "_publicSaleStartTime",
          "type": "uint256"
        }
      ],
      "name": "setSaleTime",
      "outputs": [],
      "stateMutability": "nonpayable",
      "type": "function"
    },
    {
      "inputs": [],
      "name": "setSeason",
      "outputs": [],
      "stateMutability": "nonpayable",
      "type": "function"
    },
    {
      "inputs": [
        {
          "internalType": "address[]",
          "name": "_vifs",
          "type": "address[]"
        }
      ],
      "name": "setVIFMember",
      "outputs": [],
      "stateMutability": "nonpayable",
      "type": "function"
    },
    {
      "inputs": [
        {
          "internalType": "bytes4",
          "name": "interfaceId",
          "type": "bytes4"
        }
      ],
      "name": "supportsInterface",
      "outputs": [
        {
          "internalType": "bool",
          "name": "",
          "type": "bool"
        }
      ],
      "stateMutability": "view",
      "type": "function"
    },
    {
      "inputs": [
        {
          "internalType": "address",
          "name": "newOwner",
          "type": "address"
        }
      ],
      "name": "transferOwnership",
      "outputs": [],
      "stateMutability": "nonpayable",
      "type": "function"
    },
    {
      "inputs": [
        {
          "internalType": "uint256",
          "name": "_tokenId",
          "type": "uint256"
        }
      ],
      "name": "uri",
      "outputs": [
        {
          "internalType": "string",
          "name": "",
          "type": "string"
        }
      ],
      "stateMutability": "view",
      "type": "function"
    },
    {
      "inputs": [],
      "name": "withdrawBalance",
      "outputs": [],
      "stateMutability": "nonpayable",
      "type": "function"
    }
  ],
  "bytecode": "0x60806040526001600455620186a16005556103e8600655610bb860075567016345785d8a000060085560006013553480156200003a57600080fd5b5060405162005ccc38038062005ccc8339818101604052810190620000609190620002d0565b6200008062000074620000aa60201b60201c565b620000b260201b60201c565b60016003819055506200009a82826200017860201b60201c565b60006014819055505050620004b3565b600033905090565b6000600260009054906101000a900473ffffffffffffffffffffffffffffffffffffffff16905081600260006101000a81548173ffffffffffffffffffffffffffffffffffffffff021916908373ffffffffffffffffffffffffffffffffffffffff1602179055508173ffffffffffffffffffffffffffffffffffffffff168173ffffffffffffffffffffffffffffffffffffffff167f8be0079c531659141344cd1fd0a4f28419497f9722a3daafe3b4186f6b6457e060405160405180910390a35050565b81600c908051906020019062000190929190620001ae565b5080600d9080519060200190620001a9929190620001ae565b505050565b828054620001bc90620003d8565b90600052602060002090601f016020900481019282620001e057600085556200022c565b82601f10620001fb57805160ff19168380011785556200022c565b828001600101855582156200022c579182015b828111156200022b5782518255916020019190600101906200020e565b5b5090506200023b91906200023f565b5090565b5b808211156200025a57600081600090555060010162000240565b5090565b6000620002756200026f846200036c565b62000343565b9050828152602081018484840111156200028e57600080fd5b6200029b848285620003a2565b509392505050565b600082601f830112620002b557600080fd5b8151620002c78482602086016200025e565b91505092915050565b60008060408385031215620002e457600080fd5b600083015167ffffffffffffffff811115620002ff57600080fd5b6200030d85828601620002a3565b925050602083015167ffffffffffffffff8111156200032b57600080fd5b6200033985828601620002a3565b9150509250929050565b60006200034f62000362565b90506200035d82826200040e565b919050565b6000604051905090565b600067ffffffffffffffff8211156200038a576200038962000473565b5b6200039582620004a2565b9050602081019050919050565b60005b83811015620003c2578082015181840152602081019050620003a5565b83811115620003d2576000848401525b50505050565b60006002820490506001821680620003f157607f821691505b6020821081141562000408576200040762000444565b5b50919050565b6200041982620004a2565b810181811067ffffffffffffffff821117156200043b576200043a62000473565b5b80604052505050565b7f4e487b7100000000000000000000000000000000000000000000000000000000600052602260045260246000fd5b7f4e487b7100000000000000000000000000000000000000000000000000000000600052604160045260246000fd5b6000601f19601f8301169050919050565b61580980620004c36000396000f3fe60806040526004361061019b5760003560e01c8063650f9e9b116100ec5780639d56c2ea1161008a578063e985e9c511610064578063e985e9c514610544578063f1c04d0814610581578063f242432a14610598578063f2fde38b146105c15761019b565b80639d56c2ea146104c9578063a22cb465146104f2578063d40999c81461051b5761019b565b80637b1b1bb0116100c65780637b1b1bb01461041d5780638623511b146104485780638da5cb5b14610473578063997072f71461049e5761019b565b8063650f9e9b146103b25780637138e4b3146103dd578063715018a6146104065761019b565b806323aac19a116101595780633efc5200116101335780633efc52001461032b578063410404b7146103545780634e1273f41461035e5780635fd8c7101461039b5761019b565b806323aac19a146102c2578063299ed104146102eb5780632eb2c2d6146103025761019b565b8062fdd58e146101a057806301ffc9a7146101dd57806308fd75ed1461021a5780630e1c098d146102315780630e89341c1461025a57806312065fe014610297575b600080fd5b3480156101ac57600080fd5b506101c760048036038101906101c29190613a2f565b6105ea565b6040516101d491906148e2565b60405180910390f35b3480156101e957600080fd5b5061020460048036038101906101ff9190613b5d565b6106b3565b6040516102119190614525565b60405180910390f35b34801561022657600080fd5b5061022f610795565b005b34801561023d57600080fd5b5061025860048036038101906102539190613ab0565b6108c9565b005b34801561026657600080fd5b50610281600480360381019061027c9190613baf565b610a90565b60405161028e9190614540565b60405180910390f35b3480156102a357600080fd5b506102ac610b3d565b6040516102b991906148e2565b60405180910390f35b3480156102ce57600080fd5b506102e960048036038101906102e49190613a6b565b610b45565b005b3480156102f757600080fd5b50610300610c89565b005b34801561030e57600080fd5b50610329600480360381019061032491906138a5565b610db7565b005b34801561033757600080fd5b50610352600480360381019061034d9190613baf565b610e58565b005b61035c610ede565b005b34801561036a57600080fd5b5061038560048036038101906103809190613af1565b6114be565b60405161039291906144cc565b60405180910390f35b3480156103a757600080fd5b506103b061166f565b005b3480156103be57600080fd5b506103c7611777565b6040516103d491906148e2565b60405180910390f35b3480156103e957600080fd5b5061040460048036038101906103ff9190613bd8565b611781565b005b34801561041257600080fd5b5061041b61189b565b005b34801561042957600080fd5b50610432611923565b60405161043f91906148e2565b60405180910390f35b34801561045457600080fd5b5061045d61192d565b60405161046a91906148e2565b60405180910390f35b34801561047f57600080fd5b50610488611937565b60405161049591906143c6565b60405180910390f35b3480156104aa57600080fd5b506104b3611961565b6040516104c09190614540565b60405180910390f35b3480156104d557600080fd5b506104f060048036038101906104eb9190613ab0565b611a1d565b005b3480156104fe57600080fd5b50610519600480360381019061051491906139f3565b611b59565b005b34801561052757600080fd5b50610542600480360381019061053d9190613ab0565b611b6f565b005b34801561055057600080fd5b5061056b60048036038101906105669190613869565b611cab565b6040516105789190614525565b60405180910390f35b34801561058d57600080fd5b50610596611d3f565b005b3480156105a457600080fd5b506105bf60048036038101906105ba9190613964565b611e98565b005b3480156105cd57600080fd5b506105e860048036038101906105e39190613840565b611f39565b005b60008073ffffffffffffffffffffffffffffffffffffffff168373ffffffffffffffffffffffffffffffffffffffff16141561065b576040517f08c379a0000000000000000000000000000000000000000000000000000000008152600401610652906145a2565b60405180910390fd5b60008083815260200190815260200160002060008473ffffffffffffffffffffffffffffffffffffffff1673ffffffffffffffffffffffffffffffffffffffff16815260200190815260200160002054905092915050565b60007fd9b67a26000000000000000000000000000000000000000000000000000000007bffffffffffffffffffffffffffffffffffffffffffffffffffffffff1916827bffffffffffffffffffffffffffffffffffffffffffffffffffffffff1916148061077e57507f0e89341c000000000000000000000000000000000000000000000000000000007bffffffffffffffffffffffffffffffffffffffffffffffffffffffff1916827bffffffffffffffffffffffffffffffffffffffffffffffffffffffff1916145b8061078e575061078d82612031565b5b9050919050565b6000600654116107da576040517f08c379a00000000000000000000000000000000000000000000000000000000081526004016107d190614682565b60405180910390fd5b6000601160003373ffffffffffffffffffffffffffffffffffffffff1673ffffffffffffffffffffffffffffffffffffffff168152602001908152602001600020541161085c576040517f08c379a000000000000000000000000000000000000000000000000000000000815260040161085390614882565b60405180910390fd5b600061086661209b565b9050601160008273ffffffffffffffffffffffffffffffffffffffff1673ffffffffffffffffffffffffffffffffffffffff16815260200190815260200160002060008154809291906108b890614bf8565b91905055506108c6816120a3565b50565b6108d161209b565b73ffffffffffffffffffffffffffffffffffffffff166108ef611937565b73ffffffffffffffffffffffffffffffffffffffff1614610945576040517f08c379a000000000000000000000000000000000000000000000000000000000815260040161093c90614722565b60405180910390fd5b60005b8151811015610a8c57600160106000848481518110610990577f4e487b7100000000000000000000000000000000000000000000000000000000600052603260045260246000fd5b602002602001015173ffffffffffffffffffffffffffffffffffffffff1673ffffffffffffffffffffffffffffffffffffffff168152602001908152602001600020819055506015828281518110610a11577f4e487b7100000000000000000000000000000000000000000000000000000000600052603260045260246000fd5b60200260200101519080600181540180825580915050600190039060005260206000200160009091909190916101000a81548173ffffffffffffffffffffffffffffffffffffffff021916908373ffffffffffffffffffffffffffffffffffffffff1602179055508080610a8490614c85565b915050610948565b5050565b6060620186a0821115610acf57600c610aa8836125d9565b604051602001610ab992919061430d565b6040516020818303038152906040529050610b38565b6000821415610b0a57600c610ae3836125d9565b604051602001610af49291906142d3565b6040516020818303038152906040529050610b38565b600c610b15836125d9565b604051602001610b26929190614347565b60405160208183030381529060405290505b919050565b600047905090565b610b4d61209b565b73ffffffffffffffffffffffffffffffffffffffff16610b6b611937565b73ffffffffffffffffffffffffffffffffffffffff1614610bc1576040517f08c379a0000000000000000000000000000000000000000000000000000000008152600401610bb890614722565b60405180910390fd5b60005b82829050811015610c845760116000848484818110610c0c577f4e487b7100000000000000000000000000000000000000000000000000000000600052603260045260246000fd5b9050602002016020810190610c219190613840565b73ffffffffffffffffffffffffffffffffffffffff1673ffffffffffffffffffffffffffffffffffffffff1681526020019081526020016000206000815480929190610c6c90614c85565b91905055508080610c7c90614c85565b915050610bc4565b505050565b610c9161209b565b73ffffffffffffffffffffffffffffffffffffffff16610caf611937565b73ffffffffffffffffffffffffffffffffffffffff1614610d05576040517f08c379a0000000000000000000000000000000000000000000000000000000008152600401610cfc90614722565b60405180910390fd5b60006006541115610d4b576040517f08c379a0000000000000000000000000000000000000000000000000000000008152600401610d42906148c2565b60405180910390fd5b6103e8600681905550610bb8600754610d649190614a65565b6007819055506000601381905550610d7a611d3f565b7fe3d47dee33b959cc59941f840525125123544e1f194b235f340f0c6147697ac333610bb8604051610dad9291906144a3565b60405180910390a1565b610dbf61209b565b73ffffffffffffffffffffffffffffffffffffffff168573ffffffffffffffffffffffffffffffffffffffff161480610e055750610e0485610dff61209b565b611cab565b5b610e44576040517f08c379a0000000000000000000000000000000000000000000000000000000008152600401610e3b906146c2565b60405180910390fd5b610e518585858585612786565b5050505050565b610e6061209b565b73ffffffffffffffffffffffffffffffffffffffff16610e7e611937565b73ffffffffffffffffffffffffffffffffffffffff1614610ed4576040517f08c379a0000000000000000000000000000000000000000000000000000000008152600401610ecb90614722565b60405180910390fd5b8060088190555050565b6009544211610f22576040517f08c379a0000000000000000000000000000000000000000000000000000000008152600401610f19906147a2565b60405180910390fd5b600a54421015611036576000600f60003373ffffffffffffffffffffffffffffffffffffffff1673ffffffffffffffffffffffffffffffffffffffff1681526020019081526020016000205411610fae576040517f08c379a0000000000000000000000000000000000000000000000000000000008152600401610fa590614802565b60405180910390fd5b6001600e60003373ffffffffffffffffffffffffffffffffffffffff1673ffffffffffffffffffffffffffffffffffffffff168152602001908152602001600020541115611031576040517f08c379a000000000000000000000000000000000000000000000000000000000815260040161102890614742565b60405180910390fd5b6113c0565b600a54421180156110485750600b5442105b15611212576000600f60003373ffffffffffffffffffffffffffffffffffffffff1673ffffffffffffffffffffffffffffffffffffffff168152602001908152602001600020541180156110db57506002600e60003373ffffffffffffffffffffffffffffffffffffffff1673ffffffffffffffffffffffffffffffffffffffff16815260200190815260200160002054105b8061117057506000601060003373ffffffffffffffffffffffffffffffffffffffff1673ffffffffffffffffffffffffffffffffffffffff1681526020019081526020016000205411801561116f57506001600e60003373ffffffffffffffffffffffffffffffffffffffff1673ffffffffffffffffffffffffffffffffffffffff16815260200190815260200160002054105b5b6111af576040517f08c379a00000000000000000000000000000000000000000000000000000000081526004016111a6906145e2565b60405180910390fd5b610159601354106111f5576040517f08c379a00000000000000000000000000000000000000000000000000000000081526004016111ec90614782565b60405180910390fd5b6013600081548092919061120890614c85565b91905055506113bf565b6000600f60003373ffffffffffffffffffffffffffffffffffffffff1673ffffffffffffffffffffffffffffffffffffffff168152602001908152602001600020541180156112a057506003600e60003373ffffffffffffffffffffffffffffffffffffffff1673ffffffffffffffffffffffffffffffffffffffff16815260200190815260200160002054105b8061133557506000601060003373ffffffffffffffffffffffffffffffffffffffff1673ffffffffffffffffffffffffffffffffffffffff1681526020019081526020016000205411801561133457506002600e60003373ffffffffffffffffffffffffffffffffffffffff1673ffffffffffffffffffffffffffffffffffffffff16815260200190815260200160002054105b5b8061137f57506001600e60003373ffffffffffffffffffffffffffffffffffffffff1673ffffffffffffffffffffffffffffffffffffffff16815260200190815260200160002054105b6113be576040517f08c379a00000000000000000000000000000000000000000000000000000000081526004016113b590614662565b60405180910390fd5b5b5b60026003541415611406576040517f08c379a00000000000000000000000000000000000000000000000000000000081526004016113fd90614862565b60405180910390fd5b600260038190555067016345785d8a0000341015611459576040517f08c379a0000000000000000000000000000000000000000000000000000000008152600401611450906148a2565b60405180910390fd5b60006006541161149e576040517f08c379a000000000000000000000000000000000000000000000000000000000815260040161149590614602565b60405180910390fd5b60006114a861209b565b90506114b3816120a3565b506001600381905550565b60608151835114611504576040517f08c379a00000000000000000000000000000000000000000000000000000000081526004016114fb906147e2565b60405180910390fd5b6000835167ffffffffffffffff811115611547577f4e487b7100000000000000000000000000000000000000000000000000000000600052604160045260246000fd5b6040519080825280602002602001820160405280156115755781602001602082028036833780820191505090505b50905060005b84518110156116645761160e8582815181106115c0577f4e487b7100000000000000000000000000000000000000000000000000000000600052603260045260246000fd5b6020026020010151858381518110611601577f4e487b7100000000000000000000000000000000000000000000000000000000600052603260045260246000fd5b60200260200101516105ea565b828281518110611647577f4e487b7100000000000000000000000000000000000000000000000000000000600052603260045260246000fd5b6020026020010181815250508061165d90614c85565b905061157b565b508091505092915050565b61167761209b565b73ffffffffffffffffffffffffffffffffffffffff16611695611937565b73ffffffffffffffffffffffffffffffffffffffff16146116eb576040517f08c379a00000000000000000000000000000000000000000000000000000000081526004016116e290614722565b60405180910390fd5b6000471161172e576040517f08c379a000000000000000000000000000000000000000000000000000000000815260040161172590614762565b60405180910390fd5b3373ffffffffffffffffffffffffffffffffffffffff166108fc479081150290604051600060405180830381858888f19350505050158015611774573d6000803e3d6000fd5b50565b6000600754905090565b61178961209b565b73ffffffffffffffffffffffffffffffffffffffff166117a7611937565b73ffffffffffffffffffffffffffffffffffffffff16146117fd576040517f08c379a00000000000000000000000000000000000000000000000000000000081526004016117f490614722565b60405180910390fd5b82821161183f576040517f08c379a0000000000000000000000000000000000000000000000000000000008152600401611836906146e2565b60405180910390fd5b818111611881576040517f08c379a000000000000000000000000000000000000000000000000000000000815260040161187890614642565b60405180910390fd5b8260098190555081600a8190555080600b81905550505050565b6118a361209b565b73ffffffffffffffffffffffffffffffffffffffff166118c1611937565b73ffffffffffffffffffffffffffffffffffffffff1614611917576040517f08c379a000000000000000000000000000000000000000000000000000000000815260040161190e90614722565b60405180910390fd5b6119216000612ad8565b565b6000600854905090565b6000600654905090565b6000600260009054906101000a900473ffffffffffffffffffffffffffffffffffffffff16905090565b606061196b61209b565b73ffffffffffffffffffffffffffffffffffffffff16611989611937565b73ffffffffffffffffffffffffffffffffffffffff16146119df576040517f08c379a00000000000000000000000000000000000000000000000000000000081526004016119d690614722565b60405180910390fd5b6119ea6014546125d9565b6119f86015805490506125d9565b604051602001611a09929190614381565b604051602081830303815290604052905090565b611a2561209b565b73ffffffffffffffffffffffffffffffffffffffff16611a43611937565b73ffffffffffffffffffffffffffffffffffffffff1614611a99576040517f08c379a0000000000000000000000000000000000000000000000000000000008152600401611a9090614722565b60405180910390fd5b60005b8151811015611b55576001600f6000848481518110611ae4577f4e487b7100000000000000000000000000000000000000000000000000000000600052603260045260246000fd5b602002602001015173ffffffffffffffffffffffffffffffffffffffff1673ffffffffffffffffffffffffffffffffffffffff1681526020019081526020016000208190555060146000815480929190611b3d90614c85565b91905055508080611b4d90614c85565b915050611a9c565b5050565b611b6b611b6461209b565b8383612b9e565b5050565b611b7761209b565b73ffffffffffffffffffffffffffffffffffffffff16611b95611937565b73ffffffffffffffffffffffffffffffffffffffff1614611beb576040517f08c379a0000000000000000000000000000000000000000000000000000000008152600401611be290614722565b60405180910390fd5b60005b8151811015611ca7576000600f6000848481518110611c36577f4e487b7100000000000000000000000000000000000000000000000000000000600052603260045260246000fd5b602002602001015173ffffffffffffffffffffffffffffffffffffffff1673ffffffffffffffffffffffffffffffffffffffff1681526020019081526020016000208190555060146000815480929190611c8f90614bf8565b91905055508080611c9f90614c85565b915050611bee565b5050565b6000600160008473ffffffffffffffffffffffffffffffffffffffff1673ffffffffffffffffffffffffffffffffffffffff16815260200190815260200160002060008373ffffffffffffffffffffffffffffffffffffffff1673ffffffffffffffffffffffffffffffffffffffff16815260200190815260200160002060009054906101000a900460ff16905092915050565b611d4761209b565b73ffffffffffffffffffffffffffffffffffffffff16611d65611937565b73ffffffffffffffffffffffffffffffffffffffff1614611dbb576040517f08c379a0000000000000000000000000000000000000000000000000000000008152600401611db290614722565b60405180910390fd5b60005b601580549050811015611e875760006010600060158481548110611e0b577f4e487b7100000000000000000000000000000000000000000000000000000000600052603260045260246000fd5b9060005260206000200160009054906101000a900473ffffffffffffffffffffffffffffffffffffffff1673ffffffffffffffffffffffffffffffffffffffff1673ffffffffffffffffffffffffffffffffffffffff168152602001908152602001600020819055508080611e7f90614c85565b915050611dbe565b5060156000611e9691906135bb565b565b611ea061209b565b73ffffffffffffffffffffffffffffffffffffffff168573ffffffffffffffffffffffffffffffffffffffff161480611ee65750611ee585611ee061209b565b611cab565b5b611f25576040517f08c379a0000000000000000000000000000000000000000000000000000000008152600401611f1c90614622565b60405180910390fd5b611f328585858585612d0b565b5050505050565b611f4161209b565b73ffffffffffffffffffffffffffffffffffffffff16611f5f611937565b73ffffffffffffffffffffffffffffffffffffffff1614611fb5576040517f08c379a0000000000000000000000000000000000000000000000000000000008152600401611fac90614722565b60405180910390fd5b600073ffffffffffffffffffffffffffffffffffffffff168173ffffffffffffffffffffffffffffffffffffffff161415612025576040517f08c379a000000000000000000000000000000000000000000000000000000000815260040161201c906145c2565b60405180910390fd5b61202e81612ad8565b50565b60007f01ffc9a7000000000000000000000000000000000000000000000000000000007bffffffffffffffffffffffffffffffffffffffffffffffffffffffff1916827bffffffffffffffffffffffffffffffffffffffffffffffffffffffff1916149050919050565b600033905090565b6000600667ffffffffffffffff8111156120e6577f4e487b7100000000000000000000000000000000000000000000000000000000600052604160045260246000fd5b6040519080825280602002602001820160405280156121145781602001602082028036833780820191505090505b5090506000600667ffffffffffffffff81111561215a577f4e487b7100000000000000000000000000000000000000000000000000000000600052604160045260246000fd5b6040519080825280602002602001820160405280156121885781602001602082028036833780820191505090505b5090506001826000815181106121c7577f4e487b7100000000000000000000000000000000000000000000000000000000600052603260045260246000fd5b60200260200101818152505060018260018151811061220f577f4e487b7100000000000000000000000000000000000000000000000000000000600052603260045260246000fd5b602002602001018181525050600182600281518110612257577f4e487b7100000000000000000000000000000000000000000000000000000000600052603260045260246000fd5b60200260200101818152505060018260038151811061229f577f4e487b7100000000000000000000000000000000000000000000000000000000600052603260045260246000fd5b6020026020010181815250506001826004815181106122e7577f4e487b7100000000000000000000000000000000000000000000000000000000600052603260045260246000fd5b60200260200101818152505060038260058151811061232f577f4e487b7100000000000000000000000000000000000000000000000000000000600052603260045260246000fd5b60200260200101818152505060045481600081518110612378577f4e487b7100000000000000000000000000000000000000000000000000000000600052603260045260246000fd5b6020026020010181815250506004600081548092919061239790614c85565b9190505550600454816001815181106123d9577f4e487b7100000000000000000000000000000000000000000000000000000000600052603260045260246000fd5b602002602001018181525050600460008154809291906123f890614c85565b91905055506004548160028151811061243a577f4e487b7100000000000000000000000000000000000000000000000000000000600052603260045260246000fd5b6020026020010181815250506004600081548092919061245990614c85565b91905055506004548160038151811061249b577f4e487b7100000000000000000000000000000000000000000000000000000000600052603260045260246000fd5b602002602001018181525050600460008154809291906124ba90614c85565b9190505550600554816004815181106124fc577f4e487b7100000000000000000000000000000000000000000000000000000000600052603260045260246000fd5b6020026020010181815250506005600081548092919061251b90614c85565b9190505550601260003373ffffffffffffffffffffffffffffffffffffffff1673ffffffffffffffffffffffffffffffffffffffff168152602001908152602001600020600001600c81819054906101000a900463ffffffff168092919061258290614cce565b91906101000a81548163ffffffff021916908363ffffffff160217905550506125bc33828460405180602001604052806000815250612f6f565b600660008154809291906125cf90614bf8565b9190505550505050565b60606000821415612621576040518060400160405280600181526020017f30000000000000000000000000000000000000000000000000000000000000008152509050612781565b600082905060005b6000821461265357808061263c90614c85565b915050600a8261264c9190614abb565b9150612629565b60008167ffffffffffffffff811115612695577f4e487b7100000000000000000000000000000000000000000000000000000000600052604160045260246000fd5b6040519080825280601f01601f1916602001820160405280156126c75781602001600182028036833780820191505090505b5090505b6000851461277a576001826126e09190614aec565b9150600a856126ef9190614cfb565b60306126fb9190614a65565b60f81b818381518110612737577f4e487b7100000000000000000000000000000000000000000000000000000000600052603260045260246000fd5b60200101907effffffffffffffffffffffffffffffffffffffffffffffffffffffffffffff1916908160001a905350600a856127739190614abb565b94506126cb565b8093505050505b919050565b81518351146127ca576040517f08c379a00000000000000000000000000000000000000000000000000000000081526004016127c190614822565b60405180910390fd5b600073ffffffffffffffffffffffffffffffffffffffff168473ffffffffffffffffffffffffffffffffffffffff16141561283a576040517f08c379a0000000000000000000000000000000000000000000000000000000008152600401612831906146a2565b60405180910390fd5b600061284461209b565b905060005b8451811015612a4357600085828151811061288d577f4e487b7100000000000000000000000000000000000000000000000000000000600052603260045260246000fd5b6020026020010151905060008583815181106128d2577f4e487b7100000000000000000000000000000000000000000000000000000000600052603260045260246000fd5b60200260200101519050600080600084815260200190815260200160002060008b73ffffffffffffffffffffffffffffffffffffffff1673ffffffffffffffffffffffffffffffffffffffff16815260200190815260200160002054905081811015612973576040517f08c379a000000000000000000000000000000000000000000000000000000000815260040161296a90614702565b60405180910390fd5b81810360008085815260200190815260200160002060008c73ffffffffffffffffffffffffffffffffffffffff1673ffffffffffffffffffffffffffffffffffffffff168152602001908152602001600020819055508160008085815260200190815260200160002060008b73ffffffffffffffffffffffffffffffffffffffff1673ffffffffffffffffffffffffffffffffffffffff1681526020019081526020016000206000828254612a289190614a65565b9250508190555050505080612a3c90614c85565b9050612849565b508473ffffffffffffffffffffffffffffffffffffffff168673ffffffffffffffffffffffffffffffffffffffff168273ffffffffffffffffffffffffffffffffffffffff167f4a39dc06d4c0dbc64b70af90fd698a233a518aa5d07e595d983b8c0526c8f7fb8787604051612aba9291906144ee565b60405180910390a4612ad08187878787876131ca565b505050505050565b6000600260009054906101000a900473ffffffffffffffffffffffffffffffffffffffff16905081600260006101000a81548173ffffffffffffffffffffffffffffffffffffffff021916908373ffffffffffffffffffffffffffffffffffffffff1602179055508173ffffffffffffffffffffffffffffffffffffffff168173ffffffffffffffffffffffffffffffffffffffff167f8be0079c531659141344cd1fd0a4f28419497f9722a3daafe3b4186f6b6457e060405160405180910390a35050565b8173ffffffffffffffffffffffffffffffffffffffff168373ffffffffffffffffffffffffffffffffffffffff161415612c0d576040517f08c379a0000000000000000000000000000000000000000000000000000000008152600401612c04906147c2565b60405180910390fd5b80600160008573ffffffffffffffffffffffffffffffffffffffff1673ffffffffffffffffffffffffffffffffffffffff16815260200190815260200160002060008473ffffffffffffffffffffffffffffffffffffffff1673ffffffffffffffffffffffffffffffffffffffff16815260200190815260200160002060006101000a81548160ff0219169083151502179055508173ffffffffffffffffffffffffffffffffffffffff168373ffffffffffffffffffffffffffffffffffffffff167f17307eab39ab6107e8899845ad3d59bd9653f200f220920489ca2b5937696c3183604051612cfe9190614525565b60405180910390a3505050565b600073ffffffffffffffffffffffffffffffffffffffff168473ffffffffffffffffffffffffffffffffffffffff161415612d7b576040517f08c379a0000000000000000000000000000000000000000000000000000000008152600401612d72906146a2565b60405180910390fd5b6000612d8561209b565b9050600080600086815260200190815260200160002060008873ffffffffffffffffffffffffffffffffffffffff1673ffffffffffffffffffffffffffffffffffffffff16815260200190815260200160002054905083811015612e1e576040517f08c379a0000000000000000000000000000000000000000000000000000000008152600401612e1590614702565b60405180910390fd5b83810360008087815260200190815260200160002060008973ffffffffffffffffffffffffffffffffffffffff1673ffffffffffffffffffffffffffffffffffffffff168152602001908152602001600020819055508360008087815260200190815260200160002060008873ffffffffffffffffffffffffffffffffffffffff1673ffffffffffffffffffffffffffffffffffffffff1681526020019081526020016000206000828254612ed39190614a65565b925050819055508573ffffffffffffffffffffffffffffffffffffffff168773ffffffffffffffffffffffffffffffffffffffff168373ffffffffffffffffffffffffffffffffffffffff167fc3d58168c5ae7397731d063d5bbf3d657854427343f4c083240f7aacaa2d0f628888604051612f509291906148fd565b60405180910390a4612f668288888888886133b1565b50505050505050565b600073ffffffffffffffffffffffffffffffffffffffff168473ffffffffffffffffffffffffffffffffffffffff161415612fdf576040517f08c379a0000000000000000000000000000000000000000000000000000000008152600401612fd690614842565b60405180910390fd5b8151835114613023576040517f08c379a000000000000000000000000000000000000000000000000000000000815260040161301a90614822565b60405180910390fd5b600061302d61209b565b905060005b845181101561313457838181518110613074577f4e487b7100000000000000000000000000000000000000000000000000000000600052603260045260246000fd5b60200260200101516000808784815181106130b8577f4e487b7100000000000000000000000000000000000000000000000000000000600052603260045260246000fd5b6020026020010151815260200190815260200160002060008873ffffffffffffffffffffffffffffffffffffffff1673ffffffffffffffffffffffffffffffffffffffff168152602001908152602001600020600082825461311a9190614a65565b92505081905550808061312c90614c85565b915050613032565b508473ffffffffffffffffffffffffffffffffffffffff16600073ffffffffffffffffffffffffffffffffffffffff168273ffffffffffffffffffffffffffffffffffffffff167f4a39dc06d4c0dbc64b70af90fd698a233a518aa5d07e595d983b8c0526c8f7fb87876040516131ac9291906144ee565b60405180910390a46131c3816000878787876131ca565b5050505050565b6131e98473ffffffffffffffffffffffffffffffffffffffff16613598565b156133a9578373ffffffffffffffffffffffffffffffffffffffff1663bc197c8187878686866040518663ffffffff1660e01b815260040161322f9594939291906143e1565b602060405180830381600087803b15801561324957600080fd5b505af192505050801561327a57506040513d601f19601f820116820180604052508101906132779190613b86565b60015b61332057613286614de8565b806308c379a014156132e3575061329b6156e1565b806132a657506132e5565b806040517f08c379a00000000000000000000000000000000000000000000000000000000081526004016132da9190614540565b60405180910390fd5b505b6040517f08c379a000000000000000000000000000000000000000000000000000000000815260040161331790614562565b60405180910390fd5b63bc197c8160e01b7bffffffffffffffffffffffffffffffffffffffffffffffffffffffff1916817bffffffffffffffffffffffffffffffffffffffffffffffffffffffff1916146133a7576040517f08c379a000000000000000000000000000000000000000000000000000000000815260040161339e90614582565b60405180910390fd5b505b505050505050565b6133d08473ffffffffffffffffffffffffffffffffffffffff16613598565b15613590578373ffffffffffffffffffffffffffffffffffffffff1663f23a6e6187878686866040518663ffffffff1660e01b8152600401613416959493929190614449565b602060405180830381600087803b15801561343057600080fd5b505af192505050801561346157506040513d601f19601f8201168201806040525081019061345e9190613b86565b60015b6135075761346d614de8565b806308c379a014156134ca57506134826156e1565b8061348d57506134cc565b806040517f08c379a00000000000000000000000000000000000000000000000000000000081526004016134c19190614540565b60405180910390fd5b505b6040517f08c379a00000000000000000000000000000000000000000000000000000000081526004016134fe90614562565b60405180910390fd5b63f23a6e6160e01b7bffffffffffffffffffffffffffffffffffffffffffffffffffffffff1916817bffffffffffffffffffffffffffffffffffffffffffffffffffffffff19161461358e576040517f08c379a000000000000000000000000000000000000000000000000000000000815260040161358590614582565b60405180910390fd5b505b505050505050565b6000808273ffffffffffffffffffffffffffffffffffffffff163b119050919050565b50805460008255906000526020600020908101906135d991906135dc565b50565b5b808211156135f55760008160009055506001016135dd565b5090565b600061360c6136078461494b565b614926565b9050808382526020820190508285602086028201111561362b57600080fd5b60005b8581101561365b5781613641888261370f565b84526020840193506020830192505060018101905061362e565b5050509392505050565b600061367861367384614977565b614926565b9050808382526020820190508285602086028201111561369757600080fd5b60005b858110156136c757816136ad888261382b565b84526020840193506020830192505060018101905061369a565b5050509392505050565b60006136e46136df846149a3565b614926565b9050828152602081018484840111156136fc57600080fd5b613707848285614bb6565b509392505050565b60008135905061371e81615777565b92915050565b60008083601f84011261373657600080fd5b8235905067ffffffffffffffff81111561374f57600080fd5b60208301915083602082028301111561376757600080fd5b9250929050565b600082601f83011261377f57600080fd5b813561378f8482602086016135f9565b91505092915050565b600082601f8301126137a957600080fd5b81356137b9848260208601613665565b91505092915050565b6000813590506137d18161578e565b92915050565b6000813590506137e6816157a5565b92915050565b6000815190506137fb816157a5565b92915050565b600082601f83011261381257600080fd5b81356138228482602086016136d1565b91505092915050565b60008135905061383a816157bc565b92915050565b60006020828403121561385257600080fd5b60006138608482850161370f565b91505092915050565b6000806040838503121561387c57600080fd5b600061388a8582860161370f565b925050602061389b8582860161370f565b9150509250929050565b600080600080600060a086880312156138bd57600080fd5b60006138cb8882890161370f565b95505060206138dc8882890161370f565b945050604086013567ffffffffffffffff8111156138f957600080fd5b61390588828901613798565b935050606086013567ffffffffffffffff81111561392257600080fd5b61392e88828901613798565b925050608086013567ffffffffffffffff81111561394b57600080fd5b61395788828901613801565b9150509295509295909350565b600080600080600060a0868803121561397c57600080fd5b600061398a8882890161370f565b955050602061399b8882890161370f565b94505060406139ac8882890161382b565b93505060606139bd8882890161382b565b925050608086013567ffffffffffffffff8111156139da57600080fd5b6139e688828901613801565b9150509295509295909350565b60008060408385031215613a0657600080fd5b6000613a148582860161370f565b9250506020613a25858286016137c2565b9150509250929050565b60008060408385031215613a4257600080fd5b6000613a508582860161370f565b9250506020613a618582860161382b565b9150509250929050565b60008060208385031215613a7e57600080fd5b600083013567ffffffffffffffff811115613a9857600080fd5b613aa485828601613724565b92509250509250929050565b600060208284031215613ac257600080fd5b600082013567ffffffffffffffff811115613adc57600080fd5b613ae88482850161376e565b91505092915050565b60008060408385031215613b0457600080fd5b600083013567ffffffffffffffff811115613b1e57600080fd5b613b2a8582860161376e565b925050602083013567ffffffffffffffff811115613b4757600080fd5b613b5385828601613798565b9150509250929050565b600060208284031215613b6f57600080fd5b6000613b7d848285016137d7565b91505092915050565b600060208284031215613b9857600080fd5b6000613ba6848285016137ec565b91505092915050565b600060208284031215613bc157600080fd5b6000613bcf8482850161382b565b91505092915050565b600080600060608486031215613bed57600080fd5b6000613bfb8682870161382b565b9350506020613c0c8682870161382b565b9250506040613c1d8682870161382b565b9150509250925092565b6000613c3383836142b5565b60208301905092915050565b613c4881614b20565b82525050565b6000613c59826149f9565b613c638185614a27565b9350613c6e836149d4565b8060005b83811015613c9f578151613c868882613c27565b9750613c9183614a1a565b925050600181019050613c72565b5085935050505092915050565b613cb581614b32565b82525050565b6000613cc682614a04565b613cd08185614a38565b9350613ce0818560208601614bc5565b613ce981614e0a565b840191505092915050565b613cfd81614ba4565b82525050565b6000613d0e82614a0f565b613d188185614a49565b9350613d28818560208601614bc5565b613d3181614e0a565b840191505092915050565b6000613d4782614a0f565b613d518185614a5a565b9350613d61818560208601614bc5565b80840191505092915050565b60008154613d7a81614c22565b613d848186614a5a565b94506001821660008114613d9f5760018114613db057613de3565b60ff19831686528186019350613de3565b613db9856149e4565b60005b83811015613ddb57815481890152600182019150602081019050613dbc565b838801955050505b50505092915050565b6000613df9603483614a49565b9150613e0482614e28565b604082019050919050565b6000613e1c602883614a49565b9150613e2782614e77565b604082019050919050565b6000613e3f601383614a5a565b9150613e4a82614ec6565b601382019050919050565b6000613e62602b83614a49565b9150613e6d82614eef565b604082019050919050565b6000613e85602683614a49565b9150613e9082614f3e565b604082019050919050565b6000613ea8602e83614a49565b9150613eb382614f8d565b604082019050919050565b6000613ecb601d83614a49565b9150613ed682614fdc565b602082019050919050565b6000613eee602983614a49565b9150613ef982615005565b604082019050919050565b6000613f11602a83614a49565b9150613f1c82615054565b604082019050919050565b6000613f34601d83614a5a565b9150613f3f826150a3565b601d82019050919050565b6000613f57603283614a49565b9150613f62826150cc565b604082019050919050565b6000613f7a601d83614a49565b9150613f858261511b565b602082019050919050565b6000613f9d602583614a49565b9150613fa882615144565b604082019050919050565b6000613fc0603283614a49565b9150613fcb82615193565b604082019050919050565b6000613fe3602383614a49565b9150613fee826151e2565b604082019050919050565b6000614006602a83614a49565b915061401182615231565b604082019050919050565b6000614029600583614a5a565b915061403482615280565b600582019050919050565b600061404c602083614a49565b9150614057826152a9565b602082019050919050565b600061406f603283614a49565b915061407a826152d2565b604082019050919050565b6000614092600a83614a5a565b915061409d82615321565b600a82019050919050565b60006140b5600d83614a5a565b91506140c08261534a565b600d82019050919050565b60006140d8601483614a49565b91506140e382615373565b602082019050919050565b60006140fb602983614a49565b91506141068261539c565b604082019050919050565b600061411e600783614a5a565b9150614129826153eb565b600782019050919050565b6000614141601883614a49565b915061414c82615414565b602082019050919050565b6000614164602983614a49565b915061416f8261543d565b604082019050919050565b6000614187602983614a49565b91506141928261548c565b604082019050919050565b60006141aa603d83614a49565b91506141b5826154db565b604082019050919050565b60006141cd602883614a49565b91506141d88261552a565b604082019050919050565b60006141f0602183614a49565b91506141fb82615579565b604082019050919050565b6000614213601f83614a49565b915061421e826155c8565b602082019050919050565b6000614236601b83614a49565b9150614241826155f1565b602082019050919050565b6000614259603883614a49565b91506142648261561a565b604082019050919050565b600061427c600883614a5a565b915061428782615669565b600882019050919050565b600061429f602c83614a49565b91506142aa82615692565b604082019050919050565b6142be81614b8a565b82525050565b6142cd81614b8a565b82525050565b60006142df8285613d6d565b91506142ea82614085565b91506142f68284613d3c565b91506143018261401c565b91508190509392505050565b60006143198285613d6d565b915061432482614111565b91506143308284613d3c565b915061433b8261401c565b91508190509392505050565b60006143538285613d6d565b915061435e8261426f565b915061436a8284613d3c565b91506143758261401c565b91508190509392505050565b600061438c826140a8565b91506143988285613d3c565b91506143a382613f27565b91506143af8284613d3c565b91506143ba82613e32565b91508190509392505050565b60006020820190506143db6000830184613c3f565b92915050565b600060a0820190506143f66000830188613c3f565b6144036020830187613c3f565b81810360408301526144158186613c4e565b905081810360608301526144298185613c4e565b9050818103608083015261443d8184613cbb565b90509695505050505050565b600060a08201905061445e6000830188613c3f565b61446b6020830187613c3f565b61447860408301866142c4565b61448560608301856142c4565b81810360808301526144978184613cbb565b90509695505050505050565b60006040820190506144b86000830185613c3f565b6144c56020830184613cf4565b9392505050565b600060208201905081810360008301526144e68184613c4e565b905092915050565b600060408201905081810360008301526145088185613c4e565b9050818103602083015261451c8184613c4e565b90509392505050565b600060208201905061453a6000830184613cac565b92915050565b6000602082019050818103600083015261455a8184613d03565b905092915050565b6000602082019050818103600083015261457b81613dec565b9050919050565b6000602082019050818103600083015261459b81613e0f565b9050919050565b600060208201905081810360008301526145bb81613e55565b9050919050565b600060208201905081810360008301526145db81613e78565b9050919050565b600060208201905081810360008301526145fb81613e9b565b9050919050565b6000602082019050818103600083015261461b81613ebe565b9050919050565b6000602082019050818103600083015261463b81613ee1565b9050919050565b6000602082019050818103600083015261465b81613f04565b9050919050565b6000602082019050818103600083015261467b81613f4a565b9050919050565b6000602082019050818103600083015261469b81613f6d565b9050919050565b600060208201905081810360008301526146bb81613f90565b9050919050565b600060208201905081810360008301526146db81613fb3565b9050919050565b600060208201905081810360008301526146fb81613fd6565b9050919050565b6000602082019050818103600083015261471b81613ff9565b9050919050565b6000602082019050818103600083015261473b8161403f565b9050919050565b6000602082019050818103600083015261475b81614062565b9050919050565b6000602082019050818103600083015261477b816140cb565b9050919050565b6000602082019050818103600083015261479b816140ee565b9050919050565b600060208201905081810360008301526147bb81614134565b9050919050565b600060208201905081810360008301526147db81614157565b9050919050565b600060208201905081810360008301526147fb8161417a565b9050919050565b6000602082019050818103600083015261481b8161419d565b9050919050565b6000602082019050818103600083015261483b816141c0565b9050919050565b6000602082019050818103600083015261485b816141e3565b9050919050565b6000602082019050818103600083015261487b81614206565b9050919050565b6000602082019050818103600083015261489b81614229565b9050919050565b600060208201905081810360008301526148bb8161424c565b9050919050565b600060208201905081810360008301526148db81614292565b9050919050565b60006020820190506148f760008301846142c4565b92915050565b600060408201905061491260008301856142c4565b61491f60208301846142c4565b9392505050565b6000614930614941565b905061493c8282614c54565b919050565b6000604051905090565b600067ffffffffffffffff82111561496657614965614db9565b5b602082029050602081019050919050565b600067ffffffffffffffff82111561499257614991614db9565b5b602082029050602081019050919050565b600067ffffffffffffffff8211156149be576149bd614db9565b5b6149c782614e0a565b9050602081019050919050565b6000819050602082019050919050565b60008190508160005260206000209050919050565b600081519050919050565b600081519050919050565b600081519050919050565b6000602082019050919050565b600082825260208201905092915050565b600082825260208201905092915050565b600082825260208201905092915050565b600081905092915050565b6000614a7082614b8a565b9150614a7b83614b8a565b9250827fffffffffffffffffffffffffffffffffffffffffffffffffffffffffffffffff03821115614ab057614aaf614d2c565b5b828201905092915050565b6000614ac682614b8a565b9150614ad183614b8a565b925082614ae157614ae0614d5b565b5b828204905092915050565b6000614af782614b8a565b9150614b0283614b8a565b925082821015614b1557614b14614d2c565b5b828203905092915050565b6000614b2b82614b6a565b9050919050565b60008115159050919050565b60007fffffffff0000000000000000000000000000000000000000000000000000000082169050919050565b600073ffffffffffffffffffffffffffffffffffffffff82169050919050565b6000819050919050565b600063ffffffff82169050919050565b6000614baf82614b8a565b9050919050565b82818337600083830152505050565b60005b83811015614be3578082015181840152602081019050614bc8565b83811115614bf2576000848401525b50505050565b6000614c0382614b8a565b91506000821415614c1757614c16614d2c565b5b600182039050919050565b60006002820490506001821680614c3a57607f821691505b60208210811415614c4e57614c4d614d8a565b5b50919050565b614c5d82614e0a565b810181811067ffffffffffffffff82111715614c7c57614c7b614db9565b5b80604052505050565b6000614c9082614b8a565b91507fffffffffffffffffffffffffffffffffffffffffffffffffffffffffffffffff821415614cc357614cc2614d2c565b5b600182019050919050565b6000614cd982614b94565b915063ffffffff821415614cf057614cef614d2c565b5b600182019050919050565b6000614d0682614b8a565b9150614d1183614b8a565b925082614d2157614d20614d5b565b5b828206905092915050565b7f4e487b7100000000000000000000000000000000000000000000000000000000600052601160045260246000fd5b7f4e487b7100000000000000000000000000000000000000000000000000000000600052601260045260246000fd5b7f4e487b7100000000000000000000000000000000000000000000000000000000600052602260045260246000fd5b7f4e487b7100000000000000000000000000000000000000000000000000000000600052604160045260246000fd5b600060033d1115614e075760046000803e614e04600051614e1b565b90505b90565b6000601f19601f8301169050919050565b60008160e01c9050919050565b7f455243313135353a207472616e7366657220746f206e6f6e204552433131353560008201527f526563656976657220696d706c656d656e746572000000000000000000000000602082015250565b7f455243313135353a204552433131353552656365697665722072656a6563746560008201527f6420746f6b656e73000000000000000000000000000000000000000000000000602082015250565b7f2050726573616c65204d656d6265722873292e00000000000000000000000000600082015250565b7f455243313135353a2062616c616e636520717565727920666f7220746865207a60008201527f65726f2061646472657373000000000000000000000000000000000000000000602082015250565b7f4f776e61626c653a206e6577206f776e657220697320746865207a65726f206160008201527f6464726573730000000000000000000000000000000000000000000000000000602082015250565b7f43616e206f6e6c79206d696e74206f6e65206672756974206261736b6574206460008201527f7572696e672070726573616c652e000000000000000000000000000000000000602082015250565b7f416c6c2042756e646c65732068617665206265656e206d696e7465642e000000600082015250565b7f455243313135353a2063616c6c6572206973206e6f74206f776e6572206e6f7260008201527f20617070726f7665640000000000000000000000000000000000000000000000602082015250565b7f5075626c69632073616c65206d757374206265206c61746572207468616e207460008201527f68652070726573616c6500000000000000000000000000000000000000000000602082015250565b7f20564946204d656d6265722873292e2054686572652069732f61726520000000600082015250565b7f43616e206f6e6c79206d696e74206f6e65206672756974206261736b6574206460008201527f7572696e67207075626c69632073616c652e0000000000000000000000000000602082015250565b7f416c6c2062756e646c65732068617665206265656e206d696e7465642e000000600082015250565b7f455243313135353a207472616e7366657220746f20746865207a65726f20616460008201527f6472657373000000000000000000000000000000000000000000000000000000602082015250565b7f455243313135353a207472616e736665722063616c6c6572206973206e6f742060008201527f6f776e6572206e6f7220617070726f7665640000000000000000000000000000602082015250565b7f50726573616c65204d757374206265206c61746572207468616e20566966205360008201527f616c650000000000000000000000000000000000000000000000000000000000602082015250565b7f455243313135353a20696e73756666696369656e742062616c616e636520666f60008201527f72207472616e7366657200000000000000000000000000000000000000000000602082015250565b7f2e6a736f6e000000000000000000000000000000000000000000000000000000600082015250565b7f4f776e61626c653a2063616c6c6572206973206e6f7420746865206f776e6572600082015250565b7f596f752063616e206f6e6c79206d696e74206f6e65206672756974206261736b60008201527f657420647572696e67205649462073616c650000000000000000000000000000602082015250565b7f2f72656365697074732f00000000000000000000000000000000000000000000600082015250565b7f54686572652069732f6172652000000000000000000000000000000000000000600082015250565b7f4e6f20657468657220696e20636f6e7472616374000000000000000000000000600082015250565b7f416c6c2070726573616c65206672756974206261736b6574732068617665206260008201527f65656e20736f6c642e0000000000000000000000000000000000000000000000602082015250565b7f2f34696e31732f00000000000000000000000000000000000000000000000000600082015250565b7f5649462073616c6520686173206e6f7420737461727465640000000000000000600082015250565b7f455243313135353a2073657474696e6720617070726f76616c2073746174757360008201527f20666f722073656c660000000000000000000000000000000000000000000000602082015250565b7f455243313135353a206163636f756e747320616e6420696473206c656e67746860008201527f206d69736d617463680000000000000000000000000000000000000000000000602082015250565b7f5649462073616c65206973206163746976652062757420796f7527726520617260008201527f65206e6f742061205649462c207761697420666f722070726573616c65000000602082015250565b7f455243313135353a2069647320616e6420616d6f756e7473206c656e6774682060008201527f6d69736d61746368000000000000000000000000000000000000000000000000602082015250565b7f455243313135353a206d696e7420746f20746865207a65726f2061646472657360008201527f7300000000000000000000000000000000000000000000000000000000000000602082015250565b7f5265656e7472616e637947756172643a207265656e7472616e742063616c6c00600082015250565b7f596f7520646f206e6f74206861766520612066726565206d696e740000000000600082015250565b7f4e6f7420656e6f756768206574686572207761732073656e7420746f2070757260008201527f636861736520796f7572206672756974206261736b65742e0000000000000000602082015250565b7f2f6672756974732f000000000000000000000000000000000000000000000000600082015250565b7f416c6c2062756e646c65732068617665206e6f74206265656e20676976656e2060008201527f61776179206f7220736f6c640000000000000000000000000000000000000000602082015250565b600060443d10156156f157615774565b6156f9614941565b60043d036004823e80513d602482011167ffffffffffffffff82111715615721575050615774565b808201805167ffffffffffffffff81111561573f5750505050615774565b80602083010160043d03850181111561575c575050505050615774565b61576b82602001850186614c54565b82955050505050505b90565b61578081614b20565b811461578b57600080fd5b50565b61579781614b32565b81146157a257600080fd5b50565b6157ae81614b3e565b81146157b957600080fd5b50565b6157c581614b8a565b81146157d057600080fd5b5056fea2646970667358221220068b0dcfd95e83e133be7d931ab4a296aebf5d4b85edb03bd1573fbcdaa68c4a64736f6c63430008040033",
  "linkReferences": {},
  "deployedLinkReferences": {}
}