{
  "_format": "hh-sol-artifact-1",
  "contractName": "DemoOptimized",
  "sourceName": "contracts/DemoOptimized.sol",
  "abi": [
    {
      "inputs": [
        {
          "internalType": "string",
          "name": "uri1",
          "type": "string"
        }
      ],
      "stateMutability": "nonpayable",
      "type": "constructor"
    },
    {
      "anonymous": false,
      "inputs": [
        {
          "indexed": true,
          "internalType": "address",
          "name": "account",
          "type": "address"
        },
        {
          "indexed": true,
          "internalType": "address",
          "name": "operator",
          "type": "address"
        },
        {
          "indexed": false,
          "internalType": "bool",
          "name": "approved",
          "type": "bool"
        }
      ],
      "name": "ApprovalForAll",
      "type": "event"
    },
    {
      "anonymous": false,
      "inputs": [
        {
          "indexed": false,
          "internalType": "address",
          "name": "_sender",
          "type": "address"
        },
        {
          "indexed": false,
          "internalType": "uint256",
          "name": "_supply",
          "type": "uint256"
        }
      ],
      "name": "IncreaseReceiptSupply",
      "type": "event"
    },
    {
      "anonymous": false,
      "inputs": [
        {
          "indexed": true,
          "internalType": "address",
          "name": "previousOwner",
          "type": "address"
        },
        {
          "indexed": true,
          "internalType": "address",
          "name": "newOwner",
          "type": "address"
        }
      ],
      "name": "OwnershipTransferred",
      "type": "event"
    },
    {
      "anonymous": false,
      "inputs": [
        {
          "indexed": true,
          "internalType": "address",
          "name": "operator",
          "type": "address"
        },
        {
          "indexed": true,
          "internalType": "address",
          "name": "from",
          "type": "address"
        },
        {
          "indexed": true,
          "internalType": "address",
          "name": "to",
          "type": "address"
        },
        {
          "indexed": false,
          "internalType": "uint256[]",
          "name": "ids",
          "type": "uint256[]"
        },
        {
          "indexed": false,
          "internalType": "uint256[]",
          "name": "values",
          "type": "uint256[]"
        }
      ],
      "name": "TransferBatch",
      "type": "event"
    },
    {
      "anonymous": false,
      "inputs": [
        {
          "indexed": true,
          "internalType": "address",
          "name": "operator",
          "type": "address"
        },
        {
          "indexed": true,
          "internalType": "address",
          "name": "from",
          "type": "address"
        },
        {
          "indexed": true,
          "internalType": "address",
          "name": "to",
          "type": "address"
        },
        {
          "indexed": false,
          "internalType": "uint256",
          "name": "id",
          "type": "uint256"
        },
        {
          "indexed": false,
          "internalType": "uint256",
          "name": "value",
          "type": "uint256"
        }
      ],
      "name": "TransferSingle",
      "type": "event"
    },
    {
      "anonymous": false,
      "inputs": [
        {
          "indexed": false,
          "internalType": "string",
          "name": "value",
          "type": "string"
        },
        {
          "indexed": true,
          "internalType": "uint256",
          "name": "id",
          "type": "uint256"
        }
      ],
      "name": "URI",
      "type": "event"
    },
    {
      "inputs": [
        {
          "internalType": "address",
          "name": "",
          "type": "address"
        }
      ],
      "name": "addressToMintPass",
      "outputs": [
        {
          "internalType": "uint256",
          "name": "",
          "type": "uint256"
        }
      ],
      "stateMutability": "view",
      "type": "function"
    },
    {
      "inputs": [
        {
          "internalType": "address",
          "name": "account",
          "type": "address"
        },
        {
          "internalType": "uint256",
          "name": "id",
          "type": "uint256"
        }
      ],
      "name": "balanceOf",
      "outputs": [
        {
          "internalType": "uint256",
          "name": "",
          "type": "uint256"
        }
      ],
      "stateMutability": "view",
      "type": "function"
    },
    {
      "inputs": [
        {
          "internalType": "address[]",
          "name": "accounts",
          "type": "address[]"
        },
        {
          "internalType": "uint256[]",
          "name": "ids",
          "type": "uint256[]"
        }
      ],
      "name": "balanceOfBatch",
      "outputs": [
        {
          "internalType": "uint256[]",
          "name": "",
          "type": "uint256[]"
        }
      ],
      "stateMutability": "view",
      "type": "function"
    },
    {
      "inputs": [],
      "name": "bundleTotalSupply",
      "outputs": [
        {
          "internalType": "uint256",
          "name": "",
          "type": "uint256"
        }
      ],
      "stateMutability": "view",
      "type": "function"
    },
    {
      "inputs": [
        {
          "internalType": "address",
          "name": "_recipient",
          "type": "address"
        }
      ],
      "name": "getMintPassCount",
      "outputs": [
        {
          "internalType": "string",
          "name": "",
          "type": "string"
        }
      ],
      "stateMutability": "view",
      "type": "function"
    },
    {
      "inputs": [],
      "name": "getPricePerBundle",
      "outputs": [
        {
          "internalType": "uint256",
          "name": "",
          "type": "uint256"
        }
      ],
      "stateMutability": "view",
      "type": "function"
    },
    {
      "inputs": [
        {
          "internalType": "address",
          "name": "account",
          "type": "address"
        },
        {
          "internalType": "address",
          "name": "operator",
          "type": "address"
        }
      ],
      "name": "isApprovedForAll",
      "outputs": [
        {
          "internalType": "bool",
          "name": "",
          "type": "bool"
        }
      ],
      "stateMutability": "view",
      "type": "function"
    },
    {
      "inputs": [
        {
          "internalType": "bytes32[]",
          "name": "_merkleProof",
          "type": "bytes32[]"
        },
        {
          "internalType": "uint256",
          "name": "_maxAmount",
          "type": "uint256"
        }
      ],
      "name": "mintBundle",
      "outputs": [],
      "stateMutability": "payable",
      "type": "function"
    },
    {
      "inputs": [
        {
          "internalType": "address[]",
          "name": "_giveaways",
          "type": "address[]"
        }
      ],
      "name": "mintPassGiveaway",
      "outputs": [],
      "stateMutability": "nonpayable",
      "type": "function"
    },
    {
      "inputs": [
        {
          "internalType": "uint256",
          "name": "",
          "type": "uint256"
        }
      ],
      "name": "mintersList",
      "outputs": [
        {
          "internalType": "address",
          "name": "",
          "type": "address"
        }
      ],
      "stateMutability": "view",
      "type": "function"
    },
    {
      "inputs": [],
      "name": "owner",
      "outputs": [
        {
          "internalType": "address",
          "name": "",
          "type": "address"
        }
      ],
      "stateMutability": "view",
      "type": "function"
    },
    {
      "inputs": [],
      "name": "presaleMintCount",
      "outputs": [
        {
          "internalType": "uint256",
          "name": "",
          "type": "uint256"
        }
      ],
      "stateMutability": "view",
      "type": "function"
    },
    {
      "inputs": [],
      "name": "receiptTotalSupply",
      "outputs": [
        {
          "internalType": "uint256",
          "name": "",
          "type": "uint256"
        }
      ],
      "stateMutability": "view",
      "type": "function"
    },
    {
      "inputs": [],
      "name": "renounceOwnership",
      "outputs": [],
      "stateMutability": "nonpayable",
      "type": "function"
    },
    {
      "inputs": [
        {
          "internalType": "address",
          "name": "from",
          "type": "address"
        },
        {
          "internalType": "address",
          "name": "to",
          "type": "address"
        },
        {
          "internalType": "uint256[]",
          "name": "ids",
          "type": "uint256[]"
        },
        {
          "internalType": "uint256[]",
          "name": "amounts",
          "type": "uint256[]"
        },
        {
          "internalType": "bytes",
          "name": "data",
          "type": "bytes"
        }
      ],
      "name": "safeBatchTransferFrom",
      "outputs": [],
      "stateMutability": "nonpayable",
      "type": "function"
    },
    {
      "inputs": [
        {
          "internalType": "address",
          "name": "from",
          "type": "address"
        },
        {
          "internalType": "address",
          "name": "to",
          "type": "address"
        },
        {
          "internalType": "uint256",
          "name": "id",
          "type": "uint256"
        },
        {
          "internalType": "uint256",
          "name": "amount",
          "type": "uint256"
        },
        {
          "internalType": "bytes",
          "name": "data",
          "type": "bytes"
        }
      ],
      "name": "safeTransferFrom",
      "outputs": [],
      "stateMutability": "nonpayable",
      "type": "function"
    },
    {
      "inputs": [
        {
          "internalType": "address",
          "name": "operator",
          "type": "address"
        },
        {
          "internalType": "bool",
          "name": "approved",
          "type": "bool"
        }
      ],
      "name": "setApprovalForAll",
      "outputs": [],
      "stateMutability": "nonpayable",
      "type": "function"
    },
    {
      "inputs": [],
      "name": "setFruitieSale",
      "outputs": [],
      "stateMutability": "nonpayable",
      "type": "function"
    },
    {
      "inputs": [
        {
          "internalType": "bytes32",
          "name": "_merkleRoot",
          "type": "bytes32"
        }
      ],
      "name": "setMerkleRoot",
      "outputs": [],
      "stateMutability": "nonpayable",
      "type": "function"
    },
    {
      "inputs": [
        {
          "internalType": "uint256",
          "name": "_gwei",
          "type": "uint256"
        }
      ],
      "name": "setPricePerBundle",
      "outputs": [],
      "stateMutability": "nonpayable",
      "type": "function"
    },
    {
      "inputs": [],
      "name": "setPublicSale",
      "outputs": [],
      "stateMutability": "nonpayable",
      "type": "function"
    },
    {
      "inputs": [
        {
          "internalType": "uint256",
          "name": "_vifSaleStartTime",
          "type": "uint256"
        },
        {
          "internalType": "uint256",
          "name": "_presaleStartTime",
          "type": "uint256"
        },
        {
          "internalType": "uint256",
          "name": "_publicSaleStartTime",
          "type": "uint256"
        }
      ],
      "name": "setSaleTime",
      "outputs": [],
      "stateMutability": "nonpayable",
      "type": "function"
    },
    {
      "inputs": [
        {
          "internalType": "uint256",
          "name": "_vifMintAmount",
          "type": "uint256"
        },
        {
          "internalType": "uint256",
          "name": "_presaleMintAmount",
          "type": "uint256"
        }
      ],
      "name": "setSeason",
      "outputs": [],
      "stateMutability": "nonpayable",
      "type": "function"
    },
    {
      "inputs": [],
      "name": "setVifSale",
      "outputs": [],
      "stateMutability": "nonpayable",
      "type": "function"
    },
    {
      "inputs": [
        {
          "internalType": "bytes4",
          "name": "interfaceId",
          "type": "bytes4"
        }
      ],
      "name": "supportsInterface",
      "outputs": [
        {
          "internalType": "bool",
          "name": "",
          "type": "bool"
        }
      ],
      "stateMutability": "view",
      "type": "function"
    },
    {
      "inputs": [
        {
          "internalType": "address",
          "name": "newOwner",
          "type": "address"
        }
      ],
      "name": "transferOwnership",
      "outputs": [],
      "stateMutability": "nonpayable",
      "type": "function"
    },
    {
      "inputs": [
        {
          "internalType": "uint256",
          "name": "_tokenId",
          "type": "uint256"
        }
      ],
      "name": "uri",
      "outputs": [
        {
          "internalType": "string",
          "name": "",
          "type": "string"
        }
      ],
      "stateMutability": "view",
      "type": "function"
    },
    {
      "inputs": [],
      "name": "useMintPass",
      "outputs": [],
      "stateMutability": "nonpayable",
      "type": "function"
    },
    {
      "inputs": [],
      "name": "vifMintCount",
      "outputs": [
        {
          "internalType": "uint256",
          "name": "",
          "type": "uint256"
        }
      ],
      "stateMutability": "view",
      "type": "function"
    },
    {
      "inputs": [],
      "name": "withdrawBalance",
      "outputs": [],
      "stateMutability": "nonpayable",
      "type": "function"
    }
  ],
  "bytecode": "0x60806040526001600455620186a160055567016345785d8a00006008556000600d60006101000a81548160ff0219169083151502179055506000600d60016101000a81548160ff0219169083151502179055506000600d60026101000a81548160ff0219169083151502179055503480156200007a57600080fd5b5060405162005a9138038062005a918339818101604052810190620000a091906200043a565b620000c0620000b46200010360201b60201c565b6200010b60201b60201c565b6001600381905550620000d981620001d160201b60201c565b6064601081905550610159600f81905550610bb86007819055506103e860068190555050620004ef565b600033905090565b6000600260009054906101000a900473ffffffffffffffffffffffffffffffffffffffff16905081600260006101000a81548173ffffffffffffffffffffffffffffffffffffffff021916908373ffffffffffffffffffffffffffffffffffffffff1602179055508173ffffffffffffffffffffffffffffffffffffffff168173ffffffffffffffffffffffffffffffffffffffff167f8be0079c531659141344cd1fd0a4f28419497f9722a3daafe3b4186f6b6457e060405160405180910390a35050565b80600e9080519060200190620001e9929190620001ed565b5050565b828054620001fb90620004ba565b90600052602060002090601f0160209004810192826200021f57600085556200026b565b82601f106200023a57805160ff19168380011785556200026b565b828001600101855582156200026b579182015b828111156200026a5782518255916020019190600101906200024d565b5b5090506200027a91906200027e565b5090565b5b80821115620002995760008160009055506001016200027f565b5090565b6000604051905090565b600080fd5b600080fd5b600080fd5b600080fd5b6000601f19601f8301169050919050565b7f4e487b7100000000000000000000000000000000000000000000000000000000600052604160045260246000fd5b6200030682620002bb565b810181811067ffffffffffffffff82111715620003285762000327620002cc565b5b80604052505050565b60006200033d6200029d565b90506200034b8282620002fb565b919050565b600067ffffffffffffffff8211156200036e576200036d620002cc565b5b6200037982620002bb565b9050602081019050919050565b60005b83811015620003a657808201518184015260208101905062000389565b83811115620003b6576000848401525b50505050565b6000620003d3620003cd8462000350565b62000331565b905082815260208101848484011115620003f257620003f1620002b6565b5b620003ff84828562000386565b509392505050565b600082601f8301126200041f576200041e620002b1565b5b815162000431848260208601620003bc565b91505092915050565b600060208284031215620004535762000452620002a7565b5b600082015167ffffffffffffffff811115620004745762000473620002ac565b5b620004828482850162000407565b91505092915050565b7f4e487b7100000000000000000000000000000000000000000000000000000000600052602260045260246000fd5b60006002820490506001821680620004d357607f821691505b602082108103620004e957620004e86200048b565b5b50919050565b61559280620004ff6000396000f3fe6080604052600436106101cc5760003560e01c8063650f9e9b116100f75780638da5cb5b11610095578063e985e9c511610064578063e985e9c514610627578063f242432a14610664578063f2fde38b1461068d578063fc9d7e0d146106b6576101cc565b80638da5cb5b1461056b578063a22cb46514610596578063b7d1919c146105bf578063c7d77ee5146105ea576101cc565b8063715018a6116100d1578063715018a6146104d55780637b1b1bb0146104ec5780637cb64759146105175780638623511b14610540576101cc565b8063650f9e9b146104445780636ef101821461046f5780637138e4b3146104ac576101cc565b80632eb2c2d61161016f5780634e1273f41161013e5780634e1273f41461039c5780635141742c146103d957806356f8f78c146104165780635fd8c7101461042d576101cc565b80632eb2c2d6146102f857806334c30bf5146103215780633efc52001461034a5780634825b65e14610373576101cc565b80630cf92e04116101ab5780630cf92e04146102625780630e89341c1461028d5780630e942da8146102ca578063114e691d146102e1576101cc565b8062fdd58e146101d157806301044a571461020e57806301ffc9a714610225575b600080fd5b3480156101dd57600080fd5b506101f860048036038101906101f391906131f4565b6106d2565b6040516102059190613243565b60405180910390f35b34801561021a57600080fd5b5061022361079a565b005b34801561023157600080fd5b5061024c600480360381019061024791906132b6565b610842565b60405161025991906132fe565b60405180910390f35b34801561026e57600080fd5b50610277610924565b6040516102849190613243565b60405180910390f35b34801561029957600080fd5b506102b460048036038101906102af9190613319565b61092a565b6040516102c191906133df565b60405180910390f35b3480156102d657600080fd5b506102df6109d6565b005b3480156102ed57600080fd5b506102f6610a7e565b005b34801561030457600080fd5b5061031f600480360381019061031a91906135fe565b610bb2565b005b34801561032d57600080fd5b5061034860048036038101906103439190613728565b610c53565b005b34801561035657600080fd5b50610371600480360381019061036c9190613319565b610d71565b005b34801561037f57600080fd5b5061039a60048036038101906103959190613775565b610df7565b005b3480156103a857600080fd5b506103c360048036038101906103be9190613878565b610f2d565b6040516103d091906139ae565b60405180910390f35b3480156103e557600080fd5b5061040060048036038101906103fb91906139d0565b611046565b60405161040d9190613243565b60405180910390f35b34801561042257600080fd5b5061042b61105e565b005b34801561043957600080fd5b50610442611106565b005b34801561045057600080fd5b5061045961120e565b6040516104669190613243565b60405180910390f35b34801561047b57600080fd5b50610496600480360381019061049191906139d0565b611218565b6040516104a391906133df565b60405180910390f35b3480156104b857600080fd5b506104d360048036038101906104ce91906139fd565b611288565b005b3480156104e157600080fd5b506104ea6113a2565b005b3480156104f857600080fd5b5061050161142a565b60405161050e9190613243565b60405180910390f35b34801561052357600080fd5b5061053e60048036038101906105399190613a86565b611434565b005b34801561054c57600080fd5b506105556114ba565b6040516105629190613243565b60405180910390f35b34801561057757600080fd5b506105806114c4565b60405161058d9190613ac2565b60405180910390f35b3480156105a257600080fd5b506105bd60048036038101906105b89190613b09565b6114ee565b005b3480156105cb57600080fd5b506105d4611504565b6040516105e19190613243565b60405180910390f35b3480156105f657600080fd5b50610611600480360381019061060c9190613319565b61150a565b60405161061e9190613ac2565b60405180910390f35b34801561063357600080fd5b5061064e60048036038101906106499190613b49565b611549565b60405161065b91906132fe565b60405180910390f35b34801561067057600080fd5b5061068b60048036038101906106869190613b89565b6115dd565b005b34801561069957600080fd5b506106b460048036038101906106af91906139d0565b61167e565b005b6106d060048036038101906106cb9190613ce3565b611775565b005b60008073ffffffffffffffffffffffffffffffffffffffff168373ffffffffffffffffffffffffffffffffffffffff1603610742576040517f08c379a000000000000000000000000000000000000000000000000000000000815260040161073990613db1565b60405180910390fd5b60008083815260200190815260200160002060008473ffffffffffffffffffffffffffffffffffffffff1673ffffffffffffffffffffffffffffffffffffffff16815260200190815260200160002054905092915050565b6107a2611d49565b73ffffffffffffffffffffffffffffffffffffffff166107c06114c4565b73ffffffffffffffffffffffffffffffffffffffff1614610816576040517f08c379a000000000000000000000000000000000000000000000000000000000815260040161080d90613e1d565b60405180910390fd5b600d60019054906101000a900460ff1615600d60016101000a81548160ff021916908315150217905550565b60007fd9b67a26000000000000000000000000000000000000000000000000000000007bffffffffffffffffffffffffffffffffffffffffffffffffffffffff1916827bffffffffffffffffffffffffffffffffffffffffffffffffffffffff1916148061090d57507f0e89341c000000000000000000000000000000000000000000000000000000007bffffffffffffffffffffffffffffffffffffffffffffffffffffffff1916827bffffffffffffffffffffffffffffffffffffffffffffffffffffffff1916145b8061091d575061091c82611d51565b5b9050919050565b60105481565b6060620186a082111561096957600e61094283611dbb565b604051602001610953929190614005565b60405160208183030381529060405290506109d1565b600082036109a357600e61097c83611dbb565b60405160200161098d92919061408b565b60405160208183030381529060405290506109d1565b600e6109ae83611dbb565b6040516020016109bf929190614111565b60405160208183030381529060405290505b919050565b6109de611d49565b73ffffffffffffffffffffffffffffffffffffffff166109fc6114c4565b73ffffffffffffffffffffffffffffffffffffffff1614610a52576040517f08c379a0000000000000000000000000000000000000000000000000000000008152600401610a4990613e1d565b60405180910390fd5b600d60009054906101000a900460ff1615600d60006101000a81548160ff021916908315150217905550565b600060065411610ac3576040517f08c379a0000000000000000000000000000000000000000000000000000000008152600401610aba90614197565b60405180910390fd5b6000601360003373ffffffffffffffffffffffffffffffffffffffff1673ffffffffffffffffffffffffffffffffffffffff1681526020019081526020016000205411610b45576040517f08c379a0000000000000000000000000000000000000000000000000000000008152600401610b3c90614203565b60405180910390fd5b6000610b4f611d49565b9050601360008273ffffffffffffffffffffffffffffffffffffffff1673ffffffffffffffffffffffffffffffffffffffff1681526020019081526020016000206000815480929190610ba190614252565b9190505550610baf81611f1b565b50565b610bba611d49565b73ffffffffffffffffffffffffffffffffffffffff168573ffffffffffffffffffffffffffffffffffffffff161480610c005750610bff85610bfa611d49565b611549565b5b610c3f576040517f08c379a0000000000000000000000000000000000000000000000000000000008152600401610c36906142ed565b60405180910390fd5b610c4c85858585856121e2565b5050505050565b610c5b611d49565b73ffffffffffffffffffffffffffffffffffffffff16610c796114c4565b73ffffffffffffffffffffffffffffffffffffffff1614610ccf576040517f08c379a0000000000000000000000000000000000000000000000000000000008152600401610cc690613e1d565b60405180910390fd5b60005b82829050811015610d6c5760136000848484818110610cf457610cf361430d565b5b9050602002016020810190610d0991906139d0565b73ffffffffffffffffffffffffffffffffffffffff1673ffffffffffffffffffffffffffffffffffffffff1681526020019081526020016000206000815480929190610d549061433c565b91905055508080610d649061433c565b915050610cd2565b505050565b610d79611d49565b73ffffffffffffffffffffffffffffffffffffffff16610d976114c4565b73ffffffffffffffffffffffffffffffffffffffff1614610ded576040517f08c379a0000000000000000000000000000000000000000000000000000000008152600401610de490613e1d565b60405180910390fd5b8060088190555050565b610dff611d49565b73ffffffffffffffffffffffffffffffffffffffff16610e1d6114c4565b73ffffffffffffffffffffffffffffffffffffffff1614610e73576040517f08c379a0000000000000000000000000000000000000000000000000000000008152600401610e6a90613e1d565b60405180910390fd5b60006006541115610eb9576040517f08c379a0000000000000000000000000000000000000000000000000000000008152600401610eb0906143f6565b60405180910390fd5b6103e8600681905550610bb8600754610ed29190614416565b6007819055508160108190555080600f81905550610eee6124e7565b7fe3d47dee33b959cc59941f840525125123544e1f194b235f340f0c6147697ac333610bb8604051610f219291906144b1565b60405180910390a15050565b60608151835114610f73576040517f08c379a0000000000000000000000000000000000000000000000000000000008152600401610f6a9061454c565b60405180910390fd5b6000835167ffffffffffffffff811115610f9057610f8f613406565b5b604051908082528060200260200182016040528015610fbe5781602001602082028036833780820191505090505b50905060005b845181101561103b5761100b858281518110610fe357610fe261430d565b5b6020026020010151858381518110610ffe57610ffd61430d565b5b60200260200101516106d2565b82828151811061101e5761101d61430d565b5b602002602001018181525050806110349061433c565b9050610fc4565b508091505092915050565b60136020528060005260406000206000915090505481565b611066611d49565b73ffffffffffffffffffffffffffffffffffffffff166110846114c4565b73ffffffffffffffffffffffffffffffffffffffff16146110da576040517f08c379a00000000000000000000000000000000000000000000000000000000081526004016110d190613e1d565b60405180910390fd5b600d60029054906101000a900460ff1615600d60026101000a81548160ff021916908315150217905550565b61110e611d49565b73ffffffffffffffffffffffffffffffffffffffff1661112c6114c4565b73ffffffffffffffffffffffffffffffffffffffff1614611182576040517f08c379a000000000000000000000000000000000000000000000000000000000815260040161117990613e1d565b60405180910390fd5b600047116111c5576040517f08c379a00000000000000000000000000000000000000000000000000000000081526004016111bc906145b8565b60405180910390fd5b3373ffffffffffffffffffffffffffffffffffffffff166108fc479081150290604051600060405180830381858888f1935050505015801561120b573d6000803e3d6000fd5b50565b6000600754905090565b6060611262601360008473ffffffffffffffffffffffffffffffffffffffff1673ffffffffffffffffffffffffffffffffffffffff16815260200190815260200160002054611dbb565b60405160200161127291906145d8565b6040516020818303038152906040529050919050565b611290611d49565b73ffffffffffffffffffffffffffffffffffffffff166112ae6114c4565b73ffffffffffffffffffffffffffffffffffffffff1614611304576040517f08c379a00000000000000000000000000000000000000000000000000000000081526004016112fb90613e1d565b60405180910390fd5b828211611346576040517f08c379a000000000000000000000000000000000000000000000000000000000815260040161133d90614661565b60405180910390fd5b818111611388576040517f08c379a000000000000000000000000000000000000000000000000000000000815260040161137f906146f3565b60405180910390fd5b82600a8190555081600b8190555080600c81905550505050565b6113aa611d49565b73ffffffffffffffffffffffffffffffffffffffff166113c86114c4565b73ffffffffffffffffffffffffffffffffffffffff161461141e576040517f08c379a000000000000000000000000000000000000000000000000000000000815260040161141590613e1d565b60405180910390fd5b611428600061259e565b565b6000600854905090565b61143c611d49565b73ffffffffffffffffffffffffffffffffffffffff1661145a6114c4565b73ffffffffffffffffffffffffffffffffffffffff16146114b0576040517f08c379a00000000000000000000000000000000000000000000000000000000081526004016114a790613e1d565b60405180910390fd5b8060098190555050565b6000600654905090565b6000600260009054906101000a900473ffffffffffffffffffffffffffffffffffffffff16905090565b6115006114f9611d49565b8383612664565b5050565b600f5481565b6011818154811061151a57600080fd5b906000526020600020016000915054906101000a900473ffffffffffffffffffffffffffffffffffffffff1681565b6000600160008473ffffffffffffffffffffffffffffffffffffffff1673ffffffffffffffffffffffffffffffffffffffff16815260200190815260200160002060008373ffffffffffffffffffffffffffffffffffffffff1673ffffffffffffffffffffffffffffffffffffffff16815260200190815260200160002060009054906101000a900460ff16905092915050565b6115e5611d49565b73ffffffffffffffffffffffffffffffffffffffff168573ffffffffffffffffffffffffffffffffffffffff16148061162b575061162a85611625611d49565b611549565b5b61166a576040517f08c379a000000000000000000000000000000000000000000000000000000000815260040161166190614785565b60405180910390fd5b61167785858585856127d0565b5050505050565b611686611d49565b73ffffffffffffffffffffffffffffffffffffffff166116a46114c4565b73ffffffffffffffffffffffffffffffffffffffff16146116fa576040517f08c379a00000000000000000000000000000000000000000000000000000000081526004016116f190613e1d565b60405180910390fd5b600073ffffffffffffffffffffffffffffffffffffffff168173ffffffffffffffffffffffffffffffffffffffff1603611769576040517f08c379a000000000000000000000000000000000000000000000000000000000815260040161176090614817565b60405180910390fd5b6117728161259e565b50565b6002600354036117ba576040517f08c379a00000000000000000000000000000000000000000000000000000000081526004016117b190614883565b60405180910390fd5b600260038190555060006117cc611d49565b9050600d60009054906101000a900460ff1680156117f157506117f083601e612a33565b5b15611879576001601260008373ffffffffffffffffffffffffffffffffffffffff1673ffffffffffffffffffffffffffffffffffffffff1681526020019081526020016000205410611878576040517f08c379a000000000000000000000000000000000000000000000000000000000815260040161186f90614961565b60405180910390fd5b5b600d60019054906101000a900460ff16801561189b575061189a8383612a33565b5b1561192c57601e820361192b576002601260008373ffffffffffffffffffffffffffffffffffffffff1673ffffffffffffffffffffffffffffffffffffffff168152602001908152602001600020541061192a576040517f08c379a000000000000000000000000000000000000000000000000000000000815260040161192190614a3f565b60405180910390fd5b5b5b601482036119b7576001601260008373ffffffffffffffffffffffffffffffffffffffff1673ffffffffffffffffffffffffffffffffffffffff16815260200190815260200160002054106119b6576040517f08c379a00000000000000000000000000000000000000000000000000000000081526004016119ad90614af7565b60405180910390fd5b5b600d60029054906101000a900460ff1615611b9557601e821480156119e257506119e18383612a33565b5b15611a6e576003601260008373ffffffffffffffffffffffffffffffffffffffff1673ffffffffffffffffffffffffffffffffffffffff1681526020019081526020016000205410611a69576040517f08c379a0000000000000000000000000000000000000000000000000000000008152600401611a6090614b89565b60405180910390fd5b611b94565b601482148015611a845750611a838383612a33565b5b15611b10576002601260008373ffffffffffffffffffffffffffffffffffffffff1673ffffffffffffffffffffffffffffffffffffffff1681526020019081526020016000205410611b0b576040517f08c379a0000000000000000000000000000000000000000000000000000000008152600401611b0290614c41565b60405180910390fd5b611b93565b6001601260008373ffffffffffffffffffffffffffffffffffffffff1673ffffffffffffffffffffffffffffffffffffffff1681526020019081526020016000205410611b92576040517f08c379a0000000000000000000000000000000000000000000000000000000008152600401611b8990614cd3565b60405180910390fd5b5b5b5b67016345785d8a0000341015611be0576040517f08c379a0000000000000000000000000000000000000000000000000000000008152600401611bd790614d65565b60405180910390fd5b600060065411611c25576040517f08c379a0000000000000000000000000000000000000000000000000000000008152600401611c1c90614dd1565b60405180910390fd5b6000611c2f611d49565b9050611c3a81611f1b565b6001601260008373ffffffffffffffffffffffffffffffffffffffff1673ffffffffffffffffffffffffffffffffffffffff168152602001908152602001600020541015611ce6576011819080600181540180825580915050600190039060005260206000200160009091909190916101000a81548173ffffffffffffffffffffffffffffffffffffffff021916908373ffffffffffffffffffffffffffffffffffffffff1602179055505b601260008273ffffffffffffffffffffffffffffffffffffffff1673ffffffffffffffffffffffffffffffffffffffff1681526020019081526020016000206000815480929190611d369061433c565b9190505550505060016003819055505050565b600033905090565b60007f01ffc9a7000000000000000000000000000000000000000000000000000000007bffffffffffffffffffffffffffffffffffffffffffffffffffffffff1916827bffffffffffffffffffffffffffffffffffffffffffffffffffffffff1916149050919050565b606060008203611e02576040518060400160405280600181526020017f30000000000000000000000000000000000000000000000000000000000000008152509050611f16565b600082905060005b60008214611e34578080611e1d9061433c565b915050600a82611e2d9190614e20565b9150611e0a565b60008167ffffffffffffffff811115611e5057611e4f613406565b5b6040519080825280601f01601f191660200182016040528015611e825781602001600182028036833780820191505090505b5090505b60008514611f0f57600182611e9b9190614e51565b9150600a85611eaa9190614e85565b6030611eb69190614416565b60f81b818381518110611ecc57611ecb61430d565b5b60200101907effffffffffffffffffffffffffffffffffffffffffffffffffffffffffffff1916908160001a905350600a85611f089190614e20565b9450611e86565b8093505050505b919050565b6000600667ffffffffffffffff811115611f3857611f37613406565b5b604051908082528060200260200182016040528015611f665781602001602082028036833780820191505090505b5090506000600667ffffffffffffffff811115611f8657611f85613406565b5b604051908082528060200260200182016040528015611fb45781602001602082028036833780820191505090505b509050600182600081518110611fcd57611fcc61430d565b5b602002602001018181525050600182600181518110611fef57611fee61430d565b5b6020026020010181815250506001826002815181106120115761201061430d565b5b6020026020010181815250506001826003815181106120335761203261430d565b5b6020026020010181815250506001826004815181106120555761205461430d565b5b6020026020010181815250506003826005815181106120775761207661430d565b5b6020026020010181815250506004548160008151811061209a5761209961430d565b5b602002602001018181525050600460008154809291906120b99061433c565b9190505550600454816001815181106120d5576120d461430d565b5b602002602001018181525050600460008154809291906120f49061433c565b9190505550600454816002815181106121105761210f61430d565b5b6020026020010181815250506004600081548092919061212f9061433c565b91905055506004548160038151811061214b5761214a61430d565b5b6020026020010181815250506004600081548092919061216a9061433c565b9190505550600554816004815181106121865761218561430d565b5b602002602001018181525050600560008154809291906121a59061433c565b91905055506121c583828460405180602001604052806000815250612a8c565b600660008154809291906121d890614252565b9190505550505050565b8151835114612226576040517f08c379a000000000000000000000000000000000000000000000000000000000815260040161221d90614f28565b60405180910390fd5b600073ffffffffffffffffffffffffffffffffffffffff168473ffffffffffffffffffffffffffffffffffffffff1603612295576040517f08c379a000000000000000000000000000000000000000000000000000000000815260040161228c90614fba565b60405180910390fd5b600061229f611d49565b905060005b84518110156124525760008582815181106122c2576122c161430d565b5b6020026020010151905060008583815181106122e1576122e061430d565b5b60200260200101519050600080600084815260200190815260200160002060008b73ffffffffffffffffffffffffffffffffffffffff1673ffffffffffffffffffffffffffffffffffffffff16815260200190815260200160002054905081811015612382576040517f08c379a00000000000000000000000000000000000000000000000000000000081526004016123799061504c565b60405180910390fd5b81810360008085815260200190815260200160002060008c73ffffffffffffffffffffffffffffffffffffffff1673ffffffffffffffffffffffffffffffffffffffff168152602001908152602001600020819055508160008085815260200190815260200160002060008b73ffffffffffffffffffffffffffffffffffffffff1673ffffffffffffffffffffffffffffffffffffffff16815260200190815260200160002060008282546124379190614416565b925050819055505050508061244b9061433c565b90506122a4565b508473ffffffffffffffffffffffffffffffffffffffff168673ffffffffffffffffffffffffffffffffffffffff168273ffffffffffffffffffffffffffffffffffffffff167f4a39dc06d4c0dbc64b70af90fd698a233a518aa5d07e595d983b8c0526c8f7fb87876040516124c992919061506c565b60405180910390a46124df818787878787612c9a565b505050505050565b60005b60118054905081101561258d57600060126000601184815481106125115761251061430d565b5b9060005260206000200160009054906101000a900473ffffffffffffffffffffffffffffffffffffffff1673ffffffffffffffffffffffffffffffffffffffff1673ffffffffffffffffffffffffffffffffffffffff1681526020019081526020016000208190555080806125859061433c565b9150506124ea565b506011600061259c919061310e565b565b6000600260009054906101000a900473ffffffffffffffffffffffffffffffffffffffff16905081600260006101000a81548173ffffffffffffffffffffffffffffffffffffffff021916908373ffffffffffffffffffffffffffffffffffffffff1602179055508173ffffffffffffffffffffffffffffffffffffffff168173ffffffffffffffffffffffffffffffffffffffff167f8be0079c531659141344cd1fd0a4f28419497f9722a3daafe3b4186f6b6457e060405160405180910390a35050565b8173ffffffffffffffffffffffffffffffffffffffff168373ffffffffffffffffffffffffffffffffffffffff16036126d2576040517f08c379a00000000000000000000000000000000000000000000000000000000081526004016126c990615115565b60405180910390fd5b80600160008573ffffffffffffffffffffffffffffffffffffffff1673ffffffffffffffffffffffffffffffffffffffff16815260200190815260200160002060008473ffffffffffffffffffffffffffffffffffffffff1673ffffffffffffffffffffffffffffffffffffffff16815260200190815260200160002060006101000a81548160ff0219169083151502179055508173ffffffffffffffffffffffffffffffffffffffff168373ffffffffffffffffffffffffffffffffffffffff167f17307eab39ab6107e8899845ad3d59bd9653f200f220920489ca2b5937696c31836040516127c391906132fe565b60405180910390a3505050565b600073ffffffffffffffffffffffffffffffffffffffff168473ffffffffffffffffffffffffffffffffffffffff160361283f576040517f08c379a000000000000000000000000000000000000000000000000000000000815260040161283690614fba565b60405180910390fd5b6000612849611d49565b9050600080600086815260200190815260200160002060008873ffffffffffffffffffffffffffffffffffffffff1673ffffffffffffffffffffffffffffffffffffffff168152602001908152602001600020549050838110156128e2576040517f08c379a00000000000000000000000000000000000000000000000000000000081526004016128d99061504c565b60405180910390fd5b83810360008087815260200190815260200160002060008973ffffffffffffffffffffffffffffffffffffffff1673ffffffffffffffffffffffffffffffffffffffff168152602001908152602001600020819055508360008087815260200190815260200160002060008873ffffffffffffffffffffffffffffffffffffffff1673ffffffffffffffffffffffffffffffffffffffff16815260200190815260200160002060008282546129979190614416565b925050819055508573ffffffffffffffffffffffffffffffffffffffff168773ffffffffffffffffffffffffffffffffffffffff168373ffffffffffffffffffffffffffffffffffffffff167fc3d58168c5ae7397731d063d5bbf3d657854427343f4c083240f7aacaa2d0f628888604051612a14929190615135565b60405180910390a4612a2a828888888888612e71565b50505050505050565b600080612a3e611d49565b9050600081612a4c85611dbb565b604051602001612a5d92919061515e565b604051602081830303815290604052805190602001209050612a828560095483613048565b9250505092915050565b600073ffffffffffffffffffffffffffffffffffffffff168473ffffffffffffffffffffffffffffffffffffffff1603612afb576040517f08c379a0000000000000000000000000000000000000000000000000000000008152600401612af290615200565b60405180910390fd5b8151835114612b3f576040517f08c379a0000000000000000000000000000000000000000000000000000000008152600401612b3690614f28565b60405180910390fd5b6000612b49611d49565b905060005b8451811015612c0457838181518110612b6a57612b6961430d565b5b6020026020010151600080878481518110612b8857612b8761430d565b5b6020026020010151815260200190815260200160002060008873ffffffffffffffffffffffffffffffffffffffff1673ffffffffffffffffffffffffffffffffffffffff1681526020019081526020016000206000828254612bea9190614416565b925050819055508080612bfc9061433c565b915050612b4e565b508473ffffffffffffffffffffffffffffffffffffffff16600073ffffffffffffffffffffffffffffffffffffffff168273ffffffffffffffffffffffffffffffffffffffff167f4a39dc06d4c0dbc64b70af90fd698a233a518aa5d07e595d983b8c0526c8f7fb8787604051612c7c92919061506c565b60405180910390a4612c9381600087878787612c9a565b5050505050565b612cb98473ffffffffffffffffffffffffffffffffffffffff1661305f565b15612e69578373ffffffffffffffffffffffffffffffffffffffff1663bc197c8187878686866040518663ffffffff1660e01b8152600401612cff959493929190615275565b6020604051808303816000875af1925050508015612d3b57506040513d601f19601f82011682018060405250810190612d3891906152f2565b60015b612de057612d4761532c565b806308c379a003612da35750612d5b61534e565b80612d665750612da5565b806040517f08c379a0000000000000000000000000000000000000000000000000000000008152600401612d9a91906133df565b60405180910390fd5b505b6040517f08c379a0000000000000000000000000000000000000000000000000000000008152600401612dd790615450565b60405180910390fd5b63bc197c8160e01b7bffffffffffffffffffffffffffffffffffffffffffffffffffffffff1916817bffffffffffffffffffffffffffffffffffffffffffffffffffffffff191614612e67576040517f08c379a0000000000000000000000000000000000000000000000000000000008152600401612e5e906154e2565b60405180910390fd5b505b505050505050565b612e908473ffffffffffffffffffffffffffffffffffffffff1661305f565b15613040578373ffffffffffffffffffffffffffffffffffffffff1663f23a6e6187878686866040518663ffffffff1660e01b8152600401612ed6959493929190615502565b6020604051808303816000875af1925050508015612f1257506040513d601f19601f82011682018060405250810190612f0f91906152f2565b60015b612fb757612f1e61532c565b806308c379a003612f7a5750612f3261534e565b80612f3d5750612f7c565b806040517f08c379a0000000000000000000000000000000000000000000000000000000008152600401612f7191906133df565b60405180910390fd5b505b6040517f08c379a0000000000000000000000000000000000000000000000000000000008152600401612fae90615450565b60405180910390fd5b63f23a6e6160e01b7bffffffffffffffffffffffffffffffffffffffffffffffffffffffff1916817bffffffffffffffffffffffffffffffffffffffffffffffffffffffff19161461303e576040517f08c379a0000000000000000000000000000000000000000000000000000000008152600401613035906154e2565b60405180910390fd5b505b505050505050565b6000826130558584613082565b1490509392505050565b6000808273ffffffffffffffffffffffffffffffffffffffff163b119050919050565b60008082905060005b84518110156130ec5760008582815181106130a9576130a861430d565b5b602002602001015190508083116130cb576130c483826130f7565b92506130d8565b6130d581846130f7565b92505b5080806130e49061433c565b91505061308b565b508091505092915050565b600082600052816020526040600020905092915050565b508054600082559060005260206000209081019061312c919061312f565b50565b5b80821115613148576000816000905550600101613130565b5090565b6000604051905090565b600080fd5b600080fd5b600073ffffffffffffffffffffffffffffffffffffffff82169050919050565b600061318b82613160565b9050919050565b61319b81613180565b81146131a657600080fd5b50565b6000813590506131b881613192565b92915050565b6000819050919050565b6131d1816131be565b81146131dc57600080fd5b50565b6000813590506131ee816131c8565b92915050565b6000806040838503121561320b5761320a613156565b5b6000613219858286016131a9565b925050602061322a858286016131df565b9150509250929050565b61323d816131be565b82525050565b60006020820190506132586000830184613234565b92915050565b60007fffffffff0000000000000000000000000000000000000000000000000000000082169050919050565b6132938161325e565b811461329e57600080fd5b50565b6000813590506132b08161328a565b92915050565b6000602082840312156132cc576132cb613156565b5b60006132da848285016132a1565b91505092915050565b60008115159050919050565b6132f8816132e3565b82525050565b600060208201905061331360008301846132ef565b92915050565b60006020828403121561332f5761332e613156565b5b600061333d848285016131df565b91505092915050565b600081519050919050565b600082825260208201905092915050565b60005b83811015613380578082015181840152602081019050613365565b8381111561338f576000848401525b50505050565b6000601f19601f8301169050919050565b60006133b182613346565b6133bb8185613351565b93506133cb818560208601613362565b6133d481613395565b840191505092915050565b600060208201905081810360008301526133f981846133a6565b905092915050565b600080fd5b7f4e487b7100000000000000000000000000000000000000000000000000000000600052604160045260246000fd5b61343e82613395565b810181811067ffffffffffffffff8211171561345d5761345c613406565b5b80604052505050565b600061347061314c565b905061347c8282613435565b919050565b600067ffffffffffffffff82111561349c5761349b613406565b5b602082029050602081019050919050565b600080fd5b60006134c56134c084613481565b613466565b905080838252602082019050602084028301858111156134e8576134e76134ad565b5b835b8181101561351157806134fd88826131df565b8452602084019350506020810190506134ea565b5050509392505050565b600082601f8301126135305761352f613401565b5b81356135408482602086016134b2565b91505092915050565b600080fd5b600067ffffffffffffffff82111561356957613568613406565b5b61357282613395565b9050602081019050919050565b82818337600083830152505050565b60006135a161359c8461354e565b613466565b9050828152602081018484840111156135bd576135bc613549565b5b6135c884828561357f565b509392505050565b600082601f8301126135e5576135e4613401565b5b81356135f584826020860161358e565b91505092915050565b600080600080600060a0868803121561361a57613619613156565b5b6000613628888289016131a9565b9550506020613639888289016131a9565b945050604086013567ffffffffffffffff81111561365a5761365961315b565b5b6136668882890161351b565b935050606086013567ffffffffffffffff8111156136875761368661315b565b5b6136938882890161351b565b925050608086013567ffffffffffffffff8111156136b4576136b361315b565b5b6136c0888289016135d0565b9150509295509295909350565b600080fd5b60008083601f8401126136e8576136e7613401565b5b8235905067ffffffffffffffff811115613705576137046136cd565b5b602083019150836020820283011115613721576137206134ad565b5b9250929050565b6000806020838503121561373f5761373e613156565b5b600083013567ffffffffffffffff81111561375d5761375c61315b565b5b613769858286016136d2565b92509250509250929050565b6000806040838503121561378c5761378b613156565b5b600061379a858286016131df565b92505060206137ab858286016131df565b9150509250929050565b600067ffffffffffffffff8211156137d0576137cf613406565b5b602082029050602081019050919050565b60006137f46137ef846137b5565b613466565b90508083825260208201905060208402830185811115613817576138166134ad565b5b835b81811015613840578061382c88826131a9565b845260208401935050602081019050613819565b5050509392505050565b600082601f83011261385f5761385e613401565b5b813561386f8482602086016137e1565b91505092915050565b6000806040838503121561388f5761388e613156565b5b600083013567ffffffffffffffff8111156138ad576138ac61315b565b5b6138b98582860161384a565b925050602083013567ffffffffffffffff8111156138da576138d961315b565b5b6138e68582860161351b565b9150509250929050565b600081519050919050565b600082825260208201905092915050565b6000819050602082019050919050565b613925816131be565b82525050565b6000613937838361391c565b60208301905092915050565b6000602082019050919050565b600061395b826138f0565b61396581856138fb565b93506139708361390c565b8060005b838110156139a1578151613988888261392b565b975061399383613943565b925050600181019050613974565b5085935050505092915050565b600060208201905081810360008301526139c88184613950565b905092915050565b6000602082840312156139e6576139e5613156565b5b60006139f4848285016131a9565b91505092915050565b600080600060608486031215613a1657613a15613156565b5b6000613a24868287016131df565b9350506020613a35868287016131df565b9250506040613a46868287016131df565b9150509250925092565b6000819050919050565b613a6381613a50565b8114613a6e57600080fd5b50565b600081359050613a8081613a5a565b92915050565b600060208284031215613a9c57613a9b613156565b5b6000613aaa84828501613a71565b91505092915050565b613abc81613180565b82525050565b6000602082019050613ad76000830184613ab3565b92915050565b613ae6816132e3565b8114613af157600080fd5b50565b600081359050613b0381613add565b92915050565b60008060408385031215613b2057613b1f613156565b5b6000613b2e858286016131a9565b9250506020613b3f85828601613af4565b9150509250929050565b60008060408385031215613b6057613b5f613156565b5b6000613b6e858286016131a9565b9250506020613b7f858286016131a9565b9150509250929050565b600080600080600060a08688031215613ba557613ba4613156565b5b6000613bb3888289016131a9565b9550506020613bc4888289016131a9565b9450506040613bd5888289016131df565b9350506060613be6888289016131df565b925050608086013567ffffffffffffffff811115613c0757613c0661315b565b5b613c13888289016135d0565b9150509295509295909350565b600067ffffffffffffffff821115613c3b57613c3a613406565b5b602082029050602081019050919050565b6000613c5f613c5a84613c20565b613466565b90508083825260208201905060208402830185811115613c8257613c816134ad565b5b835b81811015613cab5780613c978882613a71565b845260208401935050602081019050613c84565b5050509392505050565b600082601f830112613cca57613cc9613401565b5b8135613cda848260208601613c4c565b91505092915050565b60008060408385031215613cfa57613cf9613156565b5b600083013567ffffffffffffffff811115613d1857613d1761315b565b5b613d2485828601613cb5565b9250506020613d35858286016131df565b9150509250929050565b7f455243313135353a2062616c616e636520717565727920666f7220746865207a60008201527f65726f2061646472657373000000000000000000000000000000000000000000602082015250565b6000613d9b602b83613351565b9150613da682613d3f565b604082019050919050565b60006020820190508181036000830152613dca81613d8e565b9050919050565b7f4f776e61626c653a2063616c6c6572206973206e6f7420746865206f776e6572600082015250565b6000613e07602083613351565b9150613e1282613dd1565b602082019050919050565b60006020820190508181036000830152613e3681613dfa565b9050919050565b7f4e487b7100000000000000000000000000000000000000000000000000000000600052602260045260246000fd5b60006002820490506001821680613e8457607f821691505b602082108103613e9757613e96613e3d565b5b50919050565b600081905092915050565b60008190508160005260206000209050919050565b60008154613eca81613e6c565b613ed48186613e9d565b94506001821660008114613eef5760018114613f0057613f33565b60ff19831686528186019350613f33565b613f0985613ea8565b60005b83811015613f2b57815481890152600182019150602081019050613f0c565b838801955050505b50505092915050565b7f2f34696e31732f00000000000000000000000000000000000000000000000000600082015250565b6000613f72600783613e9d565b9150613f7d82613f3c565b600782019050919050565b6000613f9382613346565b613f9d8185613e9d565b9350613fad818560208601613362565b80840191505092915050565b7f2e6a736f6e000000000000000000000000000000000000000000000000000000600082015250565b6000613fef600583613e9d565b9150613ffa82613fb9565b600582019050919050565b60006140118285613ebd565b915061401c82613f65565b91506140288284613f88565b915061403382613fe2565b91508190509392505050565b7f2f72656365697074732f00000000000000000000000000000000000000000000600082015250565b6000614075600a83613e9d565b91506140808261403f565b600a82019050919050565b60006140978285613ebd565b91506140a282614068565b91506140ae8284613f88565b91506140b982613fe2565b91508190509392505050565b7f2f6672756974732f000000000000000000000000000000000000000000000000600082015250565b60006140fb600883613e9d565b9150614106826140c5565b600882019050919050565b600061411d8285613ebd565b9150614128826140ee565b91506141348284613f88565b915061413f82613fe2565b91508190509392505050565b7f416c6c2062756e646c65732068617665206265656e206d696e7465642e000000600082015250565b6000614181601d83613351565b915061418c8261414b565b602082019050919050565b600060208201905081810360008301526141b081614174565b9050919050565b7f596f7520646f206e6f74206861766520612066726565206d696e740000000000600082015250565b60006141ed601b83613351565b91506141f8826141b7565b602082019050919050565b6000602082019050818103600083015261421c816141e0565b9050919050565b7f4e487b7100000000000000000000000000000000000000000000000000000000600052601160045260246000fd5b600061425d826131be565b9150600082036142705761426f614223565b5b600182039050919050565b7f455243313135353a207472616e736665722063616c6c6572206973206e6f742060008201527f6f776e6572206e6f7220617070726f7665640000000000000000000000000000602082015250565b60006142d7603283613351565b91506142e28261427b565b604082019050919050565b60006020820190508181036000830152614306816142ca565b9050919050565b7f4e487b7100000000000000000000000000000000000000000000000000000000600052603260045260246000fd5b6000614347826131be565b91507fffffffffffffffffffffffffffffffffffffffffffffffffffffffffffffffff820361437957614378614223565b5b600182019050919050565b7f416c6c2062756e646c65732068617665206e6f74206265656e20676976656e2060008201527f61776179206f7220736f6c640000000000000000000000000000000000000000602082015250565b60006143e0602c83613351565b91506143eb82614384565b604082019050919050565b6000602082019050818103600083015261440f816143d3565b9050919050565b6000614421826131be565b915061442c836131be565b9250827fffffffffffffffffffffffffffffffffffffffffffffffffffffffffffffffff0382111561446157614460614223565b5b828201905092915050565b6000819050919050565b6000819050919050565b600061449b6144966144918461446c565b614476565b6131be565b9050919050565b6144ab81614480565b82525050565b60006040820190506144c66000830185613ab3565b6144d360208301846144a2565b9392505050565b7f455243313135353a206163636f756e747320616e6420696473206c656e67746860008201527f206d69736d617463680000000000000000000000000000000000000000000000602082015250565b6000614536602983613351565b9150614541826144da565b604082019050919050565b6000602082019050818103600083015261456581614529565b9050919050565b7f4e6f20657468657220696e20636f6e7472616374000000000000000000000000600082015250565b60006145a2601483613351565b91506145ad8261456c565b602082019050919050565b600060208201905081810360008301526145d181614595565b9050919050565b60006145e48284613f88565b915081905092915050565b7f50726573616c65204d757374206265206c61746572207468616e20566966205360008201527f616c650000000000000000000000000000000000000000000000000000000000602082015250565b600061464b602383613351565b9150614656826145ef565b604082019050919050565b6000602082019050818103600083015261467a8161463e565b9050919050565b7f5075626c69632073616c65206d757374206265206c61746572207468616e207460008201527f68652070726573616c6500000000000000000000000000000000000000000000602082015250565b60006146dd602a83613351565b91506146e882614681565b604082019050919050565b6000602082019050818103600083015261470c816146d0565b9050919050565b7f455243313135353a2063616c6c6572206973206e6f74206f776e6572206e6f7260008201527f20617070726f7665640000000000000000000000000000000000000000000000602082015250565b600061476f602983613351565b915061477a82614713565b604082019050919050565b6000602082019050818103600083015261479e81614762565b9050919050565b7f4f776e61626c653a206e6577206f776e657220697320746865207a65726f206160008201527f6464726573730000000000000000000000000000000000000000000000000000602082015250565b6000614801602683613351565b915061480c826147a5565b604082019050919050565b60006020820190508181036000830152614830816147f4565b9050919050565b7f5265656e7472616e637947756172643a207265656e7472616e742063616c6c00600082015250565b600061486d601f83613351565b915061487882614837565b602082019050919050565b6000602082019050818103600083015261489c81614860565b9050919050565b7f596f75206861766520626f7567687420746865206d617820616d6f756e74206f60008201527f66206672756974206261736b65747320666f7220746865205649462073616c6560208201527f2e205761697420756e74696c204672756974792073616c6520746f207075726360408201527f68617365206d6f72652e00000000000000000000000000000000000000000000606082015250565b600061494b606a83613351565b9150614956826148a3565b608082019050919050565b6000602082019050818103600083015261497a8161493e565b9050919050565b7f596f75206861766520626f7567687420746865206d617820616d6f756e74206f60008201527f66206672756974206261736b657473206173206120564946206d656d6265722e60208201527f205761697420756e74696c207075626c69632073616c6520746f20707572636860408201527f617365206d6f72652e0000000000000000000000000000000000000000000000606082015250565b6000614a29606983613351565b9150614a3482614981565b608082019050919050565b60006020820190508181036000830152614a5881614a1c565b9050919050565b7f596f75206861766520626f7567687420746865206d617820616d6f756e74206f60008201527f66206672756974206261736b657473206173206120467275697479204d656d6260208201527f65722e205761697420756e74696c207075626c69632073616c652e0000000000604082015250565b6000614ae1605b83613351565b9150614aec82614a5f565b606082019050919050565b60006020820190508181036000830152614b1081614ad4565b9050919050565b7f596f75206861766520626f7567687420746865206d617820616d6f756e74206f60008201527f66206672756974206261736b657473206173206120564946206d656d6265722e602082015250565b6000614b73604083613351565b9150614b7e82614b17565b604082019050919050565b60006020820190508181036000830152614ba281614b66565b9050919050565b7f596f75206861766520626f7567687420746865206d617820616d6f756e74206f60008201527f66206672756974206261736b657473206173206120467275697479204d656d6260208201527f65722e0000000000000000000000000000000000000000000000000000000000604082015250565b6000614c2b604383613351565b9150614c3682614ba9565b606082019050919050565b60006020820190508181036000830152614c5a81614c1e565b9050919050565b7f4f6e6c7920616c6c6f776564206f6e65207075726368617365206f662061206660008201527f727569746261736b657420647572696e672070726573616c6500000000000000602082015250565b6000614cbd603983613351565b9150614cc882614c61565b604082019050919050565b60006020820190508181036000830152614cec81614cb0565b9050919050565b7f4e6f7420656e6f756768206574686572207761732073656e7420746f2070757260008201527f636861736520796f7572206672756974206261736b65742e0000000000000000602082015250565b6000614d4f603883613351565b9150614d5a82614cf3565b604082019050919050565b60006020820190508181036000830152614d7e81614d42565b9050919050565b7f416c6c2042756e646c65732068617665206265656e206d696e7465642e000000600082015250565b6000614dbb601d83613351565b9150614dc682614d85565b602082019050919050565b60006020820190508181036000830152614dea81614dae565b9050919050565b7f4e487b7100000000000000000000000000000000000000000000000000000000600052601260045260246000fd5b6000614e2b826131be565b9150614e36836131be565b925082614e4657614e45614df1565b5b828204905092915050565b6000614e5c826131be565b9150614e67836131be565b925082821015614e7a57614e79614223565b5b828203905092915050565b6000614e90826131be565b9150614e9b836131be565b925082614eab57614eaa614df1565b5b828206905092915050565b7f455243313135353a2069647320616e6420616d6f756e7473206c656e6774682060008201527f6d69736d61746368000000000000000000000000000000000000000000000000602082015250565b6000614f12602883613351565b9150614f1d82614eb6565b604082019050919050565b60006020820190508181036000830152614f4181614f05565b9050919050565b7f455243313135353a207472616e7366657220746f20746865207a65726f20616460008201527f6472657373000000000000000000000000000000000000000000000000000000602082015250565b6000614fa4602583613351565b9150614faf82614f48565b604082019050919050565b60006020820190508181036000830152614fd381614f97565b9050919050565b7f455243313135353a20696e73756666696369656e742062616c616e636520666f60008201527f72207472616e7366657200000000000000000000000000000000000000000000602082015250565b6000615036602a83613351565b915061504182614fda565b604082019050919050565b6000602082019050818103600083015261506581615029565b9050919050565b600060408201905081810360008301526150868185613950565b9050818103602083015261509a8184613950565b90509392505050565b7f455243313135353a2073657474696e6720617070726f76616c2073746174757360008201527f20666f722073656c660000000000000000000000000000000000000000000000602082015250565b60006150ff602983613351565b915061510a826150a3565b604082019050919050565b6000602082019050818103600083015261512e816150f2565b9050919050565b600060408201905061514a6000830185613234565b6151576020830184613234565b9392505050565b60006040820190506151736000830185613ab3565b818103602083015261518581846133a6565b90509392505050565b7f455243313135353a206d696e7420746f20746865207a65726f2061646472657360008201527f7300000000000000000000000000000000000000000000000000000000000000602082015250565b60006151ea602183613351565b91506151f58261518e565b604082019050919050565b60006020820190508181036000830152615219816151dd565b9050919050565b600081519050919050565b600082825260208201905092915050565b600061524782615220565b615251818561522b565b9350615261818560208601613362565b61526a81613395565b840191505092915050565b600060a08201905061528a6000830188613ab3565b6152976020830187613ab3565b81810360408301526152a98186613950565b905081810360608301526152bd8185613950565b905081810360808301526152d1818461523c565b90509695505050505050565b6000815190506152ec8161328a565b92915050565b60006020828403121561530857615307613156565b5b6000615316848285016152dd565b91505092915050565b60008160e01c9050919050565b600060033d111561534b5760046000803e61534860005161531f565b90505b90565b600060443d106153db5761536061314c565b60043d036004823e80513d602482011167ffffffffffffffff821117156153885750506153db565b808201805167ffffffffffffffff8111156153a657505050506153db565b80602083010160043d0385018111156153c35750505050506153db565b6153d282602001850186613435565b82955050505050505b90565b7f455243313135353a207472616e7366657220746f206e6f6e204552433131353560008201527f526563656976657220696d706c656d656e746572000000000000000000000000602082015250565b600061543a603483613351565b9150615445826153de565b604082019050919050565b600060208201905081810360008301526154698161542d565b9050919050565b7f455243313135353a204552433131353552656365697665722072656a6563746560008201527f6420746f6b656e73000000000000000000000000000000000000000000000000602082015250565b60006154cc602883613351565b91506154d782615470565b604082019050919050565b600060208201905081810360008301526154fb816154bf565b9050919050565b600060a0820190506155176000830188613ab3565b6155246020830187613ab3565b6155316040830186613234565b61553e6060830185613234565b8181036080830152615550818461523c565b9050969550505050505056fea2646970667358221220d463fe4896680a251aeda2f886f5db5bb21af5b09818533c26477dd7c5df41e764736f6c634300080d0033",
  "linkReferences": {},
  "deployedLinkReferences": {}
}