{
  "_format": "hh-sol-artifact-1",
  "contractName": "DemoOptimized",
  "sourceName": "contracts/DemoOptimized.sol",
  "abi": [
    {
      "inputs": [
        {
          "internalType": "string",
          "name": "uri",
          "type": "string"
        },
        {
          "internalType": "string",
          "name": "uriHidden",
          "type": "string"
        }
      ],
      "stateMutability": "nonpayable",
      "type": "constructor"
    },
    {
      "anonymous": false,
      "inputs": [
        {
          "indexed": true,
          "internalType": "address",
          "name": "account",
          "type": "address"
        },
        {
          "indexed": true,
          "internalType": "address",
          "name": "operator",
          "type": "address"
        },
        {
          "indexed": false,
          "internalType": "bool",
          "name": "approved",
          "type": "bool"
        }
      ],
      "name": "ApprovalForAll",
      "type": "event"
    },
    {
      "anonymous": false,
      "inputs": [
        {
          "indexed": false,
          "internalType": "address",
          "name": "_sender",
          "type": "address"
        },
        {
          "indexed": false,
          "internalType": "uint256",
          "name": "_supply",
          "type": "uint256"
        }
      ],
      "name": "IncreaseBundleSupply",
      "type": "event"
    },
    {
      "anonymous": false,
      "inputs": [
        {
          "indexed": false,
          "internalType": "address",
          "name": "_sender",
          "type": "address"
        },
        {
          "indexed": false,
          "internalType": "uint256",
          "name": "_supply",
          "type": "uint256"
        }
      ],
      "name": "IncreaseReceiptSupply",
      "type": "event"
    },
    {
      "anonymous": false,
      "inputs": [
        {
          "indexed": true,
          "internalType": "address",
          "name": "previousOwner",
          "type": "address"
        },
        {
          "indexed": true,
          "internalType": "address",
          "name": "newOwner",
          "type": "address"
        }
      ],
      "name": "OwnershipTransferred",
      "type": "event"
    },
    {
      "anonymous": false,
      "inputs": [
        {
          "indexed": false,
          "internalType": "uint256",
          "name": "_presaleStartTime",
          "type": "uint256"
        },
        {
          "indexed": false,
          "internalType": "uint256",
          "name": "_saleStartTime",
          "type": "uint256"
        }
      ],
      "name": "SaleHasBeenSet",
      "type": "event"
    },
    {
      "anonymous": false,
      "inputs": [
        {
          "indexed": true,
          "internalType": "address",
          "name": "operator",
          "type": "address"
        },
        {
          "indexed": true,
          "internalType": "address",
          "name": "from",
          "type": "address"
        },
        {
          "indexed": true,
          "internalType": "address",
          "name": "to",
          "type": "address"
        },
        {
          "indexed": false,
          "internalType": "uint256[]",
          "name": "ids",
          "type": "uint256[]"
        },
        {
          "indexed": false,
          "internalType": "uint256[]",
          "name": "values",
          "type": "uint256[]"
        }
      ],
      "name": "TransferBatch",
      "type": "event"
    },
    {
      "anonymous": false,
      "inputs": [
        {
          "indexed": true,
          "internalType": "address",
          "name": "operator",
          "type": "address"
        },
        {
          "indexed": true,
          "internalType": "address",
          "name": "from",
          "type": "address"
        },
        {
          "indexed": true,
          "internalType": "address",
          "name": "to",
          "type": "address"
        },
        {
          "indexed": false,
          "internalType": "uint256",
          "name": "id",
          "type": "uint256"
        },
        {
          "indexed": false,
          "internalType": "uint256",
          "name": "value",
          "type": "uint256"
        }
      ],
      "name": "TransferSingle",
      "type": "event"
    },
    {
      "anonymous": false,
      "inputs": [
        {
          "indexed": false,
          "internalType": "string",
          "name": "value",
          "type": "string"
        },
        {
          "indexed": true,
          "internalType": "uint256",
          "name": "id",
          "type": "uint256"
        }
      ],
      "name": "URI",
      "type": "event"
    },
    {
      "inputs": [
        {
          "internalType": "address",
          "name": "account",
          "type": "address"
        },
        {
          "internalType": "uint256",
          "name": "id",
          "type": "uint256"
        }
      ],
      "name": "balanceOf",
      "outputs": [
        {
          "internalType": "uint256",
          "name": "",
          "type": "uint256"
        }
      ],
      "stateMutability": "view",
      "type": "function"
    },
    {
      "inputs": [
        {
          "internalType": "address[]",
          "name": "accounts",
          "type": "address[]"
        },
        {
          "internalType": "uint256[]",
          "name": "ids",
          "type": "uint256[]"
        }
      ],
      "name": "balanceOfBatch",
      "outputs": [
        {
          "internalType": "uint256[]",
          "name": "",
          "type": "uint256[]"
        }
      ],
      "stateMutability": "view",
      "type": "function"
    },
    {
      "inputs": [
        {
          "internalType": "uint256",
          "name": "_fruitTokenId",
          "type": "uint256"
        },
        {
          "internalType": "uint256",
          "name": "_fourInOneTokenId",
          "type": "uint256"
        },
        {
          "internalType": "uint256",
          "name": "_quadrant",
          "type": "uint256"
        }
      ],
      "name": "cuteeExchange",
      "outputs": [],
      "stateMutability": "nonpayable",
      "type": "function"
    },
    {
      "inputs": [],
      "name": "getBalance",
      "outputs": [
        {
          "internalType": "uint256",
          "name": "",
          "type": "uint256"
        }
      ],
      "stateMutability": "view",
      "type": "function"
    },
    {
      "inputs": [
        {
          "internalType": "uint256",
          "name": "tokenId",
          "type": "uint256"
        }
      ],
      "name": "getBalances",
      "outputs": [
        {
          "internalType": "uint256[]",
          "name": "",
          "type": "uint256[]"
        }
      ],
      "stateMutability": "nonpayable",
      "type": "function"
    },
    {
      "inputs": [],
      "name": "getBundleBalance",
      "outputs": [
        {
          "internalType": "uint256",
          "name": "",
          "type": "uint256"
        }
      ],
      "stateMutability": "view",
      "type": "function"
    },
    {
      "inputs": [],
      "name": "getBundleSupply",
      "outputs": [
        {
          "internalType": "uint256",
          "name": "",
          "type": "uint256"
        }
      ],
      "stateMutability": "view",
      "type": "function"
    },
    {
      "inputs": [],
      "name": "getReceiptSupply",
      "outputs": [
        {
          "internalType": "uint256",
          "name": "",
          "type": "uint256"
        }
      ],
      "stateMutability": "view",
      "type": "function"
    },
    {
      "inputs": [
        {
          "internalType": "address",
          "name": "_address",
          "type": "address"
        }
      ],
      "name": "getVIF",
      "outputs": [
        {
          "internalType": "uint256",
          "name": "",
          "type": "uint256"
        }
      ],
      "stateMutability": "view",
      "type": "function"
    },
    {
      "inputs": [],
      "name": "getVIFLeft",
      "outputs": [
        {
          "internalType": "uint256",
          "name": "",
          "type": "uint256"
        }
      ],
      "stateMutability": "view",
      "type": "function"
    },
    {
      "inputs": [
        {
          "internalType": "address[]",
          "name": "_to",
          "type": "address[]"
        }
      ],
      "name": "giveawayMintBatch",
      "outputs": [],
      "stateMutability": "nonpayable",
      "type": "function"
    },
    {
      "inputs": [
        {
          "internalType": "uint256",
          "name": "_supply",
          "type": "uint256"
        }
      ],
      "name": "increaseReceiptSupply",
      "outputs": [],
      "stateMutability": "nonpayable",
      "type": "function"
    },
    {
      "inputs": [
        {
          "internalType": "address",
          "name": "account",
          "type": "address"
        },
        {
          "internalType": "address",
          "name": "operator",
          "type": "address"
        }
      ],
      "name": "isApprovedForAll",
      "outputs": [
        {
          "internalType": "bool",
          "name": "",
          "type": "bool"
        }
      ],
      "stateMutability": "view",
      "type": "function"
    },
    {
      "inputs": [],
      "name": "mintBundle",
      "outputs": [],
      "stateMutability": "payable",
      "type": "function"
    },
    {
      "inputs": [],
      "name": "owner",
      "outputs": [
        {
          "internalType": "address",
          "name": "",
          "type": "address"
        }
      ],
      "stateMutability": "view",
      "type": "function"
    },
    {
      "inputs": [],
      "name": "renounceOwnership",
      "outputs": [],
      "stateMutability": "nonpayable",
      "type": "function"
    },
    {
      "inputs": [
        {
          "internalType": "uint256",
          "name": "_VIFCount",
          "type": "uint256"
        }
      ],
      "name": "resetVIF",
      "outputs": [],
      "stateMutability": "nonpayable",
      "type": "function"
    },
    {
      "inputs": [
        {
          "internalType": "address",
          "name": "from",
          "type": "address"
        },
        {
          "internalType": "address",
          "name": "to",
          "type": "address"
        },
        {
          "internalType": "uint256[]",
          "name": "ids",
          "type": "uint256[]"
        },
        {
          "internalType": "uint256[]",
          "name": "amounts",
          "type": "uint256[]"
        },
        {
          "internalType": "bytes",
          "name": "data",
          "type": "bytes"
        }
      ],
      "name": "safeBatchTransferFrom",
      "outputs": [],
      "stateMutability": "nonpayable",
      "type": "function"
    },
    {
      "inputs": [
        {
          "internalType": "address",
          "name": "from",
          "type": "address"
        },
        {
          "internalType": "address",
          "name": "to",
          "type": "address"
        },
        {
          "internalType": "uint256",
          "name": "id",
          "type": "uint256"
        },
        {
          "internalType": "uint256",
          "name": "amount",
          "type": "uint256"
        },
        {
          "internalType": "bytes",
          "name": "data",
          "type": "bytes"
        }
      ],
      "name": "safeTransferFrom",
      "outputs": [],
      "stateMutability": "nonpayable",
      "type": "function"
    },
    {
      "inputs": [
        {
          "internalType": "address",
          "name": "operator",
          "type": "address"
        },
        {
          "internalType": "bool",
          "name": "approved",
          "type": "bool"
        }
      ],
      "name": "setApprovalForAll",
      "outputs": [],
      "stateMutability": "nonpayable",
      "type": "function"
    },
    {
      "inputs": [
        {
          "internalType": "uint256",
          "name": "_presaleStartTime",
          "type": "uint256"
        },
        {
          "internalType": "uint256",
          "name": "_timeBetweenSales",
          "type": "uint256"
        }
      ],
      "name": "setPresaleStartTime",
      "outputs": [],
      "stateMutability": "nonpayable",
      "type": "function"
    },
    {
      "inputs": [
        {
          "internalType": "uint256",
          "name": "_gwei",
          "type": "uint256"
        }
      ],
      "name": "setPricePerBundle",
      "outputs": [],
      "stateMutability": "nonpayable",
      "type": "function"
    },
    {
      "inputs": [
        {
          "internalType": "uint256",
          "name": "_fruitTokenIdLowerParam",
          "type": "uint256"
        },
        {
          "internalType": "uint256",
          "name": "_fourInOneTokenIdLowerParam",
          "type": "uint256"
        }
      ],
      "name": "setSeasonLowerParams",
      "outputs": [],
      "stateMutability": "nonpayable",
      "type": "function"
    },
    {
      "inputs": [
        {
          "internalType": "address[]",
          "name": "_vifs",
          "type": "address[]"
        }
      ],
      "name": "setVIF",
      "outputs": [],
      "stateMutability": "nonpayable",
      "type": "function"
    },
    {
      "inputs": [
        {
          "internalType": "bytes4",
          "name": "interfaceId",
          "type": "bytes4"
        }
      ],
      "name": "supportsInterface",
      "outputs": [
        {
          "internalType": "bool",
          "name": "",
          "type": "bool"
        }
      ],
      "stateMutability": "view",
      "type": "function"
    },
    {
      "inputs": [
        {
          "internalType": "address",
          "name": "newOwner",
          "type": "address"
        }
      ],
      "name": "transferOwnership",
      "outputs": [],
      "stateMutability": "nonpayable",
      "type": "function"
    },
    {
      "inputs": [
        {
          "internalType": "uint256",
          "name": "_tokenId",
          "type": "uint256"
        }
      ],
      "name": "uri",
      "outputs": [
        {
          "internalType": "string",
          "name": "",
          "type": "string"
        }
      ],
      "stateMutability": "view",
      "type": "function"
    },
    {
      "inputs": [],
      "name": "withdrawBalance",
      "outputs": [],
      "stateMutability": "nonpayable",
      "type": "function"
    }
  ],
  "bytecode": "0x6080604052610bb86005556001600655620186a1600755607b60085561036d60095567016345785d8a00006014556101f46017553480156200004057600080fd5b5060405162005ff638038062005ff68339818101604052810190620000669190620002de565b620000866200007a620000ee60201b60201c565b620000f660201b60201c565b60016004819055506000600e819055506201869f601081905550620186a0600f81905550620f423f60118190555081600c9080519060200190620000cc929190620001bc565b5080600d9080519060200190620000e5929190620001bc565b505050620004c1565b600033905090565b6000600360009054906101000a900473ffffffffffffffffffffffffffffffffffffffff16905081600360006101000a81548173ffffffffffffffffffffffffffffffffffffffff021916908373ffffffffffffffffffffffffffffffffffffffff1602179055508173ffffffffffffffffffffffffffffffffffffffff168173ffffffffffffffffffffffffffffffffffffffff167f8be0079c531659141344cd1fd0a4f28419497f9722a3daafe3b4186f6b6457e060405160405180910390a35050565b828054620001ca90620003e6565b90600052602060002090601f016020900481019282620001ee57600085556200023a565b82601f106200020957805160ff19168380011785556200023a565b828001600101855582156200023a579182015b82811115620002395782518255916020019190600101906200021c565b5b5090506200024991906200024d565b5090565b5b80821115620002685760008160009055506001016200024e565b5090565b6000620002836200027d846200037a565b62000351565b9050828152602081018484840111156200029c57600080fd5b620002a9848285620003b0565b509392505050565b600082601f830112620002c357600080fd5b8151620002d58482602086016200026c565b91505092915050565b60008060408385031215620002f257600080fd5b600083015167ffffffffffffffff8111156200030d57600080fd5b6200031b85828601620002b1565b925050602083015167ffffffffffffffff8111156200033957600080fd5b6200034785828601620002b1565b9150509250929050565b60006200035d62000370565b90506200036b82826200041c565b919050565b6000604051905090565b600067ffffffffffffffff82111562000398576200039762000481565b5b620003a382620004b0565b9050602081019050919050565b60005b83811015620003d0578082015181840152602081019050620003b3565b83811115620003e0576000848401525b50505050565b60006002820490506001821680620003ff57607f821691505b6020821081141562000416576200041562000452565b5b50919050565b6200042782620004b0565b810181811067ffffffffffffffff8211171562000449576200044862000481565b5b80604052505050565b7f4e487b7100000000000000000000000000000000000000000000000000000000600052602260045260246000fd5b7f4e487b7100000000000000000000000000000000000000000000000000000000600052604160045260246000fd5b6000601f19601f8301169050919050565b615b2580620004d16000396000f3fe6080604052600436106101b65760003560e01c8063715018a6116100ec5780639b1496081161008a578063cec2e73311610064578063cec2e733146105d4578063e985e9c5146105fd578063f242432a1461063a578063f2fde38b14610663576101b6565b80639b14960814610557578063a22cb46514610580578063b08504e9146105a9576101b6565b806383fc3067116100c657806383fc3067146104af5780638686d795146104d85780638da5cb5b146105015780639171c3da1461052c576101b6565b8063715018a61461044457806376937cef1461045b5780638110b32f14610486576101b6565b80633bdb7c9e11610159578063490adbaf11610133578063490adbaf146103885780634e1273f4146103c55780635f4c5b25146104025780635fd8c7101461042d576101b6565b80633bdb7c9e146103185780633efc520014610355578063410404b71461037e576101b6565b80630e89341c116101955780630e89341c1461025e57806312065fe01461029b57806312a60517146102c65780632eb2c2d6146102ef576101b6565b8062fdd58e146101bb57806301ffc9a7146101f85780630948b38a14610235575b600080fd5b3480156101c757600080fd5b506101e260048036038101906101dd91906141d5565b61068c565b6040516101ef9190614e56565b60405180910390f35b34801561020457600080fd5b5061021f600480360381019061021a9190614303565b610755565b60405161022c9190614af9565b60405180910390f35b34801561024157600080fd5b5061025c6004803603810190610257919061437e565b610837565b005b34801561026a57600080fd5b5061028560048036038101906102809190614355565b61090d565b6040516102929190614b14565b60405180910390f35b3480156102a757600080fd5b506102b0610a04565b6040516102bd9190614e56565b60405180910390f35b3480156102d257600080fd5b506102ed60048036038101906102e8919061437e565b610a88565b005b3480156102fb57600080fd5b506103166004803603810190610311919061404b565b610b16565b005b34801561032457600080fd5b5061033f600480360381019061033a9190613fe6565b610bb7565b60405161034c9190614e56565b60405180910390f35b34801561036157600080fd5b5061037c60048036038101906103779190614355565b610c7c565b005b610386610d02565b005b34801561039457600080fd5b506103af60048036038101906103aa9190614355565b6114ae565b6040516103bc9190614aa0565b60405180910390f35b3480156103d157600080fd5b506103ec60048036038101906103e79190614297565b611548565b6040516103f99190614aa0565b60405180910390f35b34801561040e57600080fd5b506104176116f9565b6040516104249190614e56565b60405180910390f35b34801561043957600080fd5b50610442611703565b005b34801561045057600080fd5b5061045961180b565b005b34801561046757600080fd5b50610470611893565b60405161047d9190614e56565b60405180910390f35b34801561049257600080fd5b506104ad60048036038101906104a891906143ba565b61189d565b005b3480156104bb57600080fd5b506104d660048036038101906104d19190614355565b611e24565b005b3480156104e457600080fd5b506104ff60048036038101906104fa9190614355565b611ef0565b005b34801561050d57600080fd5b50610516612051565b604051610523919061499a565b60405180910390f35b34801561053857600080fd5b5061054161207b565b60405161054e9190614e56565b60405180910390f35b34801561056357600080fd5b5061057e60048036038101906105799190614256565b612101565b005b34801561058c57600080fd5b506105a760048036038101906105a29190614199565b612323565b005b3480156105b557600080fd5b506105be612339565b6040516105cb9190614e56565b60405180910390f35b3480156105e057600080fd5b506105fb60048036038101906105f69190614211565b612380565b005b34801561060957600080fd5b50610624600480360381019061061f919061400f565b6129c3565b6040516106319190614af9565b60405180910390f35b34801561064657600080fd5b50610661600480360381019061065c919061410a565b612a57565b005b34801561066f57600080fd5b5061068a60048036038101906106859190613fe6565b612af8565b005b60008073ffffffffffffffffffffffffffffffffffffffff168373ffffffffffffffffffffffffffffffffffffffff1614156106fd576040517f08c379a00000000000000000000000000000000000000000000000000000000081526004016106f490614b96565b60405180910390fd5b60008083815260200190815260200160002060008473ffffffffffffffffffffffffffffffffffffffff1673ffffffffffffffffffffffffffffffffffffffff16815260200190815260200160002054905092915050565b60007fd9b67a26000000000000000000000000000000000000000000000000000000007bffffffffffffffffffffffffffffffffffffffffffffffffffffffff1916827bffffffffffffffffffffffffffffffffffffffffffffffffffffffff1916148061082057507f0e89341c000000000000000000000000000000000000000000000000000000007bffffffffffffffffffffffffffffffffffffffffffffffffffffffff1916827bffffffffffffffffffffffffffffffffffffffffffffffffffffffff1916145b80610830575061082f82612bf0565b5b9050919050565b61083f612c5a565b73ffffffffffffffffffffffffffffffffffffffff1661085d612051565b73ffffffffffffffffffffffffffffffffffffffff16146108b3576040517f08c379a00000000000000000000000000000000000000000000000000000000081526004016108aa90614cd6565b60405180910390fd5b8160128190555080826108c69190614fd9565b6013819055507f88c7c5a177be8b426acec3417df4c4882059c60453b8e02e6c8d16998919e73e601254601354604051610901929190614e71565b60405180910390a15050565b6060600e5482118015610921575060105482105b8061093a5750600f5482118015610939575060115482105b5b156109d157600d805461094c90615174565b80601f016020809104026020016040519081016040528092919081815260200182805461097890615174565b80156109c55780601f1061099a576101008083540402835291602001916109c5565b820191906000526020600020905b8154815290600101906020018083116109a857829003601f168201915b505050505090506109ff565b600c6109dc83612c62565b6040516020016109ed92919061496b565b60405160208183030381529060405290505b919050565b6000610a0e612c5a565b73ffffffffffffffffffffffffffffffffffffffff16610a2c612051565b73ffffffffffffffffffffffffffffffffffffffff1614610a82576040517f08c379a0000000000000000000000000000000000000000000000000000000008152600401610a7990614cd6565b60405180910390fd5b47905090565b610a90612c5a565b73ffffffffffffffffffffffffffffffffffffffff16610aae612051565b73ffffffffffffffffffffffffffffffffffffffff1614610b04576040517f08c379a0000000000000000000000000000000000000000000000000000000008152600401610afb90614cd6565b60405180910390fd5b81600e8190555080600f819055505050565b610b1e612c5a565b73ffffffffffffffffffffffffffffffffffffffff168573ffffffffffffffffffffffffffffffffffffffff161480610b645750610b6385610b5e612c5a565b6129c3565b5b610ba3576040517f08c379a0000000000000000000000000000000000000000000000000000000008152600401610b9a90614c56565b60405180910390fd5b610bb08585858585612e0f565b5050505050565b6000610bc1612c5a565b73ffffffffffffffffffffffffffffffffffffffff16610bdf612051565b73ffffffffffffffffffffffffffffffffffffffff1614610c35576040517f08c379a0000000000000000000000000000000000000000000000000000000008152600401610c2c90614cd6565b60405180910390fd5b601560008373ffffffffffffffffffffffffffffffffffffffff1673ffffffffffffffffffffffffffffffffffffffff168152602001908152602001600020549050919050565b610c84612c5a565b73ffffffffffffffffffffffffffffffffffffffff16610ca2612051565b73ffffffffffffffffffffffffffffffffffffffff1614610cf8576040517f08c379a0000000000000000000000000000000000000000000000000000000008152600401610cef90614cd6565b60405180910390fd5b8060148190555050565b6012544211610d46576040517f08c379a0000000000000000000000000000000000000000000000000000000008152600401610d3d90614b76565b60405180910390fd5b60125442118015610d58575060135442105b15610de0576000601560003373ffffffffffffffffffffffffffffffffffffffff1673ffffffffffffffffffffffffffffffffffffffff1681526020019081526020016000205411610ddf576040517f08c379a0000000000000000000000000000000000000000000000000000000008152600401610dd690614cf6565b60405180910390fd5b5b60026004541415610e26576040517f08c379a0000000000000000000000000000000000000000000000000000000008152600401610e1d90614df6565b60405180910390fd5b600260048190555067016345785d8a0000341015610e79576040517f08c379a0000000000000000000000000000000000000000000000000000000008152600401610e7090614e36565b60405180910390fd5b6000600a60003373ffffffffffffffffffffffffffffffffffffffff1673ffffffffffffffffffffffffffffffffffffffff1681526020019081526020016000205414610efb576040517f08c379a0000000000000000000000000000000000000000000000000000000008152600401610ef290614d76565b60405180910390fd5b600060095411610f40576040517f08c379a0000000000000000000000000000000000000000000000000000000008152600401610f3790614d16565b60405180910390fd5b6000600667ffffffffffffffff811115610f83577f4e487b7100000000000000000000000000000000000000000000000000000000600052604160045260246000fd5b604051908082528060200260200182016040528015610fb15781602001602082028036833780820191505090505b5090506000600667ffffffffffffffff811115610ff7577f4e487b7100000000000000000000000000000000000000000000000000000000600052604160045260246000fd5b6040519080825280602002602001820160405280156110255781602001602082028036833780820191505090505b509050600182600081518110611064577f4e487b7100000000000000000000000000000000000000000000000000000000600052603260045260246000fd5b6020026020010181815250506001826001815181106110ac577f4e487b7100000000000000000000000000000000000000000000000000000000600052603260045260246000fd5b6020026020010181815250506001826002815181106110f4577f4e487b7100000000000000000000000000000000000000000000000000000000600052603260045260246000fd5b60200260200101818152505060018260038151811061113c577f4e487b7100000000000000000000000000000000000000000000000000000000600052603260045260246000fd5b602002602001018181525050600182600481518110611184577f4e487b7100000000000000000000000000000000000000000000000000000000600052603260045260246000fd5b6020026020010181815250506003826005815181106111cc577f4e487b7100000000000000000000000000000000000000000000000000000000600052603260045260246000fd5b60200260200101818152505060065481600081518110611215577f4e487b7100000000000000000000000000000000000000000000000000000000600052603260045260246000fd5b60200260200101818152505060066000815480929190611234906151d7565b919050555060065481600181518110611276577f4e487b7100000000000000000000000000000000000000000000000000000000600052603260045260246000fd5b60200260200101818152505060066000815480929190611295906151d7565b9190505550600654816002815181106112d7577f4e487b7100000000000000000000000000000000000000000000000000000000600052603260045260246000fd5b602002602001018181525050600660008154809291906112f6906151d7565b919050555060065481600381518110611338577f4e487b7100000000000000000000000000000000000000000000000000000000600052603260045260246000fd5b60200260200101818152505060066000815480929190611357906151d7565b919050555060075481600481518110611399577f4e487b7100000000000000000000000000000000000000000000000000000000600052603260045260246000fd5b602002602001018181525050600760008154809291906113b8906151d7565b91905055506000816005815181106113f9577f4e487b7100000000000000000000000000000000000000000000000000000000600052603260045260246000fd5b602002602001018181525050600a60003373ffffffffffffffffffffffffffffffffffffffff1673ffffffffffffffffffffffffffffffffffffffff1681526020019081526020016000206000815480929190611455906151d7565b919050555061147533828460405180602001604052806000815250613161565b60036005546114849190615060565b6005819055506009600081548092919061149d9061514a565b919050555050506001600481905550565b6060600260003373ffffffffffffffffffffffffffffffffffffffff1673ffffffffffffffffffffffffffffffffffffffff16815260200190815260200160002060010180548060200260200160405190810160405280929190818152602001828054801561153c57602002820191906000526020600020905b815481526020019060010190808311611528575b50505050509050919050565b6060815183511461158e576040517f08c379a000000000000000000000000000000000000000000000000000000000815260040161158590614d96565b60405180910390fd5b6000835167ffffffffffffffff8111156115d1577f4e487b7100000000000000000000000000000000000000000000000000000000600052604160045260246000fd5b6040519080825280602002602001820160405280156115ff5781602001602082028036833780820191505090505b50905060005b84518110156116ee5761169885828151811061164a577f4e487b7100000000000000000000000000000000000000000000000000000000600052603260045260246000fd5b602002602001015185838151811061168b577f4e487b7100000000000000000000000000000000000000000000000000000000600052603260045260246000fd5b602002602001015161068c565b8282815181106116d1577f4e487b7100000000000000000000000000000000000000000000000000000000600052603260045260246000fd5b602002602001018181525050806116e7906151d7565b9050611605565b508091505092915050565b6000600554905090565b61170b612c5a565b73ffffffffffffffffffffffffffffffffffffffff16611729612051565b73ffffffffffffffffffffffffffffffffffffffff161461177f576040517f08c379a000000000000000000000000000000000000000000000000000000000815260040161177690614cd6565b60405180910390fd5b600047116117c2576040517f08c379a00000000000000000000000000000000000000000000000000000000081526004016117b990614d36565b60405180910390fd5b3373ffffffffffffffffffffffffffffffffffffffff166108fc479081150290604051600060405180830381858888f19350505050158015611808573d6000803e3d6000fd5b50565b611813612c5a565b73ffffffffffffffffffffffffffffffffffffffff16611831612051565b73ffffffffffffffffffffffffffffffffffffffff1614611887576040517f08c379a000000000000000000000000000000000000000000000000000000000815260040161187e90614cd6565b60405180910390fd5b61189160006133aa565b565b6000600954905090565b600260045414156118e3576040517f08c379a00000000000000000000000000000000000000000000000000000000081526004016118da90614df6565b60405180910390fd5b60026004819055506000600367ffffffffffffffff81111561192e577f4e487b7100000000000000000000000000000000000000000000000000000000600052604160045260246000fd5b60405190808252806020026020018201604052801561195c5781602001602082028036833780820191505090505b5090506000600367ffffffffffffffff8111156119a2577f4e487b7100000000000000000000000000000000000000000000000000000000600052604160045260246000fd5b6040519080825280602002602001820160405280156119d05781602001602082028036833780820191505090505b5090506000600367ffffffffffffffff811115611a16577f4e487b7100000000000000000000000000000000000000000000000000000000600052604160045260246000fd5b604051908082528060200260200182016040528015611a445781602001602082028036833780820191505090505b5090503383600081518110611a82577f4e487b7100000000000000000000000000000000000000000000000000000000600052603260045260246000fd5b602002602001019073ffffffffffffffffffffffffffffffffffffffff16908173ffffffffffffffffffffffffffffffffffffffff16815250503383600181518110611af7577f4e487b7100000000000000000000000000000000000000000000000000000000600052603260045260246000fd5b602002602001019073ffffffffffffffffffffffffffffffffffffffff16908173ffffffffffffffffffffffffffffffffffffffff16815250503383600281518110611b6c577f4e487b7100000000000000000000000000000000000000000000000000000000600052603260045260246000fd5b602002602001019073ffffffffffffffffffffffffffffffffffffffff16908173ffffffffffffffffffffffffffffffffffffffff16815250508582600081518110611be1577f4e487b7100000000000000000000000000000000000000000000000000000000600052603260045260246000fd5b6020026020010181815250508482600181518110611c28577f4e487b7100000000000000000000000000000000000000000000000000000000600052603260045260246000fd5b602002602001018181525050600082600281518110611c70577f4e487b7100000000000000000000000000000000000000000000000000000000600052603260045260246000fd5b602002602001018181525050611c868383611548565b9050600081600081518110611cc4577f4e487b7100000000000000000000000000000000000000000000000000000000600052603260045260246000fd5b602002602001015111611d0c576040517f08c379a0000000000000000000000000000000000000000000000000000000008152600401611d0390614c96565b60405180910390fd5b600081600181518110611d48577f4e487b7100000000000000000000000000000000000000000000000000000000600052603260045260246000fd5b602002602001015111611d90576040517f08c379a0000000000000000000000000000000000000000000000000000000008152600401611d8790614c76565b60405180910390fd5b600081600281518110611dcc577f4e487b7100000000000000000000000000000000000000000000000000000000600052603260045260246000fd5b602002602001015111611e14576040517f08c379a0000000000000000000000000000000000000000000000000000000008152600401611e0b90614e16565b60405180910390fd5b5050506001600481905550505050565b611e2c612c5a565b73ffffffffffffffffffffffffffffffffffffffff16611e4a612051565b73ffffffffffffffffffffffffffffffffffffffff1614611ea0576040517f08c379a0000000000000000000000000000000000000000000000000000000008152600401611e9790614cd6565b60405180910390fd5b80600554611eae9190614fd9565b6005819055507fe3d47dee33b959cc59941f840525125123544e1f194b235f340f0c6147697ac33382604051611ee5929190614a77565b60405180910390a150565b611ef8612c5a565b73ffffffffffffffffffffffffffffffffffffffff16611f16612051565b73ffffffffffffffffffffffffffffffffffffffff1614611f6c576040517f08c379a0000000000000000000000000000000000000000000000000000000008152600401611f6390614cd6565b60405180910390fd5b60005b6016805490508110156120385760006015600060168481548110611fbc577f4e487b7100000000000000000000000000000000000000000000000000000000600052603260045260246000fd5b9060005260206000200160009054906101000a900473ffffffffffffffffffffffffffffffffffffffff1673ffffffffffffffffffffffffffffffffffffffff1673ffffffffffffffffffffffffffffffffffffffff168152602001908152602001600020819055508080612030906151d7565b915050611f6f565b50601660006120479190613d14565b8060178190555050565b6000600360009054906101000a900473ffffffffffffffffffffffffffffffffffffffff16905090565b6000612085612c5a565b73ffffffffffffffffffffffffffffffffffffffff166120a3612051565b73ffffffffffffffffffffffffffffffffffffffff16146120f9576040517f08c379a00000000000000000000000000000000000000000000000000000000081526004016120f090614cd6565b60405180910390fd5b601754905090565b612109612c5a565b73ffffffffffffffffffffffffffffffffffffffff16612127612051565b73ffffffffffffffffffffffffffffffffffffffff161461217d576040517f08c379a000000000000000000000000000000000000000000000000000000000815260040161217490614cd6565b60405180910390fd5b805160175410156121c3576040517f08c379a00000000000000000000000000000000000000000000000000000000081526004016121ba90614bd6565b60405180910390fd5b60005b815181101561230a5760016015600084848151811061220e577f4e487b7100000000000000000000000000000000000000000000000000000000600052603260045260246000fd5b602002602001015173ffffffffffffffffffffffffffffffffffffffff1673ffffffffffffffffffffffffffffffffffffffff16815260200190815260200160002081905550601682828151811061228f577f4e487b7100000000000000000000000000000000000000000000000000000000600052603260045260246000fd5b60200260200101519080600181540180825580915050600190039060005260206000200160009091909190916101000a81548173ffffffffffffffffffffffffffffffffffffffff021916908373ffffffffffffffffffffffffffffffffffffffff1602179055508080612302906151d7565b9150506121c6565b50805160175461231a9190615060565b60178190555050565b61233561232e612c5a565b8383613470565b5050565b6000600a60003373ffffffffffffffffffffffffffffffffffffffff1673ffffffffffffffffffffffffffffffffffffffff16815260200190815260200160002054905090565b612388612c5a565b73ffffffffffffffffffffffffffffffffffffffff166123a6612051565b73ffffffffffffffffffffffffffffffffffffffff16146123fc576040517f08c379a00000000000000000000000000000000000000000000000000000000081526004016123f390614cd6565b60405180910390fd5b600060085411612441576040517f08c379a000000000000000000000000000000000000000000000000000000000815260040161243890614c16565b60405180910390fd5b6000600667ffffffffffffffff811115612484577f4e487b7100000000000000000000000000000000000000000000000000000000600052604160045260246000fd5b6040519080825280602002602001820160405280156124b25781602001602082028036833780820191505090505b5090506001816000815181106124f1577f4e487b7100000000000000000000000000000000000000000000000000000000600052603260045260246000fd5b602002602001018181525050600181600181518110612539577f4e487b7100000000000000000000000000000000000000000000000000000000600052603260045260246000fd5b602002602001018181525050600181600281518110612581577f4e487b7100000000000000000000000000000000000000000000000000000000600052603260045260246000fd5b6020026020010181815250506001816003815181106125c9577f4e487b7100000000000000000000000000000000000000000000000000000000600052603260045260246000fd5b602002602001018181525050600181600481518110612611577f4e487b7100000000000000000000000000000000000000000000000000000000600052603260045260246000fd5b602002602001018181525050600381600581518110612659577f4e487b7100000000000000000000000000000000000000000000000000000000600052603260045260246000fd5b6020026020010181815250506000600667ffffffffffffffff8111156126a8577f4e487b7100000000000000000000000000000000000000000000000000000000600052604160045260246000fd5b6040519080825280602002602001820160405280156126d65781602001602082028036833780820191505090505b50905060005b848490508110156129bc5760065482600081518110612724577f4e487b7100000000000000000000000000000000000000000000000000000000600052603260045260246000fd5b60200260200101818152505060066000815480929190612743906151d7565b919050555060065482600181518110612785577f4e487b7100000000000000000000000000000000000000000000000000000000600052603260045260246000fd5b602002602001018181525050600660008154809291906127a4906151d7565b9190505550600654826002815181106127e6577f4e487b7100000000000000000000000000000000000000000000000000000000600052603260045260246000fd5b60200260200101818152505060066000815480929190612805906151d7565b919050555060065482600381518110612847577f4e487b7100000000000000000000000000000000000000000000000000000000600052603260045260246000fd5b60200260200101818152505060066000815480929190612866906151d7565b9190505550600754826004815181106128a8577f4e487b7100000000000000000000000000000000000000000000000000000000600052603260045260246000fd5b602002602001018181525050600760008154809291906128c7906151d7565b9190505550600082600581518110612908577f4e487b7100000000000000000000000000000000000000000000000000000000600052603260045260246000fd5b60200260200101818152505061297c858583818110612950577f4e487b7100000000000000000000000000000000000000000000000000000000600052603260045260246000fd5b90506020020160208101906129659190613fe6565b838560405180602001604052806000815250613161565b600360055461298b9190615060565b600581905550600860008154809291906129a49061514a565b919050555080806129b4906151d7565b9150506126dc565b5050505050565b6000600160008473ffffffffffffffffffffffffffffffffffffffff1673ffffffffffffffffffffffffffffffffffffffff16815260200190815260200160002060008373ffffffffffffffffffffffffffffffffffffffff1673ffffffffffffffffffffffffffffffffffffffff16815260200190815260200160002060009054906101000a900460ff16905092915050565b612a5f612c5a565b73ffffffffffffffffffffffffffffffffffffffff168573ffffffffffffffffffffffffffffffffffffffff161480612aa55750612aa485612a9f612c5a565b6129c3565b5b612ae4576040517f08c379a0000000000000000000000000000000000000000000000000000000008152600401612adb90614bf6565b60405180910390fd5b612af185858585856135dd565b5050505050565b612b00612c5a565b73ffffffffffffffffffffffffffffffffffffffff16612b1e612051565b73ffffffffffffffffffffffffffffffffffffffff1614612b74576040517f08c379a0000000000000000000000000000000000000000000000000000000008152600401612b6b90614cd6565b60405180910390fd5b600073ffffffffffffffffffffffffffffffffffffffff168173ffffffffffffffffffffffffffffffffffffffff161415612be4576040517f08c379a0000000000000000000000000000000000000000000000000000000008152600401612bdb90614bb6565b60405180910390fd5b612bed816133aa565b50565b60007f01ffc9a7000000000000000000000000000000000000000000000000000000007bffffffffffffffffffffffffffffffffffffffffffffffffffffffff1916827bffffffffffffffffffffffffffffffffffffffffffffffffffffffff1916149050919050565b600033905090565b60606000821415612caa576040518060400160405280600181526020017f30000000000000000000000000000000000000000000000000000000000000008152509050612e0a565b600082905060005b60008214612cdc578080612cc5906151d7565b915050600a82612cd5919061502f565b9150612cb2565b60008167ffffffffffffffff811115612d1e577f4e487b7100000000000000000000000000000000000000000000000000000000600052604160045260246000fd5b6040519080825280601f01601f191660200182016040528015612d505781602001600182028036833780820191505090505b5090505b60008514612e0357600182612d699190615060565b9150600a85612d789190615220565b6030612d849190614fd9565b60f81b818381518110612dc0577f4e487b7100000000000000000000000000000000000000000000000000000000600052603260045260246000fd5b60200101907effffffffffffffffffffffffffffffffffffffffffffffffffffffffffffff1916908160001a905350600a85612dfc919061502f565b9450612d54565b8093505050505b919050565b8151835114612e53576040517f08c379a0000000000000000000000000000000000000000000000000000000008152600401612e4a90614db6565b60405180910390fd5b600073ffffffffffffffffffffffffffffffffffffffff168473ffffffffffffffffffffffffffffffffffffffff161415612ec3576040517f08c379a0000000000000000000000000000000000000000000000000000000008152600401612eba90614c36565b60405180910390fd5b6000612ecd612c5a565b905060005b84518110156130cc576000858281518110612f16577f4e487b7100000000000000000000000000000000000000000000000000000000600052603260045260246000fd5b602002602001015190506000858381518110612f5b577f4e487b7100000000000000000000000000000000000000000000000000000000600052603260045260246000fd5b60200260200101519050600080600084815260200190815260200160002060008b73ffffffffffffffffffffffffffffffffffffffff1673ffffffffffffffffffffffffffffffffffffffff16815260200190815260200160002054905081811015612ffc576040517f08c379a0000000000000000000000000000000000000000000000000000000008152600401612ff390614cb6565b60405180910390fd5b81810360008085815260200190815260200160002060008c73ffffffffffffffffffffffffffffffffffffffff1673ffffffffffffffffffffffffffffffffffffffff168152602001908152602001600020819055508160008085815260200190815260200160002060008b73ffffffffffffffffffffffffffffffffffffffff1673ffffffffffffffffffffffffffffffffffffffff16815260200190815260200160002060008282546130b19190614fd9565b92505081905550505050806130c5906151d7565b9050612ed2565b508473ffffffffffffffffffffffffffffffffffffffff168673ffffffffffffffffffffffffffffffffffffffff168273ffffffffffffffffffffffffffffffffffffffff167f4a39dc06d4c0dbc64b70af90fd698a233a518aa5d07e595d983b8c0526c8f7fb8787604051613143929190614ac2565b60405180910390a461315981878787878761385d565b505050505050565b600073ffffffffffffffffffffffffffffffffffffffff168473ffffffffffffffffffffffffffffffffffffffff1614156131d1576040517f08c379a00000000000000000000000000000000000000000000000000000000081526004016131c890614dd6565b60405180910390fd5b8151835114613215576040517f08c379a000000000000000000000000000000000000000000000000000000000815260040161320c90614db6565b60405180910390fd5b600061321f612c5a565b905060405180606001604052808273ffffffffffffffffffffffffffffffffffffffff16815260200185815260200184815250600260008373ffffffffffffffffffffffffffffffffffffffff1673ffffffffffffffffffffffffffffffffffffffff16815260200190815260200160002060008201518160000160006101000a81548173ffffffffffffffffffffffffffffffffffffffff021916908373ffffffffffffffffffffffffffffffffffffffff16021790555060208201518160010190805190602001906132f4929190613d35565b506040820151816002019080519060200190613311929190613d35565b509050508473ffffffffffffffffffffffffffffffffffffffff16600073ffffffffffffffffffffffffffffffffffffffff168273ffffffffffffffffffffffffffffffffffffffff167f4a39dc06d4c0dbc64b70af90fd698a233a518aa5d07e595d983b8c0526c8f7fb878760405161338c929190614ac2565b60405180910390a46133a38160008787878761385d565b5050505050565b6000600360009054906101000a900473ffffffffffffffffffffffffffffffffffffffff16905081600360006101000a81548173ffffffffffffffffffffffffffffffffffffffff021916908373ffffffffffffffffffffffffffffffffffffffff1602179055508173ffffffffffffffffffffffffffffffffffffffff168173ffffffffffffffffffffffffffffffffffffffff167f8be0079c531659141344cd1fd0a4f28419497f9722a3daafe3b4186f6b6457e060405160405180910390a35050565b8173ffffffffffffffffffffffffffffffffffffffff168373ffffffffffffffffffffffffffffffffffffffff1614156134df576040517f08c379a00000000000000000000000000000000000000000000000000000000081526004016134d690614d56565b60405180910390fd5b80600160008573ffffffffffffffffffffffffffffffffffffffff1673ffffffffffffffffffffffffffffffffffffffff16815260200190815260200160002060008473ffffffffffffffffffffffffffffffffffffffff1673ffffffffffffffffffffffffffffffffffffffff16815260200190815260200160002060006101000a81548160ff0219169083151502179055508173ffffffffffffffffffffffffffffffffffffffff168373ffffffffffffffffffffffffffffffffffffffff167f17307eab39ab6107e8899845ad3d59bd9653f200f220920489ca2b5937696c31836040516135d09190614af9565b60405180910390a3505050565b600073ffffffffffffffffffffffffffffffffffffffff168473ffffffffffffffffffffffffffffffffffffffff16141561364d576040517f08c379a000000000000000000000000000000000000000000000000000000000815260040161364490614c36565b60405180910390fd5b6000613657612c5a565b9050600061366485613a44565b9050600061367185613a44565b9050600080600088815260200190815260200160002060008a73ffffffffffffffffffffffffffffffffffffffff1673ffffffffffffffffffffffffffffffffffffffff1681526020019081526020016000205490508581101561370a576040517f08c379a000000000000000000000000000000000000000000000000000000000815260040161370190614cb6565b60405180910390fd5b85810360008089815260200190815260200160002060008b73ffffffffffffffffffffffffffffffffffffffff1673ffffffffffffffffffffffffffffffffffffffff168152602001908152602001600020819055508560008089815260200190815260200160002060008a73ffffffffffffffffffffffffffffffffffffffff1673ffffffffffffffffffffffffffffffffffffffff16815260200190815260200160002060008282546137bf9190614fd9565b925050819055508773ffffffffffffffffffffffffffffffffffffffff168973ffffffffffffffffffffffffffffffffffffffff168573ffffffffffffffffffffffffffffffffffffffff167fc3d58168c5ae7397731d063d5bbf3d657854427343f4c083240f7aacaa2d0f628a8a60405161383c929190614e71565b60405180910390a4613852848a8a8a8a8a613b0a565b505050505050505050565b61387c8473ffffffffffffffffffffffffffffffffffffffff16613cf1565b15613a3c578373ffffffffffffffffffffffffffffffffffffffff1663bc197c8187878686866040518663ffffffff1660e01b81526004016138c29594939291906149b5565b602060405180830381600087803b1580156138dc57600080fd5b505af192505050801561390d57506040513d601f19601f8201168201806040525081019061390a919061432c565b60015b6139b35761391961530d565b806308c379a01415613976575061392e6159fd565b806139395750613978565b806040517f08c379a000000000000000000000000000000000000000000000000000000000815260040161396d9190614b14565b60405180910390fd5b505b6040517f08c379a00000000000000000000000000000000000000000000000000000000081526004016139aa90614b36565b60405180910390fd5b63bc197c8160e01b7bffffffffffffffffffffffffffffffffffffffffffffffffffffffff1916817bffffffffffffffffffffffffffffffffffffffffffffffffffffffff191614613a3a576040517f08c379a0000000000000000000000000000000000000000000000000000000008152600401613a3190614b56565b60405180910390fd5b505b505050505050565b60606000600167ffffffffffffffff811115613a89577f4e487b7100000000000000000000000000000000000000000000000000000000600052604160045260246000fd5b604051908082528060200260200182016040528015613ab75781602001602082028036833780820191505090505b5090508281600081518110613af5577f4e487b7100000000000000000000000000000000000000000000000000000000600052603260045260246000fd5b60200260200101818152505080915050919050565b613b298473ffffffffffffffffffffffffffffffffffffffff16613cf1565b15613ce9578373ffffffffffffffffffffffffffffffffffffffff1663f23a6e6187878686866040518663ffffffff1660e01b8152600401613b6f959493929190614a1d565b602060405180830381600087803b158015613b8957600080fd5b505af1925050508015613bba57506040513d601f19601f82011682018060405250810190613bb7919061432c565b60015b613c6057613bc661530d565b806308c379a01415613c235750613bdb6159fd565b80613be65750613c25565b806040517f08c379a0000000000000000000000000000000000000000000000000000000008152600401613c1a9190614b14565b60405180910390fd5b505b6040517f08c379a0000000000000000000000000000000000000000000000000000000008152600401613c5790614b36565b60405180910390fd5b63f23a6e6160e01b7bffffffffffffffffffffffffffffffffffffffffffffffffffffffff1916817bffffffffffffffffffffffffffffffffffffffffffffffffffffffff191614613ce7576040517f08c379a0000000000000000000000000000000000000000000000000000000008152600401613cde90614b56565b60405180910390fd5b505b505050505050565b6000808273ffffffffffffffffffffffffffffffffffffffff163b119050919050565b5080546000825590600052602060002090810190613d329190613d82565b50565b828054828255906000526020600020908101928215613d71579160200282015b82811115613d70578251825591602001919060010190613d55565b5b509050613d7e9190613d82565b5090565b5b80821115613d9b576000816000905550600101613d83565b5090565b6000613db2613dad84614ebf565b614e9a565b90508083825260208201905082856020860282011115613dd157600080fd5b60005b85811015613e015781613de78882613eb5565b845260208401935060208301925050600181019050613dd4565b5050509392505050565b6000613e1e613e1984614eeb565b614e9a565b90508083825260208201905082856020860282011115613e3d57600080fd5b60005b85811015613e6d5781613e538882613fd1565b845260208401935060208301925050600181019050613e40565b5050509392505050565b6000613e8a613e8584614f17565b614e9a565b905082815260208101848484011115613ea257600080fd5b613ead848285615108565b509392505050565b600081359050613ec481615a93565b92915050565b60008083601f840112613edc57600080fd5b8235905067ffffffffffffffff811115613ef557600080fd5b602083019150836020820283011115613f0d57600080fd5b9250929050565b600082601f830112613f2557600080fd5b8135613f35848260208601613d9f565b91505092915050565b600082601f830112613f4f57600080fd5b8135613f5f848260208601613e0b565b91505092915050565b600081359050613f7781615aaa565b92915050565b600081359050613f8c81615ac1565b92915050565b600081519050613fa181615ac1565b92915050565b600082601f830112613fb857600080fd5b8135613fc8848260208601613e77565b91505092915050565b600081359050613fe081615ad8565b92915050565b600060208284031215613ff857600080fd5b600061400684828501613eb5565b91505092915050565b6000806040838503121561402257600080fd5b600061403085828601613eb5565b925050602061404185828601613eb5565b9150509250929050565b600080600080600060a0868803121561406357600080fd5b600061407188828901613eb5565b955050602061408288828901613eb5565b945050604086013567ffffffffffffffff81111561409f57600080fd5b6140ab88828901613f3e565b935050606086013567ffffffffffffffff8111156140c857600080fd5b6140d488828901613f3e565b925050608086013567ffffffffffffffff8111156140f157600080fd5b6140fd88828901613fa7565b9150509295509295909350565b600080600080600060a0868803121561412257600080fd5b600061413088828901613eb5565b955050602061414188828901613eb5565b945050604061415288828901613fd1565b935050606061416388828901613fd1565b925050608086013567ffffffffffffffff81111561418057600080fd5b61418c88828901613fa7565b9150509295509295909350565b600080604083850312156141ac57600080fd5b60006141ba85828601613eb5565b92505060206141cb85828601613f68565b9150509250929050565b600080604083850312156141e857600080fd5b60006141f685828601613eb5565b925050602061420785828601613fd1565b9150509250929050565b6000806020838503121561422457600080fd5b600083013567ffffffffffffffff81111561423e57600080fd5b61424a85828601613eca565b92509250509250929050565b60006020828403121561426857600080fd5b600082013567ffffffffffffffff81111561428257600080fd5b61428e84828501613f14565b91505092915050565b600080604083850312156142aa57600080fd5b600083013567ffffffffffffffff8111156142c457600080fd5b6142d085828601613f14565b925050602083013567ffffffffffffffff8111156142ed57600080fd5b6142f985828601613f3e565b9150509250929050565b60006020828403121561431557600080fd5b600061432384828501613f7d565b91505092915050565b60006020828403121561433e57600080fd5b600061434c84828501613f92565b91505092915050565b60006020828403121561436757600080fd5b600061437584828501613fd1565b91505092915050565b6000806040838503121561439157600080fd5b600061439f85828601613fd1565b92505060206143b085828601613fd1565b9150509250929050565b6000806000606084860312156143cf57600080fd5b60006143dd86828701613fd1565b93505060206143ee86828701613fd1565b92505060406143ff86828701613fd1565b9150509250925092565b6000614415838361494d565b60208301905092915050565b61442a81615094565b82525050565b600061443b82614f6d565b6144458185614f9b565b935061445083614f48565b8060005b838110156144815781516144688882614409565b975061447383614f8e565b925050600181019050614454565b5085935050505092915050565b614497816150a6565b82525050565b60006144a882614f78565b6144b28185614fac565b93506144c2818560208601615117565b6144cb8161532f565b840191505092915050565b60006144e182614f83565b6144eb8185614fbd565b93506144fb818560208601615117565b6145048161532f565b840191505092915050565b600061451a82614f83565b6145248185614fce565b9350614534818560208601615117565b80840191505092915050565b6000815461454d81615174565b6145578186614fce565b945060018216600081146145725760018114614583576145b6565b60ff198316865281860193506145b6565b61458c85614f58565b60005b838110156145ae5781548189015260018201915060208101905061458f565b838801955050505b50505092915050565b60006145cc603483614fbd565b91506145d78261534d565b604082019050919050565b60006145ef602883614fbd565b91506145fa8261539c565b604082019050919050565b6000614612601783614fbd565b915061461d826153eb565b602082019050919050565b6000614635602b83614fbd565b915061464082615414565b604082019050919050565b6000614658602683614fbd565b915061466382615463565b604082019050919050565b600061467b601983614fbd565b9150614686826154b2565b602082019050919050565b600061469e602983614fbd565b91506146a9826154db565b604082019050919050565b60006146c1601183614fbd565b91506146cc8261552a565b602082019050919050565b60006146e4602583614fbd565b91506146ef82615553565b604082019050919050565b6000614707603283614fbd565b9150614712826155a2565b604082019050919050565b600061472a602183614fbd565b9150614735826155f1565b604082019050919050565b600061474d601d83614fbd565b915061475882615640565b602082019050919050565b6000614770602a83614fbd565b915061477b82615669565b604082019050919050565b6000614793600583614fce565b915061479e826156b8565b600582019050919050565b60006147b6602083614fbd565b91506147c1826156e1565b602082019050919050565b60006147d9604083614fbd565b91506147e48261570a565b604082019050919050565b60006147fc601c83614fbd565b915061480782615759565b602082019050919050565b600061481f601483614fbd565b915061482a82615782565b602082019050919050565b6000614842602983614fbd565b915061484d826157ab565b604082019050919050565b6000614865603383614fbd565b9150614870826157fa565b604082019050919050565b6000614888602983614fbd565b915061489382615849565b604082019050919050565b60006148ab602883614fbd565b91506148b682615898565b604082019050919050565b60006148ce602183614fbd565b91506148d9826158e7565b604082019050919050565b60006148f1601f83614fbd565b91506148fc82615936565b602082019050919050565b6000614914602583614fbd565b915061491f8261595f565b604082019050919050565b6000614937602883614fbd565b9150614942826159ae565b604082019050919050565b614956816150fe565b82525050565b614965816150fe565b82525050565b60006149778285614540565b9150614983828461450f565b915061498e82614786565b91508190509392505050565b60006020820190506149af6000830184614421565b92915050565b600060a0820190506149ca6000830188614421565b6149d76020830187614421565b81810360408301526149e98186614430565b905081810360608301526149fd8185614430565b90508181036080830152614a11818461449d565b90509695505050505050565b600060a082019050614a326000830188614421565b614a3f6020830187614421565b614a4c604083018661495c565b614a59606083018561495c565b8181036080830152614a6b818461449d565b90509695505050505050565b6000604082019050614a8c6000830185614421565b614a99602083018461495c565b9392505050565b60006020820190508181036000830152614aba8184614430565b905092915050565b60006040820190508181036000830152614adc8185614430565b90508181036020830152614af08184614430565b90509392505050565b6000602082019050614b0e600083018461448e565b92915050565b60006020820190508181036000830152614b2e81846144d6565b905092915050565b60006020820190508181036000830152614b4f816145bf565b9050919050565b60006020820190508181036000830152614b6f816145e2565b9050919050565b60006020820190508181036000830152614b8f81614605565b9050919050565b60006020820190508181036000830152614baf81614628565b9050919050565b60006020820190508181036000830152614bcf8161464b565b9050919050565b60006020820190508181036000830152614bef8161466e565b9050919050565b60006020820190508181036000830152614c0f81614691565b9050919050565b60006020820190508181036000830152614c2f816146b4565b9050919050565b60006020820190508181036000830152614c4f816146d7565b9050919050565b60006020820190508181036000830152614c6f816146fa565b9050919050565b60006020820190508181036000830152614c8f8161471d565b9050919050565b60006020820190508181036000830152614caf81614740565b9050919050565b60006020820190508181036000830152614ccf81614763565b9050919050565b60006020820190508181036000830152614cef816147a9565b9050919050565b60006020820190508181036000830152614d0f816147cc565b9050919050565b60006020820190508181036000830152614d2f816147ef565b9050919050565b60006020820190508181036000830152614d4f81614812565b9050919050565b60006020820190508181036000830152614d6f81614835565b9050919050565b60006020820190508181036000830152614d8f81614858565b9050919050565b60006020820190508181036000830152614daf8161487b565b9050919050565b60006020820190508181036000830152614dcf8161489e565b9050919050565b60006020820190508181036000830152614def816148c1565b9050919050565b60006020820190508181036000830152614e0f816148e4565b9050919050565b60006020820190508181036000830152614e2f81614907565b9050919050565b60006020820190508181036000830152614e4f8161492a565b9050919050565b6000602082019050614e6b600083018461495c565b92915050565b6000604082019050614e86600083018561495c565b614e93602083018461495c565b9392505050565b6000614ea4614eb5565b9050614eb082826151a6565b919050565b6000604051905090565b600067ffffffffffffffff821115614eda57614ed96152de565b5b602082029050602081019050919050565b600067ffffffffffffffff821115614f0657614f056152de565b5b602082029050602081019050919050565b600067ffffffffffffffff821115614f3257614f316152de565b5b614f3b8261532f565b9050602081019050919050565b6000819050602082019050919050565b60008190508160005260206000209050919050565b600081519050919050565b600081519050919050565b600081519050919050565b6000602082019050919050565b600082825260208201905092915050565b600082825260208201905092915050565b600082825260208201905092915050565b600081905092915050565b6000614fe4826150fe565b9150614fef836150fe565b9250827fffffffffffffffffffffffffffffffffffffffffffffffffffffffffffffffff0382111561502457615023615251565b5b828201905092915050565b600061503a826150fe565b9150615045836150fe565b92508261505557615054615280565b5b828204905092915050565b600061506b826150fe565b9150615076836150fe565b92508282101561508957615088615251565b5b828203905092915050565b600061509f826150de565b9050919050565b60008115159050919050565b60007fffffffff0000000000000000000000000000000000000000000000000000000082169050919050565b600073ffffffffffffffffffffffffffffffffffffffff82169050919050565b6000819050919050565b82818337600083830152505050565b60005b8381101561513557808201518184015260208101905061511a565b83811115615144576000848401525b50505050565b6000615155826150fe565b9150600082141561516957615168615251565b5b600182039050919050565b6000600282049050600182168061518c57607f821691505b602082108114156151a05761519f6152af565b5b50919050565b6151af8261532f565b810181811067ffffffffffffffff821117156151ce576151cd6152de565b5b80604052505050565b60006151e2826150fe565b91507fffffffffffffffffffffffffffffffffffffffffffffffffffffffffffffffff82141561521557615214615251565b5b600182019050919050565b600061522b826150fe565b9150615236836150fe565b92508261524657615245615280565b5b828206905092915050565b7f4e487b7100000000000000000000000000000000000000000000000000000000600052601160045260246000fd5b7f4e487b7100000000000000000000000000000000000000000000000000000000600052601260045260246000fd5b7f4e487b7100000000000000000000000000000000000000000000000000000000600052602260045260246000fd5b7f4e487b7100000000000000000000000000000000000000000000000000000000600052604160045260246000fd5b600060033d111561532c5760046000803e615329600051615340565b90505b90565b6000601f19601f8301169050919050565b60008160e01c9050919050565b7f455243313135353a207472616e7366657220746f206e6f6e204552433131353560008201527f526563656976657220696d706c656d656e746572000000000000000000000000602082015250565b7f455243313135353a204552433131353552656365697665722072656a6563746560008201527f6420746f6b656e73000000000000000000000000000000000000000000000000602082015250565b7f50726573616c6520686173206e6f742073746172746564000000000000000000600082015250565b7f455243313135353a2062616c616e636520717565727920666f7220746865207a60008201527f65726f2061646472657373000000000000000000000000000000000000000000602082015250565b7f4f776e61626c653a206e6577206f776e657220697320746865207a65726f206160008201527f6464726573730000000000000000000000000000000000000000000000000000602082015250565b7f4e6f7420456e6f756768205649462073706f7473206c65667400000000000000600082015250565b7f455243313135353a2063616c6c6572206973206e6f74206f776e6572206e6f7260008201527f20617070726f7665640000000000000000000000000000000000000000000000602082015250565b7f4f7574206f66204769766561776179732e000000000000000000000000000000600082015250565b7f455243313135353a207472616e7366657220746f20746865207a65726f20616460008201527f6472657373000000000000000000000000000000000000000000000000000000602082015250565b7f455243313135353a207472616e736665722063616c6c6572206973206e6f742060008201527f6f776e6572206e6f7220617070726f7665640000000000000000000000000000602082015250565b7f596f7520646f206e6f74206f776e2074686520666f7572496e4f6e65546f6b6560008201527f6e00000000000000000000000000000000000000000000000000000000000000602082015250565b7f596f7520646f206e6f74206f776e20746865206672756974746f6b656e000000600082015250565b7f455243313135353a20696e73756666696369656e742062616c616e636520666f60008201527f72207472616e7366657200000000000000000000000000000000000000000000602082015250565b7f2e6a736f6e000000000000000000000000000000000000000000000000000000600082015250565b7f4f776e61626c653a2063616c6c6572206973206e6f7420746865206f776e6572600082015250565b7f50726573616c65206973206163746976652062757420796f752772652061726560008201527f206e6f742061205649462c207761697420666f72207075626c69632073616c65602082015250565b7f416c6c20426174636865732068617665206265656e206d696e74656400000000600082015250565b7f4e6f20657468657220696e20636f6e7472616374000000000000000000000000600082015250565b7f455243313135353a2073657474696e6720617070726f76616c2073746174757360008201527f20666f722073656c660000000000000000000000000000000000000000000000602082015250565b7f43616e6e6f74207075726368617365206d6f7265207468616e206f6e6520626160008201527f746368206d696e74207065722077616c6c657400000000000000000000000000602082015250565b7f455243313135353a206163636f756e747320616e6420696473206c656e67746860008201527f206d69736d617463680000000000000000000000000000000000000000000000602082015250565b7f455243313135353a2069647320616e6420616d6f756e7473206c656e6774682060008201527f6d69736d61746368000000000000000000000000000000000000000000000000602082015250565b7f455243313135353a206d696e7420746f20746865207a65726f2061646472657360008201527f7300000000000000000000000000000000000000000000000000000000000000602082015250565b7f5265656e7472616e637947756172643a207265656e7472616e742063616c6c00600082015250565b7f596f7520646f206e6f74206f776e2061207265636569707420666f722065786360008201527f68616e6765000000000000000000000000000000000000000000000000000000602082015250565b7f4e6f7420656e6f756768206574686572207761732073656e7420746f2074726160008201527f6e73616374696f6e000000000000000000000000000000000000000000000000602082015250565b600060443d1015615a0d57615a90565b615a15614eb5565b60043d036004823e80513d602482011167ffffffffffffffff82111715615a3d575050615a90565b808201805167ffffffffffffffff811115615a5b5750505050615a90565b80602083010160043d038501811115615a78575050505050615a90565b615a87826020018501866151a6565b82955050505050505b90565b615a9c81615094565b8114615aa757600080fd5b50565b615ab3816150a6565b8114615abe57600080fd5b50565b615aca816150b2565b8114615ad557600080fd5b50565b615ae1816150fe565b8114615aec57600080fd5b5056fea26469706673582212201f84cccb89da4c06bf704f73940a0e371af658755fb52cabbaccfc8fd70fd63664736f6c63430008040033",
  "linkReferences": {},
  "deployedLinkReferences": {}
}