{
  "_format": "hh-sol-artifact-1",
  "contractName": "DemoOptimized",
  "sourceName": "contracts/DemoOptimized.sol",
  "abi": [
    {
      "inputs": [
        {
          "internalType": "string",
          "name": "uri",
          "type": "string"
        },
        {
          "internalType": "string",
          "name": "uriHidden",
          "type": "string"
        }
      ],
      "stateMutability": "nonpayable",
      "type": "constructor"
    },
    {
      "anonymous": false,
      "inputs": [
        {
          "indexed": true,
          "internalType": "address",
          "name": "account",
          "type": "address"
        },
        {
          "indexed": true,
          "internalType": "address",
          "name": "operator",
          "type": "address"
        },
        {
          "indexed": false,
          "internalType": "bool",
          "name": "approved",
          "type": "bool"
        }
      ],
      "name": "ApprovalForAll",
      "type": "event"
    },
    {
      "anonymous": false,
      "inputs": [
        {
          "indexed": false,
          "internalType": "address",
          "name": "_sender",
          "type": "address"
        },
        {
          "indexed": false,
          "internalType": "uint256",
          "name": "_supply",
          "type": "uint256"
        }
      ],
      "name": "IncreaseBundleSupply",
      "type": "event"
    },
    {
      "anonymous": false,
      "inputs": [
        {
          "indexed": false,
          "internalType": "address",
          "name": "_sender",
          "type": "address"
        },
        {
          "indexed": false,
          "internalType": "uint256",
          "name": "_supply",
          "type": "uint256"
        }
      ],
      "name": "IncreaseReceiptSupply",
      "type": "event"
    },
    {
      "anonymous": false,
      "inputs": [
        {
          "indexed": true,
          "internalType": "address",
          "name": "previousOwner",
          "type": "address"
        },
        {
          "indexed": true,
          "internalType": "address",
          "name": "newOwner",
          "type": "address"
        }
      ],
      "name": "OwnershipTransferred",
      "type": "event"
    },
    {
      "anonymous": false,
      "inputs": [
        {
          "indexed": false,
          "internalType": "uint256",
          "name": "_presaleStartTime",
          "type": "uint256"
        },
        {
          "indexed": false,
          "internalType": "uint256",
          "name": "_saleStartTime",
          "type": "uint256"
        }
      ],
      "name": "SaleHasBeenSet",
      "type": "event"
    },
    {
      "anonymous": false,
      "inputs": [
        {
          "indexed": true,
          "internalType": "address",
          "name": "operator",
          "type": "address"
        },
        {
          "indexed": true,
          "internalType": "address",
          "name": "from",
          "type": "address"
        },
        {
          "indexed": true,
          "internalType": "address",
          "name": "to",
          "type": "address"
        },
        {
          "indexed": false,
          "internalType": "uint256[]",
          "name": "ids",
          "type": "uint256[]"
        },
        {
          "indexed": false,
          "internalType": "uint256[]",
          "name": "values",
          "type": "uint256[]"
        }
      ],
      "name": "TransferBatch",
      "type": "event"
    },
    {
      "anonymous": false,
      "inputs": [
        {
          "indexed": true,
          "internalType": "address",
          "name": "operator",
          "type": "address"
        },
        {
          "indexed": true,
          "internalType": "address",
          "name": "from",
          "type": "address"
        },
        {
          "indexed": true,
          "internalType": "address",
          "name": "to",
          "type": "address"
        },
        {
          "indexed": false,
          "internalType": "uint256",
          "name": "id",
          "type": "uint256"
        },
        {
          "indexed": false,
          "internalType": "uint256",
          "name": "value",
          "type": "uint256"
        }
      ],
      "name": "TransferSingle",
      "type": "event"
    },
    {
      "anonymous": false,
      "inputs": [
        {
          "indexed": false,
          "internalType": "string",
          "name": "value",
          "type": "string"
        },
        {
          "indexed": true,
          "internalType": "uint256",
          "name": "id",
          "type": "uint256"
        }
      ],
      "name": "URI",
      "type": "event"
    },
    {
      "inputs": [
        {
          "internalType": "address",
          "name": "account",
          "type": "address"
        },
        {
          "internalType": "uint256",
          "name": "id",
          "type": "uint256"
        }
      ],
      "name": "balanceOf",
      "outputs": [
        {
          "internalType": "uint256",
          "name": "",
          "type": "uint256"
        }
      ],
      "stateMutability": "view",
      "type": "function"
    },
    {
      "inputs": [
        {
          "internalType": "address[]",
          "name": "accounts",
          "type": "address[]"
        },
        {
          "internalType": "uint256[]",
          "name": "ids",
          "type": "uint256[]"
        }
      ],
      "name": "balanceOfBatch",
      "outputs": [
        {
          "internalType": "uint256[]",
          "name": "",
          "type": "uint256[]"
        }
      ],
      "stateMutability": "view",
      "type": "function"
    },
    {
      "inputs": [
        {
          "internalType": "uint256",
          "name": "_fruitTokenId",
          "type": "uint256"
        },
        {
          "internalType": "uint256",
          "name": "_fourInOneTokenId",
          "type": "uint256"
        },
        {
          "internalType": "uint256",
          "name": "_quadrant",
          "type": "uint256"
        }
      ],
      "name": "cuteeExchange",
      "outputs": [],
      "stateMutability": "nonpayable",
      "type": "function"
    },
    {
      "inputs": [],
      "name": "getBalance",
      "outputs": [
        {
          "internalType": "uint256",
          "name": "",
          "type": "uint256"
        }
      ],
      "stateMutability": "view",
      "type": "function"
    },
    {
      "inputs": [],
      "name": "getBundleBalance",
      "outputs": [
        {
          "internalType": "uint256",
          "name": "",
          "type": "uint256"
        }
      ],
      "stateMutability": "view",
      "type": "function"
    },
    {
      "inputs": [],
      "name": "getBundleSupply",
      "outputs": [
        {
          "internalType": "uint256",
          "name": "",
          "type": "uint256"
        }
      ],
      "stateMutability": "view",
      "type": "function"
    },
    {
      "inputs": [],
      "name": "getReceiptSupply",
      "outputs": [
        {
          "internalType": "uint256",
          "name": "",
          "type": "uint256"
        }
      ],
      "stateMutability": "view",
      "type": "function"
    },
    {
      "inputs": [
        {
          "internalType": "address",
          "name": "_address",
          "type": "address"
        }
      ],
      "name": "getVIF",
      "outputs": [
        {
          "internalType": "uint256",
          "name": "",
          "type": "uint256"
        }
      ],
      "stateMutability": "view",
      "type": "function"
    },
    {
      "inputs": [],
      "name": "getVIFLeft",
      "outputs": [
        {
          "internalType": "uint256",
          "name": "",
          "type": "uint256"
        }
      ],
      "stateMutability": "view",
      "type": "function"
    },
    {
      "inputs": [
        {
          "internalType": "address[]",
          "name": "_to",
          "type": "address[]"
        }
      ],
      "name": "giveawayMintBatch",
      "outputs": [],
      "stateMutability": "nonpayable",
      "type": "function"
    },
    {
      "inputs": [
        {
          "internalType": "uint256",
          "name": "_supply",
          "type": "uint256"
        }
      ],
      "name": "increaseReceiptSupply",
      "outputs": [],
      "stateMutability": "nonpayable",
      "type": "function"
    },
    {
      "inputs": [
        {
          "internalType": "address",
          "name": "account",
          "type": "address"
        },
        {
          "internalType": "address",
          "name": "operator",
          "type": "address"
        }
      ],
      "name": "isApprovedForAll",
      "outputs": [
        {
          "internalType": "bool",
          "name": "",
          "type": "bool"
        }
      ],
      "stateMutability": "view",
      "type": "function"
    },
    {
      "inputs": [],
      "name": "mintBundle",
      "outputs": [],
      "stateMutability": "payable",
      "type": "function"
    },
    {
      "inputs": [],
      "name": "owner",
      "outputs": [
        {
          "internalType": "address",
          "name": "",
          "type": "address"
        }
      ],
      "stateMutability": "view",
      "type": "function"
    },
    {
      "inputs": [],
      "name": "renounceOwnership",
      "outputs": [],
      "stateMutability": "nonpayable",
      "type": "function"
    },
    {
      "inputs": [
        {
          "internalType": "uint256",
          "name": "_VIFCount",
          "type": "uint256"
        }
      ],
      "name": "resetVIF",
      "outputs": [],
      "stateMutability": "nonpayable",
      "type": "function"
    },
    {
      "inputs": [
        {
          "internalType": "address",
          "name": "from",
          "type": "address"
        },
        {
          "internalType": "address",
          "name": "to",
          "type": "address"
        },
        {
          "internalType": "uint256[]",
          "name": "ids",
          "type": "uint256[]"
        },
        {
          "internalType": "uint256[]",
          "name": "amounts",
          "type": "uint256[]"
        },
        {
          "internalType": "bytes",
          "name": "data",
          "type": "bytes"
        }
      ],
      "name": "safeBatchTransferFrom",
      "outputs": [],
      "stateMutability": "nonpayable",
      "type": "function"
    },
    {
      "inputs": [
        {
          "internalType": "address",
          "name": "from",
          "type": "address"
        },
        {
          "internalType": "address",
          "name": "to",
          "type": "address"
        },
        {
          "internalType": "uint256",
          "name": "id",
          "type": "uint256"
        },
        {
          "internalType": "uint256",
          "name": "amount",
          "type": "uint256"
        },
        {
          "internalType": "bytes",
          "name": "data",
          "type": "bytes"
        }
      ],
      "name": "safeTransferFrom",
      "outputs": [],
      "stateMutability": "nonpayable",
      "type": "function"
    },
    {
      "inputs": [
        {
          "internalType": "address",
          "name": "operator",
          "type": "address"
        },
        {
          "internalType": "bool",
          "name": "approved",
          "type": "bool"
        }
      ],
      "name": "setApprovalForAll",
      "outputs": [],
      "stateMutability": "nonpayable",
      "type": "function"
    },
    {
      "inputs": [
        {
          "internalType": "uint256",
          "name": "_presaleStartTime",
          "type": "uint256"
        },
        {
          "internalType": "uint256",
          "name": "_timeBetweenSales",
          "type": "uint256"
        }
      ],
      "name": "setPresaleStartTime",
      "outputs": [],
      "stateMutability": "nonpayable",
      "type": "function"
    },
    {
      "inputs": [
        {
          "internalType": "uint256",
          "name": "_gwei",
          "type": "uint256"
        }
      ],
      "name": "setPricePerBundle",
      "outputs": [],
      "stateMutability": "nonpayable",
      "type": "function"
    },
    {
      "inputs": [
        {
          "internalType": "uint256",
          "name": "_fruitTokenIdLowerParam",
          "type": "uint256"
        },
        {
          "internalType": "uint256",
          "name": "_fourInOneTokenIdLowerParam",
          "type": "uint256"
        }
      ],
      "name": "setSeasonLowerParams",
      "outputs": [],
      "stateMutability": "nonpayable",
      "type": "function"
    },
    {
      "inputs": [
        {
          "internalType": "address[]",
          "name": "_vifs",
          "type": "address[]"
        }
      ],
      "name": "setVIF",
      "outputs": [],
      "stateMutability": "nonpayable",
      "type": "function"
    },
    {
      "inputs": [
        {
          "internalType": "bytes4",
          "name": "interfaceId",
          "type": "bytes4"
        }
      ],
      "name": "supportsInterface",
      "outputs": [
        {
          "internalType": "bool",
          "name": "",
          "type": "bool"
        }
      ],
      "stateMutability": "view",
      "type": "function"
    },
    {
      "inputs": [
        {
          "internalType": "address",
          "name": "newOwner",
          "type": "address"
        }
      ],
      "name": "transferOwnership",
      "outputs": [],
      "stateMutability": "nonpayable",
      "type": "function"
    },
    {
      "inputs": [
        {
          "internalType": "uint256",
          "name": "_tokenId",
          "type": "uint256"
        }
      ],
      "name": "uri",
      "outputs": [
        {
          "internalType": "string",
          "name": "",
          "type": "string"
        }
      ],
      "stateMutability": "view",
      "type": "function"
    },
    {
      "inputs": [],
      "name": "withdrawBalance",
      "outputs": [],
      "stateMutability": "nonpayable",
      "type": "function"
    }
  ],
  "bytecode": "0x6080604052610bb86004556001600555620186a1600655607b60075561036d6008556000601160006101000a81548160ff0219169083151502179055506000601160016101000a81548160ff02191690831515021790555067016345785d8a00006014556101f46017553480156200007657600080fd5b5060405162005f4738038062005f4783398181016040528101906200009c919062000314565b620000bc620000b06200012460201b60201c565b6200012c60201b60201c565b60016003819055506000600d819055506201869f600f81905550620186a0600e81905550620f423f60108190555081600b908051906020019062000102929190620001f2565b5080600c90805190602001906200011b929190620001f2565b505050620004f7565b600033905090565b6000600260009054906101000a900473ffffffffffffffffffffffffffffffffffffffff16905081600260006101000a81548173ffffffffffffffffffffffffffffffffffffffff021916908373ffffffffffffffffffffffffffffffffffffffff1602179055508173ffffffffffffffffffffffffffffffffffffffff168173ffffffffffffffffffffffffffffffffffffffff167f8be0079c531659141344cd1fd0a4f28419497f9722a3daafe3b4186f6b6457e060405160405180910390a35050565b82805462000200906200041c565b90600052602060002090601f01602090048101928262000224576000855562000270565b82601f106200023f57805160ff191683800117855562000270565b8280016001018555821562000270579182015b828111156200026f57825182559160200191906001019062000252565b5b5090506200027f919062000283565b5090565b5b808211156200029e57600081600090555060010162000284565b5090565b6000620002b9620002b384620003b0565b62000387565b905082815260208101848484011115620002d257600080fd5b620002df848285620003e6565b509392505050565b600082601f830112620002f957600080fd5b81516200030b848260208601620002a2565b91505092915050565b600080604083850312156200032857600080fd5b600083015167ffffffffffffffff8111156200034357600080fd5b6200035185828601620002e7565b925050602083015167ffffffffffffffff8111156200036f57600080fd5b6200037d85828601620002e7565b9150509250929050565b600062000393620003a6565b9050620003a1828262000452565b919050565b6000604051905090565b600067ffffffffffffffff821115620003ce57620003cd620004b7565b5b620003d982620004e6565b9050602081019050919050565b60005b8381101562000406578082015181840152602081019050620003e9565b8381111562000416576000848401525b50505050565b600060028204905060018216806200043557607f821691505b602082108114156200044c576200044b62000488565b5b50919050565b6200045d82620004e6565b810181811067ffffffffffffffff821117156200047f576200047e620004b7565b5b80604052505050565b7f4e487b7100000000000000000000000000000000000000000000000000000000600052602260045260246000fd5b7f4e487b7100000000000000000000000000000000000000000000000000000000600052604160045260246000fd5b6000601f19601f8301169050919050565b615a4080620005076000396000f3fe60806040526004361061019b5760003560e01c8063715018a6116100ec5780639b1496081161008a578063cec2e73311610064578063cec2e7331461057c578063e985e9c5146105a5578063f242432a146105e2578063f2fde38b1461060b5761019b565b80639b149608146104ff578063a22cb46514610528578063b08504e9146105515761019b565b806383fc3067116100c657806383fc3067146104575780638686d795146104805780638da5cb5b146104a95780639171c3da146104d45761019b565b8063715018a6146103ec57806376937cef146104035780638110b32f1461042e5761019b565b80632eb2c2d611610159578063410404b711610133578063410404b7146103635780634e1273f41461036d5780635f4c5b25146103aa5780635fd8c710146103d55761019b565b80632eb2c2d6146102d45780633bdb7c9e146102fd5780633efc52001461033a5761019b565b8062fdd58e146101a057806301ffc9a7146101dd5780630948b38a1461021a5780630e89341c1461024357806312065fe01461028057806312a60517146102ab575b600080fd5b3480156101ac57600080fd5b506101c760048036038101906101c291906140f0565b610634565b6040516101d49190614d71565b60405180910390f35b3480156101e957600080fd5b5061020460048036038101906101ff919061421e565b6106fd565b6040516102119190614a14565b60405180910390f35b34801561022657600080fd5b50610241600480360381019061023c9190614299565b6107df565b005b34801561024f57600080fd5b5061026a60048036038101906102659190614270565b6108b5565b6040516102779190614a2f565b60405180910390f35b34801561028c57600080fd5b506102956109ac565b6040516102a29190614d71565b60405180910390f35b3480156102b757600080fd5b506102d260048036038101906102cd9190614299565b610a30565b005b3480156102e057600080fd5b506102fb60048036038101906102f69190613f66565b610abe565b005b34801561030957600080fd5b50610324600480360381019061031f9190613f01565b610b5f565b6040516103319190614d71565b60405180910390f35b34801561034657600080fd5b50610361600480360381019061035c9190614270565b610c24565b005b61036b610caa565b005b34801561037957600080fd5b50610394600480360381019061038f91906141b2565b611456565b6040516103a191906149bb565b60405180910390f35b3480156103b657600080fd5b506103bf611607565b6040516103cc9190614d71565b60405180910390f35b3480156103e157600080fd5b506103ea611611565b005b3480156103f857600080fd5b50610401611719565b005b34801561040f57600080fd5b506104186117a1565b6040516104259190614d71565b60405180910390f35b34801561043a57600080fd5b50610455600480360381019061045091906142d5565b6117ab565b005b34801561046357600080fd5b5061047e60048036038101906104799190614270565b611d32565b005b34801561048c57600080fd5b506104a760048036038101906104a29190614270565b611dfe565b005b3480156104b557600080fd5b506104be611f5f565b6040516104cb91906148b5565b60405180910390f35b3480156104e057600080fd5b506104e9611f89565b6040516104f69190614d71565b60405180910390f35b34801561050b57600080fd5b5061052660048036038101906105219190614171565b61200f565b005b34801561053457600080fd5b5061054f600480360381019061054a91906140b4565b612231565b005b34801561055d57600080fd5b50610566612247565b6040516105739190614d71565b60405180910390f35b34801561058857600080fd5b506105a3600480360381019061059e919061412c565b61228e565b005b3480156105b157600080fd5b506105cc60048036038101906105c79190613f2a565b6128d1565b6040516105d99190614a14565b60405180910390f35b3480156105ee57600080fd5b5061060960048036038101906106049190614025565b612965565b005b34801561061757600080fd5b50610632600480360381019061062d9190613f01565b612a06565b005b60008073ffffffffffffffffffffffffffffffffffffffff168373ffffffffffffffffffffffffffffffffffffffff1614156106a5576040517f08c379a000000000000000000000000000000000000000000000000000000000815260040161069c90614ab1565b60405180910390fd5b60008083815260200190815260200160002060008473ffffffffffffffffffffffffffffffffffffffff1673ffffffffffffffffffffffffffffffffffffffff16815260200190815260200160002054905092915050565b60007fd9b67a26000000000000000000000000000000000000000000000000000000007bffffffffffffffffffffffffffffffffffffffffffffffffffffffff1916827bffffffffffffffffffffffffffffffffffffffffffffffffffffffff191614806107c857507f0e89341c000000000000000000000000000000000000000000000000000000007bffffffffffffffffffffffffffffffffffffffffffffffffffffffff1916827bffffffffffffffffffffffffffffffffffffffffffffffffffffffff1916145b806107d857506107d782612afe565b5b9050919050565b6107e7612b68565b73ffffffffffffffffffffffffffffffffffffffff16610805611f5f565b73ffffffffffffffffffffffffffffffffffffffff161461085b576040517f08c379a000000000000000000000000000000000000000000000000000000000815260040161085290614bf1565b60405180910390fd5b81601281905550808261086e9190614ef4565b6013819055507f88c7c5a177be8b426acec3417df4c4882059c60453b8e02e6c8d16998919e73e6012546013546040516108a9929190614d8c565b60405180910390a15050565b6060600d54821180156108c95750600f5482105b806108e25750600e54821180156108e1575060105482105b5b1561097957600c80546108f49061508f565b80601f01602080910402602001604051908101604052809291908181526020018280546109209061508f565b801561096d5780601f106109425761010080835404028352916020019161096d565b820191906000526020600020905b81548152906001019060200180831161095057829003601f168201915b505050505090506109a7565b600b61098483612b70565b604051602001610995929190614886565b60405160208183030381529060405290505b919050565b60006109b6612b68565b73ffffffffffffffffffffffffffffffffffffffff166109d4611f5f565b73ffffffffffffffffffffffffffffffffffffffff1614610a2a576040517f08c379a0000000000000000000000000000000000000000000000000000000008152600401610a2190614bf1565b60405180910390fd5b47905090565b610a38612b68565b73ffffffffffffffffffffffffffffffffffffffff16610a56611f5f565b73ffffffffffffffffffffffffffffffffffffffff1614610aac576040517f08c379a0000000000000000000000000000000000000000000000000000000008152600401610aa390614bf1565b60405180910390fd5b81600d8190555080600e819055505050565b610ac6612b68565b73ffffffffffffffffffffffffffffffffffffffff168573ffffffffffffffffffffffffffffffffffffffff161480610b0c5750610b0b85610b06612b68565b6128d1565b5b610b4b576040517f08c379a0000000000000000000000000000000000000000000000000000000008152600401610b4290614b71565b60405180910390fd5b610b588585858585612d1d565b5050505050565b6000610b69612b68565b73ffffffffffffffffffffffffffffffffffffffff16610b87611f5f565b73ffffffffffffffffffffffffffffffffffffffff1614610bdd576040517f08c379a0000000000000000000000000000000000000000000000000000000008152600401610bd490614bf1565b60405180910390fd5b601560008373ffffffffffffffffffffffffffffffffffffffff1673ffffffffffffffffffffffffffffffffffffffff168152602001908152602001600020549050919050565b610c2c612b68565b73ffffffffffffffffffffffffffffffffffffffff16610c4a611f5f565b73ffffffffffffffffffffffffffffffffffffffff1614610ca0576040517f08c379a0000000000000000000000000000000000000000000000000000000008152600401610c9790614bf1565b60405180910390fd5b8060148190555050565b6012544211610cee576040517f08c379a0000000000000000000000000000000000000000000000000000000008152600401610ce590614a91565b60405180910390fd5b60125442118015610d00575060135442105b15610d88576000601560003373ffffffffffffffffffffffffffffffffffffffff1673ffffffffffffffffffffffffffffffffffffffff1681526020019081526020016000205411610d87576040517f08c379a0000000000000000000000000000000000000000000000000000000008152600401610d7e90614c11565b60405180910390fd5b5b60026003541415610dce576040517f08c379a0000000000000000000000000000000000000000000000000000000008152600401610dc590614d11565b60405180910390fd5b600260038190555067016345785d8a0000341015610e21576040517f08c379a0000000000000000000000000000000000000000000000000000000008152600401610e1890614d51565b60405180910390fd5b6000600960003373ffffffffffffffffffffffffffffffffffffffff1673ffffffffffffffffffffffffffffffffffffffff1681526020019081526020016000205414610ea3576040517f08c379a0000000000000000000000000000000000000000000000000000000008152600401610e9a90614c91565b60405180910390fd5b600060085411610ee8576040517f08c379a0000000000000000000000000000000000000000000000000000000008152600401610edf90614c31565b60405180910390fd5b6000600667ffffffffffffffff811115610f2b577f4e487b7100000000000000000000000000000000000000000000000000000000600052604160045260246000fd5b604051908082528060200260200182016040528015610f595781602001602082028036833780820191505090505b5090506000600667ffffffffffffffff811115610f9f577f4e487b7100000000000000000000000000000000000000000000000000000000600052604160045260246000fd5b604051908082528060200260200182016040528015610fcd5781602001602082028036833780820191505090505b50905060018260008151811061100c577f4e487b7100000000000000000000000000000000000000000000000000000000600052603260045260246000fd5b602002602001018181525050600182600181518110611054577f4e487b7100000000000000000000000000000000000000000000000000000000600052603260045260246000fd5b60200260200101818152505060018260028151811061109c577f4e487b7100000000000000000000000000000000000000000000000000000000600052603260045260246000fd5b6020026020010181815250506001826003815181106110e4577f4e487b7100000000000000000000000000000000000000000000000000000000600052603260045260246000fd5b60200260200101818152505060018260048151811061112c577f4e487b7100000000000000000000000000000000000000000000000000000000600052603260045260246000fd5b602002602001018181525050600382600581518110611174577f4e487b7100000000000000000000000000000000000000000000000000000000600052603260045260246000fd5b602002602001018181525050600554816000815181106111bd577f4e487b7100000000000000000000000000000000000000000000000000000000600052603260045260246000fd5b602002602001018181525050600560008154809291906111dc906150f2565b91905055506005548160018151811061121e577f4e487b7100000000000000000000000000000000000000000000000000000000600052603260045260246000fd5b6020026020010181815250506005600081548092919061123d906150f2565b91905055506005548160028151811061127f577f4e487b7100000000000000000000000000000000000000000000000000000000600052603260045260246000fd5b6020026020010181815250506005600081548092919061129e906150f2565b9190505550600554816003815181106112e0577f4e487b7100000000000000000000000000000000000000000000000000000000600052603260045260246000fd5b602002602001018181525050600560008154809291906112ff906150f2565b919050555060065481600481518110611341577f4e487b7100000000000000000000000000000000000000000000000000000000600052603260045260246000fd5b60200260200101818152505060066000815480929190611360906150f2565b91905055506000816005815181106113a1577f4e487b7100000000000000000000000000000000000000000000000000000000600052603260045260246000fd5b602002602001018181525050600960003373ffffffffffffffffffffffffffffffffffffffff1673ffffffffffffffffffffffffffffffffffffffff16815260200190815260200160002060008154809291906113fd906150f2565b919050555061141d3382846040518060200160405280600081525061308b565b600360045461142c9190614f7b565b6004819055506008600081548092919061144590615065565b919050555050506001600381905550565b6060815183511461149c576040517f08c379a000000000000000000000000000000000000000000000000000000000815260040161149390614cb1565b60405180910390fd5b6000835167ffffffffffffffff8111156114df577f4e487b7100000000000000000000000000000000000000000000000000000000600052604160045260246000fd5b60405190808252806020026020018201604052801561150d5781602001602082028036833780820191505090505b50905060005b84518110156115fc576115a6858281518110611558577f4e487b7100000000000000000000000000000000000000000000000000000000600052603260045260246000fd5b6020026020010151858381518110611599577f4e487b7100000000000000000000000000000000000000000000000000000000600052603260045260246000fd5b6020026020010151610634565b8282815181106115df577f4e487b7100000000000000000000000000000000000000000000000000000000600052603260045260246000fd5b602002602001018181525050806115f5906150f2565b9050611513565b508091505092915050565b6000600454905090565b611619612b68565b73ffffffffffffffffffffffffffffffffffffffff16611637611f5f565b73ffffffffffffffffffffffffffffffffffffffff161461168d576040517f08c379a000000000000000000000000000000000000000000000000000000000815260040161168490614bf1565b60405180910390fd5b600047116116d0576040517f08c379a00000000000000000000000000000000000000000000000000000000081526004016116c790614c51565b60405180910390fd5b3373ffffffffffffffffffffffffffffffffffffffff166108fc479081150290604051600060405180830381858888f19350505050158015611716573d6000803e3d6000fd5b50565b611721612b68565b73ffffffffffffffffffffffffffffffffffffffff1661173f611f5f565b73ffffffffffffffffffffffffffffffffffffffff1614611795576040517f08c379a000000000000000000000000000000000000000000000000000000000815260040161178c90614bf1565b60405180910390fd5b61179f60006132e6565b565b6000600854905090565b600260035414156117f1576040517f08c379a00000000000000000000000000000000000000000000000000000000081526004016117e890614d11565b60405180910390fd5b60026003819055506000600367ffffffffffffffff81111561183c577f4e487b7100000000000000000000000000000000000000000000000000000000600052604160045260246000fd5b60405190808252806020026020018201604052801561186a5781602001602082028036833780820191505090505b5090506000600367ffffffffffffffff8111156118b0577f4e487b7100000000000000000000000000000000000000000000000000000000600052604160045260246000fd5b6040519080825280602002602001820160405280156118de5781602001602082028036833780820191505090505b5090506000600367ffffffffffffffff811115611924577f4e487b7100000000000000000000000000000000000000000000000000000000600052604160045260246000fd5b6040519080825280602002602001820160405280156119525781602001602082028036833780820191505090505b5090503383600081518110611990577f4e487b7100000000000000000000000000000000000000000000000000000000600052603260045260246000fd5b602002602001019073ffffffffffffffffffffffffffffffffffffffff16908173ffffffffffffffffffffffffffffffffffffffff16815250503383600181518110611a05577f4e487b7100000000000000000000000000000000000000000000000000000000600052603260045260246000fd5b602002602001019073ffffffffffffffffffffffffffffffffffffffff16908173ffffffffffffffffffffffffffffffffffffffff16815250503383600281518110611a7a577f4e487b7100000000000000000000000000000000000000000000000000000000600052603260045260246000fd5b602002602001019073ffffffffffffffffffffffffffffffffffffffff16908173ffffffffffffffffffffffffffffffffffffffff16815250508582600081518110611aef577f4e487b7100000000000000000000000000000000000000000000000000000000600052603260045260246000fd5b6020026020010181815250508482600181518110611b36577f4e487b7100000000000000000000000000000000000000000000000000000000600052603260045260246000fd5b602002602001018181525050600082600281518110611b7e577f4e487b7100000000000000000000000000000000000000000000000000000000600052603260045260246000fd5b602002602001018181525050611b948383611456565b9050600081600081518110611bd2577f4e487b7100000000000000000000000000000000000000000000000000000000600052603260045260246000fd5b602002602001015111611c1a576040517f08c379a0000000000000000000000000000000000000000000000000000000008152600401611c1190614bb1565b60405180910390fd5b600081600181518110611c56577f4e487b7100000000000000000000000000000000000000000000000000000000600052603260045260246000fd5b602002602001015111611c9e576040517f08c379a0000000000000000000000000000000000000000000000000000000008152600401611c9590614b91565b60405180910390fd5b600081600281518110611cda577f4e487b7100000000000000000000000000000000000000000000000000000000600052603260045260246000fd5b602002602001015111611d22576040517f08c379a0000000000000000000000000000000000000000000000000000000008152600401611d1990614d31565b60405180910390fd5b5050506001600381905550505050565b611d3a612b68565b73ffffffffffffffffffffffffffffffffffffffff16611d58611f5f565b73ffffffffffffffffffffffffffffffffffffffff1614611dae576040517f08c379a0000000000000000000000000000000000000000000000000000000008152600401611da590614bf1565b60405180910390fd5b80600454611dbc9190614ef4565b6004819055507fe3d47dee33b959cc59941f840525125123544e1f194b235f340f0c6147697ac33382604051611df3929190614992565b60405180910390a150565b611e06612b68565b73ffffffffffffffffffffffffffffffffffffffff16611e24611f5f565b73ffffffffffffffffffffffffffffffffffffffff1614611e7a576040517f08c379a0000000000000000000000000000000000000000000000000000000008152600401611e7190614bf1565b60405180910390fd5b60005b601680549050811015611f465760006015600060168481548110611eca577f4e487b7100000000000000000000000000000000000000000000000000000000600052603260045260246000fd5b9060005260206000200160009054906101000a900473ffffffffffffffffffffffffffffffffffffffff1673ffffffffffffffffffffffffffffffffffffffff1673ffffffffffffffffffffffffffffffffffffffff168152602001908152602001600020819055508080611f3e906150f2565b915050611e7d565b5060166000611f559190613c7c565b8060178190555050565b6000600260009054906101000a900473ffffffffffffffffffffffffffffffffffffffff16905090565b6000611f93612b68565b73ffffffffffffffffffffffffffffffffffffffff16611fb1611f5f565b73ffffffffffffffffffffffffffffffffffffffff1614612007576040517f08c379a0000000000000000000000000000000000000000000000000000000008152600401611ffe90614bf1565b60405180910390fd5b601754905090565b612017612b68565b73ffffffffffffffffffffffffffffffffffffffff16612035611f5f565b73ffffffffffffffffffffffffffffffffffffffff161461208b576040517f08c379a000000000000000000000000000000000000000000000000000000000815260040161208290614bf1565b60405180910390fd5b805160175410156120d1576040517f08c379a00000000000000000000000000000000000000000000000000000000081526004016120c890614af1565b60405180910390fd5b60005b81518110156122185760016015600084848151811061211c577f4e487b7100000000000000000000000000000000000000000000000000000000600052603260045260246000fd5b602002602001015173ffffffffffffffffffffffffffffffffffffffff1673ffffffffffffffffffffffffffffffffffffffff16815260200190815260200160002081905550601682828151811061219d577f4e487b7100000000000000000000000000000000000000000000000000000000600052603260045260246000fd5b60200260200101519080600181540180825580915050600190039060005260206000200160009091909190916101000a81548173ffffffffffffffffffffffffffffffffffffffff021916908373ffffffffffffffffffffffffffffffffffffffff1602179055508080612210906150f2565b9150506120d4565b5080516017546122289190614f7b565b60178190555050565b61224361223c612b68565b83836133ac565b5050565b6000600960003373ffffffffffffffffffffffffffffffffffffffff1673ffffffffffffffffffffffffffffffffffffffff16815260200190815260200160002054905090565b612296612b68565b73ffffffffffffffffffffffffffffffffffffffff166122b4611f5f565b73ffffffffffffffffffffffffffffffffffffffff161461230a576040517f08c379a000000000000000000000000000000000000000000000000000000000815260040161230190614bf1565b60405180910390fd5b60006007541161234f576040517f08c379a000000000000000000000000000000000000000000000000000000000815260040161234690614b31565b60405180910390fd5b6000600667ffffffffffffffff811115612392577f4e487b7100000000000000000000000000000000000000000000000000000000600052604160045260246000fd5b6040519080825280602002602001820160405280156123c05781602001602082028036833780820191505090505b5090506001816000815181106123ff577f4e487b7100000000000000000000000000000000000000000000000000000000600052603260045260246000fd5b602002602001018181525050600181600181518110612447577f4e487b7100000000000000000000000000000000000000000000000000000000600052603260045260246000fd5b60200260200101818152505060018160028151811061248f577f4e487b7100000000000000000000000000000000000000000000000000000000600052603260045260246000fd5b6020026020010181815250506001816003815181106124d7577f4e487b7100000000000000000000000000000000000000000000000000000000600052603260045260246000fd5b60200260200101818152505060018160048151811061251f577f4e487b7100000000000000000000000000000000000000000000000000000000600052603260045260246000fd5b602002602001018181525050600381600581518110612567577f4e487b7100000000000000000000000000000000000000000000000000000000600052603260045260246000fd5b6020026020010181815250506000600667ffffffffffffffff8111156125b6577f4e487b7100000000000000000000000000000000000000000000000000000000600052604160045260246000fd5b6040519080825280602002602001820160405280156125e45781602001602082028036833780820191505090505b50905060005b848490508110156128ca5760055482600081518110612632577f4e487b7100000000000000000000000000000000000000000000000000000000600052603260045260246000fd5b60200260200101818152505060056000815480929190612651906150f2565b919050555060055482600181518110612693577f4e487b7100000000000000000000000000000000000000000000000000000000600052603260045260246000fd5b602002602001018181525050600560008154809291906126b2906150f2565b9190505550600554826002815181106126f4577f4e487b7100000000000000000000000000000000000000000000000000000000600052603260045260246000fd5b60200260200101818152505060056000815480929190612713906150f2565b919050555060055482600381518110612755577f4e487b7100000000000000000000000000000000000000000000000000000000600052603260045260246000fd5b60200260200101818152505060056000815480929190612774906150f2565b9190505550600654826004815181106127b6577f4e487b7100000000000000000000000000000000000000000000000000000000600052603260045260246000fd5b602002602001018181525050600660008154809291906127d5906150f2565b9190505550600082600581518110612816577f4e487b7100000000000000000000000000000000000000000000000000000000600052603260045260246000fd5b60200260200101818152505061288a85858381811061285e577f4e487b7100000000000000000000000000000000000000000000000000000000600052603260045260246000fd5b90506020020160208101906128739190613f01565b83856040518060200160405280600081525061308b565b60036004546128999190614f7b565b600481905550600760008154809291906128b290615065565b919050555080806128c2906150f2565b9150506125ea565b5050505050565b6000600160008473ffffffffffffffffffffffffffffffffffffffff1673ffffffffffffffffffffffffffffffffffffffff16815260200190815260200160002060008373ffffffffffffffffffffffffffffffffffffffff1673ffffffffffffffffffffffffffffffffffffffff16815260200190815260200160002060009054906101000a900460ff16905092915050565b61296d612b68565b73ffffffffffffffffffffffffffffffffffffffff168573ffffffffffffffffffffffffffffffffffffffff1614806129b357506129b2856129ad612b68565b6128d1565b5b6129f2576040517f08c379a00000000000000000000000000000000000000000000000000000000081526004016129e990614b11565b60405180910390fd5b6129ff8585858585613519565b5050505050565b612a0e612b68565b73ffffffffffffffffffffffffffffffffffffffff16612a2c611f5f565b73ffffffffffffffffffffffffffffffffffffffff1614612a82576040517f08c379a0000000000000000000000000000000000000000000000000000000008152600401612a7990614bf1565b60405180910390fd5b600073ffffffffffffffffffffffffffffffffffffffff168173ffffffffffffffffffffffffffffffffffffffff161415612af2576040517f08c379a0000000000000000000000000000000000000000000000000000000008152600401612ae990614ad1565b60405180910390fd5b612afb816132e6565b50565b60007f01ffc9a7000000000000000000000000000000000000000000000000000000007bffffffffffffffffffffffffffffffffffffffffffffffffffffffff1916827bffffffffffffffffffffffffffffffffffffffffffffffffffffffff1916149050919050565b600033905090565b60606000821415612bb8576040518060400160405280600181526020017f30000000000000000000000000000000000000000000000000000000000000008152509050612d18565b600082905060005b60008214612bea578080612bd3906150f2565b915050600a82612be39190614f4a565b9150612bc0565b60008167ffffffffffffffff811115612c2c577f4e487b7100000000000000000000000000000000000000000000000000000000600052604160045260246000fd5b6040519080825280601f01601f191660200182016040528015612c5e5781602001600182028036833780820191505090505b5090505b60008514612d1157600182612c779190614f7b565b9150600a85612c86919061513b565b6030612c929190614ef4565b60f81b818381518110612cce577f4e487b7100000000000000000000000000000000000000000000000000000000600052603260045260246000fd5b60200101907effffffffffffffffffffffffffffffffffffffffffffffffffffffffffffff1916908160001a905350600a85612d0a9190614f4a565b9450612c62565b8093505050505b919050565b8151835114612d61576040517f08c379a0000000000000000000000000000000000000000000000000000000008152600401612d5890614cd1565b60405180910390fd5b600073ffffffffffffffffffffffffffffffffffffffff168473ffffffffffffffffffffffffffffffffffffffff161415612dd1576040517f08c379a0000000000000000000000000000000000000000000000000000000008152600401612dc890614b51565b60405180910390fd5b6000612ddb612b68565b9050612deb8187878787876137b5565b60005b8451811015612fe8576000858281518110612e32577f4e487b7100000000000000000000000000000000000000000000000000000000600052603260045260246000fd5b602002602001015190506000858381518110612e77577f4e487b7100000000000000000000000000000000000000000000000000000000600052603260045260246000fd5b60200260200101519050600080600084815260200190815260200160002060008b73ffffffffffffffffffffffffffffffffffffffff1673ffffffffffffffffffffffffffffffffffffffff16815260200190815260200160002054905081811015612f18576040517f08c379a0000000000000000000000000000000000000000000000000000000008152600401612f0f90614bd1565b60405180910390fd5b81810360008085815260200190815260200160002060008c73ffffffffffffffffffffffffffffffffffffffff1673ffffffffffffffffffffffffffffffffffffffff168152602001908152602001600020819055508160008085815260200190815260200160002060008b73ffffffffffffffffffffffffffffffffffffffff1673ffffffffffffffffffffffffffffffffffffffff1681526020019081526020016000206000828254612fcd9190614ef4565b9250508190555050505080612fe1906150f2565b9050612dee565b508473ffffffffffffffffffffffffffffffffffffffff168673ffffffffffffffffffffffffffffffffffffffff168273ffffffffffffffffffffffffffffffffffffffff167f4a39dc06d4c0dbc64b70af90fd698a233a518aa5d07e595d983b8c0526c8f7fb878760405161305f9291906149dd565b60405180910390a46130758187878787876137bd565b6130838187878787876139a4565b505050505050565b600073ffffffffffffffffffffffffffffffffffffffff168473ffffffffffffffffffffffffffffffffffffffff1614156130fb576040517f08c379a00000000000000000000000000000000000000000000000000000000081526004016130f290614cf1565b60405180910390fd5b815183511461313f576040517f08c379a000000000000000000000000000000000000000000000000000000000815260040161313690614cd1565b60405180910390fd5b6000613149612b68565b905060005b845181101561325057838181518110613190577f4e487b7100000000000000000000000000000000000000000000000000000000600052603260045260246000fd5b60200260200101516000808784815181106131d4577f4e487b7100000000000000000000000000000000000000000000000000000000600052603260045260246000fd5b6020026020010151815260200190815260200160002060008873ffffffffffffffffffffffffffffffffffffffff1673ffffffffffffffffffffffffffffffffffffffff16815260200190815260200160002060008282546132369190614ef4565b925050819055508080613248906150f2565b91505061314e565b508473ffffffffffffffffffffffffffffffffffffffff16600073ffffffffffffffffffffffffffffffffffffffff168273ffffffffffffffffffffffffffffffffffffffff167f4a39dc06d4c0dbc64b70af90fd698a233a518aa5d07e595d983b8c0526c8f7fb87876040516132c89291906149dd565b60405180910390a46132df816000878787876137bd565b5050505050565b6000600260009054906101000a900473ffffffffffffffffffffffffffffffffffffffff16905081600260006101000a81548173ffffffffffffffffffffffffffffffffffffffff021916908373ffffffffffffffffffffffffffffffffffffffff1602179055508173ffffffffffffffffffffffffffffffffffffffff168173ffffffffffffffffffffffffffffffffffffffff167f8be0079c531659141344cd1fd0a4f28419497f9722a3daafe3b4186f6b6457e060405160405180910390a35050565b8173ffffffffffffffffffffffffffffffffffffffff168373ffffffffffffffffffffffffffffffffffffffff16141561341b576040517f08c379a000000000000000000000000000000000000000000000000000000000815260040161341290614c71565b60405180910390fd5b80600160008573ffffffffffffffffffffffffffffffffffffffff1673ffffffffffffffffffffffffffffffffffffffff16815260200190815260200160002060008473ffffffffffffffffffffffffffffffffffffffff1673ffffffffffffffffffffffffffffffffffffffff16815260200190815260200160002060006101000a81548160ff0219169083151502179055508173ffffffffffffffffffffffffffffffffffffffff168373ffffffffffffffffffffffffffffffffffffffff167f17307eab39ab6107e8899845ad3d59bd9653f200f220920489ca2b5937696c318360405161350c9190614a14565b60405180910390a3505050565b600073ffffffffffffffffffffffffffffffffffffffff168473ffffffffffffffffffffffffffffffffffffffff161415613589576040517f08c379a000000000000000000000000000000000000000000000000000000000815260040161358090614b51565b60405180910390fd5b6000613593612b68565b905060006135a0856139ac565b905060006135ad856139ac565b90506135bd8389898585896137b5565b600080600088815260200190815260200160002060008a73ffffffffffffffffffffffffffffffffffffffff1673ffffffffffffffffffffffffffffffffffffffff16815260200190815260200160002054905085811015613654576040517f08c379a000000000000000000000000000000000000000000000000000000000815260040161364b90614bd1565b60405180910390fd5b85810360008089815260200190815260200160002060008b73ffffffffffffffffffffffffffffffffffffffff1673ffffffffffffffffffffffffffffffffffffffff168152602001908152602001600020819055508560008089815260200190815260200160002060008a73ffffffffffffffffffffffffffffffffffffffff1673ffffffffffffffffffffffffffffffffffffffff16815260200190815260200160002060008282546137099190614ef4565b925050819055508773ffffffffffffffffffffffffffffffffffffffff168973ffffffffffffffffffffffffffffffffffffffff168573ffffffffffffffffffffffffffffffffffffffff167fc3d58168c5ae7397731d063d5bbf3d657854427343f4c083240f7aacaa2d0f628a8a604051613786929190614d8c565b60405180910390a461379c848a8a8a8a8a613a72565b6137aa848a8a86868a6139a4565b505050505050505050565b505050505050565b6137dc8473ffffffffffffffffffffffffffffffffffffffff16613c59565b1561399c578373ffffffffffffffffffffffffffffffffffffffff1663bc197c8187878686866040518663ffffffff1660e01b81526004016138229594939291906148d0565b602060405180830381600087803b15801561383c57600080fd5b505af192505050801561386d57506040513d601f19601f8201168201806040525081019061386a9190614247565b60015b61391357613879615228565b806308c379a014156138d6575061388e615918565b8061389957506138d8565b806040517f08c379a00000000000000000000000000000000000000000000000000000000081526004016138cd9190614a2f565b60405180910390fd5b505b6040517f08c379a000000000000000000000000000000000000000000000000000000000815260040161390a90614a51565b60405180910390fd5b63bc197c8160e01b7bffffffffffffffffffffffffffffffffffffffffffffffffffffffff1916817bffffffffffffffffffffffffffffffffffffffffffffffffffffffff19161461399a576040517f08c379a000000000000000000000000000000000000000000000000000000000815260040161399190614a71565b60405180910390fd5b505b505050505050565b505050505050565b60606000600167ffffffffffffffff8111156139f1577f4e487b7100000000000000000000000000000000000000000000000000000000600052604160045260246000fd5b604051908082528060200260200182016040528015613a1f5781602001602082028036833780820191505090505b5090508281600081518110613a5d577f4e487b7100000000000000000000000000000000000000000000000000000000600052603260045260246000fd5b60200260200101818152505080915050919050565b613a918473ffffffffffffffffffffffffffffffffffffffff16613c59565b15613c51578373ffffffffffffffffffffffffffffffffffffffff1663f23a6e6187878686866040518663ffffffff1660e01b8152600401613ad7959493929190614938565b602060405180830381600087803b158015613af157600080fd5b505af1925050508015613b2257506040513d601f19601f82011682018060405250810190613b1f9190614247565b60015b613bc857613b2e615228565b806308c379a01415613b8b5750613b43615918565b80613b4e5750613b8d565b806040517f08c379a0000000000000000000000000000000000000000000000000000000008152600401613b829190614a2f565b60405180910390fd5b505b6040517f08c379a0000000000000000000000000000000000000000000000000000000008152600401613bbf90614a51565b60405180910390fd5b63f23a6e6160e01b7bffffffffffffffffffffffffffffffffffffffffffffffffffffffff1916817bffffffffffffffffffffffffffffffffffffffffffffffffffffffff191614613c4f576040517f08c379a0000000000000000000000000000000000000000000000000000000008152600401613c4690614a71565b60405180910390fd5b505b505050505050565b6000808273ffffffffffffffffffffffffffffffffffffffff163b119050919050565b5080546000825590600052602060002090810190613c9a9190613c9d565b50565b5b80821115613cb6576000816000905550600101613c9e565b5090565b6000613ccd613cc884614dda565b614db5565b90508083825260208201905082856020860282011115613cec57600080fd5b60005b85811015613d1c5781613d028882613dd0565b845260208401935060208301925050600181019050613cef565b5050509392505050565b6000613d39613d3484614e06565b614db5565b90508083825260208201905082856020860282011115613d5857600080fd5b60005b85811015613d885781613d6e8882613eec565b845260208401935060208301925050600181019050613d5b565b5050509392505050565b6000613da5613da084614e32565b614db5565b905082815260208101848484011115613dbd57600080fd5b613dc8848285615023565b509392505050565b600081359050613ddf816159ae565b92915050565b60008083601f840112613df757600080fd5b8235905067ffffffffffffffff811115613e1057600080fd5b602083019150836020820283011115613e2857600080fd5b9250929050565b600082601f830112613e4057600080fd5b8135613e50848260208601613cba565b91505092915050565b600082601f830112613e6a57600080fd5b8135613e7a848260208601613d26565b91505092915050565b600081359050613e92816159c5565b92915050565b600081359050613ea7816159dc565b92915050565b600081519050613ebc816159dc565b92915050565b600082601f830112613ed357600080fd5b8135613ee3848260208601613d92565b91505092915050565b600081359050613efb816159f3565b92915050565b600060208284031215613f1357600080fd5b6000613f2184828501613dd0565b91505092915050565b60008060408385031215613f3d57600080fd5b6000613f4b85828601613dd0565b9250506020613f5c85828601613dd0565b9150509250929050565b600080600080600060a08688031215613f7e57600080fd5b6000613f8c88828901613dd0565b9550506020613f9d88828901613dd0565b945050604086013567ffffffffffffffff811115613fba57600080fd5b613fc688828901613e59565b935050606086013567ffffffffffffffff811115613fe357600080fd5b613fef88828901613e59565b925050608086013567ffffffffffffffff81111561400c57600080fd5b61401888828901613ec2565b9150509295509295909350565b600080600080600060a0868803121561403d57600080fd5b600061404b88828901613dd0565b955050602061405c88828901613dd0565b945050604061406d88828901613eec565b935050606061407e88828901613eec565b925050608086013567ffffffffffffffff81111561409b57600080fd5b6140a788828901613ec2565b9150509295509295909350565b600080604083850312156140c757600080fd5b60006140d585828601613dd0565b92505060206140e685828601613e83565b9150509250929050565b6000806040838503121561410357600080fd5b600061411185828601613dd0565b925050602061412285828601613eec565b9150509250929050565b6000806020838503121561413f57600080fd5b600083013567ffffffffffffffff81111561415957600080fd5b61416585828601613de5565b92509250509250929050565b60006020828403121561418357600080fd5b600082013567ffffffffffffffff81111561419d57600080fd5b6141a984828501613e2f565b91505092915050565b600080604083850312156141c557600080fd5b600083013567ffffffffffffffff8111156141df57600080fd5b6141eb85828601613e2f565b925050602083013567ffffffffffffffff81111561420857600080fd5b61421485828601613e59565b9150509250929050565b60006020828403121561423057600080fd5b600061423e84828501613e98565b91505092915050565b60006020828403121561425957600080fd5b600061426784828501613ead565b91505092915050565b60006020828403121561428257600080fd5b600061429084828501613eec565b91505092915050565b600080604083850312156142ac57600080fd5b60006142ba85828601613eec565b92505060206142cb85828601613eec565b9150509250929050565b6000806000606084860312156142ea57600080fd5b60006142f886828701613eec565b935050602061430986828701613eec565b925050604061431a86828701613eec565b9150509250925092565b60006143308383614868565b60208301905092915050565b61434581614faf565b82525050565b600061435682614e88565b6143608185614eb6565b935061436b83614e63565b8060005b8381101561439c5781516143838882614324565b975061438e83614ea9565b92505060018101905061436f565b5085935050505092915050565b6143b281614fc1565b82525050565b60006143c382614e93565b6143cd8185614ec7565b93506143dd818560208601615032565b6143e68161524a565b840191505092915050565b60006143fc82614e9e565b6144068185614ed8565b9350614416818560208601615032565b61441f8161524a565b840191505092915050565b600061443582614e9e565b61443f8185614ee9565b935061444f818560208601615032565b80840191505092915050565b600081546144688161508f565b6144728186614ee9565b9450600182166000811461448d576001811461449e576144d1565b60ff198316865281860193506144d1565b6144a785614e73565b60005b838110156144c9578154818901526001820191506020810190506144aa565b838801955050505b50505092915050565b60006144e7603483614ed8565b91506144f282615268565b604082019050919050565b600061450a602883614ed8565b9150614515826152b7565b604082019050919050565b600061452d601783614ed8565b915061453882615306565b602082019050919050565b6000614550602b83614ed8565b915061455b8261532f565b604082019050919050565b6000614573602683614ed8565b915061457e8261537e565b604082019050919050565b6000614596601983614ed8565b91506145a1826153cd565b602082019050919050565b60006145b9602983614ed8565b91506145c4826153f6565b604082019050919050565b60006145dc601183614ed8565b91506145e782615445565b602082019050919050565b60006145ff602583614ed8565b915061460a8261546e565b604082019050919050565b6000614622603283614ed8565b915061462d826154bd565b604082019050919050565b6000614645602183614ed8565b91506146508261550c565b604082019050919050565b6000614668601d83614ed8565b91506146738261555b565b602082019050919050565b600061468b602a83614ed8565b915061469682615584565b604082019050919050565b60006146ae600583614ee9565b91506146b9826155d3565b600582019050919050565b60006146d1602083614ed8565b91506146dc826155fc565b602082019050919050565b60006146f4604083614ed8565b91506146ff82615625565b604082019050919050565b6000614717601c83614ed8565b915061472282615674565b602082019050919050565b600061473a601483614ed8565b91506147458261569d565b602082019050919050565b600061475d602983614ed8565b9150614768826156c6565b604082019050919050565b6000614780603383614ed8565b915061478b82615715565b604082019050919050565b60006147a3602983614ed8565b91506147ae82615764565b604082019050919050565b60006147c6602883614ed8565b91506147d1826157b3565b604082019050919050565b60006147e9602183614ed8565b91506147f482615802565b604082019050919050565b600061480c601f83614ed8565b915061481782615851565b602082019050919050565b600061482f602583614ed8565b915061483a8261587a565b604082019050919050565b6000614852602883614ed8565b915061485d826158c9565b604082019050919050565b61487181615019565b82525050565b61488081615019565b82525050565b6000614892828561445b565b915061489e828461442a565b91506148a9826146a1565b91508190509392505050565b60006020820190506148ca600083018461433c565b92915050565b600060a0820190506148e5600083018861433c565b6148f2602083018761433c565b8181036040830152614904818661434b565b90508181036060830152614918818561434b565b9050818103608083015261492c81846143b8565b90509695505050505050565b600060a08201905061494d600083018861433c565b61495a602083018761433c565b6149676040830186614877565b6149746060830185614877565b818103608083015261498681846143b8565b90509695505050505050565b60006040820190506149a7600083018561433c565b6149b46020830184614877565b9392505050565b600060208201905081810360008301526149d5818461434b565b905092915050565b600060408201905081810360008301526149f7818561434b565b90508181036020830152614a0b818461434b565b90509392505050565b6000602082019050614a2960008301846143a9565b92915050565b60006020820190508181036000830152614a4981846143f1565b905092915050565b60006020820190508181036000830152614a6a816144da565b9050919050565b60006020820190508181036000830152614a8a816144fd565b9050919050565b60006020820190508181036000830152614aaa81614520565b9050919050565b60006020820190508181036000830152614aca81614543565b9050919050565b60006020820190508181036000830152614aea81614566565b9050919050565b60006020820190508181036000830152614b0a81614589565b9050919050565b60006020820190508181036000830152614b2a816145ac565b9050919050565b60006020820190508181036000830152614b4a816145cf565b9050919050565b60006020820190508181036000830152614b6a816145f2565b9050919050565b60006020820190508181036000830152614b8a81614615565b9050919050565b60006020820190508181036000830152614baa81614638565b9050919050565b60006020820190508181036000830152614bca8161465b565b9050919050565b60006020820190508181036000830152614bea8161467e565b9050919050565b60006020820190508181036000830152614c0a816146c4565b9050919050565b60006020820190508181036000830152614c2a816146e7565b9050919050565b60006020820190508181036000830152614c4a8161470a565b9050919050565b60006020820190508181036000830152614c6a8161472d565b9050919050565b60006020820190508181036000830152614c8a81614750565b9050919050565b60006020820190508181036000830152614caa81614773565b9050919050565b60006020820190508181036000830152614cca81614796565b9050919050565b60006020820190508181036000830152614cea816147b9565b9050919050565b60006020820190508181036000830152614d0a816147dc565b9050919050565b60006020820190508181036000830152614d2a816147ff565b9050919050565b60006020820190508181036000830152614d4a81614822565b9050919050565b60006020820190508181036000830152614d6a81614845565b9050919050565b6000602082019050614d866000830184614877565b92915050565b6000604082019050614da16000830185614877565b614dae6020830184614877565b9392505050565b6000614dbf614dd0565b9050614dcb82826150c1565b919050565b6000604051905090565b600067ffffffffffffffff821115614df557614df46151f9565b5b602082029050602081019050919050565b600067ffffffffffffffff821115614e2157614e206151f9565b5b602082029050602081019050919050565b600067ffffffffffffffff821115614e4d57614e4c6151f9565b5b614e568261524a565b9050602081019050919050565b6000819050602082019050919050565b60008190508160005260206000209050919050565b600081519050919050565b600081519050919050565b600081519050919050565b6000602082019050919050565b600082825260208201905092915050565b600082825260208201905092915050565b600082825260208201905092915050565b600081905092915050565b6000614eff82615019565b9150614f0a83615019565b9250827fffffffffffffffffffffffffffffffffffffffffffffffffffffffffffffffff03821115614f3f57614f3e61516c565b5b828201905092915050565b6000614f5582615019565b9150614f6083615019565b925082614f7057614f6f61519b565b5b828204905092915050565b6000614f8682615019565b9150614f9183615019565b925082821015614fa457614fa361516c565b5b828203905092915050565b6000614fba82614ff9565b9050919050565b60008115159050919050565b60007fffffffff0000000000000000000000000000000000000000000000000000000082169050919050565b600073ffffffffffffffffffffffffffffffffffffffff82169050919050565b6000819050919050565b82818337600083830152505050565b60005b83811015615050578082015181840152602081019050615035565b8381111561505f576000848401525b50505050565b600061507082615019565b915060008214156150845761508361516c565b5b600182039050919050565b600060028204905060018216806150a757607f821691505b602082108114156150bb576150ba6151ca565b5b50919050565b6150ca8261524a565b810181811067ffffffffffffffff821117156150e9576150e86151f9565b5b80604052505050565b60006150fd82615019565b91507fffffffffffffffffffffffffffffffffffffffffffffffffffffffffffffffff8214156151305761512f61516c565b5b600182019050919050565b600061514682615019565b915061515183615019565b9250826151615761516061519b565b5b828206905092915050565b7f4e487b7100000000000000000000000000000000000000000000000000000000600052601160045260246000fd5b7f4e487b7100000000000000000000000000000000000000000000000000000000600052601260045260246000fd5b7f4e487b7100000000000000000000000000000000000000000000000000000000600052602260045260246000fd5b7f4e487b7100000000000000000000000000000000000000000000000000000000600052604160045260246000fd5b600060033d11156152475760046000803e61524460005161525b565b90505b90565b6000601f19601f8301169050919050565b60008160e01c9050919050565b7f455243313135353a207472616e7366657220746f206e6f6e204552433131353560008201527f526563656976657220696d706c656d656e746572000000000000000000000000602082015250565b7f455243313135353a204552433131353552656365697665722072656a6563746560008201527f6420746f6b656e73000000000000000000000000000000000000000000000000602082015250565b7f50726573616c6520686173206e6f742073746172746564000000000000000000600082015250565b7f455243313135353a2062616c616e636520717565727920666f7220746865207a60008201527f65726f2061646472657373000000000000000000000000000000000000000000602082015250565b7f4f776e61626c653a206e6577206f776e657220697320746865207a65726f206160008201527f6464726573730000000000000000000000000000000000000000000000000000602082015250565b7f4e6f7420456e6f756768205649462073706f7473206c65667400000000000000600082015250565b7f455243313135353a2063616c6c6572206973206e6f74206f776e6572206e6f7260008201527f20617070726f7665640000000000000000000000000000000000000000000000602082015250565b7f4f7574206f66204769766561776179732e000000000000000000000000000000600082015250565b7f455243313135353a207472616e7366657220746f20746865207a65726f20616460008201527f6472657373000000000000000000000000000000000000000000000000000000602082015250565b7f455243313135353a207472616e736665722063616c6c6572206973206e6f742060008201527f6f776e6572206e6f7220617070726f7665640000000000000000000000000000602082015250565b7f596f7520646f206e6f74206f776e2074686520666f7572496e4f6e65546f6b6560008201527f6e00000000000000000000000000000000000000000000000000000000000000602082015250565b7f596f7520646f206e6f74206f776e20746865206672756974746f6b656e000000600082015250565b7f455243313135353a20696e73756666696369656e742062616c616e636520666f60008201527f72207472616e7366657200000000000000000000000000000000000000000000602082015250565b7f2e6a736f6e000000000000000000000000000000000000000000000000000000600082015250565b7f4f776e61626c653a2063616c6c6572206973206e6f7420746865206f776e6572600082015250565b7f50726573616c65206973206163746976652062757420796f752772652061726560008201527f206e6f742061205649462c207761697420666f72207075626c69632073616c65602082015250565b7f416c6c20426174636865732068617665206265656e206d696e74656400000000600082015250565b7f4e6f20657468657220696e20636f6e7472616374000000000000000000000000600082015250565b7f455243313135353a2073657474696e6720617070726f76616c2073746174757360008201527f20666f722073656c660000000000000000000000000000000000000000000000602082015250565b7f43616e6e6f74207075726368617365206d6f7265207468616e206f6e6520626160008201527f746368206d696e74207065722077616c6c657400000000000000000000000000602082015250565b7f455243313135353a206163636f756e747320616e6420696473206c656e67746860008201527f206d69736d617463680000000000000000000000000000000000000000000000602082015250565b7f455243313135353a2069647320616e6420616d6f756e7473206c656e6774682060008201527f6d69736d61746368000000000000000000000000000000000000000000000000602082015250565b7f455243313135353a206d696e7420746f20746865207a65726f2061646472657360008201527f7300000000000000000000000000000000000000000000000000000000000000602082015250565b7f5265656e7472616e637947756172643a207265656e7472616e742063616c6c00600082015250565b7f596f7520646f206e6f74206f776e2061207265636569707420666f722065786360008201527f68616e6765000000000000000000000000000000000000000000000000000000602082015250565b7f4e6f7420656e6f756768206574686572207761732073656e7420746f2074726160008201527f6e73616374696f6e000000000000000000000000000000000000000000000000602082015250565b600060443d1015615928576159ab565b615930614dd0565b60043d036004823e80513d602482011167ffffffffffffffff821117156159585750506159ab565b808201805167ffffffffffffffff81111561597657505050506159ab565b80602083010160043d0385018111156159935750505050506159ab565b6159a2826020018501866150c1565b82955050505050505b90565b6159b781614faf565b81146159c257600080fd5b50565b6159ce81614fc1565b81146159d957600080fd5b50565b6159e581614fcd565b81146159f057600080fd5b50565b6159fc81615019565b8114615a0757600080fd5b5056fea26469706673582212205bc831cbcbc729c85e1ef6bb1ecc4ca14ae56b9fb0c7d50e871648dde410df2664736f6c63430008040033",
  "linkReferences": {},
  "deployedLinkReferences": {}
}