{
  "_format": "hh-sol-artifact-1",
  "contractName": "DemoOptimized",
  "sourceName": "contracts/DemoOptimized.sol",
  "abi": [
    {
      "inputs": [
        {
          "internalType": "string",
          "name": "uri",
          "type": "string"
        },
        {
          "internalType": "string",
          "name": "uriHidden",
          "type": "string"
        }
      ],
      "stateMutability": "nonpayable",
      "type": "constructor"
    },
    {
      "anonymous": false,
      "inputs": [
        {
          "indexed": true,
          "internalType": "address",
          "name": "account",
          "type": "address"
        },
        {
          "indexed": true,
          "internalType": "address",
          "name": "operator",
          "type": "address"
        },
        {
          "indexed": false,
          "internalType": "bool",
          "name": "approved",
          "type": "bool"
        }
      ],
      "name": "ApprovalForAll",
      "type": "event"
    },
    {
      "anonymous": false,
      "inputs": [
        {
          "indexed": false,
          "internalType": "address",
          "name": "_sender",
          "type": "address"
        },
        {
          "indexed": false,
          "internalType": "uint256",
          "name": "_supply",
          "type": "uint256"
        }
      ],
      "name": "IncreaseBundleSupply",
      "type": "event"
    },
    {
      "anonymous": false,
      "inputs": [
        {
          "indexed": false,
          "internalType": "address",
          "name": "_sender",
          "type": "address"
        },
        {
          "indexed": false,
          "internalType": "uint256",
          "name": "_supply",
          "type": "uint256"
        }
      ],
      "name": "IncreaseReceiptSupply",
      "type": "event"
    },
    {
      "anonymous": false,
      "inputs": [
        {
          "indexed": true,
          "internalType": "address",
          "name": "previousOwner",
          "type": "address"
        },
        {
          "indexed": true,
          "internalType": "address",
          "name": "newOwner",
          "type": "address"
        }
      ],
      "name": "OwnershipTransferred",
      "type": "event"
    },
    {
      "anonymous": false,
      "inputs": [
        {
          "indexed": false,
          "internalType": "uint256",
          "name": "_presaleStartTime",
          "type": "uint256"
        },
        {
          "indexed": false,
          "internalType": "uint256",
          "name": "_saleStartTime",
          "type": "uint256"
        }
      ],
      "name": "SaleHasBeenSet",
      "type": "event"
    },
    {
      "anonymous": false,
      "inputs": [
        {
          "indexed": true,
          "internalType": "address",
          "name": "operator",
          "type": "address"
        },
        {
          "indexed": true,
          "internalType": "address",
          "name": "from",
          "type": "address"
        },
        {
          "indexed": true,
          "internalType": "address",
          "name": "to",
          "type": "address"
        },
        {
          "indexed": false,
          "internalType": "uint256[]",
          "name": "ids",
          "type": "uint256[]"
        },
        {
          "indexed": false,
          "internalType": "uint256[]",
          "name": "values",
          "type": "uint256[]"
        }
      ],
      "name": "TransferBatch",
      "type": "event"
    },
    {
      "anonymous": false,
      "inputs": [
        {
          "indexed": true,
          "internalType": "address",
          "name": "operator",
          "type": "address"
        },
        {
          "indexed": true,
          "internalType": "address",
          "name": "from",
          "type": "address"
        },
        {
          "indexed": true,
          "internalType": "address",
          "name": "to",
          "type": "address"
        },
        {
          "indexed": false,
          "internalType": "uint256",
          "name": "id",
          "type": "uint256"
        },
        {
          "indexed": false,
          "internalType": "uint256",
          "name": "value",
          "type": "uint256"
        }
      ],
      "name": "TransferSingle",
      "type": "event"
    },
    {
      "anonymous": false,
      "inputs": [
        {
          "indexed": false,
          "internalType": "string",
          "name": "value",
          "type": "string"
        },
        {
          "indexed": true,
          "internalType": "uint256",
          "name": "id",
          "type": "uint256"
        }
      ],
      "name": "URI",
      "type": "event"
    },
    {
      "inputs": [
        {
          "internalType": "address",
          "name": "account",
          "type": "address"
        },
        {
          "internalType": "uint256",
          "name": "id",
          "type": "uint256"
        }
      ],
      "name": "balanceOf",
      "outputs": [
        {
          "internalType": "uint256",
          "name": "",
          "type": "uint256"
        }
      ],
      "stateMutability": "view",
      "type": "function"
    },
    {
      "inputs": [
        {
          "internalType": "address[]",
          "name": "accounts",
          "type": "address[]"
        },
        {
          "internalType": "uint256[]",
          "name": "ids",
          "type": "uint256[]"
        }
      ],
      "name": "balanceOfBatch",
      "outputs": [
        {
          "internalType": "uint256[]",
          "name": "",
          "type": "uint256[]"
        }
      ],
      "stateMutability": "view",
      "type": "function"
    },
    {
      "inputs": [
        {
          "internalType": "uint256",
          "name": "_fruitTokenId",
          "type": "uint256"
        },
        {
          "internalType": "uint256",
          "name": "_fourInOneTokenId",
          "type": "uint256"
        },
        {
          "internalType": "uint256",
          "name": "_quadrant",
          "type": "uint256"
        }
      ],
      "name": "cuteeExchange",
      "outputs": [],
      "stateMutability": "nonpayable",
      "type": "function"
    },
    {
      "inputs": [],
      "name": "getBalance",
      "outputs": [
        {
          "internalType": "uint256",
          "name": "",
          "type": "uint256"
        }
      ],
      "stateMutability": "view",
      "type": "function"
    },
    {
      "inputs": [],
      "name": "getBundleBalance",
      "outputs": [
        {
          "internalType": "uint256",
          "name": "",
          "type": "uint256"
        }
      ],
      "stateMutability": "view",
      "type": "function"
    },
    {
      "inputs": [],
      "name": "getBundleSupply",
      "outputs": [
        {
          "internalType": "uint256",
          "name": "",
          "type": "uint256"
        }
      ],
      "stateMutability": "view",
      "type": "function"
    },
    {
      "inputs": [],
      "name": "getReceiptSupply",
      "outputs": [
        {
          "internalType": "uint256",
          "name": "",
          "type": "uint256"
        }
      ],
      "stateMutability": "view",
      "type": "function"
    },
    {
      "inputs": [
        {
          "internalType": "address",
          "name": "_address",
          "type": "address"
        }
      ],
      "name": "getVIF",
      "outputs": [
        {
          "internalType": "uint256",
          "name": "",
          "type": "uint256"
        }
      ],
      "stateMutability": "view",
      "type": "function"
    },
    {
      "inputs": [],
      "name": "getVIFLeft",
      "outputs": [
        {
          "internalType": "uint256",
          "name": "",
          "type": "uint256"
        }
      ],
      "stateMutability": "view",
      "type": "function"
    },
    {
      "inputs": [
        {
          "internalType": "address[]",
          "name": "_to",
          "type": "address[]"
        }
      ],
      "name": "giveawayMintBatch",
      "outputs": [],
      "stateMutability": "nonpayable",
      "type": "function"
    },
    {
      "inputs": [
        {
          "internalType": "uint256",
          "name": "_supply",
          "type": "uint256"
        }
      ],
      "name": "increaseReceiptSupply",
      "outputs": [],
      "stateMutability": "nonpayable",
      "type": "function"
    },
    {
      "inputs": [
        {
          "internalType": "address",
          "name": "account",
          "type": "address"
        },
        {
          "internalType": "address",
          "name": "operator",
          "type": "address"
        }
      ],
      "name": "isApprovedForAll",
      "outputs": [
        {
          "internalType": "bool",
          "name": "",
          "type": "bool"
        }
      ],
      "stateMutability": "view",
      "type": "function"
    },
    {
      "inputs": [],
      "name": "mintBundle",
      "outputs": [],
      "stateMutability": "payable",
      "type": "function"
    },
    {
      "inputs": [],
      "name": "owner",
      "outputs": [
        {
          "internalType": "address",
          "name": "",
          "type": "address"
        }
      ],
      "stateMutability": "view",
      "type": "function"
    },
    {
      "inputs": [],
      "name": "renounceOwnership",
      "outputs": [],
      "stateMutability": "nonpayable",
      "type": "function"
    },
    {
      "inputs": [
        {
          "internalType": "uint256",
          "name": "_VIFCount",
          "type": "uint256"
        }
      ],
      "name": "resetVIF",
      "outputs": [],
      "stateMutability": "nonpayable",
      "type": "function"
    },
    {
      "inputs": [
        {
          "internalType": "address",
          "name": "from",
          "type": "address"
        },
        {
          "internalType": "address",
          "name": "to",
          "type": "address"
        },
        {
          "internalType": "uint256[]",
          "name": "ids",
          "type": "uint256[]"
        },
        {
          "internalType": "uint256[]",
          "name": "amounts",
          "type": "uint256[]"
        },
        {
          "internalType": "bytes",
          "name": "data",
          "type": "bytes"
        }
      ],
      "name": "safeBatchTransferFrom",
      "outputs": [],
      "stateMutability": "nonpayable",
      "type": "function"
    },
    {
      "inputs": [
        {
          "internalType": "address",
          "name": "from",
          "type": "address"
        },
        {
          "internalType": "address",
          "name": "to",
          "type": "address"
        },
        {
          "internalType": "uint256",
          "name": "id",
          "type": "uint256"
        },
        {
          "internalType": "uint256",
          "name": "amount",
          "type": "uint256"
        },
        {
          "internalType": "bytes",
          "name": "data",
          "type": "bytes"
        }
      ],
      "name": "safeTransferFrom",
      "outputs": [],
      "stateMutability": "nonpayable",
      "type": "function"
    },
    {
      "inputs": [
        {
          "internalType": "address",
          "name": "operator",
          "type": "address"
        },
        {
          "internalType": "bool",
          "name": "approved",
          "type": "bool"
        }
      ],
      "name": "setApprovalForAll",
      "outputs": [],
      "stateMutability": "nonpayable",
      "type": "function"
    },
    {
      "inputs": [
        {
          "internalType": "uint256",
          "name": "_presaleStartTime",
          "type": "uint256"
        },
        {
          "internalType": "uint256",
          "name": "_timeBetweenSales",
          "type": "uint256"
        }
      ],
      "name": "setPresaleStartTime",
      "outputs": [],
      "stateMutability": "nonpayable",
      "type": "function"
    },
    {
      "inputs": [
        {
          "internalType": "uint256",
          "name": "_gwei",
          "type": "uint256"
        }
      ],
      "name": "setPricePerBundle",
      "outputs": [],
      "stateMutability": "nonpayable",
      "type": "function"
    },
    {
      "inputs": [
        {
          "internalType": "uint256",
          "name": "_fruitTokenIdLowerParam",
          "type": "uint256"
        },
        {
          "internalType": "uint256",
          "name": "_fourInOneTokenIdLowerParam",
          "type": "uint256"
        }
      ],
      "name": "setSeasonLowerParams",
      "outputs": [],
      "stateMutability": "nonpayable",
      "type": "function"
    },
    {
      "inputs": [
        {
          "internalType": "address[]",
          "name": "_vifs",
          "type": "address[]"
        }
      ],
      "name": "setVIF",
      "outputs": [],
      "stateMutability": "nonpayable",
      "type": "function"
    },
    {
      "inputs": [
        {
          "internalType": "bytes4",
          "name": "interfaceId",
          "type": "bytes4"
        }
      ],
      "name": "supportsInterface",
      "outputs": [
        {
          "internalType": "bool",
          "name": "",
          "type": "bool"
        }
      ],
      "stateMutability": "view",
      "type": "function"
    },
    {
      "inputs": [
        {
          "internalType": "address",
          "name": "newOwner",
          "type": "address"
        }
      ],
      "name": "transferOwnership",
      "outputs": [],
      "stateMutability": "nonpayable",
      "type": "function"
    },
    {
      "inputs": [
        {
          "internalType": "uint256",
          "name": "_tokenId",
          "type": "uint256"
        }
      ],
      "name": "uri",
      "outputs": [
        {
          "internalType": "string",
          "name": "",
          "type": "string"
        }
      ],
      "stateMutability": "view",
      "type": "function"
    },
    {
      "inputs": [],
      "name": "withdrawBalance",
      "outputs": [],
      "stateMutability": "nonpayable",
      "type": "function"
    }
  ],
  "bytecode": "0x6080604052610bb86006556001600755620186a1600855607b60095561036d600a5567016345785d8a00006015556101f46018553480156200004057600080fd5b5060405162005ec938038062005ec98339818101604052810190620000669190620002de565b620000866200007a620000ee60201b60201c565b620000f660201b60201c565b60016005819055506000600f819055506201869f601181905550620186a0601081905550620f423f60128190555081600d9080519060200190620000cc929190620001bc565b5080600e9080519060200190620000e5929190620001bc565b505050620004c1565b600033905090565b6000600460009054906101000a900473ffffffffffffffffffffffffffffffffffffffff16905081600460006101000a81548173ffffffffffffffffffffffffffffffffffffffff021916908373ffffffffffffffffffffffffffffffffffffffff1602179055508173ffffffffffffffffffffffffffffffffffffffff168173ffffffffffffffffffffffffffffffffffffffff167f8be0079c531659141344cd1fd0a4f28419497f9722a3daafe3b4186f6b6457e060405160405180910390a35050565b828054620001ca90620003e6565b90600052602060002090601f016020900481019282620001ee57600085556200023a565b82601f106200020957805160ff19168380011785556200023a565b828001600101855582156200023a579182015b82811115620002395782518255916020019190600101906200021c565b5b5090506200024991906200024d565b5090565b5b80821115620002685760008160009055506001016200024e565b5090565b6000620002836200027d846200037a565b62000351565b9050828152602081018484840111156200029c57600080fd5b620002a9848285620003b0565b509392505050565b600082601f830112620002c357600080fd5b8151620002d58482602086016200026c565b91505092915050565b60008060408385031215620002f257600080fd5b600083015167ffffffffffffffff8111156200030d57600080fd5b6200031b85828601620002b1565b925050602083015167ffffffffffffffff8111156200033957600080fd5b6200034785828601620002b1565b9150509250929050565b60006200035d62000370565b90506200036b82826200041c565b919050565b6000604051905090565b600067ffffffffffffffff82111562000398576200039762000481565b5b620003a382620004b0565b9050602081019050919050565b60005b83811015620003d0578082015181840152602081019050620003b3565b83811115620003e0576000848401525b50505050565b60006002820490506001821680620003ff57607f821691505b6020821081141562000416576200041562000452565b5b50919050565b6200042782620004b0565b810181811067ffffffffffffffff8211171562000449576200044862000481565b5b80604052505050565b7f4e487b7100000000000000000000000000000000000000000000000000000000600052602260045260246000fd5b7f4e487b7100000000000000000000000000000000000000000000000000000000600052604160045260246000fd5b6000601f19601f8301169050919050565b6159f880620004d16000396000f3fe60806040526004361061019b5760003560e01c8063715018a6116100ec5780639b1496081161008a578063cec2e73311610064578063cec2e7331461057c578063e985e9c5146105a5578063f242432a146105e2578063f2fde38b1461060b5761019b565b80639b149608146104ff578063a22cb46514610528578063b08504e9146105515761019b565b806383fc3067116100c657806383fc3067146104575780638686d795146104805780638da5cb5b146104a95780639171c3da146104d45761019b565b8063715018a6146103ec57806376937cef146104035780638110b32f1461042e5761019b565b80632eb2c2d611610159578063410404b711610133578063410404b7146103635780634e1273f41461036d5780635f4c5b25146103aa5780635fd8c710146103d55761019b565b80632eb2c2d6146102d45780633bdb7c9e146102fd5780633efc52001461033a5761019b565b8062fdd58e146101a057806301ffc9a7146101dd5780630948b38a1461021a5780630e89341c1461024357806312065fe01461028057806312a60517146102ab575b600080fd5b3480156101ac57600080fd5b506101c760048036038101906101c291906140a8565b610634565b6040516101d49190614d29565b60405180910390f35b3480156101e957600080fd5b5061020460048036038101906101ff91906141d6565b6106fd565b60405161021191906149cc565b60405180910390f35b34801561022657600080fd5b50610241600480360381019061023c9190614251565b6107df565b005b34801561024f57600080fd5b5061026a60048036038101906102659190614228565b6108b5565b60405161027791906149e7565b60405180910390f35b34801561028c57600080fd5b506102956109ac565b6040516102a29190614d29565b60405180910390f35b3480156102b757600080fd5b506102d260048036038101906102cd9190614251565b610a30565b005b3480156102e057600080fd5b506102fb60048036038101906102f69190613f1e565b610abe565b005b34801561030957600080fd5b50610324600480360381019061031f9190613eb9565b610b5f565b6040516103319190614d29565b60405180910390f35b34801561034657600080fd5b50610361600480360381019061035c9190614228565b610c24565b005b61036b610caa565b005b34801561037957600080fd5b50610394600480360381019061038f919061416a565b611456565b6040516103a19190614973565b60405180910390f35b3480156103b657600080fd5b506103bf611607565b6040516103cc9190614d29565b60405180910390f35b3480156103e157600080fd5b506103ea611611565b005b3480156103f857600080fd5b50610401611719565b005b34801561040f57600080fd5b506104186117a1565b6040516104259190614d29565b60405180910390f35b34801561043a57600080fd5b506104556004803603810190610450919061428d565b6117ab565b005b34801561046357600080fd5b5061047e60048036038101906104799190614228565b611d32565b005b34801561048c57600080fd5b506104a760048036038101906104a29190614228565b611dfe565b005b3480156104b557600080fd5b506104be611f5f565b6040516104cb919061486d565b60405180910390f35b3480156104e057600080fd5b506104e9611f89565b6040516104f69190614d29565b60405180910390f35b34801561050b57600080fd5b5061052660048036038101906105219190614129565b61200f565b005b34801561053457600080fd5b5061054f600480360381019061054a919061406c565b612231565b005b34801561055d57600080fd5b50610566612247565b6040516105739190614d29565b60405180910390f35b34801561058857600080fd5b506105a3600480360381019061059e91906140e4565b61228e565b005b3480156105b157600080fd5b506105cc60048036038101906105c79190613ee2565b6128d1565b6040516105d991906149cc565b60405180910390f35b3480156105ee57600080fd5b5061060960048036038101906106049190613fdd565b612965565b005b34801561061757600080fd5b50610632600480360381019061062d9190613eb9565b612a06565b005b60008073ffffffffffffffffffffffffffffffffffffffff168373ffffffffffffffffffffffffffffffffffffffff1614156106a5576040517f08c379a000000000000000000000000000000000000000000000000000000000815260040161069c90614a69565b60405180910390fd5b60008083815260200190815260200160002060008473ffffffffffffffffffffffffffffffffffffffff1673ffffffffffffffffffffffffffffffffffffffff16815260200190815260200160002054905092915050565b60007fd9b67a26000000000000000000000000000000000000000000000000000000007bffffffffffffffffffffffffffffffffffffffffffffffffffffffff1916827bffffffffffffffffffffffffffffffffffffffffffffffffffffffff191614806107c857507f0e89341c000000000000000000000000000000000000000000000000000000007bffffffffffffffffffffffffffffffffffffffffffffffffffffffff1916827bffffffffffffffffffffffffffffffffffffffffffffffffffffffff1916145b806107d857506107d782612afe565b5b9050919050565b6107e7612b68565b73ffffffffffffffffffffffffffffffffffffffff16610805611f5f565b73ffffffffffffffffffffffffffffffffffffffff161461085b576040517f08c379a000000000000000000000000000000000000000000000000000000000815260040161085290614ba9565b60405180910390fd5b81601381905550808261086e9190614eac565b6014819055507f88c7c5a177be8b426acec3417df4c4882059c60453b8e02e6c8d16998919e73e6013546014546040516108a9929190614d44565b60405180910390a15050565b6060600f54821180156108c9575060115482105b806108e25750601054821180156108e1575060125482105b5b1561097957600e80546108f490615047565b80601f016020809104026020016040519081016040528092919081815260200182805461092090615047565b801561096d5780601f106109425761010080835404028352916020019161096d565b820191906000526020600020905b81548152906001019060200180831161095057829003601f168201915b505050505090506109a7565b600d61098483612b70565b60405160200161099592919061483e565b60405160208183030381529060405290505b919050565b60006109b6612b68565b73ffffffffffffffffffffffffffffffffffffffff166109d4611f5f565b73ffffffffffffffffffffffffffffffffffffffff1614610a2a576040517f08c379a0000000000000000000000000000000000000000000000000000000008152600401610a2190614ba9565b60405180910390fd5b47905090565b610a38612b68565b73ffffffffffffffffffffffffffffffffffffffff16610a56611f5f565b73ffffffffffffffffffffffffffffffffffffffff1614610aac576040517f08c379a0000000000000000000000000000000000000000000000000000000008152600401610aa390614ba9565b60405180910390fd5b81600f81905550806010819055505050565b610ac6612b68565b73ffffffffffffffffffffffffffffffffffffffff168573ffffffffffffffffffffffffffffffffffffffff161480610b0c5750610b0b85610b06612b68565b6128d1565b5b610b4b576040517f08c379a0000000000000000000000000000000000000000000000000000000008152600401610b4290614b29565b60405180910390fd5b610b588585858585612d1d565b5050505050565b6000610b69612b68565b73ffffffffffffffffffffffffffffffffffffffff16610b87611f5f565b73ffffffffffffffffffffffffffffffffffffffff1614610bdd576040517f08c379a0000000000000000000000000000000000000000000000000000000008152600401610bd490614ba9565b60405180910390fd5b601660008373ffffffffffffffffffffffffffffffffffffffff1673ffffffffffffffffffffffffffffffffffffffff168152602001908152602001600020549050919050565b610c2c612b68565b73ffffffffffffffffffffffffffffffffffffffff16610c4a611f5f565b73ffffffffffffffffffffffffffffffffffffffff1614610ca0576040517f08c379a0000000000000000000000000000000000000000000000000000000008152600401610c9790614ba9565b60405180910390fd5b8060158190555050565b6013544211610cee576040517f08c379a0000000000000000000000000000000000000000000000000000000008152600401610ce590614a49565b60405180910390fd5b60135442118015610d00575060145442105b15610d88576000601660003373ffffffffffffffffffffffffffffffffffffffff1673ffffffffffffffffffffffffffffffffffffffff1681526020019081526020016000205411610d87576040517f08c379a0000000000000000000000000000000000000000000000000000000008152600401610d7e90614bc9565b60405180910390fd5b5b60026005541415610dce576040517f08c379a0000000000000000000000000000000000000000000000000000000008152600401610dc590614cc9565b60405180910390fd5b600260058190555067016345785d8a0000341015610e21576040517f08c379a0000000000000000000000000000000000000000000000000000000008152600401610e1890614d09565b60405180910390fd5b6000600b60003373ffffffffffffffffffffffffffffffffffffffff1673ffffffffffffffffffffffffffffffffffffffff1681526020019081526020016000205414610ea3576040517f08c379a0000000000000000000000000000000000000000000000000000000008152600401610e9a90614c49565b60405180910390fd5b6000600a5411610ee8576040517f08c379a0000000000000000000000000000000000000000000000000000000008152600401610edf90614be9565b60405180910390fd5b6000600667ffffffffffffffff811115610f2b577f4e487b7100000000000000000000000000000000000000000000000000000000600052604160045260246000fd5b604051908082528060200260200182016040528015610f595781602001602082028036833780820191505090505b5090506000600667ffffffffffffffff811115610f9f577f4e487b7100000000000000000000000000000000000000000000000000000000600052604160045260246000fd5b604051908082528060200260200182016040528015610fcd5781602001602082028036833780820191505090505b50905060018260008151811061100c577f4e487b7100000000000000000000000000000000000000000000000000000000600052603260045260246000fd5b602002602001018181525050600182600181518110611054577f4e487b7100000000000000000000000000000000000000000000000000000000600052603260045260246000fd5b60200260200101818152505060018260028151811061109c577f4e487b7100000000000000000000000000000000000000000000000000000000600052603260045260246000fd5b6020026020010181815250506001826003815181106110e4577f4e487b7100000000000000000000000000000000000000000000000000000000600052603260045260246000fd5b60200260200101818152505060018260048151811061112c577f4e487b7100000000000000000000000000000000000000000000000000000000600052603260045260246000fd5b602002602001018181525050600382600581518110611174577f4e487b7100000000000000000000000000000000000000000000000000000000600052603260045260246000fd5b602002602001018181525050600754816000815181106111bd577f4e487b7100000000000000000000000000000000000000000000000000000000600052603260045260246000fd5b602002602001018181525050600760008154809291906111dc906150aa565b91905055506007548160018151811061121e577f4e487b7100000000000000000000000000000000000000000000000000000000600052603260045260246000fd5b6020026020010181815250506007600081548092919061123d906150aa565b91905055506007548160028151811061127f577f4e487b7100000000000000000000000000000000000000000000000000000000600052603260045260246000fd5b6020026020010181815250506007600081548092919061129e906150aa565b9190505550600754816003815181106112e0577f4e487b7100000000000000000000000000000000000000000000000000000000600052603260045260246000fd5b602002602001018181525050600760008154809291906112ff906150aa565b919050555060085481600481518110611341577f4e487b7100000000000000000000000000000000000000000000000000000000600052603260045260246000fd5b60200260200101818152505060086000815480929190611360906150aa565b91905055506000816005815181106113a1577f4e487b7100000000000000000000000000000000000000000000000000000000600052603260045260246000fd5b602002602001018181525050600b60003373ffffffffffffffffffffffffffffffffffffffff1673ffffffffffffffffffffffffffffffffffffffff16815260200190815260200160002060008154809291906113fd906150aa565b919050555061141d3382846040518060200160405280600081525061306f565b600360065461142c9190614f33565b600681905550600a60008154809291906114459061501d565b919050555050506001600581905550565b6060815183511461149c576040517f08c379a000000000000000000000000000000000000000000000000000000000815260040161149390614c69565b60405180910390fd5b6000835167ffffffffffffffff8111156114df577f4e487b7100000000000000000000000000000000000000000000000000000000600052604160045260246000fd5b60405190808252806020026020018201604052801561150d5781602001602082028036833780820191505090505b50905060005b84518110156115fc576115a6858281518110611558577f4e487b7100000000000000000000000000000000000000000000000000000000600052603260045260246000fd5b6020026020010151858381518110611599577f4e487b7100000000000000000000000000000000000000000000000000000000600052603260045260246000fd5b6020026020010151610634565b8282815181106115df577f4e487b7100000000000000000000000000000000000000000000000000000000600052603260045260246000fd5b602002602001018181525050806115f5906150aa565b9050611513565b508091505092915050565b6000600654905090565b611619612b68565b73ffffffffffffffffffffffffffffffffffffffff16611637611f5f565b73ffffffffffffffffffffffffffffffffffffffff161461168d576040517f08c379a000000000000000000000000000000000000000000000000000000000815260040161168490614ba9565b60405180910390fd5b600047116116d0576040517f08c379a00000000000000000000000000000000000000000000000000000000081526004016116c790614c09565b60405180910390fd5b3373ffffffffffffffffffffffffffffffffffffffff166108fc479081150290604051600060405180830381858888f19350505050158015611716573d6000803e3d6000fd5b50565b611721612b68565b73ffffffffffffffffffffffffffffffffffffffff1661173f611f5f565b73ffffffffffffffffffffffffffffffffffffffff1614611795576040517f08c379a000000000000000000000000000000000000000000000000000000000815260040161178c90614ba9565b60405180910390fd5b61179f60006132ca565b565b6000600a54905090565b600260055414156117f1576040517f08c379a00000000000000000000000000000000000000000000000000000000081526004016117e890614cc9565b60405180910390fd5b60026005819055506000600367ffffffffffffffff81111561183c577f4e487b7100000000000000000000000000000000000000000000000000000000600052604160045260246000fd5b60405190808252806020026020018201604052801561186a5781602001602082028036833780820191505090505b5090506000600367ffffffffffffffff8111156118b0577f4e487b7100000000000000000000000000000000000000000000000000000000600052604160045260246000fd5b6040519080825280602002602001820160405280156118de5781602001602082028036833780820191505090505b5090506000600367ffffffffffffffff811115611924577f4e487b7100000000000000000000000000000000000000000000000000000000600052604160045260246000fd5b6040519080825280602002602001820160405280156119525781602001602082028036833780820191505090505b5090503383600081518110611990577f4e487b7100000000000000000000000000000000000000000000000000000000600052603260045260246000fd5b602002602001019073ffffffffffffffffffffffffffffffffffffffff16908173ffffffffffffffffffffffffffffffffffffffff16815250503383600181518110611a05577f4e487b7100000000000000000000000000000000000000000000000000000000600052603260045260246000fd5b602002602001019073ffffffffffffffffffffffffffffffffffffffff16908173ffffffffffffffffffffffffffffffffffffffff16815250503383600281518110611a7a577f4e487b7100000000000000000000000000000000000000000000000000000000600052603260045260246000fd5b602002602001019073ffffffffffffffffffffffffffffffffffffffff16908173ffffffffffffffffffffffffffffffffffffffff16815250508582600081518110611aef577f4e487b7100000000000000000000000000000000000000000000000000000000600052603260045260246000fd5b6020026020010181815250508482600181518110611b36577f4e487b7100000000000000000000000000000000000000000000000000000000600052603260045260246000fd5b602002602001018181525050600082600281518110611b7e577f4e487b7100000000000000000000000000000000000000000000000000000000600052603260045260246000fd5b602002602001018181525050611b948383611456565b9050600081600081518110611bd2577f4e487b7100000000000000000000000000000000000000000000000000000000600052603260045260246000fd5b602002602001015111611c1a576040517f08c379a0000000000000000000000000000000000000000000000000000000008152600401611c1190614b69565b60405180910390fd5b600081600181518110611c56577f4e487b7100000000000000000000000000000000000000000000000000000000600052603260045260246000fd5b602002602001015111611c9e576040517f08c379a0000000000000000000000000000000000000000000000000000000008152600401611c9590614b49565b60405180910390fd5b600081600281518110611cda577f4e487b7100000000000000000000000000000000000000000000000000000000600052603260045260246000fd5b602002602001015111611d22576040517f08c379a0000000000000000000000000000000000000000000000000000000008152600401611d1990614ce9565b60405180910390fd5b5050506001600581905550505050565b611d3a612b68565b73ffffffffffffffffffffffffffffffffffffffff16611d58611f5f565b73ffffffffffffffffffffffffffffffffffffffff1614611dae576040517f08c379a0000000000000000000000000000000000000000000000000000000008152600401611da590614ba9565b60405180910390fd5b80600654611dbc9190614eac565b6006819055507fe3d47dee33b959cc59941f840525125123544e1f194b235f340f0c6147697ac33382604051611df392919061494a565b60405180910390a150565b611e06612b68565b73ffffffffffffffffffffffffffffffffffffffff16611e24611f5f565b73ffffffffffffffffffffffffffffffffffffffff1614611e7a576040517f08c379a0000000000000000000000000000000000000000000000000000000008152600401611e7190614ba9565b60405180910390fd5b60005b601780549050811015611f465760006016600060178481548110611eca577f4e487b7100000000000000000000000000000000000000000000000000000000600052603260045260246000fd5b9060005260206000200160009054906101000a900473ffffffffffffffffffffffffffffffffffffffff1673ffffffffffffffffffffffffffffffffffffffff1673ffffffffffffffffffffffffffffffffffffffff168152602001908152602001600020819055508080611f3e906150aa565b915050611e7d565b5060176000611f559190613c34565b8060188190555050565b6000600460009054906101000a900473ffffffffffffffffffffffffffffffffffffffff16905090565b6000611f93612b68565b73ffffffffffffffffffffffffffffffffffffffff16611fb1611f5f565b73ffffffffffffffffffffffffffffffffffffffff1614612007576040517f08c379a0000000000000000000000000000000000000000000000000000000008152600401611ffe90614ba9565b60405180910390fd5b601854905090565b612017612b68565b73ffffffffffffffffffffffffffffffffffffffff16612035611f5f565b73ffffffffffffffffffffffffffffffffffffffff161461208b576040517f08c379a000000000000000000000000000000000000000000000000000000000815260040161208290614ba9565b60405180910390fd5b805160185410156120d1576040517f08c379a00000000000000000000000000000000000000000000000000000000081526004016120c890614aa9565b60405180910390fd5b60005b81518110156122185760016016600084848151811061211c577f4e487b7100000000000000000000000000000000000000000000000000000000600052603260045260246000fd5b602002602001015173ffffffffffffffffffffffffffffffffffffffff1673ffffffffffffffffffffffffffffffffffffffff16815260200190815260200160002081905550601782828151811061219d577f4e487b7100000000000000000000000000000000000000000000000000000000600052603260045260246000fd5b60200260200101519080600181540180825580915050600190039060005260206000200160009091909190916101000a81548173ffffffffffffffffffffffffffffffffffffffff021916908373ffffffffffffffffffffffffffffffffffffffff1602179055508080612210906150aa565b9150506120d4565b5080516018546122289190614f33565b60188190555050565b61224361223c612b68565b8383613390565b5050565b6000600b60003373ffffffffffffffffffffffffffffffffffffffff1673ffffffffffffffffffffffffffffffffffffffff16815260200190815260200160002054905090565b612296612b68565b73ffffffffffffffffffffffffffffffffffffffff166122b4611f5f565b73ffffffffffffffffffffffffffffffffffffffff161461230a576040517f08c379a000000000000000000000000000000000000000000000000000000000815260040161230190614ba9565b60405180910390fd5b60006009541161234f576040517f08c379a000000000000000000000000000000000000000000000000000000000815260040161234690614ae9565b60405180910390fd5b6000600667ffffffffffffffff811115612392577f4e487b7100000000000000000000000000000000000000000000000000000000600052604160045260246000fd5b6040519080825280602002602001820160405280156123c05781602001602082028036833780820191505090505b5090506001816000815181106123ff577f4e487b7100000000000000000000000000000000000000000000000000000000600052603260045260246000fd5b602002602001018181525050600181600181518110612447577f4e487b7100000000000000000000000000000000000000000000000000000000600052603260045260246000fd5b60200260200101818152505060018160028151811061248f577f4e487b7100000000000000000000000000000000000000000000000000000000600052603260045260246000fd5b6020026020010181815250506001816003815181106124d7577f4e487b7100000000000000000000000000000000000000000000000000000000600052603260045260246000fd5b60200260200101818152505060018160048151811061251f577f4e487b7100000000000000000000000000000000000000000000000000000000600052603260045260246000fd5b602002602001018181525050600381600581518110612567577f4e487b7100000000000000000000000000000000000000000000000000000000600052603260045260246000fd5b6020026020010181815250506000600667ffffffffffffffff8111156125b6577f4e487b7100000000000000000000000000000000000000000000000000000000600052604160045260246000fd5b6040519080825280602002602001820160405280156125e45781602001602082028036833780820191505090505b50905060005b848490508110156128ca5760075482600081518110612632577f4e487b7100000000000000000000000000000000000000000000000000000000600052603260045260246000fd5b60200260200101818152505060076000815480929190612651906150aa565b919050555060075482600181518110612693577f4e487b7100000000000000000000000000000000000000000000000000000000600052603260045260246000fd5b602002602001018181525050600760008154809291906126b2906150aa565b9190505550600754826002815181106126f4577f4e487b7100000000000000000000000000000000000000000000000000000000600052603260045260246000fd5b60200260200101818152505060076000815480929190612713906150aa565b919050555060075482600381518110612755577f4e487b7100000000000000000000000000000000000000000000000000000000600052603260045260246000fd5b60200260200101818152505060076000815480929190612774906150aa565b9190505550600854826004815181106127b6577f4e487b7100000000000000000000000000000000000000000000000000000000600052603260045260246000fd5b602002602001018181525050600860008154809291906127d5906150aa565b9190505550600082600581518110612816577f4e487b7100000000000000000000000000000000000000000000000000000000600052603260045260246000fd5b60200260200101818152505061288a85858381811061285e577f4e487b7100000000000000000000000000000000000000000000000000000000600052603260045260246000fd5b90506020020160208101906128739190613eb9565b83856040518060200160405280600081525061306f565b60036006546128999190614f33565b600681905550600960008154809291906128b29061501d565b919050555080806128c2906150aa565b9150506125ea565b5050505050565b6000600160008473ffffffffffffffffffffffffffffffffffffffff1673ffffffffffffffffffffffffffffffffffffffff16815260200190815260200160002060008373ffffffffffffffffffffffffffffffffffffffff1673ffffffffffffffffffffffffffffffffffffffff16815260200190815260200160002060009054906101000a900460ff16905092915050565b61296d612b68565b73ffffffffffffffffffffffffffffffffffffffff168573ffffffffffffffffffffffffffffffffffffffff1614806129b357506129b2856129ad612b68565b6128d1565b5b6129f2576040517f08c379a00000000000000000000000000000000000000000000000000000000081526004016129e990614ac9565b60405180910390fd5b6129ff85858585856134fd565b5050505050565b612a0e612b68565b73ffffffffffffffffffffffffffffffffffffffff16612a2c611f5f565b73ffffffffffffffffffffffffffffffffffffffff1614612a82576040517f08c379a0000000000000000000000000000000000000000000000000000000008152600401612a7990614ba9565b60405180910390fd5b600073ffffffffffffffffffffffffffffffffffffffff168173ffffffffffffffffffffffffffffffffffffffff161415612af2576040517f08c379a0000000000000000000000000000000000000000000000000000000008152600401612ae990614a89565b60405180910390fd5b612afb816132ca565b50565b60007f01ffc9a7000000000000000000000000000000000000000000000000000000007bffffffffffffffffffffffffffffffffffffffffffffffffffffffff1916827bffffffffffffffffffffffffffffffffffffffffffffffffffffffff1916149050919050565b600033905090565b60606000821415612bb8576040518060400160405280600181526020017f30000000000000000000000000000000000000000000000000000000000000008152509050612d18565b600082905060005b60008214612bea578080612bd3906150aa565b915050600a82612be39190614f02565b9150612bc0565b60008167ffffffffffffffff811115612c2c577f4e487b7100000000000000000000000000000000000000000000000000000000600052604160045260246000fd5b6040519080825280601f01601f191660200182016040528015612c5e5781602001600182028036833780820191505090505b5090505b60008514612d1157600182612c779190614f33565b9150600a85612c8691906150f3565b6030612c929190614eac565b60f81b818381518110612cce577f4e487b7100000000000000000000000000000000000000000000000000000000600052603260045260246000fd5b60200101907effffffffffffffffffffffffffffffffffffffffffffffffffffffffffffff1916908160001a905350600a85612d0a9190614f02565b9450612c62565b8093505050505b919050565b8151835114612d61576040517f08c379a0000000000000000000000000000000000000000000000000000000008152600401612d5890614c89565b60405180910390fd5b600073ffffffffffffffffffffffffffffffffffffffff168473ffffffffffffffffffffffffffffffffffffffff161415612dd1576040517f08c379a0000000000000000000000000000000000000000000000000000000008152600401612dc890614b09565b60405180910390fd5b6000612ddb612b68565b905060005b8451811015612fda576000858281518110612e24577f4e487b7100000000000000000000000000000000000000000000000000000000600052603260045260246000fd5b602002602001015190506000858381518110612e69577f4e487b7100000000000000000000000000000000000000000000000000000000600052603260045260246000fd5b60200260200101519050600080600084815260200190815260200160002060008b73ffffffffffffffffffffffffffffffffffffffff1673ffffffffffffffffffffffffffffffffffffffff16815260200190815260200160002054905081811015612f0a576040517f08c379a0000000000000000000000000000000000000000000000000000000008152600401612f0190614b89565b60405180910390fd5b81810360008085815260200190815260200160002060008c73ffffffffffffffffffffffffffffffffffffffff1673ffffffffffffffffffffffffffffffffffffffff168152602001908152602001600020819055508160008085815260200190815260200160002060008b73ffffffffffffffffffffffffffffffffffffffff1673ffffffffffffffffffffffffffffffffffffffff1681526020019081526020016000206000828254612fbf9190614eac565b9250508190555050505080612fd3906150aa565b9050612de0565b508473ffffffffffffffffffffffffffffffffffffffff168673ffffffffffffffffffffffffffffffffffffffff168273ffffffffffffffffffffffffffffffffffffffff167f4a39dc06d4c0dbc64b70af90fd698a233a518aa5d07e595d983b8c0526c8f7fb8787604051613051929190614995565b60405180910390a461306781878787878761377d565b505050505050565b600073ffffffffffffffffffffffffffffffffffffffff168473ffffffffffffffffffffffffffffffffffffffff1614156130df576040517f08c379a00000000000000000000000000000000000000000000000000000000081526004016130d690614ca9565b60405180910390fd5b8151835114613123576040517f08c379a000000000000000000000000000000000000000000000000000000000815260040161311a90614c89565b60405180910390fd5b600061312d612b68565b905060005b845181101561323457838181518110613174577f4e487b7100000000000000000000000000000000000000000000000000000000600052603260045260246000fd5b60200260200101516000808784815181106131b8577f4e487b7100000000000000000000000000000000000000000000000000000000600052603260045260246000fd5b6020026020010151815260200190815260200160002060008873ffffffffffffffffffffffffffffffffffffffff1673ffffffffffffffffffffffffffffffffffffffff168152602001908152602001600020600082825461321a9190614eac565b92505081905550808061322c906150aa565b915050613132565b508473ffffffffffffffffffffffffffffffffffffffff16600073ffffffffffffffffffffffffffffffffffffffff168273ffffffffffffffffffffffffffffffffffffffff167f4a39dc06d4c0dbc64b70af90fd698a233a518aa5d07e595d983b8c0526c8f7fb87876040516132ac929190614995565b60405180910390a46132c38160008787878761377d565b5050505050565b6000600460009054906101000a900473ffffffffffffffffffffffffffffffffffffffff16905081600460006101000a81548173ffffffffffffffffffffffffffffffffffffffff021916908373ffffffffffffffffffffffffffffffffffffffff1602179055508173ffffffffffffffffffffffffffffffffffffffff168173ffffffffffffffffffffffffffffffffffffffff167f8be0079c531659141344cd1fd0a4f28419497f9722a3daafe3b4186f6b6457e060405160405180910390a35050565b8173ffffffffffffffffffffffffffffffffffffffff168373ffffffffffffffffffffffffffffffffffffffff1614156133ff576040517f08c379a00000000000000000000000000000000000000000000000000000000081526004016133f690614c29565b60405180910390fd5b80600160008573ffffffffffffffffffffffffffffffffffffffff1673ffffffffffffffffffffffffffffffffffffffff16815260200190815260200160002060008473ffffffffffffffffffffffffffffffffffffffff1673ffffffffffffffffffffffffffffffffffffffff16815260200190815260200160002060006101000a81548160ff0219169083151502179055508173ffffffffffffffffffffffffffffffffffffffff168373ffffffffffffffffffffffffffffffffffffffff167f17307eab39ab6107e8899845ad3d59bd9653f200f220920489ca2b5937696c31836040516134f091906149cc565b60405180910390a3505050565b600073ffffffffffffffffffffffffffffffffffffffff168473ffffffffffffffffffffffffffffffffffffffff16141561356d576040517f08c379a000000000000000000000000000000000000000000000000000000000815260040161356490614b09565b60405180910390fd5b6000613577612b68565b9050600061358485613964565b9050600061359185613964565b9050600080600088815260200190815260200160002060008a73ffffffffffffffffffffffffffffffffffffffff1673ffffffffffffffffffffffffffffffffffffffff1681526020019081526020016000205490508581101561362a576040517f08c379a000000000000000000000000000000000000000000000000000000000815260040161362190614b89565b60405180910390fd5b85810360008089815260200190815260200160002060008b73ffffffffffffffffffffffffffffffffffffffff1673ffffffffffffffffffffffffffffffffffffffff168152602001908152602001600020819055508560008089815260200190815260200160002060008a73ffffffffffffffffffffffffffffffffffffffff1673ffffffffffffffffffffffffffffffffffffffff16815260200190815260200160002060008282546136df9190614eac565b925050819055508773ffffffffffffffffffffffffffffffffffffffff168973ffffffffffffffffffffffffffffffffffffffff168573ffffffffffffffffffffffffffffffffffffffff167fc3d58168c5ae7397731d063d5bbf3d657854427343f4c083240f7aacaa2d0f628a8a60405161375c929190614d44565b60405180910390a4613772848a8a8a8a8a613a2a565b505050505050505050565b61379c8473ffffffffffffffffffffffffffffffffffffffff16613c11565b1561395c578373ffffffffffffffffffffffffffffffffffffffff1663bc197c8187878686866040518663ffffffff1660e01b81526004016137e2959493929190614888565b602060405180830381600087803b1580156137fc57600080fd5b505af192505050801561382d57506040513d601f19601f8201168201806040525081019061382a91906141ff565b60015b6138d3576138396151e0565b806308c379a01415613896575061384e6158d0565b806138595750613898565b806040517f08c379a000000000000000000000000000000000000000000000000000000000815260040161388d91906149e7565b60405180910390fd5b505b6040517f08c379a00000000000000000000000000000000000000000000000000000000081526004016138ca90614a09565b60405180910390fd5b63bc197c8160e01b7bffffffffffffffffffffffffffffffffffffffffffffffffffffffff1916817bffffffffffffffffffffffffffffffffffffffffffffffffffffffff19161461395a576040517f08c379a000000000000000000000000000000000000000000000000000000000815260040161395190614a29565b60405180910390fd5b505b505050505050565b60606000600167ffffffffffffffff8111156139a9577f4e487b7100000000000000000000000000000000000000000000000000000000600052604160045260246000fd5b6040519080825280602002602001820160405280156139d75781602001602082028036833780820191505090505b5090508281600081518110613a15577f4e487b7100000000000000000000000000000000000000000000000000000000600052603260045260246000fd5b60200260200101818152505080915050919050565b613a498473ffffffffffffffffffffffffffffffffffffffff16613c11565b15613c09578373ffffffffffffffffffffffffffffffffffffffff1663f23a6e6187878686866040518663ffffffff1660e01b8152600401613a8f9594939291906148f0565b602060405180830381600087803b158015613aa957600080fd5b505af1925050508015613ada57506040513d601f19601f82011682018060405250810190613ad791906141ff565b60015b613b8057613ae66151e0565b806308c379a01415613b435750613afb6158d0565b80613b065750613b45565b806040517f08c379a0000000000000000000000000000000000000000000000000000000008152600401613b3a91906149e7565b60405180910390fd5b505b6040517f08c379a0000000000000000000000000000000000000000000000000000000008152600401613b7790614a09565b60405180910390fd5b63f23a6e6160e01b7bffffffffffffffffffffffffffffffffffffffffffffffffffffffff1916817bffffffffffffffffffffffffffffffffffffffffffffffffffffffff191614613c07576040517f08c379a0000000000000000000000000000000000000000000000000000000008152600401613bfe90614a29565b60405180910390fd5b505b505050505050565b6000808273ffffffffffffffffffffffffffffffffffffffff163b119050919050565b5080546000825590600052602060002090810190613c529190613c55565b50565b5b80821115613c6e576000816000905550600101613c56565b5090565b6000613c85613c8084614d92565b614d6d565b90508083825260208201905082856020860282011115613ca457600080fd5b60005b85811015613cd45781613cba8882613d88565b845260208401935060208301925050600181019050613ca7565b5050509392505050565b6000613cf1613cec84614dbe565b614d6d565b90508083825260208201905082856020860282011115613d1057600080fd5b60005b85811015613d405781613d268882613ea4565b845260208401935060208301925050600181019050613d13565b5050509392505050565b6000613d5d613d5884614dea565b614d6d565b905082815260208101848484011115613d7557600080fd5b613d80848285614fdb565b509392505050565b600081359050613d9781615966565b92915050565b60008083601f840112613daf57600080fd5b8235905067ffffffffffffffff811115613dc857600080fd5b602083019150836020820283011115613de057600080fd5b9250929050565b600082601f830112613df857600080fd5b8135613e08848260208601613c72565b91505092915050565b600082601f830112613e2257600080fd5b8135613e32848260208601613cde565b91505092915050565b600081359050613e4a8161597d565b92915050565b600081359050613e5f81615994565b92915050565b600081519050613e7481615994565b92915050565b600082601f830112613e8b57600080fd5b8135613e9b848260208601613d4a565b91505092915050565b600081359050613eb3816159ab565b92915050565b600060208284031215613ecb57600080fd5b6000613ed984828501613d88565b91505092915050565b60008060408385031215613ef557600080fd5b6000613f0385828601613d88565b9250506020613f1485828601613d88565b9150509250929050565b600080600080600060a08688031215613f3657600080fd5b6000613f4488828901613d88565b9550506020613f5588828901613d88565b945050604086013567ffffffffffffffff811115613f7257600080fd5b613f7e88828901613e11565b935050606086013567ffffffffffffffff811115613f9b57600080fd5b613fa788828901613e11565b925050608086013567ffffffffffffffff811115613fc457600080fd5b613fd088828901613e7a565b9150509295509295909350565b600080600080600060a08688031215613ff557600080fd5b600061400388828901613d88565b955050602061401488828901613d88565b945050604061402588828901613ea4565b935050606061403688828901613ea4565b925050608086013567ffffffffffffffff81111561405357600080fd5b61405f88828901613e7a565b9150509295509295909350565b6000806040838503121561407f57600080fd5b600061408d85828601613d88565b925050602061409e85828601613e3b565b9150509250929050565b600080604083850312156140bb57600080fd5b60006140c985828601613d88565b92505060206140da85828601613ea4565b9150509250929050565b600080602083850312156140f757600080fd5b600083013567ffffffffffffffff81111561411157600080fd5b61411d85828601613d9d565b92509250509250929050565b60006020828403121561413b57600080fd5b600082013567ffffffffffffffff81111561415557600080fd5b61416184828501613de7565b91505092915050565b6000806040838503121561417d57600080fd5b600083013567ffffffffffffffff81111561419757600080fd5b6141a385828601613de7565b925050602083013567ffffffffffffffff8111156141c057600080fd5b6141cc85828601613e11565b9150509250929050565b6000602082840312156141e857600080fd5b60006141f684828501613e50565b91505092915050565b60006020828403121561421157600080fd5b600061421f84828501613e65565b91505092915050565b60006020828403121561423a57600080fd5b600061424884828501613ea4565b91505092915050565b6000806040838503121561426457600080fd5b600061427285828601613ea4565b925050602061428385828601613ea4565b9150509250929050565b6000806000606084860312156142a257600080fd5b60006142b086828701613ea4565b93505060206142c186828701613ea4565b92505060406142d286828701613ea4565b9150509250925092565b60006142e88383614820565b60208301905092915050565b6142fd81614f67565b82525050565b600061430e82614e40565b6143188185614e6e565b935061432383614e1b565b8060005b8381101561435457815161433b88826142dc565b975061434683614e61565b925050600181019050614327565b5085935050505092915050565b61436a81614f79565b82525050565b600061437b82614e4b565b6143858185614e7f565b9350614395818560208601614fea565b61439e81615202565b840191505092915050565b60006143b482614e56565b6143be8185614e90565b93506143ce818560208601614fea565b6143d781615202565b840191505092915050565b60006143ed82614e56565b6143f78185614ea1565b9350614407818560208601614fea565b80840191505092915050565b6000815461442081615047565b61442a8186614ea1565b94506001821660008114614445576001811461445657614489565b60ff19831686528186019350614489565b61445f85614e2b565b60005b8381101561448157815481890152600182019150602081019050614462565b838801955050505b50505092915050565b600061449f603483614e90565b91506144aa82615220565b604082019050919050565b60006144c2602883614e90565b91506144cd8261526f565b604082019050919050565b60006144e5601783614e90565b91506144f0826152be565b602082019050919050565b6000614508602b83614e90565b9150614513826152e7565b604082019050919050565b600061452b602683614e90565b915061453682615336565b604082019050919050565b600061454e601983614e90565b915061455982615385565b602082019050919050565b6000614571602983614e90565b915061457c826153ae565b604082019050919050565b6000614594601183614e90565b915061459f826153fd565b602082019050919050565b60006145b7602583614e90565b91506145c282615426565b604082019050919050565b60006145da603283614e90565b91506145e582615475565b604082019050919050565b60006145fd602183614e90565b9150614608826154c4565b604082019050919050565b6000614620601d83614e90565b915061462b82615513565b602082019050919050565b6000614643602a83614e90565b915061464e8261553c565b604082019050919050565b6000614666600583614ea1565b91506146718261558b565b600582019050919050565b6000614689602083614e90565b9150614694826155b4565b602082019050919050565b60006146ac604083614e90565b91506146b7826155dd565b604082019050919050565b60006146cf601c83614e90565b91506146da8261562c565b602082019050919050565b60006146f2601483614e90565b91506146fd82615655565b602082019050919050565b6000614715602983614e90565b91506147208261567e565b604082019050919050565b6000614738603383614e90565b9150614743826156cd565b604082019050919050565b600061475b602983614e90565b91506147668261571c565b604082019050919050565b600061477e602883614e90565b91506147898261576b565b604082019050919050565b60006147a1602183614e90565b91506147ac826157ba565b604082019050919050565b60006147c4601f83614e90565b91506147cf82615809565b602082019050919050565b60006147e7602583614e90565b91506147f282615832565b604082019050919050565b600061480a602883614e90565b915061481582615881565b604082019050919050565b61482981614fd1565b82525050565b61483881614fd1565b82525050565b600061484a8285614413565b915061485682846143e2565b915061486182614659565b91508190509392505050565b600060208201905061488260008301846142f4565b92915050565b600060a08201905061489d60008301886142f4565b6148aa60208301876142f4565b81810360408301526148bc8186614303565b905081810360608301526148d08185614303565b905081810360808301526148e48184614370565b90509695505050505050565b600060a08201905061490560008301886142f4565b61491260208301876142f4565b61491f604083018661482f565b61492c606083018561482f565b818103608083015261493e8184614370565b90509695505050505050565b600060408201905061495f60008301856142f4565b61496c602083018461482f565b9392505050565b6000602082019050818103600083015261498d8184614303565b905092915050565b600060408201905081810360008301526149af8185614303565b905081810360208301526149c38184614303565b90509392505050565b60006020820190506149e16000830184614361565b92915050565b60006020820190508181036000830152614a0181846143a9565b905092915050565b60006020820190508181036000830152614a2281614492565b9050919050565b60006020820190508181036000830152614a42816144b5565b9050919050565b60006020820190508181036000830152614a62816144d8565b9050919050565b60006020820190508181036000830152614a82816144fb565b9050919050565b60006020820190508181036000830152614aa28161451e565b9050919050565b60006020820190508181036000830152614ac281614541565b9050919050565b60006020820190508181036000830152614ae281614564565b9050919050565b60006020820190508181036000830152614b0281614587565b9050919050565b60006020820190508181036000830152614b22816145aa565b9050919050565b60006020820190508181036000830152614b42816145cd565b9050919050565b60006020820190508181036000830152614b62816145f0565b9050919050565b60006020820190508181036000830152614b8281614613565b9050919050565b60006020820190508181036000830152614ba281614636565b9050919050565b60006020820190508181036000830152614bc28161467c565b9050919050565b60006020820190508181036000830152614be28161469f565b9050919050565b60006020820190508181036000830152614c02816146c2565b9050919050565b60006020820190508181036000830152614c22816146e5565b9050919050565b60006020820190508181036000830152614c4281614708565b9050919050565b60006020820190508181036000830152614c628161472b565b9050919050565b60006020820190508181036000830152614c828161474e565b9050919050565b60006020820190508181036000830152614ca281614771565b9050919050565b60006020820190508181036000830152614cc281614794565b9050919050565b60006020820190508181036000830152614ce2816147b7565b9050919050565b60006020820190508181036000830152614d02816147da565b9050919050565b60006020820190508181036000830152614d22816147fd565b9050919050565b6000602082019050614d3e600083018461482f565b92915050565b6000604082019050614d59600083018561482f565b614d66602083018461482f565b9392505050565b6000614d77614d88565b9050614d838282615079565b919050565b6000604051905090565b600067ffffffffffffffff821115614dad57614dac6151b1565b5b602082029050602081019050919050565b600067ffffffffffffffff821115614dd957614dd86151b1565b5b602082029050602081019050919050565b600067ffffffffffffffff821115614e0557614e046151b1565b5b614e0e82615202565b9050602081019050919050565b6000819050602082019050919050565b60008190508160005260206000209050919050565b600081519050919050565b600081519050919050565b600081519050919050565b6000602082019050919050565b600082825260208201905092915050565b600082825260208201905092915050565b600082825260208201905092915050565b600081905092915050565b6000614eb782614fd1565b9150614ec283614fd1565b9250827fffffffffffffffffffffffffffffffffffffffffffffffffffffffffffffffff03821115614ef757614ef6615124565b5b828201905092915050565b6000614f0d82614fd1565b9150614f1883614fd1565b925082614f2857614f27615153565b5b828204905092915050565b6000614f3e82614fd1565b9150614f4983614fd1565b925082821015614f5c57614f5b615124565b5b828203905092915050565b6000614f7282614fb1565b9050919050565b60008115159050919050565b60007fffffffff0000000000000000000000000000000000000000000000000000000082169050919050565b600073ffffffffffffffffffffffffffffffffffffffff82169050919050565b6000819050919050565b82818337600083830152505050565b60005b83811015615008578082015181840152602081019050614fed565b83811115615017576000848401525b50505050565b600061502882614fd1565b9150600082141561503c5761503b615124565b5b600182039050919050565b6000600282049050600182168061505f57607f821691505b6020821081141561507357615072615182565b5b50919050565b61508282615202565b810181811067ffffffffffffffff821117156150a1576150a06151b1565b5b80604052505050565b60006150b582614fd1565b91507fffffffffffffffffffffffffffffffffffffffffffffffffffffffffffffffff8214156150e8576150e7615124565b5b600182019050919050565b60006150fe82614fd1565b915061510983614fd1565b92508261511957615118615153565b5b828206905092915050565b7f4e487b7100000000000000000000000000000000000000000000000000000000600052601160045260246000fd5b7f4e487b7100000000000000000000000000000000000000000000000000000000600052601260045260246000fd5b7f4e487b7100000000000000000000000000000000000000000000000000000000600052602260045260246000fd5b7f4e487b7100000000000000000000000000000000000000000000000000000000600052604160045260246000fd5b600060033d11156151ff5760046000803e6151fc600051615213565b90505b90565b6000601f19601f8301169050919050565b60008160e01c9050919050565b7f455243313135353a207472616e7366657220746f206e6f6e204552433131353560008201527f526563656976657220696d706c656d656e746572000000000000000000000000602082015250565b7f455243313135353a204552433131353552656365697665722072656a6563746560008201527f6420746f6b656e73000000000000000000000000000000000000000000000000602082015250565b7f50726573616c6520686173206e6f742073746172746564000000000000000000600082015250565b7f455243313135353a2062616c616e636520717565727920666f7220746865207a60008201527f65726f2061646472657373000000000000000000000000000000000000000000602082015250565b7f4f776e61626c653a206e6577206f776e657220697320746865207a65726f206160008201527f6464726573730000000000000000000000000000000000000000000000000000602082015250565b7f4e6f7420456e6f756768205649462073706f7473206c65667400000000000000600082015250565b7f455243313135353a2063616c6c6572206973206e6f74206f776e6572206e6f7260008201527f20617070726f7665640000000000000000000000000000000000000000000000602082015250565b7f4f7574206f66204769766561776179732e000000000000000000000000000000600082015250565b7f455243313135353a207472616e7366657220746f20746865207a65726f20616460008201527f6472657373000000000000000000000000000000000000000000000000000000602082015250565b7f455243313135353a207472616e736665722063616c6c6572206973206e6f742060008201527f6f776e6572206e6f7220617070726f7665640000000000000000000000000000602082015250565b7f596f7520646f206e6f74206f776e2074686520666f7572496e4f6e65546f6b6560008201527f6e00000000000000000000000000000000000000000000000000000000000000602082015250565b7f596f7520646f206e6f74206f776e20746865206672756974746f6b656e000000600082015250565b7f455243313135353a20696e73756666696369656e742062616c616e636520666f60008201527f72207472616e7366657200000000000000000000000000000000000000000000602082015250565b7f2e6a736f6e000000000000000000000000000000000000000000000000000000600082015250565b7f4f776e61626c653a2063616c6c6572206973206e6f7420746865206f776e6572600082015250565b7f50726573616c65206973206163746976652062757420796f752772652061726560008201527f206e6f742061205649462c207761697420666f72207075626c69632073616c65602082015250565b7f416c6c20426174636865732068617665206265656e206d696e74656400000000600082015250565b7f4e6f20657468657220696e20636f6e7472616374000000000000000000000000600082015250565b7f455243313135353a2073657474696e6720617070726f76616c2073746174757360008201527f20666f722073656c660000000000000000000000000000000000000000000000602082015250565b7f43616e6e6f74207075726368617365206d6f7265207468616e206f6e6520626160008201527f746368206d696e74207065722077616c6c657400000000000000000000000000602082015250565b7f455243313135353a206163636f756e747320616e6420696473206c656e67746860008201527f206d69736d617463680000000000000000000000000000000000000000000000602082015250565b7f455243313135353a2069647320616e6420616d6f756e7473206c656e6774682060008201527f6d69736d61746368000000000000000000000000000000000000000000000000602082015250565b7f455243313135353a206d696e7420746f20746865207a65726f2061646472657360008201527f7300000000000000000000000000000000000000000000000000000000000000602082015250565b7f5265656e7472616e637947756172643a207265656e7472616e742063616c6c00600082015250565b7f596f7520646f206e6f74206f776e2061207265636569707420666f722065786360008201527f68616e6765000000000000000000000000000000000000000000000000000000602082015250565b7f4e6f7420656e6f756768206574686572207761732073656e7420746f2074726160008201527f6e73616374696f6e000000000000000000000000000000000000000000000000602082015250565b600060443d10156158e057615963565b6158e8614d88565b60043d036004823e80513d602482011167ffffffffffffffff82111715615910575050615963565b808201805167ffffffffffffffff81111561592e5750505050615963565b80602083010160043d03850181111561594b575050505050615963565b61595a82602001850186615079565b82955050505050505b90565b61596f81614f67565b811461597a57600080fd5b50565b61598681614f79565b811461599157600080fd5b50565b61599d81614f85565b81146159a857600080fd5b50565b6159b481614fd1565b81146159bf57600080fd5b5056fea2646970667358221220f76afe96b2010dbbd82360a0bba1409bd368581ac56230320df2e1dec2b7c82f64736f6c63430008040033",
  "linkReferences": {},
  "deployedLinkReferences": {}
}