{
  "_format": "hh-sol-artifact-1",
  "contractName": "DemoOptimized",
  "sourceName": "contracts/DemoOptimized.sol",
  "abi": [
    {
      "inputs": [
        {
          "internalType": "string",
          "name": "uri1",
          "type": "string"
        },
        {
          "internalType": "string",
          "name": "uriPreview1",
          "type": "string"
        }
      ],
      "stateMutability": "nonpayable",
      "type": "constructor"
    },
    {
      "anonymous": false,
      "inputs": [
        {
          "indexed": true,
          "internalType": "address",
          "name": "account",
          "type": "address"
        },
        {
          "indexed": true,
          "internalType": "address",
          "name": "operator",
          "type": "address"
        },
        {
          "indexed": false,
          "internalType": "bool",
          "name": "approved",
          "type": "bool"
        }
      ],
      "name": "ApprovalForAll",
      "type": "event"
    },
    {
      "anonymous": false,
      "inputs": [
        {
          "indexed": false,
          "internalType": "address",
          "name": "_sender",
          "type": "address"
        },
        {
          "indexed": false,
          "internalType": "uint256",
          "name": "_supply",
          "type": "uint256"
        }
      ],
      "name": "IncreaseReceiptSupply",
      "type": "event"
    },
    {
      "anonymous": false,
      "inputs": [
        {
          "indexed": true,
          "internalType": "address",
          "name": "previousOwner",
          "type": "address"
        },
        {
          "indexed": true,
          "internalType": "address",
          "name": "newOwner",
          "type": "address"
        }
      ],
      "name": "OwnershipTransferred",
      "type": "event"
    },
    {
      "anonymous": false,
      "inputs": [
        {
          "indexed": true,
          "internalType": "address",
          "name": "operator",
          "type": "address"
        },
        {
          "indexed": true,
          "internalType": "address",
          "name": "from",
          "type": "address"
        },
        {
          "indexed": true,
          "internalType": "address",
          "name": "to",
          "type": "address"
        },
        {
          "indexed": false,
          "internalType": "uint256[]",
          "name": "ids",
          "type": "uint256[]"
        },
        {
          "indexed": false,
          "internalType": "uint256[]",
          "name": "values",
          "type": "uint256[]"
        }
      ],
      "name": "TransferBatch",
      "type": "event"
    },
    {
      "anonymous": false,
      "inputs": [
        {
          "indexed": true,
          "internalType": "address",
          "name": "operator",
          "type": "address"
        },
        {
          "indexed": true,
          "internalType": "address",
          "name": "from",
          "type": "address"
        },
        {
          "indexed": true,
          "internalType": "address",
          "name": "to",
          "type": "address"
        },
        {
          "indexed": false,
          "internalType": "uint256",
          "name": "id",
          "type": "uint256"
        },
        {
          "indexed": false,
          "internalType": "uint256",
          "name": "value",
          "type": "uint256"
        }
      ],
      "name": "TransferSingle",
      "type": "event"
    },
    {
      "anonymous": false,
      "inputs": [
        {
          "indexed": false,
          "internalType": "string",
          "name": "value",
          "type": "string"
        },
        {
          "indexed": true,
          "internalType": "uint256",
          "name": "id",
          "type": "uint256"
        }
      ],
      "name": "URI",
      "type": "event"
    },
    {
      "inputs": [
        {
          "internalType": "address",
          "name": "account",
          "type": "address"
        },
        {
          "internalType": "uint256",
          "name": "id",
          "type": "uint256"
        }
      ],
      "name": "balanceOf",
      "outputs": [
        {
          "internalType": "uint256",
          "name": "",
          "type": "uint256"
        }
      ],
      "stateMutability": "view",
      "type": "function"
    },
    {
      "inputs": [
        {
          "internalType": "address[]",
          "name": "accounts",
          "type": "address[]"
        },
        {
          "internalType": "uint256[]",
          "name": "ids",
          "type": "uint256[]"
        }
      ],
      "name": "balanceOfBatch",
      "outputs": [
        {
          "internalType": "uint256[]",
          "name": "",
          "type": "uint256[]"
        }
      ],
      "stateMutability": "view",
      "type": "function"
    },
    {
      "inputs": [],
      "name": "bundleTotalSupply",
      "outputs": [
        {
          "internalType": "uint256",
          "name": "",
          "type": "uint256"
        }
      ],
      "stateMutability": "view",
      "type": "function"
    },
    {
      "inputs": [],
      "name": "getBalance",
      "outputs": [
        {
          "internalType": "uint256",
          "name": "",
          "type": "uint256"
        }
      ],
      "stateMutability": "view",
      "type": "function"
    },
    {
      "inputs": [],
      "name": "getMemberCount",
      "outputs": [
        {
          "internalType": "string",
          "name": "",
          "type": "string"
        }
      ],
      "stateMutability": "view",
      "type": "function"
    },
    {
      "inputs": [],
      "name": "getPricePerBundle",
      "outputs": [
        {
          "internalType": "uint256",
          "name": "",
          "type": "uint256"
        }
      ],
      "stateMutability": "view",
      "type": "function"
    },
    {
      "inputs": [
        {
          "internalType": "address",
          "name": "account",
          "type": "address"
        },
        {
          "internalType": "address",
          "name": "operator",
          "type": "address"
        }
      ],
      "name": "isApprovedForAll",
      "outputs": [
        {
          "internalType": "bool",
          "name": "",
          "type": "bool"
        }
      ],
      "stateMutability": "view",
      "type": "function"
    },
    {
      "inputs": [],
      "name": "mintBundle",
      "outputs": [],
      "stateMutability": "payable",
      "type": "function"
    },
    {
      "inputs": [
        {
          "internalType": "address[]",
          "name": "_giveaways",
          "type": "address[]"
        }
      ],
      "name": "mintPassGiveaway",
      "outputs": [],
      "stateMutability": "nonpayable",
      "type": "function"
    },
    {
      "inputs": [],
      "name": "owner",
      "outputs": [
        {
          "internalType": "address",
          "name": "",
          "type": "address"
        }
      ],
      "stateMutability": "view",
      "type": "function"
    },
    {
      "inputs": [],
      "name": "receiptTotalSupply",
      "outputs": [
        {
          "internalType": "uint256",
          "name": "",
          "type": "uint256"
        }
      ],
      "stateMutability": "view",
      "type": "function"
    },
    {
      "inputs": [
        {
          "internalType": "address[]",
          "name": "_vifs",
          "type": "address[]"
        }
      ],
      "name": "removeVIFMembers",
      "outputs": [],
      "stateMutability": "nonpayable",
      "type": "function"
    },
    {
      "inputs": [],
      "name": "renounceOwnership",
      "outputs": [],
      "stateMutability": "nonpayable",
      "type": "function"
    },
    {
      "inputs": [],
      "name": "resetAddressToCutee",
      "outputs": [],
      "stateMutability": "nonpayable",
      "type": "function"
    },
    {
      "inputs": [
        {
          "internalType": "address",
          "name": "from",
          "type": "address"
        },
        {
          "internalType": "address",
          "name": "to",
          "type": "address"
        },
        {
          "internalType": "uint256[]",
          "name": "ids",
          "type": "uint256[]"
        },
        {
          "internalType": "uint256[]",
          "name": "amounts",
          "type": "uint256[]"
        },
        {
          "internalType": "bytes",
          "name": "data",
          "type": "bytes"
        }
      ],
      "name": "safeBatchTransferFrom",
      "outputs": [],
      "stateMutability": "nonpayable",
      "type": "function"
    },
    {
      "inputs": [
        {
          "internalType": "address",
          "name": "from",
          "type": "address"
        },
        {
          "internalType": "address",
          "name": "to",
          "type": "address"
        },
        {
          "internalType": "uint256",
          "name": "id",
          "type": "uint256"
        },
        {
          "internalType": "uint256",
          "name": "amount",
          "type": "uint256"
        },
        {
          "internalType": "bytes",
          "name": "data",
          "type": "bytes"
        }
      ],
      "name": "safeTransferFrom",
      "outputs": [],
      "stateMutability": "nonpayable",
      "type": "function"
    },
    {
      "inputs": [
        {
          "internalType": "address",
          "name": "operator",
          "type": "address"
        },
        {
          "internalType": "bool",
          "name": "approved",
          "type": "bool"
        }
      ],
      "name": "setApprovalForAll",
      "outputs": [],
      "stateMutability": "nonpayable",
      "type": "function"
    },
    {
      "inputs": [
        {
          "internalType": "address[]",
          "name": "_fruities",
          "type": "address[]"
        }
      ],
      "name": "setFruityMember",
      "outputs": [],
      "stateMutability": "nonpayable",
      "type": "function"
    },
    {
      "inputs": [
        {
          "internalType": "uint256",
          "name": "_gwei",
          "type": "uint256"
        }
      ],
      "name": "setPricePerBundle",
      "outputs": [],
      "stateMutability": "nonpayable",
      "type": "function"
    },
    {
      "inputs": [
        {
          "internalType": "uint256",
          "name": "_vifSaleStartTime",
          "type": "uint256"
        },
        {
          "internalType": "uint256",
          "name": "_presaleStartTime",
          "type": "uint256"
        },
        {
          "internalType": "uint256",
          "name": "_publicSaleStartTime",
          "type": "uint256"
        }
      ],
      "name": "setSaleTime",
      "outputs": [],
      "stateMutability": "nonpayable",
      "type": "function"
    },
    {
      "inputs": [],
      "name": "setSeason",
      "outputs": [],
      "stateMutability": "nonpayable",
      "type": "function"
    },
    {
      "inputs": [
        {
          "internalType": "address[]",
          "name": "_vifs",
          "type": "address[]"
        }
      ],
      "name": "setVifMember",
      "outputs": [],
      "stateMutability": "nonpayable",
      "type": "function"
    },
    {
      "inputs": [
        {
          "internalType": "bytes4",
          "name": "interfaceId",
          "type": "bytes4"
        }
      ],
      "name": "supportsInterface",
      "outputs": [
        {
          "internalType": "bool",
          "name": "",
          "type": "bool"
        }
      ],
      "stateMutability": "view",
      "type": "function"
    },
    {
      "inputs": [
        {
          "internalType": "address",
          "name": "newOwner",
          "type": "address"
        }
      ],
      "name": "transferOwnership",
      "outputs": [],
      "stateMutability": "nonpayable",
      "type": "function"
    },
    {
      "inputs": [
        {
          "internalType": "uint256",
          "name": "_tokenId",
          "type": "uint256"
        }
      ],
      "name": "uri",
      "outputs": [
        {
          "internalType": "string",
          "name": "",
          "type": "string"
        }
      ],
      "stateMutability": "view",
      "type": "function"
    },
    {
      "inputs": [],
      "name": "useMintPass",
      "outputs": [],
      "stateMutability": "nonpayable",
      "type": "function"
    },
    {
      "inputs": [],
      "name": "withdrawBalance",
      "outputs": [],
      "stateMutability": "nonpayable",
      "type": "function"
    }
  ],
  "bytecode": "0x60806040526001600455620186a16005556103e8600655610bb860075567016345785d8a00006008556000600f5560006010553480156200003f57600080fd5b506040516200640e3803806200640e8339818101604052810190620000659190620002cd565b6200008562000079620000a760201b60201c565b620000af60201b60201c565b60016003819055506200009f82826200017560201b60201c565b5050620004b0565b600033905090565b6000600260009054906101000a900473ffffffffffffffffffffffffffffffffffffffff16905081600260006101000a81548173ffffffffffffffffffffffffffffffffffffffff021916908373ffffffffffffffffffffffffffffffffffffffff1602179055508173ffffffffffffffffffffffffffffffffffffffff168173ffffffffffffffffffffffffffffffffffffffff167f8be0079c531659141344cd1fd0a4f28419497f9722a3daafe3b4186f6b6457e060405160405180910390a35050565b81600c90805190602001906200018d929190620001ab565b5080600d9080519060200190620001a6929190620001ab565b505050565b828054620001b990620003d5565b90600052602060002090601f016020900481019282620001dd576000855562000229565b82601f10620001f857805160ff191683800117855562000229565b8280016001018555821562000229579182015b82811115620002285782518255916020019190600101906200020b565b5b5090506200023891906200023c565b5090565b5b80821115620002575760008160009055506001016200023d565b5090565b6000620002726200026c8462000369565b62000340565b9050828152602081018484840111156200028b57600080fd5b620002988482856200039f565b509392505050565b600082601f830112620002b257600080fd5b8151620002c48482602086016200025b565b91505092915050565b60008060408385031215620002e157600080fd5b600083015167ffffffffffffffff811115620002fc57600080fd5b6200030a85828601620002a0565b925050602083015167ffffffffffffffff8111156200032857600080fd5b6200033685828601620002a0565b9150509250929050565b60006200034c6200035f565b90506200035a82826200040b565b919050565b6000604051905090565b600067ffffffffffffffff82111562000387576200038662000470565b5b62000392826200049f565b9050602081019050919050565b60005b83811015620003bf578082015181840152602081019050620003a2565b83811115620003cf576000848401525b50505050565b60006002820490506001821680620003ee57607f821691505b6020821081141562000405576200040462000441565b5b50919050565b62000416826200049f565b810181811067ffffffffffffffff8211171562000438576200043762000470565b5b80604052505050565b7f4e487b7100000000000000000000000000000000000000000000000000000000600052602260045260246000fd5b7f4e487b7100000000000000000000000000000000000000000000000000000000600052604160045260246000fd5b6000601f19601f8301169050919050565b615f4e80620004c06000396000f3fe60806040526004361061019b5760003560e01c80635fd8c710116100ec5780638da5cb5b1161008a578063d40999c811610064578063d40999c814610532578063e985e9c51461055b578063f242432a14610598578063f2fde38b146105c15761019b565b80638da5cb5b146104b3578063997072f7146104de578063a22cb465146105095761019b565b8063715018a6116100c6578063715018a61461041d5780637b1b1bb0146104345780638623511b1461045f5780638c6720be1461048a5761019b565b80635fd8c710146103b2578063650f9e9b146103c95780637138e4b3146103f45761019b565b8063299ed104116101595780633efc5200116101335780633efc52001461032b578063410404b7146103545780634e1273f41461035e5780635ae92d3e1461039b5761019b565b8063299ed104146102c25780632eb2c2d6146102d957806334c30bf5146103025761019b565b8062fdd58e146101a057806301ffc9a7146101dd5780630e1c098d1461021a5780630e89341c14610243578063114e691d1461028057806312065fe014610297575b600080fd5b3480156101ac57600080fd5b506101c760048036038101906101c291906140de565b6105ea565b6040516101d49190614fd4565b60405180910390f35b3480156101e957600080fd5b5061020460048036038101906101ff919061420c565b6106b3565b6040516102119190614bf7565b60405180910390f35b34801561022657600080fd5b50610241600480360381019061023c919061415f565b610795565b005b34801561024f57600080fd5b5061026a6004803603810190610265919061425e565b610972565b6040516102779190614c12565b60405180910390f35b34801561028c57600080fd5b50610295610a1f565b005b3480156102a357600080fd5b506102ac610b98565b6040516102b99190614fd4565b60405180910390f35b3480156102ce57600080fd5b506102d7610ba0565b005b3480156102e557600080fd5b5061030060048036038101906102fb9190613f54565b610cce565b005b34801561030e57600080fd5b506103296004803603810190610324919061411a565b610d6f565b005b34801561033757600080fd5b50610352600480360381019061034d919061425e565b610edf565b005b61035c610f65565b005b34801561036a57600080fd5b50610385600480360381019061038091906141a0565b611678565b6040516103929190614b9e565b60405180910390f35b3480156103a757600080fd5b506103b0611829565b005b3480156103be57600080fd5b506103c7611a5e565b005b3480156103d557600080fd5b506103de611b66565b6040516103eb9190614fd4565b60405180910390f35b34801561040057600080fd5b5061041b60048036038101906104169190614287565b611b70565b005b34801561042957600080fd5b50610432611c8a565b005b34801561044057600080fd5b50610449611d12565b6040516104569190614fd4565b60405180910390f35b34801561046b57600080fd5b50610474611d1c565b6040516104819190614fd4565b60405180910390f35b34801561049657600080fd5b506104b160048036038101906104ac919061415f565b611d26565b005b3480156104bf57600080fd5b506104c8611f03565b6040516104d59190614a98565b60405180910390f35b3480156104ea57600080fd5b506104f3611f2d565b6040516105009190614c12565b60405180910390f35b34801561051557600080fd5b50610530600480360381019061052b91906140a2565b611fec565b005b34801561053e57600080fd5b506105596004803603810190610554919061415f565b612002565b005b34801561056757600080fd5b50610582600480360381019061057d9190613f18565b6123a4565b60405161058f9190614bf7565b60405180910390f35b3480156105a457600080fd5b506105bf60048036038101906105ba9190614013565b612438565b005b3480156105cd57600080fd5b506105e860048036038101906105e39190613eef565b6124d9565b005b60008073ffffffffffffffffffffffffffffffffffffffff168373ffffffffffffffffffffffffffffffffffffffff16141561065b576040517f08c379a000000000000000000000000000000000000000000000000000000000815260040161065290614c74565b60405180910390fd5b60008083815260200190815260200160002060008473ffffffffffffffffffffffffffffffffffffffff1673ffffffffffffffffffffffffffffffffffffffff16815260200190815260200160002054905092915050565b60007fd9b67a26000000000000000000000000000000000000000000000000000000007bffffffffffffffffffffffffffffffffffffffffffffffffffffffff1916827bffffffffffffffffffffffffffffffffffffffffffffffffffffffff1916148061077e57507f0e89341c000000000000000000000000000000000000000000000000000000007bffffffffffffffffffffffffffffffffffffffffffffffffffffffff1916827bffffffffffffffffffffffffffffffffffffffffffffffffffffffff1916145b8061078e575061078d826125d1565b5b9050919050565b61079d61263b565b73ffffffffffffffffffffffffffffffffffffffff166107bb611f03565b73ffffffffffffffffffffffffffffffffffffffff1614610811576040517f08c379a000000000000000000000000000000000000000000000000000000000815260040161080890614df4565b60405180910390fd5b60005b815181101561096e576001600e600084848151811061085c577f4e487b7100000000000000000000000000000000000000000000000000000000600052603260045260246000fd5b602002602001015173ffffffffffffffffffffffffffffffffffffffff1673ffffffffffffffffffffffffffffffffffffffff16815260200190815260200160002060000160016101000a81548160ff02191690831515021790555060138282815181106108f3577f4e487b7100000000000000000000000000000000000000000000000000000000600052603260045260246000fd5b60200260200101519080600181540180825580915050600190039060005260206000200160009091909190916101000a81548173ffffffffffffffffffffffffffffffffffffffff021916908373ffffffffffffffffffffffffffffffffffffffff1602179055508080610966906153a1565b915050610814565b5050565b6060620186a08211156109b157600c61098a83612643565b60405160200161099b9291906149df565b6040516020818303038152906040529050610a1a565b60008214156109ec57600c6109c583612643565b6040516020016109d69291906149a5565b6040516020818303038152906040529050610a1a565b600c6109f783612643565b604051602001610a08929190614a19565b60405160208183030381529060405290505b919050565b600060065411610a64576040517f08c379a0000000000000000000000000000000000000000000000000000000008152600401610a5b90614d54565b60405180910390fd5b6000600e60003373ffffffffffffffffffffffffffffffffffffffff1673ffffffffffffffffffffffffffffffffffffffff16815260200190815260200160002060000160029054906101000a900463ffffffff1663ffffffff1611610aff576040517f08c379a0000000000000000000000000000000000000000000000000000000008152600401610af690614f74565b60405180910390fd5b6000610b0961263b565b9050600e60008273ffffffffffffffffffffffffffffffffffffffff1673ffffffffffffffffffffffffffffffffffffffff168152602001908152602001600020600001600281819054906101000a900463ffffffff1680929190610b6d90615314565b91906101000a81548163ffffffff021916908363ffffffff16021790555050610b95816127f0565b50565b600047905090565b610ba861263b565b73ffffffffffffffffffffffffffffffffffffffff16610bc6611f03565b73ffffffffffffffffffffffffffffffffffffffff1614610c1c576040517f08c379a0000000000000000000000000000000000000000000000000000000008152600401610c1390614df4565b60405180910390fd5b60006006541115610c62576040517f08c379a0000000000000000000000000000000000000000000000000000000008152600401610c5990614fb4565b60405180910390fd5b6103e8600681905550610bb8600754610c7b9190615157565b6007819055506000600f81905550610c91611829565b7fe3d47dee33b959cc59941f840525125123544e1f194b235f340f0c6147697ac333610bb8604051610cc4929190614b75565b60405180910390a1565b610cd661263b565b73ffffffffffffffffffffffffffffffffffffffff168573ffffffffffffffffffffffffffffffffffffffff161480610d1c5750610d1b85610d1661263b565b6123a4565b5b610d5b576040517f08c379a0000000000000000000000000000000000000000000000000000000008152600401610d5290614d94565b60405180910390fd5b610d688585858585612e35565b5050505050565b610d7761263b565b73ffffffffffffffffffffffffffffffffffffffff16610d95611f03565b73ffffffffffffffffffffffffffffffffffffffff1614610deb576040517f08c379a0000000000000000000000000000000000000000000000000000000008152600401610de290614df4565b60405180910390fd5b60005b82829050811015610eda57600e6000848484818110610e36577f4e487b7100000000000000000000000000000000000000000000000000000000600052603260045260246000fd5b9050602002016020810190610e4b9190613eef565b73ffffffffffffffffffffffffffffffffffffffff1673ffffffffffffffffffffffffffffffffffffffff168152602001908152602001600020600001600281819054906101000a900463ffffffff1680929190610ea8906153ea565b91906101000a81548163ffffffff021916908363ffffffff160217905550508080610ed2906153a1565b915050610dee565b505050565b610ee761263b565b73ffffffffffffffffffffffffffffffffffffffff16610f05611f03565b73ffffffffffffffffffffffffffffffffffffffff1614610f5b576040517f08c379a0000000000000000000000000000000000000000000000000000000008152600401610f5290614df4565b60405180910390fd5b8060088190555050565b6009544211610fa9576040517f08c379a0000000000000000000000000000000000000000000000000000000008152600401610fa090614e94565b60405180910390fd5b600a5442101561113f57600e60003373ffffffffffffffffffffffffffffffffffffffff1673ffffffffffffffffffffffffffffffffffffffff16815260200190815260200160002060000160009054906101000a900460ff16611042576040517f08c379a000000000000000000000000000000000000000000000000000000000815260040161103990614ef4565b60405180910390fd5b6001600e60003373ffffffffffffffffffffffffffffffffffffffff1673ffffffffffffffffffffffffffffffffffffffff16815260200190815260200160002060000160069054906101000a900463ffffffff1663ffffffff16106110dd576040517f08c379a00000000000000000000000000000000000000000000000000000000081526004016110d490614e14565b60405180910390fd5b600060105411611122576040517f08c379a000000000000000000000000000000000000000000000000000000000815260040161111990614e34565b60405180910390fd5b60106000815480929190611135906152ea565b919050555061157a565b600a54421180156111515750600b5442105b1561136757600e60003373ffffffffffffffffffffffffffffffffffffffff1673ffffffffffffffffffffffffffffffffffffffff16815260200190815260200160002060000160009054906101000a900460ff16801561120a57506002600e60003373ffffffffffffffffffffffffffffffffffffffff1673ffffffffffffffffffffffffffffffffffffffff16815260200190815260200160002060000160069054906101000a900463ffffffff1663ffffffff16105b806112c55750600e60003373ffffffffffffffffffffffffffffffffffffffff1673ffffffffffffffffffffffffffffffffffffffff16815260200190815260200160002060000160019054906101000a900460ff1680156112c457506001600e60003373ffffffffffffffffffffffffffffffffffffffff1673ffffffffffffffffffffffffffffffffffffffff16815260200190815260200160002060000160069054906101000a900463ffffffff1663ffffffff16105b5b611304576040517f08c379a00000000000000000000000000000000000000000000000000000000081526004016112fb90614cb4565b60405180910390fd5b610159600f541061134a576040517f08c379a000000000000000000000000000000000000000000000000000000000815260040161134190614e74565b60405180910390fd5b600f600081548092919061135d906153a1565b9190505550611579565b600e60003373ffffffffffffffffffffffffffffffffffffffff1673ffffffffffffffffffffffffffffffffffffffff16815260200190815260200160002060000160009054906101000a900460ff16801561141b57506003600e60003373ffffffffffffffffffffffffffffffffffffffff1673ffffffffffffffffffffffffffffffffffffffff16815260200190815260200160002060000160069054906101000a900463ffffffff1663ffffffff16105b806114d65750600e60003373ffffffffffffffffffffffffffffffffffffffff1673ffffffffffffffffffffffffffffffffffffffff16815260200190815260200160002060000160019054906101000a900460ff1680156114d557506002600e60003373ffffffffffffffffffffffffffffffffffffffff1673ffffffffffffffffffffffffffffffffffffffff16815260200190815260200160002060000160069054906101000a900463ffffffff1663ffffffff16105b5b8061153957506001600e60003373ffffffffffffffffffffffffffffffffffffffff1673ffffffffffffffffffffffffffffffffffffffff16815260200190815260200160002060000160069054906101000a900463ffffffff1663ffffffff16105b611578576040517f08c379a000000000000000000000000000000000000000000000000000000000815260040161156f90614d34565b60405180910390fd5b5b5b600260035414156115c0576040517f08c379a00000000000000000000000000000000000000000000000000000000081526004016115b790614f54565b60405180910390fd5b600260038190555067016345785d8a0000341015611613576040517f08c379a000000000000000000000000000000000000000000000000000000000815260040161160a90614f94565b60405180910390fd5b600060065411611658576040517f08c379a000000000000000000000000000000000000000000000000000000000815260040161164f90614cd4565b60405180910390fd5b600061166261263b565b905061166d816127f0565b506001600381905550565b606081518351146116be576040517f08c379a00000000000000000000000000000000000000000000000000000000081526004016116b590614ed4565b60405180910390fd5b6000835167ffffffffffffffff811115611701577f4e487b7100000000000000000000000000000000000000000000000000000000600052604160045260246000fd5b60405190808252806020026020018201604052801561172f5781602001602082028036833780820191505090505b50905060005b845181101561181e576117c885828151811061177a577f4e487b7100000000000000000000000000000000000000000000000000000000600052603260045260246000fd5b60200260200101518583815181106117bb577f4e487b7100000000000000000000000000000000000000000000000000000000600052603260045260246000fd5b60200260200101516105ea565b828281518110611801577f4e487b7100000000000000000000000000000000000000000000000000000000600052603260045260246000fd5b60200260200101818152505080611817906153a1565b9050611735565b508091505092915050565b61183161263b565b73ffffffffffffffffffffffffffffffffffffffff1661184f611f03565b73ffffffffffffffffffffffffffffffffffffffff16146118a5576040517f08c379a000000000000000000000000000000000000000000000000000000000815260040161189c90614df4565b60405180910390fd5b60005b601180549050811015611a4d576000600e6000601184815481106118f5577f4e487b7100000000000000000000000000000000000000000000000000000000600052603260045260246000fd5b9060005260206000200160009054906101000a900473ffffffffffffffffffffffffffffffffffffffff1673ffffffffffffffffffffffffffffffffffffffff1673ffffffffffffffffffffffffffffffffffffffff16815260200190815260200160002060000160066101000a81548163ffffffff021916908363ffffffff1602179055506000600e6000601184815481106119bb577f4e487b7100000000000000000000000000000000000000000000000000000000600052603260045260246000fd5b9060005260206000200160009054906101000a900473ffffffffffffffffffffffffffffffffffffffff1673ffffffffffffffffffffffffffffffffffffffff1673ffffffffffffffffffffffffffffffffffffffff16815260200190815260200160002060000160016101000a81548160ff0219169083151502179055508080611a45906153a1565b9150506118a8565b5060116000611a5c9190613c6a565b565b611a6661263b565b73ffffffffffffffffffffffffffffffffffffffff16611a84611f03565b73ffffffffffffffffffffffffffffffffffffffff1614611ada576040517f08c379a0000000000000000000000000000000000000000000000000000000008152600401611ad190614df4565b60405180910390fd5b60004711611b1d576040517f08c379a0000000000000000000000000000000000000000000000000000000008152600401611b1490614e54565b60405180910390fd5b3373ffffffffffffffffffffffffffffffffffffffff166108fc479081150290604051600060405180830381858888f19350505050158015611b63573d6000803e3d6000fd5b50565b6000600754905090565b611b7861263b565b73ffffffffffffffffffffffffffffffffffffffff16611b96611f03565b73ffffffffffffffffffffffffffffffffffffffff1614611bec576040517f08c379a0000000000000000000000000000000000000000000000000000000008152600401611be390614df4565b60405180910390fd5b828211611c2e576040517f08c379a0000000000000000000000000000000000000000000000000000000008152600401611c2590614db4565b60405180910390fd5b818111611c70576040517f08c379a0000000000000000000000000000000000000000000000000000000008152600401611c6790614d14565b60405180910390fd5b8260098190555081600a8190555080600b81905550505050565b611c9261263b565b73ffffffffffffffffffffffffffffffffffffffff16611cb0611f03565b73ffffffffffffffffffffffffffffffffffffffff1614611d06576040517f08c379a0000000000000000000000000000000000000000000000000000000008152600401611cfd90614df4565b60405180910390fd5b611d106000613187565b565b6000600854905090565b6000600654905090565b611d2e61263b565b73ffffffffffffffffffffffffffffffffffffffff16611d4c611f03565b73ffffffffffffffffffffffffffffffffffffffff1614611da2576040517f08c379a0000000000000000000000000000000000000000000000000000000008152600401611d9990614df4565b60405180910390fd5b60005b8151811015611eff576001600e6000848481518110611ded577f4e487b7100000000000000000000000000000000000000000000000000000000600052603260045260246000fd5b602002602001015173ffffffffffffffffffffffffffffffffffffffff1673ffffffffffffffffffffffffffffffffffffffff16815260200190815260200160002060000160006101000a81548160ff0219169083151502179055506012828281518110611e84577f4e487b7100000000000000000000000000000000000000000000000000000000600052603260045260246000fd5b60200260200101519080600181540180825580915050600190039060005260206000200160009091909190916101000a81548173ffffffffffffffffffffffffffffffffffffffff021916908373ffffffffffffffffffffffffffffffffffffffff1602179055508080611ef7906153a1565b915050611da5565b5050565b6000600260009054906101000a900473ffffffffffffffffffffffffffffffffffffffff16905090565b6060611f3761263b565b73ffffffffffffffffffffffffffffffffffffffff16611f55611f03565b73ffffffffffffffffffffffffffffffffffffffff1614611fab576040517f08c379a0000000000000000000000000000000000000000000000000000000008152600401611fa290614df4565b60405180910390fd5b611fb9601280549050612643565b611fc7601380549050612643565b604051602001611fd8929190614a53565b604051602081830303815290604052905090565b611ffe611ff761263b565b838361324d565b5050565b61200a61263b565b73ffffffffffffffffffffffffffffffffffffffff16612028611f03565b73ffffffffffffffffffffffffffffffffffffffff161461207e576040517f08c379a000000000000000000000000000000000000000000000000000000000815260040161207590614df4565b60405180910390fd5b60005b81518110156123a0576000600e60008484815181106120c9577f4e487b7100000000000000000000000000000000000000000000000000000000600052603260045260246000fd5b602002602001015173ffffffffffffffffffffffffffffffffffffffff1673ffffffffffffffffffffffffffffffffffffffff16815260200190815260200160002060000160006101000a81548160ff02191690831515021790555060005b60128054905081101561238c576012818154811061216f577f4e487b7100000000000000000000000000000000000000000000000000000000600052603260045260246000fd5b9060005260206000200160009054906101000a900473ffffffffffffffffffffffffffffffffffffffff1673ffffffffffffffffffffffffffffffffffffffff168383815181106121e9577f4e487b7100000000000000000000000000000000000000000000000000000000600052603260045260246000fd5b602002602001015173ffffffffffffffffffffffffffffffffffffffff1614156123795760006012600160128054905061222391906151de565b8154811061225a577f4e487b7100000000000000000000000000000000000000000000000000000000600052603260045260246000fd5b9060005260206000200160009054906101000a900473ffffffffffffffffffffffffffffffffffffffff16905060128054806122bf577f4e487b7100000000000000000000000000000000000000000000000000000000600052603160045260246000fd5b6001900381819060005260206000200160006101000a81549073ffffffffffffffffffffffffffffffffffffffff02191690559055806012848154811061232f577f4e487b7100000000000000000000000000000000000000000000000000000000600052603260045260246000fd5b9060005260206000200160006101000a81548173ffffffffffffffffffffffffffffffffffffffff021916908373ffffffffffffffffffffffffffffffffffffffff160217905550505b8180612384906153a1565b925050612128565b508080612398906153a1565b915050612081565b5050565b6000600160008473ffffffffffffffffffffffffffffffffffffffff1673ffffffffffffffffffffffffffffffffffffffff16815260200190815260200160002060008373ffffffffffffffffffffffffffffffffffffffff1673ffffffffffffffffffffffffffffffffffffffff16815260200190815260200160002060009054906101000a900460ff16905092915050565b61244061263b565b73ffffffffffffffffffffffffffffffffffffffff168573ffffffffffffffffffffffffffffffffffffffff16148061248657506124858561248061263b565b6123a4565b5b6124c5576040517f08c379a00000000000000000000000000000000000000000000000000000000081526004016124bc90614cf4565b60405180910390fd5b6124d285858585856133ba565b5050505050565b6124e161263b565b73ffffffffffffffffffffffffffffffffffffffff166124ff611f03565b73ffffffffffffffffffffffffffffffffffffffff1614612555576040517f08c379a000000000000000000000000000000000000000000000000000000000815260040161254c90614df4565b60405180910390fd5b600073ffffffffffffffffffffffffffffffffffffffff168173ffffffffffffffffffffffffffffffffffffffff1614156125c5576040517f08c379a00000000000000000000000000000000000000000000000000000000081526004016125bc90614c94565b60405180910390fd5b6125ce81613187565b50565b60007f01ffc9a7000000000000000000000000000000000000000000000000000000007bffffffffffffffffffffffffffffffffffffffffffffffffffffffff1916827bffffffffffffffffffffffffffffffffffffffffffffffffffffffff1916149050919050565b600033905090565b6060600082141561268b576040518060400160405280600181526020017f300000000000000000000000000000000000000000000000000000000000000081525090506127eb565b600082905060005b600082146126bd5780806126a6906153a1565b915050600a826126b691906151ad565b9150612693565b60008167ffffffffffffffff8111156126ff577f4e487b7100000000000000000000000000000000000000000000000000000000600052604160045260246000fd5b6040519080825280601f01601f1916602001820160405280156127315781602001600182028036833780820191505090505b5090505b600085146127e45760018261274a91906151de565b9150600a856127599190615417565b60306127659190615157565b60f81b8183815181106127a1577f4e487b7100000000000000000000000000000000000000000000000000000000600052603260045260246000fd5b60200101907effffffffffffffffffffffffffffffffffffffffffffffffffffffffffffff1916908160001a905350600a856127dd91906151ad565b9450612735565b8093505050505b919050565b6000600667ffffffffffffffff811115612833577f4e487b7100000000000000000000000000000000000000000000000000000000600052604160045260246000fd5b6040519080825280602002602001820160405280156128615781602001602082028036833780820191505090505b5090506000600667ffffffffffffffff8111156128a7577f4e487b7100000000000000000000000000000000000000000000000000000000600052604160045260246000fd5b6040519080825280602002602001820160405280156128d55781602001602082028036833780820191505090505b509050600182600081518110612914577f4e487b7100000000000000000000000000000000000000000000000000000000600052603260045260246000fd5b60200260200101818152505060018260018151811061295c577f4e487b7100000000000000000000000000000000000000000000000000000000600052603260045260246000fd5b6020026020010181815250506001826002815181106129a4577f4e487b7100000000000000000000000000000000000000000000000000000000600052603260045260246000fd5b6020026020010181815250506001826003815181106129ec577f4e487b7100000000000000000000000000000000000000000000000000000000600052603260045260246000fd5b602002602001018181525050600182600481518110612a34577f4e487b7100000000000000000000000000000000000000000000000000000000600052603260045260246000fd5b602002602001018181525050600382600581518110612a7c577f4e487b7100000000000000000000000000000000000000000000000000000000600052603260045260246000fd5b60200260200101818152505060045481600081518110612ac5577f4e487b7100000000000000000000000000000000000000000000000000000000600052603260045260246000fd5b60200260200101818152505060046000815480929190612ae4906153a1565b919050555060045481600181518110612b26577f4e487b7100000000000000000000000000000000000000000000000000000000600052603260045260246000fd5b60200260200101818152505060046000815480929190612b45906153a1565b919050555060045481600281518110612b87577f4e487b7100000000000000000000000000000000000000000000000000000000600052603260045260246000fd5b60200260200101818152505060046000815480929190612ba6906153a1565b919050555060045481600381518110612be8577f4e487b7100000000000000000000000000000000000000000000000000000000600052603260045260246000fd5b60200260200101818152505060046000815480929190612c07906153a1565b919050555060055481600481518110612c49577f4e487b7100000000000000000000000000000000000000000000000000000000600052603260045260246000fd5b60200260200101818152505060056000815480929190612c68906153a1565b9190505550600e60008473ffffffffffffffffffffffffffffffffffffffff1673ffffffffffffffffffffffffffffffffffffffff168152602001908152602001600020600001600681819054906101000a900463ffffffff1680929190612ccf906153ea565b91906101000a81548163ffffffff021916908363ffffffff16021790555050612d098382846040518060200160405280600081525061361e565b60066000815480929190612d1c906152ea565b9190505550600e60008473ffffffffffffffffffffffffffffffffffffffff1673ffffffffffffffffffffffffffffffffffffffff16815260200190815260200160002060000160009054906101000a900460ff1680612dc85750600e60008473ffffffffffffffffffffffffffffffffffffffff1673ffffffffffffffffffffffffffffffffffffffff16815260200190815260200160002060000160019054906101000a900460ff165b612e30576011839080600181540180825580915050600190039060005260206000200160009091909190916101000a81548173ffffffffffffffffffffffffffffffffffffffff021916908373ffffffffffffffffffffffffffffffffffffffff1602179055505b505050565b8151835114612e79576040517f08c379a0000000000000000000000000000000000000000000000000000000008152600401612e7090614f14565b60405180910390fd5b600073ffffffffffffffffffffffffffffffffffffffff168473ffffffffffffffffffffffffffffffffffffffff161415612ee9576040517f08c379a0000000000000000000000000000000000000000000000000000000008152600401612ee090614d74565b60405180910390fd5b6000612ef361263b565b905060005b84518110156130f2576000858281518110612f3c577f4e487b7100000000000000000000000000000000000000000000000000000000600052603260045260246000fd5b602002602001015190506000858381518110612f81577f4e487b7100000000000000000000000000000000000000000000000000000000600052603260045260246000fd5b60200260200101519050600080600084815260200190815260200160002060008b73ffffffffffffffffffffffffffffffffffffffff1673ffffffffffffffffffffffffffffffffffffffff16815260200190815260200160002054905081811015613022576040517f08c379a000000000000000000000000000000000000000000000000000000000815260040161301990614dd4565b60405180910390fd5b81810360008085815260200190815260200160002060008c73ffffffffffffffffffffffffffffffffffffffff1673ffffffffffffffffffffffffffffffffffffffff168152602001908152602001600020819055508160008085815260200190815260200160002060008b73ffffffffffffffffffffffffffffffffffffffff1673ffffffffffffffffffffffffffffffffffffffff16815260200190815260200160002060008282546130d79190615157565b92505081905550505050806130eb906153a1565b9050612ef8565b508473ffffffffffffffffffffffffffffffffffffffff168673ffffffffffffffffffffffffffffffffffffffff168273ffffffffffffffffffffffffffffffffffffffff167f4a39dc06d4c0dbc64b70af90fd698a233a518aa5d07e595d983b8c0526c8f7fb8787604051613169929190614bc0565b60405180910390a461317f818787878787613879565b505050505050565b6000600260009054906101000a900473ffffffffffffffffffffffffffffffffffffffff16905081600260006101000a81548173ffffffffffffffffffffffffffffffffffffffff021916908373ffffffffffffffffffffffffffffffffffffffff1602179055508173ffffffffffffffffffffffffffffffffffffffff168173ffffffffffffffffffffffffffffffffffffffff167f8be0079c531659141344cd1fd0a4f28419497f9722a3daafe3b4186f6b6457e060405160405180910390a35050565b8173ffffffffffffffffffffffffffffffffffffffff168373ffffffffffffffffffffffffffffffffffffffff1614156132bc576040517f08c379a00000000000000000000000000000000000000000000000000000000081526004016132b390614eb4565b60405180910390fd5b80600160008573ffffffffffffffffffffffffffffffffffffffff1673ffffffffffffffffffffffffffffffffffffffff16815260200190815260200160002060008473ffffffffffffffffffffffffffffffffffffffff1673ffffffffffffffffffffffffffffffffffffffff16815260200190815260200160002060006101000a81548160ff0219169083151502179055508173ffffffffffffffffffffffffffffffffffffffff168373ffffffffffffffffffffffffffffffffffffffff167f17307eab39ab6107e8899845ad3d59bd9653f200f220920489ca2b5937696c31836040516133ad9190614bf7565b60405180910390a3505050565b600073ffffffffffffffffffffffffffffffffffffffff168473ffffffffffffffffffffffffffffffffffffffff16141561342a576040517f08c379a000000000000000000000000000000000000000000000000000000000815260040161342190614d74565b60405180910390fd5b600061343461263b565b9050600080600086815260200190815260200160002060008873ffffffffffffffffffffffffffffffffffffffff1673ffffffffffffffffffffffffffffffffffffffff168152602001908152602001600020549050838110156134cd576040517f08c379a00000000000000000000000000000000000000000000000000000000081526004016134c490614dd4565b60405180910390fd5b83810360008087815260200190815260200160002060008973ffffffffffffffffffffffffffffffffffffffff1673ffffffffffffffffffffffffffffffffffffffff168152602001908152602001600020819055508360008087815260200190815260200160002060008873ffffffffffffffffffffffffffffffffffffffff1673ffffffffffffffffffffffffffffffffffffffff16815260200190815260200160002060008282546135829190615157565b925050819055508573ffffffffffffffffffffffffffffffffffffffff168773ffffffffffffffffffffffffffffffffffffffff168373ffffffffffffffffffffffffffffffffffffffff167fc3d58168c5ae7397731d063d5bbf3d657854427343f4c083240f7aacaa2d0f6288886040516135ff929190614fef565b60405180910390a4613615828888888888613a60565b50505050505050565b600073ffffffffffffffffffffffffffffffffffffffff168473ffffffffffffffffffffffffffffffffffffffff16141561368e576040517f08c379a000000000000000000000000000000000000000000000000000000000815260040161368590614f34565b60405180910390fd5b81518351146136d2576040517f08c379a00000000000000000000000000000000000000000000000000000000081526004016136c990614f14565b60405180910390fd5b60006136dc61263b565b905060005b84518110156137e357838181518110613723577f4e487b7100000000000000000000000000000000000000000000000000000000600052603260045260246000fd5b6020026020010151600080878481518110613767577f4e487b7100000000000000000000000000000000000000000000000000000000600052603260045260246000fd5b6020026020010151815260200190815260200160002060008873ffffffffffffffffffffffffffffffffffffffff1673ffffffffffffffffffffffffffffffffffffffff16815260200190815260200160002060008282546137c99190615157565b9250508190555080806137db906153a1565b9150506136e1565b508473ffffffffffffffffffffffffffffffffffffffff16600073ffffffffffffffffffffffffffffffffffffffff168273ffffffffffffffffffffffffffffffffffffffff167f4a39dc06d4c0dbc64b70af90fd698a233a518aa5d07e595d983b8c0526c8f7fb878760405161385b929190614bc0565b60405180910390a461387281600087878787613879565b5050505050565b6138988473ffffffffffffffffffffffffffffffffffffffff16613c47565b15613a58578373ffffffffffffffffffffffffffffffffffffffff1663bc197c8187878686866040518663ffffffff1660e01b81526004016138de959493929190614ab3565b602060405180830381600087803b1580156138f857600080fd5b505af192505050801561392957506040513d601f19601f820116820180604052508101906139269190614235565b60015b6139cf57613935615504565b806308c379a01415613992575061394a615e26565b806139555750613994565b806040517f08c379a00000000000000000000000000000000000000000000000000000000081526004016139899190614c12565b60405180910390fd5b505b6040517f08c379a00000000000000000000000000000000000000000000000000000000081526004016139c690614c34565b60405180910390fd5b63bc197c8160e01b7bffffffffffffffffffffffffffffffffffffffffffffffffffffffff1916817bffffffffffffffffffffffffffffffffffffffffffffffffffffffff191614613a56576040517f08c379a0000000000000000000000000000000000000000000000000000000008152600401613a4d90614c54565b60405180910390fd5b505b505050505050565b613a7f8473ffffffffffffffffffffffffffffffffffffffff16613c47565b15613c3f578373ffffffffffffffffffffffffffffffffffffffff1663f23a6e6187878686866040518663ffffffff1660e01b8152600401613ac5959493929190614b1b565b602060405180830381600087803b158015613adf57600080fd5b505af1925050508015613b1057506040513d601f19601f82011682018060405250810190613b0d9190614235565b60015b613bb657613b1c615504565b806308c379a01415613b795750613b31615e26565b80613b3c5750613b7b565b806040517f08c379a0000000000000000000000000000000000000000000000000000000008152600401613b709190614c12565b60405180910390fd5b505b6040517f08c379a0000000000000000000000000000000000000000000000000000000008152600401613bad90614c34565b60405180910390fd5b63f23a6e6160e01b7bffffffffffffffffffffffffffffffffffffffffffffffffffffffff1916817bffffffffffffffffffffffffffffffffffffffffffffffffffffffff191614613c3d576040517f08c379a0000000000000000000000000000000000000000000000000000000008152600401613c3490614c54565b60405180910390fd5b505b505050505050565b6000808273ffffffffffffffffffffffffffffffffffffffff163b119050919050565b5080546000825590600052602060002090810190613c889190613c8b565b50565b5b80821115613ca4576000816000905550600101613c8c565b5090565b6000613cbb613cb68461503d565b615018565b90508083825260208201905082856020860282011115613cda57600080fd5b60005b85811015613d0a5781613cf08882613dbe565b845260208401935060208301925050600181019050613cdd565b5050509392505050565b6000613d27613d2284615069565b615018565b90508083825260208201905082856020860282011115613d4657600080fd5b60005b85811015613d765781613d5c8882613eda565b845260208401935060208301925050600181019050613d49565b5050509392505050565b6000613d93613d8e84615095565b615018565b905082815260208101848484011115613dab57600080fd5b613db68482856152a8565b509392505050565b600081359050613dcd81615ebc565b92915050565b60008083601f840112613de557600080fd5b8235905067ffffffffffffffff811115613dfe57600080fd5b602083019150836020820283011115613e1657600080fd5b9250929050565b600082601f830112613e2e57600080fd5b8135613e3e848260208601613ca8565b91505092915050565b600082601f830112613e5857600080fd5b8135613e68848260208601613d14565b91505092915050565b600081359050613e8081615ed3565b92915050565b600081359050613e9581615eea565b92915050565b600081519050613eaa81615eea565b92915050565b600082601f830112613ec157600080fd5b8135613ed1848260208601613d80565b91505092915050565b600081359050613ee981615f01565b92915050565b600060208284031215613f0157600080fd5b6000613f0f84828501613dbe565b91505092915050565b60008060408385031215613f2b57600080fd5b6000613f3985828601613dbe565b9250506020613f4a85828601613dbe565b9150509250929050565b600080600080600060a08688031215613f6c57600080fd5b6000613f7a88828901613dbe565b9550506020613f8b88828901613dbe565b945050604086013567ffffffffffffffff811115613fa857600080fd5b613fb488828901613e47565b935050606086013567ffffffffffffffff811115613fd157600080fd5b613fdd88828901613e47565b925050608086013567ffffffffffffffff811115613ffa57600080fd5b61400688828901613eb0565b9150509295509295909350565b600080600080600060a0868803121561402b57600080fd5b600061403988828901613dbe565b955050602061404a88828901613dbe565b945050604061405b88828901613eda565b935050606061406c88828901613eda565b925050608086013567ffffffffffffffff81111561408957600080fd5b61409588828901613eb0565b9150509295509295909350565b600080604083850312156140b557600080fd5b60006140c385828601613dbe565b92505060206140d485828601613e71565b9150509250929050565b600080604083850312156140f157600080fd5b60006140ff85828601613dbe565b925050602061411085828601613eda565b9150509250929050565b6000806020838503121561412d57600080fd5b600083013567ffffffffffffffff81111561414757600080fd5b61415385828601613dd3565b92509250509250929050565b60006020828403121561417157600080fd5b600082013567ffffffffffffffff81111561418b57600080fd5b61419784828501613e1d565b91505092915050565b600080604083850312156141b357600080fd5b600083013567ffffffffffffffff8111156141cd57600080fd5b6141d985828601613e1d565b925050602083013567ffffffffffffffff8111156141f657600080fd5b61420285828601613e47565b9150509250929050565b60006020828403121561421e57600080fd5b600061422c84828501613e86565b91505092915050565b60006020828403121561424757600080fd5b600061425584828501613e9b565b91505092915050565b60006020828403121561427057600080fd5b600061427e84828501613eda565b91505092915050565b60008060006060848603121561429c57600080fd5b60006142aa86828701613eda565b93505060206142bb86828701613eda565b92505060406142cc86828701613eda565b9150509250925092565b60006142e28383614987565b60208301905092915050565b6142f781615212565b82525050565b6000614308826150eb565b6143128185615119565b935061431d836150c6565b8060005b8381101561434e57815161433588826142d6565b97506143408361510c565b925050600181019050614321565b5085935050505092915050565b61436481615224565b82525050565b6000614375826150f6565b61437f818561512a565b935061438f8185602086016152b7565b61439881615526565b840191505092915050565b6143ac81615296565b82525050565b60006143bd82615101565b6143c7818561513b565b93506143d78185602086016152b7565b6143e081615526565b840191505092915050565b60006143f682615101565b614400818561514c565b93506144108185602086016152b7565b80840191505092915050565b600081546144298161533e565b614433818661514c565b9450600182166000811461444e576001811461445f57614492565b60ff19831686528186019350614492565b614468856150d6565b60005b8381101561448a5781548189015260018201915060208101905061446b565b838801955050505b50505092915050565b60006144a860348361513b565b91506144b382615544565b604082019050919050565b60006144cb60288361513b565b91506144d682615593565b604082019050919050565b60006144ee60138361514c565b91506144f9826155e2565b601382019050919050565b6000614511602b8361513b565b915061451c8261560b565b604082019050919050565b600061453460268361513b565b915061453f8261565a565b604082019050919050565b6000614557602e8361513b565b9150614562826156a9565b604082019050919050565b600061457a601d8361513b565b9150614585826156f8565b602082019050919050565b600061459d60298361513b565b91506145a882615721565b604082019050919050565b60006145c0602a8361513b565b91506145cb82615770565b604082019050919050565b60006145e3601d8361514c565b91506145ee826157bf565b601d82019050919050565b600061460660328361513b565b9150614611826157e8565b604082019050919050565b6000614629601d8361513b565b915061463482615837565b602082019050919050565b600061464c60258361513b565b915061465782615860565b604082019050919050565b600061466f60328361513b565b915061467a826158af565b604082019050919050565b600061469260238361513b565b915061469d826158fe565b604082019050919050565b60006146b5602a8361513b565b91506146c08261594d565b604082019050919050565b60006146d860058361514c565b91506146e38261599c565b600582019050919050565b60006146fb60208361513b565b9150614706826159c5565b602082019050919050565b600061471e60328361513b565b9150614729826159ee565b604082019050919050565b6000614741600a8361514c565b915061474c82615a3d565b600a82019050919050565b6000614764601e8361513b565b915061476f82615a66565b602082019050919050565b6000614787600d8361514c565b915061479282615a8f565b600d82019050919050565b60006147aa60148361513b565b91506147b582615ab8565b602082019050919050565b60006147cd60298361513b565b91506147d882615ae1565b604082019050919050565b60006147f060078361514c565b91506147fb82615b30565b600782019050919050565b600061481360188361513b565b915061481e82615b59565b602082019050919050565b600061483660298361513b565b915061484182615b82565b604082019050919050565b600061485960298361513b565b915061486482615bd1565b604082019050919050565b600061487c603d8361513b565b915061488782615c20565b604082019050919050565b600061489f60288361513b565b91506148aa82615c6f565b604082019050919050565b60006148c260218361513b565b91506148cd82615cbe565b604082019050919050565b60006148e5601f8361513b565b91506148f082615d0d565b602082019050919050565b6000614908601b8361513b565b915061491382615d36565b602082019050919050565b600061492b60388361513b565b915061493682615d5f565b604082019050919050565b600061494e60088361514c565b915061495982615dae565b600882019050919050565b6000614971602c8361513b565b915061497c82615dd7565b604082019050919050565b6149908161527c565b82525050565b61499f8161527c565b82525050565b60006149b1828561441c565b91506149bc82614734565b91506149c882846143eb565b91506149d3826146cb565b91508190509392505050565b60006149eb828561441c565b91506149f6826147e3565b9150614a0282846143eb565b9150614a0d826146cb565b91508190509392505050565b6000614a25828561441c565b9150614a3082614941565b9150614a3c82846143eb565b9150614a47826146cb565b91508190509392505050565b6000614a5e8261477a565b9150614a6a82856143eb565b9150614a75826145d6565b9150614a8182846143eb565b9150614a8c826144e1565b91508190509392505050565b6000602082019050614aad60008301846142ee565b92915050565b600060a082019050614ac860008301886142ee565b614ad560208301876142ee565b8181036040830152614ae781866142fd565b90508181036060830152614afb81856142fd565b90508181036080830152614b0f818461436a565b90509695505050505050565b600060a082019050614b3060008301886142ee565b614b3d60208301876142ee565b614b4a6040830186614996565b614b576060830185614996565b8181036080830152614b69818461436a565b90509695505050505050565b6000604082019050614b8a60008301856142ee565b614b9760208301846143a3565b9392505050565b60006020820190508181036000830152614bb881846142fd565b905092915050565b60006040820190508181036000830152614bda81856142fd565b90508181036020830152614bee81846142fd565b90509392505050565b6000602082019050614c0c600083018461435b565b92915050565b60006020820190508181036000830152614c2c81846143b2565b905092915050565b60006020820190508181036000830152614c4d8161449b565b9050919050565b60006020820190508181036000830152614c6d816144be565b9050919050565b60006020820190508181036000830152614c8d81614504565b9050919050565b60006020820190508181036000830152614cad81614527565b9050919050565b60006020820190508181036000830152614ccd8161454a565b9050919050565b60006020820190508181036000830152614ced8161456d565b9050919050565b60006020820190508181036000830152614d0d81614590565b9050919050565b60006020820190508181036000830152614d2d816145b3565b9050919050565b60006020820190508181036000830152614d4d816145f9565b9050919050565b60006020820190508181036000830152614d6d8161461c565b9050919050565b60006020820190508181036000830152614d8d8161463f565b9050919050565b60006020820190508181036000830152614dad81614662565b9050919050565b60006020820190508181036000830152614dcd81614685565b9050919050565b60006020820190508181036000830152614ded816146a8565b9050919050565b60006020820190508181036000830152614e0d816146ee565b9050919050565b60006020820190508181036000830152614e2d81614711565b9050919050565b60006020820190508181036000830152614e4d81614757565b9050919050565b60006020820190508181036000830152614e6d8161479d565b9050919050565b60006020820190508181036000830152614e8d816147c0565b9050919050565b60006020820190508181036000830152614ead81614806565b9050919050565b60006020820190508181036000830152614ecd81614829565b9050919050565b60006020820190508181036000830152614eed8161484c565b9050919050565b60006020820190508181036000830152614f0d8161486f565b9050919050565b60006020820190508181036000830152614f2d81614892565b9050919050565b60006020820190508181036000830152614f4d816148b5565b9050919050565b60006020820190508181036000830152614f6d816148d8565b9050919050565b60006020820190508181036000830152614f8d816148fb565b9050919050565b60006020820190508181036000830152614fad8161491e565b9050919050565b60006020820190508181036000830152614fcd81614964565b9050919050565b6000602082019050614fe96000830184614996565b92915050565b60006040820190506150046000830185614996565b6150116020830184614996565b9392505050565b6000615022615033565b905061502e8282615370565b919050565b6000604051905090565b600067ffffffffffffffff821115615058576150576154d5565b5b602082029050602081019050919050565b600067ffffffffffffffff821115615084576150836154d5565b5b602082029050602081019050919050565b600067ffffffffffffffff8211156150b0576150af6154d5565b5b6150b982615526565b9050602081019050919050565b6000819050602082019050919050565b60008190508160005260206000209050919050565b600081519050919050565b600081519050919050565b600081519050919050565b6000602082019050919050565b600082825260208201905092915050565b600082825260208201905092915050565b600082825260208201905092915050565b600081905092915050565b60006151628261527c565b915061516d8361527c565b9250827fffffffffffffffffffffffffffffffffffffffffffffffffffffffffffffffff038211156151a2576151a1615448565b5b828201905092915050565b60006151b88261527c565b91506151c38361527c565b9250826151d3576151d2615477565b5b828204905092915050565b60006151e98261527c565b91506151f48361527c565b92508282101561520757615206615448565b5b828203905092915050565b600061521d8261525c565b9050919050565b60008115159050919050565b60007fffffffff0000000000000000000000000000000000000000000000000000000082169050919050565b600073ffffffffffffffffffffffffffffffffffffffff82169050919050565b6000819050919050565b600063ffffffff82169050919050565b60006152a18261527c565b9050919050565b82818337600083830152505050565b60005b838110156152d55780820151818401526020810190506152ba565b838111156152e4576000848401525b50505050565b60006152f58261527c565b9150600082141561530957615308615448565b5b600182039050919050565b600061531f82615286565b9150600082141561533357615332615448565b5b600182039050919050565b6000600282049050600182168061535657607f821691505b6020821081141561536a576153696154a6565b5b50919050565b61537982615526565b810181811067ffffffffffffffff82111715615398576153976154d5565b5b80604052505050565b60006153ac8261527c565b91507fffffffffffffffffffffffffffffffffffffffffffffffffffffffffffffffff8214156153df576153de615448565b5b600182019050919050565b60006153f582615286565b915063ffffffff82141561540c5761540b615448565b5b600182019050919050565b60006154228261527c565b915061542d8361527c565b92508261543d5761543c615477565b5b828206905092915050565b7f4e487b7100000000000000000000000000000000000000000000000000000000600052601160045260246000fd5b7f4e487b7100000000000000000000000000000000000000000000000000000000600052601260045260246000fd5b7f4e487b7100000000000000000000000000000000000000000000000000000000600052602260045260246000fd5b7f4e487b7100000000000000000000000000000000000000000000000000000000600052604160045260246000fd5b600060033d11156155235760046000803e615520600051615537565b90505b90565b6000601f19601f8301169050919050565b60008160e01c9050919050565b7f455243313135353a207472616e7366657220746f206e6f6e204552433131353560008201527f526563656976657220696d706c656d656e746572000000000000000000000000602082015250565b7f455243313135353a204552433131353552656365697665722072656a6563746560008201527f6420746f6b656e73000000000000000000000000000000000000000000000000602082015250565b7f2050726573616c65204d656d6265722873292e00000000000000000000000000600082015250565b7f455243313135353a2062616c616e636520717565727920666f7220746865207a60008201527f65726f2061646472657373000000000000000000000000000000000000000000602082015250565b7f4f776e61626c653a206e6577206f776e657220697320746865207a65726f206160008201527f6464726573730000000000000000000000000000000000000000000000000000602082015250565b7f43616e206f6e6c79206d696e74206f6e65206672756974206261736b6574206460008201527f7572696e672070726573616c652e000000000000000000000000000000000000602082015250565b7f416c6c2042756e646c65732068617665206265656e206d696e7465642e000000600082015250565b7f455243313135353a2063616c6c6572206973206e6f74206f776e6572206e6f7260008201527f20617070726f7665640000000000000000000000000000000000000000000000602082015250565b7f5075626c69632073616c65206d757374206265206c61746572207468616e207460008201527f68652070726573616c6500000000000000000000000000000000000000000000602082015250565b7f20564946204d656d6265722873292e2054686572652069732f61726520000000600082015250565b7f43616e206f6e6c79206d696e74206f6e65206672756974206261736b6574206460008201527f7572696e67207075626c69632073616c652e0000000000000000000000000000602082015250565b7f416c6c2062756e646c65732068617665206265656e206d696e7465642e000000600082015250565b7f455243313135353a207472616e7366657220746f20746865207a65726f20616460008201527f6472657373000000000000000000000000000000000000000000000000000000602082015250565b7f455243313135353a207472616e736665722063616c6c6572206973206e6f742060008201527f6f776e6572206e6f7220617070726f7665640000000000000000000000000000602082015250565b7f50726573616c65204d757374206265206c61746572207468616e20566966205360008201527f616c650000000000000000000000000000000000000000000000000000000000602082015250565b7f455243313135353a20696e73756666696369656e742062616c616e636520666f60008201527f72207472616e7366657200000000000000000000000000000000000000000000602082015250565b7f2e6a736f6e000000000000000000000000000000000000000000000000000000600082015250565b7f4f776e61626c653a2063616c6c6572206973206e6f7420746865206f776e6572600082015250565b7f596f752063616e206f6e6c79206d696e74206f6e65206672756974206261736b60008201527f657420647572696e67205649462073616c650000000000000000000000000000602082015250565b7f2f72656365697074732f00000000000000000000000000000000000000000000600082015250565b7f416c6c205649462062756e646c65732068617665206265656e20736f6c640000600082015250565b7f54686572652069732f6172652000000000000000000000000000000000000000600082015250565b7f4e6f20657468657220696e20636f6e7472616374000000000000000000000000600082015250565b7f416c6c2070726573616c65206672756974206261736b6574732068617665206260008201527f65656e20736f6c642e0000000000000000000000000000000000000000000000602082015250565b7f2f34696e31732f00000000000000000000000000000000000000000000000000600082015250565b7f5649462073616c6520686173206e6f7420737461727465640000000000000000600082015250565b7f455243313135353a2073657474696e6720617070726f76616c2073746174757360008201527f20666f722073656c660000000000000000000000000000000000000000000000602082015250565b7f455243313135353a206163636f756e747320616e6420696473206c656e67746860008201527f206d69736d617463680000000000000000000000000000000000000000000000602082015250565b7f5649462073616c65206973206163746976652062757420796f7527726520617260008201527f65206e6f742061205649462c207761697420666f722070726573616c65000000602082015250565b7f455243313135353a2069647320616e6420616d6f756e7473206c656e6774682060008201527f6d69736d61746368000000000000000000000000000000000000000000000000602082015250565b7f455243313135353a206d696e7420746f20746865207a65726f2061646472657360008201527f7300000000000000000000000000000000000000000000000000000000000000602082015250565b7f5265656e7472616e637947756172643a207265656e7472616e742063616c6c00600082015250565b7f596f7520646f206e6f74206861766520612066726565206d696e740000000000600082015250565b7f4e6f7420656e6f756768206574686572207761732073656e7420746f2070757260008201527f636861736520796f7572206672756974206261736b65742e0000000000000000602082015250565b7f2f6672756974732f000000000000000000000000000000000000000000000000600082015250565b7f416c6c2062756e646c65732068617665206e6f74206265656e20676976656e2060008201527f61776179206f7220736f6c640000000000000000000000000000000000000000602082015250565b600060443d1015615e3657615eb9565b615e3e615033565b60043d036004823e80513d602482011167ffffffffffffffff82111715615e66575050615eb9565b808201805167ffffffffffffffff811115615e845750505050615eb9565b80602083010160043d038501811115615ea1575050505050615eb9565b615eb082602001850186615370565b82955050505050505b90565b615ec581615212565b8114615ed057600080fd5b50565b615edc81615224565b8114615ee757600080fd5b50565b615ef381615230565b8114615efe57600080fd5b50565b615f0a8161527c565b8114615f1557600080fd5b5056fea2646970667358221220231d6c3c0df5abb147cb0e21a3b9ade3b8114acca817d9923be909d58a8d43c664736f6c63430008040033",
  "linkReferences": {},
  "deployedLinkReferences": {}
}