{
  "_format": "hh-sol-artifact-1",
  "contractName": "DemoOptimized",
  "sourceName": "contracts/DemoOptimized.sol",
  "abi": [
    {
      "inputs": [
        {
          "internalType": "string",
          "name": "uri1",
          "type": "string"
        },
        {
          "internalType": "string",
          "name": "uriPreview1",
          "type": "string"
        }
      ],
      "stateMutability": "nonpayable",
      "type": "constructor"
    },
    {
      "anonymous": false,
      "inputs": [
        {
          "indexed": true,
          "internalType": "address",
          "name": "account",
          "type": "address"
        },
        {
          "indexed": true,
          "internalType": "address",
          "name": "operator",
          "type": "address"
        },
        {
          "indexed": false,
          "internalType": "bool",
          "name": "approved",
          "type": "bool"
        }
      ],
      "name": "ApprovalForAll",
      "type": "event"
    },
    {
      "anonymous": false,
      "inputs": [
        {
          "indexed": false,
          "internalType": "address",
          "name": "_sender",
          "type": "address"
        },
        {
          "indexed": false,
          "internalType": "uint256",
          "name": "_fourInOneToken",
          "type": "uint256"
        },
        {
          "indexed": false,
          "internalType": "uint256",
          "name": "_fruitTokenId",
          "type": "uint256"
        },
        {
          "indexed": false,
          "internalType": "uint256",
          "name": "_quadrant",
          "type": "uint256"
        }
      ],
      "name": "ChangeFourInOne",
      "type": "event"
    },
    {
      "anonymous": false,
      "inputs": [
        {
          "indexed": false,
          "internalType": "address",
          "name": "_sender",
          "type": "address"
        },
        {
          "indexed": false,
          "internalType": "uint256",
          "name": "_supply",
          "type": "uint256"
        }
      ],
      "name": "IncreaseBundleSupply",
      "type": "event"
    },
    {
      "anonymous": false,
      "inputs": [
        {
          "indexed": false,
          "internalType": "address",
          "name": "_sender",
          "type": "address"
        },
        {
          "indexed": false,
          "internalType": "uint256",
          "name": "_supply",
          "type": "uint256"
        }
      ],
      "name": "IncreaseReceiptSupply",
      "type": "event"
    },
    {
      "anonymous": false,
      "inputs": [
        {
          "indexed": true,
          "internalType": "address",
          "name": "previousOwner",
          "type": "address"
        },
        {
          "indexed": true,
          "internalType": "address",
          "name": "newOwner",
          "type": "address"
        }
      ],
      "name": "OwnershipTransferred",
      "type": "event"
    },
    {
      "anonymous": false,
      "inputs": [
        {
          "indexed": false,
          "internalType": "address",
          "name": "_sender",
          "type": "address"
        },
        {
          "indexed": false,
          "internalType": "uint256",
          "name": "_gwei",
          "type": "uint256"
        }
      ],
      "name": "PricePerBundle",
      "type": "event"
    },
    {
      "anonymous": false,
      "inputs": [
        {
          "indexed": true,
          "internalType": "address",
          "name": "operator",
          "type": "address"
        },
        {
          "indexed": true,
          "internalType": "address",
          "name": "from",
          "type": "address"
        },
        {
          "indexed": true,
          "internalType": "address",
          "name": "to",
          "type": "address"
        },
        {
          "indexed": false,
          "internalType": "uint256[]",
          "name": "ids",
          "type": "uint256[]"
        },
        {
          "indexed": false,
          "internalType": "uint256[]",
          "name": "values",
          "type": "uint256[]"
        }
      ],
      "name": "TransferBatch",
      "type": "event"
    },
    {
      "anonymous": false,
      "inputs": [
        {
          "indexed": true,
          "internalType": "address",
          "name": "operator",
          "type": "address"
        },
        {
          "indexed": true,
          "internalType": "address",
          "name": "from",
          "type": "address"
        },
        {
          "indexed": true,
          "internalType": "address",
          "name": "to",
          "type": "address"
        },
        {
          "indexed": false,
          "internalType": "uint256",
          "name": "id",
          "type": "uint256"
        },
        {
          "indexed": false,
          "internalType": "uint256",
          "name": "value",
          "type": "uint256"
        }
      ],
      "name": "TransferSingle",
      "type": "event"
    },
    {
      "anonymous": false,
      "inputs": [
        {
          "indexed": false,
          "internalType": "string",
          "name": "value",
          "type": "string"
        },
        {
          "indexed": true,
          "internalType": "uint256",
          "name": "id",
          "type": "uint256"
        }
      ],
      "name": "URI",
      "type": "event"
    },
    {
      "inputs": [
        {
          "internalType": "address",
          "name": "account",
          "type": "address"
        },
        {
          "internalType": "uint256",
          "name": "id",
          "type": "uint256"
        }
      ],
      "name": "balanceOf",
      "outputs": [
        {
          "internalType": "uint256",
          "name": "",
          "type": "uint256"
        }
      ],
      "stateMutability": "view",
      "type": "function"
    },
    {
      "inputs": [
        {
          "internalType": "address[]",
          "name": "accounts",
          "type": "address[]"
        },
        {
          "internalType": "uint256[]",
          "name": "ids",
          "type": "uint256[]"
        }
      ],
      "name": "balanceOfBatch",
      "outputs": [
        {
          "internalType": "uint256[]",
          "name": "",
          "type": "uint256[]"
        }
      ],
      "stateMutability": "view",
      "type": "function"
    },
    {
      "inputs": [
        {
          "internalType": "uint256",
          "name": "_fruitTokenId",
          "type": "uint256"
        },
        {
          "internalType": "uint256",
          "name": "_fourInOneTokenId",
          "type": "uint256"
        },
        {
          "internalType": "uint256",
          "name": "_quadrant",
          "type": "uint256"
        }
      ],
      "name": "cuteeExchange",
      "outputs": [],
      "stateMutability": "nonpayable",
      "type": "function"
    },
    {
      "inputs": [],
      "name": "getBalance",
      "outputs": [
        {
          "internalType": "uint256",
          "name": "",
          "type": "uint256"
        }
      ],
      "stateMutability": "view",
      "type": "function"
    },
    {
      "inputs": [],
      "name": "getBundleSupply",
      "outputs": [
        {
          "internalType": "uint256",
          "name": "",
          "type": "uint256"
        }
      ],
      "stateMutability": "view",
      "type": "function"
    },
    {
      "inputs": [],
      "name": "getPricePerBundle",
      "outputs": [
        {
          "internalType": "uint256",
          "name": "",
          "type": "uint256"
        }
      ],
      "stateMutability": "view",
      "type": "function"
    },
    {
      "inputs": [],
      "name": "getReceiptSupply",
      "outputs": [
        {
          "internalType": "uint256",
          "name": "",
          "type": "uint256"
        }
      ],
      "stateMutability": "view",
      "type": "function"
    },
    {
      "inputs": [],
      "name": "getVIFCount",
      "outputs": [
        {
          "internalType": "string",
          "name": "",
          "type": "string"
        }
      ],
      "stateMutability": "view",
      "type": "function"
    },
    {
      "inputs": [
        {
          "internalType": "address",
          "name": "_address",
          "type": "address"
        }
      ],
      "name": "getVIFMember",
      "outputs": [
        {
          "internalType": "address",
          "name": "",
          "type": "address"
        },
        {
          "internalType": "string",
          "name": "",
          "type": "string"
        }
      ],
      "stateMutability": "view",
      "type": "function"
    },
    {
      "inputs": [
        {
          "internalType": "address[]",
          "name": "_to",
          "type": "address[]"
        }
      ],
      "name": "giveawayBundle",
      "outputs": [],
      "stateMutability": "nonpayable",
      "type": "function"
    },
    {
      "inputs": [
        {
          "internalType": "address",
          "name": "account",
          "type": "address"
        },
        {
          "internalType": "address",
          "name": "operator",
          "type": "address"
        }
      ],
      "name": "isApprovedForAll",
      "outputs": [
        {
          "internalType": "bool",
          "name": "",
          "type": "bool"
        }
      ],
      "stateMutability": "view",
      "type": "function"
    },
    {
      "inputs": [
        {
          "internalType": "uint256",
          "name": "_quantity",
          "type": "uint256"
        }
      ],
      "name": "mintBundle",
      "outputs": [],
      "stateMutability": "payable",
      "type": "function"
    },
    {
      "inputs": [],
      "name": "owner",
      "outputs": [
        {
          "internalType": "address",
          "name": "",
          "type": "address"
        }
      ],
      "stateMutability": "view",
      "type": "function"
    },
    {
      "inputs": [],
      "name": "renounceOwnership",
      "outputs": [],
      "stateMutability": "nonpayable",
      "type": "function"
    },
    {
      "inputs": [],
      "name": "resetVIF",
      "outputs": [],
      "stateMutability": "nonpayable",
      "type": "function"
    },
    {
      "inputs": [
        {
          "internalType": "address",
          "name": "from",
          "type": "address"
        },
        {
          "internalType": "address",
          "name": "to",
          "type": "address"
        },
        {
          "internalType": "uint256[]",
          "name": "ids",
          "type": "uint256[]"
        },
        {
          "internalType": "uint256[]",
          "name": "amounts",
          "type": "uint256[]"
        },
        {
          "internalType": "bytes",
          "name": "data",
          "type": "bytes"
        }
      ],
      "name": "safeBatchTransferFrom",
      "outputs": [],
      "stateMutability": "nonpayable",
      "type": "function"
    },
    {
      "inputs": [
        {
          "internalType": "address",
          "name": "from",
          "type": "address"
        },
        {
          "internalType": "address",
          "name": "to",
          "type": "address"
        },
        {
          "internalType": "uint256",
          "name": "id",
          "type": "uint256"
        },
        {
          "internalType": "uint256",
          "name": "amount",
          "type": "uint256"
        },
        {
          "internalType": "bytes",
          "name": "data",
          "type": "bytes"
        }
      ],
      "name": "safeTransferFrom",
      "outputs": [],
      "stateMutability": "nonpayable",
      "type": "function"
    },
    {
      "inputs": [
        {
          "internalType": "address",
          "name": "operator",
          "type": "address"
        },
        {
          "internalType": "bool",
          "name": "approved",
          "type": "bool"
        }
      ],
      "name": "setApprovalForAll",
      "outputs": [],
      "stateMutability": "nonpayable",
      "type": "function"
    },
    {
      "inputs": [
        {
          "internalType": "uint256",
          "name": "_presaleStartTime",
          "type": "uint256"
        },
        {
          "internalType": "uint256",
          "name": "_timeBetweenSales",
          "type": "uint256"
        }
      ],
      "name": "setPresaleStartTime",
      "outputs": [],
      "stateMutability": "nonpayable",
      "type": "function"
    },
    {
      "inputs": [
        {
          "internalType": "uint256",
          "name": "_gwei",
          "type": "uint256"
        }
      ],
      "name": "setPricePerBundle",
      "outputs": [],
      "stateMutability": "nonpayable",
      "type": "function"
    },
    {
      "inputs": [],
      "name": "setSeason",
      "outputs": [],
      "stateMutability": "nonpayable",
      "type": "function"
    },
    {
      "inputs": [
        {
          "internalType": "uint256",
          "name": "_fruitTokenIdLowerParam",
          "type": "uint256"
        },
        {
          "internalType": "uint256",
          "name": "_fourInOneTokenIdLowerParam",
          "type": "uint256"
        }
      ],
      "name": "setSeasonLowerParams",
      "outputs": [],
      "stateMutability": "nonpayable",
      "type": "function"
    },
    {
      "inputs": [
        {
          "internalType": "address[]",
          "name": "_vifs",
          "type": "address[]"
        }
      ],
      "name": "setVIFMember",
      "outputs": [],
      "stateMutability": "nonpayable",
      "type": "function"
    },
    {
      "inputs": [
        {
          "internalType": "bytes4",
          "name": "interfaceId",
          "type": "bytes4"
        }
      ],
      "name": "supportsInterface",
      "outputs": [
        {
          "internalType": "bool",
          "name": "",
          "type": "bool"
        }
      ],
      "stateMutability": "view",
      "type": "function"
    },
    {
      "inputs": [
        {
          "internalType": "address",
          "name": "newOwner",
          "type": "address"
        }
      ],
      "name": "transferOwnership",
      "outputs": [],
      "stateMutability": "nonpayable",
      "type": "function"
    },
    {
      "inputs": [
        {
          "internalType": "uint256",
          "name": "_tokenId",
          "type": "uint256"
        }
      ],
      "name": "uri",
      "outputs": [
        {
          "internalType": "string",
          "name": "",
          "type": "string"
        }
      ],
      "stateMutability": "view",
      "type": "function"
    },
    {
      "inputs": [],
      "name": "withdrawBalance",
      "outputs": [],
      "stateMutability": "nonpayable",
      "type": "function"
    }
  ],
  "bytecode": "0x60806040526001600455620186a16005556103e8600755610bb860085567016345785d8a00006009553480156200003557600080fd5b50604051620063123803806200631283398181016040528101906200005b9190620002f4565b6200007b6200006f620000ce60201b60201c565b620000d660201b60201c565b60016003819055506000600a819055506201869f600c81905550620186a1600b81905550620f423f600d819055506374e66bcc600e81905550620000c682826200019c60201b60201c565b5050620004d7565b600033905090565b6000600260009054906101000a900473ffffffffffffffffffffffffffffffffffffffff16905081600260006101000a81548173ffffffffffffffffffffffffffffffffffffffff021916908373ffffffffffffffffffffffffffffffffffffffff1602179055508173ffffffffffffffffffffffffffffffffffffffff168173ffffffffffffffffffffffffffffffffffffffff167f8be0079c531659141344cd1fd0a4f28419497f9722a3daafe3b4186f6b6457e060405160405180910390a35050565b8160109080519060200190620001b4929190620001d2565b508060119080519060200190620001cd929190620001d2565b505050565b828054620001e090620003fc565b90600052602060002090601f01602090048101928262000204576000855562000250565b82601f106200021f57805160ff191683800117855562000250565b8280016001018555821562000250579182015b828111156200024f57825182559160200191906001019062000232565b5b5090506200025f919062000263565b5090565b5b808211156200027e57600081600090555060010162000264565b5090565b600062000299620002938462000390565b62000367565b905082815260208101848484011115620002b257600080fd5b620002bf848285620003c6565b509392505050565b600082601f830112620002d957600080fd5b8151620002eb84826020860162000282565b91505092915050565b600080604083850312156200030857600080fd5b600083015167ffffffffffffffff8111156200032357600080fd5b6200033185828601620002c7565b925050602083015167ffffffffffffffff8111156200034f57600080fd5b6200035d85828601620002c7565b9150509250929050565b60006200037362000386565b905062000381828262000432565b919050565b6000604051905090565b600067ffffffffffffffff821115620003ae57620003ad62000497565b5b620003b982620004c6565b9050602081019050919050565b60005b83811015620003e6578082015181840152602081019050620003c9565b83811115620003f6576000848401525b50505050565b600060028204905060018216806200041557607f821691505b602082108114156200042c576200042b62000468565b5b50919050565b6200043d82620004c6565b810181811067ffffffffffffffff821117156200045f576200045e62000497565b5b80604052505050565b7f4e487b7100000000000000000000000000000000000000000000000000000000600052602260045260246000fd5b7f4e487b7100000000000000000000000000000000000000000000000000000000600052604160045260246000fd5b6000601f19601f8301169050919050565b615e2b80620004e76000396000f3fe60806040526004361061019b5760003560e01c80635f4c5b25116100ec5780639d56c2ea1161008a578063e985e9c511610064578063e985e9c514610569578063f242432a146105a6578063f2fde38b146105cf578063f532be15146105f85761019b565b80639d56c2ea146104ee578063a22cb46514610517578063c176e808146105405761019b565b806376937cef116100c657806376937cef146104445780637b1b1bb01461046f5780638110b32f1461049a5780638da5cb5b146104c35761019b565b80635f4c5b25146103eb5780635fd8c71014610416578063715018a61461042d5761019b565b8063299ed104116101595780633b55eab0116101335780633b55eab0146103525780633c5a52ed146103695780633efc5200146103855780634e1273f4146103ae5761019b565b8063299ed104146102d45780632c92267d146102eb5780632eb2c2d6146103295761019b565b8062fdd58e146101a057806301ffc9a7146101dd5780630948b38a1461021a5780630e89341c1461024357806312065fe01461028057806312a60517146102ab575b600080fd5b3480156101ac57600080fd5b506101c760048036038101906101c2919061423d565b610623565b6040516101d49190615040565b60405180910390f35b3480156101e957600080fd5b5061020460048036038101906101ff919061436b565b6106ec565b6040516102119190614ca3565b60405180910390f35b34801561022657600080fd5b50610241600480360381019061023c91906143e6565b6107ce565b005b34801561024f57600080fd5b5061026a600480360381019061026591906143bd565b610867565b6040516102779190614cbe565b60405180910390f35b34801561028c57600080fd5b5061029561095e565b6040516102a29190615040565b60405180910390f35b3480156102b757600080fd5b506102d260048036038101906102cd91906143e6565b610966565b005b3480156102e057600080fd5b506102e96109f4565b005b3480156102f757600080fd5b50610312600480360381019061030d919061404e565b610b20565b604051610320929190614bac565b60405180910390f35b34801561033557600080fd5b50610350600480360381019061034b91906140b3565b610b95565b005b34801561035e57600080fd5b50610367610c36565b005b610383600480360381019061037e91906143bd565b610d8f565b005b34801561039157600080fd5b506103ac60048036038101906103a791906143bd565b611569565b005b3480156103ba57600080fd5b506103d560048036038101906103d091906142ff565b611628565b6040516103e29190614c4a565b60405180910390f35b3480156103f757600080fd5b506104006117d9565b60405161040d9190615040565b60405180910390f35b34801561042257600080fd5b5061042b6117e3565b005b34801561043957600080fd5b506104426118eb565b005b34801561045057600080fd5b50610459611973565b6040516104669190615040565b60405180910390f35b34801561047b57600080fd5b5061048461197d565b6040516104919190615040565b60405180910390f35b3480156104a657600080fd5b506104c160048036038101906104bc9190614422565b611987565b005b3480156104cf57600080fd5b506104d8611fc0565b6040516104e59190614a7d565b60405180910390f35b3480156104fa57600080fd5b50610515600480360381019061051091906142be565b611fea565b005b34801561052357600080fd5b5061053e60048036038101906105399190614201565b61223f565b005b34801561054c57600080fd5b5061056760048036038101906105629190614279565b612255565b005b34801561057557600080fd5b50610590600480360381019061058b9190614077565b6128a9565b60405161059d9190614ca3565b60405180910390f35b3480156105b257600080fd5b506105cd60048036038101906105c89190614172565b61293d565b005b3480156105db57600080fd5b506105f660048036038101906105f1919061404e565b6129de565b005b34801561060457600080fd5b5061060d612ad6565b60405161061a9190614cbe565b60405180910390f35b60008073ffffffffffffffffffffffffffffffffffffffff168373ffffffffffffffffffffffffffffffffffffffff161415610694576040517f08c379a000000000000000000000000000000000000000000000000000000000815260040161068b90614d40565b60405180910390fd5b60008083815260200190815260200160002060008473ffffffffffffffffffffffffffffffffffffffff1673ffffffffffffffffffffffffffffffffffffffff16815260200190815260200160002054905092915050565b60007fd9b67a26000000000000000000000000000000000000000000000000000000007bffffffffffffffffffffffffffffffffffffffffffffffffffffffff1916827bffffffffffffffffffffffffffffffffffffffffffffffffffffffff191614806107b757507f0e89341c000000000000000000000000000000000000000000000000000000007bffffffffffffffffffffffffffffffffffffffffffffffffffffffff1916827bffffffffffffffffffffffffffffffffffffffffffffffffffffffff1916145b806107c757506107c682612b86565b5b9050919050565b6107d6612bf0565b73ffffffffffffffffffffffffffffffffffffffff166107f4611fc0565b73ffffffffffffffffffffffffffffffffffffffff161461084a576040517f08c379a000000000000000000000000000000000000000000000000000000000815260040161084190614e60565b60405180910390fd5b81600e81905550808261085d91906151c3565b600f819055505050565b6060600a548211801561087b5750600c5482105b806108945750600b54821180156108935750600d5482105b5b1561092b57601180546108a6906153dc565b80601f01602080910402602001604051908101604052809291908181526020018280546108d2906153dc565b801561091f5780601f106108f45761010080835404028352916020019161091f565b820191906000526020600020905b81548152906001019060200180831161090257829003601f168201915b50505050509050610959565b601061093683612bf8565b604051602001610947929190614a4e565b60405160208183030381529060405290505b919050565b600047905090565b61096e612bf0565b73ffffffffffffffffffffffffffffffffffffffff1661098c611fc0565b73ffffffffffffffffffffffffffffffffffffffff16146109e2576040517f08c379a00000000000000000000000000000000000000000000000000000000081526004016109d990614e60565b60405180910390fd5b81600a8190555080600b819055505050565b6109fc612bf0565b73ffffffffffffffffffffffffffffffffffffffff16610a1a611fc0565b73ffffffffffffffffffffffffffffffffffffffff1614610a70576040517f08c379a0000000000000000000000000000000000000000000000000000000008152600401610a6790614e60565b60405180910390fd5b6103e8600754610a8091906151c3565b600781905550610bb8600854610a9691906151c3565b6008819055506401d399af30600e819055507fec1b0f16852f6bc8e2714e46680cdae05663378c4304e6e3bb25e5a82c7ba350336103e8604051610adb929190614b5a565b60405180910390a17fe3d47dee33b959cc59941f840525125123544e1f194b235f340f0c6147697ac333610bb8604051610b16929190614b83565b60405180910390a1565b6000606082610b6d601460008673ffffffffffffffffffffffffffffffffffffffff1673ffffffffffffffffffffffffffffffffffffffff16815260200190815260200160002054612bf8565b604051602001610b7d9190614a37565b60405160208183030381529060405291509150915091565b610b9d612bf0565b73ffffffffffffffffffffffffffffffffffffffff168573ffffffffffffffffffffffffffffffffffffffff161480610be35750610be285610bdd612bf0565b6128a9565b5b610c22576040517f08c379a0000000000000000000000000000000000000000000000000000000008152600401610c1990614e00565b60405180910390fd5b610c2f8585858585612da5565b5050505050565b610c3e612bf0565b73ffffffffffffffffffffffffffffffffffffffff16610c5c611fc0565b73ffffffffffffffffffffffffffffffffffffffff1614610cb2576040517f08c379a0000000000000000000000000000000000000000000000000000000008152600401610ca990614e60565b60405180910390fd5b60005b601280549050811015610d7e5760006014600060128481548110610d02577f4e487b7100000000000000000000000000000000000000000000000000000000600052603260045260246000fd5b9060005260206000200160009054906101000a900473ffffffffffffffffffffffffffffffffffffffff1673ffffffffffffffffffffffffffffffffffffffff1673ffffffffffffffffffffffffffffffffffffffff168152602001908152602001600020819055508080610d769061543f565b915050610cb5565b5060126000610d8d9190613dc9565b565b600e544211610dd3576040517f08c379a0000000000000000000000000000000000000000000000000000000008152600401610dca90614d20565b60405180910390fd5b600e5442118015610de55750600f5442105b15610e6d576000601460003373ffffffffffffffffffffffffffffffffffffffff1673ffffffffffffffffffffffffffffffffffffffff1681526020019081526020016000205411610e6c576040517f08c379a0000000000000000000000000000000000000000000000000000000008152600401610e6390614e80565b60405180910390fd5b5b60026003541415610eb3576040517f08c379a0000000000000000000000000000000000000000000000000000000008152600401610eaa90614fc0565b60405180910390fd5b60026003819055508067016345785d8a0000610ecf919061524a565b341015610f11576040517f08c379a0000000000000000000000000000000000000000000000000000000008152600401610f0890614fe0565b60405180910390fd5b600281601360003373ffffffffffffffffffffffffffffffffffffffff1673ffffffffffffffffffffffffffffffffffffffff16815260200190815260200160002054610f5e91906151c3565b1115610f9f576040517f08c379a0000000000000000000000000000000000000000000000000000000008152600401610f9690614ec0565b60405180910390fd5b600081600754610faf91906152a4565b1015610ff0576040517f08c379a0000000000000000000000000000000000000000000000000000000008152600401610fe790614f00565b60405180910390fd5b6000600667ffffffffffffffff811115611033577f4e487b7100000000000000000000000000000000000000000000000000000000600052604160045260246000fd5b6040519080825280602002602001820160405280156110615781602001602082028036833780820191505090505b5090506000600667ffffffffffffffff8111156110a7577f4e487b7100000000000000000000000000000000000000000000000000000000600052604160045260246000fd5b6040519080825280602002602001820160405280156110d55781602001602082028036833780820191505090505b50905060005b8381101561155b5760018360008151811061111f577f4e487b7100000000000000000000000000000000000000000000000000000000600052603260045260246000fd5b602002602001018181525050600183600181518110611167577f4e487b7100000000000000000000000000000000000000000000000000000000600052603260045260246000fd5b6020026020010181815250506001836002815181106111af577f4e487b7100000000000000000000000000000000000000000000000000000000600052603260045260246000fd5b6020026020010181815250506001836003815181106111f7577f4e487b7100000000000000000000000000000000000000000000000000000000600052603260045260246000fd5b60200260200101818152505060018360048151811061123f577f4e487b7100000000000000000000000000000000000000000000000000000000600052603260045260246000fd5b602002602001018181525050600383600581518110611287577f4e487b7100000000000000000000000000000000000000000000000000000000600052603260045260246000fd5b602002602001018181525050600454826000815181106112d0577f4e487b7100000000000000000000000000000000000000000000000000000000600052603260045260246000fd5b602002602001018181525050600460008154809291906112ef9061543f565b919050555060045482600181518110611331577f4e487b7100000000000000000000000000000000000000000000000000000000600052603260045260246000fd5b602002602001018181525050600460008154809291906113509061543f565b919050555060045482600281518110611392577f4e487b7100000000000000000000000000000000000000000000000000000000600052603260045260246000fd5b602002602001018181525050600460008154809291906113b19061543f565b9190505550600454826003815181106113f3577f4e487b7100000000000000000000000000000000000000000000000000000000600052603260045260246000fd5b602002602001018181525050600460008154809291906114129061543f565b919050555060055482600481518110611454577f4e487b7100000000000000000000000000000000000000000000000000000000600052603260045260246000fd5b602002602001018181525050600560008154809291906114739061543f565b91905055506000826005815181106114b4577f4e487b7100000000000000000000000000000000000000000000000000000000600052603260045260246000fd5b602002602001018181525050601360003373ffffffffffffffffffffffffffffffffffffffff1673ffffffffffffffffffffffffffffffffffffffff16815260200190815260200160002060008154809291906115109061543f565b9190505550611530338385604051806020016040528060008152506130f7565b60076000815480929190611543906153b2565b919050555080806115539061543f565b9150506110db565b505050600160038190555050565b611571612bf0565b73ffffffffffffffffffffffffffffffffffffffff1661158f611fc0565b73ffffffffffffffffffffffffffffffffffffffff16146115e5576040517f08c379a00000000000000000000000000000000000000000000000000000000081526004016115dc90614e60565b60405180910390fd5b806009819055507fa38e66eb2f94412ae516060322caf607239c4ec9f487e5c1f69e3e1b31cce028338260405161161d929190614bdc565b60405180910390a150565b6060815183511461166e576040517f08c379a000000000000000000000000000000000000000000000000000000000815260040161166590614f60565b60405180910390fd5b6000835167ffffffffffffffff8111156116b1577f4e487b7100000000000000000000000000000000000000000000000000000000600052604160045260246000fd5b6040519080825280602002602001820160405280156116df5781602001602082028036833780820191505090505b50905060005b84518110156117ce5761177885828151811061172a577f4e487b7100000000000000000000000000000000000000000000000000000000600052603260045260246000fd5b602002602001015185838151811061176b577f4e487b7100000000000000000000000000000000000000000000000000000000600052603260045260246000fd5b6020026020010151610623565b8282815181106117b1577f4e487b7100000000000000000000000000000000000000000000000000000000600052603260045260246000fd5b602002602001018181525050806117c79061543f565b90506116e5565b508091505092915050565b6000600854905090565b6117eb612bf0565b73ffffffffffffffffffffffffffffffffffffffff16611809611fc0565b73ffffffffffffffffffffffffffffffffffffffff161461185f576040517f08c379a000000000000000000000000000000000000000000000000000000000815260040161185690614e60565b60405180910390fd5b600047116118a2576040517f08c379a000000000000000000000000000000000000000000000000000000000815260040161189990614ee0565b60405180910390fd5b3373ffffffffffffffffffffffffffffffffffffffff166108fc479081150290604051600060405180830381858888f193505050501580156118e8573d6000803e3d6000fd5b50565b6118f3612bf0565b73ffffffffffffffffffffffffffffffffffffffff16611911611fc0565b73ffffffffffffffffffffffffffffffffffffffff1614611967576040517f08c379a000000000000000000000000000000000000000000000000000000000815260040161195e90614e60565b60405180910390fd5b6119716000613352565b565b6000600754905090565b6000600954905090565b600260035414156119cd576040517f08c379a00000000000000000000000000000000000000000000000000000000081526004016119c490614fc0565b60405180910390fd5b600260038190555060058110611a18576040517f08c379a0000000000000000000000000000000000000000000000000000000008152600401611a0f90615000565b60405180910390fd5b6000611a22612bf0565b90506000600367ffffffffffffffff811115611a67577f4e487b7100000000000000000000000000000000000000000000000000000000600052604160045260246000fd5b604051908082528060200260200182016040528015611a955781602001602082028036833780820191505090505b5090506000600367ffffffffffffffff811115611adb577f4e487b7100000000000000000000000000000000000000000000000000000000600052604160045260246000fd5b604051908082528060200260200182016040528015611b095781602001602082028036833780820191505090505b5090506000600367ffffffffffffffff811115611b4f577f4e487b7100000000000000000000000000000000000000000000000000000000600052604160045260246000fd5b604051908082528060200260200182016040528015611b7d5781602001602082028036833780820191505090505b5090508383600081518110611bbb577f4e487b7100000000000000000000000000000000000000000000000000000000600052603260045260246000fd5b602002602001019073ffffffffffffffffffffffffffffffffffffffff16908173ffffffffffffffffffffffffffffffffffffffff16815250508383600181518110611c30577f4e487b7100000000000000000000000000000000000000000000000000000000600052603260045260246000fd5b602002602001019073ffffffffffffffffffffffffffffffffffffffff16908173ffffffffffffffffffffffffffffffffffffffff16815250508383600281518110611ca5577f4e487b7100000000000000000000000000000000000000000000000000000000600052603260045260246000fd5b602002602001019073ffffffffffffffffffffffffffffffffffffffff16908173ffffffffffffffffffffffffffffffffffffffff16815250508682600081518110611d1a577f4e487b7100000000000000000000000000000000000000000000000000000000600052603260045260246000fd5b6020026020010181815250508582600181518110611d61577f4e487b7100000000000000000000000000000000000000000000000000000000600052603260045260246000fd5b602002602001018181525050600082600281518110611da9577f4e487b7100000000000000000000000000000000000000000000000000000000600052603260045260246000fd5b602002602001018181525050611dbf8383611628565b9050600081600081518110611dfd577f4e487b7100000000000000000000000000000000000000000000000000000000600052603260045260246000fd5b602002602001015111611e45576040517f08c379a0000000000000000000000000000000000000000000000000000000008152600401611e3c90614f20565b60405180910390fd5b600081600181518110611e81577f4e487b7100000000000000000000000000000000000000000000000000000000600052603260045260246000fd5b602002602001015111611ec9576040517f08c379a0000000000000000000000000000000000000000000000000000000008152600401611ec090614dc0565b60405180910390fd5b600081600281518110611f05577f4e487b7100000000000000000000000000000000000000000000000000000000600052603260045260246000fd5b602002602001015111611f4d576040517f08c379a0000000000000000000000000000000000000000000000000000000008152600401611f4490615020565b60405180910390fd5b7f31a355e7880e71f29b75aa7c71ce44c620458b346b2d8c8f1740cb082134d05284878988604051611f829493929190614c05565b60405180910390a1611f978460006001613418565b60086000815480929190611faa906153b2565b9190505550505050506001600381905550505050565b6000600260009054906101000a900473ffffffffffffffffffffffffffffffffffffffff16905090565b611ff2612bf0565b73ffffffffffffffffffffffffffffffffffffffff16612010611fc0565b73ffffffffffffffffffffffffffffffffffffffff1614612066576040517f08c379a000000000000000000000000000000000000000000000000000000000815260040161205d90614e60565b60405180910390fd5b60005b815181101561223b576001601460008484815181106120b1577f4e487b7100000000000000000000000000000000000000000000000000000000600052603260045260246000fd5b602002602001015173ffffffffffffffffffffffffffffffffffffffff1673ffffffffffffffffffffffffffffffffffffffff1681526020019081526020016000205414156120ff57612228565b60016014600084848151811061213e577f4e487b7100000000000000000000000000000000000000000000000000000000600052603260045260246000fd5b602002602001015173ffffffffffffffffffffffffffffffffffffffff1673ffffffffffffffffffffffffffffffffffffffff1681526020019081526020016000208190555060128282815181106121bf577f4e487b7100000000000000000000000000000000000000000000000000000000600052603260045260246000fd5b60200260200101519080600181540180825580915050600190039060005260206000200160009091909190916101000a81548173ffffffffffffffffffffffffffffffffffffffff021916908373ffffffffffffffffffffffffffffffffffffffff1602179055505b80806122339061543f565b915050612069565b5050565b61225161224a612bf0565b8383613607565b5050565b61225d612bf0565b73ffffffffffffffffffffffffffffffffffffffff1661227b611fc0565b73ffffffffffffffffffffffffffffffffffffffff16146122d1576040517f08c379a00000000000000000000000000000000000000000000000000000000081526004016122c890614e60565b60405180910390fd5b6000828290506007546122e491906152a4565b1015612325576040517f08c379a000000000000000000000000000000000000000000000000000000000815260040161231c90614ea0565b60405180910390fd5b6000600667ffffffffffffffff811115612368577f4e487b7100000000000000000000000000000000000000000000000000000000600052604160045260246000fd5b6040519080825280602002602001820160405280156123965781602001602082028036833780820191505090505b5090506001816000815181106123d5577f4e487b7100000000000000000000000000000000000000000000000000000000600052603260045260246000fd5b60200260200101818152505060018160018151811061241d577f4e487b7100000000000000000000000000000000000000000000000000000000600052603260045260246000fd5b602002602001018181525050600181600281518110612465577f4e487b7100000000000000000000000000000000000000000000000000000000600052603260045260246000fd5b6020026020010181815250506001816003815181106124ad577f4e487b7100000000000000000000000000000000000000000000000000000000600052603260045260246000fd5b6020026020010181815250506001816004815181106124f5577f4e487b7100000000000000000000000000000000000000000000000000000000600052603260045260246000fd5b60200260200101818152505060038160058151811061253d577f4e487b7100000000000000000000000000000000000000000000000000000000600052603260045260246000fd5b6020026020010181815250506000600667ffffffffffffffff81111561258c577f4e487b7100000000000000000000000000000000000000000000000000000000600052604160045260246000fd5b6040519080825280602002602001820160405280156125ba5781602001602082028036833780820191505090505b50905060005b8484905081101561288b5760045482600081518110612608577f4e487b7100000000000000000000000000000000000000000000000000000000600052603260045260246000fd5b602002602001018181525050600460008154809291906126279061543f565b919050555060045482600181518110612669577f4e487b7100000000000000000000000000000000000000000000000000000000600052603260045260246000fd5b602002602001018181525050600460008154809291906126889061543f565b9190505550600454826002815181106126ca577f4e487b7100000000000000000000000000000000000000000000000000000000600052603260045260246000fd5b602002602001018181525050600460008154809291906126e99061543f565b91905055506004548260038151811061272b577f4e487b7100000000000000000000000000000000000000000000000000000000600052603260045260246000fd5b6020026020010181815250506004600081548092919061274a9061543f565b91905055506005548260048151811061278c577f4e487b7100000000000000000000000000000000000000000000000000000000600052603260045260246000fd5b602002602001018181525050600560008154809291906127ab9061543f565b91905055506000826005815181106127ec577f4e487b7100000000000000000000000000000000000000000000000000000000600052603260045260246000fd5b602002602001018181525050612860858583818110612834577f4e487b7100000000000000000000000000000000000000000000000000000000600052603260045260246000fd5b9050602002016020810190612849919061404e565b8385604051806020016040528060008152506130f7565b60076000815480929190612873906153b2565b919050555080806128839061543f565b9150506125c0565b508383905060065461289d91906151c3565b60068190555050505050565b6000600160008473ffffffffffffffffffffffffffffffffffffffff1673ffffffffffffffffffffffffffffffffffffffff16815260200190815260200160002060008373ffffffffffffffffffffffffffffffffffffffff1673ffffffffffffffffffffffffffffffffffffffff16815260200190815260200160002060009054906101000a900460ff16905092915050565b612945612bf0565b73ffffffffffffffffffffffffffffffffffffffff168573ffffffffffffffffffffffffffffffffffffffff16148061298b575061298a85612985612bf0565b6128a9565b5b6129ca576040517f08c379a00000000000000000000000000000000000000000000000000000000081526004016129c190614da0565b60405180910390fd5b6129d78585858585613774565b5050505050565b6129e6612bf0565b73ffffffffffffffffffffffffffffffffffffffff16612a04611fc0565b73ffffffffffffffffffffffffffffffffffffffff1614612a5a576040517f08c379a0000000000000000000000000000000000000000000000000000000008152600401612a5190614e60565b60405180910390fd5b600073ffffffffffffffffffffffffffffffffffffffff168173ffffffffffffffffffffffffffffffffffffffff161415612aca576040517f08c379a0000000000000000000000000000000000000000000000000000000008152600401612ac190614d60565b60405180910390fd5b612ad381613352565b50565b6060612ae0612bf0565b73ffffffffffffffffffffffffffffffffffffffff16612afe611fc0565b73ffffffffffffffffffffffffffffffffffffffff1614612b54576040517f08c379a0000000000000000000000000000000000000000000000000000000008152600401612b4b90614e60565b60405180910390fd5b612b62601280549050612bf8565b604051602001612b729190614a37565b604051602081830303815290604052905090565b60007f01ffc9a7000000000000000000000000000000000000000000000000000000007bffffffffffffffffffffffffffffffffffffffffffffffffffffffff1916827bffffffffffffffffffffffffffffffffffffffffffffffffffffffff1916149050919050565b600033905090565b60606000821415612c40576040518060400160405280600181526020017f30000000000000000000000000000000000000000000000000000000000000008152509050612da0565b600082905060005b60008214612c72578080612c5b9061543f565b915050600a82612c6b9190615219565b9150612c48565b60008167ffffffffffffffff811115612cb4577f4e487b7100000000000000000000000000000000000000000000000000000000600052604160045260246000fd5b6040519080825280601f01601f191660200182016040528015612ce65781602001600182028036833780820191505090505b5090505b60008514612d9957600182612cff91906152a4565b9150600a85612d0e9190615488565b6030612d1a91906151c3565b60f81b818381518110612d56577f4e487b7100000000000000000000000000000000000000000000000000000000600052603260045260246000fd5b60200101907effffffffffffffffffffffffffffffffffffffffffffffffffffffffffffff1916908160001a905350600a85612d929190615219565b9450612cea565b8093505050505b919050565b8151835114612de9576040517f08c379a0000000000000000000000000000000000000000000000000000000008152600401612de090614f80565b60405180910390fd5b600073ffffffffffffffffffffffffffffffffffffffff168473ffffffffffffffffffffffffffffffffffffffff161415612e59576040517f08c379a0000000000000000000000000000000000000000000000000000000008152600401612e5090614de0565b60405180910390fd5b6000612e63612bf0565b905060005b8451811015613062576000858281518110612eac577f4e487b7100000000000000000000000000000000000000000000000000000000600052603260045260246000fd5b602002602001015190506000858381518110612ef1577f4e487b7100000000000000000000000000000000000000000000000000000000600052603260045260246000fd5b60200260200101519050600080600084815260200190815260200160002060008b73ffffffffffffffffffffffffffffffffffffffff1673ffffffffffffffffffffffffffffffffffffffff16815260200190815260200160002054905081811015612f92576040517f08c379a0000000000000000000000000000000000000000000000000000000008152600401612f8990614e40565b60405180910390fd5b81810360008085815260200190815260200160002060008c73ffffffffffffffffffffffffffffffffffffffff1673ffffffffffffffffffffffffffffffffffffffff168152602001908152602001600020819055508160008085815260200190815260200160002060008b73ffffffffffffffffffffffffffffffffffffffff1673ffffffffffffffffffffffffffffffffffffffff168152602001908152602001600020600082825461304791906151c3565b925050819055505050508061305b9061543f565b9050612e68565b508473ffffffffffffffffffffffffffffffffffffffff168673ffffffffffffffffffffffffffffffffffffffff168273ffffffffffffffffffffffffffffffffffffffff167f4a39dc06d4c0dbc64b70af90fd698a233a518aa5d07e595d983b8c0526c8f7fb87876040516130d9929190614c6c565b60405180910390a46130ef8187878787876139d8565b505050505050565b600073ffffffffffffffffffffffffffffffffffffffff168473ffffffffffffffffffffffffffffffffffffffff161415613167576040517f08c379a000000000000000000000000000000000000000000000000000000000815260040161315e90614fa0565b60405180910390fd5b81518351146131ab576040517f08c379a00000000000000000000000000000000000000000000000000000000081526004016131a290614f80565b60405180910390fd5b60006131b5612bf0565b905060005b84518110156132bc578381815181106131fc577f4e487b7100000000000000000000000000000000000000000000000000000000600052603260045260246000fd5b6020026020010151600080878481518110613240577f4e487b7100000000000000000000000000000000000000000000000000000000600052603260045260246000fd5b6020026020010151815260200190815260200160002060008873ffffffffffffffffffffffffffffffffffffffff1673ffffffffffffffffffffffffffffffffffffffff16815260200190815260200160002060008282546132a291906151c3565b9250508190555080806132b49061543f565b9150506131ba565b508473ffffffffffffffffffffffffffffffffffffffff16600073ffffffffffffffffffffffffffffffffffffffff168273ffffffffffffffffffffffffffffffffffffffff167f4a39dc06d4c0dbc64b70af90fd698a233a518aa5d07e595d983b8c0526c8f7fb8787604051613334929190614c6c565b60405180910390a461334b816000878787876139d8565b5050505050565b6000600260009054906101000a900473ffffffffffffffffffffffffffffffffffffffff16905081600260006101000a81548173ffffffffffffffffffffffffffffffffffffffff021916908373ffffffffffffffffffffffffffffffffffffffff1602179055508173ffffffffffffffffffffffffffffffffffffffff168173ffffffffffffffffffffffffffffffffffffffff167f8be0079c531659141344cd1fd0a4f28419497f9722a3daafe3b4186f6b6457e060405160405180910390a35050565b600073ffffffffffffffffffffffffffffffffffffffff168373ffffffffffffffffffffffffffffffffffffffff161415613488576040517f08c379a000000000000000000000000000000000000000000000000000000000815260040161347f90614e20565b60405180910390fd5b6000613492612bf0565b9050600080600085815260200190815260200160002060008673ffffffffffffffffffffffffffffffffffffffff1673ffffffffffffffffffffffffffffffffffffffff1681526020019081526020016000205490508281101561352b576040517f08c379a000000000000000000000000000000000000000000000000000000000815260040161352290614d80565b60405180910390fd5b82810360008086815260200190815260200160002060008773ffffffffffffffffffffffffffffffffffffffff1673ffffffffffffffffffffffffffffffffffffffff16815260200190815260200160002081905550600073ffffffffffffffffffffffffffffffffffffffff168573ffffffffffffffffffffffffffffffffffffffff168373ffffffffffffffffffffffffffffffffffffffff167fc3d58168c5ae7397731d063d5bbf3d657854427343f4c083240f7aacaa2d0f6287876040516135f892919061505b565b60405180910390a45050505050565b8173ffffffffffffffffffffffffffffffffffffffff168373ffffffffffffffffffffffffffffffffffffffff161415613676576040517f08c379a000000000000000000000000000000000000000000000000000000000815260040161366d90614f40565b60405180910390fd5b80600160008573ffffffffffffffffffffffffffffffffffffffff1673ffffffffffffffffffffffffffffffffffffffff16815260200190815260200160002060008473ffffffffffffffffffffffffffffffffffffffff1673ffffffffffffffffffffffffffffffffffffffff16815260200190815260200160002060006101000a81548160ff0219169083151502179055508173ffffffffffffffffffffffffffffffffffffffff168373ffffffffffffffffffffffffffffffffffffffff167f17307eab39ab6107e8899845ad3d59bd9653f200f220920489ca2b5937696c31836040516137679190614ca3565b60405180910390a3505050565b600073ffffffffffffffffffffffffffffffffffffffff168473ffffffffffffffffffffffffffffffffffffffff1614156137e4576040517f08c379a00000000000000000000000000000000000000000000000000000000081526004016137db90614de0565b60405180910390fd5b60006137ee612bf0565b9050600080600086815260200190815260200160002060008873ffffffffffffffffffffffffffffffffffffffff1673ffffffffffffffffffffffffffffffffffffffff16815260200190815260200160002054905083811015613887576040517f08c379a000000000000000000000000000000000000000000000000000000000815260040161387e90614e40565b60405180910390fd5b83810360008087815260200190815260200160002060008973ffffffffffffffffffffffffffffffffffffffff1673ffffffffffffffffffffffffffffffffffffffff168152602001908152602001600020819055508360008087815260200190815260200160002060008873ffffffffffffffffffffffffffffffffffffffff1673ffffffffffffffffffffffffffffffffffffffff168152602001908152602001600020600082825461393c91906151c3565b925050819055508573ffffffffffffffffffffffffffffffffffffffff168773ffffffffffffffffffffffffffffffffffffffff168373ffffffffffffffffffffffffffffffffffffffff167fc3d58168c5ae7397731d063d5bbf3d657854427343f4c083240f7aacaa2d0f6288886040516139b992919061505b565b60405180910390a46139cf828888888888613bbf565b50505050505050565b6139f78473ffffffffffffffffffffffffffffffffffffffff16613da6565b15613bb7578373ffffffffffffffffffffffffffffffffffffffff1663bc197c8187878686866040518663ffffffff1660e01b8152600401613a3d959493929190614a98565b602060405180830381600087803b158015613a5757600080fd5b505af1925050508015613a8857506040513d601f19601f82011682018060405250810190613a859190614394565b60015b613b2e57613a94615575565b806308c379a01415613af15750613aa9615d03565b80613ab45750613af3565b806040517f08c379a0000000000000000000000000000000000000000000000000000000008152600401613ae89190614cbe565b60405180910390fd5b505b6040517f08c379a0000000000000000000000000000000000000000000000000000000008152600401613b2590614ce0565b60405180910390fd5b63bc197c8160e01b7bffffffffffffffffffffffffffffffffffffffffffffffffffffffff1916817bffffffffffffffffffffffffffffffffffffffffffffffffffffffff191614613bb5576040517f08c379a0000000000000000000000000000000000000000000000000000000008152600401613bac90614d00565b60405180910390fd5b505b505050505050565b613bde8473ffffffffffffffffffffffffffffffffffffffff16613da6565b15613d9e578373ffffffffffffffffffffffffffffffffffffffff1663f23a6e6187878686866040518663ffffffff1660e01b8152600401613c24959493929190614b00565b602060405180830381600087803b158015613c3e57600080fd5b505af1925050508015613c6f57506040513d601f19601f82011682018060405250810190613c6c9190614394565b60015b613d1557613c7b615575565b806308c379a01415613cd85750613c90615d03565b80613c9b5750613cda565b806040517f08c379a0000000000000000000000000000000000000000000000000000000008152600401613ccf9190614cbe565b60405180910390fd5b505b6040517f08c379a0000000000000000000000000000000000000000000000000000000008152600401613d0c90614ce0565b60405180910390fd5b63f23a6e6160e01b7bffffffffffffffffffffffffffffffffffffffffffffffffffffffff1916817bffffffffffffffffffffffffffffffffffffffffffffffffffffffff191614613d9c576040517f08c379a0000000000000000000000000000000000000000000000000000000008152600401613d9390614d00565b60405180910390fd5b505b505050505050565b6000808273ffffffffffffffffffffffffffffffffffffffff163b119050919050565b5080546000825590600052602060002090810190613de79190613dea565b50565b5b80821115613e03576000816000905550600101613deb565b5090565b6000613e1a613e15846150a9565b615084565b90508083825260208201905082856020860282011115613e3957600080fd5b60005b85811015613e695781613e4f8882613f1d565b845260208401935060208301925050600181019050613e3c565b5050509392505050565b6000613e86613e81846150d5565b615084565b90508083825260208201905082856020860282011115613ea557600080fd5b60005b85811015613ed55781613ebb8882614039565b845260208401935060208301925050600181019050613ea8565b5050509392505050565b6000613ef2613eed84615101565b615084565b905082815260208101848484011115613f0a57600080fd5b613f15848285615370565b509392505050565b600081359050613f2c81615d99565b92915050565b60008083601f840112613f4457600080fd5b8235905067ffffffffffffffff811115613f5d57600080fd5b602083019150836020820283011115613f7557600080fd5b9250929050565b600082601f830112613f8d57600080fd5b8135613f9d848260208601613e07565b91505092915050565b600082601f830112613fb757600080fd5b8135613fc7848260208601613e73565b91505092915050565b600081359050613fdf81615db0565b92915050565b600081359050613ff481615dc7565b92915050565b60008151905061400981615dc7565b92915050565b600082601f83011261402057600080fd5b8135614030848260208601613edf565b91505092915050565b60008135905061404881615dde565b92915050565b60006020828403121561406057600080fd5b600061406e84828501613f1d565b91505092915050565b6000806040838503121561408a57600080fd5b600061409885828601613f1d565b92505060206140a985828601613f1d565b9150509250929050565b600080600080600060a086880312156140cb57600080fd5b60006140d988828901613f1d565b95505060206140ea88828901613f1d565b945050604086013567ffffffffffffffff81111561410757600080fd5b61411388828901613fa6565b935050606086013567ffffffffffffffff81111561413057600080fd5b61413c88828901613fa6565b925050608086013567ffffffffffffffff81111561415957600080fd5b6141658882890161400f565b9150509295509295909350565b600080600080600060a0868803121561418a57600080fd5b600061419888828901613f1d565b95505060206141a988828901613f1d565b94505060406141ba88828901614039565b93505060606141cb88828901614039565b925050608086013567ffffffffffffffff8111156141e857600080fd5b6141f48882890161400f565b9150509295509295909350565b6000806040838503121561421457600080fd5b600061422285828601613f1d565b925050602061423385828601613fd0565b9150509250929050565b6000806040838503121561425057600080fd5b600061425e85828601613f1d565b925050602061426f85828601614039565b9150509250929050565b6000806020838503121561428c57600080fd5b600083013567ffffffffffffffff8111156142a657600080fd5b6142b285828601613f32565b92509250509250929050565b6000602082840312156142d057600080fd5b600082013567ffffffffffffffff8111156142ea57600080fd5b6142f684828501613f7c565b91505092915050565b6000806040838503121561431257600080fd5b600083013567ffffffffffffffff81111561432c57600080fd5b61433885828601613f7c565b925050602083013567ffffffffffffffff81111561435557600080fd5b61436185828601613fa6565b9150509250929050565b60006020828403121561437d57600080fd5b600061438b84828501613fe5565b91505092915050565b6000602082840312156143a657600080fd5b60006143b484828501613ffa565b91505092915050565b6000602082840312156143cf57600080fd5b60006143dd84828501614039565b91505092915050565b600080604083850312156143f957600080fd5b600061440785828601614039565b925050602061441885828601614039565b9150509250929050565b60008060006060848603121561443757600080fd5b600061444586828701614039565b935050602061445686828701614039565b925050604061446786828701614039565b9150509250925092565b600061447d8383614a19565b60208301905092915050565b614492816152d8565b82525050565b60006144a382615157565b6144ad8185615185565b93506144b883615132565b8060005b838110156144e95781516144d08882614471565b97506144db83615178565b9250506001810190506144bc565b5085935050505092915050565b6144ff816152ea565b82525050565b600061451082615162565b61451a8185615196565b935061452a81856020860161537f565b61453381615597565b840191505092915050565b6145478161534c565b82525050565b6145568161535e565b82525050565b60006145678261516d565b61457181856151a7565b935061458181856020860161537f565b61458a81615597565b840191505092915050565b60006145a08261516d565b6145aa81856151b8565b93506145ba81856020860161537f565b80840191505092915050565b600081546145d3816153dc565b6145dd81866151b8565b945060018216600081146145f857600181146146095761463c565b60ff1983168652818601935061463c565b61461285615142565b60005b8381101561463457815481890152600182019150602081019050614615565b838801955050505b50505092915050565b60006146526034836151a7565b915061465d826155b5565b604082019050919050565b60006146756028836151a7565b915061468082615604565b604082019050919050565b60006146986017836151a7565b91506146a382615653565b602082019050919050565b60006146bb602b836151a7565b91506146c68261567c565b604082019050919050565b60006146de6026836151a7565b91506146e9826156cb565b604082019050919050565b60006147016024836151a7565b915061470c8261571a565b604082019050919050565b60006147246029836151a7565b915061472f82615769565b604082019050919050565b60006147476022836151a7565b9150614752826157b8565b604082019050919050565b600061476a6025836151a7565b915061477582615807565b604082019050919050565b600061478d6032836151a7565b915061479882615856565b604082019050919050565b60006147b06023836151a7565b91506147bb826158a5565b604082019050919050565b60006147d3602a836151a7565b91506147de826158f4565b604082019050919050565b60006147f66005836151b8565b915061480182615943565b600582019050919050565b60006148196020836151a7565b91506148248261596c565b602082019050919050565b600061483c6040836151a7565b915061484782615995565b604082019050919050565b600061485f6021836151a7565b915061486a826159e4565b604082019050919050565b6000614882602f836151a7565b915061488d82615a33565b604082019050919050565b60006148a56014836151a7565b91506148b082615a82565b602082019050919050565b60006148c8601c836151a7565b91506148d382615aab565b602082019050919050565b60006148eb601e836151a7565b91506148f682615ad4565b602082019050919050565b600061490e6029836151a7565b915061491982615afd565b604082019050919050565b60006149316029836151a7565b915061493c82615b4c565b604082019050919050565b60006149546028836151a7565b915061495f82615b9b565b604082019050919050565b60006149776021836151a7565b915061498282615bea565b604082019050919050565b600061499a601f836151a7565b91506149a582615c39565b602082019050919050565b60006149bd6028836151a7565b91506149c882615c62565b604082019050919050565b60006149e06015836151a7565b91506149eb82615cb1565b602082019050919050565b6000614a036018836151a7565b9150614a0e82615cda565b602082019050919050565b614a2281615342565b82525050565b614a3181615342565b82525050565b6000614a438284614595565b915081905092915050565b6000614a5a82856145c6565b9150614a668284614595565b9150614a71826147e9565b91508190509392505050565b6000602082019050614a926000830184614489565b92915050565b600060a082019050614aad6000830188614489565b614aba6020830187614489565b8181036040830152614acc8186614498565b90508181036060830152614ae08185614498565b90508181036080830152614af48184614505565b90509695505050505050565b600060a082019050614b156000830188614489565b614b226020830187614489565b614b2f6040830186614a28565b614b3c6060830185614a28565b8181036080830152614b4e8184614505565b90509695505050505050565b6000604082019050614b6f6000830185614489565b614b7c602083018461453e565b9392505050565b6000604082019050614b986000830185614489565b614ba5602083018461454d565b9392505050565b6000604082019050614bc16000830185614489565b8181036020830152614bd3818461455c565b90509392505050565b6000604082019050614bf16000830185614489565b614bfe6020830184614a28565b9392505050565b6000608082019050614c1a6000830187614489565b614c276020830186614a28565b614c346040830185614a28565b614c416060830184614a28565b95945050505050565b60006020820190508181036000830152614c648184614498565b905092915050565b60006040820190508181036000830152614c868185614498565b90508181036020830152614c9a8184614498565b90509392505050565b6000602082019050614cb860008301846144f6565b92915050565b60006020820190508181036000830152614cd8818461455c565b905092915050565b60006020820190508181036000830152614cf981614645565b9050919050565b60006020820190508181036000830152614d1981614668565b9050919050565b60006020820190508181036000830152614d398161468b565b9050919050565b60006020820190508181036000830152614d59816146ae565b9050919050565b60006020820190508181036000830152614d79816146d1565b9050919050565b60006020820190508181036000830152614d99816146f4565b9050919050565b60006020820190508181036000830152614db981614717565b9050919050565b60006020820190508181036000830152614dd98161473a565b9050919050565b60006020820190508181036000830152614df98161475d565b9050919050565b60006020820190508181036000830152614e1981614780565b9050919050565b60006020820190508181036000830152614e39816147a3565b9050919050565b60006020820190508181036000830152614e59816147c6565b9050919050565b60006020820190508181036000830152614e798161480c565b9050919050565b60006020820190508181036000830152614e998161482f565b9050919050565b60006020820190508181036000830152614eb981614852565b9050919050565b60006020820190508181036000830152614ed981614875565b9050919050565b60006020820190508181036000830152614ef981614898565b9050919050565b60006020820190508181036000830152614f19816148bb565b9050919050565b60006020820190508181036000830152614f39816148de565b9050919050565b60006020820190508181036000830152614f5981614901565b9050919050565b60006020820190508181036000830152614f7981614924565b9050919050565b60006020820190508181036000830152614f9981614947565b9050919050565b60006020820190508181036000830152614fb98161496a565b9050919050565b60006020820190508181036000830152614fd98161498d565b9050919050565b60006020820190508181036000830152614ff9816149b0565b9050919050565b60006020820190508181036000830152615019816149d3565b9050919050565b60006020820190508181036000830152615039816149f6565b9050919050565b60006020820190506150556000830184614a28565b92915050565b60006040820190506150706000830185614a28565b61507d6020830184614a28565b9392505050565b600061508e61509f565b905061509a828261540e565b919050565b6000604051905090565b600067ffffffffffffffff8211156150c4576150c3615546565b5b602082029050602081019050919050565b600067ffffffffffffffff8211156150f0576150ef615546565b5b602082029050602081019050919050565b600067ffffffffffffffff82111561511c5761511b615546565b5b61512582615597565b9050602081019050919050565b6000819050602082019050919050565b60008190508160005260206000209050919050565b600081519050919050565b600081519050919050565b600081519050919050565b6000602082019050919050565b600082825260208201905092915050565b600082825260208201905092915050565b600082825260208201905092915050565b600081905092915050565b60006151ce82615342565b91506151d983615342565b9250827fffffffffffffffffffffffffffffffffffffffffffffffffffffffffffffffff0382111561520e5761520d6154b9565b5b828201905092915050565b600061522482615342565b915061522f83615342565b92508261523f5761523e6154e8565b5b828204905092915050565b600061525582615342565b915061526083615342565b9250817fffffffffffffffffffffffffffffffffffffffffffffffffffffffffffffffff0483118215151615615299576152986154b9565b5b828202905092915050565b60006152af82615342565b91506152ba83615342565b9250828210156152cd576152cc6154b9565b5b828203905092915050565b60006152e382615322565b9050919050565b60008115159050919050565b60007fffffffff0000000000000000000000000000000000000000000000000000000082169050919050565b600073ffffffffffffffffffffffffffffffffffffffff82169050919050565b6000819050919050565b600061535782615342565b9050919050565b600061536982615342565b9050919050565b82818337600083830152505050565b60005b8381101561539d578082015181840152602081019050615382565b838111156153ac576000848401525b50505050565b60006153bd82615342565b915060008214156153d1576153d06154b9565b5b600182039050919050565b600060028204905060018216806153f457607f821691505b6020821081141561540857615407615517565b5b50919050565b61541782615597565b810181811067ffffffffffffffff8211171561543657615435615546565b5b80604052505050565b600061544a82615342565b91507fffffffffffffffffffffffffffffffffffffffffffffffffffffffffffffffff82141561547d5761547c6154b9565b5b600182019050919050565b600061549382615342565b915061549e83615342565b9250826154ae576154ad6154e8565b5b828206905092915050565b7f4e487b7100000000000000000000000000000000000000000000000000000000600052601160045260246000fd5b7f4e487b7100000000000000000000000000000000000000000000000000000000600052601260045260246000fd5b7f4e487b7100000000000000000000000000000000000000000000000000000000600052602260045260246000fd5b7f4e487b7100000000000000000000000000000000000000000000000000000000600052604160045260246000fd5b600060033d11156155945760046000803e6155916000516155a8565b90505b90565b6000601f19601f8301169050919050565b60008160e01c9050919050565b7f455243313135353a207472616e7366657220746f206e6f6e204552433131353560008201527f526563656976657220696d706c656d656e746572000000000000000000000000602082015250565b7f455243313135353a204552433131353552656365697665722072656a6563746560008201527f6420746f6b656e73000000000000000000000000000000000000000000000000602082015250565b7f50726573616c6520686173206e6f742073746172746564000000000000000000600082015250565b7f455243313135353a2062616c616e636520717565727920666f7220746865207a60008201527f65726f2061646472657373000000000000000000000000000000000000000000602082015250565b7f4f776e61626c653a206e6577206f776e657220697320746865207a65726f206160008201527f6464726573730000000000000000000000000000000000000000000000000000602082015250565b7f455243313135353a206275726e20616d6f756e7420657863656564732062616c60008201527f616e636500000000000000000000000000000000000000000000000000000000602082015250565b7f455243313135353a2063616c6c6572206973206e6f74206f776e6572206e6f7260008201527f20617070726f7665640000000000000000000000000000000000000000000000602082015250565b7f596f7520646f206e6f74206f776e2074686520466f7572496e4f6e6520546f6b60008201527f656e000000000000000000000000000000000000000000000000000000000000602082015250565b7f455243313135353a207472616e7366657220746f20746865207a65726f20616460008201527f6472657373000000000000000000000000000000000000000000000000000000602082015250565b7f455243313135353a207472616e736665722063616c6c6572206973206e6f742060008201527f6f776e6572206e6f7220617070726f7665640000000000000000000000000000602082015250565b7f455243313135353a206275726e2066726f6d20746865207a65726f206164647260008201527f6573730000000000000000000000000000000000000000000000000000000000602082015250565b7f455243313135353a20696e73756666696369656e742062616c616e636520666f60008201527f72207472616e7366657200000000000000000000000000000000000000000000602082015250565b7f2e6a736f6e000000000000000000000000000000000000000000000000000000600082015250565b7f4f776e61626c653a2063616c6c6572206973206e6f7420746865206f776e6572600082015250565b7f50726573616c65206973206163746976652062757420796f752772652061726560008201527f206e6f742061205649462c207761697420666f72207075626c69632073616c65602082015250565b7f4e6f7420656e6f7567682062756e646c657320666f722067697665617761797360008201527f2e00000000000000000000000000000000000000000000000000000000000000602082015250565b7f43616e6e6f74207075726368617365206d6f7265207468616e2074776f20627560008201527f6e646c65207065722073656e6465720000000000000000000000000000000000602082015250565b7f4e6f20657468657220696e20636f6e7472616374000000000000000000000000600082015250565b7f416c6c2042756e646c65732068617665206265656e206d696e74656400000000600082015250565b7f596f7520646f206e6f74206f776e2074686520467275697420546f6b656e0000600082015250565b7f455243313135353a2073657474696e6720617070726f76616c2073746174757360008201527f20666f722073656c660000000000000000000000000000000000000000000000602082015250565b7f455243313135353a206163636f756e747320616e6420696473206c656e67746860008201527f206d69736d617463680000000000000000000000000000000000000000000000602082015250565b7f455243313135353a2069647320616e6420616d6f756e7473206c656e6774682060008201527f6d69736d61746368000000000000000000000000000000000000000000000000602082015250565b7f455243313135353a206d696e7420746f20746865207a65726f2061646472657360008201527f7300000000000000000000000000000000000000000000000000000000000000602082015250565b7f5265656e7472616e637947756172643a207265656e7472616e742063616c6c00600082015250565b7f4e6f7420656e6f756768206574686572207761732073656e7420746f2074726160008201527f6e73616374696f6e000000000000000000000000000000000000000000000000602082015250565b7f5175616472616e74206f7574206f662072616e67650000000000000000000000600082015250565b7f596f7520646f206e6f74206f776e206120526563656970740000000000000000600082015250565b600060443d1015615d1357615d96565b615d1b61509f565b60043d036004823e80513d602482011167ffffffffffffffff82111715615d43575050615d96565b808201805167ffffffffffffffff811115615d615750505050615d96565b80602083010160043d038501811115615d7e575050505050615d96565b615d8d8260200185018661540e565b82955050505050505b90565b615da2816152d8565b8114615dad57600080fd5b50565b615db9816152ea565b8114615dc457600080fd5b50565b615dd0816152f6565b8114615ddb57600080fd5b50565b615de781615342565b8114615df257600080fd5b5056fea264697066735822122093a7688f14fc36ffdda013d1961cc1c46a181c266538f9e462cdef4a9cc33d0d64736f6c63430008040033",
  "linkReferences": {},
  "deployedLinkReferences": {}
}