{
  "_format": "hh-sol-artifact-1",
  "contractName": "DemoOptimized",
  "sourceName": "contracts/DemoOptimized.sol",
  "abi": [
    {
      "inputs": [
        {
          "internalType": "string",
          "name": "uri1",
          "type": "string"
        },
        {
          "internalType": "string",
          "name": "uriPreview1",
          "type": "string"
        }
      ],
      "stateMutability": "nonpayable",
      "type": "constructor"
    },
    {
      "anonymous": false,
      "inputs": [
        {
          "indexed": true,
          "internalType": "address",
          "name": "account",
          "type": "address"
        },
        {
          "indexed": true,
          "internalType": "address",
          "name": "operator",
          "type": "address"
        },
        {
          "indexed": false,
          "internalType": "bool",
          "name": "approved",
          "type": "bool"
        }
      ],
      "name": "ApprovalForAll",
      "type": "event"
    },
    {
      "anonymous": false,
      "inputs": [
        {
          "indexed": false,
          "internalType": "address",
          "name": "_sender",
          "type": "address"
        },
        {
          "indexed": false,
          "internalType": "uint256",
          "name": "_supply",
          "type": "uint256"
        }
      ],
      "name": "IncreaseReceiptSupply",
      "type": "event"
    },
    {
      "anonymous": false,
      "inputs": [
        {
          "indexed": true,
          "internalType": "address",
          "name": "previousOwner",
          "type": "address"
        },
        {
          "indexed": true,
          "internalType": "address",
          "name": "newOwner",
          "type": "address"
        }
      ],
      "name": "OwnershipTransferred",
      "type": "event"
    },
    {
      "anonymous": false,
      "inputs": [
        {
          "indexed": true,
          "internalType": "address",
          "name": "operator",
          "type": "address"
        },
        {
          "indexed": true,
          "internalType": "address",
          "name": "from",
          "type": "address"
        },
        {
          "indexed": true,
          "internalType": "address",
          "name": "to",
          "type": "address"
        },
        {
          "indexed": false,
          "internalType": "uint256[]",
          "name": "ids",
          "type": "uint256[]"
        },
        {
          "indexed": false,
          "internalType": "uint256[]",
          "name": "values",
          "type": "uint256[]"
        }
      ],
      "name": "TransferBatch",
      "type": "event"
    },
    {
      "anonymous": false,
      "inputs": [
        {
          "indexed": true,
          "internalType": "address",
          "name": "operator",
          "type": "address"
        },
        {
          "indexed": true,
          "internalType": "address",
          "name": "from",
          "type": "address"
        },
        {
          "indexed": true,
          "internalType": "address",
          "name": "to",
          "type": "address"
        },
        {
          "indexed": false,
          "internalType": "uint256",
          "name": "id",
          "type": "uint256"
        },
        {
          "indexed": false,
          "internalType": "uint256",
          "name": "value",
          "type": "uint256"
        }
      ],
      "name": "TransferSingle",
      "type": "event"
    },
    {
      "anonymous": false,
      "inputs": [
        {
          "indexed": false,
          "internalType": "string",
          "name": "value",
          "type": "string"
        },
        {
          "indexed": true,
          "internalType": "uint256",
          "name": "id",
          "type": "uint256"
        }
      ],
      "name": "URI",
      "type": "event"
    },
    {
      "inputs": [
        {
          "internalType": "address",
          "name": "account",
          "type": "address"
        },
        {
          "internalType": "uint256",
          "name": "id",
          "type": "uint256"
        }
      ],
      "name": "balanceOf",
      "outputs": [
        {
          "internalType": "uint256",
          "name": "",
          "type": "uint256"
        }
      ],
      "stateMutability": "view",
      "type": "function"
    },
    {
      "inputs": [
        {
          "internalType": "address[]",
          "name": "accounts",
          "type": "address[]"
        },
        {
          "internalType": "uint256[]",
          "name": "ids",
          "type": "uint256[]"
        }
      ],
      "name": "balanceOfBatch",
      "outputs": [
        {
          "internalType": "uint256[]",
          "name": "",
          "type": "uint256[]"
        }
      ],
      "stateMutability": "view",
      "type": "function"
    },
    {
      "inputs": [],
      "name": "bundleTotalSupply",
      "outputs": [
        {
          "internalType": "uint256",
          "name": "",
          "type": "uint256"
        }
      ],
      "stateMutability": "view",
      "type": "function"
    },
    {
      "inputs": [],
      "name": "getBalance",
      "outputs": [
        {
          "internalType": "uint256",
          "name": "",
          "type": "uint256"
        }
      ],
      "stateMutability": "view",
      "type": "function"
    },
    {
      "inputs": [],
      "name": "getMemberCount",
      "outputs": [
        {
          "internalType": "string",
          "name": "",
          "type": "string"
        }
      ],
      "stateMutability": "view",
      "type": "function"
    },
    {
      "inputs": [],
      "name": "getPricePerBundle",
      "outputs": [
        {
          "internalType": "uint256",
          "name": "",
          "type": "uint256"
        }
      ],
      "stateMutability": "view",
      "type": "function"
    },
    {
      "inputs": [
        {
          "internalType": "address",
          "name": "account",
          "type": "address"
        },
        {
          "internalType": "address",
          "name": "operator",
          "type": "address"
        }
      ],
      "name": "isApprovedForAll",
      "outputs": [
        {
          "internalType": "bool",
          "name": "",
          "type": "bool"
        }
      ],
      "stateMutability": "view",
      "type": "function"
    },
    {
      "inputs": [],
      "name": "mintBundle",
      "outputs": [],
      "stateMutability": "payable",
      "type": "function"
    },
    {
      "inputs": [],
      "name": "mintGiveaway",
      "outputs": [],
      "stateMutability": "nonpayable",
      "type": "function"
    },
    {
      "inputs": [
        {
          "internalType": "address[]",
          "name": "_giveaways",
          "type": "address[]"
        }
      ],
      "name": "mintPass",
      "outputs": [],
      "stateMutability": "nonpayable",
      "type": "function"
    },
    {
      "inputs": [],
      "name": "owner",
      "outputs": [
        {
          "internalType": "address",
          "name": "",
          "type": "address"
        }
      ],
      "stateMutability": "view",
      "type": "function"
    },
    {
      "inputs": [],
      "name": "receiptTotalSupply",
      "outputs": [
        {
          "internalType": "uint256",
          "name": "",
          "type": "uint256"
        }
      ],
      "stateMutability": "view",
      "type": "function"
    },
    {
      "inputs": [
        {
          "internalType": "address[]",
          "name": "_vifs",
          "type": "address[]"
        }
      ],
      "name": "removeVIFMembers",
      "outputs": [],
      "stateMutability": "nonpayable",
      "type": "function"
    },
    {
      "inputs": [],
      "name": "renounceOwnership",
      "outputs": [],
      "stateMutability": "nonpayable",
      "type": "function"
    },
    {
      "inputs": [],
      "name": "resetPresaleMembers",
      "outputs": [],
      "stateMutability": "nonpayable",
      "type": "function"
    },
    {
      "inputs": [
        {
          "internalType": "address",
          "name": "from",
          "type": "address"
        },
        {
          "internalType": "address",
          "name": "to",
          "type": "address"
        },
        {
          "internalType": "uint256[]",
          "name": "ids",
          "type": "uint256[]"
        },
        {
          "internalType": "uint256[]",
          "name": "amounts",
          "type": "uint256[]"
        },
        {
          "internalType": "bytes",
          "name": "data",
          "type": "bytes"
        }
      ],
      "name": "safeBatchTransferFrom",
      "outputs": [],
      "stateMutability": "nonpayable",
      "type": "function"
    },
    {
      "inputs": [
        {
          "internalType": "address",
          "name": "from",
          "type": "address"
        },
        {
          "internalType": "address",
          "name": "to",
          "type": "address"
        },
        {
          "internalType": "uint256",
          "name": "id",
          "type": "uint256"
        },
        {
          "internalType": "uint256",
          "name": "amount",
          "type": "uint256"
        },
        {
          "internalType": "bytes",
          "name": "data",
          "type": "bytes"
        }
      ],
      "name": "safeTransferFrom",
      "outputs": [],
      "stateMutability": "nonpayable",
      "type": "function"
    },
    {
      "inputs": [
        {
          "internalType": "address",
          "name": "operator",
          "type": "address"
        },
        {
          "internalType": "bool",
          "name": "approved",
          "type": "bool"
        }
      ],
      "name": "setApprovalForAll",
      "outputs": [],
      "stateMutability": "nonpayable",
      "type": "function"
    },
    {
      "inputs": [
        {
          "internalType": "address[]",
          "name": "_fruities",
          "type": "address[]"
        }
      ],
      "name": "setFruityMember",
      "outputs": [],
      "stateMutability": "nonpayable",
      "type": "function"
    },
    {
      "inputs": [
        {
          "internalType": "uint256",
          "name": "_gwei",
          "type": "uint256"
        }
      ],
      "name": "setPricePerBundle",
      "outputs": [],
      "stateMutability": "nonpayable",
      "type": "function"
    },
    {
      "inputs": [
        {
          "internalType": "uint256",
          "name": "_vifSaleStartTime",
          "type": "uint256"
        },
        {
          "internalType": "uint256",
          "name": "_presaleStartTime",
          "type": "uint256"
        },
        {
          "internalType": "uint256",
          "name": "_publicSaleStartTime",
          "type": "uint256"
        }
      ],
      "name": "setSaleTime",
      "outputs": [],
      "stateMutability": "nonpayable",
      "type": "function"
    },
    {
      "inputs": [
        {
          "internalType": "uint256",
          "name": "_presaleStartTime",
          "type": "uint256"
        },
        {
          "internalType": "uint256",
          "name": "_publicSaleStartTime",
          "type": "uint256"
        }
      ],
      "name": "setSeason",
      "outputs": [],
      "stateMutability": "nonpayable",
      "type": "function"
    },
    {
      "inputs": [
        {
          "internalType": "address[]",
          "name": "_vifs",
          "type": "address[]"
        }
      ],
      "name": "setVIFMember",
      "outputs": [],
      "stateMutability": "nonpayable",
      "type": "function"
    },
    {
      "inputs": [
        {
          "internalType": "bytes4",
          "name": "interfaceId",
          "type": "bytes4"
        }
      ],
      "name": "supportsInterface",
      "outputs": [
        {
          "internalType": "bool",
          "name": "",
          "type": "bool"
        }
      ],
      "stateMutability": "view",
      "type": "function"
    },
    {
      "inputs": [
        {
          "internalType": "address",
          "name": "newOwner",
          "type": "address"
        }
      ],
      "name": "transferOwnership",
      "outputs": [],
      "stateMutability": "nonpayable",
      "type": "function"
    },
    {
      "inputs": [
        {
          "internalType": "uint256",
          "name": "_tokenId",
          "type": "uint256"
        }
      ],
      "name": "uri",
      "outputs": [
        {
          "internalType": "string",
          "name": "",
          "type": "string"
        }
      ],
      "stateMutability": "view",
      "type": "function"
    },
    {
      "inputs": [],
      "name": "withdrawBalance",
      "outputs": [],
      "stateMutability": "nonpayable",
      "type": "function"
    }
  ],
  "bytecode": "0x60806040526001600455620186a16005556103e8600655610bb860075567016345785d8a00006008553480156200003557600080fd5b5060405162005b0a38038062005b0a83398181016040528101906200005b9190620002cb565b6200007b6200006f620000a560201b60201c565b620000ad60201b60201c565b60016003819055506200009582826200017360201b60201c565b60006012819055505050620004ae565b600033905090565b6000600260009054906101000a900473ffffffffffffffffffffffffffffffffffffffff16905081600260006101000a81548173ffffffffffffffffffffffffffffffffffffffff021916908373ffffffffffffffffffffffffffffffffffffffff1602179055508173ffffffffffffffffffffffffffffffffffffffff168173ffffffffffffffffffffffffffffffffffffffff167f8be0079c531659141344cd1fd0a4f28419497f9722a3daafe3b4186f6b6457e060405160405180910390a35050565b81600c90805190602001906200018b929190620001a9565b5080600d9080519060200190620001a4929190620001a9565b505050565b828054620001b790620003d3565b90600052602060002090601f016020900481019282620001db576000855562000227565b82601f10620001f657805160ff191683800117855562000227565b8280016001018555821562000227579182015b828111156200022657825182559160200191906001019062000209565b5b5090506200023691906200023a565b5090565b5b80821115620002555760008160009055506001016200023b565b5090565b6000620002706200026a8462000367565b6200033e565b9050828152602081018484840111156200028957600080fd5b620002968482856200039d565b509392505050565b600082601f830112620002b057600080fd5b8151620002c284826020860162000259565b91505092915050565b60008060408385031215620002df57600080fd5b600083015167ffffffffffffffff811115620002fa57600080fd5b62000308858286016200029e565b925050602083015167ffffffffffffffff8111156200032657600080fd5b62000334858286016200029e565b9150509250929050565b60006200034a6200035d565b905062000358828262000409565b919050565b6000604051905090565b600067ffffffffffffffff8211156200038557620003846200046e565b5b62000390826200049d565b9050602081019050919050565b60005b83811015620003bd578082015181840152602081019050620003a0565b83811115620003cd576000848401525b50505050565b60006002820490506001821680620003ec57607f821691505b602082108114156200040357620004026200043f565b5b50919050565b62000414826200049d565b810181811067ffffffffffffffff821117156200043657620004356200046e565b5b80604052505050565b7f4e487b7100000000000000000000000000000000000000000000000000000000600052602260045260246000fd5b7f4e487b7100000000000000000000000000000000000000000000000000000000600052604160045260246000fd5b6000601f19601f8301169050919050565b61564c80620004be6000396000f3fe60806040526004361061019b5760003560e01c80637138e4b3116100ec5780639ff048fc1161008a578063e985e9c511610064578063e985e9c514610556578063f1c04d0814610593578063f242432a146105aa578063f2fde38b146105d35761019b565b80639ff048fc146104ed578063a22cb46514610504578063d40999c81461052d5761019b565b80638623511b116100c65780638623511b146104435780638da5cb5b1461046e578063997072f7146104995780639d56c2ea146104c45761019b565b80637138e4b3146103d8578063715018a6146104015780637b1b1bb0146104185761019b565b80632eb2c2d6116101595780634825b65e116101335780634825b65e146103305780634e1273f4146103595780635fd8c71014610396578063650f9e9b146103ad5761019b565b80632eb2c2d6146102d45780633efc5200146102fd578063410404b7146103265761019b565b8062fdd58e146101a057806301ffc9a7146101dd5780630e1c098d1461021a5780630e89341c1461024357806312065fe01461028057806323aac19a146102ab575b600080fd5b3480156101ac57600080fd5b506101c760048036038101906101c29190613971565b6105fc565b6040516101d491906147da565b60405180910390f35b3480156101e957600080fd5b5061020460048036038101906101ff9190613a9f565b6106c5565b604051610211919061445d565b60405180910390f35b34801561022657600080fd5b50610241600480360381019061023c91906139f2565b6107a7565b005b34801561024f57600080fd5b5061026a60048036038101906102659190613af1565b61096e565b6040516102779190614478565b60405180910390f35b34801561028c57600080fd5b50610295610a1b565b6040516102a291906147da565b60405180910390f35b3480156102b757600080fd5b506102d260048036038101906102cd91906139ad565b610a23565b005b3480156102e057600080fd5b506102fb60048036038101906102f691906137e7565b610b67565b005b34801561030957600080fd5b50610324600480360381019061031f9190613af1565b610c08565b005b61032e610c8e565b005b34801561033c57600080fd5b5061035760048036038101906103529190613b1a565b611215565b005b34801561036557600080fd5b50610380600480360381019061037b9190613a33565b61133d565b60405161038d9190614404565b60405180910390f35b3480156103a257600080fd5b506103ab6114ee565b005b3480156103b957600080fd5b506103c26115f6565b6040516103cf91906147da565b60405180910390f35b3480156103e457600080fd5b506103ff60048036038101906103fa9190613b56565b611600565b005b34801561040d57600080fd5b5061041661171a565b005b34801561042457600080fd5b5061042d6117a2565b60405161043a91906147da565b60405180910390f35b34801561044f57600080fd5b506104586117ac565b60405161046591906147da565b60405180910390f35b34801561047a57600080fd5b506104836117b6565b60405161049091906142fe565b60405180910390f35b3480156104a557600080fd5b506104ae6117e0565b6040516104bb9190614478565b60405180910390f35b3480156104d057600080fd5b506104eb60048036038101906104e691906139f2565b61189c565b005b3480156104f957600080fd5b506105026119d8565b005b34801561051057600080fd5b5061052b60048036038101906105269190613935565b611ac7565b005b34801561053957600080fd5b50610554600480360381019061054f91906139f2565b611add565b005b34801561056257600080fd5b5061057d600480360381019061057891906137ab565b611c19565b60405161058a919061445d565b60405180910390f35b34801561059f57600080fd5b506105a8611cad565b005b3480156105b657600080fd5b506105d160048036038101906105cc91906138a6565b611e06565b005b3480156105df57600080fd5b506105fa60048036038101906105f59190613782565b611ea7565b005b60008073ffffffffffffffffffffffffffffffffffffffff168373ffffffffffffffffffffffffffffffffffffffff16141561066d576040517f08c379a0000000000000000000000000000000000000000000000000000000008152600401610664906144da565b60405180910390fd5b60008083815260200190815260200160002060008473ffffffffffffffffffffffffffffffffffffffff1673ffffffffffffffffffffffffffffffffffffffff16815260200190815260200160002054905092915050565b60007fd9b67a26000000000000000000000000000000000000000000000000000000007bffffffffffffffffffffffffffffffffffffffffffffffffffffffff1916827bffffffffffffffffffffffffffffffffffffffffffffffffffffffff1916148061079057507f0e89341c000000000000000000000000000000000000000000000000000000007bffffffffffffffffffffffffffffffffffffffffffffffffffffffff1916827bffffffffffffffffffffffffffffffffffffffffffffffffffffffff1916145b806107a0575061079f82611f9f565b5b9050919050565b6107af612009565b73ffffffffffffffffffffffffffffffffffffffff166107cd6117b6565b73ffffffffffffffffffffffffffffffffffffffff1614610823576040517f08c379a000000000000000000000000000000000000000000000000000000000815260040161081a9061463a565b60405180910390fd5b60005b815181101561096a5760016010600084848151811061086e577f4e487b7100000000000000000000000000000000000000000000000000000000600052603260045260246000fd5b602002602001015173ffffffffffffffffffffffffffffffffffffffff1673ffffffffffffffffffffffffffffffffffffffff1681526020019081526020016000208190555060138282815181106108ef577f4e487b7100000000000000000000000000000000000000000000000000000000600052603260045260246000fd5b60200260200101519080600181540180825580915050600190039060005260206000200160009091909190916101000a81548173ffffffffffffffffffffffffffffffffffffffff021916908373ffffffffffffffffffffffffffffffffffffffff160217905550808061096290614b6d565b915050610826565b5050565b6060620186a08211156109ad57600c61098683612011565b604051602001610997929190614245565b6040516020818303038152906040529050610a16565b60008214156109e857600c6109c183612011565b6040516020016109d292919061420b565b6040516020818303038152906040529050610a16565b600c6109f383612011565b604051602001610a0492919061427f565b60405160208183030381529060405290505b919050565b600047905090565b610a2b612009565b73ffffffffffffffffffffffffffffffffffffffff16610a496117b6565b73ffffffffffffffffffffffffffffffffffffffff1614610a9f576040517f08c379a0000000000000000000000000000000000000000000000000000000008152600401610a969061463a565b60405180910390fd5b60005b82829050811015610b625760116000848484818110610aea577f4e487b7100000000000000000000000000000000000000000000000000000000600052603260045260246000fd5b9050602002016020810190610aff9190613782565b73ffffffffffffffffffffffffffffffffffffffff1673ffffffffffffffffffffffffffffffffffffffff1681526020019081526020016000206000815480929190610b4a90614b6d565b91905055508080610b5a90614b6d565b915050610aa2565b505050565b610b6f612009565b73ffffffffffffffffffffffffffffffffffffffff168573ffffffffffffffffffffffffffffffffffffffff161480610bb55750610bb485610baf612009565b611c19565b5b610bf4576040517f08c379a0000000000000000000000000000000000000000000000000000000008152600401610beb906145da565b60405180910390fd5b610c0185858585856121be565b5050505050565b610c10612009565b73ffffffffffffffffffffffffffffffffffffffff16610c2e6117b6565b73ffffffffffffffffffffffffffffffffffffffff1614610c84576040517f08c379a0000000000000000000000000000000000000000000000000000000008152600401610c7b9061463a565b60405180910390fd5b8060088190555050565b60026003541415610cd4576040517f08c379a0000000000000000000000000000000000000000000000000000000008152600401610ccb9061475a565b60405180910390fd5b60026003819055506009544211610d20576040517f08c379a0000000000000000000000000000000000000000000000000000000008152600401610d179061469a565b60405180910390fd5b600a54421015610e34576000600f60003373ffffffffffffffffffffffffffffffffffffffff1673ffffffffffffffffffffffffffffffffffffffff1681526020019081526020016000205411610dac576040517f08c379a0000000000000000000000000000000000000000000000000000000008152600401610da3906146fa565b60405180910390fd5b6001600e60003373ffffffffffffffffffffffffffffffffffffffff1673ffffffffffffffffffffffffffffffffffffffff168152602001908152602001600020541115610e2f576040517f08c379a0000000000000000000000000000000000000000000000000000000008152600401610e269061465a565b60405180910390fd5b611164565b600a5442118015610e465750600b5442105b15610fb4576000600f60003373ffffffffffffffffffffffffffffffffffffffff1673ffffffffffffffffffffffffffffffffffffffff16815260200190815260200160002054118015610eda57506002600e60003373ffffffffffffffffffffffffffffffffffffffff1673ffffffffffffffffffffffffffffffffffffffff1681526020019081526020016000205411155b80610f7057506000601060003373ffffffffffffffffffffffffffffffffffffffff1673ffffffffffffffffffffffffffffffffffffffff16815260200190815260200160002054118015610f6f57506001600e60003373ffffffffffffffffffffffffffffffffffffffff1673ffffffffffffffffffffffffffffffffffffffff1681526020019081526020016000205411155b5b610faf576040517f08c379a0000000000000000000000000000000000000000000000000000000008152600401610fa69061451a565b60405180910390fd5b611163565b6000600f60003373ffffffffffffffffffffffffffffffffffffffff1673ffffffffffffffffffffffffffffffffffffffff1681526020019081526020016000205411801561104357506002600e60003373ffffffffffffffffffffffffffffffffffffffff1673ffffffffffffffffffffffffffffffffffffffff1681526020019081526020016000205411155b806110d957506000601060003373ffffffffffffffffffffffffffffffffffffffff1673ffffffffffffffffffffffffffffffffffffffff168152602001908152602001600020541180156110d857506001600e60003373ffffffffffffffffffffffffffffffffffffffff1673ffffffffffffffffffffffffffffffffffffffff1681526020019081526020016000205411155b5b8061112357506001600e60003373ffffffffffffffffffffffffffffffffffffffff1673ffffffffffffffffffffffffffffffffffffffff16815260200190815260200160002054105b611162576040517f08c379a00000000000000000000000000000000000000000000000000000000081526004016111599061459a565b60405180910390fd5b5b5b67016345785d8a00003410156111af576040517f08c379a00000000000000000000000000000000000000000000000000000000081526004016111a69061479a565b60405180910390fd5b600060065410156111f5576040517f08c379a00000000000000000000000000000000000000000000000000000000081526004016111ec9061453a565b60405180910390fd5b60006111ff612009565b905061120a81612510565b506001600381905550565b61121d612009565b73ffffffffffffffffffffffffffffffffffffffff1661123b6117b6565b73ffffffffffffffffffffffffffffffffffffffff1614611291576040517f08c379a00000000000000000000000000000000000000000000000000000000081526004016112889061463a565b60405180910390fd5b600060065411156112d7576040517f08c379a00000000000000000000000000000000000000000000000000000000081526004016112ce906147ba565b60405180910390fd5b6103e8600681905550610bb86007546112f0919061495d565b6007819055506112fe611cad565b7fe3d47dee33b959cc59941f840525125123544e1f194b235f340f0c6147697ac333610bb86040516113319291906143db565b60405180910390a15050565b60608151835114611383576040517f08c379a000000000000000000000000000000000000000000000000000000000815260040161137a906146da565b60405180910390fd5b6000835167ffffffffffffffff8111156113c6577f4e487b7100000000000000000000000000000000000000000000000000000000600052604160045260246000fd5b6040519080825280602002602001820160405280156113f45781602001602082028036833780820191505090505b50905060005b84518110156114e35761148d85828151811061143f577f4e487b7100000000000000000000000000000000000000000000000000000000600052603260045260246000fd5b6020026020010151858381518110611480577f4e487b7100000000000000000000000000000000000000000000000000000000600052603260045260246000fd5b60200260200101516105fc565b8282815181106114c6577f4e487b7100000000000000000000000000000000000000000000000000000000600052603260045260246000fd5b602002602001018181525050806114dc90614b6d565b90506113fa565b508091505092915050565b6114f6612009565b73ffffffffffffffffffffffffffffffffffffffff166115146117b6565b73ffffffffffffffffffffffffffffffffffffffff161461156a576040517f08c379a00000000000000000000000000000000000000000000000000000000081526004016115619061463a565b60405180910390fd5b600047116115ad576040517f08c379a00000000000000000000000000000000000000000000000000000000081526004016115a49061467a565b60405180910390fd5b3373ffffffffffffffffffffffffffffffffffffffff166108fc479081150290604051600060405180830381858888f193505050501580156115f3573d6000803e3d6000fd5b50565b6000600754905090565b611608612009565b73ffffffffffffffffffffffffffffffffffffffff166116266117b6565b73ffffffffffffffffffffffffffffffffffffffff161461167c576040517f08c379a00000000000000000000000000000000000000000000000000000000081526004016116739061463a565b60405180910390fd5b8282116116be576040517f08c379a00000000000000000000000000000000000000000000000000000000081526004016116b5906145fa565b60405180910390fd5b818111611700576040517f08c379a00000000000000000000000000000000000000000000000000000000081526004016116f79061457a565b60405180910390fd5b8260098190555081600a8190555080600b81905550505050565b611722612009565b73ffffffffffffffffffffffffffffffffffffffff166117406117b6565b73ffffffffffffffffffffffffffffffffffffffff1614611796576040517f08c379a000000000000000000000000000000000000000000000000000000000815260040161178d9061463a565b60405180910390fd5b6117a06000612a1a565b565b6000600854905090565b6000600654905090565b6000600260009054906101000a900473ffffffffffffffffffffffffffffffffffffffff16905090565b60606117ea612009565b73ffffffffffffffffffffffffffffffffffffffff166118086117b6565b73ffffffffffffffffffffffffffffffffffffffff161461185e576040517f08c379a00000000000000000000000000000000000000000000000000000000081526004016118559061463a565b60405180910390fd5b611869601254612011565b611877601380549050612011565b6040516020016118889291906142b9565b604051602081830303815290604052905090565b6118a4612009565b73ffffffffffffffffffffffffffffffffffffffff166118c26117b6565b73ffffffffffffffffffffffffffffffffffffffff1614611918576040517f08c379a000000000000000000000000000000000000000000000000000000000815260040161190f9061463a565b60405180910390fd5b60005b81518110156119d4576001600f6000848481518110611963577f4e487b7100000000000000000000000000000000000000000000000000000000600052603260045260246000fd5b602002602001015173ffffffffffffffffffffffffffffffffffffffff1673ffffffffffffffffffffffffffffffffffffffff16815260200190815260200160002081905550601260008154809291906119bc90614b6d565b919050555080806119cc90614b6d565b91505061191b565b5050565b6000601160003373ffffffffffffffffffffffffffffffffffffffff1673ffffffffffffffffffffffffffffffffffffffff1681526020019081526020016000205411611a5a576040517f08c379a0000000000000000000000000000000000000000000000000000000008152600401611a519061477a565b60405180910390fd5b6000611a64612009565b9050601160008273ffffffffffffffffffffffffffffffffffffffff1673ffffffffffffffffffffffffffffffffffffffff1681526020019081526020016000206000815480929190611ab690614ae0565b9190505550611ac481612510565b50565b611ad9611ad2612009565b8383612ae0565b5050565b611ae5612009565b73ffffffffffffffffffffffffffffffffffffffff16611b036117b6565b73ffffffffffffffffffffffffffffffffffffffff1614611b59576040517f08c379a0000000000000000000000000000000000000000000000000000000008152600401611b509061463a565b60405180910390fd5b60005b8151811015611c15576000600f6000848481518110611ba4577f4e487b7100000000000000000000000000000000000000000000000000000000600052603260045260246000fd5b602002602001015173ffffffffffffffffffffffffffffffffffffffff1673ffffffffffffffffffffffffffffffffffffffff1681526020019081526020016000208190555060126000815480929190611bfd90614ae0565b91905055508080611c0d90614b6d565b915050611b5c565b5050565b6000600160008473ffffffffffffffffffffffffffffffffffffffff1673ffffffffffffffffffffffffffffffffffffffff16815260200190815260200160002060008373ffffffffffffffffffffffffffffffffffffffff1673ffffffffffffffffffffffffffffffffffffffff16815260200190815260200160002060009054906101000a900460ff16905092915050565b611cb5612009565b73ffffffffffffffffffffffffffffffffffffffff16611cd36117b6565b73ffffffffffffffffffffffffffffffffffffffff1614611d29576040517f08c379a0000000000000000000000000000000000000000000000000000000008152600401611d209061463a565b60405180910390fd5b60005b601380549050811015611df55760006010600060138481548110611d79577f4e487b7100000000000000000000000000000000000000000000000000000000600052603260045260246000fd5b9060005260206000200160009054906101000a900473ffffffffffffffffffffffffffffffffffffffff1673ffffffffffffffffffffffffffffffffffffffff1673ffffffffffffffffffffffffffffffffffffffff168152602001908152602001600020819055508080611ded90614b6d565b915050611d2c565b5060136000611e0491906134fd565b565b611e0e612009565b73ffffffffffffffffffffffffffffffffffffffff168573ffffffffffffffffffffffffffffffffffffffff161480611e545750611e5385611e4e612009565b611c19565b5b611e93576040517f08c379a0000000000000000000000000000000000000000000000000000000008152600401611e8a9061455a565b60405180910390fd5b611ea08585858585612c4d565b5050505050565b611eaf612009565b73ffffffffffffffffffffffffffffffffffffffff16611ecd6117b6565b73ffffffffffffffffffffffffffffffffffffffff1614611f23576040517f08c379a0000000000000000000000000000000000000000000000000000000008152600401611f1a9061463a565b60405180910390fd5b600073ffffffffffffffffffffffffffffffffffffffff168173ffffffffffffffffffffffffffffffffffffffff161415611f93576040517f08c379a0000000000000000000000000000000000000000000000000000000008152600401611f8a906144fa565b60405180910390fd5b611f9c81612a1a565b50565b60007f01ffc9a7000000000000000000000000000000000000000000000000000000007bffffffffffffffffffffffffffffffffffffffffffffffffffffffff1916827bffffffffffffffffffffffffffffffffffffffffffffffffffffffff1916149050919050565b600033905090565b60606000821415612059576040518060400160405280600181526020017f300000000000000000000000000000000000000000000000000000000000000081525090506121b9565b600082905060005b6000821461208b57808061207490614b6d565b915050600a8261208491906149b3565b9150612061565b60008167ffffffffffffffff8111156120cd577f4e487b7100000000000000000000000000000000000000000000000000000000600052604160045260246000fd5b6040519080825280601f01601f1916602001820160405280156120ff5781602001600182028036833780820191505090505b5090505b600085146121b25760018261211891906149e4565b9150600a856121279190614bb6565b6030612133919061495d565b60f81b81838151811061216f577f4e487b7100000000000000000000000000000000000000000000000000000000600052603260045260246000fd5b60200101907effffffffffffffffffffffffffffffffffffffffffffffffffffffffffffff1916908160001a905350600a856121ab91906149b3565b9450612103565b8093505050505b919050565b8151835114612202576040517f08c379a00000000000000000000000000000000000000000000000000000000081526004016121f99061471a565b60405180910390fd5b600073ffffffffffffffffffffffffffffffffffffffff168473ffffffffffffffffffffffffffffffffffffffff161415612272576040517f08c379a0000000000000000000000000000000000000000000000000000000008152600401612269906145ba565b60405180910390fd5b600061227c612009565b905060005b845181101561247b5760008582815181106122c5577f4e487b7100000000000000000000000000000000000000000000000000000000600052603260045260246000fd5b60200260200101519050600085838151811061230a577f4e487b7100000000000000000000000000000000000000000000000000000000600052603260045260246000fd5b60200260200101519050600080600084815260200190815260200160002060008b73ffffffffffffffffffffffffffffffffffffffff1673ffffffffffffffffffffffffffffffffffffffff168152602001908152602001600020549050818110156123ab576040517f08c379a00000000000000000000000000000000000000000000000000000000081526004016123a29061461a565b60405180910390fd5b81810360008085815260200190815260200160002060008c73ffffffffffffffffffffffffffffffffffffffff1673ffffffffffffffffffffffffffffffffffffffff168152602001908152602001600020819055508160008085815260200190815260200160002060008b73ffffffffffffffffffffffffffffffffffffffff1673ffffffffffffffffffffffffffffffffffffffff1681526020019081526020016000206000828254612460919061495d565b925050819055505050508061247490614b6d565b9050612281565b508473ffffffffffffffffffffffffffffffffffffffff168673ffffffffffffffffffffffffffffffffffffffff168273ffffffffffffffffffffffffffffffffffffffff167f4a39dc06d4c0dbc64b70af90fd698a233a518aa5d07e595d983b8c0526c8f7fb87876040516124f2929190614426565b60405180910390a4612508818787878787612eb1565b505050505050565b6000600667ffffffffffffffff811115612553577f4e487b7100000000000000000000000000000000000000000000000000000000600052604160045260246000fd5b6040519080825280602002602001820160405280156125815781602001602082028036833780820191505090505b5090506000600667ffffffffffffffff8111156125c7577f4e487b7100000000000000000000000000000000000000000000000000000000600052604160045260246000fd5b6040519080825280602002602001820160405280156125f55781602001602082028036833780820191505090505b509050600182600081518110612634577f4e487b7100000000000000000000000000000000000000000000000000000000600052603260045260246000fd5b60200260200101818152505060018260018151811061267c577f4e487b7100000000000000000000000000000000000000000000000000000000600052603260045260246000fd5b6020026020010181815250506001826002815181106126c4577f4e487b7100000000000000000000000000000000000000000000000000000000600052603260045260246000fd5b60200260200101818152505060018260038151811061270c577f4e487b7100000000000000000000000000000000000000000000000000000000600052603260045260246000fd5b602002602001018181525050600182600481518110612754577f4e487b7100000000000000000000000000000000000000000000000000000000600052603260045260246000fd5b60200260200101818152505060038260058151811061279c577f4e487b7100000000000000000000000000000000000000000000000000000000600052603260045260246000fd5b602002602001018181525050600454816000815181106127e5577f4e487b7100000000000000000000000000000000000000000000000000000000600052603260045260246000fd5b6020026020010181815250506004600081548092919061280490614b6d565b919050555060045481600181518110612846577f4e487b7100000000000000000000000000000000000000000000000000000000600052603260045260246000fd5b6020026020010181815250506004600081548092919061286590614b6d565b9190505550600454816002815181106128a7577f4e487b7100000000000000000000000000000000000000000000000000000000600052603260045260246000fd5b602002602001018181525050600460008154809291906128c690614b6d565b919050555060045481600381518110612908577f4e487b7100000000000000000000000000000000000000000000000000000000600052603260045260246000fd5b6020026020010181815250506004600081548092919061292790614b6d565b919050555060055481600481518110612969577f4e487b7100000000000000000000000000000000000000000000000000000000600052603260045260246000fd5b6020026020010181815250506005600081548092919061298890614b6d565b9190505550600e60003373ffffffffffffffffffffffffffffffffffffffff1673ffffffffffffffffffffffffffffffffffffffff16815260200190815260200160002060008154809291906129dd90614b6d565b91905055506129fd33828460405180602001604052806000815250613098565b60066000815480929190612a1090614ae0565b9190505550505050565b6000600260009054906101000a900473ffffffffffffffffffffffffffffffffffffffff16905081600260006101000a81548173ffffffffffffffffffffffffffffffffffffffff021916908373ffffffffffffffffffffffffffffffffffffffff1602179055508173ffffffffffffffffffffffffffffffffffffffff168173ffffffffffffffffffffffffffffffffffffffff167f8be0079c531659141344cd1fd0a4f28419497f9722a3daafe3b4186f6b6457e060405160405180910390a35050565b8173ffffffffffffffffffffffffffffffffffffffff168373ffffffffffffffffffffffffffffffffffffffff161415612b4f576040517f08c379a0000000000000000000000000000000000000000000000000000000008152600401612b46906146ba565b60405180910390fd5b80600160008573ffffffffffffffffffffffffffffffffffffffff1673ffffffffffffffffffffffffffffffffffffffff16815260200190815260200160002060008473ffffffffffffffffffffffffffffffffffffffff1673ffffffffffffffffffffffffffffffffffffffff16815260200190815260200160002060006101000a81548160ff0219169083151502179055508173ffffffffffffffffffffffffffffffffffffffff168373ffffffffffffffffffffffffffffffffffffffff167f17307eab39ab6107e8899845ad3d59bd9653f200f220920489ca2b5937696c3183604051612c40919061445d565b60405180910390a3505050565b600073ffffffffffffffffffffffffffffffffffffffff168473ffffffffffffffffffffffffffffffffffffffff161415612cbd576040517f08c379a0000000000000000000000000000000000000000000000000000000008152600401612cb4906145ba565b60405180910390fd5b6000612cc7612009565b9050600080600086815260200190815260200160002060008873ffffffffffffffffffffffffffffffffffffffff1673ffffffffffffffffffffffffffffffffffffffff16815260200190815260200160002054905083811015612d60576040517f08c379a0000000000000000000000000000000000000000000000000000000008152600401612d579061461a565b60405180910390fd5b83810360008087815260200190815260200160002060008973ffffffffffffffffffffffffffffffffffffffff1673ffffffffffffffffffffffffffffffffffffffff168152602001908152602001600020819055508360008087815260200190815260200160002060008873ffffffffffffffffffffffffffffffffffffffff1673ffffffffffffffffffffffffffffffffffffffff1681526020019081526020016000206000828254612e15919061495d565b925050819055508573ffffffffffffffffffffffffffffffffffffffff168773ffffffffffffffffffffffffffffffffffffffff168373ffffffffffffffffffffffffffffffffffffffff167fc3d58168c5ae7397731d063d5bbf3d657854427343f4c083240f7aacaa2d0f628888604051612e929291906147f5565b60405180910390a4612ea88288888888886132f3565b50505050505050565b612ed08473ffffffffffffffffffffffffffffffffffffffff166134da565b15613090578373ffffffffffffffffffffffffffffffffffffffff1663bc197c8187878686866040518663ffffffff1660e01b8152600401612f16959493929190614319565b602060405180830381600087803b158015612f3057600080fd5b505af1925050508015612f6157506040513d601f19601f82011682018060405250810190612f5e9190613ac8565b60015b61300757612f6d614ca3565b806308c379a01415612fca5750612f82615524565b80612f8d5750612fcc565b806040517f08c379a0000000000000000000000000000000000000000000000000000000008152600401612fc19190614478565b60405180910390fd5b505b6040517f08c379a0000000000000000000000000000000000000000000000000000000008152600401612ffe9061449a565b60405180910390fd5b63bc197c8160e01b7bffffffffffffffffffffffffffffffffffffffffffffffffffffffff1916817bffffffffffffffffffffffffffffffffffffffffffffffffffffffff19161461308e576040517f08c379a0000000000000000000000000000000000000000000000000000000008152600401613085906144ba565b60405180910390fd5b505b505050505050565b600073ffffffffffffffffffffffffffffffffffffffff168473ffffffffffffffffffffffffffffffffffffffff161415613108576040517f08c379a00000000000000000000000000000000000000000000000000000000081526004016130ff9061473a565b60405180910390fd5b815183511461314c576040517f08c379a00000000000000000000000000000000000000000000000000000000081526004016131439061471a565b60405180910390fd5b6000613156612009565b905060005b845181101561325d5783818151811061319d577f4e487b7100000000000000000000000000000000000000000000000000000000600052603260045260246000fd5b60200260200101516000808784815181106131e1577f4e487b7100000000000000000000000000000000000000000000000000000000600052603260045260246000fd5b6020026020010151815260200190815260200160002060008873ffffffffffffffffffffffffffffffffffffffff1673ffffffffffffffffffffffffffffffffffffffff1681526020019081526020016000206000828254613243919061495d565b92505081905550808061325590614b6d565b91505061315b565b508473ffffffffffffffffffffffffffffffffffffffff16600073ffffffffffffffffffffffffffffffffffffffff168273ffffffffffffffffffffffffffffffffffffffff167f4a39dc06d4c0dbc64b70af90fd698a233a518aa5d07e595d983b8c0526c8f7fb87876040516132d5929190614426565b60405180910390a46132ec81600087878787612eb1565b5050505050565b6133128473ffffffffffffffffffffffffffffffffffffffff166134da565b156134d2578373ffffffffffffffffffffffffffffffffffffffff1663f23a6e6187878686866040518663ffffffff1660e01b8152600401613358959493929190614381565b602060405180830381600087803b15801561337257600080fd5b505af19250505080156133a357506040513d601f19601f820116820180604052508101906133a09190613ac8565b60015b613449576133af614ca3565b806308c379a0141561340c57506133c4615524565b806133cf575061340e565b806040517f08c379a00000000000000000000000000000000000000000000000000000000081526004016134039190614478565b60405180910390fd5b505b6040517f08c379a00000000000000000000000000000000000000000000000000000000081526004016134409061449a565b60405180910390fd5b63f23a6e6160e01b7bffffffffffffffffffffffffffffffffffffffffffffffffffffffff1916817bffffffffffffffffffffffffffffffffffffffffffffffffffffffff1916146134d0576040517f08c379a00000000000000000000000000000000000000000000000000000000081526004016134c7906144ba565b60405180910390fd5b505b505050505050565b6000808273ffffffffffffffffffffffffffffffffffffffff163b119050919050565b508054600082559060005260206000209081019061351b919061351e565b50565b5b8082111561353757600081600090555060010161351f565b5090565b600061354e61354984614843565b61481e565b9050808382526020820190508285602086028201111561356d57600080fd5b60005b8581101561359d57816135838882613651565b845260208401935060208301925050600181019050613570565b5050509392505050565b60006135ba6135b58461486f565b61481e565b905080838252602082019050828560208602820111156135d957600080fd5b60005b8581101561360957816135ef888261376d565b8452602084019350602083019250506001810190506135dc565b5050509392505050565b60006136266136218461489b565b61481e565b90508281526020810184848401111561363e57600080fd5b613649848285614a9e565b509392505050565b600081359050613660816155ba565b92915050565b60008083601f84011261367857600080fd5b8235905067ffffffffffffffff81111561369157600080fd5b6020830191508360208202830111156136a957600080fd5b9250929050565b600082601f8301126136c157600080fd5b81356136d184826020860161353b565b91505092915050565b600082601f8301126136eb57600080fd5b81356136fb8482602086016135a7565b91505092915050565b600081359050613713816155d1565b92915050565b600081359050613728816155e8565b92915050565b60008151905061373d816155e8565b92915050565b600082601f83011261375457600080fd5b8135613764848260208601613613565b91505092915050565b60008135905061377c816155ff565b92915050565b60006020828403121561379457600080fd5b60006137a284828501613651565b91505092915050565b600080604083850312156137be57600080fd5b60006137cc85828601613651565b92505060206137dd85828601613651565b9150509250929050565b600080600080600060a086880312156137ff57600080fd5b600061380d88828901613651565b955050602061381e88828901613651565b945050604086013567ffffffffffffffff81111561383b57600080fd5b613847888289016136da565b935050606086013567ffffffffffffffff81111561386457600080fd5b613870888289016136da565b925050608086013567ffffffffffffffff81111561388d57600080fd5b61389988828901613743565b9150509295509295909350565b600080600080600060a086880312156138be57600080fd5b60006138cc88828901613651565b95505060206138dd88828901613651565b94505060406138ee8882890161376d565b93505060606138ff8882890161376d565b925050608086013567ffffffffffffffff81111561391c57600080fd5b61392888828901613743565b9150509295509295909350565b6000806040838503121561394857600080fd5b600061395685828601613651565b925050602061396785828601613704565b9150509250929050565b6000806040838503121561398457600080fd5b600061399285828601613651565b92505060206139a38582860161376d565b9150509250929050565b600080602083850312156139c057600080fd5b600083013567ffffffffffffffff8111156139da57600080fd5b6139e685828601613666565b92509250509250929050565b600060208284031215613a0457600080fd5b600082013567ffffffffffffffff811115613a1e57600080fd5b613a2a848285016136b0565b91505092915050565b60008060408385031215613a4657600080fd5b600083013567ffffffffffffffff811115613a6057600080fd5b613a6c858286016136b0565b925050602083013567ffffffffffffffff811115613a8957600080fd5b613a95858286016136da565b9150509250929050565b600060208284031215613ab157600080fd5b6000613abf84828501613719565b91505092915050565b600060208284031215613ada57600080fd5b6000613ae88482850161372e565b91505092915050565b600060208284031215613b0357600080fd5b6000613b118482850161376d565b91505092915050565b60008060408385031215613b2d57600080fd5b6000613b3b8582860161376d565b9250506020613b4c8582860161376d565b9150509250929050565b600080600060608486031215613b6b57600080fd5b6000613b798682870161376d565b9350506020613b8a8682870161376d565b9250506040613b9b8682870161376d565b9150509250925092565b6000613bb183836141ed565b60208301905092915050565b613bc681614a18565b82525050565b6000613bd7826148f1565b613be1818561491f565b9350613bec836148cc565b8060005b83811015613c1d578151613c048882613ba5565b9750613c0f83614912565b925050600181019050613bf0565b5085935050505092915050565b613c3381614a2a565b82525050565b6000613c44826148fc565b613c4e8185614930565b9350613c5e818560208601614aad565b613c6781614cc5565b840191505092915050565b613c7b81614a8c565b82525050565b6000613c8c82614907565b613c968185614941565b9350613ca6818560208601614aad565b613caf81614cc5565b840191505092915050565b6000613cc582614907565b613ccf8185614952565b9350613cdf818560208601614aad565b80840191505092915050565b60008154613cf881614b0a565b613d028186614952565b94506001821660008114613d1d5760018114613d2e57613d61565b60ff19831686528186019350613d61565b613d37856148dc565b60005b83811015613d5957815481890152600182019150602081019050613d3a565b838801955050505b50505092915050565b6000613d77603483614941565b9150613d8282614ce3565b604082019050919050565b6000613d9a602883614941565b9150613da582614d32565b604082019050919050565b6000613dbd601383614952565b9150613dc882614d81565b601382019050919050565b6000613de0602b83614941565b9150613deb82614daa565b604082019050919050565b6000613e03602683614941565b9150613e0e82614df9565b604082019050919050565b6000613e26602e83614941565b9150613e3182614e48565b604082019050919050565b6000613e49601d83614941565b9150613e5482614e97565b602082019050919050565b6000613e6c602983614941565b9150613e7782614ec0565b604082019050919050565b6000613e8f602a83614941565b9150613e9a82614f0f565b604082019050919050565b6000613eb2601d83614952565b9150613ebd82614f5e565b601d82019050919050565b6000613ed5603283614941565b9150613ee082614f87565b604082019050919050565b6000613ef8602583614941565b9150613f0382614fd6565b604082019050919050565b6000613f1b603283614941565b9150613f2682615025565b604082019050919050565b6000613f3e602383614941565b9150613f4982615074565b604082019050919050565b6000613f61602a83614941565b9150613f6c826150c3565b604082019050919050565b6000613f84600583614952565b9150613f8f82615112565b600582019050919050565b6000613fa7602083614941565b9150613fb28261513b565b602082019050919050565b6000613fca603283614941565b9150613fd582615164565b604082019050919050565b6000613fed600a83614952565b9150613ff8826151b3565b600a82019050919050565b6000614010600d83614952565b915061401b826151dc565b600d82019050919050565b6000614033601483614941565b915061403e82615205565b602082019050919050565b6000614056600783614952565b91506140618261522e565b600782019050919050565b6000614079601883614941565b915061408482615257565b602082019050919050565b600061409c602983614941565b91506140a782615280565b604082019050919050565b60006140bf602983614941565b91506140ca826152cf565b604082019050919050565b60006140e2603d83614941565b91506140ed8261531e565b604082019050919050565b6000614105602883614941565b91506141108261536d565b604082019050919050565b6000614128602183614941565b9150614133826153bc565b604082019050919050565b600061414b601f83614941565b91506141568261540b565b602082019050919050565b600061416e601b83614941565b915061417982615434565b602082019050919050565b6000614191603883614941565b915061419c8261545d565b604082019050919050565b60006141b4600883614952565b91506141bf826154ac565b600882019050919050565b60006141d7602c83614941565b91506141e2826154d5565b604082019050919050565b6141f681614a82565b82525050565b61420581614a82565b82525050565b60006142178285613ceb565b915061422282613fe0565b915061422e8284613cba565b915061423982613f77565b91508190509392505050565b60006142518285613ceb565b915061425c82614049565b91506142688284613cba565b915061427382613f77565b91508190509392505050565b600061428b8285613ceb565b9150614296826141a7565b91506142a28284613cba565b91506142ad82613f77565b91508190509392505050565b60006142c482614003565b91506142d08285613cba565b91506142db82613ea5565b91506142e78284613cba565b91506142f282613db0565b91508190509392505050565b60006020820190506143136000830184613bbd565b92915050565b600060a08201905061432e6000830188613bbd565b61433b6020830187613bbd565b818103604083015261434d8186613bcc565b905081810360608301526143618185613bcc565b905081810360808301526143758184613c39565b90509695505050505050565b600060a0820190506143966000830188613bbd565b6143a36020830187613bbd565b6143b060408301866141fc565b6143bd60608301856141fc565b81810360808301526143cf8184613c39565b90509695505050505050565b60006040820190506143f06000830185613bbd565b6143fd6020830184613c72565b9392505050565b6000602082019050818103600083015261441e8184613bcc565b905092915050565b600060408201905081810360008301526144408185613bcc565b905081810360208301526144548184613bcc565b90509392505050565b60006020820190506144726000830184613c2a565b92915050565b600060208201905081810360008301526144928184613c81565b905092915050565b600060208201905081810360008301526144b381613d6a565b9050919050565b600060208201905081810360008301526144d381613d8d565b9050919050565b600060208201905081810360008301526144f381613dd3565b9050919050565b6000602082019050818103600083015261451381613df6565b9050919050565b6000602082019050818103600083015261453381613e19565b9050919050565b6000602082019050818103600083015261455381613e3c565b9050919050565b6000602082019050818103600083015261457381613e5f565b9050919050565b6000602082019050818103600083015261459381613e82565b9050919050565b600060208201905081810360008301526145b381613ec8565b9050919050565b600060208201905081810360008301526145d381613eeb565b9050919050565b600060208201905081810360008301526145f381613f0e565b9050919050565b6000602082019050818103600083015261461381613f31565b9050919050565b6000602082019050818103600083015261463381613f54565b9050919050565b6000602082019050818103600083015261465381613f9a565b9050919050565b6000602082019050818103600083015261467381613fbd565b9050919050565b6000602082019050818103600083015261469381614026565b9050919050565b600060208201905081810360008301526146b38161406c565b9050919050565b600060208201905081810360008301526146d38161408f565b9050919050565b600060208201905081810360008301526146f3816140b2565b9050919050565b60006020820190508181036000830152614713816140d5565b9050919050565b60006020820190508181036000830152614733816140f8565b9050919050565b600060208201905081810360008301526147538161411b565b9050919050565b600060208201905081810360008301526147738161413e565b9050919050565b6000602082019050818103600083015261479381614161565b9050919050565b600060208201905081810360008301526147b381614184565b9050919050565b600060208201905081810360008301526147d3816141ca565b9050919050565b60006020820190506147ef60008301846141fc565b92915050565b600060408201905061480a60008301856141fc565b61481760208301846141fc565b9392505050565b6000614828614839565b90506148348282614b3c565b919050565b6000604051905090565b600067ffffffffffffffff82111561485e5761485d614c74565b5b602082029050602081019050919050565b600067ffffffffffffffff82111561488a57614889614c74565b5b602082029050602081019050919050565b600067ffffffffffffffff8211156148b6576148b5614c74565b5b6148bf82614cc5565b9050602081019050919050565b6000819050602082019050919050565b60008190508160005260206000209050919050565b600081519050919050565b600081519050919050565b600081519050919050565b6000602082019050919050565b600082825260208201905092915050565b600082825260208201905092915050565b600082825260208201905092915050565b600081905092915050565b600061496882614a82565b915061497383614a82565b9250827fffffffffffffffffffffffffffffffffffffffffffffffffffffffffffffffff038211156149a8576149a7614be7565b5b828201905092915050565b60006149be82614a82565b91506149c983614a82565b9250826149d9576149d8614c16565b5b828204905092915050565b60006149ef82614a82565b91506149fa83614a82565b925082821015614a0d57614a0c614be7565b5b828203905092915050565b6000614a2382614a62565b9050919050565b60008115159050919050565b60007fffffffff0000000000000000000000000000000000000000000000000000000082169050919050565b600073ffffffffffffffffffffffffffffffffffffffff82169050919050565b6000819050919050565b6000614a9782614a82565b9050919050565b82818337600083830152505050565b60005b83811015614acb578082015181840152602081019050614ab0565b83811115614ada576000848401525b50505050565b6000614aeb82614a82565b91506000821415614aff57614afe614be7565b5b600182039050919050565b60006002820490506001821680614b2257607f821691505b60208210811415614b3657614b35614c45565b5b50919050565b614b4582614cc5565b810181811067ffffffffffffffff82111715614b6457614b63614c74565b5b80604052505050565b6000614b7882614a82565b91507fffffffffffffffffffffffffffffffffffffffffffffffffffffffffffffffff821415614bab57614baa614be7565b5b600182019050919050565b6000614bc182614a82565b9150614bcc83614a82565b925082614bdc57614bdb614c16565b5b828206905092915050565b7f4e487b7100000000000000000000000000000000000000000000000000000000600052601160045260246000fd5b7f4e487b7100000000000000000000000000000000000000000000000000000000600052601260045260246000fd5b7f4e487b7100000000000000000000000000000000000000000000000000000000600052602260045260246000fd5b7f4e487b7100000000000000000000000000000000000000000000000000000000600052604160045260246000fd5b600060033d1115614cc25760046000803e614cbf600051614cd6565b90505b90565b6000601f19601f8301169050919050565b60008160e01c9050919050565b7f455243313135353a207472616e7366657220746f206e6f6e204552433131353560008201527f526563656976657220696d706c656d656e746572000000000000000000000000602082015250565b7f455243313135353a204552433131353552656365697665722072656a6563746560008201527f6420746f6b656e73000000000000000000000000000000000000000000000000602082015250565b7f2050726573616c65204d656d6265722873292e00000000000000000000000000600082015250565b7f455243313135353a2062616c616e636520717565727920666f7220746865207a60008201527f65726f2061646472657373000000000000000000000000000000000000000000602082015250565b7f4f776e61626c653a206e6577206f776e657220697320746865207a65726f206160008201527f6464726573730000000000000000000000000000000000000000000000000000602082015250565b7f43616e206f6e6c79206d696e74206f6e65206672756974206261736b6574206460008201527f7572696e672070726573616c652e000000000000000000000000000000000000602082015250565b7f416c6c2042756e646c65732068617665206265656e206d696e7465642e000000600082015250565b7f455243313135353a2063616c6c6572206973206e6f74206f776e6572206e6f7260008201527f20617070726f7665640000000000000000000000000000000000000000000000602082015250565b7f5075626c69632073616c65206d757374206265206c61746572207468616e207460008201527f68652070726573616c6500000000000000000000000000000000000000000000602082015250565b7f20564946204d656d6265722873292e2054686572652069732f61726520000000600082015250565b7f43616e206f6e6c79206d696e74206f6e65206672756974206261736b6574206460008201527f7572696e67207075626c69632073616c652e0000000000000000000000000000602082015250565b7f455243313135353a207472616e7366657220746f20746865207a65726f20616460008201527f6472657373000000000000000000000000000000000000000000000000000000602082015250565b7f455243313135353a207472616e736665722063616c6c6572206973206e6f742060008201527f6f776e6572206e6f7220617070726f7665640000000000000000000000000000602082015250565b7f50726573616c65204d757374206265206c61746572207468616e20566966205360008201527f616c650000000000000000000000000000000000000000000000000000000000602082015250565b7f455243313135353a20696e73756666696369656e742062616c616e636520666f60008201527f72207472616e7366657200000000000000000000000000000000000000000000602082015250565b7f2e6a736f6e000000000000000000000000000000000000000000000000000000600082015250565b7f4f776e61626c653a2063616c6c6572206973206e6f7420746865206f776e6572600082015250565b7f596f752063616e206f6e6c79206d696e74206f6e65206672756974206261736b60008201527f657420647572696e67205649462073616c650000000000000000000000000000602082015250565b7f2f72656365697074732f00000000000000000000000000000000000000000000600082015250565b7f54686572652069732f6172652000000000000000000000000000000000000000600082015250565b7f4e6f20657468657220696e20636f6e7472616374000000000000000000000000600082015250565b7f2f34696e31732f00000000000000000000000000000000000000000000000000600082015250565b7f5649462073616c6520686173206e6f7420737461727465640000000000000000600082015250565b7f455243313135353a2073657474696e6720617070726f76616c2073746174757360008201527f20666f722073656c660000000000000000000000000000000000000000000000602082015250565b7f455243313135353a206163636f756e747320616e6420696473206c656e67746860008201527f206d69736d617463680000000000000000000000000000000000000000000000602082015250565b7f5649462073616c65206973206163746976652062757420796f7527726520617260008201527f65206e6f742061205649462c207761697420666f722070726573616c65000000602082015250565b7f455243313135353a2069647320616e6420616d6f756e7473206c656e6774682060008201527f6d69736d61746368000000000000000000000000000000000000000000000000602082015250565b7f455243313135353a206d696e7420746f20746865207a65726f2061646472657360008201527f7300000000000000000000000000000000000000000000000000000000000000602082015250565b7f5265656e7472616e637947756172643a207265656e7472616e742063616c6c00600082015250565b7f596f7520646f206e6f74206861766520612066726565206d696e740000000000600082015250565b7f4e6f7420656e6f756768206574686572207761732073656e7420746f2070757260008201527f636861736520796f7572206672756974206261736b65742e0000000000000000602082015250565b7f2f6672756974732f000000000000000000000000000000000000000000000000600082015250565b7f416c6c2062756e646c65732068617665206e6f74206265656e20676976656e2060008201527f61776179206f7220736f6c640000000000000000000000000000000000000000602082015250565b600060443d1015615534576155b7565b61553c614839565b60043d036004823e80513d602482011167ffffffffffffffff821117156155645750506155b7565b808201805167ffffffffffffffff81111561558257505050506155b7565b80602083010160043d03850181111561559f5750505050506155b7565b6155ae82602001850186614b3c565b82955050505050505b90565b6155c381614a18565b81146155ce57600080fd5b50565b6155da81614a2a565b81146155e557600080fd5b50565b6155f181614a36565b81146155fc57600080fd5b50565b61560881614a82565b811461561357600080fd5b5056fea26469706673582212205b3bf7cab3d3e820d2084faebca441bfddfc412af61aa7605fc029a33f18d80c64736f6c63430008040033",
  "linkReferences": {},
  "deployedLinkReferences": {}
}