{
  "_format": "hh-sol-artifact-1",
  "contractName": "DemoOptimized",
  "sourceName": "contracts/DemoOptimized.sol",
  "abi": [
    {
      "inputs": [
        {
          "internalType": "string",
          "name": "uri1",
          "type": "string"
        },
        {
          "internalType": "string",
          "name": "uriPreview1",
          "type": "string"
        }
      ],
      "stateMutability": "nonpayable",
      "type": "constructor"
    },
    {
      "anonymous": false,
      "inputs": [
        {
          "indexed": true,
          "internalType": "address",
          "name": "account",
          "type": "address"
        },
        {
          "indexed": true,
          "internalType": "address",
          "name": "operator",
          "type": "address"
        },
        {
          "indexed": false,
          "internalType": "bool",
          "name": "approved",
          "type": "bool"
        }
      ],
      "name": "ApprovalForAll",
      "type": "event"
    },
    {
      "anonymous": false,
      "inputs": [
        {
          "indexed": false,
          "internalType": "address",
          "name": "_sender",
          "type": "address"
        },
        {
          "indexed": false,
          "internalType": "uint256",
          "name": "_fourInOneToken",
          "type": "uint256"
        },
        {
          "indexed": false,
          "internalType": "uint256",
          "name": "_fruitTokenId",
          "type": "uint256"
        },
        {
          "indexed": false,
          "internalType": "uint256",
          "name": "_quadrant",
          "type": "uint256"
        }
      ],
      "name": "ChangeFourInOne",
      "type": "event"
    },
    {
      "anonymous": false,
      "inputs": [
        {
          "indexed": false,
          "internalType": "address",
          "name": "_sender",
          "type": "address"
        },
        {
          "indexed": false,
          "internalType": "uint256",
          "name": "_supply",
          "type": "uint256"
        }
      ],
      "name": "IncreaseBundleSupply",
      "type": "event"
    },
    {
      "anonymous": false,
      "inputs": [
        {
          "indexed": false,
          "internalType": "address",
          "name": "_sender",
          "type": "address"
        },
        {
          "indexed": false,
          "internalType": "uint256",
          "name": "_supply",
          "type": "uint256"
        }
      ],
      "name": "IncreaseReceiptSupply",
      "type": "event"
    },
    {
      "anonymous": false,
      "inputs": [
        {
          "indexed": true,
          "internalType": "address",
          "name": "previousOwner",
          "type": "address"
        },
        {
          "indexed": true,
          "internalType": "address",
          "name": "newOwner",
          "type": "address"
        }
      ],
      "name": "OwnershipTransferred",
      "type": "event"
    },
    {
      "anonymous": false,
      "inputs": [
        {
          "indexed": false,
          "internalType": "address",
          "name": "_sender",
          "type": "address"
        },
        {
          "indexed": false,
          "internalType": "uint256",
          "name": "_gwei",
          "type": "uint256"
        }
      ],
      "name": "PricePerBundle",
      "type": "event"
    },
    {
      "anonymous": false,
      "inputs": [
        {
          "indexed": false,
          "internalType": "uint256",
          "name": "_presaleStartTime",
          "type": "uint256"
        },
        {
          "indexed": false,
          "internalType": "uint256",
          "name": "_saleStartTime",
          "type": "uint256"
        }
      ],
      "name": "SaleHasBeenSet",
      "type": "event"
    },
    {
      "anonymous": false,
      "inputs": [
        {
          "indexed": true,
          "internalType": "address",
          "name": "operator",
          "type": "address"
        },
        {
          "indexed": true,
          "internalType": "address",
          "name": "from",
          "type": "address"
        },
        {
          "indexed": true,
          "internalType": "address",
          "name": "to",
          "type": "address"
        },
        {
          "indexed": false,
          "internalType": "uint256[]",
          "name": "ids",
          "type": "uint256[]"
        },
        {
          "indexed": false,
          "internalType": "uint256[]",
          "name": "values",
          "type": "uint256[]"
        }
      ],
      "name": "TransferBatch",
      "type": "event"
    },
    {
      "anonymous": false,
      "inputs": [
        {
          "indexed": true,
          "internalType": "address",
          "name": "operator",
          "type": "address"
        },
        {
          "indexed": true,
          "internalType": "address",
          "name": "from",
          "type": "address"
        },
        {
          "indexed": true,
          "internalType": "address",
          "name": "to",
          "type": "address"
        },
        {
          "indexed": false,
          "internalType": "uint256",
          "name": "id",
          "type": "uint256"
        },
        {
          "indexed": false,
          "internalType": "uint256",
          "name": "value",
          "type": "uint256"
        }
      ],
      "name": "TransferSingle",
      "type": "event"
    },
    {
      "anonymous": false,
      "inputs": [
        {
          "indexed": false,
          "internalType": "string",
          "name": "value",
          "type": "string"
        },
        {
          "indexed": true,
          "internalType": "uint256",
          "name": "id",
          "type": "uint256"
        }
      ],
      "name": "URI",
      "type": "event"
    },
    {
      "inputs": [
        {
          "internalType": "address",
          "name": "account",
          "type": "address"
        },
        {
          "internalType": "uint256",
          "name": "id",
          "type": "uint256"
        }
      ],
      "name": "balanceOf",
      "outputs": [
        {
          "internalType": "uint256",
          "name": "",
          "type": "uint256"
        }
      ],
      "stateMutability": "view",
      "type": "function"
    },
    {
      "inputs": [
        {
          "internalType": "address[]",
          "name": "accounts",
          "type": "address[]"
        },
        {
          "internalType": "uint256[]",
          "name": "ids",
          "type": "uint256[]"
        }
      ],
      "name": "balanceOfBatch",
      "outputs": [
        {
          "internalType": "uint256[]",
          "name": "",
          "type": "uint256[]"
        }
      ],
      "stateMutability": "view",
      "type": "function"
    },
    {
      "inputs": [
        {
          "internalType": "uint256",
          "name": "_fruitTokenId",
          "type": "uint256"
        },
        {
          "internalType": "uint256",
          "name": "_fourInOneTokenId",
          "type": "uint256"
        },
        {
          "internalType": "uint256",
          "name": "_quadrant",
          "type": "uint256"
        }
      ],
      "name": "cuteeExchange",
      "outputs": [],
      "stateMutability": "nonpayable",
      "type": "function"
    },
    {
      "inputs": [],
      "name": "getBalance",
      "outputs": [
        {
          "internalType": "uint256",
          "name": "",
          "type": "uint256"
        }
      ],
      "stateMutability": "view",
      "type": "function"
    },
    {
      "inputs": [],
      "name": "getBundleSupply",
      "outputs": [
        {
          "internalType": "uint256",
          "name": "",
          "type": "uint256"
        }
      ],
      "stateMutability": "view",
      "type": "function"
    },
    {
      "inputs": [],
      "name": "getPricePerBundle",
      "outputs": [
        {
          "internalType": "uint256",
          "name": "",
          "type": "uint256"
        }
      ],
      "stateMutability": "view",
      "type": "function"
    },
    {
      "inputs": [],
      "name": "getReceiptSupply",
      "outputs": [
        {
          "internalType": "uint256",
          "name": "",
          "type": "uint256"
        }
      ],
      "stateMutability": "view",
      "type": "function"
    },
    {
      "inputs": [],
      "name": "getVIFCount",
      "outputs": [
        {
          "internalType": "string",
          "name": "",
          "type": "string"
        }
      ],
      "stateMutability": "view",
      "type": "function"
    },
    {
      "inputs": [
        {
          "internalType": "address",
          "name": "_address",
          "type": "address"
        }
      ],
      "name": "getVIFMember",
      "outputs": [
        {
          "internalType": "address",
          "name": "",
          "type": "address"
        },
        {
          "internalType": "string",
          "name": "",
          "type": "string"
        }
      ],
      "stateMutability": "view",
      "type": "function"
    },
    {
      "inputs": [
        {
          "internalType": "address[]",
          "name": "_to",
          "type": "address[]"
        }
      ],
      "name": "giveawayBundle",
      "outputs": [],
      "stateMutability": "nonpayable",
      "type": "function"
    },
    {
      "inputs": [
        {
          "internalType": "address",
          "name": "account",
          "type": "address"
        },
        {
          "internalType": "address",
          "name": "operator",
          "type": "address"
        }
      ],
      "name": "isApprovedForAll",
      "outputs": [
        {
          "internalType": "bool",
          "name": "",
          "type": "bool"
        }
      ],
      "stateMutability": "view",
      "type": "function"
    },
    {
      "inputs": [
        {
          "internalType": "uint256",
          "name": "_quantity",
          "type": "uint256"
        }
      ],
      "name": "mintBundle",
      "outputs": [],
      "stateMutability": "payable",
      "type": "function"
    },
    {
      "inputs": [],
      "name": "owner",
      "outputs": [
        {
          "internalType": "address",
          "name": "",
          "type": "address"
        }
      ],
      "stateMutability": "view",
      "type": "function"
    },
    {
      "inputs": [],
      "name": "renounceOwnership",
      "outputs": [],
      "stateMutability": "nonpayable",
      "type": "function"
    },
    {
      "inputs": [],
      "name": "resetVIF",
      "outputs": [],
      "stateMutability": "nonpayable",
      "type": "function"
    },
    {
      "inputs": [
        {
          "internalType": "address",
          "name": "from",
          "type": "address"
        },
        {
          "internalType": "address",
          "name": "to",
          "type": "address"
        },
        {
          "internalType": "uint256[]",
          "name": "ids",
          "type": "uint256[]"
        },
        {
          "internalType": "uint256[]",
          "name": "amounts",
          "type": "uint256[]"
        },
        {
          "internalType": "bytes",
          "name": "data",
          "type": "bytes"
        }
      ],
      "name": "safeBatchTransferFrom",
      "outputs": [],
      "stateMutability": "nonpayable",
      "type": "function"
    },
    {
      "inputs": [
        {
          "internalType": "address",
          "name": "from",
          "type": "address"
        },
        {
          "internalType": "address",
          "name": "to",
          "type": "address"
        },
        {
          "internalType": "uint256",
          "name": "id",
          "type": "uint256"
        },
        {
          "internalType": "uint256",
          "name": "amount",
          "type": "uint256"
        },
        {
          "internalType": "bytes",
          "name": "data",
          "type": "bytes"
        }
      ],
      "name": "safeTransferFrom",
      "outputs": [],
      "stateMutability": "nonpayable",
      "type": "function"
    },
    {
      "inputs": [
        {
          "internalType": "address",
          "name": "operator",
          "type": "address"
        },
        {
          "internalType": "bool",
          "name": "approved",
          "type": "bool"
        }
      ],
      "name": "setApprovalForAll",
      "outputs": [],
      "stateMutability": "nonpayable",
      "type": "function"
    },
    {
      "inputs": [],
      "name": "setPreSeason",
      "outputs": [],
      "stateMutability": "nonpayable",
      "type": "function"
    },
    {
      "inputs": [
        {
          "internalType": "uint256",
          "name": "_presaleStartTime",
          "type": "uint256"
        },
        {
          "internalType": "uint256",
          "name": "_timeBetweenSales",
          "type": "uint256"
        }
      ],
      "name": "setPresaleStartTime",
      "outputs": [],
      "stateMutability": "nonpayable",
      "type": "function"
    },
    {
      "inputs": [
        {
          "internalType": "uint256",
          "name": "_gwei",
          "type": "uint256"
        }
      ],
      "name": "setPricePerBundle",
      "outputs": [],
      "stateMutability": "nonpayable",
      "type": "function"
    },
    {
      "inputs": [
        {
          "internalType": "uint256",
          "name": "_fruitTokenIdLowerParam",
          "type": "uint256"
        },
        {
          "internalType": "uint256",
          "name": "_fourInOneTokenIdLowerParam",
          "type": "uint256"
        }
      ],
      "name": "setSeasonLowerParams",
      "outputs": [],
      "stateMutability": "nonpayable",
      "type": "function"
    },
    {
      "inputs": [
        {
          "internalType": "address[]",
          "name": "_vifs",
          "type": "address[]"
        }
      ],
      "name": "setVIFMember",
      "outputs": [],
      "stateMutability": "nonpayable",
      "type": "function"
    },
    {
      "inputs": [
        {
          "internalType": "bytes4",
          "name": "interfaceId",
          "type": "bytes4"
        }
      ],
      "name": "supportsInterface",
      "outputs": [
        {
          "internalType": "bool",
          "name": "",
          "type": "bool"
        }
      ],
      "stateMutability": "view",
      "type": "function"
    },
    {
      "inputs": [
        {
          "internalType": "address",
          "name": "newOwner",
          "type": "address"
        }
      ],
      "name": "transferOwnership",
      "outputs": [],
      "stateMutability": "nonpayable",
      "type": "function"
    },
    {
      "inputs": [
        {
          "internalType": "uint256",
          "name": "_tokenId",
          "type": "uint256"
        }
      ],
      "name": "uri",
      "outputs": [
        {
          "internalType": "string",
          "name": "",
          "type": "string"
        }
      ],
      "stateMutability": "view",
      "type": "function"
    },
    {
      "inputs": [],
      "name": "withdrawBalance",
      "outputs": [],
      "stateMutability": "nonpayable",
      "type": "function"
    }
  ],
  "bytecode": "0x60806040526001600455620186a16005556103e8600755610bb860085567016345785d8a00006009553480156200003557600080fd5b506040516200634f3803806200634f83398181016040528101906200005b9190620002f4565b6200007b6200006f620000ce60201b60201c565b620000d660201b60201c565b60016003819055506000600a819055506201869f600c81905550620186a1600b81905550620f423f600d819055506374e66bcc600e81905550620000c682826200019c60201b60201c565b5050620004d7565b600033905090565b6000600260009054906101000a900473ffffffffffffffffffffffffffffffffffffffff16905081600260006101000a81548173ffffffffffffffffffffffffffffffffffffffff021916908373ffffffffffffffffffffffffffffffffffffffff1602179055508173ffffffffffffffffffffffffffffffffffffffff168173ffffffffffffffffffffffffffffffffffffffff167f8be0079c531659141344cd1fd0a4f28419497f9722a3daafe3b4186f6b6457e060405160405180910390a35050565b8160109080519060200190620001b4929190620001d2565b508060119080519060200190620001cd929190620001d2565b505050565b828054620001e090620003fc565b90600052602060002090601f01602090048101928262000204576000855562000250565b82601f106200021f57805160ff191683800117855562000250565b8280016001018555821562000250579182015b828111156200024f57825182559160200191906001019062000232565b5b5090506200025f919062000263565b5090565b5b808211156200027e57600081600090555060010162000264565b5090565b600062000299620002938462000390565b62000367565b905082815260208101848484011115620002b257600080fd5b620002bf848285620003c6565b509392505050565b600082601f830112620002d957600080fd5b8151620002eb84826020860162000282565b91505092915050565b600080604083850312156200030857600080fd5b600083015167ffffffffffffffff8111156200032357600080fd5b6200033185828601620002c7565b925050602083015167ffffffffffffffff8111156200034f57600080fd5b6200035d85828601620002c7565b9150509250929050565b60006200037362000386565b905062000381828262000432565b919050565b6000604051905090565b600067ffffffffffffffff821115620003ae57620003ad62000497565b5b620003b982620004c6565b9050602081019050919050565b60005b83811015620003e6578082015181840152602081019050620003c9565b83811115620003f6576000848401525b50505050565b600060028204905060018216806200041557607f821691505b602082108114156200042c576200042b62000468565b5b50919050565b6200043d82620004c6565b810181811067ffffffffffffffff821117156200045f576200045e62000497565b5b80604052505050565b7f4e487b7100000000000000000000000000000000000000000000000000000000600052602260045260246000fd5b7f4e487b7100000000000000000000000000000000000000000000000000000000600052604160045260246000fd5b6000601f19601f8301169050919050565b615e6880620004e76000396000f3fe60806040526004361061019b5760003560e01c80635fd8c710116100ec5780639d56c2ea1161008a578063e985e9c511610064578063e985e9c514610569578063f242432a146105a6578063f2fde38b146105cf578063f532be15146105f85761019b565b80639d56c2ea146104ee578063a22cb46514610517578063c176e808146105405761019b565b80637b1b1bb0116100c65780637b1b1bb0146104585780638099ad3a146104835780638110b32f1461049a5780638da5cb5b146104c35761019b565b80635fd8c710146103ff578063715018a61461041657806376937cef1461042d5761019b565b80632c92267d116101595780633c5a52ed116101335780633c5a52ed146103525780633efc52001461036e5780634e1273f4146103975780635f4c5b25146103d45761019b565b80632c92267d146102d45780632eb2c2d6146103125780633b55eab01461033b5761019b565b8062fdd58e146101a057806301ffc9a7146101dd5780630948b38a1461021a5780630e89341c1461024357806312065fe01461028057806312a60517146102ab575b600080fd5b3480156101ac57600080fd5b506101c760048036038101906101c2919061427a565b610623565b6040516101d4919061507d565b60405180910390f35b3480156101e957600080fd5b5061020460048036038101906101ff91906143a8565b6106ec565b6040516102119190614ce0565b60405180910390f35b34801561022657600080fd5b50610241600480360381019061023c9190614423565b6107ce565b005b34801561024f57600080fd5b5061026a600480360381019061026591906143fa565b6108a4565b6040516102779190614cfb565b60405180910390f35b34801561028c57600080fd5b5061029561099b565b6040516102a2919061507d565b60405180910390f35b3480156102b757600080fd5b506102d260048036038101906102cd9190614423565b6109a3565b005b3480156102e057600080fd5b506102fb60048036038101906102f6919061408b565b610a31565b604051610309929190614be9565b60405180910390f35b34801561031e57600080fd5b50610339600480360381019061033491906140f0565b610aa6565b005b34801561034757600080fd5b50610350610b47565b005b61036c600480360381019061036791906143fa565b610ca0565b005b34801561037a57600080fd5b50610395600480360381019061039091906143fa565b61147a565b005b3480156103a357600080fd5b506103be60048036038101906103b9919061433c565b611539565b6040516103cb9190614c87565b60405180910390f35b3480156103e057600080fd5b506103e96116ea565b6040516103f6919061507d565b60405180910390f35b34801561040b57600080fd5b506104146116f4565b005b34801561042257600080fd5b5061042b6117fc565b005b34801561043957600080fd5b50610442611884565b60405161044f919061507d565b60405180910390f35b34801561046457600080fd5b5061046d61188e565b60405161047a919061507d565b60405180910390f35b34801561048f57600080fd5b50610498611898565b005b3480156104a657600080fd5b506104c160048036038101906104bc919061445f565b6119c4565b005b3480156104cf57600080fd5b506104d8611ffd565b6040516104e59190614aba565b60405180910390f35b3480156104fa57600080fd5b50610515600480360381019061051091906142fb565b612027565b005b34801561052357600080fd5b5061053e6004803603810190610539919061423e565b61227c565b005b34801561054c57600080fd5b50610567600480360381019061056291906142b6565b612292565b005b34801561057557600080fd5b50610590600480360381019061058b91906140b4565b6128e6565b60405161059d9190614ce0565b60405180910390f35b3480156105b257600080fd5b506105cd60048036038101906105c891906141af565b61297a565b005b3480156105db57600080fd5b506105f660048036038101906105f1919061408b565b612a1b565b005b34801561060457600080fd5b5061060d612b13565b60405161061a9190614cfb565b60405180910390f35b60008073ffffffffffffffffffffffffffffffffffffffff168373ffffffffffffffffffffffffffffffffffffffff161415610694576040517f08c379a000000000000000000000000000000000000000000000000000000000815260040161068b90614d7d565b60405180910390fd5b60008083815260200190815260200160002060008473ffffffffffffffffffffffffffffffffffffffff1673ffffffffffffffffffffffffffffffffffffffff16815260200190815260200160002054905092915050565b60007fd9b67a26000000000000000000000000000000000000000000000000000000007bffffffffffffffffffffffffffffffffffffffffffffffffffffffff1916827bffffffffffffffffffffffffffffffffffffffffffffffffffffffff191614806107b757507f0e89341c000000000000000000000000000000000000000000000000000000007bffffffffffffffffffffffffffffffffffffffffffffffffffffffff1916827bffffffffffffffffffffffffffffffffffffffffffffffffffffffff1916145b806107c757506107c682612bc3565b5b9050919050565b6107d6612c2d565b73ffffffffffffffffffffffffffffffffffffffff166107f4611ffd565b73ffffffffffffffffffffffffffffffffffffffff161461084a576040517f08c379a000000000000000000000000000000000000000000000000000000000815260040161084190614e9d565b60405180910390fd5b81600e81905550808261085d9190615200565b600f819055507f88c7c5a177be8b426acec3417df4c4882059c60453b8e02e6c8d16998919e73e600e54600f54604051610898929190615098565b60405180910390a15050565b6060600a54821180156108b85750600c5482105b806108d15750600b54821180156108d05750600d5482105b5b1561096857601180546108e390615419565b80601f016020809104026020016040519081016040528092919081815260200182805461090f90615419565b801561095c5780601f106109315761010080835404028352916020019161095c565b820191906000526020600020905b81548152906001019060200180831161093f57829003601f168201915b50505050509050610996565b601061097383612c35565b604051602001610984929190614a8b565b60405160208183030381529060405290505b919050565b600047905090565b6109ab612c2d565b73ffffffffffffffffffffffffffffffffffffffff166109c9611ffd565b73ffffffffffffffffffffffffffffffffffffffff1614610a1f576040517f08c379a0000000000000000000000000000000000000000000000000000000008152600401610a1690614e9d565b60405180910390fd5b81600a8190555080600b819055505050565b6000606082610a7e601460008673ffffffffffffffffffffffffffffffffffffffff1673ffffffffffffffffffffffffffffffffffffffff16815260200190815260200160002054612c35565b604051602001610a8e9190614a74565b60405160208183030381529060405291509150915091565b610aae612c2d565b73ffffffffffffffffffffffffffffffffffffffff168573ffffffffffffffffffffffffffffffffffffffff161480610af45750610af385610aee612c2d565b6128e6565b5b610b33576040517f08c379a0000000000000000000000000000000000000000000000000000000008152600401610b2a90614e3d565b60405180910390fd5b610b408585858585612de2565b5050505050565b610b4f612c2d565b73ffffffffffffffffffffffffffffffffffffffff16610b6d611ffd565b73ffffffffffffffffffffffffffffffffffffffff1614610bc3576040517f08c379a0000000000000000000000000000000000000000000000000000000008152600401610bba90614e9d565b60405180910390fd5b60005b601280549050811015610c8f5760006014600060128481548110610c13577f4e487b7100000000000000000000000000000000000000000000000000000000600052603260045260246000fd5b9060005260206000200160009054906101000a900473ffffffffffffffffffffffffffffffffffffffff1673ffffffffffffffffffffffffffffffffffffffff1673ffffffffffffffffffffffffffffffffffffffff168152602001908152602001600020819055508080610c879061547c565b915050610bc6565b5060126000610c9e9190613e06565b565b600e544211610ce4576040517f08c379a0000000000000000000000000000000000000000000000000000000008152600401610cdb90614d5d565b60405180910390fd5b600e5442118015610cf65750600f5442105b15610d7e576000601460003373ffffffffffffffffffffffffffffffffffffffff1673ffffffffffffffffffffffffffffffffffffffff1681526020019081526020016000205411610d7d576040517f08c379a0000000000000000000000000000000000000000000000000000000008152600401610d7490614ebd565b60405180910390fd5b5b60026003541415610dc4576040517f08c379a0000000000000000000000000000000000000000000000000000000008152600401610dbb90614ffd565b60405180910390fd5b60026003819055508067016345785d8a0000610de09190615287565b341015610e22576040517f08c379a0000000000000000000000000000000000000000000000000000000008152600401610e199061501d565b60405180910390fd5b600281601360003373ffffffffffffffffffffffffffffffffffffffff1673ffffffffffffffffffffffffffffffffffffffff16815260200190815260200160002054610e6f9190615200565b1115610eb0576040517f08c379a0000000000000000000000000000000000000000000000000000000008152600401610ea790614efd565b60405180910390fd5b600081600754610ec091906152e1565b1015610f01576040517f08c379a0000000000000000000000000000000000000000000000000000000008152600401610ef890614f3d565b60405180910390fd5b6000600667ffffffffffffffff811115610f44577f4e487b7100000000000000000000000000000000000000000000000000000000600052604160045260246000fd5b604051908082528060200260200182016040528015610f725781602001602082028036833780820191505090505b5090506000600667ffffffffffffffff811115610fb8577f4e487b7100000000000000000000000000000000000000000000000000000000600052604160045260246000fd5b604051908082528060200260200182016040528015610fe65781602001602082028036833780820191505090505b50905060005b8381101561146c57600183600081518110611030577f4e487b7100000000000000000000000000000000000000000000000000000000600052603260045260246000fd5b602002602001018181525050600183600181518110611078577f4e487b7100000000000000000000000000000000000000000000000000000000600052603260045260246000fd5b6020026020010181815250506001836002815181106110c0577f4e487b7100000000000000000000000000000000000000000000000000000000600052603260045260246000fd5b602002602001018181525050600183600381518110611108577f4e487b7100000000000000000000000000000000000000000000000000000000600052603260045260246000fd5b602002602001018181525050600183600481518110611150577f4e487b7100000000000000000000000000000000000000000000000000000000600052603260045260246000fd5b602002602001018181525050600383600581518110611198577f4e487b7100000000000000000000000000000000000000000000000000000000600052603260045260246000fd5b602002602001018181525050600454826000815181106111e1577f4e487b7100000000000000000000000000000000000000000000000000000000600052603260045260246000fd5b602002602001018181525050600460008154809291906112009061547c565b919050555060045482600181518110611242577f4e487b7100000000000000000000000000000000000000000000000000000000600052603260045260246000fd5b602002602001018181525050600460008154809291906112619061547c565b9190505550600454826002815181106112a3577f4e487b7100000000000000000000000000000000000000000000000000000000600052603260045260246000fd5b602002602001018181525050600460008154809291906112c29061547c565b919050555060045482600381518110611304577f4e487b7100000000000000000000000000000000000000000000000000000000600052603260045260246000fd5b602002602001018181525050600460008154809291906113239061547c565b919050555060055482600481518110611365577f4e487b7100000000000000000000000000000000000000000000000000000000600052603260045260246000fd5b602002602001018181525050600560008154809291906113849061547c565b91905055506000826005815181106113c5577f4e487b7100000000000000000000000000000000000000000000000000000000600052603260045260246000fd5b602002602001018181525050601360003373ffffffffffffffffffffffffffffffffffffffff1673ffffffffffffffffffffffffffffffffffffffff16815260200190815260200160002060008154809291906114219061547c565b919050555061144133838560405180602001604052806000815250613134565b60076000815480929190611454906153ef565b919050555080806114649061547c565b915050610fec565b505050600160038190555050565b611482612c2d565b73ffffffffffffffffffffffffffffffffffffffff166114a0611ffd565b73ffffffffffffffffffffffffffffffffffffffff16146114f6576040517f08c379a00000000000000000000000000000000000000000000000000000000081526004016114ed90614e9d565b60405180910390fd5b806009819055507fa38e66eb2f94412ae516060322caf607239c4ec9f487e5c1f69e3e1b31cce028338260405161152e929190614c19565b60405180910390a150565b6060815183511461157f576040517f08c379a000000000000000000000000000000000000000000000000000000000815260040161157690614f9d565b60405180910390fd5b6000835167ffffffffffffffff8111156115c2577f4e487b7100000000000000000000000000000000000000000000000000000000600052604160045260246000fd5b6040519080825280602002602001820160405280156115f05781602001602082028036833780820191505090505b50905060005b84518110156116df5761168985828151811061163b577f4e487b7100000000000000000000000000000000000000000000000000000000600052603260045260246000fd5b602002602001015185838151811061167c577f4e487b7100000000000000000000000000000000000000000000000000000000600052603260045260246000fd5b6020026020010151610623565b8282815181106116c2577f4e487b7100000000000000000000000000000000000000000000000000000000600052603260045260246000fd5b602002602001018181525050806116d89061547c565b90506115f6565b508091505092915050565b6000600854905090565b6116fc612c2d565b73ffffffffffffffffffffffffffffffffffffffff1661171a611ffd565b73ffffffffffffffffffffffffffffffffffffffff1614611770576040517f08c379a000000000000000000000000000000000000000000000000000000000815260040161176790614e9d565b60405180910390fd5b600047116117b3576040517f08c379a00000000000000000000000000000000000000000000000000000000081526004016117aa90614f1d565b60405180910390fd5b3373ffffffffffffffffffffffffffffffffffffffff166108fc479081150290604051600060405180830381858888f193505050501580156117f9573d6000803e3d6000fd5b50565b611804612c2d565b73ffffffffffffffffffffffffffffffffffffffff16611822611ffd565b73ffffffffffffffffffffffffffffffffffffffff1614611878576040517f08c379a000000000000000000000000000000000000000000000000000000000815260040161186f90614e9d565b60405180910390fd5b611882600061338f565b565b6000600754905090565b6000600954905090565b6118a0612c2d565b73ffffffffffffffffffffffffffffffffffffffff166118be611ffd565b73ffffffffffffffffffffffffffffffffffffffff1614611914576040517f08c379a000000000000000000000000000000000000000000000000000000000815260040161190b90614e9d565b60405180910390fd5b6103e86007546119249190615200565b600781905550610bb860085461193a9190615200565b6008819055506401d399af30600e819055507fec1b0f16852f6bc8e2714e46680cdae05663378c4304e6e3bb25e5a82c7ba350336103e860405161197f929190614b97565b60405180910390a17fe3d47dee33b959cc59941f840525125123544e1f194b235f340f0c6147697ac333610bb86040516119ba929190614bc0565b60405180910390a1565b60026003541415611a0a576040517f08c379a0000000000000000000000000000000000000000000000000000000008152600401611a0190614ffd565b60405180910390fd5b600260038190555060058110611a55576040517f08c379a0000000000000000000000000000000000000000000000000000000008152600401611a4c9061503d565b60405180910390fd5b6000611a5f612c2d565b90506000600367ffffffffffffffff811115611aa4577f4e487b7100000000000000000000000000000000000000000000000000000000600052604160045260246000fd5b604051908082528060200260200182016040528015611ad25781602001602082028036833780820191505090505b5090506000600367ffffffffffffffff811115611b18577f4e487b7100000000000000000000000000000000000000000000000000000000600052604160045260246000fd5b604051908082528060200260200182016040528015611b465781602001602082028036833780820191505090505b5090506000600367ffffffffffffffff811115611b8c577f4e487b7100000000000000000000000000000000000000000000000000000000600052604160045260246000fd5b604051908082528060200260200182016040528015611bba5781602001602082028036833780820191505090505b5090508383600081518110611bf8577f4e487b7100000000000000000000000000000000000000000000000000000000600052603260045260246000fd5b602002602001019073ffffffffffffffffffffffffffffffffffffffff16908173ffffffffffffffffffffffffffffffffffffffff16815250508383600181518110611c6d577f4e487b7100000000000000000000000000000000000000000000000000000000600052603260045260246000fd5b602002602001019073ffffffffffffffffffffffffffffffffffffffff16908173ffffffffffffffffffffffffffffffffffffffff16815250508383600281518110611ce2577f4e487b7100000000000000000000000000000000000000000000000000000000600052603260045260246000fd5b602002602001019073ffffffffffffffffffffffffffffffffffffffff16908173ffffffffffffffffffffffffffffffffffffffff16815250508682600081518110611d57577f4e487b7100000000000000000000000000000000000000000000000000000000600052603260045260246000fd5b6020026020010181815250508582600181518110611d9e577f4e487b7100000000000000000000000000000000000000000000000000000000600052603260045260246000fd5b602002602001018181525050600082600281518110611de6577f4e487b7100000000000000000000000000000000000000000000000000000000600052603260045260246000fd5b602002602001018181525050611dfc8383611539565b9050600081600081518110611e3a577f4e487b7100000000000000000000000000000000000000000000000000000000600052603260045260246000fd5b602002602001015111611e82576040517f08c379a0000000000000000000000000000000000000000000000000000000008152600401611e7990614f5d565b60405180910390fd5b600081600181518110611ebe577f4e487b7100000000000000000000000000000000000000000000000000000000600052603260045260246000fd5b602002602001015111611f06576040517f08c379a0000000000000000000000000000000000000000000000000000000008152600401611efd90614dfd565b60405180910390fd5b600081600281518110611f42577f4e487b7100000000000000000000000000000000000000000000000000000000600052603260045260246000fd5b602002602001015111611f8a576040517f08c379a0000000000000000000000000000000000000000000000000000000008152600401611f819061505d565b60405180910390fd5b7f31a355e7880e71f29b75aa7c71ce44c620458b346b2d8c8f1740cb082134d05284878988604051611fbf9493929190614c42565b60405180910390a1611fd48460006001613455565b60086000815480929190611fe7906153ef565b9190505550505050506001600381905550505050565b6000600260009054906101000a900473ffffffffffffffffffffffffffffffffffffffff16905090565b61202f612c2d565b73ffffffffffffffffffffffffffffffffffffffff1661204d611ffd565b73ffffffffffffffffffffffffffffffffffffffff16146120a3576040517f08c379a000000000000000000000000000000000000000000000000000000000815260040161209a90614e9d565b60405180910390fd5b60005b8151811015612278576001601460008484815181106120ee577f4e487b7100000000000000000000000000000000000000000000000000000000600052603260045260246000fd5b602002602001015173ffffffffffffffffffffffffffffffffffffffff1673ffffffffffffffffffffffffffffffffffffffff16815260200190815260200160002054141561213c57612265565b60016014600084848151811061217b577f4e487b7100000000000000000000000000000000000000000000000000000000600052603260045260246000fd5b602002602001015173ffffffffffffffffffffffffffffffffffffffff1673ffffffffffffffffffffffffffffffffffffffff1681526020019081526020016000208190555060128282815181106121fc577f4e487b7100000000000000000000000000000000000000000000000000000000600052603260045260246000fd5b60200260200101519080600181540180825580915050600190039060005260206000200160009091909190916101000a81548173ffffffffffffffffffffffffffffffffffffffff021916908373ffffffffffffffffffffffffffffffffffffffff1602179055505b80806122709061547c565b9150506120a6565b5050565b61228e612287612c2d565b8383613644565b5050565b61229a612c2d565b73ffffffffffffffffffffffffffffffffffffffff166122b8611ffd565b73ffffffffffffffffffffffffffffffffffffffff161461230e576040517f08c379a000000000000000000000000000000000000000000000000000000000815260040161230590614e9d565b60405180910390fd5b60008282905060075461232191906152e1565b1015612362576040517f08c379a000000000000000000000000000000000000000000000000000000000815260040161235990614edd565b60405180910390fd5b6000600667ffffffffffffffff8111156123a5577f4e487b7100000000000000000000000000000000000000000000000000000000600052604160045260246000fd5b6040519080825280602002602001820160405280156123d35781602001602082028036833780820191505090505b509050600181600081518110612412577f4e487b7100000000000000000000000000000000000000000000000000000000600052603260045260246000fd5b60200260200101818152505060018160018151811061245a577f4e487b7100000000000000000000000000000000000000000000000000000000600052603260045260246000fd5b6020026020010181815250506001816002815181106124a2577f4e487b7100000000000000000000000000000000000000000000000000000000600052603260045260246000fd5b6020026020010181815250506001816003815181106124ea577f4e487b7100000000000000000000000000000000000000000000000000000000600052603260045260246000fd5b602002602001018181525050600181600481518110612532577f4e487b7100000000000000000000000000000000000000000000000000000000600052603260045260246000fd5b60200260200101818152505060038160058151811061257a577f4e487b7100000000000000000000000000000000000000000000000000000000600052603260045260246000fd5b6020026020010181815250506000600667ffffffffffffffff8111156125c9577f4e487b7100000000000000000000000000000000000000000000000000000000600052604160045260246000fd5b6040519080825280602002602001820160405280156125f75781602001602082028036833780820191505090505b50905060005b848490508110156128c85760045482600081518110612645577f4e487b7100000000000000000000000000000000000000000000000000000000600052603260045260246000fd5b602002602001018181525050600460008154809291906126649061547c565b9190505550600454826001815181106126a6577f4e487b7100000000000000000000000000000000000000000000000000000000600052603260045260246000fd5b602002602001018181525050600460008154809291906126c59061547c565b919050555060045482600281518110612707577f4e487b7100000000000000000000000000000000000000000000000000000000600052603260045260246000fd5b602002602001018181525050600460008154809291906127269061547c565b919050555060045482600381518110612768577f4e487b7100000000000000000000000000000000000000000000000000000000600052603260045260246000fd5b602002602001018181525050600460008154809291906127879061547c565b9190505550600554826004815181106127c9577f4e487b7100000000000000000000000000000000000000000000000000000000600052603260045260246000fd5b602002602001018181525050600560008154809291906127e89061547c565b9190505550600082600581518110612829577f4e487b7100000000000000000000000000000000000000000000000000000000600052603260045260246000fd5b60200260200101818152505061289d858583818110612871577f4e487b7100000000000000000000000000000000000000000000000000000000600052603260045260246000fd5b9050602002016020810190612886919061408b565b838560405180602001604052806000815250613134565b600760008154809291906128b0906153ef565b919050555080806128c09061547c565b9150506125fd565b50838390506006546128da9190615200565b60068190555050505050565b6000600160008473ffffffffffffffffffffffffffffffffffffffff1673ffffffffffffffffffffffffffffffffffffffff16815260200190815260200160002060008373ffffffffffffffffffffffffffffffffffffffff1673ffffffffffffffffffffffffffffffffffffffff16815260200190815260200160002060009054906101000a900460ff16905092915050565b612982612c2d565b73ffffffffffffffffffffffffffffffffffffffff168573ffffffffffffffffffffffffffffffffffffffff1614806129c857506129c7856129c2612c2d565b6128e6565b5b612a07576040517f08c379a00000000000000000000000000000000000000000000000000000000081526004016129fe90614ddd565b60405180910390fd5b612a1485858585856137b1565b5050505050565b612a23612c2d565b73ffffffffffffffffffffffffffffffffffffffff16612a41611ffd565b73ffffffffffffffffffffffffffffffffffffffff1614612a97576040517f08c379a0000000000000000000000000000000000000000000000000000000008152600401612a8e90614e9d565b60405180910390fd5b600073ffffffffffffffffffffffffffffffffffffffff168173ffffffffffffffffffffffffffffffffffffffff161415612b07576040517f08c379a0000000000000000000000000000000000000000000000000000000008152600401612afe90614d9d565b60405180910390fd5b612b108161338f565b50565b6060612b1d612c2d565b73ffffffffffffffffffffffffffffffffffffffff16612b3b611ffd565b73ffffffffffffffffffffffffffffffffffffffff1614612b91576040517f08c379a0000000000000000000000000000000000000000000000000000000008152600401612b8890614e9d565b60405180910390fd5b612b9f601280549050612c35565b604051602001612baf9190614a74565b604051602081830303815290604052905090565b60007f01ffc9a7000000000000000000000000000000000000000000000000000000007bffffffffffffffffffffffffffffffffffffffffffffffffffffffff1916827bffffffffffffffffffffffffffffffffffffffffffffffffffffffff1916149050919050565b600033905090565b60606000821415612c7d576040518060400160405280600181526020017f30000000000000000000000000000000000000000000000000000000000000008152509050612ddd565b600082905060005b60008214612caf578080612c989061547c565b915050600a82612ca89190615256565b9150612c85565b60008167ffffffffffffffff811115612cf1577f4e487b7100000000000000000000000000000000000000000000000000000000600052604160045260246000fd5b6040519080825280601f01601f191660200182016040528015612d235781602001600182028036833780820191505090505b5090505b60008514612dd657600182612d3c91906152e1565b9150600a85612d4b91906154c5565b6030612d579190615200565b60f81b818381518110612d93577f4e487b7100000000000000000000000000000000000000000000000000000000600052603260045260246000fd5b60200101907effffffffffffffffffffffffffffffffffffffffffffffffffffffffffffff1916908160001a905350600a85612dcf9190615256565b9450612d27565b8093505050505b919050565b8151835114612e26576040517f08c379a0000000000000000000000000000000000000000000000000000000008152600401612e1d90614fbd565b60405180910390fd5b600073ffffffffffffffffffffffffffffffffffffffff168473ffffffffffffffffffffffffffffffffffffffff161415612e96576040517f08c379a0000000000000000000000000000000000000000000000000000000008152600401612e8d90614e1d565b60405180910390fd5b6000612ea0612c2d565b905060005b845181101561309f576000858281518110612ee9577f4e487b7100000000000000000000000000000000000000000000000000000000600052603260045260246000fd5b602002602001015190506000858381518110612f2e577f4e487b7100000000000000000000000000000000000000000000000000000000600052603260045260246000fd5b60200260200101519050600080600084815260200190815260200160002060008b73ffffffffffffffffffffffffffffffffffffffff1673ffffffffffffffffffffffffffffffffffffffff16815260200190815260200160002054905081811015612fcf576040517f08c379a0000000000000000000000000000000000000000000000000000000008152600401612fc690614e7d565b60405180910390fd5b81810360008085815260200190815260200160002060008c73ffffffffffffffffffffffffffffffffffffffff1673ffffffffffffffffffffffffffffffffffffffff168152602001908152602001600020819055508160008085815260200190815260200160002060008b73ffffffffffffffffffffffffffffffffffffffff1673ffffffffffffffffffffffffffffffffffffffff16815260200190815260200160002060008282546130849190615200565b92505081905550505050806130989061547c565b9050612ea5565b508473ffffffffffffffffffffffffffffffffffffffff168673ffffffffffffffffffffffffffffffffffffffff168273ffffffffffffffffffffffffffffffffffffffff167f4a39dc06d4c0dbc64b70af90fd698a233a518aa5d07e595d983b8c0526c8f7fb8787604051613116929190614ca9565b60405180910390a461312c818787878787613a15565b505050505050565b600073ffffffffffffffffffffffffffffffffffffffff168473ffffffffffffffffffffffffffffffffffffffff1614156131a4576040517f08c379a000000000000000000000000000000000000000000000000000000000815260040161319b90614fdd565b60405180910390fd5b81518351146131e8576040517f08c379a00000000000000000000000000000000000000000000000000000000081526004016131df90614fbd565b60405180910390fd5b60006131f2612c2d565b905060005b84518110156132f957838181518110613239577f4e487b7100000000000000000000000000000000000000000000000000000000600052603260045260246000fd5b602002602001015160008087848151811061327d577f4e487b7100000000000000000000000000000000000000000000000000000000600052603260045260246000fd5b6020026020010151815260200190815260200160002060008873ffffffffffffffffffffffffffffffffffffffff1673ffffffffffffffffffffffffffffffffffffffff16815260200190815260200160002060008282546132df9190615200565b9250508190555080806132f19061547c565b9150506131f7565b508473ffffffffffffffffffffffffffffffffffffffff16600073ffffffffffffffffffffffffffffffffffffffff168273ffffffffffffffffffffffffffffffffffffffff167f4a39dc06d4c0dbc64b70af90fd698a233a518aa5d07e595d983b8c0526c8f7fb8787604051613371929190614ca9565b60405180910390a461338881600087878787613a15565b5050505050565b6000600260009054906101000a900473ffffffffffffffffffffffffffffffffffffffff16905081600260006101000a81548173ffffffffffffffffffffffffffffffffffffffff021916908373ffffffffffffffffffffffffffffffffffffffff1602179055508173ffffffffffffffffffffffffffffffffffffffff168173ffffffffffffffffffffffffffffffffffffffff167f8be0079c531659141344cd1fd0a4f28419497f9722a3daafe3b4186f6b6457e060405160405180910390a35050565b600073ffffffffffffffffffffffffffffffffffffffff168373ffffffffffffffffffffffffffffffffffffffff1614156134c5576040517f08c379a00000000000000000000000000000000000000000000000000000000081526004016134bc90614e5d565b60405180910390fd5b60006134cf612c2d565b9050600080600085815260200190815260200160002060008673ffffffffffffffffffffffffffffffffffffffff1673ffffffffffffffffffffffffffffffffffffffff16815260200190815260200160002054905082811015613568576040517f08c379a000000000000000000000000000000000000000000000000000000000815260040161355f90614dbd565b60405180910390fd5b82810360008086815260200190815260200160002060008773ffffffffffffffffffffffffffffffffffffffff1673ffffffffffffffffffffffffffffffffffffffff16815260200190815260200160002081905550600073ffffffffffffffffffffffffffffffffffffffff168573ffffffffffffffffffffffffffffffffffffffff168373ffffffffffffffffffffffffffffffffffffffff167fc3d58168c5ae7397731d063d5bbf3d657854427343f4c083240f7aacaa2d0f628787604051613635929190615098565b60405180910390a45050505050565b8173ffffffffffffffffffffffffffffffffffffffff168373ffffffffffffffffffffffffffffffffffffffff1614156136b3576040517f08c379a00000000000000000000000000000000000000000000000000000000081526004016136aa90614f7d565b60405180910390fd5b80600160008573ffffffffffffffffffffffffffffffffffffffff1673ffffffffffffffffffffffffffffffffffffffff16815260200190815260200160002060008473ffffffffffffffffffffffffffffffffffffffff1673ffffffffffffffffffffffffffffffffffffffff16815260200190815260200160002060006101000a81548160ff0219169083151502179055508173ffffffffffffffffffffffffffffffffffffffff168373ffffffffffffffffffffffffffffffffffffffff167f17307eab39ab6107e8899845ad3d59bd9653f200f220920489ca2b5937696c31836040516137a49190614ce0565b60405180910390a3505050565b600073ffffffffffffffffffffffffffffffffffffffff168473ffffffffffffffffffffffffffffffffffffffff161415613821576040517f08c379a000000000000000000000000000000000000000000000000000000000815260040161381890614e1d565b60405180910390fd5b600061382b612c2d565b9050600080600086815260200190815260200160002060008873ffffffffffffffffffffffffffffffffffffffff1673ffffffffffffffffffffffffffffffffffffffff168152602001908152602001600020549050838110156138c4576040517f08c379a00000000000000000000000000000000000000000000000000000000081526004016138bb90614e7d565b60405180910390fd5b83810360008087815260200190815260200160002060008973ffffffffffffffffffffffffffffffffffffffff1673ffffffffffffffffffffffffffffffffffffffff168152602001908152602001600020819055508360008087815260200190815260200160002060008873ffffffffffffffffffffffffffffffffffffffff1673ffffffffffffffffffffffffffffffffffffffff16815260200190815260200160002060008282546139799190615200565b925050819055508573ffffffffffffffffffffffffffffffffffffffff168773ffffffffffffffffffffffffffffffffffffffff168373ffffffffffffffffffffffffffffffffffffffff167fc3d58168c5ae7397731d063d5bbf3d657854427343f4c083240f7aacaa2d0f6288886040516139f6929190615098565b60405180910390a4613a0c828888888888613bfc565b50505050505050565b613a348473ffffffffffffffffffffffffffffffffffffffff16613de3565b15613bf4578373ffffffffffffffffffffffffffffffffffffffff1663bc197c8187878686866040518663ffffffff1660e01b8152600401613a7a959493929190614ad5565b602060405180830381600087803b158015613a9457600080fd5b505af1925050508015613ac557506040513d601f19601f82011682018060405250810190613ac291906143d1565b60015b613b6b57613ad16155b2565b806308c379a01415613b2e5750613ae6615d40565b80613af15750613b30565b806040517f08c379a0000000000000000000000000000000000000000000000000000000008152600401613b259190614cfb565b60405180910390fd5b505b6040517f08c379a0000000000000000000000000000000000000000000000000000000008152600401613b6290614d1d565b60405180910390fd5b63bc197c8160e01b7bffffffffffffffffffffffffffffffffffffffffffffffffffffffff1916817bffffffffffffffffffffffffffffffffffffffffffffffffffffffff191614613bf2576040517f08c379a0000000000000000000000000000000000000000000000000000000008152600401613be990614d3d565b60405180910390fd5b505b505050505050565b613c1b8473ffffffffffffffffffffffffffffffffffffffff16613de3565b15613ddb578373ffffffffffffffffffffffffffffffffffffffff1663f23a6e6187878686866040518663ffffffff1660e01b8152600401613c61959493929190614b3d565b602060405180830381600087803b158015613c7b57600080fd5b505af1925050508015613cac57506040513d601f19601f82011682018060405250810190613ca991906143d1565b60015b613d5257613cb86155b2565b806308c379a01415613d155750613ccd615d40565b80613cd85750613d17565b806040517f08c379a0000000000000000000000000000000000000000000000000000000008152600401613d0c9190614cfb565b60405180910390fd5b505b6040517f08c379a0000000000000000000000000000000000000000000000000000000008152600401613d4990614d1d565b60405180910390fd5b63f23a6e6160e01b7bffffffffffffffffffffffffffffffffffffffffffffffffffffffff1916817bffffffffffffffffffffffffffffffffffffffffffffffffffffffff191614613dd9576040517f08c379a0000000000000000000000000000000000000000000000000000000008152600401613dd090614d3d565b60405180910390fd5b505b505050505050565b6000808273ffffffffffffffffffffffffffffffffffffffff163b119050919050565b5080546000825590600052602060002090810190613e249190613e27565b50565b5b80821115613e40576000816000905550600101613e28565b5090565b6000613e57613e52846150e6565b6150c1565b90508083825260208201905082856020860282011115613e7657600080fd5b60005b85811015613ea65781613e8c8882613f5a565b845260208401935060208301925050600181019050613e79565b5050509392505050565b6000613ec3613ebe84615112565b6150c1565b90508083825260208201905082856020860282011115613ee257600080fd5b60005b85811015613f125781613ef88882614076565b845260208401935060208301925050600181019050613ee5565b5050509392505050565b6000613f2f613f2a8461513e565b6150c1565b905082815260208101848484011115613f4757600080fd5b613f528482856153ad565b509392505050565b600081359050613f6981615dd6565b92915050565b60008083601f840112613f8157600080fd5b8235905067ffffffffffffffff811115613f9a57600080fd5b602083019150836020820283011115613fb257600080fd5b9250929050565b600082601f830112613fca57600080fd5b8135613fda848260208601613e44565b91505092915050565b600082601f830112613ff457600080fd5b8135614004848260208601613eb0565b91505092915050565b60008135905061401c81615ded565b92915050565b60008135905061403181615e04565b92915050565b60008151905061404681615e04565b92915050565b600082601f83011261405d57600080fd5b813561406d848260208601613f1c565b91505092915050565b60008135905061408581615e1b565b92915050565b60006020828403121561409d57600080fd5b60006140ab84828501613f5a565b91505092915050565b600080604083850312156140c757600080fd5b60006140d585828601613f5a565b92505060206140e685828601613f5a565b9150509250929050565b600080600080600060a0868803121561410857600080fd5b600061411688828901613f5a565b955050602061412788828901613f5a565b945050604086013567ffffffffffffffff81111561414457600080fd5b61415088828901613fe3565b935050606086013567ffffffffffffffff81111561416d57600080fd5b61417988828901613fe3565b925050608086013567ffffffffffffffff81111561419657600080fd5b6141a28882890161404c565b9150509295509295909350565b600080600080600060a086880312156141c757600080fd5b60006141d588828901613f5a565b95505060206141e688828901613f5a565b94505060406141f788828901614076565b935050606061420888828901614076565b925050608086013567ffffffffffffffff81111561422557600080fd5b6142318882890161404c565b9150509295509295909350565b6000806040838503121561425157600080fd5b600061425f85828601613f5a565b92505060206142708582860161400d565b9150509250929050565b6000806040838503121561428d57600080fd5b600061429b85828601613f5a565b92505060206142ac85828601614076565b9150509250929050565b600080602083850312156142c957600080fd5b600083013567ffffffffffffffff8111156142e357600080fd5b6142ef85828601613f6f565b92509250509250929050565b60006020828403121561430d57600080fd5b600082013567ffffffffffffffff81111561432757600080fd5b61433384828501613fb9565b91505092915050565b6000806040838503121561434f57600080fd5b600083013567ffffffffffffffff81111561436957600080fd5b61437585828601613fb9565b925050602083013567ffffffffffffffff81111561439257600080fd5b61439e85828601613fe3565b9150509250929050565b6000602082840312156143ba57600080fd5b60006143c884828501614022565b91505092915050565b6000602082840312156143e357600080fd5b60006143f184828501614037565b91505092915050565b60006020828403121561440c57600080fd5b600061441a84828501614076565b91505092915050565b6000806040838503121561443657600080fd5b600061444485828601614076565b925050602061445585828601614076565b9150509250929050565b60008060006060848603121561447457600080fd5b600061448286828701614076565b935050602061449386828701614076565b92505060406144a486828701614076565b9150509250925092565b60006144ba8383614a56565b60208301905092915050565b6144cf81615315565b82525050565b60006144e082615194565b6144ea81856151c2565b93506144f58361516f565b8060005b8381101561452657815161450d88826144ae565b9750614518836151b5565b9250506001810190506144f9565b5085935050505092915050565b61453c81615327565b82525050565b600061454d8261519f565b61455781856151d3565b93506145678185602086016153bc565b614570816155d4565b840191505092915050565b61458481615389565b82525050565b6145938161539b565b82525050565b60006145a4826151aa565b6145ae81856151e4565b93506145be8185602086016153bc565b6145c7816155d4565b840191505092915050565b60006145dd826151aa565b6145e781856151f5565b93506145f78185602086016153bc565b80840191505092915050565b6000815461461081615419565b61461a81866151f5565b94506001821660008114614635576001811461464657614679565b60ff19831686528186019350614679565b61464f8561517f565b60005b8381101561467157815481890152600182019150602081019050614652565b838801955050505b50505092915050565b600061468f6034836151e4565b915061469a826155f2565b604082019050919050565b60006146b26028836151e4565b91506146bd82615641565b604082019050919050565b60006146d56017836151e4565b91506146e082615690565b602082019050919050565b60006146f8602b836151e4565b9150614703826156b9565b604082019050919050565b600061471b6026836151e4565b915061472682615708565b604082019050919050565b600061473e6024836151e4565b915061474982615757565b604082019050919050565b60006147616029836151e4565b915061476c826157a6565b604082019050919050565b60006147846022836151e4565b915061478f826157f5565b604082019050919050565b60006147a76025836151e4565b91506147b282615844565b604082019050919050565b60006147ca6032836151e4565b91506147d582615893565b604082019050919050565b60006147ed6023836151e4565b91506147f8826158e2565b604082019050919050565b6000614810602a836151e4565b915061481b82615931565b604082019050919050565b60006148336005836151f5565b915061483e82615980565b600582019050919050565b60006148566020836151e4565b9150614861826159a9565b602082019050919050565b60006148796040836151e4565b9150614884826159d2565b604082019050919050565b600061489c6021836151e4565b91506148a782615a21565b604082019050919050565b60006148bf602f836151e4565b91506148ca82615a70565b604082019050919050565b60006148e26014836151e4565b91506148ed82615abf565b602082019050919050565b6000614905601c836151e4565b915061491082615ae8565b602082019050919050565b6000614928601e836151e4565b915061493382615b11565b602082019050919050565b600061494b6029836151e4565b915061495682615b3a565b604082019050919050565b600061496e6029836151e4565b915061497982615b89565b604082019050919050565b60006149916028836151e4565b915061499c82615bd8565b604082019050919050565b60006149b46021836151e4565b91506149bf82615c27565b604082019050919050565b60006149d7601f836151e4565b91506149e282615c76565b602082019050919050565b60006149fa6028836151e4565b9150614a0582615c9f565b604082019050919050565b6000614a1d6015836151e4565b9150614a2882615cee565b602082019050919050565b6000614a406018836151e4565b9150614a4b82615d17565b602082019050919050565b614a5f8161537f565b82525050565b614a6e8161537f565b82525050565b6000614a8082846145d2565b915081905092915050565b6000614a978285614603565b9150614aa382846145d2565b9150614aae82614826565b91508190509392505050565b6000602082019050614acf60008301846144c6565b92915050565b600060a082019050614aea60008301886144c6565b614af760208301876144c6565b8181036040830152614b0981866144d5565b90508181036060830152614b1d81856144d5565b90508181036080830152614b318184614542565b90509695505050505050565b600060a082019050614b5260008301886144c6565b614b5f60208301876144c6565b614b6c6040830186614a65565b614b796060830185614a65565b8181036080830152614b8b8184614542565b90509695505050505050565b6000604082019050614bac60008301856144c6565b614bb9602083018461457b565b9392505050565b6000604082019050614bd560008301856144c6565b614be2602083018461458a565b9392505050565b6000604082019050614bfe60008301856144c6565b8181036020830152614c108184614599565b90509392505050565b6000604082019050614c2e60008301856144c6565b614c3b6020830184614a65565b9392505050565b6000608082019050614c5760008301876144c6565b614c646020830186614a65565b614c716040830185614a65565b614c7e6060830184614a65565b95945050505050565b60006020820190508181036000830152614ca181846144d5565b905092915050565b60006040820190508181036000830152614cc381856144d5565b90508181036020830152614cd781846144d5565b90509392505050565b6000602082019050614cf56000830184614533565b92915050565b60006020820190508181036000830152614d158184614599565b905092915050565b60006020820190508181036000830152614d3681614682565b9050919050565b60006020820190508181036000830152614d56816146a5565b9050919050565b60006020820190508181036000830152614d76816146c8565b9050919050565b60006020820190508181036000830152614d96816146eb565b9050919050565b60006020820190508181036000830152614db68161470e565b9050919050565b60006020820190508181036000830152614dd681614731565b9050919050565b60006020820190508181036000830152614df681614754565b9050919050565b60006020820190508181036000830152614e1681614777565b9050919050565b60006020820190508181036000830152614e368161479a565b9050919050565b60006020820190508181036000830152614e56816147bd565b9050919050565b60006020820190508181036000830152614e76816147e0565b9050919050565b60006020820190508181036000830152614e9681614803565b9050919050565b60006020820190508181036000830152614eb681614849565b9050919050565b60006020820190508181036000830152614ed68161486c565b9050919050565b60006020820190508181036000830152614ef68161488f565b9050919050565b60006020820190508181036000830152614f16816148b2565b9050919050565b60006020820190508181036000830152614f36816148d5565b9050919050565b60006020820190508181036000830152614f56816148f8565b9050919050565b60006020820190508181036000830152614f768161491b565b9050919050565b60006020820190508181036000830152614f968161493e565b9050919050565b60006020820190508181036000830152614fb681614961565b9050919050565b60006020820190508181036000830152614fd681614984565b9050919050565b60006020820190508181036000830152614ff6816149a7565b9050919050565b60006020820190508181036000830152615016816149ca565b9050919050565b60006020820190508181036000830152615036816149ed565b9050919050565b6000602082019050818103600083015261505681614a10565b9050919050565b6000602082019050818103600083015261507681614a33565b9050919050565b60006020820190506150926000830184614a65565b92915050565b60006040820190506150ad6000830185614a65565b6150ba6020830184614a65565b9392505050565b60006150cb6150dc565b90506150d7828261544b565b919050565b6000604051905090565b600067ffffffffffffffff82111561510157615100615583565b5b602082029050602081019050919050565b600067ffffffffffffffff82111561512d5761512c615583565b5b602082029050602081019050919050565b600067ffffffffffffffff82111561515957615158615583565b5b615162826155d4565b9050602081019050919050565b6000819050602082019050919050565b60008190508160005260206000209050919050565b600081519050919050565b600081519050919050565b600081519050919050565b6000602082019050919050565b600082825260208201905092915050565b600082825260208201905092915050565b600082825260208201905092915050565b600081905092915050565b600061520b8261537f565b91506152168361537f565b9250827fffffffffffffffffffffffffffffffffffffffffffffffffffffffffffffffff0382111561524b5761524a6154f6565b5b828201905092915050565b60006152618261537f565b915061526c8361537f565b92508261527c5761527b615525565b5b828204905092915050565b60006152928261537f565b915061529d8361537f565b9250817fffffffffffffffffffffffffffffffffffffffffffffffffffffffffffffffff04831182151516156152d6576152d56154f6565b5b828202905092915050565b60006152ec8261537f565b91506152f78361537f565b92508282101561530a576153096154f6565b5b828203905092915050565b60006153208261535f565b9050919050565b60008115159050919050565b60007fffffffff0000000000000000000000000000000000000000000000000000000082169050919050565b600073ffffffffffffffffffffffffffffffffffffffff82169050919050565b6000819050919050565b60006153948261537f565b9050919050565b60006153a68261537f565b9050919050565b82818337600083830152505050565b60005b838110156153da5780820151818401526020810190506153bf565b838111156153e9576000848401525b50505050565b60006153fa8261537f565b9150600082141561540e5761540d6154f6565b5b600182039050919050565b6000600282049050600182168061543157607f821691505b6020821081141561544557615444615554565b5b50919050565b615454826155d4565b810181811067ffffffffffffffff8211171561547357615472615583565b5b80604052505050565b60006154878261537f565b91507fffffffffffffffffffffffffffffffffffffffffffffffffffffffffffffffff8214156154ba576154b96154f6565b5b600182019050919050565b60006154d08261537f565b91506154db8361537f565b9250826154eb576154ea615525565b5b828206905092915050565b7f4e487b7100000000000000000000000000000000000000000000000000000000600052601160045260246000fd5b7f4e487b7100000000000000000000000000000000000000000000000000000000600052601260045260246000fd5b7f4e487b7100000000000000000000000000000000000000000000000000000000600052602260045260246000fd5b7f4e487b7100000000000000000000000000000000000000000000000000000000600052604160045260246000fd5b600060033d11156155d15760046000803e6155ce6000516155e5565b90505b90565b6000601f19601f8301169050919050565b60008160e01c9050919050565b7f455243313135353a207472616e7366657220746f206e6f6e204552433131353560008201527f526563656976657220696d706c656d656e746572000000000000000000000000602082015250565b7f455243313135353a204552433131353552656365697665722072656a6563746560008201527f6420746f6b656e73000000000000000000000000000000000000000000000000602082015250565b7f50726573616c6520686173206e6f742073746172746564000000000000000000600082015250565b7f455243313135353a2062616c616e636520717565727920666f7220746865207a60008201527f65726f2061646472657373000000000000000000000000000000000000000000602082015250565b7f4f776e61626c653a206e6577206f776e657220697320746865207a65726f206160008201527f6464726573730000000000000000000000000000000000000000000000000000602082015250565b7f455243313135353a206275726e20616d6f756e7420657863656564732062616c60008201527f616e636500000000000000000000000000000000000000000000000000000000602082015250565b7f455243313135353a2063616c6c6572206973206e6f74206f776e6572206e6f7260008201527f20617070726f7665640000000000000000000000000000000000000000000000602082015250565b7f596f7520646f206e6f74206f776e2074686520466f7572496e4f6e6520546f6b60008201527f656e000000000000000000000000000000000000000000000000000000000000602082015250565b7f455243313135353a207472616e7366657220746f20746865207a65726f20616460008201527f6472657373000000000000000000000000000000000000000000000000000000602082015250565b7f455243313135353a207472616e736665722063616c6c6572206973206e6f742060008201527f6f776e6572206e6f7220617070726f7665640000000000000000000000000000602082015250565b7f455243313135353a206275726e2066726f6d20746865207a65726f206164647260008201527f6573730000000000000000000000000000000000000000000000000000000000602082015250565b7f455243313135353a20696e73756666696369656e742062616c616e636520666f60008201527f72207472616e7366657200000000000000000000000000000000000000000000602082015250565b7f2e6a736f6e000000000000000000000000000000000000000000000000000000600082015250565b7f4f776e61626c653a2063616c6c6572206973206e6f7420746865206f776e6572600082015250565b7f50726573616c65206973206163746976652062757420796f752772652061726560008201527f206e6f742061205649462c207761697420666f72207075626c69632073616c65602082015250565b7f4e6f7420656e6f7567682062756e646c657320666f722067697665617761797360008201527f2e00000000000000000000000000000000000000000000000000000000000000602082015250565b7f43616e6e6f74207075726368617365206d6f7265207468616e2074776f20627560008201527f6e646c65207065722073656e6465720000000000000000000000000000000000602082015250565b7f4e6f20657468657220696e20636f6e7472616374000000000000000000000000600082015250565b7f416c6c2042756e646c65732068617665206265656e206d696e74656400000000600082015250565b7f596f7520646f206e6f74206f776e2074686520467275697420546f6b656e0000600082015250565b7f455243313135353a2073657474696e6720617070726f76616c2073746174757360008201527f20666f722073656c660000000000000000000000000000000000000000000000602082015250565b7f455243313135353a206163636f756e747320616e6420696473206c656e67746860008201527f206d69736d617463680000000000000000000000000000000000000000000000602082015250565b7f455243313135353a2069647320616e6420616d6f756e7473206c656e6774682060008201527f6d69736d61746368000000000000000000000000000000000000000000000000602082015250565b7f455243313135353a206d696e7420746f20746865207a65726f2061646472657360008201527f7300000000000000000000000000000000000000000000000000000000000000602082015250565b7f5265656e7472616e637947756172643a207265656e7472616e742063616c6c00600082015250565b7f4e6f7420656e6f756768206574686572207761732073656e7420746f2074726160008201527f6e73616374696f6e000000000000000000000000000000000000000000000000602082015250565b7f5175616472616e74206f7574206f662072616e67650000000000000000000000600082015250565b7f596f7520646f206e6f74206f776e206120526563656970740000000000000000600082015250565b600060443d1015615d5057615dd3565b615d586150dc565b60043d036004823e80513d602482011167ffffffffffffffff82111715615d80575050615dd3565b808201805167ffffffffffffffff811115615d9e5750505050615dd3565b80602083010160043d038501811115615dbb575050505050615dd3565b615dca8260200185018661544b565b82955050505050505b90565b615ddf81615315565b8114615dea57600080fd5b50565b615df681615327565b8114615e0157600080fd5b50565b615e0d81615333565b8114615e1857600080fd5b50565b615e248161537f565b8114615e2f57600080fd5b5056fea26469706673582212206880edf54fff243bec5d26b6b0a59afec1fcce56e90f0610b918d11822f47a1f64736f6c63430008040033",
  "linkReferences": {},
  "deployedLinkReferences": {}
}