{
  "_format": "hh-sol-artifact-1",
  "contractName": "DemoOptimized",
  "sourceName": "contracts/DemoOptimized.sol",
  "abi": [
    {
      "inputs": [
        {
          "internalType": "string",
          "name": "uri1",
          "type": "string"
        },
        {
          "internalType": "string",
          "name": "uriPreview1",
          "type": "string"
        }
      ],
      "stateMutability": "nonpayable",
      "type": "constructor"
    },
    {
      "anonymous": false,
      "inputs": [
        {
          "indexed": true,
          "internalType": "address",
          "name": "account",
          "type": "address"
        },
        {
          "indexed": true,
          "internalType": "address",
          "name": "operator",
          "type": "address"
        },
        {
          "indexed": false,
          "internalType": "bool",
          "name": "approved",
          "type": "bool"
        }
      ],
      "name": "ApprovalForAll",
      "type": "event"
    },
    {
      "anonymous": false,
      "inputs": [
        {
          "indexed": false,
          "internalType": "address",
          "name": "_sender",
          "type": "address"
        },
        {
          "indexed": false,
          "internalType": "uint256",
          "name": "_fourInOneToken",
          "type": "uint256"
        },
        {
          "indexed": false,
          "internalType": "uint256",
          "name": "_fruitTokenId",
          "type": "uint256"
        },
        {
          "indexed": false,
          "internalType": "uint256",
          "name": "_quadrant",
          "type": "uint256"
        }
      ],
      "name": "ChangeFourInOne",
      "type": "event"
    },
    {
      "anonymous": false,
      "inputs": [
        {
          "indexed": false,
          "internalType": "address",
          "name": "_sender",
          "type": "address"
        },
        {
          "indexed": false,
          "internalType": "uint256",
          "name": "_supply",
          "type": "uint256"
        }
      ],
      "name": "IncreaseBundleSupply",
      "type": "event"
    },
    {
      "anonymous": false,
      "inputs": [
        {
          "indexed": false,
          "internalType": "address",
          "name": "_sender",
          "type": "address"
        },
        {
          "indexed": false,
          "internalType": "uint256",
          "name": "_supply",
          "type": "uint256"
        }
      ],
      "name": "IncreaseReceiptSupply",
      "type": "event"
    },
    {
      "anonymous": false,
      "inputs": [
        {
          "indexed": true,
          "internalType": "address",
          "name": "previousOwner",
          "type": "address"
        },
        {
          "indexed": true,
          "internalType": "address",
          "name": "newOwner",
          "type": "address"
        }
      ],
      "name": "OwnershipTransferred",
      "type": "event"
    },
    {
      "anonymous": false,
      "inputs": [
        {
          "indexed": false,
          "internalType": "address",
          "name": "_sender",
          "type": "address"
        },
        {
          "indexed": false,
          "internalType": "uint256",
          "name": "_gwei",
          "type": "uint256"
        }
      ],
      "name": "PricePerBundle",
      "type": "event"
    },
    {
      "anonymous": false,
      "inputs": [
        {
          "indexed": false,
          "internalType": "uint256",
          "name": "_presaleStartTime",
          "type": "uint256"
        },
        {
          "indexed": false,
          "internalType": "uint256",
          "name": "_saleStartTime",
          "type": "uint256"
        }
      ],
      "name": "SaleHasBeenSet",
      "type": "event"
    },
    {
      "anonymous": false,
      "inputs": [
        {
          "indexed": true,
          "internalType": "address",
          "name": "operator",
          "type": "address"
        },
        {
          "indexed": true,
          "internalType": "address",
          "name": "from",
          "type": "address"
        },
        {
          "indexed": true,
          "internalType": "address",
          "name": "to",
          "type": "address"
        },
        {
          "indexed": false,
          "internalType": "uint256[]",
          "name": "ids",
          "type": "uint256[]"
        },
        {
          "indexed": false,
          "internalType": "uint256[]",
          "name": "values",
          "type": "uint256[]"
        }
      ],
      "name": "TransferBatch",
      "type": "event"
    },
    {
      "anonymous": false,
      "inputs": [
        {
          "indexed": true,
          "internalType": "address",
          "name": "operator",
          "type": "address"
        },
        {
          "indexed": true,
          "internalType": "address",
          "name": "from",
          "type": "address"
        },
        {
          "indexed": true,
          "internalType": "address",
          "name": "to",
          "type": "address"
        },
        {
          "indexed": false,
          "internalType": "uint256",
          "name": "id",
          "type": "uint256"
        },
        {
          "indexed": false,
          "internalType": "uint256",
          "name": "value",
          "type": "uint256"
        }
      ],
      "name": "TransferSingle",
      "type": "event"
    },
    {
      "anonymous": false,
      "inputs": [
        {
          "indexed": false,
          "internalType": "string",
          "name": "value",
          "type": "string"
        },
        {
          "indexed": true,
          "internalType": "uint256",
          "name": "id",
          "type": "uint256"
        }
      ],
      "name": "URI",
      "type": "event"
    },
    {
      "inputs": [
        {
          "internalType": "address",
          "name": "account",
          "type": "address"
        },
        {
          "internalType": "uint256",
          "name": "id",
          "type": "uint256"
        }
      ],
      "name": "balanceOf",
      "outputs": [
        {
          "internalType": "uint256",
          "name": "",
          "type": "uint256"
        }
      ],
      "stateMutability": "view",
      "type": "function"
    },
    {
      "inputs": [
        {
          "internalType": "address[]",
          "name": "accounts",
          "type": "address[]"
        },
        {
          "internalType": "uint256[]",
          "name": "ids",
          "type": "uint256[]"
        }
      ],
      "name": "balanceOfBatch",
      "outputs": [
        {
          "internalType": "uint256[]",
          "name": "",
          "type": "uint256[]"
        }
      ],
      "stateMutability": "view",
      "type": "function"
    },
    {
      "inputs": [
        {
          "internalType": "uint256",
          "name": "_fruitTokenId",
          "type": "uint256"
        },
        {
          "internalType": "uint256",
          "name": "_fourInOneTokenId",
          "type": "uint256"
        },
        {
          "internalType": "uint256",
          "name": "_quadrant",
          "type": "uint256"
        }
      ],
      "name": "cuteeExchange",
      "outputs": [],
      "stateMutability": "nonpayable",
      "type": "function"
    },
    {
      "inputs": [],
      "name": "getBalance",
      "outputs": [
        {
          "internalType": "uint256",
          "name": "",
          "type": "uint256"
        }
      ],
      "stateMutability": "view",
      "type": "function"
    },
    {
      "inputs": [],
      "name": "getBundleBalance",
      "outputs": [
        {
          "internalType": "uint256",
          "name": "",
          "type": "uint256"
        }
      ],
      "stateMutability": "view",
      "type": "function"
    },
    {
      "inputs": [],
      "name": "getBundleSupply",
      "outputs": [
        {
          "internalType": "uint256",
          "name": "",
          "type": "uint256"
        }
      ],
      "stateMutability": "view",
      "type": "function"
    },
    {
      "inputs": [],
      "name": "getPricePerBundle",
      "outputs": [
        {
          "internalType": "uint256",
          "name": "",
          "type": "uint256"
        }
      ],
      "stateMutability": "view",
      "type": "function"
    },
    {
      "inputs": [],
      "name": "getReceiptSupply",
      "outputs": [
        {
          "internalType": "uint256",
          "name": "",
          "type": "uint256"
        }
      ],
      "stateMutability": "view",
      "type": "function"
    },
    {
      "inputs": [],
      "name": "getVIFCount",
      "outputs": [
        {
          "internalType": "string",
          "name": "",
          "type": "string"
        }
      ],
      "stateMutability": "view",
      "type": "function"
    },
    {
      "inputs": [
        {
          "internalType": "address",
          "name": "_address",
          "type": "address"
        }
      ],
      "name": "getVIFMember",
      "outputs": [
        {
          "internalType": "address",
          "name": "",
          "type": "address"
        },
        {
          "internalType": "string",
          "name": "",
          "type": "string"
        }
      ],
      "stateMutability": "view",
      "type": "function"
    },
    {
      "inputs": [
        {
          "internalType": "address[]",
          "name": "_to",
          "type": "address[]"
        }
      ],
      "name": "giveawayBundle",
      "outputs": [],
      "stateMutability": "nonpayable",
      "type": "function"
    },
    {
      "inputs": [
        {
          "internalType": "uint256",
          "name": "_supply",
          "type": "uint256"
        }
      ],
      "name": "increaseReceiptSupply",
      "outputs": [],
      "stateMutability": "nonpayable",
      "type": "function"
    },
    {
      "inputs": [
        {
          "internalType": "address",
          "name": "account",
          "type": "address"
        },
        {
          "internalType": "address",
          "name": "operator",
          "type": "address"
        }
      ],
      "name": "isApprovedForAll",
      "outputs": [
        {
          "internalType": "bool",
          "name": "",
          "type": "bool"
        }
      ],
      "stateMutability": "view",
      "type": "function"
    },
    {
      "inputs": [
        {
          "internalType": "uint256",
          "name": "_quantity",
          "type": "uint256"
        }
      ],
      "name": "mintBundle",
      "outputs": [],
      "stateMutability": "payable",
      "type": "function"
    },
    {
      "inputs": [],
      "name": "owner",
      "outputs": [
        {
          "internalType": "address",
          "name": "",
          "type": "address"
        }
      ],
      "stateMutability": "view",
      "type": "function"
    },
    {
      "inputs": [],
      "name": "renounceOwnership",
      "outputs": [],
      "stateMutability": "nonpayable",
      "type": "function"
    },
    {
      "inputs": [],
      "name": "resetVIF",
      "outputs": [],
      "stateMutability": "nonpayable",
      "type": "function"
    },
    {
      "inputs": [
        {
          "internalType": "address",
          "name": "from",
          "type": "address"
        },
        {
          "internalType": "address",
          "name": "to",
          "type": "address"
        },
        {
          "internalType": "uint256[]",
          "name": "ids",
          "type": "uint256[]"
        },
        {
          "internalType": "uint256[]",
          "name": "amounts",
          "type": "uint256[]"
        },
        {
          "internalType": "bytes",
          "name": "data",
          "type": "bytes"
        }
      ],
      "name": "safeBatchTransferFrom",
      "outputs": [],
      "stateMutability": "nonpayable",
      "type": "function"
    },
    {
      "inputs": [
        {
          "internalType": "address",
          "name": "from",
          "type": "address"
        },
        {
          "internalType": "address",
          "name": "to",
          "type": "address"
        },
        {
          "internalType": "uint256",
          "name": "id",
          "type": "uint256"
        },
        {
          "internalType": "uint256",
          "name": "amount",
          "type": "uint256"
        },
        {
          "internalType": "bytes",
          "name": "data",
          "type": "bytes"
        }
      ],
      "name": "safeTransferFrom",
      "outputs": [],
      "stateMutability": "nonpayable",
      "type": "function"
    },
    {
      "inputs": [
        {
          "internalType": "address",
          "name": "operator",
          "type": "address"
        },
        {
          "internalType": "bool",
          "name": "approved",
          "type": "bool"
        }
      ],
      "name": "setApprovalForAll",
      "outputs": [],
      "stateMutability": "nonpayable",
      "type": "function"
    },
    {
      "inputs": [
        {
          "internalType": "uint256",
          "name": "_bundleSupply",
          "type": "uint256"
        }
      ],
      "name": "setBundleSupply",
      "outputs": [],
      "stateMutability": "nonpayable",
      "type": "function"
    },
    {
      "inputs": [
        {
          "internalType": "uint256",
          "name": "_presaleStartTime",
          "type": "uint256"
        },
        {
          "internalType": "uint256",
          "name": "_timeBetweenSales",
          "type": "uint256"
        }
      ],
      "name": "setPresaleStartTime",
      "outputs": [],
      "stateMutability": "nonpayable",
      "type": "function"
    },
    {
      "inputs": [
        {
          "internalType": "uint256",
          "name": "_gwei",
          "type": "uint256"
        }
      ],
      "name": "setPricePerBundle",
      "outputs": [],
      "stateMutability": "nonpayable",
      "type": "function"
    },
    {
      "inputs": [
        {
          "internalType": "uint256",
          "name": "_fruitTokenIdLowerParam",
          "type": "uint256"
        },
        {
          "internalType": "uint256",
          "name": "_fourInOneTokenIdLowerParam",
          "type": "uint256"
        }
      ],
      "name": "setSeasonLowerParams",
      "outputs": [],
      "stateMutability": "nonpayable",
      "type": "function"
    },
    {
      "inputs": [
        {
          "internalType": "string",
          "name": "uriSetter",
          "type": "string"
        },
        {
          "internalType": "string",
          "name": "uriPreviewSetter",
          "type": "string"
        }
      ],
      "name": "setUri",
      "outputs": [],
      "stateMutability": "nonpayable",
      "type": "function"
    },
    {
      "inputs": [
        {
          "internalType": "address[]",
          "name": "_vifs",
          "type": "address[]"
        }
      ],
      "name": "setVIFMember",
      "outputs": [],
      "stateMutability": "nonpayable",
      "type": "function"
    },
    {
      "inputs": [
        {
          "internalType": "bytes4",
          "name": "interfaceId",
          "type": "bytes4"
        }
      ],
      "name": "supportsInterface",
      "outputs": [
        {
          "internalType": "bool",
          "name": "",
          "type": "bool"
        }
      ],
      "stateMutability": "view",
      "type": "function"
    },
    {
      "inputs": [
        {
          "internalType": "address",
          "name": "newOwner",
          "type": "address"
        }
      ],
      "name": "transferOwnership",
      "outputs": [],
      "stateMutability": "nonpayable",
      "type": "function"
    },
    {
      "inputs": [
        {
          "internalType": "uint256",
          "name": "_tokenId",
          "type": "uint256"
        }
      ],
      "name": "uri",
      "outputs": [
        {
          "internalType": "string",
          "name": "",
          "type": "string"
        }
      ],
      "stateMutability": "view",
      "type": "function"
    },
    {
      "inputs": [],
      "name": "withdrawBalance",
      "outputs": [],
      "stateMutability": "nonpayable",
      "type": "function"
    }
  ],
  "bytecode": "0x60806040526001600455620186a16005556103e8600755610bb860085567016345785d8a00006009553480156200003557600080fd5b50604051620067233803806200672383398181016040528101906200005b9190620002f4565b6200007b6200006f620000ce60201b60201c565b620000d660201b60201c565b60016003819055506000600a819055506201869f600c81905550620186a0600b81905550620f423f600d819055506374e66bcc600e81905550620000c682826200019c60201b60201c565b5050620004d7565b600033905090565b6000600260009054906101000a900473ffffffffffffffffffffffffffffffffffffffff16905081600260006101000a81548173ffffffffffffffffffffffffffffffffffffffff021916908373ffffffffffffffffffffffffffffffffffffffff1602179055508173ffffffffffffffffffffffffffffffffffffffff168173ffffffffffffffffffffffffffffffffffffffff167f8be0079c531659141344cd1fd0a4f28419497f9722a3daafe3b4186f6b6457e060405160405180910390a35050565b8160109080519060200190620001b4929190620001d2565b508060119080519060200190620001cd929190620001d2565b505050565b828054620001e090620003fc565b90600052602060002090601f01602090048101928262000204576000855562000250565b82601f106200021f57805160ff191683800117855562000250565b8280016001018555821562000250579182015b828111156200024f57825182559160200191906001019062000232565b5b5090506200025f919062000263565b5090565b5b808211156200027e57600081600090555060010162000264565b5090565b600062000299620002938462000390565b62000367565b905082815260208101848484011115620002b257600080fd5b620002bf848285620003c6565b509392505050565b600082601f830112620002d957600080fd5b8151620002eb84826020860162000282565b91505092915050565b600080604083850312156200030857600080fd5b600083015167ffffffffffffffff8111156200032357600080fd5b6200033185828601620002c7565b925050602083015167ffffffffffffffff8111156200034f57600080fd5b6200035d85828601620002c7565b9150509250929050565b60006200037362000386565b905062000381828262000432565b919050565b6000604051905090565b600067ffffffffffffffff821115620003ae57620003ad62000497565b5b620003b982620004c6565b9050602081019050919050565b60005b83811015620003e6578082015181840152602081019050620003c9565b83811115620003f6576000848401525b50505050565b600060028204905060018216806200041557607f821691505b602082108114156200042c576200042b62000468565b5b50919050565b6200043d82620004c6565b810181811067ffffffffffffffff821117156200045f576200045e62000497565b5b80604052505050565b7f4e487b7100000000000000000000000000000000000000000000000000000000600052602260045260246000fd5b7f4e487b7100000000000000000000000000000000000000000000000000000000600052604160045260246000fd5b6000601f19601f8301169050919050565b61623c80620004e76000396000f3fe6080604052600436106101cc5760003560e01c8063715018a6116100f75780639d56c2ea11610095578063e985e9c511610064578063e985e9c514610629578063f242432a14610666578063f2fde38b1461068f578063f532be15146106b8576101cc565b80639d56c2ea14610583578063a22cb465146105ac578063b08504e9146105d5578063c176e80814610600576101cc565b80638110b32f116100d15780638110b32f146104dd57806383fc30671461050657806389b73ec01461052f5780638da5cb5b14610558576101cc565b8063715018a61461047057806376937cef146104875780637b1b1bb0146104b2576101cc565b80632eb2c2d61161016f5780634e1273f41161013e5780634e1273f4146103c8578063553d0107146104055780635f4c5b251461042e5780635fd8c71014610459576101cc565b80632eb2c2d6146103435780633b55eab01461036c5780633c5a52ed146103835780633efc52001461039f576101cc565b80630e89341c116101ab5780630e89341c1461027457806312065fe0146102b157806312a60517146102dc5780632c92267d14610305576101cc565b8062fdd58e146101d157806301ffc9a71461020e5780630948b38a1461024b575b600080fd5b3480156101dd57600080fd5b506101f860048036038101906101f391906145b3565b6106e3565b60405161020591906153f5565b60405180910390f35b34801561021a57600080fd5b50610235600480360381019061023091906146e1565b6107ac565b6040516102429190615038565b60405180910390f35b34801561025757600080fd5b50610272600480360381019061026d91906147c8565b61088e565b005b34801561028057600080fd5b5061029b6004803603810190610296919061479f565b610964565b6040516102a89190615053565b60405180910390f35b3480156102bd57600080fd5b506102c6610a5b565b6040516102d391906153f5565b60405180910390f35b3480156102e857600080fd5b5061030360048036038101906102fe91906147c8565b610a63565b005b34801561031157600080fd5b5061032c600480360381019061032791906143c4565b610af1565b60405161033a929190614f41565b60405180910390f35b34801561034f57600080fd5b5061036a60048036038101906103659190614429565b610b66565b005b34801561037857600080fd5b50610381610c07565b005b61039d6004803603810190610398919061479f565b610d60565b005b3480156103ab57600080fd5b506103c660048036038101906103c1919061479f565b611571565b005b3480156103d457600080fd5b506103ef60048036038101906103ea9190614675565b611630565b6040516103fc9190614fdf565b60405180910390f35b34801561041157600080fd5b5061042c6004803603810190610427919061479f565b6117e1565b005b34801561043a57600080fd5b506104436118a0565b60405161045091906153f5565b60405180910390f35b34801561046557600080fd5b5061046e6118aa565b005b34801561047c57600080fd5b506104856119b2565b005b34801561049357600080fd5b5061049c611a3a565b6040516104a991906153f5565b60405180910390f35b3480156104be57600080fd5b506104c7611a44565b6040516104d491906153f5565b60405180910390f35b3480156104e957600080fd5b5061050460048036038101906104ff9190614804565b611a4e565b005b34801561051257600080fd5b5061052d6004803603810190610528919061479f565b612087565b005b34801561053b57600080fd5b5061055660048036038101906105519190614733565b612153565b005b34801561056457600080fd5b5061056d612201565b60405161057a9190614e64565b60405180910390f35b34801561058f57600080fd5b506105aa60048036038101906105a59190614634565b61222b565b005b3480156105b857600080fd5b506105d360048036038101906105ce9190614577565b612480565b005b3480156105e157600080fd5b506105ea612496565b6040516105f791906153f5565b60405180910390f35b34801561060c57600080fd5b50610627600480360381019061062291906145ef565b6124dd565b005b34801561063557600080fd5b50610650600480360381019061064b91906143ed565b612b31565b60405161065d9190615038565b60405180910390f35b34801561067257600080fd5b5061068d600480360381019061068891906144e8565b612bc5565b005b34801561069b57600080fd5b506106b660048036038101906106b191906143c4565b612c66565b005b3480156106c457600080fd5b506106cd612d5e565b6040516106da9190615053565b60405180910390f35b60008073ffffffffffffffffffffffffffffffffffffffff168373ffffffffffffffffffffffffffffffffffffffff161415610754576040517f08c379a000000000000000000000000000000000000000000000000000000000815260040161074b906150d5565b60405180910390fd5b60008083815260200190815260200160002060008473ffffffffffffffffffffffffffffffffffffffff1673ffffffffffffffffffffffffffffffffffffffff16815260200190815260200160002054905092915050565b60007fd9b67a26000000000000000000000000000000000000000000000000000000007bffffffffffffffffffffffffffffffffffffffffffffffffffffffff1916827bffffffffffffffffffffffffffffffffffffffffffffffffffffffff1916148061087757507f0e89341c000000000000000000000000000000000000000000000000000000007bffffffffffffffffffffffffffffffffffffffffffffffffffffffff1916827bffffffffffffffffffffffffffffffffffffffffffffffffffffffff1916145b80610887575061088682612e0e565b5b9050919050565b610896612e78565b73ffffffffffffffffffffffffffffffffffffffff166108b4612201565b73ffffffffffffffffffffffffffffffffffffffff161461090a576040517f08c379a0000000000000000000000000000000000000000000000000000000008152600401610901906151f5565b60405180910390fd5b81600e81905550808261091d91906155a9565b600f819055507f88c7c5a177be8b426acec3417df4c4882059c60453b8e02e6c8d16998919e73e600e54600f54604051610958929190615410565b60405180910390a15050565b6060600a54821180156109785750600c5482105b806109915750600b54821180156109905750600d5482105b5b15610a2857601180546109a39061579e565b80601f01602080910402602001604051908101604052809291908181526020018280546109cf9061579e565b8015610a1c5780601f106109f157610100808354040283529160200191610a1c565b820191906000526020600020905b8154815290600101906020018083116109ff57829003601f168201915b50505050509050610a56565b6010610a3383612e80565b604051602001610a44929190614e35565b60405160208183030381529060405290505b919050565b600047905090565b610a6b612e78565b73ffffffffffffffffffffffffffffffffffffffff16610a89612201565b73ffffffffffffffffffffffffffffffffffffffff1614610adf576040517f08c379a0000000000000000000000000000000000000000000000000000000008152600401610ad6906151f5565b60405180910390fd5b81600a8190555080600b819055505050565b6000606082610b3e601460008673ffffffffffffffffffffffffffffffffffffffff1673ffffffffffffffffffffffffffffffffffffffff16815260200190815260200160002054612e80565b604051602001610b4e9190614e1e565b60405160208183030381529060405291509150915091565b610b6e612e78565b73ffffffffffffffffffffffffffffffffffffffff168573ffffffffffffffffffffffffffffffffffffffff161480610bb45750610bb385610bae612e78565b612b31565b5b610bf3576040517f08c379a0000000000000000000000000000000000000000000000000000000008152600401610bea90615195565b60405180910390fd5b610c00858585858561302d565b5050505050565b610c0f612e78565b73ffffffffffffffffffffffffffffffffffffffff16610c2d612201565b73ffffffffffffffffffffffffffffffffffffffff1614610c83576040517f08c379a0000000000000000000000000000000000000000000000000000000008152600401610c7a906151f5565b60405180910390fd5b60005b601280549050811015610d4f5760006014600060128481548110610cd3577f4e487b7100000000000000000000000000000000000000000000000000000000600052603260045260246000fd5b9060005260206000200160009054906101000a900473ffffffffffffffffffffffffffffffffffffffff1673ffffffffffffffffffffffffffffffffffffffff1673ffffffffffffffffffffffffffffffffffffffff168152602001908152602001600020819055508080610d4790615801565b915050610c86565b5060126000610d5e9190614051565b565b600e544211610da4576040517f08c379a0000000000000000000000000000000000000000000000000000000008152600401610d9b906150b5565b60405180910390fd5b600e5442118015610db65750600f5442105b15610e3e576000601460003373ffffffffffffffffffffffffffffffffffffffff1673ffffffffffffffffffffffffffffffffffffffff1681526020019081526020016000205411610e3d576040517f08c379a0000000000000000000000000000000000000000000000000000000008152600401610e3490615235565b60405180910390fd5b5b60026003541415610e84576040517f08c379a0000000000000000000000000000000000000000000000000000000008152600401610e7b90615375565b60405180910390fd5b600260038190555060038110610ecf576040517f08c379a0000000000000000000000000000000000000000000000000000000008152600401610ec690615215565b60405180910390fd5b8067016345785d8a0000610ee39190615630565b341015610f25576040517f08c379a0000000000000000000000000000000000000000000000000000000008152600401610f1c90615395565b60405180910390fd5b6003601360003373ffffffffffffffffffffffffffffffffffffffff1673ffffffffffffffffffffffffffffffffffffffff1681526020019081526020016000205410610fa7576040517f08c379a0000000000000000000000000000000000000000000000000000000008152600401610f9e906152f5565b60405180910390fd5b600081600754610fb7919061568a565b1015610ff8576040517f08c379a0000000000000000000000000000000000000000000000000000000008152600401610fef90615275565b60405180910390fd5b6000600667ffffffffffffffff81111561103b577f4e487b7100000000000000000000000000000000000000000000000000000000600052604160045260246000fd5b6040519080825280602002602001820160405280156110695781602001602082028036833780820191505090505b5090506000600667ffffffffffffffff8111156110af577f4e487b7100000000000000000000000000000000000000000000000000000000600052604160045260246000fd5b6040519080825280602002602001820160405280156110dd5781602001602082028036833780820191505090505b50905060005b8381101561156357600183600081518110611127577f4e487b7100000000000000000000000000000000000000000000000000000000600052603260045260246000fd5b60200260200101818152505060018360018151811061116f577f4e487b7100000000000000000000000000000000000000000000000000000000600052603260045260246000fd5b6020026020010181815250506001836002815181106111b7577f4e487b7100000000000000000000000000000000000000000000000000000000600052603260045260246000fd5b6020026020010181815250506001836003815181106111ff577f4e487b7100000000000000000000000000000000000000000000000000000000600052603260045260246000fd5b602002602001018181525050600183600481518110611247577f4e487b7100000000000000000000000000000000000000000000000000000000600052603260045260246000fd5b60200260200101818152505060038360058151811061128f577f4e487b7100000000000000000000000000000000000000000000000000000000600052603260045260246000fd5b602002602001018181525050600454826000815181106112d8577f4e487b7100000000000000000000000000000000000000000000000000000000600052603260045260246000fd5b602002602001018181525050600460008154809291906112f790615801565b919050555060045482600181518110611339577f4e487b7100000000000000000000000000000000000000000000000000000000600052603260045260246000fd5b6020026020010181815250506004600081548092919061135890615801565b91905055506004548260028151811061139a577f4e487b7100000000000000000000000000000000000000000000000000000000600052603260045260246000fd5b602002602001018181525050600460008154809291906113b990615801565b9190505550600454826003815181106113fb577f4e487b7100000000000000000000000000000000000000000000000000000000600052603260045260246000fd5b6020026020010181815250506004600081548092919061141a90615801565b91905055506005548260048151811061145c577f4e487b7100000000000000000000000000000000000000000000000000000000600052603260045260246000fd5b6020026020010181815250506005600081548092919061147b90615801565b91905055506000826005815181106114bc577f4e487b7100000000000000000000000000000000000000000000000000000000600052603260045260246000fd5b602002602001018181525050601360003373ffffffffffffffffffffffffffffffffffffffff1673ffffffffffffffffffffffffffffffffffffffff168152602001908152602001600020600081548092919061151890615801565b91905055506115383383856040518060200160405280600081525061337f565b6007600081548092919061154b90615774565b9190505550808061155b90615801565b9150506110e3565b505050600160038190555050565b611579612e78565b73ffffffffffffffffffffffffffffffffffffffff16611597612201565b73ffffffffffffffffffffffffffffffffffffffff16146115ed576040517f08c379a00000000000000000000000000000000000000000000000000000000081526004016115e4906151f5565b60405180910390fd5b806009819055507fa38e66eb2f94412ae516060322caf607239c4ec9f487e5c1f69e3e1b31cce0283382604051611625929190614f71565b60405180910390a150565b60608151835114611676576040517f08c379a000000000000000000000000000000000000000000000000000000000815260040161166d90615315565b60405180910390fd5b6000835167ffffffffffffffff8111156116b9577f4e487b7100000000000000000000000000000000000000000000000000000000600052604160045260246000fd5b6040519080825280602002602001820160405280156116e75781602001602082028036833780820191505090505b50905060005b84518110156117d657611780858281518110611732577f4e487b7100000000000000000000000000000000000000000000000000000000600052603260045260246000fd5b6020026020010151858381518110611773577f4e487b7100000000000000000000000000000000000000000000000000000000600052603260045260246000fd5b60200260200101516106e3565b8282815181106117b9577f4e487b7100000000000000000000000000000000000000000000000000000000600052603260045260246000fd5b602002602001018181525050806117cf90615801565b90506116ed565b508091505092915050565b6117e9612e78565b73ffffffffffffffffffffffffffffffffffffffff16611807612201565b73ffffffffffffffffffffffffffffffffffffffff161461185d576040517f08c379a0000000000000000000000000000000000000000000000000000000008152600401611854906151f5565b60405180910390fd5b806007819055507fec1b0f16852f6bc8e2714e46680cdae05663378c4304e6e3bb25e5a82c7ba3503382604051611895929190614f71565b60405180910390a150565b6000600854905090565b6118b2612e78565b73ffffffffffffffffffffffffffffffffffffffff166118d0612201565b73ffffffffffffffffffffffffffffffffffffffff1614611926576040517f08c379a000000000000000000000000000000000000000000000000000000000815260040161191d906151f5565b60405180910390fd5b60004711611969576040517f08c379a000000000000000000000000000000000000000000000000000000000815260040161196090615295565b60405180910390fd5b3373ffffffffffffffffffffffffffffffffffffffff166108fc479081150290604051600060405180830381858888f193505050501580156119af573d6000803e3d6000fd5b50565b6119ba612e78565b73ffffffffffffffffffffffffffffffffffffffff166119d8612201565b73ffffffffffffffffffffffffffffffffffffffff1614611a2e576040517f08c379a0000000000000000000000000000000000000000000000000000000008152600401611a25906151f5565b60405180910390fd5b611a3860006135da565b565b6000600754905090565b6000600954905090565b60026003541415611a94576040517f08c379a0000000000000000000000000000000000000000000000000000000008152600401611a8b90615375565b60405180910390fd5b600260038190555060058110611adf576040517f08c379a0000000000000000000000000000000000000000000000000000000008152600401611ad6906153b5565b60405180910390fd5b6000611ae9612e78565b90506000600367ffffffffffffffff811115611b2e577f4e487b7100000000000000000000000000000000000000000000000000000000600052604160045260246000fd5b604051908082528060200260200182016040528015611b5c5781602001602082028036833780820191505090505b5090506000600367ffffffffffffffff811115611ba2577f4e487b7100000000000000000000000000000000000000000000000000000000600052604160045260246000fd5b604051908082528060200260200182016040528015611bd05781602001602082028036833780820191505090505b5090506000600367ffffffffffffffff811115611c16577f4e487b7100000000000000000000000000000000000000000000000000000000600052604160045260246000fd5b604051908082528060200260200182016040528015611c445781602001602082028036833780820191505090505b5090508383600081518110611c82577f4e487b7100000000000000000000000000000000000000000000000000000000600052603260045260246000fd5b602002602001019073ffffffffffffffffffffffffffffffffffffffff16908173ffffffffffffffffffffffffffffffffffffffff16815250508383600181518110611cf7577f4e487b7100000000000000000000000000000000000000000000000000000000600052603260045260246000fd5b602002602001019073ffffffffffffffffffffffffffffffffffffffff16908173ffffffffffffffffffffffffffffffffffffffff16815250508383600281518110611d6c577f4e487b7100000000000000000000000000000000000000000000000000000000600052603260045260246000fd5b602002602001019073ffffffffffffffffffffffffffffffffffffffff16908173ffffffffffffffffffffffffffffffffffffffff16815250508682600081518110611de1577f4e487b7100000000000000000000000000000000000000000000000000000000600052603260045260246000fd5b6020026020010181815250508582600181518110611e28577f4e487b7100000000000000000000000000000000000000000000000000000000600052603260045260246000fd5b602002602001018181525050600082600281518110611e70577f4e487b7100000000000000000000000000000000000000000000000000000000600052603260045260246000fd5b602002602001018181525050611e868383611630565b9050600081600081518110611ec4577f4e487b7100000000000000000000000000000000000000000000000000000000600052603260045260246000fd5b602002602001015111611f0c576040517f08c379a0000000000000000000000000000000000000000000000000000000008152600401611f03906152b5565b60405180910390fd5b600081600181518110611f48577f4e487b7100000000000000000000000000000000000000000000000000000000600052603260045260246000fd5b602002602001015111611f90576040517f08c379a0000000000000000000000000000000000000000000000000000000008152600401611f8790615155565b60405180910390fd5b600081600281518110611fcc577f4e487b7100000000000000000000000000000000000000000000000000000000600052603260045260246000fd5b602002602001015111612014576040517f08c379a000000000000000000000000000000000000000000000000000000000815260040161200b906153d5565b60405180910390fd5b7f31a355e7880e71f29b75aa7c71ce44c620458b346b2d8c8f1740cb082134d052848789886040516120499493929190614f9a565b60405180910390a161205e84600060016136a0565b6008600081548092919061207190615774565b9190505550505050506001600381905550505050565b61208f612e78565b73ffffffffffffffffffffffffffffffffffffffff166120ad612201565b73ffffffffffffffffffffffffffffffffffffffff1614612103576040517f08c379a00000000000000000000000000000000000000000000000000000000081526004016120fa906151f5565b60405180910390fd5b8060085461211191906155a9565b6008819055507fe3d47dee33b959cc59941f840525125123544e1f194b235f340f0c6147697ac33382604051612148929190614f71565b60405180910390a150565b61215b612e78565b73ffffffffffffffffffffffffffffffffffffffff16612179612201565b73ffffffffffffffffffffffffffffffffffffffff16146121cf576040517f08c379a00000000000000000000000000000000000000000000000000000000081526004016121c6906151f5565b60405180910390fd5b81601090805190602001906121e5929190614072565b5080601190805190602001906121fc929190614072565b505050565b6000600260009054906101000a900473ffffffffffffffffffffffffffffffffffffffff16905090565b612233612e78565b73ffffffffffffffffffffffffffffffffffffffff16612251612201565b73ffffffffffffffffffffffffffffffffffffffff16146122a7576040517f08c379a000000000000000000000000000000000000000000000000000000000815260040161229e906151f5565b60405180910390fd5b60005b815181101561247c576001601460008484815181106122f2577f4e487b7100000000000000000000000000000000000000000000000000000000600052603260045260246000fd5b602002602001015173ffffffffffffffffffffffffffffffffffffffff1673ffffffffffffffffffffffffffffffffffffffff16815260200190815260200160002054141561234057612469565b60016014600084848151811061237f577f4e487b7100000000000000000000000000000000000000000000000000000000600052603260045260246000fd5b602002602001015173ffffffffffffffffffffffffffffffffffffffff1673ffffffffffffffffffffffffffffffffffffffff168152602001908152602001600020819055506012828281518110612400577f4e487b7100000000000000000000000000000000000000000000000000000000600052603260045260246000fd5b60200260200101519080600181540180825580915050600190039060005260206000200160009091909190916101000a81548173ffffffffffffffffffffffffffffffffffffffff021916908373ffffffffffffffffffffffffffffffffffffffff1602179055505b808061247490615801565b9150506122aa565b5050565b61249261248b612e78565b838361388f565b5050565b6000601360003373ffffffffffffffffffffffffffffffffffffffff1673ffffffffffffffffffffffffffffffffffffffff16815260200190815260200160002054905090565b6124e5612e78565b73ffffffffffffffffffffffffffffffffffffffff16612503612201565b73ffffffffffffffffffffffffffffffffffffffff1614612559576040517f08c379a0000000000000000000000000000000000000000000000000000000008152600401612550906151f5565b60405180910390fd5b60008282905060075461256c919061568a565b10156125ad576040517f08c379a00000000000000000000000000000000000000000000000000000000081526004016125a490615255565b60405180910390fd5b6000600667ffffffffffffffff8111156125f0577f4e487b7100000000000000000000000000000000000000000000000000000000600052604160045260246000fd5b60405190808252806020026020018201604052801561261e5781602001602082028036833780820191505090505b50905060018160008151811061265d577f4e487b7100000000000000000000000000000000000000000000000000000000600052603260045260246000fd5b6020026020010181815250506001816001815181106126a5577f4e487b7100000000000000000000000000000000000000000000000000000000600052603260045260246000fd5b6020026020010181815250506001816002815181106126ed577f4e487b7100000000000000000000000000000000000000000000000000000000600052603260045260246000fd5b602002602001018181525050600181600381518110612735577f4e487b7100000000000000000000000000000000000000000000000000000000600052603260045260246000fd5b60200260200101818152505060018160048151811061277d577f4e487b7100000000000000000000000000000000000000000000000000000000600052603260045260246000fd5b6020026020010181815250506003816005815181106127c5577f4e487b7100000000000000000000000000000000000000000000000000000000600052603260045260246000fd5b6020026020010181815250506000600667ffffffffffffffff811115612814577f4e487b7100000000000000000000000000000000000000000000000000000000600052604160045260246000fd5b6040519080825280602002602001820160405280156128425781602001602082028036833780820191505090505b50905060005b84849050811015612b135760045482600081518110612890577f4e487b7100000000000000000000000000000000000000000000000000000000600052603260045260246000fd5b602002602001018181525050600460008154809291906128af90615801565b9190505550600454826001815181106128f1577f4e487b7100000000000000000000000000000000000000000000000000000000600052603260045260246000fd5b6020026020010181815250506004600081548092919061291090615801565b919050555060045482600281518110612952577f4e487b7100000000000000000000000000000000000000000000000000000000600052603260045260246000fd5b6020026020010181815250506004600081548092919061297190615801565b9190505550600454826003815181106129b3577f4e487b7100000000000000000000000000000000000000000000000000000000600052603260045260246000fd5b602002602001018181525050600460008154809291906129d290615801565b919050555060055482600481518110612a14577f4e487b7100000000000000000000000000000000000000000000000000000000600052603260045260246000fd5b60200260200101818152505060056000815480929190612a3390615801565b9190505550600082600581518110612a74577f4e487b7100000000000000000000000000000000000000000000000000000000600052603260045260246000fd5b602002602001018181525050612ae8858583818110612abc577f4e487b7100000000000000000000000000000000000000000000000000000000600052603260045260246000fd5b9050602002016020810190612ad191906143c4565b83856040518060200160405280600081525061337f565b60076000815480929190612afb90615774565b91905055508080612b0b90615801565b915050612848565b5083839050600654612b2591906155a9565b60068190555050505050565b6000600160008473ffffffffffffffffffffffffffffffffffffffff1673ffffffffffffffffffffffffffffffffffffffff16815260200190815260200160002060008373ffffffffffffffffffffffffffffffffffffffff1673ffffffffffffffffffffffffffffffffffffffff16815260200190815260200160002060009054906101000a900460ff16905092915050565b612bcd612e78565b73ffffffffffffffffffffffffffffffffffffffff168573ffffffffffffffffffffffffffffffffffffffff161480612c135750612c1285612c0d612e78565b612b31565b5b612c52576040517f08c379a0000000000000000000000000000000000000000000000000000000008152600401612c4990615135565b60405180910390fd5b612c5f85858585856139fc565b5050505050565b612c6e612e78565b73ffffffffffffffffffffffffffffffffffffffff16612c8c612201565b73ffffffffffffffffffffffffffffffffffffffff1614612ce2576040517f08c379a0000000000000000000000000000000000000000000000000000000008152600401612cd9906151f5565b60405180910390fd5b600073ffffffffffffffffffffffffffffffffffffffff168173ffffffffffffffffffffffffffffffffffffffff161415612d52576040517f08c379a0000000000000000000000000000000000000000000000000000000008152600401612d49906150f5565b60405180910390fd5b612d5b816135da565b50565b6060612d68612e78565b73ffffffffffffffffffffffffffffffffffffffff16612d86612201565b73ffffffffffffffffffffffffffffffffffffffff1614612ddc576040517f08c379a0000000000000000000000000000000000000000000000000000000008152600401612dd3906151f5565b60405180910390fd5b612dea601280549050612e80565b604051602001612dfa9190614e1e565b604051602081830303815290604052905090565b60007f01ffc9a7000000000000000000000000000000000000000000000000000000007bffffffffffffffffffffffffffffffffffffffffffffffffffffffff1916827bffffffffffffffffffffffffffffffffffffffffffffffffffffffff1916149050919050565b600033905090565b60606000821415612ec8576040518060400160405280600181526020017f30000000000000000000000000000000000000000000000000000000000000008152509050613028565b600082905060005b60008214612efa578080612ee390615801565b915050600a82612ef391906155ff565b9150612ed0565b60008167ffffffffffffffff811115612f3c577f4e487b7100000000000000000000000000000000000000000000000000000000600052604160045260246000fd5b6040519080825280601f01601f191660200182016040528015612f6e5781602001600182028036833780820191505090505b5090505b6000851461302157600182612f87919061568a565b9150600a85612f96919061584a565b6030612fa291906155a9565b60f81b818381518110612fde577f4e487b7100000000000000000000000000000000000000000000000000000000600052603260045260246000fd5b60200101907effffffffffffffffffffffffffffffffffffffffffffffffffffffffffffff1916908160001a905350600a8561301a91906155ff565b9450612f72565b8093505050505b919050565b8151835114613071576040517f08c379a000000000000000000000000000000000000000000000000000000000815260040161306890615335565b60405180910390fd5b600073ffffffffffffffffffffffffffffffffffffffff168473ffffffffffffffffffffffffffffffffffffffff1614156130e1576040517f08c379a00000000000000000000000000000000000000000000000000000000081526004016130d890615175565b60405180910390fd5b60006130eb612e78565b905060005b84518110156132ea576000858281518110613134577f4e487b7100000000000000000000000000000000000000000000000000000000600052603260045260246000fd5b602002602001015190506000858381518110613179577f4e487b7100000000000000000000000000000000000000000000000000000000600052603260045260246000fd5b60200260200101519050600080600084815260200190815260200160002060008b73ffffffffffffffffffffffffffffffffffffffff1673ffffffffffffffffffffffffffffffffffffffff1681526020019081526020016000205490508181101561321a576040517f08c379a0000000000000000000000000000000000000000000000000000000008152600401613211906151d5565b60405180910390fd5b81810360008085815260200190815260200160002060008c73ffffffffffffffffffffffffffffffffffffffff1673ffffffffffffffffffffffffffffffffffffffff168152602001908152602001600020819055508160008085815260200190815260200160002060008b73ffffffffffffffffffffffffffffffffffffffff1673ffffffffffffffffffffffffffffffffffffffff16815260200190815260200160002060008282546132cf91906155a9565b92505081905550505050806132e390615801565b90506130f0565b508473ffffffffffffffffffffffffffffffffffffffff168673ffffffffffffffffffffffffffffffffffffffff168273ffffffffffffffffffffffffffffffffffffffff167f4a39dc06d4c0dbc64b70af90fd698a233a518aa5d07e595d983b8c0526c8f7fb8787604051613361929190615001565b60405180910390a4613377818787878787613c60565b505050505050565b600073ffffffffffffffffffffffffffffffffffffffff168473ffffffffffffffffffffffffffffffffffffffff1614156133ef576040517f08c379a00000000000000000000000000000000000000000000000000000000081526004016133e690615355565b60405180910390fd5b8151835114613433576040517f08c379a000000000000000000000000000000000000000000000000000000000815260040161342a90615335565b60405180910390fd5b600061343d612e78565b905060005b845181101561354457838181518110613484577f4e487b7100000000000000000000000000000000000000000000000000000000600052603260045260246000fd5b60200260200101516000808784815181106134c8577f4e487b7100000000000000000000000000000000000000000000000000000000600052603260045260246000fd5b6020026020010151815260200190815260200160002060008873ffffffffffffffffffffffffffffffffffffffff1673ffffffffffffffffffffffffffffffffffffffff168152602001908152602001600020600082825461352a91906155a9565b92505081905550808061353c90615801565b915050613442565b508473ffffffffffffffffffffffffffffffffffffffff16600073ffffffffffffffffffffffffffffffffffffffff168273ffffffffffffffffffffffffffffffffffffffff167f4a39dc06d4c0dbc64b70af90fd698a233a518aa5d07e595d983b8c0526c8f7fb87876040516135bc929190615001565b60405180910390a46135d381600087878787613c60565b5050505050565b6000600260009054906101000a900473ffffffffffffffffffffffffffffffffffffffff16905081600260006101000a81548173ffffffffffffffffffffffffffffffffffffffff021916908373ffffffffffffffffffffffffffffffffffffffff1602179055508173ffffffffffffffffffffffffffffffffffffffff168173ffffffffffffffffffffffffffffffffffffffff167f8be0079c531659141344cd1fd0a4f28419497f9722a3daafe3b4186f6b6457e060405160405180910390a35050565b600073ffffffffffffffffffffffffffffffffffffffff168373ffffffffffffffffffffffffffffffffffffffff161415613710576040517f08c379a0000000000000000000000000000000000000000000000000000000008152600401613707906151b5565b60405180910390fd5b600061371a612e78565b9050600080600085815260200190815260200160002060008673ffffffffffffffffffffffffffffffffffffffff1673ffffffffffffffffffffffffffffffffffffffff168152602001908152602001600020549050828110156137b3576040517f08c379a00000000000000000000000000000000000000000000000000000000081526004016137aa90615115565b60405180910390fd5b82810360008086815260200190815260200160002060008773ffffffffffffffffffffffffffffffffffffffff1673ffffffffffffffffffffffffffffffffffffffff16815260200190815260200160002081905550600073ffffffffffffffffffffffffffffffffffffffff168573ffffffffffffffffffffffffffffffffffffffff168373ffffffffffffffffffffffffffffffffffffffff167fc3d58168c5ae7397731d063d5bbf3d657854427343f4c083240f7aacaa2d0f628787604051613880929190615410565b60405180910390a45050505050565b8173ffffffffffffffffffffffffffffffffffffffff168373ffffffffffffffffffffffffffffffffffffffff1614156138fe576040517f08c379a00000000000000000000000000000000000000000000000000000000081526004016138f5906152d5565b60405180910390fd5b80600160008573ffffffffffffffffffffffffffffffffffffffff1673ffffffffffffffffffffffffffffffffffffffff16815260200190815260200160002060008473ffffffffffffffffffffffffffffffffffffffff1673ffffffffffffffffffffffffffffffffffffffff16815260200190815260200160002060006101000a81548160ff0219169083151502179055508173ffffffffffffffffffffffffffffffffffffffff168373ffffffffffffffffffffffffffffffffffffffff167f17307eab39ab6107e8899845ad3d59bd9653f200f220920489ca2b5937696c31836040516139ef9190615038565b60405180910390a3505050565b600073ffffffffffffffffffffffffffffffffffffffff168473ffffffffffffffffffffffffffffffffffffffff161415613a6c576040517f08c379a0000000000000000000000000000000000000000000000000000000008152600401613a6390615175565b60405180910390fd5b6000613a76612e78565b9050600080600086815260200190815260200160002060008873ffffffffffffffffffffffffffffffffffffffff1673ffffffffffffffffffffffffffffffffffffffff16815260200190815260200160002054905083811015613b0f576040517f08c379a0000000000000000000000000000000000000000000000000000000008152600401613b06906151d5565b60405180910390fd5b83810360008087815260200190815260200160002060008973ffffffffffffffffffffffffffffffffffffffff1673ffffffffffffffffffffffffffffffffffffffff168152602001908152602001600020819055508360008087815260200190815260200160002060008873ffffffffffffffffffffffffffffffffffffffff1673ffffffffffffffffffffffffffffffffffffffff1681526020019081526020016000206000828254613bc491906155a9565b925050819055508573ffffffffffffffffffffffffffffffffffffffff168773ffffffffffffffffffffffffffffffffffffffff168373ffffffffffffffffffffffffffffffffffffffff167fc3d58168c5ae7397731d063d5bbf3d657854427343f4c083240f7aacaa2d0f628888604051613c41929190615410565b60405180910390a4613c57828888888888613e47565b50505050505050565b613c7f8473ffffffffffffffffffffffffffffffffffffffff1661402e565b15613e3f578373ffffffffffffffffffffffffffffffffffffffff1663bc197c8187878686866040518663ffffffff1660e01b8152600401613cc5959493929190614e7f565b602060405180830381600087803b158015613cdf57600080fd5b505af1925050508015613d1057506040513d601f19601f82011682018060405250810190613d0d919061470a565b60015b613db657613d1c615937565b806308c379a01415613d795750613d31616114565b80613d3c5750613d7b565b806040517f08c379a0000000000000000000000000000000000000000000000000000000008152600401613d709190615053565b60405180910390fd5b505b6040517f08c379a0000000000000000000000000000000000000000000000000000000008152600401613dad90615075565b60405180910390fd5b63bc197c8160e01b7bffffffffffffffffffffffffffffffffffffffffffffffffffffffff1916817bffffffffffffffffffffffffffffffffffffffffffffffffffffffff191614613e3d576040517f08c379a0000000000000000000000000000000000000000000000000000000008152600401613e3490615095565b60405180910390fd5b505b505050505050565b613e668473ffffffffffffffffffffffffffffffffffffffff1661402e565b15614026578373ffffffffffffffffffffffffffffffffffffffff1663f23a6e6187878686866040518663ffffffff1660e01b8152600401613eac959493929190614ee7565b602060405180830381600087803b158015613ec657600080fd5b505af1925050508015613ef757506040513d601f19601f82011682018060405250810190613ef4919061470a565b60015b613f9d57613f03615937565b806308c379a01415613f605750613f18616114565b80613f235750613f62565b806040517f08c379a0000000000000000000000000000000000000000000000000000000008152600401613f579190615053565b60405180910390fd5b505b6040517f08c379a0000000000000000000000000000000000000000000000000000000008152600401613f9490615075565b60405180910390fd5b63f23a6e6160e01b7bffffffffffffffffffffffffffffffffffffffffffffffffffffffff1916817bffffffffffffffffffffffffffffffffffffffffffffffffffffffff191614614024576040517f08c379a000000000000000000000000000000000000000000000000000000000815260040161401b90615095565b60405180910390fd5b505b505050505050565b6000808273ffffffffffffffffffffffffffffffffffffffff163b119050919050565b508054600082559060005260206000209081019061406f91906140f8565b50565b82805461407e9061579e565b90600052602060002090601f0160209004810192826140a057600085556140e7565b82601f106140b957805160ff19168380011785556140e7565b828001600101855582156140e7579182015b828111156140e65782518255916020019190600101906140cb565b5b5090506140f491906140f8565b5090565b5b808211156141115760008160009055506001016140f9565b5090565b60006141286141238461545e565b615439565b9050808382526020820190508285602086028201111561414757600080fd5b60005b85811015614177578161415d8882614269565b84526020840193506020830192505060018101905061414a565b5050509392505050565b600061419461418f8461548a565b615439565b905080838252602082019050828560208602820111156141b357600080fd5b60005b858110156141e357816141c988826143af565b8452602084019350602083019250506001810190506141b6565b5050509392505050565b60006142006141fb846154b6565b615439565b90508281526020810184848401111561421857600080fd5b614223848285615732565b509392505050565b600061423e614239846154e7565b615439565b90508281526020810184848401111561425657600080fd5b614261848285615732565b509392505050565b600081359050614278816161aa565b92915050565b60008083601f84011261429057600080fd5b8235905067ffffffffffffffff8111156142a957600080fd5b6020830191508360208202830111156142c157600080fd5b9250929050565b600082601f8301126142d957600080fd5b81356142e9848260208601614115565b91505092915050565b600082601f83011261430357600080fd5b8135614313848260208601614181565b91505092915050565b60008135905061432b816161c1565b92915050565b600081359050614340816161d8565b92915050565b600081519050614355816161d8565b92915050565b600082601f83011261436c57600080fd5b813561437c8482602086016141ed565b91505092915050565b600082601f83011261439657600080fd5b81356143a684826020860161422b565b91505092915050565b6000813590506143be816161ef565b92915050565b6000602082840312156143d657600080fd5b60006143e484828501614269565b91505092915050565b6000806040838503121561440057600080fd5b600061440e85828601614269565b925050602061441f85828601614269565b9150509250929050565b600080600080600060a0868803121561444157600080fd5b600061444f88828901614269565b955050602061446088828901614269565b945050604086013567ffffffffffffffff81111561447d57600080fd5b614489888289016142f2565b935050606086013567ffffffffffffffff8111156144a657600080fd5b6144b2888289016142f2565b925050608086013567ffffffffffffffff8111156144cf57600080fd5b6144db8882890161435b565b9150509295509295909350565b600080600080600060a0868803121561450057600080fd5b600061450e88828901614269565b955050602061451f88828901614269565b9450506040614530888289016143af565b9350506060614541888289016143af565b925050608086013567ffffffffffffffff81111561455e57600080fd5b61456a8882890161435b565b9150509295509295909350565b6000806040838503121561458a57600080fd5b600061459885828601614269565b92505060206145a98582860161431c565b9150509250929050565b600080604083850312156145c657600080fd5b60006145d485828601614269565b92505060206145e5858286016143af565b9150509250929050565b6000806020838503121561460257600080fd5b600083013567ffffffffffffffff81111561461c57600080fd5b6146288582860161427e565b92509250509250929050565b60006020828403121561464657600080fd5b600082013567ffffffffffffffff81111561466057600080fd5b61466c848285016142c8565b91505092915050565b6000806040838503121561468857600080fd5b600083013567ffffffffffffffff8111156146a257600080fd5b6146ae858286016142c8565b925050602083013567ffffffffffffffff8111156146cb57600080fd5b6146d7858286016142f2565b9150509250929050565b6000602082840312156146f357600080fd5b600061470184828501614331565b91505092915050565b60006020828403121561471c57600080fd5b600061472a84828501614346565b91505092915050565b6000806040838503121561474657600080fd5b600083013567ffffffffffffffff81111561476057600080fd5b61476c85828601614385565b925050602083013567ffffffffffffffff81111561478957600080fd5b61479585828601614385565b9150509250929050565b6000602082840312156147b157600080fd5b60006147bf848285016143af565b91505092915050565b600080604083850312156147db57600080fd5b60006147e9858286016143af565b92505060206147fa858286016143af565b9150509250929050565b60008060006060848603121561481957600080fd5b6000614827868287016143af565b9350506020614838868287016143af565b9250506040614849868287016143af565b9150509250925092565b600061485f8383614e00565b60208301905092915050565b614874816156be565b82525050565b60006148858261553d565b61488f818561556b565b935061489a83615518565b8060005b838110156148cb5781516148b28882614853565b97506148bd8361555e565b92505060018101905061489e565b5085935050505092915050565b6148e1816156d0565b82525050565b60006148f282615548565b6148fc818561557c565b935061490c818560208601615741565b61491581615959565b840191505092915050565b600061492b82615553565b614935818561558d565b9350614945818560208601615741565b61494e81615959565b840191505092915050565b600061496482615553565b61496e818561559e565b935061497e818560208601615741565b80840191505092915050565b600081546149978161579e565b6149a1818661559e565b945060018216600081146149bc57600181146149cd57614a00565b60ff19831686528186019350614a00565b6149d685615528565b60005b838110156149f8578154818901526001820191506020810190506149d9565b838801955050505b50505092915050565b6000614a1660348361558d565b9150614a2182615977565b604082019050919050565b6000614a3960288361558d565b9150614a44826159c6565b604082019050919050565b6000614a5c60178361558d565b9150614a6782615a15565b602082019050919050565b6000614a7f602b8361558d565b9150614a8a82615a3e565b604082019050919050565b6000614aa260268361558d565b9150614aad82615a8d565b604082019050919050565b6000614ac560248361558d565b9150614ad082615adc565b604082019050919050565b6000614ae860298361558d565b9150614af382615b2b565b604082019050919050565b6000614b0b60228361558d565b9150614b1682615b7a565b604082019050919050565b6000614b2e60258361558d565b9150614b3982615bc9565b604082019050919050565b6000614b5160328361558d565b9150614b5c82615c18565b604082019050919050565b6000614b7460238361558d565b9150614b7f82615c67565b604082019050919050565b6000614b97602a8361558d565b9150614ba282615cb6565b604082019050919050565b6000614bba60058361559e565b9150614bc582615d05565b600582019050919050565b6000614bdd60208361558d565b9150614be882615d2e565b602082019050919050565b6000614c0060268361558d565b9150614c0b82615d57565b604082019050919050565b6000614c2360408361558d565b9150614c2e82615da6565b604082019050919050565b6000614c4660218361558d565b9150614c5182615df5565b604082019050919050565b6000614c69601c8361558d565b9150614c7482615e44565b602082019050919050565b6000614c8c60148361558d565b9150614c9782615e6d565b602082019050919050565b6000614caf601e8361558d565b9150614cba82615e96565b602082019050919050565b6000614cd260298361558d565b9150614cdd82615ebf565b604082019050919050565b6000614cf560338361558d565b9150614d0082615f0e565b604082019050919050565b6000614d1860298361558d565b9150614d2382615f5d565b604082019050919050565b6000614d3b60288361558d565b9150614d4682615fac565b604082019050919050565b6000614d5e60218361558d565b9150614d6982615ffb565b604082019050919050565b6000614d81601f8361558d565b9150614d8c8261604a565b602082019050919050565b6000614da460288361558d565b9150614daf82616073565b604082019050919050565b6000614dc760158361558d565b9150614dd2826160c2565b602082019050919050565b6000614dea60188361558d565b9150614df5826160eb565b602082019050919050565b614e0981615728565b82525050565b614e1881615728565b82525050565b6000614e2a8284614959565b915081905092915050565b6000614e41828561498a565b9150614e4d8284614959565b9150614e5882614bad565b91508190509392505050565b6000602082019050614e79600083018461486b565b92915050565b600060a082019050614e94600083018861486b565b614ea1602083018761486b565b8181036040830152614eb3818661487a565b90508181036060830152614ec7818561487a565b90508181036080830152614edb81846148e7565b90509695505050505050565b600060a082019050614efc600083018861486b565b614f09602083018761486b565b614f166040830186614e0f565b614f236060830185614e0f565b8181036080830152614f3581846148e7565b90509695505050505050565b6000604082019050614f56600083018561486b565b8181036020830152614f688184614920565b90509392505050565b6000604082019050614f86600083018561486b565b614f936020830184614e0f565b9392505050565b6000608082019050614faf600083018761486b565b614fbc6020830186614e0f565b614fc96040830185614e0f565b614fd66060830184614e0f565b95945050505050565b60006020820190508181036000830152614ff9818461487a565b905092915050565b6000604082019050818103600083015261501b818561487a565b9050818103602083015261502f818461487a565b90509392505050565b600060208201905061504d60008301846148d8565b92915050565b6000602082019050818103600083015261506d8184614920565b905092915050565b6000602082019050818103600083015261508e81614a09565b9050919050565b600060208201905081810360008301526150ae81614a2c565b9050919050565b600060208201905081810360008301526150ce81614a4f565b9050919050565b600060208201905081810360008301526150ee81614a72565b9050919050565b6000602082019050818103600083015261510e81614a95565b9050919050565b6000602082019050818103600083015261512e81614ab8565b9050919050565b6000602082019050818103600083015261514e81614adb565b9050919050565b6000602082019050818103600083015261516e81614afe565b9050919050565b6000602082019050818103600083015261518e81614b21565b9050919050565b600060208201905081810360008301526151ae81614b44565b9050919050565b600060208201905081810360008301526151ce81614b67565b9050919050565b600060208201905081810360008301526151ee81614b8a565b9050919050565b6000602082019050818103600083015261520e81614bd0565b9050919050565b6000602082019050818103600083015261522e81614bf3565b9050919050565b6000602082019050818103600083015261524e81614c16565b9050919050565b6000602082019050818103600083015261526e81614c39565b9050919050565b6000602082019050818103600083015261528e81614c5c565b9050919050565b600060208201905081810360008301526152ae81614c7f565b9050919050565b600060208201905081810360008301526152ce81614ca2565b9050919050565b600060208201905081810360008301526152ee81614cc5565b9050919050565b6000602082019050818103600083015261530e81614ce8565b9050919050565b6000602082019050818103600083015261532e81614d0b565b9050919050565b6000602082019050818103600083015261534e81614d2e565b9050919050565b6000602082019050818103600083015261536e81614d51565b9050919050565b6000602082019050818103600083015261538e81614d74565b9050919050565b600060208201905081810360008301526153ae81614d97565b9050919050565b600060208201905081810360008301526153ce81614dba565b9050919050565b600060208201905081810360008301526153ee81614ddd565b9050919050565b600060208201905061540a6000830184614e0f565b92915050565b60006040820190506154256000830185614e0f565b6154326020830184614e0f565b9392505050565b6000615443615454565b905061544f82826157d0565b919050565b6000604051905090565b600067ffffffffffffffff82111561547957615478615908565b5b602082029050602081019050919050565b600067ffffffffffffffff8211156154a5576154a4615908565b5b602082029050602081019050919050565b600067ffffffffffffffff8211156154d1576154d0615908565b5b6154da82615959565b9050602081019050919050565b600067ffffffffffffffff82111561550257615501615908565b5b61550b82615959565b9050602081019050919050565b6000819050602082019050919050565b60008190508160005260206000209050919050565b600081519050919050565b600081519050919050565b600081519050919050565b6000602082019050919050565b600082825260208201905092915050565b600082825260208201905092915050565b600082825260208201905092915050565b600081905092915050565b60006155b482615728565b91506155bf83615728565b9250827fffffffffffffffffffffffffffffffffffffffffffffffffffffffffffffffff038211156155f4576155f361587b565b5b828201905092915050565b600061560a82615728565b915061561583615728565b925082615625576156246158aa565b5b828204905092915050565b600061563b82615728565b915061564683615728565b9250817fffffffffffffffffffffffffffffffffffffffffffffffffffffffffffffffff048311821515161561567f5761567e61587b565b5b828202905092915050565b600061569582615728565b91506156a083615728565b9250828210156156b3576156b261587b565b5b828203905092915050565b60006156c982615708565b9050919050565b60008115159050919050565b60007fffffffff0000000000000000000000000000000000000000000000000000000082169050919050565b600073ffffffffffffffffffffffffffffffffffffffff82169050919050565b6000819050919050565b82818337600083830152505050565b60005b8381101561575f578082015181840152602081019050615744565b8381111561576e576000848401525b50505050565b600061577f82615728565b915060008214156157935761579261587b565b5b600182039050919050565b600060028204905060018216806157b657607f821691505b602082108114156157ca576157c96158d9565b5b50919050565b6157d982615959565b810181811067ffffffffffffffff821117156157f8576157f7615908565b5b80604052505050565b600061580c82615728565b91507fffffffffffffffffffffffffffffffffffffffffffffffffffffffffffffffff82141561583f5761583e61587b565b5b600182019050919050565b600061585582615728565b915061586083615728565b9250826158705761586f6158aa565b5b828206905092915050565b7f4e487b7100000000000000000000000000000000000000000000000000000000600052601160045260246000fd5b7f4e487b7100000000000000000000000000000000000000000000000000000000600052601260045260246000fd5b7f4e487b7100000000000000000000000000000000000000000000000000000000600052602260045260246000fd5b7f4e487b7100000000000000000000000000000000000000000000000000000000600052604160045260246000fd5b600060033d11156159565760046000803e61595360005161596a565b90505b90565b6000601f19601f8301169050919050565b60008160e01c9050919050565b7f455243313135353a207472616e7366657220746f206e6f6e204552433131353560008201527f526563656976657220696d706c656d656e746572000000000000000000000000602082015250565b7f455243313135353a204552433131353552656365697665722072656a6563746560008201527f6420746f6b656e73000000000000000000000000000000000000000000000000602082015250565b7f50726573616c6520686173206e6f742073746172746564000000000000000000600082015250565b7f455243313135353a2062616c616e636520717565727920666f7220746865207a60008201527f65726f2061646472657373000000000000000000000000000000000000000000602082015250565b7f4f776e61626c653a206e6577206f776e657220697320746865207a65726f206160008201527f6464726573730000000000000000000000000000000000000000000000000000602082015250565b7f455243313135353a206275726e20616d6f756e7420657863656564732062616c60008201527f616e636500000000000000000000000000000000000000000000000000000000602082015250565b7f455243313135353a2063616c6c6572206973206e6f74206f776e6572206e6f7260008201527f20617070726f7665640000000000000000000000000000000000000000000000602082015250565b7f596f7520646f206e6f74206f776e2074686520466f7572496e4f6e6520546f6b60008201527f656e000000000000000000000000000000000000000000000000000000000000602082015250565b7f455243313135353a207472616e7366657220746f20746865207a65726f20616460008201527f6472657373000000000000000000000000000000000000000000000000000000602082015250565b7f455243313135353a207472616e736665722063616c6c6572206973206e6f742060008201527f6f776e6572206e6f7220617070726f7665640000000000000000000000000000602082015250565b7f455243313135353a206275726e2066726f6d20746865207a65726f206164647260008201527f6573730000000000000000000000000000000000000000000000000000000000602082015250565b7f455243313135353a20696e73756666696369656e742062616c616e636520666f60008201527f72207472616e7366657200000000000000000000000000000000000000000000602082015250565b7f2e6a736f6e000000000000000000000000000000000000000000000000000000600082015250565b7f4f776e61626c653a2063616c6c6572206973206e6f7420746865206f776e6572600082015250565b7f43616e206d696e742061206d617820616d6d6f756e74206f662062756e646c6560008201527f73206f6620320000000000000000000000000000000000000000000000000000602082015250565b7f50726573616c65206973206163746976652062757420796f752772652061726560008201527f206e6f742061205649462c207761697420666f72207075626c69632073616c65602082015250565b7f4e6f7420656e6f7567682062756e646c657320666f722067697665617761797360008201527f2e00000000000000000000000000000000000000000000000000000000000000602082015250565b7f416c6c20426174636865732068617665206265656e206d696e74656400000000600082015250565b7f4e6f20657468657220696e20636f6e7472616374000000000000000000000000600082015250565b7f596f7520646f206e6f74206f776e2074686520467275697420546f6b656e0000600082015250565b7f455243313135353a2073657474696e6720617070726f76616c2073746174757360008201527f20666f722073656c660000000000000000000000000000000000000000000000602082015250565b7f43616e6e6f74207075726368617365206d6f7265207468616e206f6e6520626160008201527f746368206d696e74207065722077616c6c657400000000000000000000000000602082015250565b7f455243313135353a206163636f756e747320616e6420696473206c656e67746860008201527f206d69736d617463680000000000000000000000000000000000000000000000602082015250565b7f455243313135353a2069647320616e6420616d6f756e7473206c656e6774682060008201527f6d69736d61746368000000000000000000000000000000000000000000000000602082015250565b7f455243313135353a206d696e7420746f20746865207a65726f2061646472657360008201527f7300000000000000000000000000000000000000000000000000000000000000602082015250565b7f5265656e7472616e637947756172643a207265656e7472616e742063616c6c00600082015250565b7f4e6f7420656e6f756768206574686572207761732073656e7420746f2074726160008201527f6e73616374696f6e000000000000000000000000000000000000000000000000602082015250565b7f5175616472616e74206f7574206f662072616e67650000000000000000000000600082015250565b7f596f7520646f206e6f74206f776e206120526563656970740000000000000000600082015250565b600060443d1015616124576161a7565b61612c615454565b60043d036004823e80513d602482011167ffffffffffffffff821117156161545750506161a7565b808201805167ffffffffffffffff81111561617257505050506161a7565b80602083010160043d03850181111561618f5750505050506161a7565b61619e826020018501866157d0565b82955050505050505b90565b6161b3816156be565b81146161be57600080fd5b50565b6161ca816156d0565b81146161d557600080fd5b50565b6161e1816156dc565b81146161ec57600080fd5b50565b6161f881615728565b811461620357600080fd5b5056fea26469706673582212207948c3a6319c785e74a895a114b5fbc7c461681a0fc393eaca3da18eec9ba33c64736f6c63430008040033",
  "linkReferences": {},
  "deployedLinkReferences": {}
}