{
  "_format": "hh-sol-artifact-1",
  "contractName": "DemoOptimized",
  "sourceName": "contracts/DemoOptimized.sol",
  "abi": [
    {
      "inputs": [
        {
          "internalType": "string",
          "name": "uri1",
          "type": "string"
        },
        {
          "internalType": "string",
          "name": "uriPreview1",
          "type": "string"
        }
      ],
      "stateMutability": "nonpayable",
      "type": "constructor"
    },
    {
      "anonymous": false,
      "inputs": [
        {
          "indexed": true,
          "internalType": "address",
          "name": "account",
          "type": "address"
        },
        {
          "indexed": true,
          "internalType": "address",
          "name": "operator",
          "type": "address"
        },
        {
          "indexed": false,
          "internalType": "bool",
          "name": "approved",
          "type": "bool"
        }
      ],
      "name": "ApprovalForAll",
      "type": "event"
    },
    {
      "anonymous": false,
      "inputs": [
        {
          "indexed": false,
          "internalType": "address",
          "name": "_sender",
          "type": "address"
        },
        {
          "indexed": false,
          "internalType": "uint256",
          "name": "_supply",
          "type": "uint256"
        }
      ],
      "name": "IncreaseReceiptSupply",
      "type": "event"
    },
    {
      "anonymous": false,
      "inputs": [
        {
          "indexed": true,
          "internalType": "address",
          "name": "previousOwner",
          "type": "address"
        },
        {
          "indexed": true,
          "internalType": "address",
          "name": "newOwner",
          "type": "address"
        }
      ],
      "name": "OwnershipTransferred",
      "type": "event"
    },
    {
      "anonymous": false,
      "inputs": [
        {
          "indexed": true,
          "internalType": "address",
          "name": "operator",
          "type": "address"
        },
        {
          "indexed": true,
          "internalType": "address",
          "name": "from",
          "type": "address"
        },
        {
          "indexed": true,
          "internalType": "address",
          "name": "to",
          "type": "address"
        },
        {
          "indexed": false,
          "internalType": "uint256[]",
          "name": "ids",
          "type": "uint256[]"
        },
        {
          "indexed": false,
          "internalType": "uint256[]",
          "name": "values",
          "type": "uint256[]"
        }
      ],
      "name": "TransferBatch",
      "type": "event"
    },
    {
      "anonymous": false,
      "inputs": [
        {
          "indexed": true,
          "internalType": "address",
          "name": "operator",
          "type": "address"
        },
        {
          "indexed": true,
          "internalType": "address",
          "name": "from",
          "type": "address"
        },
        {
          "indexed": true,
          "internalType": "address",
          "name": "to",
          "type": "address"
        },
        {
          "indexed": false,
          "internalType": "uint256",
          "name": "id",
          "type": "uint256"
        },
        {
          "indexed": false,
          "internalType": "uint256",
          "name": "value",
          "type": "uint256"
        }
      ],
      "name": "TransferSingle",
      "type": "event"
    },
    {
      "anonymous": false,
      "inputs": [
        {
          "indexed": false,
          "internalType": "string",
          "name": "value",
          "type": "string"
        },
        {
          "indexed": true,
          "internalType": "uint256",
          "name": "id",
          "type": "uint256"
        }
      ],
      "name": "URI",
      "type": "event"
    },
    {
      "inputs": [
        {
          "internalType": "address",
          "name": "account",
          "type": "address"
        },
        {
          "internalType": "uint256",
          "name": "id",
          "type": "uint256"
        }
      ],
      "name": "balanceOf",
      "outputs": [
        {
          "internalType": "uint256",
          "name": "",
          "type": "uint256"
        }
      ],
      "stateMutability": "view",
      "type": "function"
    },
    {
      "inputs": [
        {
          "internalType": "address[]",
          "name": "accounts",
          "type": "address[]"
        },
        {
          "internalType": "uint256[]",
          "name": "ids",
          "type": "uint256[]"
        }
      ],
      "name": "balanceOfBatch",
      "outputs": [
        {
          "internalType": "uint256[]",
          "name": "",
          "type": "uint256[]"
        }
      ],
      "stateMutability": "view",
      "type": "function"
    },
    {
      "inputs": [],
      "name": "bundleTotalSupply",
      "outputs": [
        {
          "internalType": "uint256",
          "name": "",
          "type": "uint256"
        }
      ],
      "stateMutability": "view",
      "type": "function"
    },
    {
      "inputs": [],
      "name": "getBalance",
      "outputs": [
        {
          "internalType": "uint256",
          "name": "",
          "type": "uint256"
        }
      ],
      "stateMutability": "view",
      "type": "function"
    },
    {
      "inputs": [],
      "name": "getMemberCount",
      "outputs": [
        {
          "internalType": "string",
          "name": "",
          "type": "string"
        }
      ],
      "stateMutability": "view",
      "type": "function"
    },
    {
      "inputs": [],
      "name": "getPricePerBundle",
      "outputs": [
        {
          "internalType": "uint256",
          "name": "",
          "type": "uint256"
        }
      ],
      "stateMutability": "view",
      "type": "function"
    },
    {
      "inputs": [
        {
          "internalType": "address",
          "name": "account",
          "type": "address"
        },
        {
          "internalType": "address",
          "name": "operator",
          "type": "address"
        }
      ],
      "name": "isApprovedForAll",
      "outputs": [
        {
          "internalType": "bool",
          "name": "",
          "type": "bool"
        }
      ],
      "stateMutability": "view",
      "type": "function"
    },
    {
      "inputs": [],
      "name": "mintBundle",
      "outputs": [],
      "stateMutability": "payable",
      "type": "function"
    },
    {
      "inputs": [
        {
          "internalType": "address[]",
          "name": "_giveaways",
          "type": "address[]"
        }
      ],
      "name": "mintPassGiveaway",
      "outputs": [],
      "stateMutability": "nonpayable",
      "type": "function"
    },
    {
      "inputs": [],
      "name": "owner",
      "outputs": [
        {
          "internalType": "address",
          "name": "",
          "type": "address"
        }
      ],
      "stateMutability": "view",
      "type": "function"
    },
    {
      "inputs": [],
      "name": "receiptTotalSupply",
      "outputs": [
        {
          "internalType": "uint256",
          "name": "",
          "type": "uint256"
        }
      ],
      "stateMutability": "view",
      "type": "function"
    },
    {
      "inputs": [
        {
          "internalType": "address[]",
          "name": "_vifs",
          "type": "address[]"
        }
      ],
      "name": "removeVIFMembers",
      "outputs": [],
      "stateMutability": "nonpayable",
      "type": "function"
    },
    {
      "inputs": [],
      "name": "renounceOwnership",
      "outputs": [],
      "stateMutability": "nonpayable",
      "type": "function"
    },
    {
      "inputs": [],
      "name": "resetAddressToCutee",
      "outputs": [],
      "stateMutability": "nonpayable",
      "type": "function"
    },
    {
      "inputs": [
        {
          "internalType": "address",
          "name": "from",
          "type": "address"
        },
        {
          "internalType": "address",
          "name": "to",
          "type": "address"
        },
        {
          "internalType": "uint256[]",
          "name": "ids",
          "type": "uint256[]"
        },
        {
          "internalType": "uint256[]",
          "name": "amounts",
          "type": "uint256[]"
        },
        {
          "internalType": "bytes",
          "name": "data",
          "type": "bytes"
        }
      ],
      "name": "safeBatchTransferFrom",
      "outputs": [],
      "stateMutability": "nonpayable",
      "type": "function"
    },
    {
      "inputs": [
        {
          "internalType": "address",
          "name": "from",
          "type": "address"
        },
        {
          "internalType": "address",
          "name": "to",
          "type": "address"
        },
        {
          "internalType": "uint256",
          "name": "id",
          "type": "uint256"
        },
        {
          "internalType": "uint256",
          "name": "amount",
          "type": "uint256"
        },
        {
          "internalType": "bytes",
          "name": "data",
          "type": "bytes"
        }
      ],
      "name": "safeTransferFrom",
      "outputs": [],
      "stateMutability": "nonpayable",
      "type": "function"
    },
    {
      "inputs": [
        {
          "internalType": "address",
          "name": "operator",
          "type": "address"
        },
        {
          "internalType": "bool",
          "name": "approved",
          "type": "bool"
        }
      ],
      "name": "setApprovalForAll",
      "outputs": [],
      "stateMutability": "nonpayable",
      "type": "function"
    },
    {
      "inputs": [
        {
          "internalType": "address[]",
          "name": "_fruities",
          "type": "address[]"
        }
      ],
      "name": "setFruityMember",
      "outputs": [],
      "stateMutability": "nonpayable",
      "type": "function"
    },
    {
      "inputs": [
        {
          "internalType": "uint256",
          "name": "_gwei",
          "type": "uint256"
        }
      ],
      "name": "setPricePerBundle",
      "outputs": [],
      "stateMutability": "nonpayable",
      "type": "function"
    },
    {
      "inputs": [
        {
          "internalType": "uint256",
          "name": "_vifSaleStartTime",
          "type": "uint256"
        },
        {
          "internalType": "uint256",
          "name": "_presaleStartTime",
          "type": "uint256"
        },
        {
          "internalType": "uint256",
          "name": "_publicSaleStartTime",
          "type": "uint256"
        }
      ],
      "name": "setSaleTime",
      "outputs": [],
      "stateMutability": "nonpayable",
      "type": "function"
    },
    {
      "inputs": [],
      "name": "setSeason",
      "outputs": [],
      "stateMutability": "nonpayable",
      "type": "function"
    },
    {
      "inputs": [
        {
          "internalType": "address[]",
          "name": "_vifs",
          "type": "address[]"
        }
      ],
      "name": "setVIFMember",
      "outputs": [],
      "stateMutability": "nonpayable",
      "type": "function"
    },
    {
      "inputs": [
        {
          "internalType": "bytes4",
          "name": "interfaceId",
          "type": "bytes4"
        }
      ],
      "name": "supportsInterface",
      "outputs": [
        {
          "internalType": "bool",
          "name": "",
          "type": "bool"
        }
      ],
      "stateMutability": "view",
      "type": "function"
    },
    {
      "inputs": [
        {
          "internalType": "address",
          "name": "newOwner",
          "type": "address"
        }
      ],
      "name": "transferOwnership",
      "outputs": [],
      "stateMutability": "nonpayable",
      "type": "function"
    },
    {
      "inputs": [
        {
          "internalType": "uint256",
          "name": "_tokenId",
          "type": "uint256"
        }
      ],
      "name": "uri",
      "outputs": [
        {
          "internalType": "string",
          "name": "",
          "type": "string"
        }
      ],
      "stateMutability": "view",
      "type": "function"
    },
    {
      "inputs": [],
      "name": "useMintPass",
      "outputs": [],
      "stateMutability": "nonpayable",
      "type": "function"
    },
    {
      "inputs": [],
      "name": "withdrawBalance",
      "outputs": [],
      "stateMutability": "nonpayable",
      "type": "function"
    }
  ],
  "bytecode": "0x60806040526001600455620186a16005556103e8600655610bb860075567016345785d8a0000600855600060135560006014553480156200003f57600080fd5b50604051620060ca380380620060ca8339818101604052810190620000659190620002d5565b6200008562000079620000af60201b60201c565b620000b760201b60201c565b60016003819055506200009f82826200017d60201b60201c565b60006016819055505050620004b8565b600033905090565b6000600260009054906101000a900473ffffffffffffffffffffffffffffffffffffffff16905081600260006101000a81548173ffffffffffffffffffffffffffffffffffffffff021916908373ffffffffffffffffffffffffffffffffffffffff1602179055508173ffffffffffffffffffffffffffffffffffffffff168173ffffffffffffffffffffffffffffffffffffffff167f8be0079c531659141344cd1fd0a4f28419497f9722a3daafe3b4186f6b6457e060405160405180910390a35050565b81600c908051906020019062000195929190620001b3565b5080600d9080519060200190620001ae929190620001b3565b505050565b828054620001c190620003dd565b90600052602060002090601f016020900481019282620001e5576000855562000231565b82601f106200020057805160ff191683800117855562000231565b8280016001018555821562000231579182015b828111156200023057825182559160200191906001019062000213565b5b50905062000240919062000244565b5090565b5b808211156200025f57600081600090555060010162000245565b5090565b60006200027a620002748462000371565b62000348565b9050828152602081018484840111156200029357600080fd5b620002a0848285620003a7565b509392505050565b600082601f830112620002ba57600080fd5b8151620002cc84826020860162000263565b91505092915050565b60008060408385031215620002e957600080fd5b600083015167ffffffffffffffff8111156200030457600080fd5b6200031285828601620002a8565b925050602083015167ffffffffffffffff8111156200033057600080fd5b6200033e85828601620002a8565b9150509250929050565b60006200035462000367565b905062000362828262000413565b919050565b6000604051905090565b600067ffffffffffffffff8211156200038f576200038e62000478565b5b6200039a82620004a7565b9050602081019050919050565b60005b83811015620003c7578082015181840152602081019050620003aa565b83811115620003d7576000848401525b50505050565b60006002820490506001821680620003f657607f821691505b602082108114156200040d576200040c62000449565b5b50919050565b6200041e82620004a7565b810181811067ffffffffffffffff8211171562000440576200043f62000478565b5b80604052505050565b7f4e487b7100000000000000000000000000000000000000000000000000000000600052602260045260246000fd5b7f4e487b7100000000000000000000000000000000000000000000000000000000600052604160045260246000fd5b6000601f19601f8301169050919050565b615c0280620004c86000396000f3fe60806040526004361061019b5760003560e01c80635fd8c710116100ec578063997072f71161008a578063d40999c811610064578063d40999c814610532578063e985e9c51461055b578063f242432a14610598578063f2fde38b146105c15761019b565b8063997072f7146104b55780639d56c2ea146104e0578063a22cb465146105095761019b565b8063715018a6116100c6578063715018a61461041d5780637b1b1bb0146104345780638623511b1461045f5780638da5cb5b1461048a5761019b565b80635fd8c710146103b2578063650f9e9b146103c95780637138e4b3146103f45761019b565b8063299ed104116101595780633efc5200116101335780633efc52001461032b578063410404b7146103545780634e1273f41461035e5780635ae92d3e1461039b5761019b565b8063299ed104146102c25780632eb2c2d6146102d957806334c30bf5146103025761019b565b8062fdd58e146101a057806301ffc9a7146101dd5780630e1c098d1461021a5780630e89341c14610243578063114e691d1461028057806312065fe014610297575b600080fd5b3480156101ac57600080fd5b506101c760048036038101906101c29190613d92565b6105ea565b6040516101d49190614c88565b60405180910390f35b3480156101e957600080fd5b5061020460048036038101906101ff9190613ec0565b6106b3565b60405161021191906148ab565b60405180910390f35b34801561022657600080fd5b50610241600480360381019061023c9190613e13565b610795565b005b34801561024f57600080fd5b5061026a60048036038101906102659190613f12565b61095c565b60405161027791906148c6565b60405180910390f35b34801561028c57600080fd5b50610295610a09565b005b3480156102a357600080fd5b506102ac610b82565b6040516102b99190614c88565b60405180910390f35b3480156102ce57600080fd5b506102d7610b8a565b005b3480156102e557600080fd5b5061030060048036038101906102fb9190613c08565b610cb8565b005b34801561030e57600080fd5b5061032960048036038101906103249190613dce565b610d59565b005b34801561033757600080fd5b50610352600480360381019061034d9190613f12565b610e9d565b005b61035c610f23565b005b34801561036a57600080fd5b5061038560048036038101906103809190613e54565b611636565b6040516103929190614852565b60405180910390f35b3480156103a757600080fd5b506103b06117e7565b005b3480156103be57600080fd5b506103c7611a1c565b005b3480156103d557600080fd5b506103de611b24565b6040516103eb9190614c88565b60405180910390f35b34801561040057600080fd5b5061041b60048036038101906104169190613f3b565b611b2e565b005b34801561042957600080fd5b50610432611c48565b005b34801561044057600080fd5b50610449611cd0565b6040516104569190614c88565b60405180910390f35b34801561046b57600080fd5b50610474611cda565b6040516104819190614c88565b60405180910390f35b34801561049657600080fd5b5061049f611ce4565b6040516104ac919061474c565b60405180910390f35b3480156104c157600080fd5b506104ca611d0e565b6040516104d791906148c6565b60405180910390f35b3480156104ec57600080fd5b5061050760048036038101906105029190613e13565b611dca565b005b34801561051557600080fd5b50610530600480360381019061052b9190613d56565b611f06565b005b34801561053e57600080fd5b5061055960048036038101906105549190613e13565b611f1c565b005b34801561056757600080fd5b50610582600480360381019061057d9190613bcc565b612058565b60405161058f91906148ab565b60405180910390f35b3480156105a457600080fd5b506105bf60048036038101906105ba9190613cc7565b6120ec565b005b3480156105cd57600080fd5b506105e860048036038101906105e39190613ba3565b61218d565b005b60008073ffffffffffffffffffffffffffffffffffffffff168373ffffffffffffffffffffffffffffffffffffffff16141561065b576040517f08c379a000000000000000000000000000000000000000000000000000000000815260040161065290614928565b60405180910390fd5b60008083815260200190815260200160002060008473ffffffffffffffffffffffffffffffffffffffff1673ffffffffffffffffffffffffffffffffffffffff16815260200190815260200160002054905092915050565b60007fd9b67a26000000000000000000000000000000000000000000000000000000007bffffffffffffffffffffffffffffffffffffffffffffffffffffffff1916827bffffffffffffffffffffffffffffffffffffffffffffffffffffffff1916148061077e57507f0e89341c000000000000000000000000000000000000000000000000000000007bffffffffffffffffffffffffffffffffffffffffffffffffffffffff1916827bffffffffffffffffffffffffffffffffffffffffffffffffffffffff1916145b8061078e575061078d82612285565b5b9050919050565b61079d6122ef565b73ffffffffffffffffffffffffffffffffffffffff166107bb611ce4565b73ffffffffffffffffffffffffffffffffffffffff1614610811576040517f08c379a000000000000000000000000000000000000000000000000000000000815260040161080890614aa8565b60405180910390fd5b60005b81518110156109585760016010600084848151811061085c577f4e487b7100000000000000000000000000000000000000000000000000000000600052603260045260246000fd5b602002602001015173ffffffffffffffffffffffffffffffffffffffff1673ffffffffffffffffffffffffffffffffffffffff1681526020019081526020016000208190555060178282815181106108dd577f4e487b7100000000000000000000000000000000000000000000000000000000600052603260045260246000fd5b60200260200101519080600181540180825580915050600190039060005260206000200160009091909190916101000a81548173ffffffffffffffffffffffffffffffffffffffff021916908373ffffffffffffffffffffffffffffffffffffffff160217905550808061095090615055565b915050610814565b5050565b6060620186a082111561099b57600c610974836122f7565b604051602001610985929190614693565b6040516020818303038152906040529050610a04565b60008214156109d657600c6109af836122f7565b6040516020016109c0929190614659565b6040516020818303038152906040529050610a04565b600c6109e1836122f7565b6040516020016109f29291906146cd565b60405160208183030381529060405290505b919050565b600060065411610a4e576040517f08c379a0000000000000000000000000000000000000000000000000000000008152600401610a4590614a08565b60405180910390fd5b6000601260003373ffffffffffffffffffffffffffffffffffffffff1673ffffffffffffffffffffffffffffffffffffffff16815260200190815260200160002060000160029054906101000a900463ffffffff1663ffffffff1611610ae9576040517f08c379a0000000000000000000000000000000000000000000000000000000008152600401610ae090614c28565b60405180910390fd5b6000610af36122ef565b9050601260008273ffffffffffffffffffffffffffffffffffffffff1673ffffffffffffffffffffffffffffffffffffffff168152602001908152602001600020600001600281819054906101000a900463ffffffff1680929190610b5790614fc8565b91906101000a81548163ffffffff021916908363ffffffff16021790555050610b7f816124a4565b50565b600047905090565b610b926122ef565b73ffffffffffffffffffffffffffffffffffffffff16610bb0611ce4565b73ffffffffffffffffffffffffffffffffffffffff1614610c06576040517f08c379a0000000000000000000000000000000000000000000000000000000008152600401610bfd90614aa8565b60405180910390fd5b60006006541115610c4c576040517f08c379a0000000000000000000000000000000000000000000000000000000008152600401610c4390614c68565b60405180910390fd5b6103e8600681905550610bb8600754610c659190614e0b565b6007819055506000601381905550610c7b6117e7565b7fe3d47dee33b959cc59941f840525125123544e1f194b235f340f0c6147697ac333610bb8604051610cae929190614829565b60405180910390a1565b610cc06122ef565b73ffffffffffffffffffffffffffffffffffffffff168573ffffffffffffffffffffffffffffffffffffffff161480610d065750610d0585610d006122ef565b612058565b5b610d45576040517f08c379a0000000000000000000000000000000000000000000000000000000008152600401610d3c90614a48565b60405180910390fd5b610d528585858585612ae9565b5050505050565b610d616122ef565b73ffffffffffffffffffffffffffffffffffffffff16610d7f611ce4565b73ffffffffffffffffffffffffffffffffffffffff1614610dd5576040517f08c379a0000000000000000000000000000000000000000000000000000000008152600401610dcc90614aa8565b60405180910390fd5b60005b82829050811015610e985760116000848484818110610e20577f4e487b7100000000000000000000000000000000000000000000000000000000600052603260045260246000fd5b9050602002016020810190610e359190613ba3565b73ffffffffffffffffffffffffffffffffffffffff1673ffffffffffffffffffffffffffffffffffffffff1681526020019081526020016000206000815480929190610e8090615055565b91905055508080610e9090615055565b915050610dd8565b505050565b610ea56122ef565b73ffffffffffffffffffffffffffffffffffffffff16610ec3611ce4565b73ffffffffffffffffffffffffffffffffffffffff1614610f19576040517f08c379a0000000000000000000000000000000000000000000000000000000008152600401610f1090614aa8565b60405180910390fd5b8060088190555050565b6009544211610f67576040517f08c379a0000000000000000000000000000000000000000000000000000000008152600401610f5e90614b48565b60405180910390fd5b600a544210156110fd57601260003373ffffffffffffffffffffffffffffffffffffffff1673ffffffffffffffffffffffffffffffffffffffff16815260200190815260200160002060000160009054906101000a900460ff16611000576040517f08c379a0000000000000000000000000000000000000000000000000000000008152600401610ff790614ba8565b60405180910390fd5b6001601260003373ffffffffffffffffffffffffffffffffffffffff1673ffffffffffffffffffffffffffffffffffffffff16815260200190815260200160002060000160069054906101000a900463ffffffff1663ffffffff161061109b576040517f08c379a000000000000000000000000000000000000000000000000000000000815260040161109290614ac8565b60405180910390fd5b6000601454116110e0576040517f08c379a00000000000000000000000000000000000000000000000000000000081526004016110d790614ae8565b60405180910390fd5b601460008154809291906110f390614f9e565b9190505550611538565b600a544211801561110f5750600b5442105b1561132557601260003373ffffffffffffffffffffffffffffffffffffffff1673ffffffffffffffffffffffffffffffffffffffff16815260200190815260200160002060000160009054906101000a900460ff1680156111c857506002601260003373ffffffffffffffffffffffffffffffffffffffff1673ffffffffffffffffffffffffffffffffffffffff16815260200190815260200160002060000160069054906101000a900463ffffffff1663ffffffff16105b806112835750601260003373ffffffffffffffffffffffffffffffffffffffff1673ffffffffffffffffffffffffffffffffffffffff16815260200190815260200160002060000160019054906101000a900460ff16801561128257506001601260003373ffffffffffffffffffffffffffffffffffffffff1673ffffffffffffffffffffffffffffffffffffffff16815260200190815260200160002060000160069054906101000a900463ffffffff1663ffffffff16105b5b6112c2576040517f08c379a00000000000000000000000000000000000000000000000000000000081526004016112b990614968565b60405180910390fd5b61015960135410611308576040517f08c379a00000000000000000000000000000000000000000000000000000000081526004016112ff90614b28565b60405180910390fd5b6013600081548092919061131b90615055565b9190505550611537565b601260003373ffffffffffffffffffffffffffffffffffffffff1673ffffffffffffffffffffffffffffffffffffffff16815260200190815260200160002060000160009054906101000a900460ff1680156113d957506003601260003373ffffffffffffffffffffffffffffffffffffffff1673ffffffffffffffffffffffffffffffffffffffff16815260200190815260200160002060000160069054906101000a900463ffffffff1663ffffffff16105b806114945750601260003373ffffffffffffffffffffffffffffffffffffffff1673ffffffffffffffffffffffffffffffffffffffff16815260200190815260200160002060000160019054906101000a900460ff16801561149357506002601260003373ffffffffffffffffffffffffffffffffffffffff1673ffffffffffffffffffffffffffffffffffffffff16815260200190815260200160002060000160069054906101000a900463ffffffff1663ffffffff16105b5b806114f757506001601260003373ffffffffffffffffffffffffffffffffffffffff1673ffffffffffffffffffffffffffffffffffffffff16815260200190815260200160002060000160069054906101000a900463ffffffff1663ffffffff16105b611536576040517f08c379a000000000000000000000000000000000000000000000000000000000815260040161152d906149e8565b60405180910390fd5b5b5b6002600354141561157e576040517f08c379a000000000000000000000000000000000000000000000000000000000815260040161157590614c08565b60405180910390fd5b600260038190555067016345785d8a00003410156115d1576040517f08c379a00000000000000000000000000000000000000000000000000000000081526004016115c890614c48565b60405180910390fd5b600060065411611616576040517f08c379a000000000000000000000000000000000000000000000000000000000815260040161160d90614988565b60405180910390fd5b60006116206122ef565b905061162b816124a4565b506001600381905550565b6060815183511461167c576040517f08c379a000000000000000000000000000000000000000000000000000000000815260040161167390614b88565b60405180910390fd5b6000835167ffffffffffffffff8111156116bf577f4e487b7100000000000000000000000000000000000000000000000000000000600052604160045260246000fd5b6040519080825280602002602001820160405280156116ed5781602001602082028036833780820191505090505b50905060005b84518110156117dc57611786858281518110611738577f4e487b7100000000000000000000000000000000000000000000000000000000600052603260045260246000fd5b6020026020010151858381518110611779577f4e487b7100000000000000000000000000000000000000000000000000000000600052603260045260246000fd5b60200260200101516105ea565b8282815181106117bf577f4e487b7100000000000000000000000000000000000000000000000000000000600052603260045260246000fd5b602002602001018181525050806117d590615055565b90506116f3565b508091505092915050565b6117ef6122ef565b73ffffffffffffffffffffffffffffffffffffffff1661180d611ce4565b73ffffffffffffffffffffffffffffffffffffffff1614611863576040517f08c379a000000000000000000000000000000000000000000000000000000000815260040161185a90614aa8565b60405180910390fd5b60005b601580549050811015611a0b57600060126000601584815481106118b3577f4e487b7100000000000000000000000000000000000000000000000000000000600052603260045260246000fd5b9060005260206000200160009054906101000a900473ffffffffffffffffffffffffffffffffffffffff1673ffffffffffffffffffffffffffffffffffffffff1673ffffffffffffffffffffffffffffffffffffffff16815260200190815260200160002060000160066101000a81548163ffffffff021916908363ffffffff16021790555060006012600060158481548110611979577f4e487b7100000000000000000000000000000000000000000000000000000000600052603260045260246000fd5b9060005260206000200160009054906101000a900473ffffffffffffffffffffffffffffffffffffffff1673ffffffffffffffffffffffffffffffffffffffff1673ffffffffffffffffffffffffffffffffffffffff16815260200190815260200160002060000160016101000a81548160ff0219169083151502179055508080611a0390615055565b915050611866565b5060156000611a1a919061391e565b565b611a246122ef565b73ffffffffffffffffffffffffffffffffffffffff16611a42611ce4565b73ffffffffffffffffffffffffffffffffffffffff1614611a98576040517f08c379a0000000000000000000000000000000000000000000000000000000008152600401611a8f90614aa8565b60405180910390fd5b60004711611adb576040517f08c379a0000000000000000000000000000000000000000000000000000000008152600401611ad290614b08565b60405180910390fd5b3373ffffffffffffffffffffffffffffffffffffffff166108fc479081150290604051600060405180830381858888f19350505050158015611b21573d6000803e3d6000fd5b50565b6000600754905090565b611b366122ef565b73ffffffffffffffffffffffffffffffffffffffff16611b54611ce4565b73ffffffffffffffffffffffffffffffffffffffff1614611baa576040517f08c379a0000000000000000000000000000000000000000000000000000000008152600401611ba190614aa8565b60405180910390fd5b828211611bec576040517f08c379a0000000000000000000000000000000000000000000000000000000008152600401611be390614a68565b60405180910390fd5b818111611c2e576040517f08c379a0000000000000000000000000000000000000000000000000000000008152600401611c25906149c8565b60405180910390fd5b8260098190555081600a8190555080600b81905550505050565b611c506122ef565b73ffffffffffffffffffffffffffffffffffffffff16611c6e611ce4565b73ffffffffffffffffffffffffffffffffffffffff1614611cc4576040517f08c379a0000000000000000000000000000000000000000000000000000000008152600401611cbb90614aa8565b60405180910390fd5b611cce6000612e3b565b565b6000600854905090565b6000600654905090565b6000600260009054906101000a900473ffffffffffffffffffffffffffffffffffffffff16905090565b6060611d186122ef565b73ffffffffffffffffffffffffffffffffffffffff16611d36611ce4565b73ffffffffffffffffffffffffffffffffffffffff1614611d8c576040517f08c379a0000000000000000000000000000000000000000000000000000000008152600401611d8390614aa8565b60405180910390fd5b611d976016546122f7565b611da56017805490506122f7565b604051602001611db6929190614707565b604051602081830303815290604052905090565b611dd26122ef565b73ffffffffffffffffffffffffffffffffffffffff16611df0611ce4565b73ffffffffffffffffffffffffffffffffffffffff1614611e46576040517f08c379a0000000000000000000000000000000000000000000000000000000008152600401611e3d90614aa8565b60405180910390fd5b60005b8151811015611f02576001600f6000848481518110611e91577f4e487b7100000000000000000000000000000000000000000000000000000000600052603260045260246000fd5b602002602001015173ffffffffffffffffffffffffffffffffffffffff1673ffffffffffffffffffffffffffffffffffffffff1681526020019081526020016000208190555060166000815480929190611eea90615055565b91905055508080611efa90615055565b915050611e49565b5050565b611f18611f116122ef565b8383612f01565b5050565b611f246122ef565b73ffffffffffffffffffffffffffffffffffffffff16611f42611ce4565b73ffffffffffffffffffffffffffffffffffffffff1614611f98576040517f08c379a0000000000000000000000000000000000000000000000000000000008152600401611f8f90614aa8565b60405180910390fd5b60005b8151811015612054576000600f6000848481518110611fe3577f4e487b7100000000000000000000000000000000000000000000000000000000600052603260045260246000fd5b602002602001015173ffffffffffffffffffffffffffffffffffffffff1673ffffffffffffffffffffffffffffffffffffffff168152602001908152602001600020819055506016600081548092919061203c90614f9e565b9190505550808061204c90615055565b915050611f9b565b5050565b6000600160008473ffffffffffffffffffffffffffffffffffffffff1673ffffffffffffffffffffffffffffffffffffffff16815260200190815260200160002060008373ffffffffffffffffffffffffffffffffffffffff1673ffffffffffffffffffffffffffffffffffffffff16815260200190815260200160002060009054906101000a900460ff16905092915050565b6120f46122ef565b73ffffffffffffffffffffffffffffffffffffffff168573ffffffffffffffffffffffffffffffffffffffff16148061213a5750612139856121346122ef565b612058565b5b612179576040517f08c379a0000000000000000000000000000000000000000000000000000000008152600401612170906149a8565b60405180910390fd5b612186858585858561306e565b5050505050565b6121956122ef565b73ffffffffffffffffffffffffffffffffffffffff166121b3611ce4565b73ffffffffffffffffffffffffffffffffffffffff1614612209576040517f08c379a000000000000000000000000000000000000000000000000000000000815260040161220090614aa8565b60405180910390fd5b600073ffffffffffffffffffffffffffffffffffffffff168173ffffffffffffffffffffffffffffffffffffffff161415612279576040517f08c379a000000000000000000000000000000000000000000000000000000000815260040161227090614948565b60405180910390fd5b61228281612e3b565b50565b60007f01ffc9a7000000000000000000000000000000000000000000000000000000007bffffffffffffffffffffffffffffffffffffffffffffffffffffffff1916827bffffffffffffffffffffffffffffffffffffffffffffffffffffffff1916149050919050565b600033905090565b6060600082141561233f576040518060400160405280600181526020017f3000000000000000000000000000000000000000000000000000000000000000815250905061249f565b600082905060005b6000821461237157808061235a90615055565b915050600a8261236a9190614e61565b9150612347565b60008167ffffffffffffffff8111156123b3577f4e487b7100000000000000000000000000000000000000000000000000000000600052604160045260246000fd5b6040519080825280601f01601f1916602001820160405280156123e55781602001600182028036833780820191505090505b5090505b60008514612498576001826123fe9190614e92565b9150600a8561240d91906150cb565b60306124199190614e0b565b60f81b818381518110612455577f4e487b7100000000000000000000000000000000000000000000000000000000600052603260045260246000fd5b60200101907effffffffffffffffffffffffffffffffffffffffffffffffffffffffffffff1916908160001a905350600a856124919190614e61565b94506123e9565b8093505050505b919050565b6000600667ffffffffffffffff8111156124e7577f4e487b7100000000000000000000000000000000000000000000000000000000600052604160045260246000fd5b6040519080825280602002602001820160405280156125155781602001602082028036833780820191505090505b5090506000600667ffffffffffffffff81111561255b577f4e487b7100000000000000000000000000000000000000000000000000000000600052604160045260246000fd5b6040519080825280602002602001820160405280156125895781602001602082028036833780820191505090505b5090506001826000815181106125c8577f4e487b7100000000000000000000000000000000000000000000000000000000600052603260045260246000fd5b602002602001018181525050600182600181518110612610577f4e487b7100000000000000000000000000000000000000000000000000000000600052603260045260246000fd5b602002602001018181525050600182600281518110612658577f4e487b7100000000000000000000000000000000000000000000000000000000600052603260045260246000fd5b6020026020010181815250506001826003815181106126a0577f4e487b7100000000000000000000000000000000000000000000000000000000600052603260045260246000fd5b6020026020010181815250506001826004815181106126e8577f4e487b7100000000000000000000000000000000000000000000000000000000600052603260045260246000fd5b602002602001018181525050600382600581518110612730577f4e487b7100000000000000000000000000000000000000000000000000000000600052603260045260246000fd5b60200260200101818152505060045481600081518110612779577f4e487b7100000000000000000000000000000000000000000000000000000000600052603260045260246000fd5b6020026020010181815250506004600081548092919061279890615055565b9190505550600454816001815181106127da577f4e487b7100000000000000000000000000000000000000000000000000000000600052603260045260246000fd5b602002602001018181525050600460008154809291906127f990615055565b91905055506004548160028151811061283b577f4e487b7100000000000000000000000000000000000000000000000000000000600052603260045260246000fd5b6020026020010181815250506004600081548092919061285a90615055565b91905055506004548160038151811061289c577f4e487b7100000000000000000000000000000000000000000000000000000000600052603260045260246000fd5b602002602001018181525050600460008154809291906128bb90615055565b9190505550600554816004815181106128fd577f4e487b7100000000000000000000000000000000000000000000000000000000600052603260045260246000fd5b6020026020010181815250506005600081548092919061291c90615055565b9190505550601260003373ffffffffffffffffffffffffffffffffffffffff1673ffffffffffffffffffffffffffffffffffffffff168152602001908152602001600020600001600681819054906101000a900463ffffffff16809291906129839061509e565b91906101000a81548163ffffffff021916908363ffffffff160217905550506129bd338284604051806020016040528060008152506132d2565b600660008154809291906129d090614f9e565b9190505550601260008473ffffffffffffffffffffffffffffffffffffffff1673ffffffffffffffffffffffffffffffffffffffff16815260200190815260200160002060000160009054906101000a900460ff1680612a7c5750601260008473ffffffffffffffffffffffffffffffffffffffff1673ffffffffffffffffffffffffffffffffffffffff16815260200190815260200160002060000160019054906101000a900460ff165b612ae4576015339080600181540180825580915050600190039060005260206000200160009091909190916101000a81548173ffffffffffffffffffffffffffffffffffffffff021916908373ffffffffffffffffffffffffffffffffffffffff1602179055505b505050565b8151835114612b2d576040517f08c379a0000000000000000000000000000000000000000000000000000000008152600401612b2490614bc8565b60405180910390fd5b600073ffffffffffffffffffffffffffffffffffffffff168473ffffffffffffffffffffffffffffffffffffffff161415612b9d576040517f08c379a0000000000000000000000000000000000000000000000000000000008152600401612b9490614a28565b60405180910390fd5b6000612ba76122ef565b905060005b8451811015612da6576000858281518110612bf0577f4e487b7100000000000000000000000000000000000000000000000000000000600052603260045260246000fd5b602002602001015190506000858381518110612c35577f4e487b7100000000000000000000000000000000000000000000000000000000600052603260045260246000fd5b60200260200101519050600080600084815260200190815260200160002060008b73ffffffffffffffffffffffffffffffffffffffff1673ffffffffffffffffffffffffffffffffffffffff16815260200190815260200160002054905081811015612cd6576040517f08c379a0000000000000000000000000000000000000000000000000000000008152600401612ccd90614a88565b60405180910390fd5b81810360008085815260200190815260200160002060008c73ffffffffffffffffffffffffffffffffffffffff1673ffffffffffffffffffffffffffffffffffffffff168152602001908152602001600020819055508160008085815260200190815260200160002060008b73ffffffffffffffffffffffffffffffffffffffff1673ffffffffffffffffffffffffffffffffffffffff1681526020019081526020016000206000828254612d8b9190614e0b565b9250508190555050505080612d9f90615055565b9050612bac565b508473ffffffffffffffffffffffffffffffffffffffff168673ffffffffffffffffffffffffffffffffffffffff168273ffffffffffffffffffffffffffffffffffffffff167f4a39dc06d4c0dbc64b70af90fd698a233a518aa5d07e595d983b8c0526c8f7fb8787604051612e1d929190614874565b60405180910390a4612e3381878787878761352d565b505050505050565b6000600260009054906101000a900473ffffffffffffffffffffffffffffffffffffffff16905081600260006101000a81548173ffffffffffffffffffffffffffffffffffffffff021916908373ffffffffffffffffffffffffffffffffffffffff1602179055508173ffffffffffffffffffffffffffffffffffffffff168173ffffffffffffffffffffffffffffffffffffffff167f8be0079c531659141344cd1fd0a4f28419497f9722a3daafe3b4186f6b6457e060405160405180910390a35050565b8173ffffffffffffffffffffffffffffffffffffffff168373ffffffffffffffffffffffffffffffffffffffff161415612f70576040517f08c379a0000000000000000000000000000000000000000000000000000000008152600401612f6790614b68565b60405180910390fd5b80600160008573ffffffffffffffffffffffffffffffffffffffff1673ffffffffffffffffffffffffffffffffffffffff16815260200190815260200160002060008473ffffffffffffffffffffffffffffffffffffffff1673ffffffffffffffffffffffffffffffffffffffff16815260200190815260200160002060006101000a81548160ff0219169083151502179055508173ffffffffffffffffffffffffffffffffffffffff168373ffffffffffffffffffffffffffffffffffffffff167f17307eab39ab6107e8899845ad3d59bd9653f200f220920489ca2b5937696c318360405161306191906148ab565b60405180910390a3505050565b600073ffffffffffffffffffffffffffffffffffffffff168473ffffffffffffffffffffffffffffffffffffffff1614156130de576040517f08c379a00000000000000000000000000000000000000000000000000000000081526004016130d590614a28565b60405180910390fd5b60006130e86122ef565b9050600080600086815260200190815260200160002060008873ffffffffffffffffffffffffffffffffffffffff1673ffffffffffffffffffffffffffffffffffffffff16815260200190815260200160002054905083811015613181576040517f08c379a000000000000000000000000000000000000000000000000000000000815260040161317890614a88565b60405180910390fd5b83810360008087815260200190815260200160002060008973ffffffffffffffffffffffffffffffffffffffff1673ffffffffffffffffffffffffffffffffffffffff168152602001908152602001600020819055508360008087815260200190815260200160002060008873ffffffffffffffffffffffffffffffffffffffff1673ffffffffffffffffffffffffffffffffffffffff16815260200190815260200160002060008282546132369190614e0b565b925050819055508573ffffffffffffffffffffffffffffffffffffffff168773ffffffffffffffffffffffffffffffffffffffff168373ffffffffffffffffffffffffffffffffffffffff167fc3d58168c5ae7397731d063d5bbf3d657854427343f4c083240f7aacaa2d0f6288886040516132b3929190614ca3565b60405180910390a46132c9828888888888613714565b50505050505050565b600073ffffffffffffffffffffffffffffffffffffffff168473ffffffffffffffffffffffffffffffffffffffff161415613342576040517f08c379a000000000000000000000000000000000000000000000000000000000815260040161333990614be8565b60405180910390fd5b8151835114613386576040517f08c379a000000000000000000000000000000000000000000000000000000000815260040161337d90614bc8565b60405180910390fd5b60006133906122ef565b905060005b8451811015613497578381815181106133d7577f4e487b7100000000000000000000000000000000000000000000000000000000600052603260045260246000fd5b602002602001015160008087848151811061341b577f4e487b7100000000000000000000000000000000000000000000000000000000600052603260045260246000fd5b6020026020010151815260200190815260200160002060008873ffffffffffffffffffffffffffffffffffffffff1673ffffffffffffffffffffffffffffffffffffffff168152602001908152602001600020600082825461347d9190614e0b565b92505081905550808061348f90615055565b915050613395565b508473ffffffffffffffffffffffffffffffffffffffff16600073ffffffffffffffffffffffffffffffffffffffff168273ffffffffffffffffffffffffffffffffffffffff167f4a39dc06d4c0dbc64b70af90fd698a233a518aa5d07e595d983b8c0526c8f7fb878760405161350f929190614874565b60405180910390a46135268160008787878761352d565b5050505050565b61354c8473ffffffffffffffffffffffffffffffffffffffff166138fb565b1561370c578373ffffffffffffffffffffffffffffffffffffffff1663bc197c8187878686866040518663ffffffff1660e01b8152600401613592959493929190614767565b602060405180830381600087803b1580156135ac57600080fd5b505af19250505080156135dd57506040513d601f19601f820116820180604052508101906135da9190613ee9565b60015b613683576135e96151b8565b806308c379a0141561364657506135fe615ada565b806136095750613648565b806040517f08c379a000000000000000000000000000000000000000000000000000000000815260040161363d91906148c6565b60405180910390fd5b505b6040517f08c379a000000000000000000000000000000000000000000000000000000000815260040161367a906148e8565b60405180910390fd5b63bc197c8160e01b7bffffffffffffffffffffffffffffffffffffffffffffffffffffffff1916817bffffffffffffffffffffffffffffffffffffffffffffffffffffffff19161461370a576040517f08c379a000000000000000000000000000000000000000000000000000000000815260040161370190614908565b60405180910390fd5b505b505050505050565b6137338473ffffffffffffffffffffffffffffffffffffffff166138fb565b156138f3578373ffffffffffffffffffffffffffffffffffffffff1663f23a6e6187878686866040518663ffffffff1660e01b81526004016137799594939291906147cf565b602060405180830381600087803b15801561379357600080fd5b505af19250505080156137c457506040513d601f19601f820116820180604052508101906137c19190613ee9565b60015b61386a576137d06151b8565b806308c379a0141561382d57506137e5615ada565b806137f0575061382f565b806040517f08c379a000000000000000000000000000000000000000000000000000000000815260040161382491906148c6565b60405180910390fd5b505b6040517f08c379a0000000000000000000000000000000000000000000000000000000008152600401613861906148e8565b60405180910390fd5b63f23a6e6160e01b7bffffffffffffffffffffffffffffffffffffffffffffffffffffffff1916817bffffffffffffffffffffffffffffffffffffffffffffffffffffffff1916146138f1576040517f08c379a00000000000000000000000000000000000000000000000000000000081526004016138e890614908565b60405180910390fd5b505b505050505050565b6000808273ffffffffffffffffffffffffffffffffffffffff163b119050919050565b508054600082559060005260206000209081019061393c919061393f565b50565b5b80821115613958576000816000905550600101613940565b5090565b600061396f61396a84614cf1565b614ccc565b9050808382526020820190508285602086028201111561398e57600080fd5b60005b858110156139be57816139a48882613a72565b845260208401935060208301925050600181019050613991565b5050509392505050565b60006139db6139d684614d1d565b614ccc565b905080838252602082019050828560208602820111156139fa57600080fd5b60005b85811015613a2a5781613a108882613b8e565b8452602084019350602083019250506001810190506139fd565b5050509392505050565b6000613a47613a4284614d49565b614ccc565b905082815260208101848484011115613a5f57600080fd5b613a6a848285614f5c565b509392505050565b600081359050613a8181615b70565b92915050565b60008083601f840112613a9957600080fd5b8235905067ffffffffffffffff811115613ab257600080fd5b602083019150836020820283011115613aca57600080fd5b9250929050565b600082601f830112613ae257600080fd5b8135613af284826020860161395c565b91505092915050565b600082601f830112613b0c57600080fd5b8135613b1c8482602086016139c8565b91505092915050565b600081359050613b3481615b87565b92915050565b600081359050613b4981615b9e565b92915050565b600081519050613b5e81615b9e565b92915050565b600082601f830112613b7557600080fd5b8135613b85848260208601613a34565b91505092915050565b600081359050613b9d81615bb5565b92915050565b600060208284031215613bb557600080fd5b6000613bc384828501613a72565b91505092915050565b60008060408385031215613bdf57600080fd5b6000613bed85828601613a72565b9250506020613bfe85828601613a72565b9150509250929050565b600080600080600060a08688031215613c2057600080fd5b6000613c2e88828901613a72565b9550506020613c3f88828901613a72565b945050604086013567ffffffffffffffff811115613c5c57600080fd5b613c6888828901613afb565b935050606086013567ffffffffffffffff811115613c8557600080fd5b613c9188828901613afb565b925050608086013567ffffffffffffffff811115613cae57600080fd5b613cba88828901613b64565b9150509295509295909350565b600080600080600060a08688031215613cdf57600080fd5b6000613ced88828901613a72565b9550506020613cfe88828901613a72565b9450506040613d0f88828901613b8e565b9350506060613d2088828901613b8e565b925050608086013567ffffffffffffffff811115613d3d57600080fd5b613d4988828901613b64565b9150509295509295909350565b60008060408385031215613d6957600080fd5b6000613d7785828601613a72565b9250506020613d8885828601613b25565b9150509250929050565b60008060408385031215613da557600080fd5b6000613db385828601613a72565b9250506020613dc485828601613b8e565b9150509250929050565b60008060208385031215613de157600080fd5b600083013567ffffffffffffffff811115613dfb57600080fd5b613e0785828601613a87565b92509250509250929050565b600060208284031215613e2557600080fd5b600082013567ffffffffffffffff811115613e3f57600080fd5b613e4b84828501613ad1565b91505092915050565b60008060408385031215613e6757600080fd5b600083013567ffffffffffffffff811115613e8157600080fd5b613e8d85828601613ad1565b925050602083013567ffffffffffffffff811115613eaa57600080fd5b613eb685828601613afb565b9150509250929050565b600060208284031215613ed257600080fd5b6000613ee084828501613b3a565b91505092915050565b600060208284031215613efb57600080fd5b6000613f0984828501613b4f565b91505092915050565b600060208284031215613f2457600080fd5b6000613f3284828501613b8e565b91505092915050565b600080600060608486031215613f5057600080fd5b6000613f5e86828701613b8e565b9350506020613f6f86828701613b8e565b9250506040613f8086828701613b8e565b9150509250925092565b6000613f96838361463b565b60208301905092915050565b613fab81614ec6565b82525050565b6000613fbc82614d9f565b613fc68185614dcd565b9350613fd183614d7a565b8060005b83811015614002578151613fe98882613f8a565b9750613ff483614dc0565b925050600181019050613fd5565b5085935050505092915050565b61401881614ed8565b82525050565b600061402982614daa565b6140338185614dde565b9350614043818560208601614f6b565b61404c816151da565b840191505092915050565b61406081614f4a565b82525050565b600061407182614db5565b61407b8185614def565b935061408b818560208601614f6b565b614094816151da565b840191505092915050565b60006140aa82614db5565b6140b48185614e00565b93506140c4818560208601614f6b565b80840191505092915050565b600081546140dd81614ff2565b6140e78186614e00565b94506001821660008114614102576001811461411357614146565b60ff19831686528186019350614146565b61411c85614d8a565b60005b8381101561413e5781548189015260018201915060208101905061411f565b838801955050505b50505092915050565b600061415c603483614def565b9150614167826151f8565b604082019050919050565b600061417f602883614def565b915061418a82615247565b604082019050919050565b60006141a2601383614e00565b91506141ad82615296565b601382019050919050565b60006141c5602b83614def565b91506141d0826152bf565b604082019050919050565b60006141e8602683614def565b91506141f38261530e565b604082019050919050565b600061420b602e83614def565b91506142168261535d565b604082019050919050565b600061422e601d83614def565b9150614239826153ac565b602082019050919050565b6000614251602983614def565b915061425c826153d5565b604082019050919050565b6000614274602a83614def565b915061427f82615424565b604082019050919050565b6000614297601d83614e00565b91506142a282615473565b601d82019050919050565b60006142ba603283614def565b91506142c58261549c565b604082019050919050565b60006142dd601d83614def565b91506142e8826154eb565b602082019050919050565b6000614300602583614def565b915061430b82615514565b604082019050919050565b6000614323603283614def565b915061432e82615563565b604082019050919050565b6000614346602383614def565b9150614351826155b2565b604082019050919050565b6000614369602a83614def565b915061437482615601565b604082019050919050565b600061438c600583614e00565b915061439782615650565b600582019050919050565b60006143af602083614def565b91506143ba82615679565b602082019050919050565b60006143d2603283614def565b91506143dd826156a2565b604082019050919050565b60006143f5600a83614e00565b9150614400826156f1565b600a82019050919050565b6000614418601e83614def565b91506144238261571a565b602082019050919050565b600061443b600d83614e00565b915061444682615743565b600d82019050919050565b600061445e601483614def565b91506144698261576c565b602082019050919050565b6000614481602983614def565b915061448c82615795565b604082019050919050565b60006144a4600783614e00565b91506144af826157e4565b600782019050919050565b60006144c7601883614def565b91506144d28261580d565b602082019050919050565b60006144ea602983614def565b91506144f582615836565b604082019050919050565b600061450d602983614def565b915061451882615885565b604082019050919050565b6000614530603d83614def565b915061453b826158d4565b604082019050919050565b6000614553602883614def565b915061455e82615923565b604082019050919050565b6000614576602183614def565b915061458182615972565b604082019050919050565b6000614599601f83614def565b91506145a4826159c1565b602082019050919050565b60006145bc601b83614def565b91506145c7826159ea565b602082019050919050565b60006145df603883614def565b91506145ea82615a13565b604082019050919050565b6000614602600883614e00565b915061460d82615a62565b600882019050919050565b6000614625602c83614def565b915061463082615a8b565b604082019050919050565b61464481614f30565b82525050565b61465381614f30565b82525050565b600061466582856140d0565b9150614670826143e8565b915061467c828461409f565b91506146878261437f565b91508190509392505050565b600061469f82856140d0565b91506146aa82614497565b91506146b6828461409f565b91506146c18261437f565b91508190509392505050565b60006146d982856140d0565b91506146e4826145f5565b91506146f0828461409f565b91506146fb8261437f565b91508190509392505050565b60006147128261442e565b915061471e828561409f565b91506147298261428a565b9150614735828461409f565b915061474082614195565b91508190509392505050565b60006020820190506147616000830184613fa2565b92915050565b600060a08201905061477c6000830188613fa2565b6147896020830187613fa2565b818103604083015261479b8186613fb1565b905081810360608301526147af8185613fb1565b905081810360808301526147c3818461401e565b90509695505050505050565b600060a0820190506147e46000830188613fa2565b6147f16020830187613fa2565b6147fe604083018661464a565b61480b606083018561464a565b818103608083015261481d818461401e565b90509695505050505050565b600060408201905061483e6000830185613fa2565b61484b6020830184614057565b9392505050565b6000602082019050818103600083015261486c8184613fb1565b905092915050565b6000604082019050818103600083015261488e8185613fb1565b905081810360208301526148a28184613fb1565b90509392505050565b60006020820190506148c0600083018461400f565b92915050565b600060208201905081810360008301526148e08184614066565b905092915050565b600060208201905081810360008301526149018161414f565b9050919050565b6000602082019050818103600083015261492181614172565b9050919050565b60006020820190508181036000830152614941816141b8565b9050919050565b60006020820190508181036000830152614961816141db565b9050919050565b60006020820190508181036000830152614981816141fe565b9050919050565b600060208201905081810360008301526149a181614221565b9050919050565b600060208201905081810360008301526149c181614244565b9050919050565b600060208201905081810360008301526149e181614267565b9050919050565b60006020820190508181036000830152614a01816142ad565b9050919050565b60006020820190508181036000830152614a21816142d0565b9050919050565b60006020820190508181036000830152614a41816142f3565b9050919050565b60006020820190508181036000830152614a6181614316565b9050919050565b60006020820190508181036000830152614a8181614339565b9050919050565b60006020820190508181036000830152614aa18161435c565b9050919050565b60006020820190508181036000830152614ac1816143a2565b9050919050565b60006020820190508181036000830152614ae1816143c5565b9050919050565b60006020820190508181036000830152614b018161440b565b9050919050565b60006020820190508181036000830152614b2181614451565b9050919050565b60006020820190508181036000830152614b4181614474565b9050919050565b60006020820190508181036000830152614b61816144ba565b9050919050565b60006020820190508181036000830152614b81816144dd565b9050919050565b60006020820190508181036000830152614ba181614500565b9050919050565b60006020820190508181036000830152614bc181614523565b9050919050565b60006020820190508181036000830152614be181614546565b9050919050565b60006020820190508181036000830152614c0181614569565b9050919050565b60006020820190508181036000830152614c218161458c565b9050919050565b60006020820190508181036000830152614c41816145af565b9050919050565b60006020820190508181036000830152614c61816145d2565b9050919050565b60006020820190508181036000830152614c8181614618565b9050919050565b6000602082019050614c9d600083018461464a565b92915050565b6000604082019050614cb8600083018561464a565b614cc5602083018461464a565b9392505050565b6000614cd6614ce7565b9050614ce28282615024565b919050565b6000604051905090565b600067ffffffffffffffff821115614d0c57614d0b615189565b5b602082029050602081019050919050565b600067ffffffffffffffff821115614d3857614d37615189565b5b602082029050602081019050919050565b600067ffffffffffffffff821115614d6457614d63615189565b5b614d6d826151da565b9050602081019050919050565b6000819050602082019050919050565b60008190508160005260206000209050919050565b600081519050919050565b600081519050919050565b600081519050919050565b6000602082019050919050565b600082825260208201905092915050565b600082825260208201905092915050565b600082825260208201905092915050565b600081905092915050565b6000614e1682614f30565b9150614e2183614f30565b9250827fffffffffffffffffffffffffffffffffffffffffffffffffffffffffffffffff03821115614e5657614e556150fc565b5b828201905092915050565b6000614e6c82614f30565b9150614e7783614f30565b925082614e8757614e8661512b565b5b828204905092915050565b6000614e9d82614f30565b9150614ea883614f30565b925082821015614ebb57614eba6150fc565b5b828203905092915050565b6000614ed182614f10565b9050919050565b60008115159050919050565b60007fffffffff0000000000000000000000000000000000000000000000000000000082169050919050565b600073ffffffffffffffffffffffffffffffffffffffff82169050919050565b6000819050919050565b600063ffffffff82169050919050565b6000614f5582614f30565b9050919050565b82818337600083830152505050565b60005b83811015614f89578082015181840152602081019050614f6e565b83811115614f98576000848401525b50505050565b6000614fa982614f30565b91506000821415614fbd57614fbc6150fc565b5b600182039050919050565b6000614fd382614f3a565b91506000821415614fe757614fe66150fc565b5b600182039050919050565b6000600282049050600182168061500a57607f821691505b6020821081141561501e5761501d61515a565b5b50919050565b61502d826151da565b810181811067ffffffffffffffff8211171561504c5761504b615189565b5b80604052505050565b600061506082614f30565b91507fffffffffffffffffffffffffffffffffffffffffffffffffffffffffffffffff821415615093576150926150fc565b5b600182019050919050565b60006150a982614f3a565b915063ffffffff8214156150c0576150bf6150fc565b5b600182019050919050565b60006150d682614f30565b91506150e183614f30565b9250826150f1576150f061512b565b5b828206905092915050565b7f4e487b7100000000000000000000000000000000000000000000000000000000600052601160045260246000fd5b7f4e487b7100000000000000000000000000000000000000000000000000000000600052601260045260246000fd5b7f4e487b7100000000000000000000000000000000000000000000000000000000600052602260045260246000fd5b7f4e487b7100000000000000000000000000000000000000000000000000000000600052604160045260246000fd5b600060033d11156151d75760046000803e6151d46000516151eb565b90505b90565b6000601f19601f8301169050919050565b60008160e01c9050919050565b7f455243313135353a207472616e7366657220746f206e6f6e204552433131353560008201527f526563656976657220696d706c656d656e746572000000000000000000000000602082015250565b7f455243313135353a204552433131353552656365697665722072656a6563746560008201527f6420746f6b656e73000000000000000000000000000000000000000000000000602082015250565b7f2050726573616c65204d656d6265722873292e00000000000000000000000000600082015250565b7f455243313135353a2062616c616e636520717565727920666f7220746865207a60008201527f65726f2061646472657373000000000000000000000000000000000000000000602082015250565b7f4f776e61626c653a206e6577206f776e657220697320746865207a65726f206160008201527f6464726573730000000000000000000000000000000000000000000000000000602082015250565b7f43616e206f6e6c79206d696e74206f6e65206672756974206261736b6574206460008201527f7572696e672070726573616c652e000000000000000000000000000000000000602082015250565b7f416c6c2042756e646c65732068617665206265656e206d696e7465642e000000600082015250565b7f455243313135353a2063616c6c6572206973206e6f74206f776e6572206e6f7260008201527f20617070726f7665640000000000000000000000000000000000000000000000602082015250565b7f5075626c69632073616c65206d757374206265206c61746572207468616e207460008201527f68652070726573616c6500000000000000000000000000000000000000000000602082015250565b7f20564946204d656d6265722873292e2054686572652069732f61726520000000600082015250565b7f43616e206f6e6c79206d696e74206f6e65206672756974206261736b6574206460008201527f7572696e67207075626c69632073616c652e0000000000000000000000000000602082015250565b7f416c6c2062756e646c65732068617665206265656e206d696e7465642e000000600082015250565b7f455243313135353a207472616e7366657220746f20746865207a65726f20616460008201527f6472657373000000000000000000000000000000000000000000000000000000602082015250565b7f455243313135353a207472616e736665722063616c6c6572206973206e6f742060008201527f6f776e6572206e6f7220617070726f7665640000000000000000000000000000602082015250565b7f50726573616c65204d757374206265206c61746572207468616e20566966205360008201527f616c650000000000000000000000000000000000000000000000000000000000602082015250565b7f455243313135353a20696e73756666696369656e742062616c616e636520666f60008201527f72207472616e7366657200000000000000000000000000000000000000000000602082015250565b7f2e6a736f6e000000000000000000000000000000000000000000000000000000600082015250565b7f4f776e61626c653a2063616c6c6572206973206e6f7420746865206f776e6572600082015250565b7f596f752063616e206f6e6c79206d696e74206f6e65206672756974206261736b60008201527f657420647572696e67205649462073616c650000000000000000000000000000602082015250565b7f2f72656365697074732f00000000000000000000000000000000000000000000600082015250565b7f416c6c205649462062756e646c65732068617665206265656e20736f6c640000600082015250565b7f54686572652069732f6172652000000000000000000000000000000000000000600082015250565b7f4e6f20657468657220696e20636f6e7472616374000000000000000000000000600082015250565b7f416c6c2070726573616c65206672756974206261736b6574732068617665206260008201527f65656e20736f6c642e0000000000000000000000000000000000000000000000602082015250565b7f2f34696e31732f00000000000000000000000000000000000000000000000000600082015250565b7f5649462073616c6520686173206e6f7420737461727465640000000000000000600082015250565b7f455243313135353a2073657474696e6720617070726f76616c2073746174757360008201527f20666f722073656c660000000000000000000000000000000000000000000000602082015250565b7f455243313135353a206163636f756e747320616e6420696473206c656e67746860008201527f206d69736d617463680000000000000000000000000000000000000000000000602082015250565b7f5649462073616c65206973206163746976652062757420796f7527726520617260008201527f65206e6f742061205649462c207761697420666f722070726573616c65000000602082015250565b7f455243313135353a2069647320616e6420616d6f756e7473206c656e6774682060008201527f6d69736d61746368000000000000000000000000000000000000000000000000602082015250565b7f455243313135353a206d696e7420746f20746865207a65726f2061646472657360008201527f7300000000000000000000000000000000000000000000000000000000000000602082015250565b7f5265656e7472616e637947756172643a207265656e7472616e742063616c6c00600082015250565b7f596f7520646f206e6f74206861766520612066726565206d696e740000000000600082015250565b7f4e6f7420656e6f756768206574686572207761732073656e7420746f2070757260008201527f636861736520796f7572206672756974206261736b65742e0000000000000000602082015250565b7f2f6672756974732f000000000000000000000000000000000000000000000000600082015250565b7f416c6c2062756e646c65732068617665206e6f74206265656e20676976656e2060008201527f61776179206f7220736f6c640000000000000000000000000000000000000000602082015250565b600060443d1015615aea57615b6d565b615af2614ce7565b60043d036004823e80513d602482011167ffffffffffffffff82111715615b1a575050615b6d565b808201805167ffffffffffffffff811115615b385750505050615b6d565b80602083010160043d038501811115615b55575050505050615b6d565b615b6482602001850186615024565b82955050505050505b90565b615b7981614ec6565b8114615b8457600080fd5b50565b615b9081614ed8565b8114615b9b57600080fd5b50565b615ba781614ee4565b8114615bb257600080fd5b50565b615bbe81614f30565b8114615bc957600080fd5b5056fea2646970667358221220dcb7705eaff1e8a9dcc11bf46a3b6d4a4a1f7691cbaa1a551768b8ad3bc47f1e64736f6c63430008040033",
  "linkReferences": {},
  "deployedLinkReferences": {}
}