{
  "_format": "hh-sol-artifact-1",
  "contractName": "ERC1155",
  "sourceName": "contracts/tokens/ERC1155.sol",
  "abi": [
    {
      "inputs": [],
      "stateMutability": "nonpayable",
      "type": "constructor"
    },
    {
      "anonymous": false,
      "inputs": [
        {
          "indexed": true,
          "internalType": "address",
          "name": "account",
          "type": "address"
        },
        {
          "indexed": true,
          "internalType": "address",
          "name": "operator",
          "type": "address"
        },
        {
          "indexed": false,
          "internalType": "bool",
          "name": "approved",
          "type": "bool"
        }
      ],
      "name": "ApprovalForAll",
      "type": "event"
    },
    {
      "anonymous": false,
      "inputs": [
        {
          "indexed": true,
          "internalType": "address",
          "name": "operator",
          "type": "address"
        },
        {
          "indexed": true,
          "internalType": "address",
          "name": "from",
          "type": "address"
        },
        {
          "indexed": true,
          "internalType": "address",
          "name": "to",
          "type": "address"
        },
        {
          "indexed": false,
          "internalType": "uint256[]",
          "name": "ids",
          "type": "uint256[]"
        },
        {
          "indexed": false,
          "internalType": "uint256[]",
          "name": "values",
          "type": "uint256[]"
        }
      ],
      "name": "TransferBatch",
      "type": "event"
    },
    {
      "anonymous": false,
      "inputs": [
        {
          "indexed": true,
          "internalType": "address",
          "name": "operator",
          "type": "address"
        },
        {
          "indexed": true,
          "internalType": "address",
          "name": "from",
          "type": "address"
        },
        {
          "indexed": true,
          "internalType": "address",
          "name": "to",
          "type": "address"
        },
        {
          "indexed": false,
          "internalType": "uint256",
          "name": "id",
          "type": "uint256"
        },
        {
          "indexed": false,
          "internalType": "uint256",
          "name": "value",
          "type": "uint256"
        }
      ],
      "name": "TransferSingle",
      "type": "event"
    },
    {
      "anonymous": false,
      "inputs": [
        {
          "indexed": false,
          "internalType": "string",
          "name": "value",
          "type": "string"
        },
        {
          "indexed": true,
          "internalType": "uint256",
          "name": "id",
          "type": "uint256"
        }
      ],
      "name": "URI",
      "type": "event"
    },
    {
      "inputs": [
        {
          "internalType": "address",
          "name": "account",
          "type": "address"
        },
        {
          "internalType": "uint256",
          "name": "id",
          "type": "uint256"
        }
      ],
      "name": "balanceOf",
      "outputs": [
        {
          "internalType": "uint256",
          "name": "",
          "type": "uint256"
        }
      ],
      "stateMutability": "view",
      "type": "function"
    },
    {
      "inputs": [
        {
          "internalType": "address[]",
          "name": "accounts",
          "type": "address[]"
        },
        {
          "internalType": "uint256[]",
          "name": "ids",
          "type": "uint256[]"
        }
      ],
      "name": "balanceOfBatch",
      "outputs": [
        {
          "internalType": "uint256[]",
          "name": "",
          "type": "uint256[]"
        }
      ],
      "stateMutability": "view",
      "type": "function"
    },
    {
      "inputs": [
        {
          "internalType": "address",
          "name": "account",
          "type": "address"
        },
        {
          "internalType": "address",
          "name": "operator",
          "type": "address"
        }
      ],
      "name": "isApprovedForAll",
      "outputs": [
        {
          "internalType": "bool",
          "name": "",
          "type": "bool"
        }
      ],
      "stateMutability": "view",
      "type": "function"
    },
    {
      "inputs": [
        {
          "internalType": "address",
          "name": "from",
          "type": "address"
        },
        {
          "internalType": "address",
          "name": "to",
          "type": "address"
        },
        {
          "internalType": "uint256[]",
          "name": "ids",
          "type": "uint256[]"
        },
        {
          "internalType": "uint256[]",
          "name": "amounts",
          "type": "uint256[]"
        },
        {
          "internalType": "bytes",
          "name": "data",
          "type": "bytes"
        }
      ],
      "name": "safeBatchTransferFrom",
      "outputs": [],
      "stateMutability": "nonpayable",
      "type": "function"
    },
    {
      "inputs": [
        {
          "internalType": "address",
          "name": "from",
          "type": "address"
        },
        {
          "internalType": "address",
          "name": "to",
          "type": "address"
        },
        {
          "internalType": "uint256",
          "name": "id",
          "type": "uint256"
        },
        {
          "internalType": "uint256",
          "name": "amount",
          "type": "uint256"
        },
        {
          "internalType": "bytes",
          "name": "data",
          "type": "bytes"
        }
      ],
      "name": "safeTransferFrom",
      "outputs": [],
      "stateMutability": "nonpayable",
      "type": "function"
    },
    {
      "inputs": [
        {
          "internalType": "address",
          "name": "operator",
          "type": "address"
        },
        {
          "internalType": "bool",
          "name": "approved",
          "type": "bool"
        }
      ],
      "name": "setApprovalForAll",
      "outputs": [],
      "stateMutability": "nonpayable",
      "type": "function"
    },
    {
      "inputs": [
        {
          "internalType": "bytes4",
          "name": "interfaceId",
          "type": "bytes4"
        }
      ],
      "name": "supportsInterface",
      "outputs": [
        {
          "internalType": "bool",
          "name": "",
          "type": "bool"
        }
      ],
      "stateMutability": "view",
      "type": "function"
    }
  ],
  "bytecode": "0x608060405234801561001057600080fd5b506124e1806100206000396000f3fe608060405234801561001057600080fd5b506004361061007c5760003560e01c80634e1273f41161005b5780634e1273f4146100fd578063a22cb4651461012d578063e985e9c514610149578063f242432a146101795761007c565b8062fdd58e1461008157806301ffc9a7146100b15780632eb2c2d6146100e1575b600080fd5b61009b60048036038101906100969190611708565b610195565b6040516100a89190611d1c565b60405180910390f35b6100cb60048036038101906100c691906117b0565b61025e565b6040516100d89190611b9f565b60405180910390f35b6100fb60048036038101906100f6919061157e565b610340565b005b61011760048036038101906101129190611744565b6103e1565b6040516101249190611b46565b60405180910390f35b610147600480360381019061014291906116cc565b610592565b005b610163600480360381019061015e9190611542565b6105a8565b6040516101709190611b9f565b60405180910390f35b610193600480360381019061018e919061163d565b61063c565b005b60008073ffffffffffffffffffffffffffffffffffffffff168373ffffffffffffffffffffffffffffffffffffffff161415610206576040517f08c379a00000000000000000000000000000000000000000000000000000000081526004016101fd90611c1c565b60405180910390fd5b60008083815260200190815260200160002060008473ffffffffffffffffffffffffffffffffffffffff1673ffffffffffffffffffffffffffffffffffffffff16815260200190815260200160002054905092915050565b60007fd9b67a26000000000000000000000000000000000000000000000000000000007bffffffffffffffffffffffffffffffffffffffffffffffffffffffff1916827bffffffffffffffffffffffffffffffffffffffffffffffffffffffff1916148061032957507f0e89341c000000000000000000000000000000000000000000000000000000007bffffffffffffffffffffffffffffffffffffffffffffffffffffffff1916827bffffffffffffffffffffffffffffffffffffffffffffffffffffffff1916145b806103395750610338826106dd565b5b9050919050565b610348610747565b73ffffffffffffffffffffffffffffffffffffffff168573ffffffffffffffffffffffffffffffffffffffff16148061038e575061038d85610388610747565b6105a8565b5b6103cd576040517f08c379a00000000000000000000000000000000000000000000000000000000081526004016103c490611c7c565b60405180910390fd5b6103da858585858561074f565b5050505050565b60608151835114610427576040517f08c379a000000000000000000000000000000000000000000000000000000000815260040161041e90611cdc565b60405180910390fd5b6000835167ffffffffffffffff81111561046a577f4e487b7100000000000000000000000000000000000000000000000000000000600052604160045260246000fd5b6040519080825280602002602001820160405280156104985781602001602082028036833780820191505090505b50905060005b8451811015610587576105318582815181106104e3577f4e487b7100000000000000000000000000000000000000000000000000000000600052603260045260246000fd5b6020026020010151858381518110610524577f4e487b7100000000000000000000000000000000000000000000000000000000600052603260045260246000fd5b6020026020010151610195565b82828151811061056a577f4e487b7100000000000000000000000000000000000000000000000000000000600052603260045260246000fd5b6020026020010181815250508061058090611fbc565b905061049e565b508091505092915050565b6105a461059d610747565b8383610aa1565b5050565b6000600160008473ffffffffffffffffffffffffffffffffffffffff1673ffffffffffffffffffffffffffffffffffffffff16815260200190815260200160002060008373ffffffffffffffffffffffffffffffffffffffff1673ffffffffffffffffffffffffffffffffffffffff16815260200190815260200160002060009054906101000a900460ff16905092915050565b610644610747565b73ffffffffffffffffffffffffffffffffffffffff168573ffffffffffffffffffffffffffffffffffffffff16148061068a575061068985610684610747565b6105a8565b5b6106c9576040517f08c379a00000000000000000000000000000000000000000000000000000000081526004016106c090611c3c565b60405180910390fd5b6106d68585858585610c0e565b5050505050565b60007f01ffc9a7000000000000000000000000000000000000000000000000000000007bffffffffffffffffffffffffffffffffffffffffffffffffffffffff1916827bffffffffffffffffffffffffffffffffffffffffffffffffffffffff1916149050919050565b600033905090565b8151835114610793576040517f08c379a000000000000000000000000000000000000000000000000000000000815260040161078a90611cfc565b60405180910390fd5b600073ffffffffffffffffffffffffffffffffffffffff168473ffffffffffffffffffffffffffffffffffffffff161415610803576040517f08c379a00000000000000000000000000000000000000000000000000000000081526004016107fa90611c5c565b60405180910390fd5b600061080d610747565b905060005b8451811015610a0c576000858281518110610856577f4e487b7100000000000000000000000000000000000000000000000000000000600052603260045260246000fd5b60200260200101519050600085838151811061089b577f4e487b7100000000000000000000000000000000000000000000000000000000600052603260045260246000fd5b60200260200101519050600080600084815260200190815260200160002060008b73ffffffffffffffffffffffffffffffffffffffff1673ffffffffffffffffffffffffffffffffffffffff1681526020019081526020016000205490508181101561093c576040517f08c379a000000000000000000000000000000000000000000000000000000000815260040161093390611c9c565b60405180910390fd5b81810360008085815260200190815260200160002060008c73ffffffffffffffffffffffffffffffffffffffff1673ffffffffffffffffffffffffffffffffffffffff168152602001908152602001600020819055508160008085815260200190815260200160002060008b73ffffffffffffffffffffffffffffffffffffffff1673ffffffffffffffffffffffffffffffffffffffff16815260200190815260200160002060008282546109f19190611e7f565b9250508190555050505080610a0590611fbc565b9050610812565b508473ffffffffffffffffffffffffffffffffffffffff168673ffffffffffffffffffffffffffffffffffffffff168273ffffffffffffffffffffffffffffffffffffffff167f4a39dc06d4c0dbc64b70af90fd698a233a518aa5d07e595d983b8c0526c8f7fb8787604051610a83929190611b68565b60405180910390a4610a99818787878787610e8e565b505050505050565b8173ffffffffffffffffffffffffffffffffffffffff168373ffffffffffffffffffffffffffffffffffffffff161415610b10576040517f08c379a0000000000000000000000000000000000000000000000000000000008152600401610b0790611cbc565b60405180910390fd5b80600160008573ffffffffffffffffffffffffffffffffffffffff1673ffffffffffffffffffffffffffffffffffffffff16815260200190815260200160002060008473ffffffffffffffffffffffffffffffffffffffff1673ffffffffffffffffffffffffffffffffffffffff16815260200190815260200160002060006101000a81548160ff0219169083151502179055508173ffffffffffffffffffffffffffffffffffffffff168373ffffffffffffffffffffffffffffffffffffffff167f17307eab39ab6107e8899845ad3d59bd9653f200f220920489ca2b5937696c3183604051610c019190611b9f565b60405180910390a3505050565b600073ffffffffffffffffffffffffffffffffffffffff168473ffffffffffffffffffffffffffffffffffffffff161415610c7e576040517f08c379a0000000000000000000000000000000000000000000000000000000008152600401610c7590611c5c565b60405180910390fd5b6000610c88610747565b90506000610c9585611075565b90506000610ca285611075565b9050600080600088815260200190815260200160002060008a73ffffffffffffffffffffffffffffffffffffffff1673ffffffffffffffffffffffffffffffffffffffff16815260200190815260200160002054905085811015610d3b576040517f08c379a0000000000000000000000000000000000000000000000000000000008152600401610d3290611c9c565b60405180910390fd5b85810360008089815260200190815260200160002060008b73ffffffffffffffffffffffffffffffffffffffff1673ffffffffffffffffffffffffffffffffffffffff168152602001908152602001600020819055508560008089815260200190815260200160002060008a73ffffffffffffffffffffffffffffffffffffffff1673ffffffffffffffffffffffffffffffffffffffff1681526020019081526020016000206000828254610df09190611e7f565b925050819055508773ffffffffffffffffffffffffffffffffffffffff168973ffffffffffffffffffffffffffffffffffffffff168573ffffffffffffffffffffffffffffffffffffffff167fc3d58168c5ae7397731d063d5bbf3d657854427343f4c083240f7aacaa2d0f628a8a604051610e6d929190611d37565b60405180910390a4610e83848a8a8a8a8a61113b565b505050505050505050565b610ead8473ffffffffffffffffffffffffffffffffffffffff16611322565b1561106d578373ffffffffffffffffffffffffffffffffffffffff1663bc197c8187878686866040518663ffffffff1660e01b8152600401610ef3959493929190611a84565b602060405180830381600087803b158015610f0d57600080fd5b505af1925050508015610f3e57506040513d601f19601f82011682018060405250810190610f3b91906117d9565b60015b610fe457610f4a612063565b806308c379a01415610fa75750610f5f6123b9565b80610f6a5750610fa9565b806040517f08c379a0000000000000000000000000000000000000000000000000000000008152600401610f9e9190611bba565b60405180910390fd5b505b6040517f08c379a0000000000000000000000000000000000000000000000000000000008152600401610fdb90611bdc565b60405180910390fd5b63bc197c8160e01b7bffffffffffffffffffffffffffffffffffffffffffffffffffffffff1916817bffffffffffffffffffffffffffffffffffffffffffffffffffffffff19161461106b576040517f08c379a000000000000000000000000000000000000000000000000000000000815260040161106290611bfc565b60405180910390fd5b505b505050505050565b60606000600167ffffffffffffffff8111156110ba577f4e487b7100000000000000000000000000000000000000000000000000000000600052604160045260246000fd5b6040519080825280602002602001820160405280156110e85781602001602082028036833780820191505090505b5090508281600081518110611126577f4e487b7100000000000000000000000000000000000000000000000000000000600052603260045260246000fd5b60200260200101818152505080915050919050565b61115a8473ffffffffffffffffffffffffffffffffffffffff16611322565b1561131a578373ffffffffffffffffffffffffffffffffffffffff1663f23a6e6187878686866040518663ffffffff1660e01b81526004016111a0959493929190611aec565b602060405180830381600087803b1580156111ba57600080fd5b505af19250505080156111eb57506040513d601f19601f820116820180604052508101906111e891906117d9565b60015b611291576111f7612063565b806308c379a01415611254575061120c6123b9565b806112175750611256565b806040517f08c379a000000000000000000000000000000000000000000000000000000000815260040161124b9190611bba565b60405180910390fd5b505b6040517f08c379a000000000000000000000000000000000000000000000000000000000815260040161128890611bdc565b60405180910390fd5b63f23a6e6160e01b7bffffffffffffffffffffffffffffffffffffffffffffffffffffffff1916817bffffffffffffffffffffffffffffffffffffffffffffffffffffffff191614611318576040517f08c379a000000000000000000000000000000000000000000000000000000000815260040161130f90611bfc565b60405180910390fd5b505b505050505050565b6000808273ffffffffffffffffffffffffffffffffffffffff163b119050919050565b600061135861135384611d85565b611d60565b9050808382526020820190508285602086028201111561137757600080fd5b60005b858110156113a7578161138d888261145b565b84526020840193506020830192505060018101905061137a565b5050509392505050565b60006113c46113bf84611db1565b611d60565b905080838252602082019050828560208602820111156113e357600080fd5b60005b8581101561141357816113f9888261152d565b8452602084019350602083019250506001810190506113e6565b5050509392505050565b600061143061142b84611ddd565b611d60565b90508281526020810184848401111561144857600080fd5b611453848285611f49565b509392505050565b60008135905061146a8161244f565b92915050565b600082601f83011261148157600080fd5b8135611491848260208601611345565b91505092915050565b600082601f8301126114ab57600080fd5b81356114bb8482602086016113b1565b91505092915050565b6000813590506114d381612466565b92915050565b6000813590506114e88161247d565b92915050565b6000815190506114fd8161247d565b92915050565b600082601f83011261151457600080fd5b813561152484826020860161141d565b91505092915050565b60008135905061153c81612494565b92915050565b6000806040838503121561155557600080fd5b60006115638582860161145b565b92505060206115748582860161145b565b9150509250929050565b600080600080600060a0868803121561159657600080fd5b60006115a48882890161145b565b95505060206115b58882890161145b565b945050604086013567ffffffffffffffff8111156115d257600080fd5b6115de8882890161149a565b935050606086013567ffffffffffffffff8111156115fb57600080fd5b6116078882890161149a565b925050608086013567ffffffffffffffff81111561162457600080fd5b61163088828901611503565b9150509295509295909350565b600080600080600060a0868803121561165557600080fd5b60006116638882890161145b565b95505060206116748882890161145b565b94505060406116858882890161152d565b93505060606116968882890161152d565b925050608086013567ffffffffffffffff8111156116b357600080fd5b6116bf88828901611503565b9150509295509295909350565b600080604083850312156116df57600080fd5b60006116ed8582860161145b565b92505060206116fe858286016114c4565b9150509250929050565b6000806040838503121561171b57600080fd5b60006117298582860161145b565b925050602061173a8582860161152d565b9150509250929050565b6000806040838503121561175757600080fd5b600083013567ffffffffffffffff81111561177157600080fd5b61177d85828601611470565b925050602083013567ffffffffffffffff81111561179a57600080fd5b6117a68582860161149a565b9150509250929050565b6000602082840312156117c257600080fd5b60006117d0848285016114d9565b91505092915050565b6000602082840312156117eb57600080fd5b60006117f9848285016114ee565b91505092915050565b600061180e8383611a66565b60208301905092915050565b61182381611ed5565b82525050565b600061183482611e1e565b61183e8185611e4c565b935061184983611e0e565b8060005b8381101561187a5781516118618882611802565b975061186c83611e3f565b92505060018101905061184d565b5085935050505092915050565b61189081611ee7565b82525050565b60006118a182611e29565b6118ab8185611e5d565b93506118bb818560208601611f58565b6118c481612085565b840191505092915050565b60006118da82611e34565b6118e48185611e6e565b93506118f4818560208601611f58565b6118fd81612085565b840191505092915050565b6000611915603483611e6e565b9150611920826120a3565b604082019050919050565b6000611938602883611e6e565b9150611943826120f2565b604082019050919050565b600061195b602b83611e6e565b915061196682612141565b604082019050919050565b600061197e602983611e6e565b915061198982612190565b604082019050919050565b60006119a1602583611e6e565b91506119ac826121df565b604082019050919050565b60006119c4603283611e6e565b91506119cf8261222e565b604082019050919050565b60006119e7602a83611e6e565b91506119f28261227d565b604082019050919050565b6000611a0a602983611e6e565b9150611a15826122cc565b604082019050919050565b6000611a2d602983611e6e565b9150611a388261231b565b604082019050919050565b6000611a50602883611e6e565b9150611a5b8261236a565b604082019050919050565b611a6f81611f3f565b82525050565b611a7e81611f3f565b82525050565b600060a082019050611a99600083018861181a565b611aa6602083018761181a565b8181036040830152611ab88186611829565b90508181036060830152611acc8185611829565b90508181036080830152611ae08184611896565b90509695505050505050565b600060a082019050611b01600083018861181a565b611b0e602083018761181a565b611b1b6040830186611a75565b611b286060830185611a75565b8181036080830152611b3a8184611896565b90509695505050505050565b60006020820190508181036000830152611b608184611829565b905092915050565b60006040820190508181036000830152611b828185611829565b90508181036020830152611b968184611829565b90509392505050565b6000602082019050611bb46000830184611887565b92915050565b60006020820190508181036000830152611bd481846118cf565b905092915050565b60006020820190508181036000830152611bf581611908565b9050919050565b60006020820190508181036000830152611c158161192b565b9050919050565b60006020820190508181036000830152611c358161194e565b9050919050565b60006020820190508181036000830152611c5581611971565b9050919050565b60006020820190508181036000830152611c7581611994565b9050919050565b60006020820190508181036000830152611c95816119b7565b9050919050565b60006020820190508181036000830152611cb5816119da565b9050919050565b60006020820190508181036000830152611cd5816119fd565b9050919050565b60006020820190508181036000830152611cf581611a20565b9050919050565b60006020820190508181036000830152611d1581611a43565b9050919050565b6000602082019050611d316000830184611a75565b92915050565b6000604082019050611d4c6000830185611a75565b611d596020830184611a75565b9392505050565b6000611d6a611d7b565b9050611d768282611f8b565b919050565b6000604051905090565b600067ffffffffffffffff821115611da057611d9f612034565b5b602082029050602081019050919050565b600067ffffffffffffffff821115611dcc57611dcb612034565b5b602082029050602081019050919050565b600067ffffffffffffffff821115611df857611df7612034565b5b611e0182612085565b9050602081019050919050565b6000819050602082019050919050565b600081519050919050565b600081519050919050565b600081519050919050565b6000602082019050919050565b600082825260208201905092915050565b600082825260208201905092915050565b600082825260208201905092915050565b6000611e8a82611f3f565b9150611e9583611f3f565b9250827fffffffffffffffffffffffffffffffffffffffffffffffffffffffffffffffff03821115611eca57611ec9612005565b5b828201905092915050565b6000611ee082611f1f565b9050919050565b60008115159050919050565b60007fffffffff0000000000000000000000000000000000000000000000000000000082169050919050565b600073ffffffffffffffffffffffffffffffffffffffff82169050919050565b6000819050919050565b82818337600083830152505050565b60005b83811015611f76578082015181840152602081019050611f5b565b83811115611f85576000848401525b50505050565b611f9482612085565b810181811067ffffffffffffffff82111715611fb357611fb2612034565b5b80604052505050565b6000611fc782611f3f565b91507fffffffffffffffffffffffffffffffffffffffffffffffffffffffffffffffff821415611ffa57611ff9612005565b5b600182019050919050565b7f4e487b7100000000000000000000000000000000000000000000000000000000600052601160045260246000fd5b7f4e487b7100000000000000000000000000000000000000000000000000000000600052604160045260246000fd5b600060033d11156120825760046000803e61207f600051612096565b90505b90565b6000601f19601f8301169050919050565b60008160e01c9050919050565b7f455243313135353a207472616e7366657220746f206e6f6e204552433131353560008201527f526563656976657220696d706c656d656e746572000000000000000000000000602082015250565b7f455243313135353a204552433131353552656365697665722072656a6563746560008201527f6420746f6b656e73000000000000000000000000000000000000000000000000602082015250565b7f455243313135353a2062616c616e636520717565727920666f7220746865207a60008201527f65726f2061646472657373000000000000000000000000000000000000000000602082015250565b7f455243313135353a2063616c6c6572206973206e6f74206f776e6572206e6f7260008201527f20617070726f7665640000000000000000000000000000000000000000000000602082015250565b7f455243313135353a207472616e7366657220746f20746865207a65726f20616460008201527f6472657373000000000000000000000000000000000000000000000000000000602082015250565b7f455243313135353a207472616e736665722063616c6c6572206973206e6f742060008201527f6f776e6572206e6f7220617070726f7665640000000000000000000000000000602082015250565b7f455243313135353a20696e73756666696369656e742062616c616e636520666f60008201527f72207472616e7366657200000000000000000000000000000000000000000000602082015250565b7f455243313135353a2073657474696e6720617070726f76616c2073746174757360008201527f20666f722073656c660000000000000000000000000000000000000000000000602082015250565b7f455243313135353a206163636f756e747320616e6420696473206c656e67746860008201527f206d69736d617463680000000000000000000000000000000000000000000000602082015250565b7f455243313135353a2069647320616e6420616d6f756e7473206c656e6774682060008201527f6d69736d61746368000000000000000000000000000000000000000000000000602082015250565b600060443d10156123c95761244c565b6123d1611d7b565b60043d036004823e80513d602482011167ffffffffffffffff821117156123f957505061244c565b808201805167ffffffffffffffff811115612417575050505061244c565b80602083010160043d03850181111561243457505050505061244c565b61244382602001850186611f8b565b82955050505050505b90565b61245881611ed5565b811461246357600080fd5b50565b61246f81611ee7565b811461247a57600080fd5b50565b61248681611ef3565b811461249157600080fd5b50565b61249d81611f3f565b81146124a857600080fd5b5056fea2646970667358221220db7e22eb9d364a6ce7fa9e363beab52acf026ca033ed022b975b7209c88df9fb64736f6c63430008040033",
  "linkReferences": {},
  "deployedLinkReferences": {}
}