{
  "_format": "hh-sol-artifact-1",
  "contractName": "ERC1155",
  "sourceName": "contracts/tokens/ERC1155.sol",
  "abi": [
    {
      "anonymous": false,
      "inputs": [
        {
          "indexed": true,
          "internalType": "address",
          "name": "account",
          "type": "address"
        },
        {
          "indexed": true,
          "internalType": "address",
          "name": "operator",
          "type": "address"
        },
        {
          "indexed": false,
          "internalType": "bool",
          "name": "approved",
          "type": "bool"
        }
      ],
      "name": "ApprovalForAll",
      "type": "event"
    },
    {
      "anonymous": false,
      "inputs": [
        {
          "indexed": true,
          "internalType": "address",
          "name": "operator",
          "type": "address"
        },
        {
          "indexed": true,
          "internalType": "address",
          "name": "from",
          "type": "address"
        },
        {
          "indexed": true,
          "internalType": "address",
          "name": "to",
          "type": "address"
        },
        {
          "indexed": false,
          "internalType": "uint256[]",
          "name": "ids",
          "type": "uint256[]"
        },
        {
          "indexed": false,
          "internalType": "uint256[]",
          "name": "values",
          "type": "uint256[]"
        }
      ],
      "name": "TransferBatch",
      "type": "event"
    },
    {
      "anonymous": false,
      "inputs": [
        {
          "indexed": true,
          "internalType": "address",
          "name": "operator",
          "type": "address"
        },
        {
          "indexed": true,
          "internalType": "address",
          "name": "from",
          "type": "address"
        },
        {
          "indexed": true,
          "internalType": "address",
          "name": "to",
          "type": "address"
        },
        {
          "indexed": false,
          "internalType": "uint256",
          "name": "id",
          "type": "uint256"
        },
        {
          "indexed": false,
          "internalType": "uint256",
          "name": "value",
          "type": "uint256"
        }
      ],
      "name": "TransferSingle",
      "type": "event"
    },
    {
      "anonymous": false,
      "inputs": [
        {
          "indexed": false,
          "internalType": "string",
          "name": "value",
          "type": "string"
        },
        {
          "indexed": true,
          "internalType": "uint256",
          "name": "id",
          "type": "uint256"
        }
      ],
      "name": "URI",
      "type": "event"
    },
    {
      "inputs": [
        {
          "internalType": "address",
          "name": "account",
          "type": "address"
        },
        {
          "internalType": "uint256",
          "name": "id",
          "type": "uint256"
        }
      ],
      "name": "balanceOf",
      "outputs": [
        {
          "internalType": "uint256",
          "name": "",
          "type": "uint256"
        }
      ],
      "stateMutability": "view",
      "type": "function"
    },
    {
      "inputs": [
        {
          "internalType": "address[]",
          "name": "accounts",
          "type": "address[]"
        },
        {
          "internalType": "uint256[]",
          "name": "ids",
          "type": "uint256[]"
        }
      ],
      "name": "balanceOfBatch",
      "outputs": [
        {
          "internalType": "uint256[]",
          "name": "",
          "type": "uint256[]"
        }
      ],
      "stateMutability": "view",
      "type": "function"
    },
    {
      "inputs": [
        {
          "internalType": "address",
          "name": "account",
          "type": "address"
        },
        {
          "internalType": "address",
          "name": "operator",
          "type": "address"
        }
      ],
      "name": "isApprovedForAll",
      "outputs": [
        {
          "internalType": "bool",
          "name": "",
          "type": "bool"
        }
      ],
      "stateMutability": "view",
      "type": "function"
    },
    {
      "inputs": [
        {
          "internalType": "address",
          "name": "from",
          "type": "address"
        },
        {
          "internalType": "address",
          "name": "to",
          "type": "address"
        },
        {
          "internalType": "uint256[]",
          "name": "ids",
          "type": "uint256[]"
        },
        {
          "internalType": "uint256[]",
          "name": "amounts",
          "type": "uint256[]"
        },
        {
          "internalType": "bytes",
          "name": "data",
          "type": "bytes"
        }
      ],
      "name": "safeBatchTransferFrom",
      "outputs": [],
      "stateMutability": "nonpayable",
      "type": "function"
    },
    {
      "inputs": [
        {
          "internalType": "address",
          "name": "from",
          "type": "address"
        },
        {
          "internalType": "address",
          "name": "to",
          "type": "address"
        },
        {
          "internalType": "uint256",
          "name": "id",
          "type": "uint256"
        },
        {
          "internalType": "uint256",
          "name": "amount",
          "type": "uint256"
        },
        {
          "internalType": "bytes",
          "name": "data",
          "type": "bytes"
        }
      ],
      "name": "safeTransferFrom",
      "outputs": [],
      "stateMutability": "nonpayable",
      "type": "function"
    },
    {
      "inputs": [
        {
          "internalType": "address",
          "name": "operator",
          "type": "address"
        },
        {
          "internalType": "bool",
          "name": "approved",
          "type": "bool"
        }
      ],
      "name": "setApprovalForAll",
      "outputs": [],
      "stateMutability": "nonpayable",
      "type": "function"
    },
    {
      "inputs": [
        {
          "internalType": "bytes4",
          "name": "interfaceId",
          "type": "bytes4"
        }
      ],
      "name": "supportsInterface",
      "outputs": [
        {
          "internalType": "bool",
          "name": "",
          "type": "bool"
        }
      ],
      "stateMutability": "view",
      "type": "function"
    }
  ],
  "bytecode": "0x608060405234801561001057600080fd5b506123ff806100206000396000f3fe608060405234801561001057600080fd5b506004361061007c5760003560e01c80634e1273f41161005b5780634e1273f4146100fd578063a22cb4651461012d578063e985e9c514610149578063f242432a146101795761007c565b8062fdd58e1461008157806301ffc9a7146100b15780632eb2c2d6146100e1575b600080fd5b61009b60048036038101906100969190611626565b610195565b6040516100a89190611c3a565b60405180910390f35b6100cb60048036038101906100c691906116ce565b61025e565b6040516100d89190611abd565b60405180910390f35b6100fb60048036038101906100f6919061149c565b610340565b005b61011760048036038101906101129190611662565b6103e1565b6040516101249190611a64565b60405180910390f35b610147600480360381019061014291906115ea565b610592565b005b610163600480360381019061015e9190611460565b6105a8565b6040516101709190611abd565b60405180910390f35b610193600480360381019061018e919061155b565b61063c565b005b60008073ffffffffffffffffffffffffffffffffffffffff168373ffffffffffffffffffffffffffffffffffffffff161415610206576040517f08c379a00000000000000000000000000000000000000000000000000000000081526004016101fd90611b3a565b60405180910390fd5b60008083815260200190815260200160002060008473ffffffffffffffffffffffffffffffffffffffff1673ffffffffffffffffffffffffffffffffffffffff16815260200190815260200160002054905092915050565b60007fd9b67a26000000000000000000000000000000000000000000000000000000007bffffffffffffffffffffffffffffffffffffffffffffffffffffffff1916827bffffffffffffffffffffffffffffffffffffffffffffffffffffffff1916148061032957507f0e89341c000000000000000000000000000000000000000000000000000000007bffffffffffffffffffffffffffffffffffffffffffffffffffffffff1916827bffffffffffffffffffffffffffffffffffffffffffffffffffffffff1916145b806103395750610338826106dd565b5b9050919050565b610348610747565b73ffffffffffffffffffffffffffffffffffffffff168573ffffffffffffffffffffffffffffffffffffffff16148061038e575061038d85610388610747565b6105a8565b5b6103cd576040517f08c379a00000000000000000000000000000000000000000000000000000000081526004016103c490611b9a565b60405180910390fd5b6103da858585858561074f565b5050505050565b60608151835114610427576040517f08c379a000000000000000000000000000000000000000000000000000000000815260040161041e90611bfa565b60405180910390fd5b6000835167ffffffffffffffff81111561046a577f4e487b7100000000000000000000000000000000000000000000000000000000600052604160045260246000fd5b6040519080825280602002602001820160405280156104985781602001602082028036833780820191505090505b50905060005b8451811015610587576105318582815181106104e3577f4e487b7100000000000000000000000000000000000000000000000000000000600052603260045260246000fd5b6020026020010151858381518110610524577f4e487b7100000000000000000000000000000000000000000000000000000000600052603260045260246000fd5b6020026020010151610195565b82828151811061056a577f4e487b7100000000000000000000000000000000000000000000000000000000600052603260045260246000fd5b6020026020010181815250508061058090611eda565b905061049e565b508091505092915050565b6105a461059d610747565b8383610aa1565b5050565b6000600160008473ffffffffffffffffffffffffffffffffffffffff1673ffffffffffffffffffffffffffffffffffffffff16815260200190815260200160002060008373ffffffffffffffffffffffffffffffffffffffff1673ffffffffffffffffffffffffffffffffffffffff16815260200190815260200160002060009054906101000a900460ff16905092915050565b610644610747565b73ffffffffffffffffffffffffffffffffffffffff168573ffffffffffffffffffffffffffffffffffffffff16148061068a575061068985610684610747565b6105a8565b5b6106c9576040517f08c379a00000000000000000000000000000000000000000000000000000000081526004016106c090611b5a565b60405180910390fd5b6106d68585858585610c0e565b5050505050565b60007f01ffc9a7000000000000000000000000000000000000000000000000000000007bffffffffffffffffffffffffffffffffffffffffffffffffffffffff1916827bffffffffffffffffffffffffffffffffffffffffffffffffffffffff1916149050919050565b600033905090565b8151835114610793576040517f08c379a000000000000000000000000000000000000000000000000000000000815260040161078a90611c1a565b60405180910390fd5b600073ffffffffffffffffffffffffffffffffffffffff168473ffffffffffffffffffffffffffffffffffffffff161415610803576040517f08c379a00000000000000000000000000000000000000000000000000000000081526004016107fa90611b7a565b60405180910390fd5b600061080d610747565b905060005b8451811015610a0c576000858281518110610856577f4e487b7100000000000000000000000000000000000000000000000000000000600052603260045260246000fd5b60200260200101519050600085838151811061089b577f4e487b7100000000000000000000000000000000000000000000000000000000600052603260045260246000fd5b60200260200101519050600080600084815260200190815260200160002060008b73ffffffffffffffffffffffffffffffffffffffff1673ffffffffffffffffffffffffffffffffffffffff1681526020019081526020016000205490508181101561093c576040517f08c379a000000000000000000000000000000000000000000000000000000000815260040161093390611bba565b60405180910390fd5b81810360008085815260200190815260200160002060008c73ffffffffffffffffffffffffffffffffffffffff1673ffffffffffffffffffffffffffffffffffffffff168152602001908152602001600020819055508160008085815260200190815260200160002060008b73ffffffffffffffffffffffffffffffffffffffff1673ffffffffffffffffffffffffffffffffffffffff16815260200190815260200160002060008282546109f19190611d9d565b9250508190555050505080610a0590611eda565b9050610812565b508473ffffffffffffffffffffffffffffffffffffffff168673ffffffffffffffffffffffffffffffffffffffff168273ffffffffffffffffffffffffffffffffffffffff167f4a39dc06d4c0dbc64b70af90fd698a233a518aa5d07e595d983b8c0526c8f7fb8787604051610a83929190611a86565b60405180910390a4610a99818787878787610e72565b505050505050565b8173ffffffffffffffffffffffffffffffffffffffff168373ffffffffffffffffffffffffffffffffffffffff161415610b10576040517f08c379a0000000000000000000000000000000000000000000000000000000008152600401610b0790611bda565b60405180910390fd5b80600160008573ffffffffffffffffffffffffffffffffffffffff1673ffffffffffffffffffffffffffffffffffffffff16815260200190815260200160002060008473ffffffffffffffffffffffffffffffffffffffff1673ffffffffffffffffffffffffffffffffffffffff16815260200190815260200160002060006101000a81548160ff0219169083151502179055508173ffffffffffffffffffffffffffffffffffffffff168373ffffffffffffffffffffffffffffffffffffffff167f17307eab39ab6107e8899845ad3d59bd9653f200f220920489ca2b5937696c3183604051610c019190611abd565b60405180910390a3505050565b600073ffffffffffffffffffffffffffffffffffffffff168473ffffffffffffffffffffffffffffffffffffffff161415610c7e576040517f08c379a0000000000000000000000000000000000000000000000000000000008152600401610c7590611b7a565b60405180910390fd5b6000610c88610747565b9050600080600086815260200190815260200160002060008873ffffffffffffffffffffffffffffffffffffffff1673ffffffffffffffffffffffffffffffffffffffff16815260200190815260200160002054905083811015610d21576040517f08c379a0000000000000000000000000000000000000000000000000000000008152600401610d1890611bba565b60405180910390fd5b83810360008087815260200190815260200160002060008973ffffffffffffffffffffffffffffffffffffffff1673ffffffffffffffffffffffffffffffffffffffff168152602001908152602001600020819055508360008087815260200190815260200160002060008873ffffffffffffffffffffffffffffffffffffffff1673ffffffffffffffffffffffffffffffffffffffff1681526020019081526020016000206000828254610dd69190611d9d565b925050819055508573ffffffffffffffffffffffffffffffffffffffff168773ffffffffffffffffffffffffffffffffffffffff168373ffffffffffffffffffffffffffffffffffffffff167fc3d58168c5ae7397731d063d5bbf3d657854427343f4c083240f7aacaa2d0f628888604051610e53929190611c55565b60405180910390a4610e69828888888888611059565b50505050505050565b610e918473ffffffffffffffffffffffffffffffffffffffff16611240565b15611051578373ffffffffffffffffffffffffffffffffffffffff1663bc197c8187878686866040518663ffffffff1660e01b8152600401610ed79594939291906119a2565b602060405180830381600087803b158015610ef157600080fd5b505af1925050508015610f2257506040513d601f19601f82011682018060405250810190610f1f91906116f7565b60015b610fc857610f2e611f81565b806308c379a01415610f8b5750610f436122d7565b80610f4e5750610f8d565b806040517f08c379a0000000000000000000000000000000000000000000000000000000008152600401610f829190611ad8565b60405180910390fd5b505b6040517f08c379a0000000000000000000000000000000000000000000000000000000008152600401610fbf90611afa565b60405180910390fd5b63bc197c8160e01b7bffffffffffffffffffffffffffffffffffffffffffffffffffffffff1916817bffffffffffffffffffffffffffffffffffffffffffffffffffffffff19161461104f576040517f08c379a000000000000000000000000000000000000000000000000000000000815260040161104690611b1a565b60405180910390fd5b505b505050505050565b6110788473ffffffffffffffffffffffffffffffffffffffff16611240565b15611238578373ffffffffffffffffffffffffffffffffffffffff1663f23a6e6187878686866040518663ffffffff1660e01b81526004016110be959493929190611a0a565b602060405180830381600087803b1580156110d857600080fd5b505af192505050801561110957506040513d601f19601f8201168201806040525081019061110691906116f7565b60015b6111af57611115611f81565b806308c379a01415611172575061112a6122d7565b806111355750611174565b806040517f08c379a00000000000000000000000000000000000000000000000000000000081526004016111699190611ad8565b60405180910390fd5b505b6040517f08c379a00000000000000000000000000000000000000000000000000000000081526004016111a690611afa565b60405180910390fd5b63f23a6e6160e01b7bffffffffffffffffffffffffffffffffffffffffffffffffffffffff1916817bffffffffffffffffffffffffffffffffffffffffffffffffffffffff191614611236576040517f08c379a000000000000000000000000000000000000000000000000000000000815260040161122d90611b1a565b60405180910390fd5b505b505050505050565b6000808273ffffffffffffffffffffffffffffffffffffffff163b119050919050565b600061127661127184611ca3565b611c7e565b9050808382526020820190508285602086028201111561129557600080fd5b60005b858110156112c557816112ab8882611379565b845260208401935060208301925050600181019050611298565b5050509392505050565b60006112e26112dd84611ccf565b611c7e565b9050808382526020820190508285602086028201111561130157600080fd5b60005b858110156113315781611317888261144b565b845260208401935060208301925050600181019050611304565b5050509392505050565b600061134e61134984611cfb565b611c7e565b90508281526020810184848401111561136657600080fd5b611371848285611e67565b509392505050565b6000813590506113888161236d565b92915050565b600082601f83011261139f57600080fd5b81356113af848260208601611263565b91505092915050565b600082601f8301126113c957600080fd5b81356113d98482602086016112cf565b91505092915050565b6000813590506113f181612384565b92915050565b6000813590506114068161239b565b92915050565b60008151905061141b8161239b565b92915050565b600082601f83011261143257600080fd5b813561144284826020860161133b565b91505092915050565b60008135905061145a816123b2565b92915050565b6000806040838503121561147357600080fd5b600061148185828601611379565b925050602061149285828601611379565b9150509250929050565b600080600080600060a086880312156114b457600080fd5b60006114c288828901611379565b95505060206114d388828901611379565b945050604086013567ffffffffffffffff8111156114f057600080fd5b6114fc888289016113b8565b935050606086013567ffffffffffffffff81111561151957600080fd5b611525888289016113b8565b925050608086013567ffffffffffffffff81111561154257600080fd5b61154e88828901611421565b9150509295509295909350565b600080600080600060a0868803121561157357600080fd5b600061158188828901611379565b955050602061159288828901611379565b94505060406115a38882890161144b565b93505060606115b48882890161144b565b925050608086013567ffffffffffffffff8111156115d157600080fd5b6115dd88828901611421565b9150509295509295909350565b600080604083850312156115fd57600080fd5b600061160b85828601611379565b925050602061161c858286016113e2565b9150509250929050565b6000806040838503121561163957600080fd5b600061164785828601611379565b92505060206116588582860161144b565b9150509250929050565b6000806040838503121561167557600080fd5b600083013567ffffffffffffffff81111561168f57600080fd5b61169b8582860161138e565b925050602083013567ffffffffffffffff8111156116b857600080fd5b6116c4858286016113b8565b9150509250929050565b6000602082840312156116e057600080fd5b60006116ee848285016113f7565b91505092915050565b60006020828403121561170957600080fd5b60006117178482850161140c565b91505092915050565b600061172c8383611984565b60208301905092915050565b61174181611df3565b82525050565b600061175282611d3c565b61175c8185611d6a565b935061176783611d2c565b8060005b8381101561179857815161177f8882611720565b975061178a83611d5d565b92505060018101905061176b565b5085935050505092915050565b6117ae81611e05565b82525050565b60006117bf82611d47565b6117c98185611d7b565b93506117d9818560208601611e76565b6117e281611fa3565b840191505092915050565b60006117f882611d52565b6118028185611d8c565b9350611812818560208601611e76565b61181b81611fa3565b840191505092915050565b6000611833603483611d8c565b915061183e82611fc1565b604082019050919050565b6000611856602883611d8c565b915061186182612010565b604082019050919050565b6000611879602b83611d8c565b91506118848261205f565b604082019050919050565b600061189c602983611d8c565b91506118a7826120ae565b604082019050919050565b60006118bf602583611d8c565b91506118ca826120fd565b604082019050919050565b60006118e2603283611d8c565b91506118ed8261214c565b604082019050919050565b6000611905602a83611d8c565b91506119108261219b565b604082019050919050565b6000611928602983611d8c565b9150611933826121ea565b604082019050919050565b600061194b602983611d8c565b915061195682612239565b604082019050919050565b600061196e602883611d8c565b915061197982612288565b604082019050919050565b61198d81611e5d565b82525050565b61199c81611e5d565b82525050565b600060a0820190506119b76000830188611738565b6119c46020830187611738565b81810360408301526119d68186611747565b905081810360608301526119ea8185611747565b905081810360808301526119fe81846117b4565b90509695505050505050565b600060a082019050611a1f6000830188611738565b611a2c6020830187611738565b611a396040830186611993565b611a466060830185611993565b8181036080830152611a5881846117b4565b90509695505050505050565b60006020820190508181036000830152611a7e8184611747565b905092915050565b60006040820190508181036000830152611aa08185611747565b90508181036020830152611ab48184611747565b90509392505050565b6000602082019050611ad260008301846117a5565b92915050565b60006020820190508181036000830152611af281846117ed565b905092915050565b60006020820190508181036000830152611b1381611826565b9050919050565b60006020820190508181036000830152611b3381611849565b9050919050565b60006020820190508181036000830152611b538161186c565b9050919050565b60006020820190508181036000830152611b738161188f565b9050919050565b60006020820190508181036000830152611b93816118b2565b9050919050565b60006020820190508181036000830152611bb3816118d5565b9050919050565b60006020820190508181036000830152611bd3816118f8565b9050919050565b60006020820190508181036000830152611bf38161191b565b9050919050565b60006020820190508181036000830152611c138161193e565b9050919050565b60006020820190508181036000830152611c3381611961565b9050919050565b6000602082019050611c4f6000830184611993565b92915050565b6000604082019050611c6a6000830185611993565b611c776020830184611993565b9392505050565b6000611c88611c99565b9050611c948282611ea9565b919050565b6000604051905090565b600067ffffffffffffffff821115611cbe57611cbd611f52565b5b602082029050602081019050919050565b600067ffffffffffffffff821115611cea57611ce9611f52565b5b602082029050602081019050919050565b600067ffffffffffffffff821115611d1657611d15611f52565b5b611d1f82611fa3565b9050602081019050919050565b6000819050602082019050919050565b600081519050919050565b600081519050919050565b600081519050919050565b6000602082019050919050565b600082825260208201905092915050565b600082825260208201905092915050565b600082825260208201905092915050565b6000611da882611e5d565b9150611db383611e5d565b9250827fffffffffffffffffffffffffffffffffffffffffffffffffffffffffffffffff03821115611de857611de7611f23565b5b828201905092915050565b6000611dfe82611e3d565b9050919050565b60008115159050919050565b60007fffffffff0000000000000000000000000000000000000000000000000000000082169050919050565b600073ffffffffffffffffffffffffffffffffffffffff82169050919050565b6000819050919050565b82818337600083830152505050565b60005b83811015611e94578082015181840152602081019050611e79565b83811115611ea3576000848401525b50505050565b611eb282611fa3565b810181811067ffffffffffffffff82111715611ed157611ed0611f52565b5b80604052505050565b6000611ee582611e5d565b91507fffffffffffffffffffffffffffffffffffffffffffffffffffffffffffffffff821415611f1857611f17611f23565b5b600182019050919050565b7f4e487b7100000000000000000000000000000000000000000000000000000000600052601160045260246000fd5b7f4e487b7100000000000000000000000000000000000000000000000000000000600052604160045260246000fd5b600060033d1115611fa05760046000803e611f9d600051611fb4565b90505b90565b6000601f19601f8301169050919050565b60008160e01c9050919050565b7f455243313135353a207472616e7366657220746f206e6f6e204552433131353560008201527f526563656976657220696d706c656d656e746572000000000000000000000000602082015250565b7f455243313135353a204552433131353552656365697665722072656a6563746560008201527f6420746f6b656e73000000000000000000000000000000000000000000000000602082015250565b7f455243313135353a2062616c616e636520717565727920666f7220746865207a60008201527f65726f2061646472657373000000000000000000000000000000000000000000602082015250565b7f455243313135353a2063616c6c6572206973206e6f74206f776e6572206e6f7260008201527f20617070726f7665640000000000000000000000000000000000000000000000602082015250565b7f455243313135353a207472616e7366657220746f20746865207a65726f20616460008201527f6472657373000000000000000000000000000000000000000000000000000000602082015250565b7f455243313135353a207472616e736665722063616c6c6572206973206e6f742060008201527f6f776e6572206e6f7220617070726f7665640000000000000000000000000000602082015250565b7f455243313135353a20696e73756666696369656e742062616c616e636520666f60008201527f72207472616e7366657200000000000000000000000000000000000000000000602082015250565b7f455243313135353a2073657474696e6720617070726f76616c2073746174757360008201527f20666f722073656c660000000000000000000000000000000000000000000000602082015250565b7f455243313135353a206163636f756e747320616e6420696473206c656e67746860008201527f206d69736d617463680000000000000000000000000000000000000000000000602082015250565b7f455243313135353a2069647320616e6420616d6f756e7473206c656e6774682060008201527f6d69736d61746368000000000000000000000000000000000000000000000000602082015250565b600060443d10156122e75761236a565b6122ef611c99565b60043d036004823e80513d602482011167ffffffffffffffff8211171561231757505061236a565b808201805167ffffffffffffffff811115612335575050505061236a565b80602083010160043d03850181111561235257505050505061236a565b61236182602001850186611ea9565b82955050505050505b90565b61237681611df3565b811461238157600080fd5b50565b61238d81611e05565b811461239857600080fd5b50565b6123a481611e11565b81146123af57600080fd5b50565b6123bb81611e5d565b81146123c657600080fd5b5056fea26469706673582212201eddd38bceeaa6b20dfbaeac764edb1f707e15af2f481f2a4c138508f2c0e01c64736f6c63430008040033",
  "linkReferences": {},
  "deployedLinkReferences": {}
}