{
  "_format": "hh-sol-artifact-1",
  "contractName": "ERC1155",
  "sourceName": "contracts/tokens/ERC1155.sol",
  "abi": [
    {
      "inputs": [],
      "stateMutability": "nonpayable",
      "type": "constructor"
    },
    {
      "anonymous": false,
      "inputs": [
        {
          "indexed": true,
          "internalType": "address",
          "name": "account",
          "type": "address"
        },
        {
          "indexed": true,
          "internalType": "address",
          "name": "operator",
          "type": "address"
        },
        {
          "indexed": false,
          "internalType": "bool",
          "name": "approved",
          "type": "bool"
        }
      ],
      "name": "ApprovalForAll",
      "type": "event"
    },
    {
      "anonymous": false,
      "inputs": [
        {
          "indexed": true,
          "internalType": "address",
          "name": "operator",
          "type": "address"
        },
        {
          "indexed": true,
          "internalType": "address",
          "name": "from",
          "type": "address"
        },
        {
          "indexed": true,
          "internalType": "address",
          "name": "to",
          "type": "address"
        },
        {
          "indexed": false,
          "internalType": "uint256[]",
          "name": "ids",
          "type": "uint256[]"
        },
        {
          "indexed": false,
          "internalType": "uint256[]",
          "name": "values",
          "type": "uint256[]"
        }
      ],
      "name": "TransferBatch",
      "type": "event"
    },
    {
      "anonymous": false,
      "inputs": [
        {
          "indexed": true,
          "internalType": "address",
          "name": "operator",
          "type": "address"
        },
        {
          "indexed": true,
          "internalType": "address",
          "name": "from",
          "type": "address"
        },
        {
          "indexed": true,
          "internalType": "address",
          "name": "to",
          "type": "address"
        },
        {
          "indexed": false,
          "internalType": "uint256",
          "name": "id",
          "type": "uint256"
        },
        {
          "indexed": false,
          "internalType": "uint256",
          "name": "value",
          "type": "uint256"
        }
      ],
      "name": "TransferSingle",
      "type": "event"
    },
    {
      "anonymous": false,
      "inputs": [
        {
          "indexed": false,
          "internalType": "string",
          "name": "value",
          "type": "string"
        },
        {
          "indexed": true,
          "internalType": "uint256",
          "name": "id",
          "type": "uint256"
        }
      ],
      "name": "URI",
      "type": "event"
    },
    {
      "inputs": [
        {
          "internalType": "address",
          "name": "account",
          "type": "address"
        },
        {
          "internalType": "uint256",
          "name": "id",
          "type": "uint256"
        }
      ],
      "name": "balanceOf",
      "outputs": [
        {
          "internalType": "uint256",
          "name": "",
          "type": "uint256"
        }
      ],
      "stateMutability": "view",
      "type": "function"
    },
    {
      "inputs": [
        {
          "internalType": "address[]",
          "name": "accounts",
          "type": "address[]"
        },
        {
          "internalType": "uint256[]",
          "name": "ids",
          "type": "uint256[]"
        }
      ],
      "name": "balanceOfBatch",
      "outputs": [
        {
          "internalType": "uint256[]",
          "name": "",
          "type": "uint256[]"
        }
      ],
      "stateMutability": "view",
      "type": "function"
    },
    {
      "inputs": [
        {
          "internalType": "uint256",
          "name": "tokenId",
          "type": "uint256"
        }
      ],
      "name": "getBalances",
      "outputs": [
        {
          "internalType": "uint256[]",
          "name": "",
          "type": "uint256[]"
        }
      ],
      "stateMutability": "nonpayable",
      "type": "function"
    },
    {
      "inputs": [
        {
          "internalType": "address",
          "name": "account",
          "type": "address"
        },
        {
          "internalType": "address",
          "name": "operator",
          "type": "address"
        }
      ],
      "name": "isApprovedForAll",
      "outputs": [
        {
          "internalType": "bool",
          "name": "",
          "type": "bool"
        }
      ],
      "stateMutability": "view",
      "type": "function"
    },
    {
      "inputs": [
        {
          "internalType": "address",
          "name": "from",
          "type": "address"
        },
        {
          "internalType": "address",
          "name": "to",
          "type": "address"
        },
        {
          "internalType": "uint256[]",
          "name": "ids",
          "type": "uint256[]"
        },
        {
          "internalType": "uint256[]",
          "name": "amounts",
          "type": "uint256[]"
        },
        {
          "internalType": "bytes",
          "name": "data",
          "type": "bytes"
        }
      ],
      "name": "safeBatchTransferFrom",
      "outputs": [],
      "stateMutability": "nonpayable",
      "type": "function"
    },
    {
      "inputs": [
        {
          "internalType": "address",
          "name": "from",
          "type": "address"
        },
        {
          "internalType": "address",
          "name": "to",
          "type": "address"
        },
        {
          "internalType": "uint256",
          "name": "id",
          "type": "uint256"
        },
        {
          "internalType": "uint256",
          "name": "amount",
          "type": "uint256"
        },
        {
          "internalType": "bytes",
          "name": "data",
          "type": "bytes"
        }
      ],
      "name": "safeTransferFrom",
      "outputs": [],
      "stateMutability": "nonpayable",
      "type": "function"
    },
    {
      "inputs": [
        {
          "internalType": "address",
          "name": "operator",
          "type": "address"
        },
        {
          "internalType": "bool",
          "name": "approved",
          "type": "bool"
        }
      ],
      "name": "setApprovalForAll",
      "outputs": [],
      "stateMutability": "nonpayable",
      "type": "function"
    },
    {
      "inputs": [
        {
          "internalType": "bytes4",
          "name": "interfaceId",
          "type": "bytes4"
        }
      ],
      "name": "supportsInterface",
      "outputs": [
        {
          "internalType": "bool",
          "name": "",
          "type": "bool"
        }
      ],
      "stateMutability": "view",
      "type": "function"
    }
  ],
  "bytecode": "0x608060405234801561001057600080fd5b506125df806100206000396000f3fe608060405234801561001057600080fd5b50600436106100875760003560e01c80634e1273f41161005b5780634e1273f414610138578063a22cb46514610168578063e985e9c514610184578063f242432a146101b457610087565b8062fdd58e1461008c57806301ffc9a7146100bc5780632eb2c2d6146100ec578063490adbaf14610108575b600080fd5b6100a660048036038101906100a191906117dd565b6101d0565b6040516100b39190611e1a565b60405180910390f35b6100d660048036038101906100d19190611885565b610299565b6040516100e39190611c9d565b60405180910390f35b61010660048036038101906101019190611653565b61037b565b005b610122600480360381019061011d91906118d7565b61041c565b60405161012f9190611c44565b60405180910390f35b610152600480360381019061014d9190611819565b6104b6565b60405161015f9190611c44565b60405180910390f35b610182600480360381019061017d91906117a1565b610667565b005b61019e60048036038101906101999190611617565b61067d565b6040516101ab9190611c9d565b60405180910390f35b6101ce60048036038101906101c99190611712565b610711565b005b60008073ffffffffffffffffffffffffffffffffffffffff168373ffffffffffffffffffffffffffffffffffffffff161415610241576040517f08c379a000000000000000000000000000000000000000000000000000000000815260040161023890611d1a565b60405180910390fd5b60008083815260200190815260200160002060008473ffffffffffffffffffffffffffffffffffffffff1673ffffffffffffffffffffffffffffffffffffffff16815260200190815260200160002054905092915050565b60007fd9b67a26000000000000000000000000000000000000000000000000000000007bffffffffffffffffffffffffffffffffffffffffffffffffffffffff1916827bffffffffffffffffffffffffffffffffffffffffffffffffffffffff1916148061036457507f0e89341c000000000000000000000000000000000000000000000000000000007bffffffffffffffffffffffffffffffffffffffffffffffffffffffff1916827bffffffffffffffffffffffffffffffffffffffffffffffffffffffff1916145b806103745750610373826107b2565b5b9050919050565b61038361081c565b73ffffffffffffffffffffffffffffffffffffffff168573ffffffffffffffffffffffffffffffffffffffff1614806103c957506103c8856103c361081c565b61067d565b5b610408576040517f08c379a00000000000000000000000000000000000000000000000000000000081526004016103ff90611d7a565b60405180910390fd5b6104158585858585610824565b5050505050565b6060600260003373ffffffffffffffffffffffffffffffffffffffff1673ffffffffffffffffffffffffffffffffffffffff1681526020019081526020016000206001018054806020026020016040519081016040528092919081815260200182805480156104aa57602002820191906000526020600020905b815481526020019060010190808311610496575b50505050509050919050565b606081518351146104fc576040517f08c379a00000000000000000000000000000000000000000000000000000000081526004016104f390611dda565b60405180910390fd5b6000835167ffffffffffffffff81111561053f577f4e487b7100000000000000000000000000000000000000000000000000000000600052604160045260246000fd5b60405190808252806020026020018201604052801561056d5781602001602082028036833780820191505090505b50905060005b845181101561065c576106068582815181106105b8577f4e487b7100000000000000000000000000000000000000000000000000000000600052603260045260246000fd5b60200260200101518583815181106105f9577f4e487b7100000000000000000000000000000000000000000000000000000000600052603260045260246000fd5b60200260200101516101d0565b82828151811061063f577f4e487b7100000000000000000000000000000000000000000000000000000000600052603260045260246000fd5b60200260200101818152505080610655906120ba565b9050610573565b508091505092915050565b61067961067261081c565b8383610b76565b5050565b6000600160008473ffffffffffffffffffffffffffffffffffffffff1673ffffffffffffffffffffffffffffffffffffffff16815260200190815260200160002060008373ffffffffffffffffffffffffffffffffffffffff1673ffffffffffffffffffffffffffffffffffffffff16815260200190815260200160002060009054906101000a900460ff16905092915050565b61071961081c565b73ffffffffffffffffffffffffffffffffffffffff168573ffffffffffffffffffffffffffffffffffffffff16148061075f575061075e8561075961081c565b61067d565b5b61079e576040517f08c379a000000000000000000000000000000000000000000000000000000000815260040161079590611d3a565b60405180910390fd5b6107ab8585858585610ce3565b5050505050565b60007f01ffc9a7000000000000000000000000000000000000000000000000000000007bffffffffffffffffffffffffffffffffffffffffffffffffffffffff1916827bffffffffffffffffffffffffffffffffffffffffffffffffffffffff1916149050919050565b600033905090565b8151835114610868576040517f08c379a000000000000000000000000000000000000000000000000000000000815260040161085f90611dfa565b60405180910390fd5b600073ffffffffffffffffffffffffffffffffffffffff168473ffffffffffffffffffffffffffffffffffffffff1614156108d8576040517f08c379a00000000000000000000000000000000000000000000000000000000081526004016108cf90611d5a565b60405180910390fd5b60006108e261081c565b905060005b8451811015610ae157600085828151811061092b577f4e487b7100000000000000000000000000000000000000000000000000000000600052603260045260246000fd5b602002602001015190506000858381518110610970577f4e487b7100000000000000000000000000000000000000000000000000000000600052603260045260246000fd5b60200260200101519050600080600084815260200190815260200160002060008b73ffffffffffffffffffffffffffffffffffffffff1673ffffffffffffffffffffffffffffffffffffffff16815260200190815260200160002054905081811015610a11576040517f08c379a0000000000000000000000000000000000000000000000000000000008152600401610a0890611d9a565b60405180910390fd5b81810360008085815260200190815260200160002060008c73ffffffffffffffffffffffffffffffffffffffff1673ffffffffffffffffffffffffffffffffffffffff168152602001908152602001600020819055508160008085815260200190815260200160002060008b73ffffffffffffffffffffffffffffffffffffffff1673ffffffffffffffffffffffffffffffffffffffff1681526020019081526020016000206000828254610ac69190611f7d565b9250508190555050505080610ada906120ba565b90506108e7565b508473ffffffffffffffffffffffffffffffffffffffff168673ffffffffffffffffffffffffffffffffffffffff168273ffffffffffffffffffffffffffffffffffffffff167f4a39dc06d4c0dbc64b70af90fd698a233a518aa5d07e595d983b8c0526c8f7fb8787604051610b58929190611c66565b60405180910390a4610b6e818787878787610f63565b505050505050565b8173ffffffffffffffffffffffffffffffffffffffff168373ffffffffffffffffffffffffffffffffffffffff161415610be5576040517f08c379a0000000000000000000000000000000000000000000000000000000008152600401610bdc90611dba565b60405180910390fd5b80600160008573ffffffffffffffffffffffffffffffffffffffff1673ffffffffffffffffffffffffffffffffffffffff16815260200190815260200160002060008473ffffffffffffffffffffffffffffffffffffffff1673ffffffffffffffffffffffffffffffffffffffff16815260200190815260200160002060006101000a81548160ff0219169083151502179055508173ffffffffffffffffffffffffffffffffffffffff168373ffffffffffffffffffffffffffffffffffffffff167f17307eab39ab6107e8899845ad3d59bd9653f200f220920489ca2b5937696c3183604051610cd69190611c9d565b60405180910390a3505050565b600073ffffffffffffffffffffffffffffffffffffffff168473ffffffffffffffffffffffffffffffffffffffff161415610d53576040517f08c379a0000000000000000000000000000000000000000000000000000000008152600401610d4a90611d5a565b60405180910390fd5b6000610d5d61081c565b90506000610d6a8561114a565b90506000610d778561114a565b9050600080600088815260200190815260200160002060008a73ffffffffffffffffffffffffffffffffffffffff1673ffffffffffffffffffffffffffffffffffffffff16815260200190815260200160002054905085811015610e10576040517f08c379a0000000000000000000000000000000000000000000000000000000008152600401610e0790611d9a565b60405180910390fd5b85810360008089815260200190815260200160002060008b73ffffffffffffffffffffffffffffffffffffffff1673ffffffffffffffffffffffffffffffffffffffff168152602001908152602001600020819055508560008089815260200190815260200160002060008a73ffffffffffffffffffffffffffffffffffffffff1673ffffffffffffffffffffffffffffffffffffffff1681526020019081526020016000206000828254610ec59190611f7d565b925050819055508773ffffffffffffffffffffffffffffffffffffffff168973ffffffffffffffffffffffffffffffffffffffff168573ffffffffffffffffffffffffffffffffffffffff167fc3d58168c5ae7397731d063d5bbf3d657854427343f4c083240f7aacaa2d0f628a8a604051610f42929190611e35565b60405180910390a4610f58848a8a8a8a8a611210565b505050505050505050565b610f828473ffffffffffffffffffffffffffffffffffffffff166113f7565b15611142578373ffffffffffffffffffffffffffffffffffffffff1663bc197c8187878686866040518663ffffffff1660e01b8152600401610fc8959493929190611b82565b602060405180830381600087803b158015610fe257600080fd5b505af192505050801561101357506040513d601f19601f8201168201806040525081019061101091906118ae565b60015b6110b95761101f612161565b806308c379a0141561107c57506110346124b7565b8061103f575061107e565b806040517f08c379a00000000000000000000000000000000000000000000000000000000081526004016110739190611cb8565b60405180910390fd5b505b6040517f08c379a00000000000000000000000000000000000000000000000000000000081526004016110b090611cda565b60405180910390fd5b63bc197c8160e01b7bffffffffffffffffffffffffffffffffffffffffffffffffffffffff1916817bffffffffffffffffffffffffffffffffffffffffffffffffffffffff191614611140576040517f08c379a000000000000000000000000000000000000000000000000000000000815260040161113790611cfa565b60405180910390fd5b505b505050505050565b60606000600167ffffffffffffffff81111561118f577f4e487b7100000000000000000000000000000000000000000000000000000000600052604160045260246000fd5b6040519080825280602002602001820160405280156111bd5781602001602082028036833780820191505090505b50905082816000815181106111fb577f4e487b7100000000000000000000000000000000000000000000000000000000600052603260045260246000fd5b60200260200101818152505080915050919050565b61122f8473ffffffffffffffffffffffffffffffffffffffff166113f7565b156113ef578373ffffffffffffffffffffffffffffffffffffffff1663f23a6e6187878686866040518663ffffffff1660e01b8152600401611275959493929190611bea565b602060405180830381600087803b15801561128f57600080fd5b505af19250505080156112c057506040513d601f19601f820116820180604052508101906112bd91906118ae565b60015b611366576112cc612161565b806308c379a0141561132957506112e16124b7565b806112ec575061132b565b806040517f08c379a00000000000000000000000000000000000000000000000000000000081526004016113209190611cb8565b60405180910390fd5b505b6040517f08c379a000000000000000000000000000000000000000000000000000000000815260040161135d90611cda565b60405180910390fd5b63f23a6e6160e01b7bffffffffffffffffffffffffffffffffffffffffffffffffffffffff1916817bffffffffffffffffffffffffffffffffffffffffffffffffffffffff1916146113ed576040517f08c379a00000000000000000000000000000000000000000000000000000000081526004016113e490611cfa565b60405180910390fd5b505b505050505050565b6000808273ffffffffffffffffffffffffffffffffffffffff163b119050919050565b600061142d61142884611e83565b611e5e565b9050808382526020820190508285602086028201111561144c57600080fd5b60005b8581101561147c57816114628882611530565b84526020840193506020830192505060018101905061144f565b5050509392505050565b600061149961149484611eaf565b611e5e565b905080838252602082019050828560208602820111156114b857600080fd5b60005b858110156114e857816114ce8882611602565b8452602084019350602083019250506001810190506114bb565b5050509392505050565b600061150561150084611edb565b611e5e565b90508281526020810184848401111561151d57600080fd5b611528848285612047565b509392505050565b60008135905061153f8161254d565b92915050565b600082601f83011261155657600080fd5b813561156684826020860161141a565b91505092915050565b600082601f83011261158057600080fd5b8135611590848260208601611486565b91505092915050565b6000813590506115a881612564565b92915050565b6000813590506115bd8161257b565b92915050565b6000815190506115d28161257b565b92915050565b600082601f8301126115e957600080fd5b81356115f98482602086016114f2565b91505092915050565b60008135905061161181612592565b92915050565b6000806040838503121561162a57600080fd5b600061163885828601611530565b925050602061164985828601611530565b9150509250929050565b600080600080600060a0868803121561166b57600080fd5b600061167988828901611530565b955050602061168a88828901611530565b945050604086013567ffffffffffffffff8111156116a757600080fd5b6116b38882890161156f565b935050606086013567ffffffffffffffff8111156116d057600080fd5b6116dc8882890161156f565b925050608086013567ffffffffffffffff8111156116f957600080fd5b611705888289016115d8565b9150509295509295909350565b600080600080600060a0868803121561172a57600080fd5b600061173888828901611530565b955050602061174988828901611530565b945050604061175a88828901611602565b935050606061176b88828901611602565b925050608086013567ffffffffffffffff81111561178857600080fd5b611794888289016115d8565b9150509295509295909350565b600080604083850312156117b457600080fd5b60006117c285828601611530565b92505060206117d385828601611599565b9150509250929050565b600080604083850312156117f057600080fd5b60006117fe85828601611530565b925050602061180f85828601611602565b9150509250929050565b6000806040838503121561182c57600080fd5b600083013567ffffffffffffffff81111561184657600080fd5b61185285828601611545565b925050602083013567ffffffffffffffff81111561186f57600080fd5b61187b8582860161156f565b9150509250929050565b60006020828403121561189757600080fd5b60006118a5848285016115ae565b91505092915050565b6000602082840312156118c057600080fd5b60006118ce848285016115c3565b91505092915050565b6000602082840312156118e957600080fd5b60006118f784828501611602565b91505092915050565b600061190c8383611b64565b60208301905092915050565b61192181611fd3565b82525050565b600061193282611f1c565b61193c8185611f4a565b935061194783611f0c565b8060005b8381101561197857815161195f8882611900565b975061196a83611f3d565b92505060018101905061194b565b5085935050505092915050565b61198e81611fe5565b82525050565b600061199f82611f27565b6119a98185611f5b565b93506119b9818560208601612056565b6119c281612183565b840191505092915050565b60006119d882611f32565b6119e28185611f6c565b93506119f2818560208601612056565b6119fb81612183565b840191505092915050565b6000611a13603483611f6c565b9150611a1e826121a1565b604082019050919050565b6000611a36602883611f6c565b9150611a41826121f0565b604082019050919050565b6000611a59602b83611f6c565b9150611a648261223f565b604082019050919050565b6000611a7c602983611f6c565b9150611a878261228e565b604082019050919050565b6000611a9f602583611f6c565b9150611aaa826122dd565b604082019050919050565b6000611ac2603283611f6c565b9150611acd8261232c565b604082019050919050565b6000611ae5602a83611f6c565b9150611af08261237b565b604082019050919050565b6000611b08602983611f6c565b9150611b13826123ca565b604082019050919050565b6000611b2b602983611f6c565b9150611b3682612419565b604082019050919050565b6000611b4e602883611f6c565b9150611b5982612468565b604082019050919050565b611b6d8161203d565b82525050565b611b7c8161203d565b82525050565b600060a082019050611b976000830188611918565b611ba46020830187611918565b8181036040830152611bb68186611927565b90508181036060830152611bca8185611927565b90508181036080830152611bde8184611994565b90509695505050505050565b600060a082019050611bff6000830188611918565b611c0c6020830187611918565b611c196040830186611b73565b611c266060830185611b73565b8181036080830152611c388184611994565b90509695505050505050565b60006020820190508181036000830152611c5e8184611927565b905092915050565b60006040820190508181036000830152611c808185611927565b90508181036020830152611c948184611927565b90509392505050565b6000602082019050611cb26000830184611985565b92915050565b60006020820190508181036000830152611cd281846119cd565b905092915050565b60006020820190508181036000830152611cf381611a06565b9050919050565b60006020820190508181036000830152611d1381611a29565b9050919050565b60006020820190508181036000830152611d3381611a4c565b9050919050565b60006020820190508181036000830152611d5381611a6f565b9050919050565b60006020820190508181036000830152611d7381611a92565b9050919050565b60006020820190508181036000830152611d9381611ab5565b9050919050565b60006020820190508181036000830152611db381611ad8565b9050919050565b60006020820190508181036000830152611dd381611afb565b9050919050565b60006020820190508181036000830152611df381611b1e565b9050919050565b60006020820190508181036000830152611e1381611b41565b9050919050565b6000602082019050611e2f6000830184611b73565b92915050565b6000604082019050611e4a6000830185611b73565b611e576020830184611b73565b9392505050565b6000611e68611e79565b9050611e748282612089565b919050565b6000604051905090565b600067ffffffffffffffff821115611e9e57611e9d612132565b5b602082029050602081019050919050565b600067ffffffffffffffff821115611eca57611ec9612132565b5b602082029050602081019050919050565b600067ffffffffffffffff821115611ef657611ef5612132565b5b611eff82612183565b9050602081019050919050565b6000819050602082019050919050565b600081519050919050565b600081519050919050565b600081519050919050565b6000602082019050919050565b600082825260208201905092915050565b600082825260208201905092915050565b600082825260208201905092915050565b6000611f888261203d565b9150611f938361203d565b9250827fffffffffffffffffffffffffffffffffffffffffffffffffffffffffffffffff03821115611fc857611fc7612103565b5b828201905092915050565b6000611fde8261201d565b9050919050565b60008115159050919050565b60007fffffffff0000000000000000000000000000000000000000000000000000000082169050919050565b600073ffffffffffffffffffffffffffffffffffffffff82169050919050565b6000819050919050565b82818337600083830152505050565b60005b83811015612074578082015181840152602081019050612059565b83811115612083576000848401525b50505050565b61209282612183565b810181811067ffffffffffffffff821117156120b1576120b0612132565b5b80604052505050565b60006120c58261203d565b91507fffffffffffffffffffffffffffffffffffffffffffffffffffffffffffffffff8214156120f8576120f7612103565b5b600182019050919050565b7f4e487b7100000000000000000000000000000000000000000000000000000000600052601160045260246000fd5b7f4e487b7100000000000000000000000000000000000000000000000000000000600052604160045260246000fd5b600060033d11156121805760046000803e61217d600051612194565b90505b90565b6000601f19601f8301169050919050565b60008160e01c9050919050565b7f455243313135353a207472616e7366657220746f206e6f6e204552433131353560008201527f526563656976657220696d706c656d656e746572000000000000000000000000602082015250565b7f455243313135353a204552433131353552656365697665722072656a6563746560008201527f6420746f6b656e73000000000000000000000000000000000000000000000000602082015250565b7f455243313135353a2062616c616e636520717565727920666f7220746865207a60008201527f65726f2061646472657373000000000000000000000000000000000000000000602082015250565b7f455243313135353a2063616c6c6572206973206e6f74206f776e6572206e6f7260008201527f20617070726f7665640000000000000000000000000000000000000000000000602082015250565b7f455243313135353a207472616e7366657220746f20746865207a65726f20616460008201527f6472657373000000000000000000000000000000000000000000000000000000602082015250565b7f455243313135353a207472616e736665722063616c6c6572206973206e6f742060008201527f6f776e6572206e6f7220617070726f7665640000000000000000000000000000602082015250565b7f455243313135353a20696e73756666696369656e742062616c616e636520666f60008201527f72207472616e7366657200000000000000000000000000000000000000000000602082015250565b7f455243313135353a2073657474696e6720617070726f76616c2073746174757360008201527f20666f722073656c660000000000000000000000000000000000000000000000602082015250565b7f455243313135353a206163636f756e747320616e6420696473206c656e67746860008201527f206d69736d617463680000000000000000000000000000000000000000000000602082015250565b7f455243313135353a2069647320616e6420616d6f756e7473206c656e6774682060008201527f6d69736d61746368000000000000000000000000000000000000000000000000602082015250565b600060443d10156124c75761254a565b6124cf611e79565b60043d036004823e80513d602482011167ffffffffffffffff821117156124f757505061254a565b808201805167ffffffffffffffff811115612515575050505061254a565b80602083010160043d03850181111561253257505050505061254a565b61254182602001850186612089565b82955050505050505b90565b61255681611fd3565b811461256157600080fd5b50565b61256d81611fe5565b811461257857600080fd5b50565b61258481611ff1565b811461258f57600080fd5b50565b61259b8161203d565b81146125a657600080fd5b5056fea26469706673582212207245f72872f314646909da6fc8a675c88fccbf2793dac69cce0dada35570ce0664736f6c63430008040033",
  "linkReferences": {},
  "deployedLinkReferences": {}
}